:100000000C94C2010C94EA010C94EA010C94EA01EC
:100010000C949E1F0C94EA010C94EA010C942C2E73
:100020000C94EA010C94EA010C94050D0C94EA017D
:100030000C94EA010C9469090C9495090C94EA015A
:100040000C94EA010C94EA010C94EA010C94CE2F72
:100050000C94EA0105A84CCDB2D44EB93836A902A9
:100060000C50B9918688083CA6AAAA2ABE000000B6
:10007000803F0D0A00506978793A207069787920BC
:10008000726573706F6E6473206275742073656E31
:10009000647320676172626167652E2043686563DF
:1000A0006B20796F757220493243004552524F528E
:1000B0003A20000D0A00434D5053303320736574CD
:1000C0004173313238446567726565206572726FBD
:1000D00072004552524F523A20000D0A00434D50D3
:1000E000533033206E6F7420696E697469616C6976
:1000F0007A6564004552524F523A20000D0A00437F
:100100004D50533033206E6F7420696E697469618D
:100110006C697A6564004552524F523A20000D0ACC
:1001200000434D5053303320636F6E6E65637469C6
:100130006F6E2070726F626C656D004552524F5247
:100140003A20000D0A00476F6C64626F6172643A76
:10015000206932632070726F626C656D20776974FC
:100160006820706F7274657870616E6465720045A6
:1001700052524F523A2000656E64206932632073F8
:1001800063616E0D0A0020756E6B6F776E0D0A004D
:100190002049324320506F7274657870616E6465D7
:1001A000720D0A00204C617365720D0A0020556CB7
:1001B000747261736368616C6C0D0A002050697819
:1001C000790D0A00204B6F6D706173730D0A00206A
:1001D000557372696E670D0A0020202000737461E8
:1001E000727420693263207363616E205B37206212
:1001F0006974206164647265737320696E2064653C
:1002000063696D616C5D0D0A002D2D2D0D0A005383
:100210004D2C300D0A00537E2C330D0A0047420D41
:100220000A00242424002D2D2D0D0A000D0A004360
:100230002C00534D2C310D0A00537E2C330D0A0037
:1002400047420D0A00242424004E414E494E495491
:1002500059494E46CDCCCC3D0AD7233C17B7D138AF
:1002600077CC2B329595E6241FB14F0A0000204130
:100270000000C84200401C4620BCBE4CCA1B0E5A9F
:10028000AEC59D7400407A10F35A00A0724E180952
:100290000010A5D4E80000E87648170000E40B54ED
:1002A000020000CA9A3B000000E1F50500008096BC
:1002B0009800000040420F000000A08601000000EE
:1002C000102700000000E8030000000064000000A8
:1002D00000000A00000000000100000000002C7671
:1002E000D888DC674F0823DFC1DFAE59E1B1B7968C
:1002F000E5E3E453C63AE651997696E8E6C28426E9
:10030000EB898C9B62ED407C6FFCEFBC9C9F40F2C4
:10031000BAA56FA5F490055A2AF75C936B6CF96740
:100320006DC11BFCE0E40D47FEF520E6B500D0ED05
:10033000902E0300943577050080841E080000206D
:100340004E0A000000C80C333333330F986E12830B
:100350001141EF8D2114893BE65516CFFEE6DB18DF
:10036000D1844B381BF77C1D901DA4BBE4242032A4
:1003700084725E228100C9F124ECA1E53D27A331FE
:10038000C532033211241FBECFE5D8E0DEBFCDBF9A
:1003900011E0A0E6B0E0E4E7FBE702C005900D92B3
:1003A000A635B107D9F724E0A6E5B1E001C01D925A
:1003B000AB32B207E1F711E0C1ECD1E004C0219704
:1003C000FE010E942433CF3BD107C9F70E949A3126
:1003D0000C94AD3D0C94000020E044E060E184E723
:1003E00091E00E94890B84E791E00E94F80B80E97C
:1003F00091E00E941A0C85E991E00E941A0C8AE9AA
:1004000091E00E941A0C8FE991E00E941A0C8BE88F
:1004100091E00E94701B8AE891E00E94BC208DE56B
:1004200093E00E94F12C8BE891E00E941A1B64E695
:100430008AE891E00C946B214F925F926F927F92C9
:100440008F929F92AF92BF92CF92DF92EF92FF92E4
:100450000F931F93CF93DF9300D000D0CDB7DEB7BB
:100460000CE511E0F80160817181605A7109072E75
:10047000000C880B990B0E945A344B015C01F80167
:100480006281738166597109072E000C880B990BE4
:100490000E945A346B017C016091560170915701A2
:1004A00060587109072E000C880B990B0E945A3472
:1004B0002B013C0120E030E040E450E40E944E3546
:1004C00069837A838B839C83C501B4019058A7010B
:1004D00096010E943933A30192010E9439330E9490
:1004E000223471956195710984EA91E00E94841E1D
:1004F000A7019601C501B4010E94393329813A81CF
:100500004B815C810E943A330E94223487EA91E059
:100510000E94841EA7019601C501B4010E943A33CE
:1005200029813A814B815C810E943A330E942234B6
:100530008AEA91E00E94841EA5019401C701B601D8
:100540000E943933A30192010E9439330E94223460
:100550008DEA91E00F900F900F900F90DF91CF9167
:100560001F910F91FF90EF90DF90CF90BF90AF90D1
:100570009F908F907F906F905F904F900C94841E0F
:1005800080915C0190915D01803A9105ACF46EEC34
:100590007FEF84EA91E00E94841E62E370E087EAC4
:1005A00091E00E94841E62E370E08AEA91E00E947A
:1005B000841E62E370E014C062E370E084EA91E0BC
:1005C0000E94841E6EEC7FEF87EA91E00E94841EF9
:1005D0006EEC7FEF8AEA91E00E94841E6EEC7FEF62
:1005E0008DEA91E00C94841EEF92FF920F931F937B
:1005F000CF93DF93C0916201D0916301E0E0F0E01E
:100600008FEF9FEF60E070E020E030E001E010E06D
:10061000A0E1EA2EF12CAF014F705527D80102C09E
:10062000AA0FBB1F4A95E2F7AD014C235D23452B72
:1006300099F0621773079CF4CF010197A90137FF66
:1006400002C04F5F5F4F55954795841B950BB701CF
:100650000E94CF32B90103C02F5F3F4F02C020E09C
:1006600030E03196E032F105B1F6DF91CF911F9184
:100670000F91FF90EF9008958F929F92AF92BF924B
:10068000CF92DF92EF92FF920E94660DC090B80168
:10069000D090B901E090BA01F090BB01DC01CB0130
:1006A0008C199D09AE09BF09893C9105A105B105C9
:1006B00030F00E94F4029093B7018093B6010E943B
:1006C000660D6093B8017093B9018093BA0190935D
:1006D000BB016091B6017091B701072E000C880B29
:1006E000990B0E945A3426E53EE049EC5EE30E94F5
:1006F0004E350E94AB336B017C0120E030E048ECCA
:1007000052EC0E944E350E94223484EA91E00E940D
:10071000841EC701B601905820E030E048EC52E456
:100720000E944E350E9422344B015C0187EA91E021
:100730000E94841EB4018AEA91E00E94841E20E097
:1007400030E048EC52E4C701B6010E944E350E94E9
:1007500022348DEA91E0FF90EF90DF90CF90BF9030
:10076000AF909F908F900C94841E68E770E084E7B0
:1007700091E00E94451862E184EA91E00E94421CE7
:100780008111F9CF08958F929F92AF92BF92DF921D
:10079000EF92FF920F931F93CF93DF930E94660D0A
:1007A0000091CE011091CF012091D0013091D10163
:1007B000DC01CB01801B910BA20BB30B82349105A2
:1007C000A105B10508F451C08091CC019091CD01F3
:1007D00081309105F1F06CF4892B81F541E063E6FD
:1007E0008FE991E00E94D50C90936D0180936C018C
:1007F00025C082309105C1F0039701F541E063E621
:1008000080E991E00E94D50C90937301809372016E
:1008100015C041E063E68AE991E00E94D50C90930F
:100820006F0180936E010AC041E063E685E991E0C3
:100830000E94D50C90937101809370018091CC013E
:100840009091CD01019664E070E00E94CF329093C8
:10085000CD018093CC010E94660D6093CE01709310
:10086000CF018093D0019093D1010E94660D009139
:10087000C8011091C9012091CA013091CB01DC015E
:10088000CB01801B910BA20BB30B4597A105B105C2
:1008900098F08BE891E00E94D91A90E0909357016C
:1008A000809356010E94660D6093C8017093C90140
:1008B0008093CA019093CB010E94660D0091C40100
:1008C0001091C5012091C6013091C701DC01CB0117
:1008D000801B910BA20BB30B4597A105B10508F442
:1008E000C5C080918401811109C081E891E00E9416
:1008F0003531811105C080E090E097C010928401ED
:1009000010928701109286010CE0DD24D39480912F
:100910008601909187018238910568F783E891E01C
:100920000E941B31EC018091860190918701C535B1
:100930002AEAD20731F421E0209384011092850144
:1009400074C0C635EAEADE0731F421E02093840161
:10095000209385016AC0209709F467C0209188011F
:100960003091890128173907A8F4225E3F4F309350
:10097000890120938801029FB001039F700D11240B
:1009800080918101909182010E945637909382015B
:10099000809381012091860130918701029FC001DF
:1009A000039F900D1124E0908101F0908201E80EE8
:1009B000F91E4701A12CB12C10E080918501811115
:1009C00006C0153021F4F701138612860DC083E8A6
:1009D00091E00E941B31A80EB91EF40181939193FE
:1009E0004F011F5F163049F7CA15DB0549F48091A6
:1009F00086019091870101969093870180938601EB
:100A000083E891E00E941B318535FAEA9F0719F4CB
:100A1000109285017CCF86359A4A19F4D0928501CF
:100A200076CF8091860190918701909361018093A8
:100A300060011816190684F4E0918101F091820199
:100A40008281938190935D0180935C018481958183
:100A500090935F0180935E010E94660D6093C401D4
:100A60007093C5018093C6019093C7010E94660DE3
:100A70000091C0011091C1012091C2013091C301C8
:100A8000DC01CB01801B910BA20BB30B0397A105DB
:100A9000B10590F08AE891E00E94E920909363010B
:100AA000809362010E94660D6093C0017093C10142
:100AB0008093C2019093C3010E94660D0091BC0116
:100AC0001091BD012091BE013091BF01DC01CB012D
:100AD000801B910BA20BB30B0397A105B10590F1FD
:100AE00061E084EA91E00E94531D90E090936501DB
:100AF0008093640160E084EA91E00E94531D90E0DD
:100B0000909367018093660163E084EA91E00E941C
:100B1000531D90E0909369018093680162E084EA3C
:100B200091E00E94531D90E090936B0180936A01C5
:100B30000E94660D6093BC017093BD018093BE015D
:100B40009093BF01DF91CF911F910F91FF90EF9094
:100B5000DF90BF90AF909F908F9008958F929F925B
:100B6000AF92BF92EF92FF920F931F93CF93DF93B9
:100B70000E94660D4B015C01C0E0D0E062E184EAB6
:100B800091E00E94421C882309F4FDC161E184EADE
:100B900091E00E94421C811111C0219664EF71E026
:100BA00080E090E00E946F0D84E791E00E94BF0A10
:100BB00062E870E084E791E00E944518C130D105F9
:100BC00009F4F5C0C230D10509F420C12097A1F67F
:100BD0000E94C3030E94660DDC01CB0188199909AC
:100BE000AA09BB09893E9340A105B10538F284E703
:100BF00091E00E94BF0A40E060E084E791E00E943B
:100C0000910A60916C0170916D014AE050E084E7B7
:100C100091E00E94541940E064E084E791E00E9472
:100C2000910A60916E0170916F014AE050E084E793
:100C300091E00E94541940E068E084E791E00E944E
:100C4000910A60917001709171014AE050E084E76F
:100C500091E00E94541940E06CE084E791E00E942A
:100C6000910A60917201709173014AE050E084E74B
:100C700091E00E94541941E060E084E791E00E9415
:100C8000910A60915601709157014AE050E084E763
:100C900091E00E94541941E064E084E791E00E94F1
:100CA000910A60916001709161014AE050E084E72F
:100CB00091E00E9454198091600190916101181691
:100CC000190604F541E068E084E791E00E94910A8A
:100CD00060915C0170915D014AE050E084E791E031
:100CE0000E94541941E06CE084E791E00E94910A6F
:100CF00060915E0170915F014AE050E084E791E00D
:100D00000E94541942E060E084E791E00E94910A59
:100D1000609162017091630142E050E084E791E0EC
:100D20000E94AF1943E060E084E791E00E94910ADD
:100D300060916401709165014AE050E084E791E0C0
:100D40000E94541943E064E084E791E00E94910A14
:100D500060916601709167014AE050E084E791E09C
:100D60000E94541943E068E084E791E00E94910AF0
:100D700060916801709169014AE050E084E791E078
:100D80000E94541943E06CE084E791E00E94910ACC
:100D900060916A0170916B014AE050E084E791E054
:100DA0000E9454190E94660D4B015C01E7CE84E756
:100DB00091E00E94BF0AE12CF12C00E010E0A801B4
:100DC0005595479555954795B7016F70772784E7F7
:100DD00091E00E94910A602F8AE891E00E943821F8
:100DE0004AE050E0682F84E791E00E9491190F5F7C
:100DF0001F4F84E0E80EF11C0031110501F768EE89
:100E000073E080E090E00E946F0DB8CE84E791E03F
:100E10000E94BF0A6CE870E084E791E00E944518E8
:100E20006CE97FEF84EA91E00E94841E64EF71E038
:100E300080E090E00E946F0D64E670E084EA91E04B
:100E40000E94841E64EF71E080E090E00E946F0DCC
:100E500060E070E084EA91E00E94841E68EE73E036
:100E600080E090E00E946F0D64E670E087EA91E018
:100E70000E94841E64EF71E080E090E00E946F0D9C
:100E80006CE97FEF87EA91E00E94841E64EF71E0D5
:100E900080E090E00E946F0D60E070E087EA91E0F2
:100EA0000E94841E68EE73E080E090E00E946F0D67
:100EB00064E670E08AEA91E00E94841E64EF71E0CB
:100EC00080E090E00E946F0D6CE97FEF8AEA91E08C
:100ED0000E94841E64EF71E080E090E00E946F0D3C
:100EE00060E070E08AEA91E00E94841E68EE73E0A0
:100EF00080E090E00E946F0D64E670E08DEA91E082
:100F00000E94841E64EF71E080E090E00E946F0D0B
:100F10006CE97FEF8DEA91E00E94841E64EF71E03E
:100F200080E090E00E946F0D60E070E08DEA91E05B
:100F30000E94841E68EE73E080E090E00E946F0DD6
:100F40006EEC7FEF84EA91E00E94841E62E370E021
:100F500087EA91E00E94841E62E370E08AEA91E0F1
:100F60000E94841E62E370E08DEA91E00E94841E7C
:100F700068EE73E080E090E00E946F0D84EA91E0FB
:100F80000E94921BF9CDDF91CF911F910F91FF909D
:100F9000EF90BF90AF909F908F900895CF92DF9287
:100FA000EF92FF920F931F93CF93DF9384E791E02B
:100FB0000E94BF0A67E970E084E791E00E9445184B
:100FC0000E94660D6B017C01C0E0D0E004EF11E0EF
:100FD00062E184EA91E00E94421C882309F458C02F
:100FE0002097A1F484E791E00E94BF0A6FE970E0C6
:100FF00084E791E00E9445180E94660D6C197D09F6
:101000004AE050E084E791E00E9454190E94660D86
:101010006B017C01209731F441E060E084E791E0CE
:101020000E94910A0E94C303809162019091630122
:10103000892B59F0209731F46AEA70E084E791E057
:101040000E9445180E943C031CC080916001909151
:101050006101181619065CF4209731F460EB70E01A
:1010600084E791E00E9445180E941C020AC0209764
:1010700031F465EB70E084E791E00E9445180E942E
:10108000C002CE010196B8010E94CF32EC01A0CF80
:1010900084EA91E0DF91CF911F910F91FF90EF9043
:1010A000DF90CF900C94921BCF93DF936CEB70E0AA
:1010B00084E791E00E944518C1E0D0E062E184EA53
:1010C00091E00E94421C882309F470C084E791E0FB
:1010D0000E94BF0A61E184EA91E00E94421C8111F2
:1010E00021C084EA91E00E94921B219662E870E0A0
:1010F00084E791E00E94451868EE73E080E090E09C
:101100000E946F0D84E791E00E94BF0A6EEC70E0D0
:1011100084E791E00E94451860ED77E080E090E080
:101120000E946F0DC130D105B1F0C230D10529F157
:101130002097C9F565EB70E084E791E00E944518BF
:101140000E94C3038091600190916101892B31F568
:101150000E94C002B3CF60EE70E084E791E00E948D
:1011600045180E94C3038091600190916101181697
:101170001906A4F40E941C02A1CF6AEA70E084E779
:1011800091E00E9445180E94C303809162019091F2
:101190006301892B19F00E943C0390CF84EA91E00F
:1011A0000E94921B8BCFC0E0D0E088CF84EA91E010
:1011B000DF91CF910C94921BCF93DF9384E791E062
:1011C0000E94BF0A84EA91E00E94921B67EE70E0E1
:1011D00084E791E00E94451841E060E084E791E0F7
:1011E0000E94910A6DEE70E084E791E00E9445183C
:1011F00042E060E084E791E00E94910A6AEF70E0CB
:1012000084E791E00E94451843E060E084E791E0C4
:101210000E94910A61E071E084E791E00E94451824
:10122000C0E0D0E04C2F6FE084E791E00E94910A8B
:101230006AE070E080E090E00E946F0D62E184EA75
:1012400091E00E94421C811102C0219614C061E10C
:1012500084EA91E00E94421C811105C0219758F454
:10126000C0E0D0E00DC063E184EA91E00E94421C3E
:101270008111D8CF0CC0C530D10514F0C4E0D0E046
:1012800064EF71E080E090E00E946F0DCBCF84E7C7
:1012900091E00E94BF0AC130D10571F02CF4CD2B32
:1012A00081F40E94CE070DC0C230D10541F02397D2
:1012B00041F40E94540805C00E94AE0502C00E947D
:1012C000B50364EF71E080E090E0DF91CF910C9482
:1012D0006F0D1F920F920FB60F9211242F938F93C1
:1012E0009F93EF93FF938BB19CB18871E091D401F0
:1012F000EF5FEF712091D301E21739F0E093D40151
:10130000F0E0E952FE4F908301C082E09091D2015B
:10131000892B8093D201FF91EF919F918F912F9113
:101320000F900FBE0F901F9018951F920F920FB63F
:101330000F9211248F939F93EF93FF939091D60177
:101340008091D501981761F0E091D501EF5FEF71C1
:10135000E093D501F0E0E950FE4F80818CB901C0E7
:101360005598FF91EF919F918F910F900FBE0F9025
:101370001F9018951092D6011092D5011092D401A9
:101380001092D30197FF03C022E02BB99F7790BD45
:1013900089B988E98AB986E880BD08959091D40119
:1013A0008091D301981781F0E091D301EF5FEF7145
:1013B000E093D301F0E0E952FE4F80819091D20199
:1013C0001092D20190E0089580E091E0089590910C
:1013D000D6019F5F9F712091D5019217E1F3E92F0C
:1013E000F0E0E950FE4F80839093D601559A08951E
:1013F000CF93DF93EC018991882319F00E94E709CC
:10140000FACFDF91CF910895CF93DF93FC018491C0
:10141000EF012196882321F00E94E709FE01F7CF12
:10142000DF91CF910895FC01138212828AE191E04D
:10143000918380831186648342872387148608956D
:101440001F93CF93DF93EC01162F6C818DE593E012
:101450000E94162D8C85612F682B8DE593E00E94EC
:10146000382D8DE593E0DF91CF911F910C94352DB0
:10147000FC01148660E00C94200A28E0FC0124871B
:1014800060E00C94200A0F931F93CF938C01C62F1A
:1014900064600E94200A81E090E00E94950D6C2F0C
:1014A0006B7FC8010E94200A82E390E0CF911F91D8
:1014B0000F910C94950D1F93CF93DF93EC01162F92
:1014C0000E94200A612FCE01DF91CF911F910C94D1
:1014D000430AFF920F931F93CF93DF931F92CDB7D1
:1014E000DEB78C01F62E962F907F692F642BC801F2
:1014F00049830E945B0A80E1F89EB0011124498172
:10150000642BC8010F90DF91CF911F910F91FF9035
:101510000C945B0A62E00E940D3280ED97E00C941F
:10152000950DCF93DF93CDB7DEB728970FB6F8941C
:10153000DEBF0FBECDBF9C0188E0E0E7F0E0DE013A
:10154000119601900D928A95E1F7F9018085841733
:1015500010F44FEF480FFE013196E40FF11DE40F38
:10156000F11D9081690F6068C90128960FB6F89443
:10157000DEBF0FBECDBFDF91CF910C940D32CF9364
:10158000DF93EC0161E00E940D3280ED97E00E9454
:10159000950D8985882339F040E060E0CE01DF9128
:1015A000CF910C94910ADF91CF910895FC0166814F
:1015B0006B7F668368600C940D32FC016681262F78
:1015C000246026836C600C940D32FC0166816D7F73
:1015D000668368600C940D32FC016681262F2260C0
:1015E00026836A600C940D32FC0166816E7F6683EF
:1015F00068600C940D32FC016681262F21602683E1
:1016000069600C940D3268E10C940D326CE10C941D
:101610000D32FC016781262F2260278366600C94BF
:101620000D32FC0167816D7F678364600C940D321D
:10163000FC016781262F2160278365600C940D32A1
:10164000FC0167816E7F678364600C940D32CF92DA
:10165000DF92EF92FF920F931F93CF93DF9300D00F
:10166000CDB7DEB78C01677088E0689FB0011124A8
:101670006064C80149835A830E940D324981C42E97
:101680005A81D52E7601A8E0EA0EF11CF60161918F
:101690006F01D801ED91FC910190F081E02DC8011E
:1016A0000995CE14DF0491F70F900F90DF91CF9141
:1016B0001F910F91FF90EF90DF90CF900895EF92E0
:1016C000FF920F931F93CF93DF938C017A01677082
:1016D00088E0689FB00111246064C8010E940D3247
:1016E000C0E0D0E0F701EC0FFD1F6491D801ED914F
:1016F000FC910190F081E02DC80109952196C83038
:10170000D10581F7DF91CF911F910F91FF90EF905D
:101710000895CF93DF93EC01423018F08D818860FB
:101720008D834887222329F0413019F48D8184600C
:101730008D8362E370E080E090E00E946F0D6C8525
:10174000CE010E94200A68EE73E080E090E00E94E3
:101750006F0D60E3CE010E945B0A84E991E10E9473
:10176000950D60E3CE010E945B0A84E991E10E943D
:10177000950D60E3CE010E945B0A86E990E00E942D
:10178000950D60E2CE010E945B0A6D816062CE0120
:101790000E940D3284E08E83CE010E94DD0ACE01CC
:1017A0000E94BF0A82E08F8366E0CE010E940D3264
:1017B000CE01DF91CF910C948A0ACF93DF93EC0195
:1017C0008DE593E00E94F12C1D8220E04B856A8517
:1017D000CE01DF91CF910C94890B21E0FC01218790
:1017E0000C94DD0B0C94DD0B0C94EC0A0C94E50AC4
:1017F0000C94FB0A0C94F40A0C94270B61110C94C2
:101800003D0A0C94380A0C944518089508950895DB
:1018100080E0089580E0089580E008950895089597
:101820000895FC0186E291E0918380836283438383
:10183000248308958DE593E00C94F12CEF92FF92B0
:101840000F931F93CF93DF931F92CDB7DEB77C0129
:101850008B01FC0162818DE593E049830E94162D86
:101860004981642F8DE593E00E94382D0115110503
:10187000B1F0602F8DE593E00E94382DF701638170
:10188000662369F08481882351F08DE593E00E94FE
:10189000382DF70164818DE593E00E94382D8DE5A8
:1018A00093E00F90DF91CF911F910F91FF90EF90F8
:1018B0000C94352D693649F06D3661F0633651F47C
:1018C00040E050E061E570E009C040E050E060E5D4
:1018D00070E004C040E050E062E570E00C941E0C43
:1018E0000F931F93CF93DF93EC018B0140E050E007
:1018F00060EA70E00E941E0C40E050E06AEA70E08E
:10190000CE010E941E0C40E050E065EA70E0CE017E
:101910000E941E0CB801660F771F40E050E0CE0118
:10192000DF91CF911F910F910C941E0CEF92FF92BB
:101930000F931F93CF93DF938C01EA01AB0160E01B
:1019400070E00E941E0C4C2FF80162818DE593E03F
:101950000E94C02D8DE593E00E94F32D8C179D070A
:10196000CCF38E010150104E83E0000F111F8A95B9
:10197000E1F7E12CF12C209781F08DE593E00E94B6
:10198000FB2D002E02C0880F991F0A94E2F7E80E83
:10199000F91E219708501109EECFC701DF91CF91B1
:1019A0001F910F91FF90EF900895CF93DF93EC017B
:1019B000442349F00E945A0CE881F9810190F0819A
:1019C000E02DCE01099542E050E062E070E0CE01EA
:1019D000DF91CF910C94960C41E050E060E070E014
:1019E0000E94960C0895CF93DF93EC01CE010E94E4
:1019F000EC0C8F3F39F461E070E080E090E00E94F1
:101A00006F0DF4CFDF91CF9108951F920F920FB613
:101A10000F9211242F933F934F935F936F937F9374
:101A20008F939F93AF93BF93EF93FF938091170290
:101A300090911802A0911902B0911A020196A11D6D
:101A4000B11D8093170290931802A0931902B093CE
:101A50001A0280911C028A3079F480911B02811154
:101A600009C081E080931B0278940E94481EF8947C
:101A700010921B0210921C0280911C028F5F8093B7
:101A80001C020E949F17FF91EF91BF91AF919F9110
:101A90008F917F916F915F914F913F912F910F9017
:101AA0000FBE0F901F90189583B78B6083BF89B7C7
:101AB000826089BF8AEF8CBF1092170210921802C1
:101AC0001092190210921A027894089560911702E8
:101AD000709118028091190290911A020895CF9284
:101AE000DF92EF92FF920F931F93009117021091D4
:101AF00018022091190230911A02C0901702D0905A
:101B00001802E0901902F0901A02C01AD10AE20AF3
:101B1000F30AC616D706E806F90678F31F910F9167
:101B2000FF90EF90DF90CF900895019739F0880FE4
:101B3000991F880F991F02970197F1F70895FC01EB
:101B4000108281E0818312820895FC0162830895EE
:101B5000FC015081442349F081E090E001C0880FEE
:101B60006A95EAF7852B808309C021E030E001C047
:101B7000220F6A95EAF72095252320838081581744
:101B800011F081E081830895CF93DF93EC016A81A6
:101B90008DE593E00E94162D41E06A818DE593E08A
:101BA0000E94C02D8DE593E00E94FB2D88838DE57A
:101BB00093E00E94352D8881DF91CF910895CF93D6
:101BC000DF93FC0121812223C1F0EC018DE593E03C
:101BD0000E94292E811111C06A818DE593E00E9437
:101BE000162D41E050E0BE018DE593E00E94C82D26
:101BF0008DE593E00E94352D1982DF91CF910895F4
:101C0000FC01808191810C94BE36CF93DF93EC016F
:101C100088819981009711F00E94BE36198218823E
:101C20001D821C821B821A82DF91CF9108950F932F
:101C30001F93CF93DF93EC018B016F5F7F4F888100
:101C400099810E945637009731F0998388831B83CE
:101C50000A8381E001C080E0DF91CF911F910F9155
:101C60000895CF93DF93EC0188819981892B29F026
:101C70008A819B818617970760F4CE010E94170E18
:101C8000882341F08C819D81892B19F4E881F981A9
:101C9000108281E0DF91CF910895EF92FF920F9330
:101CA0001F93CF93DF93EC017B018A01BA010E945D
:101CB000310E811104C0CE010E94050E07C01D83A4
:101CC0000C83B701888199810E94A838CE01DF91E9
:101CD000CF911F910F91FF90EF900895FC01118219
:101CE000108213821282158214826115710551F0DF
:101CF000FB0101900020E9F73197AF01461B570B1C
:101D00000C944D0E0895EF92FF920F931F93CF9373
:101D1000DF93EC017B018A01BA010E94310E81112F
:101D200004C0CE010E94050E07C01D830C83B701BD
:101D3000888199810E946938CE01DF91CF911F91EE
:101D40000F91FF90EF9008950F931F93CF93DF9320
:101D50008C01EB01FC01808191810097D1F06881B9
:101D600079816115710599F026E132E3232B79F031
:101D7000428153812C813D814217530740F00E94DC
:101D8000A8388C819D81F8019583848313C00E94BB
:101D9000BE3688819981F801918380838A819B81F5
:101DA000938382838C819D81958384831982188299
:101DB0001B821A821D821C82DF91CF911F910F918D
:101DC0000895FC01118210821382128215821482FE
:101DD0000C94A40EFC0111821082138212821582CF
:101DE00014820C94A40ECF93DF93EC01FB018617B1
:101DF000970761F0608171816115710529F0448157
:101E000055810E944D0E02C00E94050ECE01DF9149
:101E1000CF910895FC0111821082138212821582E3
:101E200014820C94F30ECF93DF93EC01861797077F
:101E300011F00E94A40ECE01DF91CF910895CF93AF
:101E4000DF93EC018617970711F00E94A40ECE01D4
:101E5000DF91CF910895CF93DF93EC016115710568
:101E600059F0FB0101900020E9F73197AF01461BC3
:101E7000570B0E944D0E02C00E94050ECE01DF914D
:101E8000CF910895CF93DF9300D0CDB7DEB7FC019B
:101E900011821082138212821582148269831A823F
:101EA000BE016F5F7F4F0E942B0F0F900F90DF914D
:101EB000CF9108950F931F93CF93DF93CDB7DEB7E4
:101EC00029970FB6F894DEBF0FBECDBF8C01862FC9
:101ED000F80111821082138212821582148250E05E
:101EE000BE016F5F7F4F90E00E946339BE016F5F5C
:101EF0007F4FC8010E942B0F29960FB6F894DEBFC2
:101F00000FBECDBFDF91CF911F910F9108950F9319
:101F10001F93CF93DF93CDB7DEB762970FB6F894D8
:101F2000DEBF0FBECDBF8C01CB01F8011182108244
:101F3000138212821582148250E0BE016F5F7F4FC0
:101F40000E94F138BE016F5F7F4FC8010E942B0FC6
:101F500062960FB6F894DEBF0FBECDBFDF91CF9172
:101F60001F910F9108950F931F93CF93DF93CDB7D8
:101F7000DEB761970FB6F894DEBF0FBECDBF8C0100
:101F8000CB01F80111821082138212821582148211
:101F900050E0BE016F5F7F4F0E946339BE016F5FEB
:101FA0007F4FC8010E942B0F61960FB6F894DEBFD9
:101FB0000FBECDBFDF91CF911F910F9108950F9369
:101FC0001F93CF93DF93CDB7DEB7A2970FB6F894E8
:101FD000DEBF0FBECDBF8C01CB01BA01F80111826B
:101FE0001082138212821582148230E0AE014F5F9C
:101FF0005F4F0E940739BE016F5F7F4FC8010E948B
:102000002B0FA2960FB6F894DEBF0FBECDBFDF91A7
:10201000CF911F910F9108950F931F93CF93DF934B
:10202000CDB7DEB7A1970FB6F894DEBF0FBECDBF18
:102030008C01CB01BA01F801118210821382128245
:102040001582148230E0AE014F5F5F4F0E94363937
:10205000BE016F5F7F4FC8010E942B0FA1960FB684
:10206000F894DEBF0FBECDBFDF91CF911F910F91CE
:102070000895EF92FF920F931F93CF93DF93CDB705
:10208000DEB7A1970FB6F894DEBF0FBECDBF7C01BF
:10209000CB01BA01F70111821082138212821582DC
:1020A000148242E0420F8E010F5F1F4F0E940936DB
:1020B000BC01C7010E942B0FA1960FB6F894DEBF9A
:1020C0000FBECDBFDF91CF911F910F91FF90EF9089
:1020D0000895EF92FF920F931F93CF93DF93CDB7A5
:1020E000DEB7A1970FB6F894DEBF0FBECDBF7C015F
:1020F000CB01BA01F701118210821382128215827C
:10210000148242E0420F8E010F5F1F4F0E9409367A
:10211000BC01C7010E942B0FA1960FB6F894DEBF39
:102120000FBECDBFDF91CF911F910F91FF90EF9028
:1021300008950F931F93CF93DF9300D0CDB7DEB7F1
:102140008C016115710561F0CB0169837A830E946E
:102150007038AC0169817A81C8010E94830E02C087
:102160000E94050EC8010F900F90DF91CF911F9133
:102170000F910895FC011182108213821282158240
:1021800014820C949910EF92FF920F931F93CF93A8
:10219000DF93FC01248135816115710511F480E024
:1021A00019C041155105A9F07B01EC018A01020F0C
:1021B000131FB8010E94310E882389F328813981C9
:1021C0008C819D81B701820F931F0E94A8381D83C7
:1021D0000C8381E0DF91CF911F910F91FF90EF90E1
:1021E0000895FB0144815581608171810C94C31075
:1021F0006115710551F0FB0101900020E9F731975D
:10220000AF01461B570B0C94C31080E00895CF9389
:10221000DF9300D0CDB7DEB769831A8241E050E08A
:10222000BE016F5F7F4F0E94C3100F900F90DF9130
:10223000CF910895EF92FF920F931F93CF93DF9367
:1022400000D000D0CDB7DEB77C01862F4AE08E01EA
:102250000F5F1F4FB80190E00E94FC38F801019019
:102260000020E9F73197AF01401B510BB801C701BE
:102270000E94C3100F900F900F900F90DF91CF919D
:102280001F910F91FF90EF900895EF92FF920F939F
:102290001F93CF93DF93CDB7DEB728970FB6F8948F
:1022A000DEBF0FBECDBF7C01CB014AE08E010F5FC8
:1022B0001F4FB8010E94FC38F80101900020E9F797
:1022C0003197AF01401B510BB801C7010E94C310E9
:1022D00028960FB6F894DEBF0FBECDBFDF91CF9129
:1022E0001F910F91FF90EF900895EF92FF920F933F
:1022F0001F93CF93DF93CDB7DEB727970FB6F89430
:10230000DEBF0FBECDBF7C01CB014AE08E010F5F67
:102310001F4FB8010E946E39F80101900020E9F7C3
:102320003197AF01401B510BB801C7010E94C31088
:1023300027960FB6F894DEBF0FBECDBFDF91CF91C9
:102340001F910F91FF90EF900895EF92FF920F93DE
:102350001F93CF93DF93CDB7DEB72E970FB6F894C8
:10236000DEBF0FBECDBF7C01CB01BA012AE08E01DA
:102370000F5F1F4FA8010E941239F8010190002041
:10238000E9F73197AF01401B510BB801C7010E941B
:10239000C3102E960FB6F894DEBF0FBECDBFDF91EF
:1023A000CF911F910F91FF90EF900895EF92FF92C0
:1023B0000F931F93CF93DF93CDB7DEB72D970FB653
:1023C000F894DEBF0FBECDBF7C01CB01BA012AE07D
:1023D0008E010F5F1F4FA8010E944139F801019043
:1023E0000020E9F73197AF01401B510BB801C7013D
:1023F0000E94C3102D960FB6F894DEBF0FBECDBF5E
:10240000DF91CF911F910F91FF90EF900895EF9280
:10241000FF920F931F93CF93DF93CDB7DEB76497EF
:102420000FB6F894DEBF0FBECDBF7C01CB01BA0161
:102430008E010F5F1F4F22E044E00E940936BC016D
:10244000FC0101900020E9F73197AF01481B590BBF
:10245000C7010E94C31064960FB6F894DEBF0FBE8A
:10246000CDBFDF91CF911F910F91FF90EF90089515
:10247000EF92FF920F931F93CF93DF93CDB7DEB709
:1024800064970FB6F894DEBF0FBECDBF7C01CB01C1
:10249000BA018E010F5F1F4F22E044E00E9409360F
:1024A000BC01FC0101900020E9F73197AF01481B06
:1024B000590BC7010E94C31064960FB6F894DEBF93
:1024C0000FBECDBFDF91CF911F910F91FF90EF9085
:1024D0000895EF92FF920F931F93CF93DF936115AF
:1024E000710511F480E01EC08B01EC01CB010E944C
:1024F00070380097B1F02C813D817C01E20EF31E13
:10250000B701CE010E94310E882361F32881398101
:102510008C819D81B801820F931F0E946938FD82D2
:10252000EC8281E0DF91CF911F910F91FF90EF90AE
:102530000895CF93DF93EC01FB01448155816081C5
:1025400071810E94C310811103C0CE010E94050E4B
:10255000CE01DF91CF910895CF93DF93EC01611508
:10256000710561F0FB0101900020E9F73197AF019F
:10257000461B570B0E94C310811103C0CE010E945D
:10258000050ECE01DF91CF910895CF93DF93EC013B
:102590000E940711811103C0CE010E94050ECE01D9
:1025A000DF91CF910895CF93DF93EC010E941A1130
:1025B000811103C0CE010E94050ECE01DF91CF91A3
:1025C0000895CF93DF93EC010E944511811103C060
:1025D000CE010E94050ECE01DF91CF910895CF93D9
:1025E000DF93EC010E947511811103C0CE010E949E
:1025F000050ECE01DF91CF910895CF93DF93EC01CB
:102600000E94A511811103C0CE010E94050ECE01CA
:10261000DF91CF910895CF93DF93EC010E94D61103
:10262000811103C0CE010E94050ECE01DF91CF9132
:102630000895CF93DF93EC010E940712811103C02C
:10264000CE010E94050ECE01DF91CF910895CF9368
:10265000DF93EC010E943812811103C0CE010E9469
:10266000050ECE01DF91CF910895CF93DF93EC015A
:102670000E946912811103C0CE010E94050ECE0195
:10268000DF91CF910895CF93DF93DC01ED91FC9121
:10269000EB01A881B981309711F01097C9F4109718
:1026A00059F0EB012C813D81232B31F08C9190E08E
:1026B00091958195910914C0309781F0DC011496B1
:1026C0008D919C911597892B49F0808190E008C0ED
:1026D000BD01CF01DF91CF910C949F3880E090E055
:1026E000DF91CF910895FC0144815581FB01248144
:1026F00035814217530729F40E94431321E0892BA7
:1027000009F020E0822F0895FC0124813581232BDC
:1027100031F421E061157105A1F0FB0108C0FC0155
:10272000808191816115710531F421E0FC01808186
:10273000882339F005C00E949F3821E0892B09F0D9
:1027400020E0822F08950E944313892F881F882735
:10275000881F08950E94431321E0181619060CF0F3
:1027600020E0822F08950E94431321E018161906D5
:102770000CF420E0822F08950E944313892F809546
:10278000881F8827881F0895EF92FF920F931F9349
:10279000CF93DF938617970709F1FC0124813581D8
:1027A000FB014481558124173507D1F4232BB1F067
:1027B000DC01CD91DC91008111818991882371F038
:1027C00090E00E9459387C01F80181918F0190E0DE
:1027D0000E945938E816F90681F302C081E001C071
:1027E00080E0DF91CF911F910F91FF90EF900895BE
:1027F000DB011496ED91FC911597DC0114962D9157
:102800003C9115972E1B3F0B24173507A0F02D91F7
:102810003C912115310579F0DB016D917C916115B9
:10282000710549F0CA01AF01820F931F0E94AF38B2
:1028300021E0892B09F020E0822F0895FC014481DA
:102840005581FB01248135814217530720F040E078
:1028500050E00C94F81380E00895FC012481358148
:10286000FB014481558124173507A0F0FC018081CC
:102870009181009779F0FB0160817181611571058B
:1028800049F0241B350B820F931F0E949F3821E0D3
:10289000892B09F020E0822F0895FC0124813581E5
:1028A0006217730730F480819181FC01E60FF71FF6
:1028B00040830895FC01248135816217730720F459
:1028C00080819181009729F410921D028DE192E0A0
:1028D0000895860F971F0895FC01248135816217A2
:1028E000730748F480819181009729F0FC01E60F7D
:1028F000F71F8081089580E008950C946C140F9365
:102900001F93CF93DF934115510519F1611571059F
:1029100001F1DC011496ED91FC9115972E173F07FC
:1029200018F0FB01108215C0E21BF30BEA0121979E
:10293000EC17FD0708F4EF018B01FC016081718148
:10294000620F731FAE01C8010E94BD38C00FD11FB6
:102950001882DF91CF911F910F910895CF93DF934C
:10296000FC01248135814217530768F4C081D1816D
:1029700070E0CE01840F951F0E949438009719F0E3
:102980008C1B9D0B02C08FEF9FEFDF91CF910895BD
:1029900040E050E00C94AE14CF93DF93FC0124810F
:1029A00035814217530780F4FB01DC01CD91DC91A6
:1029B00060817181CE01840F951F0E94D7380097E6
:1029C00019F08C1B9D0B02C08FEF9FEFDF91CF9111
:1029D000089540E050E00C94CC14DF92EF92FF9207
:1029E0000F931F93CF93DF93DC0114962D913C91AD
:1029F00015974217530718F08FEF9FEF1BC08C01FC
:102A0000EA012196DC01ED91FC911197EC0FFD1F7D
:102A1000D0801082ED90FC9070E0C7010E94CC380D
:102A2000CE0DDF1DD882009739F3F8012081318166
:102A3000821B930BDF91CF911F910F91FF90EF902D
:102A4000DF900895FC0144815581415051090C9457
:102A5000ED14AF92BF92CF92DF92EF92FF920F935D
:102A60001F93CF93DF937B018A01FB014481558142
:102A70004115510561F1FC01248135812115310594
:102A800031F12417350718F10217130718F08901DF
:102A900001501109FC01A080B180C501DFEFCFEF2B
:102AA0006501C00ED11EC816D906A0F0F7016081DD
:102AB00071810E94D738009769F09C012A193B095F
:102AC0000217130710F0D22FC32F0196ECCF8FEF10
:102AD0009FEF02C08D2F9C2FDF91CF911F910F91FF
:102AE000FF90EF90DF90CF90BF90AF900895FC01E2
:102AF00044815581FB0124813581421B530B0C9489
:102B00002915BF92CF92DF92EF92FF920F931F93FE
:102B1000CF93DF937C016B018A01E901241735070C
:102B200020F4812F8901C42FD82F6AE271E0C701F8
:102B30000E946E0ED60114968D919C9115970817E0
:102B40001907D0F48C179D0708F4EC01D601ED911C
:102B5000FC911197EC0FFD1FB08010824D915C919C
:102B6000BA01600F711FC7010E942B0FD601ED91B2
:102B7000FC91EC0FFD1FB082C701DF91CF911F9137
:102B80000F91FF90EF90DF90CF90BF900895DC0100
:102B9000ED91FC91309729F40895861301C040838C
:102BA000319680818111F9CF08952F923F924F92F3
:102BB0005F926F927F928F929F92AF92BF92CF92CD
:102BC000DF92EF92FF920F931F93CF93DF93FC015D
:102BD000448055804114510409F4D2C0FB01648043
:102BE00075806114710409F4CBC07A016B018C010A
:102BF000FA01A480B580A618B708FC01C081D18174
:102C0000A114B104C1F4F60160817181CE010E946A
:102C1000D738EC01892B09F4B3C0F70160817181C9
:102C200044815581CE010E947938F70184819581D4
:102C3000C80FD91FE8CFB7FE02C04E0105C0FB0187
:102C400020803180420143C0F60160817181C4015E
:102C50000E94D7382C01892B21F13201681879089C
:102C6000A301B401CE010E947938C60DD71DF7012A
:102C70006081718144815581CE010E947938F701CC
:102C800084819581C80FD91FF60184809580840CBA
:102C9000951CF801848195818A0D9B1D9583848301
:102CA000D3CFB401CE01DF91CF911F910F91FF904F
:102CB000EF90DF90CF90BF90AF909F908F907F90DC
:102CC0006F905F904F903F902F900C94A838B10177
:102CD000CE010E94D738009731F0EC01C60DD71D08
:102CE0008A0C9B1CF4CF8414950409F449C0F801A4
:102CF000828193818815990530F4B401C8010E943E
:102D0000170E8823E9F1F80144815581415051099A
:102D100057FD36C0B601C8010E942915EC0197FD88
:102D20002FC0F80180819181F601248135812C0F1B
:102D30003D1F820F931FF80144815581421B530BA5
:102D4000BC018A0D9B1D0E948238F8018481958107
:102D50008A0D9B1D9583848320813181F901E80FC1
:102D6000F91F1082F80180819181F70160817181E2
:102D7000448155818C0F9D1F0E947938AE01C6CFCA
:102D8000DF91CF911F910F91FF90EF90DF90CF9047
:102D9000BF90AF909F908F907F906F905F904F907B
:102DA0003F902F900895CF93DF93DC011496ED911F
:102DB000FC9115976E177F0728F54115510511F104
:102DC0009F01261B370B4217530708F49A01DB01BA
:102DD000EC0188819981E21BF30BFD83EC83AF0149
:102DE000461B570B260F371FBC01620F731F8A0F3C
:102DF0009B1F0E94BD38E881F9818C819D81E80F7D
:102E0000F91F1082DF91CF9108954FEF5FEF0C947F
:102E1000D316CF93DF93FC01C081D181209741F07D
:102E20008881882329F090E00E9459388993F8CF4F
:102E3000DF91CF910895CF93DF93FC01C081D181C1
:102E4000209741F08881882329F090E00E94613822
:102E50008993F8CFDF91CF910895AF92BF92CF922F
:102E6000DF92EF92FF920F931F93CF93DF93DC01DA
:102E7000CD90DC901197C114D104F1F11496CD914D
:102E8000DC9115972097C1F18C0156017501BFEFB8
:102E9000AB1ABB0AF701808190E00E945038892B61
:102EA000A9F72197CC0DDD1D888190E00E94503854
:102EB000892B91F4AE014F5F5F4F4E195F09D80126
:102EC00015965C934E931497CE14DF0450F4B7011B
:102ED000C6010E94793805C0CE15DF0558F3219749
:102EE000E3CFD801ED91FC91119714968D919C91AF
:102EF0001597E80FF91F1082DF91CF911F910F9165
:102F0000FF90EF90DF90CF90BF90AF900895FC01BD
:102F100080819181009711F00C94293860E070E075
:102F2000CB010895FC0180819181009711F00C94F0
:102F3000253860E070E0CB0108950C9492177894E6
:102F400080B393B392959F70807F892B90911D03DE
:102F5000E92FF0E0E25EFD4F80839F5F90931D03B9
:102F6000F894089581B38F7081BB84B38F7084BB54
:102F700082B3806F82BB85B3806F85BB80E090E0B9
:102F8000FC01E25EFD4F108201968F3F9105C1F773
:102F90000895843018F493E0981B892F61E070E065
:102FA00002C0660F771F8A95E2F740E050E080E0AC
:102FB000FA01E25EFD4F208130E026233723232BE8
:102FC00009F48F5F4F5F5F4F4F3F510589F70895B9
:102FD000CF92DF92EF92FF920F931F93CF93DF93E5
:102FE0006C017A018B01C0E0D0E0CE15DF0589F0DD
:102FF000D8016D918D01D601ED91FC910190F08188
:10300000E02DC6010995892B11F47E0102C021969D
:10301000ECCFC701DF91CF911F910F91FF90EF90FF
:10302000DF90CF900895EF92FF920F931F93CF936D
:10303000DF938C017B01C0E0D0E0F701EC0FFD1FB6
:103040006491662361F0D801ED91FC910190F081CB
:10305000E02DC8010995892B11F02196EECFCE0104
:10306000DF91CF911F910F91FF90EF900895DC01B8
:10307000ED91FC91DB0114964D915C9115976D914A
:103080007C910280F381E02D09940C941732DC01CD
:10309000ED91FC910190F081E02D0994DB01ED911F
:1030A000FC9111970190F081E02DBC01CD010994B4
:1030B00068E271E00C9417320F931F93CF93DF9364
:1030C000EC010E9413188C01CE010E945818800F49
:1030D000911FDF91CF911F910F9108950F931F932F
:1030E000CF93DF93EC010E9437188C01CE010E9430
:1030F0005818800F911FDF91CF911F910F91089564
:103100000F931F93CF93DF93EC010E9417328C0132
:10311000CE010E945818800F911FDF91CF911F910F
:103120000F9108950F931F93CF93DF93EC010E94AB
:1031300047188C01CE010E945818800F911FDF9113
:10314000CF911F910F9108950F931F93CF93DF930A
:10315000EC010E944E188C01CE010E945818800F7D
:10316000911FDF91CF911F910F9108958F929F92A0
:10317000AF92BF92CF92DF92EF92FF920F931F9385
:10318000CF93DF93CDB7DEB7A1970FB6F894DEBF2C
:103190000FBECDBF7C01D42EC52EDB0119A222307B
:1031A00008F42AE08E010F5D1F4F822E912CA12C76
:1031B000B12C6D2D7C2DCD01A50194010E94E3322F
:1031C000D22EC32EDA01015011096A307105810532
:1031D000910510F4605D01C0695CF8016083232BE8
:1031E000242B252B31F7B801C7010E941732A19675
:1031F0000FB6F894DEBF0FBECDBFDF91CF911F9108
:103200000F91FF90EF90DF90CF90BF90AF909F9085
:103210008F900895CF92DF92EF92FF920F931F93BA
:10322000CF93DF93EC016A017B012115310579F41D
:10323000E881F9810190F081E02D642FDF91CF9139
:103240001F910F91FF90EF90DF90CF9009942A305B
:103250003105E9F477FF1AC06DE20E9447188C012E
:1032600044275527BA014C195D096E097F092AE0E8
:10327000CE010E94B618800F911FDF91CF911F9150
:103280000F91FF90EF90DF90CF9008952AE0B70163
:10329000A601CE01DF91CF911F910F91FF90EF908A
:1032A000DF90CF900C94B6189A01AB01770F660BA4
:1032B000770B0C940A190F931F93CF93DF93EC01B4
:1032C0009A01AB01770F660B770B0E940A198C01EC
:1032D000CE010E945818800F911FDF91CF911F914E
:1032E0000F9108950F931F93CF93DF93EC010E94EA
:1032F0000A198C01CE010E945818800F911FDF918E
:10330000CF911F910F9108952115310541F4DC01F2
:10331000ED91FC910190F081E02D642F09940C94C3
:10332000B6189A01462F50E060E070E00C948419C2
:103330000F931F93CF93DF93EC019A01462F50E038
:1033400060E070E00E9484198C01CE010E94581840
:10335000800F911FDF91CF911F910F9108959A01D6
:10336000AB0160E070E00C9484190F931F93CF932E
:10337000DF93EC019A01AB0160E070E00E948419D8
:103380008C01CE010E945818800F911FDF91CF91C0
:103390001F910F9108950F931F93CF93DF93EC012B
:1033A0000E9484198C01CE010E945818800F911F31
:1033B000DF91CF911F910F9108954F925F926F927D
:1033C0007F928F929F92AF92BF92CF92DF92EF92B5
:1033D000FF92CF93DF93EC016A017B01B22E9A0139
:1033E000AB01C701B6010E94BB35882319F06BE21F
:1033F00071E027C026013701E89477F82FEF3FEFFF
:103400004FE75FE7C301B2010E94BB3581110DC0D8
:103410002FEF3FEF4FE75FE7C301B2010E94A633F2
:1034200018161CF46FE271E00CC02FEF3FEF4FE76E
:103430005FE4C701B6010E94493518169CF463E3A6
:1034400071E0CE01DF91CF91FF90EF90DF90CF90B0
:10345000BF90AF909F908F907F906F905F904F90B4
:103460000C9417322FEF3FEF4FE75FECC701B60127
:103470000E94A63387FDE3CF20E030E0A901C70119
:10348000B6010E94A63387FF0AC06DE2CE010E94FA
:1034900047184C01F7FAF094F7F8F09402C0812C29
:1034A000912CA12C60E070E080E09FE3AB1441F030
:1034B00020E030E040E251E40E94B033A394F6CF24
:1034C0009B01AC01C701B6010E943A332B013C01BC
:1034D0000E9429346B017C010E9458349B01AC018D
:1034E000C301B2010E9439332B013C012AE0B7012C
:1034F000A601CE010E94B6187C01E80CF91CBB2085
:1035000031F06EE2CE010E944718E80EF91EDB2C66
:10351000DD2029F120E030E040E251E4C301B201B6
:103520000E944E352B013C010E9429344B01A12CF5
:10353000B12C2AE0B501A401CE010E94B618E80E14
:10354000F91EC501B4010E9458349B01AC01C301AE
:10355000B2010E9439332B013C01DA94D9CFC70163
:10356000DF91CF91FF90EF90DF90CF90BF90AF9021
:103570009F908F907F906F905F904F9008950C94E4
:10358000DD190F931F93CF93DF93EC010E94DD1998
:103590008C01CE010E945818800F911FDF91CF91AE
:1035A0001F910F91089562E470E080E090E00C9428
:1035B0006F0DCF93DF93EC018C8181110DC086E1FB
:1035C00091E00E94040A8FEF90E00E94040A8CEFC1
:1035D00090E00E94040A2AC060E670E08DE593E066
:1035E0000E94202D61E08DE593E00E94382D8DE54D
:1035F00093E00E94352D41E050E060E670E08DE5FB
:1036000093E00E94C32D8DE593E00E94F32D1816E0
:103610001906CCF78DE593E00E94FB2D88839B81F2
:10362000992329F09981890F8F3F09F480E0DF9178
:10363000CF9108951F93CF93DF93EC018C8181117B
:103640000BC084EF90E00E94040A8DED90E00E9490
:10365000040A8AED90E021C01A8219821B821BE0C5
:1036600029813A8121153105E9F4CE010E94D91A48
:1036700090E09A8389836AE070E080E090E00E94A5
:103680006F0D115069F782ED90E00E94040A86EBFD
:1036900090E00E94040A83EB90E0DF91CF911F91AC
:1036A0000C94040A80E890E0821B930B9A83898330
:1036B00081E08B83DF91CF911F910895FC0184817C
:1036C000089560E670E08DE593E00E94202D8DE581
:1036D00093E00E94352D91E0811190E0892F0895AB
:1036E000CF93DF93EC010E94611B81110EC08BE32D
:1036F00091E00E94040A81E291E00E94040A8EE1B6
:1037000091E0DF91CF910C94040A18821A821982F9
:1037100081E08C831B82DF91CF910895FC0114829C
:103720000C94701B0F931F93CF93DF938C01C0E019
:10373000D0E060E070E0C8018C0F9D1F0E94841EE5
:103740002396CC30D105A9F7DF91CF911F910F912E
:103750000895623088F470E025B36E5F7F4F81E09A
:1037600090E001C0880F6A95EAF7411102C0822BF0
:1037700002C08095822385BB0895623058F4862F5D
:103780008C5F442311F06FEF01C060E00E946C1F5A
:103790000C94AF200895623070F49A014F3F5105A8
:1037A00019F014F02FEF30E0862F622F8C5F0E940B
:1037B0006C1F0C94AF200895CF934430A0F4C62F13
:1037C00080911E03811109C04C5F67E370E088E3BC
:1037D00090E00E948E2E80931E036C2F80911E031A
:1037E000CF910C94C12ECF910895623020F595B3FE
:1037F00084B370E06E5F7F4F21E030E0062E01C0A1
:10380000220F0A94EAF7322F3095832384BB85B3C5
:10381000822B85BB83B395BB94B3292B24BB90E04B
:1038200002C0959587956A95E2F78170992721E006
:1038300082278170089580E008950F931F93CF939E
:103840008C01C62F623060F46C2FC8010E94F51BFA
:103850008823D1F36C2FC8010E94F51B8111FACF88
:10386000CF911F910F910895683050F4462F60E476
:1038700082E00E94F33096958795969587950895F6
:1038800080E00895CF936430E8F427B370E06C5F74
:103890007F4F81E090E0062E01C0880F0A94EAF77E
:1038A000382F3095232327BB98B3892B88BB86B349
:1038B00090E002C0959587956A95E2F798B39323B7
:1038C00098BB70C06C3068F4C62F0C960E94C40D73
:1038D00090E06CEF6C0F02C0959587956A95E2F7C2
:1038E00061C0643108F042C084EF860F843000F577
:1038F00044B32FE0261B30E02C5F3F4F81E090E087
:10390000022E01C0880F0A94EAF7582F5095352FE0
:10391000342334BB95B3892B85BB83B390E002C0BD
:10392000959587952A95E2F795B3952395BB3AC06F
:1039300021B3605170E06C5F7F4F81E090E0062E14
:1039400001C0880F0A94EAF7382F3095232321BB52
:1039500092B3892B82BB80B390E002C09595879586
:103960006A95E2F792B3932392BB1CC06C31E0F4EA
:103970002AB3645181E090E0062E01C0880F0A94BA
:10398000EAF7382F309523232ABB9BB3892B8BBBB7
:1039900089B390E002C0959587956A95E2F79BB34D
:1039A00093239BBB817001C080E0CF910895CF939A
:1039B000DF936430C0F427B36C5F81E090E0A0E057
:1039C000B0E004C0880F991FAA1FBB1F6A95D2F7E9
:1039D000282B27BB28B3442311F0822B02C08095EB
:1039E000822388BB5DC06C3058F4EC012C96645087
:1039F000CE010E94A80DCE01DF91CF910C94DF0D76
:103A00006431A8F584EF860F8430C8F424B333E121
:103A1000361B81E090E0A0E0B0E004C0880F991F61
:103A2000AA1FBB1F3A95D2F7282B24BB25B34423EA
:103A300011F0822B02C08095822385BB31C021B357
:103A40006C5081E090E0A0E0B0E004C0880F991FC6
:103A5000AA1FBB1F6A95D2F7282B21BB22B3442390
:103A600011F0822B02C08095822382BB19C06C3179
:103A7000B8F42AB3645181E090E0A0E0B0E004C063
:103A8000880F991FAA1FBB1F6A95D2F7282B2ABB44
:103A90002BB3442311F0822B02C0809582238BBB71
:103AA000DF91CF910895862F683010F40C94C917D8
:103AB00080E008951F93CF93DF938DED91E00E94F6
:103AC000040AC1E0D0E01C2F6C2F8DE593E00E942A
:103AD000162D8DE593E00E94352D811131C089EDC1
:103AE00091E00E94040A4AE050E0BE0180E294E0C6
:103AF0000E945419C433D10519F48FEC91E01EC013
:103B0000C03619F484EC91E019C0C43519F48CEB7B
:103B100091E014C080E98C0F803118F48DEA91E0B7
:103B20000DC0C93219F484EA91E008C018531C3260
:103B300018F480E991E002C086E891E00E94040A4E
:103B40002196CF37D10509F0BECF87E791E0DF910D
:103B5000CF911F910C94040ACF9368E370E08DE538
:103B600093E00E94202D8DE593E00E94352DC82F13
:103B70006FE370E08DE593E00E94202D8DE593E0EA
:103B80000E94352D8C0F69F08FE691E00E94040AA7
:103B900086E491E00E94040A83E491E0CF910C94C2
:103BA000040ACF910895CF92DF92EF92FF920F9384
:103BB0001F93CF93DF938C01EC017C018CE0E80E26
:103BC000F11CCE010E94631E2396CE15DF05C9F7B6
:103BD000CE010E949F0D68018FE0C80ED11CC60166
:103BE0000E949F0D88E090E00E94BA090E94812007
:103BF0000E94B2178DE593E00E94F12C6FE3CE0195
:103C00000E94A50D68E3C6010E94A50D7801C0E0E1
:103C1000A6016C2FC7010E94681ECF5F83E0E80EEB
:103C2000F11CC430A9F784B38C6084BB85B38C606D
:103C300085BB8AB3807F8ABB8AB38F708ABB87B308
:103C40008F7087BB0E94540DC801DF91CF911F91E7
:103C50000F91FF90EF90DF90CF900C94AC1D2091CE
:103C60006000222341F090933103809330030E943F
:103C70008120109260000895809361000895E82FDC
:103C8000F0E0EE0FFF1FE05EFC4F7183608308954C
:103C900080E00E942C3281E00E942C3282E00E945F
:103CA0002C3283E00E942C3280911F03882351F034
:103CB0000E94AF2080913003909131030E94DF0D6C
:103CC00010921F030895FC01108212821182089540
:103CD000EF92FF920F931F93CF93DF931F92CDB775
:103CE000DEB77C018A01CA0169830E942F1EF70199
:103CF00012830183698160830F90DF91CF911F91BF
:103D00000F91FF90EF900895FC016536710514F056
:103D100064E670E06C398FEF780714F46CE97FEF9C
:103D20002FEF269FC001279F900D112464E670E0BD
:103D30000E94CF32E081F0E0EE0FFF1FE05EFC4F0B
:103D4000718360830895FFCF0E9420380E9420383D
:103D500022E0FC0120830895EA01FC0160836130C8
:103D6000E1F585E492E00E94040A62E370E080E0FD
:103D700090E00E946F0D80E492E00E94040A62E3EA
:103D800070E080E090E00E946F0D89E392E00E9475
:103D9000040A62E370E080E090E00E946F0D82E32D
:103DA00092E00E94040A62E370E080E090E00E94EA
:103DB0006F0D8FE292E00E94040ACE010E94F80982
:103DC0008CE292E00E94040A62E370E080E090E0FE
:103DD0000E946F0D86E292E02AC082E292E00E9489
:103DE000040A62E370E080E090E00E946F0D8DE1D4
:103DF00092E00E94040A62E370E080E090E00E949A
:103E00006F0D86E192E00E94040A62E370E080E0B8
:103E100090E00E946F0D8FE092E00E94040A62E33E
:103E200070E080E090E00E946F0D89E092E00E94D7
:103E3000040A0E94CE09FDCF0F931F93CF93DF9307
:103E4000EB018B01040F151FC017D10721F08991D9
:103E50000E94E709F9CFDF91CF911F910F9108954B
:103E6000CF92DF92EF92FF920F931F93CF93DF9346
:103E70006A018B01C0E0D0E0CC15DD0569F00E943D
:103E8000660D0E94CE09E92EF12CEF2829F4F801E5
:103E900081938F012196F0CFCE01DF91CF911F91B9
:103EA0000F91FF90EF90DF90CF900895CF93DF9325
:103EB000EC0169E60E945A0C66E470E080E090E054
:103EC0000E946F0D41E050E061E070E0CE010E9481
:103ED000960CDF91CF910895863028F4E82FF0E01A
:103EE000EA5AFC4F60830895CF93DF9325E030E0DA
:103EF00040E0842F90E082179307D4F4BC01605B0C
:103F00007C4FDB015C91FC01EF5AFC4F8081C52F97
:103F1000D0E0CA5ADC4FA82FB0E0AA5ABC4FC881E3
:103F20009C919C1718F4DB018C9350834F5FE1CF79
:103F300021503109E9F6DF91CF9108951F920F9238
:103F40000FB60F9211242F933F934F935F936F936C
:103F50007F938F939F93AF93BF93EF93FF93809142
:103F60005C03811122C080913303882351F00E94A9
:103F7000A4321092330388B3807F88BB82B3837FDF
:103F800082BB80915C03E0916400F0916500E80FD2
:103F9000F11D808198B3282F2F70922B98BB92B37C
:103FA000869586958C70892B13C0E0916400F09102
:103FB0006500E80FF11D808128B3982F9F709095C0
:103FC000922398BB92B3869586958C7080958923B1
:103FD00082BB80915C03E0916800F0916900E80F7A
:103FE000F11D808183BD80915C038F5F80935C03B2
:103FF000E0916800F0916900E80FF11D908199232C
:1040000011F0873011F410925C03FF91EF91BF9192
:10401000AF919F918F917F916F915F914F913F9160
:104020002F910F900FBE0F901F9018958091330322
:104030008111FCCF81E08093330308950F931F9388
:10404000CF93DF93E0916200F09163001082A0E5CE
:10405000B3E050E040E061E070E016E01A0F9D919F
:10406000E92FF0E0EA5AFC4F80818B3078F1E09143
:104070006200F0916300EB0101C0CC0F9A95EAF762
:1040800090819C2B908390E0841B9109E0916200C9
:10409000F0916300252F30E08530910534F4E20F74
:1040A000F31F8081C82BC08311C08A30910514F49E
:1040B0008AE090E0E20FF31FC183E0916600F09187
:1040C0006700E20FF31F8083480F5F5F1A13C7CFAB
:1040D000852F90E0E0916600F0916700E80FF91FEE
:1040E00040954083563040F420916600309167003F
:1040F000F901E80FF91F1182DF91CF911F910F9104
:104100000895CF9380913203811127C0F8941092C3
:104110005003C1E0C093510382E08093520383E0D7
:104120008093530384E08093540385E08093550388
:104130000E941E200E94A43287B38F6087BB81B388
:104140008C6081BB85B58B6085BD89B7806889BF70
:104150008FEF83BD7894C0933203CF9108958091FF
:1041600033038111FCCF0E94741F0E941E200C9407
:104170001620FC01108208950F931F93CF93DF93B5
:1041800000D0CDB7DEB78C0119821A8269E670E0E3
:104190008DE593E00E94202D42E050E0BE016F5F6C
:1041A0007F4F8DE593E00E94C82D8DE593E00E943E
:1041B000352D60ED77E080E090E00E946F0D81E0AA
:1041C000F80180830F900F90DF91CF911F910F9195
:1041D00008950F931F93CF93DF931F92CDB7DEB750
:1041E000FC018081882351F169E670E08DE593E060
:1041F0000E94202D198241E050E0BE016F5F7F4F89
:104200008DE593E00E94C82D42E069E68DE593E0DC
:104210000E94C02D8DE593E00E94FB2D8C018DE561
:1042200093E00E94FB2D20E030E0382F020F131F97
:104230008DE593E00E94352DC80102C080E090E03A
:104240000F90DF91CF911F910F910895FC01808114
:10425000089569E670E08DE593E00E94202D8DE5DC
:1042600093E00E94352D91E0811190E0892F08950F
:104270001F93CF93DF931F92CDB7DEB7FC018081F0
:10428000882319F1162F69E670E08DE593E00E940E
:10429000202D1E5F198341E050E0BE016F5F7F4F0C
:1042A0008DE593E00E94C82D41E069E68DE593E03D
:1042B0000E94C02D8DE593E00E94FB2D182F8DE507
:1042C00093E00E94352D812F01C080E00F90DF9197
:1042D000CF911F910895CF93DF9300D0CDB7DEB774
:1042E000FC0180818823B1F081E089836A8369E6DB
:1042F00070E08DE593E00E94202D42E050E0BE0189
:104300006F5F7F4F8DE593E00E94C82D8DE593E0B0
:104310000E94352D0F900F90DF91CF910895FC01F1
:1043200010821282118281E0848313820895FC013D
:1043300010821282118281E0848313820895CF93C8
:10434000DF93FC0124812223B9F1EC0160E670E0E7
:104350008DE593E00E94202D61E08DE593E00E94C1
:10436000382D8DE593E00E94352D811127C041E065
:1043700050E060E670E08DE593E00E94C32D8DE58E
:1043800093E00E94F32D18161906CCF78DE593E003
:104390000E94FB2D2B81222391F029813A81820FEB
:1043A000931F8F3F91051CF08F5F910908C097FF05
:1043B00006C081509F4F03C080E001C08FEFDF91A6
:1043C000CF910895CF93FC018481882371F160E639
:1043D00070E08DE593E00E94202D6CE08DE593E088
:1043E0000E94382D8DE593E00E94352D811120C06B
:1043F00042E050E060E670E08DE593E00E94C32D5E
:104400008DE593E00E94F32D0297D4F38DE593E0C0
:104410000E94FB2DC82F8DE593E00E94FB2D20E02C
:1044200030E03C2F820F931F05C080E090E002C077
:104430008FEF9FEFCF910895CF93FC018481882364
:1044400071F160E670E08DE593E00E94202D6EE052
:104450008DE593E00E94382D8DE593E00E94352D87
:10446000811120C042E050E060E670E08DE593E00D
:104470000E94C32D8DE593E00E94F32D0297D4F3A3
:104480008DE593E00E94FB2DC82F8DE593E00E94FF
:10449000FB2D20E030E03C2F820F931F05C080E011
:1044A00090E002C08FEF9FEFCF9108951F93CF93BD
:1044B000DF93FC012481222309F1EC011282118295
:1044C000138215E629813A812115310579F4CE014F
:1044D0000E949F2190E09A8389836AE070E080E0E7
:1044E00090E00E946F0D115069F708C080E890E0DD
:1044F000821B930B9A83898381E08B83DF91CF9119
:104500001F910895FC0184810895CF93C62F60E622
:1045100070E08DE593E00E94202D60E08DE593E052
:104520000E94382D6C2F8DE593E00E94382D8DE58B
:1045300093E00E94352D62E370E080E090E0CF913F
:104540000C946F0DCF93DF93EC0160EF0E948522F6
:1045500065EFCE010E94852267EFCE01DF91CF91FA
:104560000C94852268EF0E94852262E370E080E06F
:1045700090E00C946F0DFC0189E28183138212821A
:1045800014820895EF92FF921F93CF93DF931F92AF
:10459000CDB7DEB77C01162FFC0161818DE593E07C
:1045A00049830E94162D612F8DE593E00E94382DDE
:1045B0004981642F8DE593E00E94382D8DE593E0CD
:1045C0000E94352DF70180830F90DF91CF911F91CD
:1045D000FF90EF9008951F93CF93DF93EC01162F78
:1045E000462F4F776AE80E94C2221983DF91CF914C
:1045F0001F910895EF92FF921F93CF93DF9300D006
:10460000CDB7DEB77C01162FFC0161818DE593E00B
:104610004A8359830E94162D612F8DE593E00E94F5
:10462000382D5981652F8DE593E00E94382D4A8100
:10463000642F8DE593E00E94382D8DE593E00E9474
:10464000352DF70180830F900F90DF91CF911F914F
:10465000FF90EF900895CF92DF92EF92FF921F9319
:10466000CF93DF93EC01162F69017A0169818DE503
:1046700093E00E94162D612F8DE593E00E94382D66
:104680006F2D7727882799278DE593E00E94382D95
:10469000B701882799278DE593E00E94382D992747
:1046A0008F2D7E2D6D2D8DE593E00E94382D6C2D84
:1046B0008DE593E00E94382D8DE593E00E94352D25
:1046C0008883DF91CF911F91FF90EF90DF90CF9083
:1046D00008951F93CF93DF93EC01162F69818DE529
:1046E00093E00E94162D612F8DE593E00E94382DF6
:1046F0008DE593E00E94352D888341E069818DE549
:1047000093E00E94C02D8DE593E00E94FB2DDF9188
:10471000CF911F9108951F93CF93DF93EC01162F34
:1047200069818DE593E00E94162D612F8DE593E060
:104730000E94382D8DE593E00E94352D888342E05C
:1047400069818DE593E00E94C02D8DE593E00E9484
:10475000FB2DD82F80E0C82F8DE593E00E94FB2D24
:104760008C2B9D2BDF91CF911F910895CF92DF92DB
:10477000EF92FF92CF93DF93EC01F62E69818DE5E6
:1047800093E00E94162D6F2D8DE593E00E94382D49
:104790008DE593E00E94352D888344E069818DE5A5
:1047A00093E00E94C02D8DE593E00E94FB2D6C01EB
:1047B000990FEE08FF08FC2CEE24DD24CC248DE5B7
:1047C00093E00E94FB2D092E000CAA0BBB0BDC0111
:1047D00099278827C82AD92AEA2AFB2A8DE593E057
:1047E0000E94FB2DC82F8DE593E00E94FB2D092E22
:1047F000000CAA0BBB0BC82AD92AEA2AFB2A40E0E4
:1048000050E05C2F60E070E0CB01BA016C297D299B
:104810008E299F29DF91CF91FF90EF90DF90CF906D
:104820000895CF92DF92EF92FF921F93CF93DF9381
:1048300000D0CDB7DEB77C01D62E142FFC016181EC
:104840008DE593E029835A830E94162D6D2D8DE509
:1048500093E00E94382DC12E5A81D52E2981120F46
:104860001C1541F0F60161916F018DE593E00E9406
:10487000382DF6CF8DE593E00E94352DF70180832A
:104880000F900F90DF91CF911F91FF90EF90DF90ED
:10489000CF900895CF92DF92EF92FF920F931F93E4
:1048A000CF93DF931F92CDB7DEB76C01F62E142F96
:1048B000022FFC0161818DE593E059830E94162D42
:1048C0006F2D8DE593E00E94382D8DE593E00E94D9
:1048D000352DF6018083402F61818DE593E00E94A4
:1048E000C02DE12E5981F52E100F1E1541F08DE5DA
:1048F00093E00E94FB2DF70181937F01F6CF0F908B
:10490000DF91CF911F910F91FF90EF90DF90CF90AB
:104910000895CF92DF92EF92FF92CF93DF93EC0155
:104920006A017B0120E030E0A901C701B6010E94C5
:10493000A63387FD1BC028EB3EEF4FEF53E4C701C2
:10494000B6010E94493518168CF020E030E040E0B6
:1049500053E4C701B6010E944E350E942934AB01D1
:1049600064E4CE010E94FA2281E001C080E0DF9180
:10497000CF91FF90EF90DF90CF90089564E40E9474
:104980008B23BC0180E090E00E94583420E030E0AE
:1049900040E05CE30E944E350895611102C060E57D
:1049A00003C0613031F460E70E9469238F5F880F94
:1049B00008958FEF0895CF92DF92EF92FF92CF93F9
:1049C000DF93EC016A017B0141E060E80E94C222B2
:1049D00041E06FEFCE010E94C22240E060E0CE01D4
:1049E0000E94C2224F8161E9CE010E94C22241E0B1
:1049F00060E0CE010E94C22240E06FEFCE010E9433
:104A0000C22240E060E8CE010E94C222C114D1045B
:104A1000E104F104A9F068EFCE010E948B23009716
:104A200039F0DC01A70196010E9405336B017C017E
:104A3000A701960164E0CE010E942B2344E001C04F
:104A400042E060E0CE01DF91CF91FF90EF90DF90E8
:104A5000CF900C94C222CF93DF93EC0141E060E051
:104A60000E94C22241E06FEFCE010E94C22240E0CC
:104A700060E0CE010E94C22240E061E9CE010E94C6
:104A8000C22241E060E0CE010E94C22240E06FEF0E
:104A9000CE01DF91CF910C94C2220F931F93CF933D
:104AA000DF93EC010E94660D7E836D8363E1CE018E
:104AB0000E9469238770A1F48A819B81892BB1F3BD
:104AC0000E94660D2D813E81621B730B8A819B8142
:104AD0008617970758F781E08C838FEF9FEF0BC005
:104AE0006EE1CE010E948B238C0141E06BE0CE0190
:104AF0000E94C222C801DF91CF911F910F910895AA
:104B0000CF93DF93EC0141E060E80E94C22241E0D4
:104B10006FEFCE010E94C22240E060E0CE010E9411
:104B2000C2224F8161E9CE010E94C22241E060E0D1
:104B3000CE010E94C22240E06FEFCE010E94C2224D
:104B400040E060E8CE010E94C22241E060E0CE0178
:104B50000E94C2220E94660D7E836D8360E0CE01BA
:104B60000E94692380FF16C08A819B81892BB1F343
:104B70000E94660D2D813E81621B730B8A819B8191
:104B80008617970758F781E08C838FEF9FEFDF91AF
:104B9000CF910895CE01DF91CF910C944D25FC016A
:104BA000848114820895EF92FF920F931F93CF9305
:104BB000DF93EC017B018A0141E060E80E94C222A0
:104BC00041E06FEFCE010E94C22240E060E0CE01E2
:104BD0000E94C22246E06FEFCE010E94C22263E82B
:104BE000CE010E946923482F446063E8CE010E94F1
:104BF000C22247E06FEFCE010E94C22241E061E88D
:104C0000CE010E94C22241E060E8CE010E94C22291
:104C10004BE664E9CE010E94C22240E063E8CE0187
:104C20000E94C2220E94660D7E836D8363E8CE01DE
:104C30000E946923811111C08A819B81892BB1F364
:104C40000E94660D2D813E81621B730B8A819B81C0
:104C50008617970758F780E03CC041E063E8CE0133
:104C60000E94C22262E9CE010E946923982F9F7799
:104C7000F7019083982F991F9927991FF801908326
:104C800040E061E8CE010E94C22246E06FEFCE0113
:104C90000E94C22263E8CE010E946923482F4B7F05
:104CA00063E8CE010E94C22241E06FEFCE010E9474
:104CB000C22241E060E0CE010E94C22240E06FEFDC
:104CC000CE010E94C22240E060E8CE010E94C222D2
:104CD00081E0DF91CF911F910F91FF90EF900895A8
:104CE000CF93DF93EB0161E00E94692384FB992756
:104CF00090F9988383FB992790F99A8382FB9927EF
:104D000090F9998386FB222720F92B83881F882717
:104D1000881F8C83DF91CF9108959C013327A901CF
:104D200002C0440F551F9A95E2F7CA0101960895F3
:104D30000F931F930097C9F0AC014150510960E0F7
:104D400070E080E090E08A019B010027012B022B9C
:104D5000032B31F076956795579547950196F3CFDC
:104D6000982F8827842B952B02C080E090E01F911C
:104D70000F9108958F929F92AF92BF92CF92DF9240
:104D8000EF92FF92CF93DF93EC01A62FB0E020E0EB
:104D90003FE24AE350E00E9405336C507E4F8F4F54
:104DA0009F4F28EEC22E23E0D22EE12CF12CA7013A
:104DB00096010E94E33249015A01B694A794979450
:104DC0008794DE010E940533680D791D8A1D9B1DA5
:104DD000A70196010E94E332CA01B901DF91CF9188
:104DE000FF90EF90DF90CF90BF90AF909F908F900B
:104DF0000895EF92FF920F931F93CF93DF938C014F
:104E00007B01EA0160E00E94CD2490E099838883D1
:104E100066E4C8010E946923282F30E0C901019689
:104E20009D838C8368810E94BA266A877B878C87E2
:104E30009D8761E5C8010E948B230E948D269F8378
:104E40008E8368810E94BA266E877F87888B998BB4
:104E500060E7C8010E9469238F5F880F90E09B8301
:104E60008A8361E7C8010E948B230E948D2699875F
:104E70008887F7012381222331F02E813F81821B15
:104E8000930B998788876A81888599850E94BA26BD
:104E90006A8B7B8B8C8B9D8BDF91CF911F910F91B8
:104EA000FF90EF900895CF92DF92EF92FF920F93D1
:104EB0001F93CF93DF93CDB7DEB76B970FB6F89400
:104EC000DEBF0FBECDBF8C01BE01695E7F4F0E9469
:104ED0007026AE014F5F5F4FBE01695E7F4FC80114
:104EE0000E94F9268F89882359F08B859C85AD8592
:104EF000BE85BC01CD016C57724F8F4F9F4F04C0D0
:104F000066E37BE080E090E0298D222379F0CB847A
:104F1000DC84ED84FE8422EBC20E22E0D21EE11C72
:104F2000F11CCC0CDD1CEE1CFF1C0DC0288D2223B7
:104F300071F0CB84DC84ED84FE84E4E9CE0EE2E003
:104F4000DE1EE11CF11C6C0D7D1D8E1D9F1D2A8D2A
:104F5000222371F0CF84D888E988FA88F4E9CF0E4B
:104F6000F2E0DF1EE11CF11C6C0D7D1D8E1D9F1DEE
:104F70002B8D222371F0CB88DC88ED88FE8826E219
:104F8000C20E22E0D21EE11CF11C6C0D7D1D8E1D97
:104F90009F1DF80160877187828793876B960FB694
:104FA000F894DEBF0FBECDBFDF91CF911F910F915F
:104FB000FF90EF90DF90CF9008954F925F926F92A5
:104FC0007F928F929F92AF92BF92CF92DF92EF9299
:104FD000FF924B015C01A42FB0E020E03FE24AE3E6
:104FE00050E00E9405336C507E4F8F4F9F4F28EE4C
:104FF00033E040E050E00E94E33269017A01290188
:105000003A017694679457944794A8EEB3E0A501CB
:1050100094010E940533640D751D861D971DA7011F
:1050200096010E94E332CA01B901FF90EF90DF9030
:10503000CF90BF90AF909F908F907F906F905F9038
:105040004F9008958F929F92AF92BF92DF92EF920E
:10505000FF920F931F93CF93DF93CDB7DEB76B977C
:105060000FB6F894DEBF0FBECDBF40322EE452071C
:105070006105710508F47AC04A015B017C01BE013B
:10508000695E7F4F0E947026AE014F5F5F4FBE0189
:10509000695E7F4FC7010E94F9268F89882349F0F6
:1050A0000B851C852D853E850A5C144F2F4F3F4F85
:1050B00004C008EE18E020E030E0898D882369F014
:1050C0008B859C85AD85BE858E549D4FAF4FBF4F60
:1050D000880F991FAA1FBB1F0BC0888D882361F002
:1050E0008B859C85AD85BE858C569D4FAF4FBF4F40
:1050F000080F191F2A1F3B1FDA8CDD2061F08F85F6
:105100009889A989BA898C569D4FAF4FBF4F080F18
:10511000191F2A1F3B1F8B8D882331F10A5D1D4FFC
:105120002F4F3F4F80169106A206B306F8F0C50137
:10513000B401601B710B820B930B4B810E94DD2726
:105140009B01DD2021F02F813885260F371FC901F3
:105150000E949826AC0161E7C7010E94FA22F7017C
:1051600080869186A286B38681E001C080E06B963E
:105170000FB6F894DEBF0FBECDBFDF91CF911F9168
:105180000F91FF90EF90DF90BF90AF909F908F9026
:105190000895CF93DF93EC01462F416060E00E94B9
:1051A000C2220E94660D7E836D8363E1CE010E9460
:1051B0006923877089F48A819B81892BB1F30E94CE
:1051C000660D2D813E81621B730B8A819B81861740
:1051D000970758F780E00BC041E06BE0CE010E94DA
:1051E000C22240E060E0CE010E94C22281E0DF9155
:1051F000CF910895FF920F931F93CF93DF93CDB775
:10520000DEB728970FB6F894DEBF0FBECDBF8C0176
:10521000662349F069E80E946923482F416069E8E4
:10522000C8010E94C22240E068E8C8010E94C22270
:1052300041E060E8C8010E94C22241E06FEFC8016E
:105240000E94C22240E060E0C8010E94C22261E9DF
:10525000C8010E946923F801878341E060E0C8012A
:105260000E94C22240E06FEFC8010E94C22240E0CB
:1052700060E8C8010E94C22260E6C8010E9469235A
:10528000482F426160E6C8010E94C22240E050E01F
:1052900060E87EE3C8010E9489244FEF61E0C80105
:1052A0000E94C222AE01495F5F4FBE01685F7F4F1F
:1052B000C8010E94D325811102C0F12C31C226E021
:1052C000AE014F5F5F4F60EBC8010E944A2441E08E
:1052D0006FEFC8010E94C22240E06FE4C8010E9443
:1052E000C2224CE26EE4C8010E94C22240E06FEF8D
:1052F000C8010E94C22244EB66EBC8010E94C22290
:105300008F81811102C040E001C04CE0A88580E09F
:1053100090E061E070E0282F269526952695582F7D
:105320005770E1E0F0E0EC0FFD1FE20FF11D841774
:1053300010F09A130AC09B0101C0220F5A95EAF798
:10534000209530812323208309C0208130E002C0D2
:10535000359527955A95E2F720FD9F5F8F5F803343
:10536000D1F626E0AE014F5F5F4F60EBC8010E94AF
:10537000112441E06FEFC8010E94C22240E060E0CA
:10538000C8010E94C22240E06FEFC8010E94C22201
:1053900040E069E0C8010E94C22240E060E1C8012B
:1053A0000E94C22240E061E1C8010E94C22241E0A5
:1053B00064E2C8010E94C2224FEF65E2C8010E9468
:1053C000C22240E065E7C8010E94C22241E06FEFBF
:1053D000C8010E94C2224CE26EE4C8010E94C222AF
:1053E00040E068E4C8010E94C22240E260E3C801D4
:1053F0000E94C22240E06FEFC8010E94C22249E031
:1054000060E3C8010E94C22240E064E5C8010E9436
:10541000C22244E061E3C8010E94C22243E062E389
:10542000C8010E94C22243E860E4C8010E94C2226F
:1054300045E266E4C8010E94C22240E060E6C8017D
:105440000E94C22240E067E2C8010E94C22246E0F8
:1054500060E5C8010E94C22240E061E5C8010E94E7
:10546000C22246E962E5C8010E94C22248E066E520
:10547000C8010E94C22240E367E5C8010E94C2221F
:1054800040E061E6C8010E94C22240E062E6C80135
:105490000E94C22240E064E6C8010E94C22240E0AD
:1054A00065E6C8010E94C22240EA66E6C8010E9481
:1054B000C22241E06FEFC8010E94C22242E362E2D1
:1054C000C8010E94C22244E167E4C8010E94C222CE
:1054D0004FEF69E4C8010E94C22240E06AE4C801BB
:1054E0000E94C22240E06FEFC8010E94C2224AE03F
:1054F0006AE7C8010E94C22240E06BE7C8010E942F
:10550000C22241E268E7C8010E94C22241E06FEF77
:10551000C8010E94C22244E363E2C8010E94C22281
:1055200040E062E4C8010E94C2224FEF64E4C80177
:105530000E94C22246E265E4C8010E94C22245E000
:1055400066E4C8010E94C22240E460E4C8010E94EF
:10555000C22246E06EE0C8010E94C2224AE160E237
:10556000C8010E94C22240E463E4C8010E94C22232
:1055700040E06FEFC8010E94C22243E064E3C8012B
:105580000E94C22244E465E3C8010E94C22241E0B5
:105590006FEFC8010E94C22244E061E3C8010E948B
:1055A000C22249E06BE4C8010E94C22245E06CE4DB
:1055B000C8010E94C22244E06DE4C8010E94C222D8
:1055C00040E06FEFC8010E94C22240E064E4C801DD
:1055D0000E94C22240E265E4C8010E94C22248E063
:1055E00067E4C8010E94C22248E268E4C8010E9440
:1055F000C22240E067E6C8010E94C22244E060E7A0
:10560000C8010E94C22241E061E7C8010E94C22293
:105610004EEF62E7C8010E94C22240E066E7C8017F
:105620000E94C22240E067E7C8010E94C22241E016
:105630006FEFC8010E94C22241E06DE0C8010E94E4
:10564000C22240E06FEFC8010E94C22241E060E840
:10565000C8010E94C22248EF61E0C8010E94C22234
:1056600041E06FEFC8010E94C22241E06EE8C8012C
:105670000E94C22241E060E0C8010E94C22240E0D4
:105680006FEFC8010E94C22240E060E8C8010E949A
:10569000C22244E06AE0C8010E94C22264E8C80154
:1056A0000E946923482F4F7E64E8C8010E94C222ED
:1056B00041E06BE0C8010E94C222C8010E9453274A
:1056C000F801608771878287938748EE61E0C8019F
:1056D0000E94C222F8014085518562857385C80108
:1056E0000E94222841E061E0C8010E94C22260E4D9
:1056F000C8010E94C928882309F4DFCD42E061E097
:10570000C8010E94C22260E0C8010E94C928F82E88
:10571000882309F4D2CD48EE61E0C8010E94C2227C
:105720008F2D28960FB6F894DEBF0FBECDBFDF9148
:10573000CF911F910F91FF900895DF92EF92FF920A
:105740000F931F93CF93DF93CDB7DEB76B970FB651
:10575000F894DEBF0FBECDBF8C01D62EF42EE42E02
:10576000E694EA94BE01695E7F4F0E947026AE0106
:105770004F5F5F4FBE01695E7F4FC8010E94F926EF
:10578000D11044C02EE0F21679F02F1528F08CE0ED
:10579000F812E7C048E10BC0E0E1FE1639F0F2E193
:1057A000FF12DFC040E503C040E301C040E467E50D
:1057B000C8010E94C22248E066E5C8010E94C222D8
:1057C0004E2D60E5C8010E94C2226F8578898989C3
:1057D0009A894F2D0E94DD27CB010E949826AC01AB
:1057E00061E5C8010E94FA226B857C858D859E85C6
:1057F0004F2D0E94DD274FEF613021E0720708F442
:10580000460F66E4C8010E94C2228EC081E0D81211
:10581000A8C0EAE0FE16B9F1EF15F0F0F8E0FF12CB
:10582000A0C040E168E4C8010E94C22248E067E4E9
:10583000C8010E94C22242E062E3C8010E94C22263
:105840004CE060E3C8010E94C22241E06FEFC80152
:105850000E94C22240E342C02CE0F21629F18EE001
:10586000F8127FC048E468E4C8010E94C22248E000
:1058700067E4C8010E94C22243E062E3C8010E94BB
:10588000C22247E021C048E268E4C8010E94C22267
:1058900048E067E4C8010E94C22243E062E3C80115
:1058A0000E94C22249E010C048E368E4C8010E9497
:1058B000C22248E067E4C8010E94C22243E062E3DA
:1058C000C8010E94C22248E060E3C8010E94C222CF
:1058D00041E06FEFC8010E94C22240E260E3C801CC
:1058E0000E94C22240E06FEFC8010E94C2224E2DEA
:1058F00060E7C8010E94C2226B897C898D899E89DC
:105900004F2D0E94DD27AB012A8D222329F02F8104
:105910003885A901460F571FCA010E949826AC017D
:1059200061E7C8010E94FA22F8014085518562852D
:105930007385C8010E94222861E0C8010E94692382
:10594000F82E42E061E0C8010E94C22260E0C80176
:105950000E94C9284F2D61E0C8010E94C22281E047
:1059600001C080E06B960FB6F894DEBF0FBECDBFCE
:10597000DF91CF911F910F91FF90EF90DF900895ED
:10598000AC01E0915E03F0915F033097E1F09091FC
:105990008703809186039817B0F090E0292F30E0BC
:1059A0002617370754F4DA01A20FB31F8C91D901DF
:1059B000A857BC4F8C939F5FF1CF109287036093E1
:1059C0008603CB0109940895E0916003F09161038F
:1059D000309729F01092640310926303099408959C
:1059E0000895109287031092860310926403109218
:1059F00063030C94C42ECF93DF93EC01862F0E9497
:105A0000DA2E84EE9CE20E94B52F80EC9CE20E948C
:105A1000B02FCE01DF91CF910C94F12C0C94FB2C84
:105A20000C94D42ECB01BA010C94DD2E81E080932E
:105A300062036093850310926403109263030895D8
:105A40000C94162D0F93062F21E04091630365E619
:105A500073E0809185030E94352F109264031092A9
:105A60006303109262030F91089561E00C94222D5C
:105A7000CF93DF931F92CDB7DEB769838091620326
:105A8000882389F0809163038032A8F480916403B5
:105A9000E82FF0E0EB59FC4F60838F5F8093640345
:105AA0008093630305C061E0CE0101960E94882FB8
:105AB00081E090E002C080E090E00F90DF91CF9114
:105AC00008954F925F926F927F92AF92BF92CF9262
:105AD000EF92FF920F931F93CF93DF935C01F62E0B
