:100000000C9483010C94AB010C94AB010C94AB01E8
:100010000C94250C0C94AB010C94AB010C94B31A0A
:100020000C94AB010C94AB010C9451030C94AB01F8
:100030000C94AB010C94AD010C94D9010C94AB0160
:100040000C94AB010C94AB010C94AB010C94551CBB
:100050000C94AB010D0A00434D50533033207365AF
:100060007441733132384465677265652065727218
:100070006F72004552524F523A20000D0A00434D14
:1000800050533033206E6F7420696E697469616CEF
:10009000697A6564004552524F523A20000D0A00B9
:1000A000434D50533033206E6F7420696E6974690C
:1000B000616C697A6564004552524F523A20000DD6
:1000C0000A00434D5053303320636F6E6E65637486
:1000D000696F6E2070726F626C656D004552524F91
:1000E000523A2000476F6C64626F6172643A205329
:1000F0006F6D657468696E67206F6E2050696E2041
:10010000000D0A00476F6C64626F6172643A206987
:1001100032632070726F626C656D2077697468203D
:10012000706F7274657870616E64657200455252CA
:100130004F523A2000656E64206932632073636118
:100140006E0D0A0020756E6B6F776E0D0A002049E8
:10015000324320506F7274657870616E6465720D01
:100160000A00204C617365720D0A0020556C747290
:1001700061736368616C6C0D0A0020506978790DB9
:100180000A00204B6F6D706173730D0A0020557368
:1001900072696E670D0A002020200073746172740A
:1001A00020693263207363616E205B37206269745B
:1001B000206164647265737320696E20646563698D
:1001C0006D616C5D0D0A002D2D2D0D0A00534D2C17
:1001D000300D0A00537E2C330D0A0047420D0A00F1
:1001E000242424002D2D2D0D0A000D0A00432C007F
:1001F000534D2C310D0A00537E2C330D0A0047421B
:100200000D0A002424240000407A10F35A00A07242
:100210004E18090010A5D4E80000E8764817000041
:10022000E40B54020000CA9A3B000000E1F505000F
:100230000080969800000040420F000000A0860158
:10024000000000102700000000E803000000006428
:1002500000000000000A0000000000010000000093
:10026000002C76D888DC674F0823DFC1DFAE59E168
:10027000B1B796E5E3E453C63AE651997696E8E6D7
:10028000C28426EB898C9B62ED407C6FFCEFBC9CAA
:100290009F40F2BAA56FA5F490055A2AF75C936BBC
:1002A0006CF9676DC11BFCE0E40D47FEF520E6B577
:1002B00000D0ED902E0300943577050080841E0851
:1002C0000000204E0A000000C80C333333330F986F
:1002D0006E12831141EF8D2114893BE65516CFFE36
:1002E000E6DB18D1844B381BF77C1D901DA4BBE4C2
:1002F00024203284725E228100C9F124ECA1E53D04
:100300002700901D941D11241FBECFE5D8E0DEBF4D
:10031000CDBF10E0A0E6B0E0EEE5F5E402C0059048
:100320000D92AA37B107D9F722E0AAE7B0E001C0E1
:100330001D92AC3DB207E1F711E0C3E8D1E004C083
:100340002197FE010E94851EC138D107C9F70E947E
:100350008F1D0C94AD220C9400001F920F920FB6CB
:100360000F9211242F938F939F93EF93FF938BB151
:100370009CB18871E0918E00EF5FEF7120918D004C
:10038000E21739F0E0938E00F0E0EF56FF4F9083D4
:1003900001C082E090918C00892B80938C00FF91AA
:1003A000EF919F918F912F910F900FBE0F901F9003
:1003B00018951F920F920FB60F9211248F939F934F
:1003C000EF93FF939091900080918F00981761F0C8
:1003D000E0918F00EF5FEF71E0938F00F0E0EF545A
:1003E000FF4F80818CB901C05598FF91EF919F918B
:1003F0008F910F900FBE0F901F9018951092900044
:1004000010928F0010928E0010928D0097FF03C003
:1004100022E02BB99F7790BD89B988E98AB986E82F
:1004200080BD089590918E0080918D00981781F085
:10043000E0918D00EF5FEF71E0938D00F0E0EF56FB
:10044000FF4F808190918C0010928C0090E0089575
:1004500080E091E00895909190009F5F9F712091BE
:100460008F009217E1F3E92FF0E0EF54FF4F808304
:1004700090939000559A0895CF93DF93EC01899162
:10048000882319F00E942B02FACFDF91CF910895B3
:10049000CF93DF93FC018491EF012196882321F013
:1004A0000E942B02FE01F7CFDF91CF91089562E405
:1004B00070E080E090E00C94BB03FC0184E790E0E6
:1004C00091838083628343832483089589E192E04A
:1004D0000C947819EF92FF920F931F93CF93DF93B1
:1004E0001F92CDB7DEB77C018B01FC01628189E1EF
:1004F00092E049830E949D194981642F89E192E02D
:100500000E94BF1901151105B1F0602F89E192E039
:100510000E94BF19F7016381662369F084818823F3
:1005200051F089E192E00E94BF19F701648189E1ED
:1005300092E00E94BF1989E192E00F90DF91CF9184
:100540001F910F91FF90EF900C94BC19693649F000
:100550006D3661F0633651F440E050E061E570E0E3
:1005600009C040E050E060E570E004C040E050E0C9
:1005700062E570E00C946A020F931F93CF93DF93B0
:10058000EC018B0140E050E060EA70E00E946A02FA
:1005900040E050E06AEA70E0CE010E946A0240E06A
:1005A00050E065EA70E0CE010E946A02B801660F71
:1005B000771F40E050E0CE01DF91CF911F910F9166
:1005C0000C946A02EF92FF920F931F93CF93DF93E5
:1005D0008C01EA01AB0160E070E00E946A024C2FDE
:1005E000F801628189E192E00E94471A89E192E074
:1005F0000E947A1A8C179D07CCF38E010150104E81
:1006000083E0000F111F8A95E1F7E12CF12C209770
:1006100081F089E192E00E94821A002E02C0880FC8
:10062000991F0A94E2F7E80EF91E21970850110964
:10063000EECFC701DF91CF911F910F91FF90EF9007
:100640000895CF93DF93EC01442349F00E94A60262
:10065000E881F9810190F081E02DCE01099542E019
:1006600050E062E070E0CE01DF91CF910C94E202A5
:1006700041E050E060E070E00E94E2020895CF9314
:10068000DF93EC01CE010E9438038F3F39F461E023
:1006900070E080E090E00E94BB03F4CFDF91CF9147
:1006A00008951F920F920FB60F9211242F933F932C
:1006B0004F935F936F937F938F939F93AF93BF936A
:1006C000EF93FF938091D1009091D200A091D3003D
:1006D000B091D4000196A11DB11D8093D1009093DB
:1006E000D200A093D300B093D4008091D6008A307A
:1006F00079F48091D500811109C081E08093D50003
:1007000078940E94D30AF8941092D5001092D600E3
:100710008091D6008F5F8093D6000E944C04FF9199
:10072000EF91BF91AF919F918F917F916F915F9169
:100730004F913F912F910F900FBE0F901F901895E2
:1007400083B78B6083BF89B7826089BF8AEF8CBF14
:100750001092D1001092D2001092D3001092D400C7
:10076000789408956091D1007091D2008091D30067
:100770009091D4000895CF92DF92EF92FF920F9361
:100780001F930091D1001091D2002091D30030919D
:10079000D400C090D100D090D200E090D300F0906F
:1007A000D400C01AD10AE20AF30AC616D706E80630
:1007B000F90678F31F910F91FF90EF90DF90CF90A3
:1007C0000895019739F0880F991F880F991F029794
:1007D0000197F1F70895FC01108281E08183128274
:1007E0000895FC0162830895FC015081442349F07F
:1007F00081E090E001C0880F6A95EAF7852B80833D
:1008000009C021E030E001C0220F6A95EAF7209587
:10081000252320838081581711F081E0818308957A
:10082000CF93DF93EC016A8189E192E00E949D19E8
:1008300041E06A8189E192E00E94471A89E192E0F1
:100840000E94821A888389E192E00E94BC19888103
:10085000DF91CF910895CF93DF93FC012181222373
:10086000C1F0EC0189E192E00E94B01A811111C03F
:100870006A8189E192E00E949D1941E050E0BE0149
:1008800089E192E00E944F1A89E192E00E94BC192E
:100890001982DF91CF910895789480B393B39295A4
:1008A0009F70807F892B9091D601E92FF0E0E9526B
:1008B000FF4F80839F5F9093D601F894089581B392
:1008C0008F7081BB84B38F7084BB82B3806F82BB17
:1008D00085B3806F85BB80E090E0FC01E952FF4F5B
:1008E000108201968F3F9105C1F70895843018F466
:1008F00093E0981B892F61E070E002C0660F771FBC
:100900008A95E2F740E050E080E0FA01E952FF4FBB
:10091000208130E026233723232B09F48F5F4F5F9C
:100920005F4F4F3F510589F70895FC0110820895EC
:1009300021E0FC0120830895FC018081811103C026
:10094000CB010C943C020895CF93DF93CDB7DEB773
:100950002A970FB6F894DEBF0FBECDBFFC01808191
:1009600081110BC0CB014AE0BE016F5F7F4F0E9437
:100970001220CE0101960E943C022A960FB6F894EE
:10098000DEBF0FBECDBFDF91CF9108950F931F93B0
:10099000CF93DF93CDB7DEB72A970FB6F894DEBFBB
:1009A0000FBECDBFFC01808181110CC0CB01BA010B
:1009B0008E010F5F1F4F23E047E00E94F21FC80126
:1009C0000E943C022A960FB6F894DEBF0FBECDBF40
:1009D000DF91CF911F910F910895CF93DF93CDB702
:1009E000DEB72A970FB6F894DEBF0FBECDBFFC016D
:1009F000808181110BC0CB014AE0BE016F5F7F4F48
:100A00000E941220CE0101960E943C022A960FB647
:100A1000F894DEBF0FBECDBFDF91CF910895FC01EA
:100A20002081211106C00E94ED0486E790E00C941D
:100A30003C020895FC012081211106C00E949C0403
:100A400086E790E00C943C020895FC01208121117E
:100A500006C00E94A40486E790E00C943C0208952E
:100A6000FC012081211106C00E94C60486E790E0A7
:100A70000C943C02089586E790E00C943C02CF93DE
:100A8000DF93EC018C8181110DC087EB90E00E9417
:100A9000480280EA90E00E9448028DE990E00E94BE
:100AA00048022AC060E670E089E192E00E94A7193E
:100AB00061E089E192E00E94BF1989E192E00E9421
:100AC000BC1941E050E060E670E089E192E00E94EC
:100AD0004A1A89E192E00E947A1A18161906CCF790
:100AE00089E192E00E94821A88839B81992329F0F0
:100AF0009981890F8F3F09F480E0DF91CF910895AC
:100B00001F93CF93DF93EC018C8181110BC085E99A
:100B100090E00E9448028EE790E00E9448028BE736
:100B200090E021C01A8219821B821BE029813A8140
:100B300021153105E9F4CE010E943F0590E09A832A
:100B400089836AE070E080E090E00E94BB0311506E
:100B500069F783E790E00E94480287E590E00E94F1
:100B6000480284E590E0DF91CF911F910C944802F8
:100B700080E890E0821B930B9A83898381E08B83CA
:100B8000DF91CF911F910895FC018481089560E663
:100B900070E089E192E00E94A71989E192E00E9449
:100BA000BC1991E0811190E0892F0895CF93DF93D4
:100BB000EC010E94C70581110EC08CED90E00E94EF
:100BC000480282EC90E00E9448028FEB90E0DF91B7
:100BD000CF910C94480218821A82198281E08C838A
:100BE0001B82DF91CF910895FC0114820C94D605ED
:100BF0000F931F93CF93DF938C01C0E0D0E060E0B0
:100C000070E0C8018C0F9D1F0E940F0B2396CC3003
:100C1000D105A9F7DF91CF911F910F91089562300F
:100C200088F470E025B36E5F7F4F81E090E001C0F3
:100C3000880F6A95EAF7411102C0822B02C08095A5
:100C4000822385BB0895623058F4862F8C5F44233D
:100C500011F06FEF01C060E00E94F30B0C94360DB1
:100C60000895623070F49A014F3F510519F014F065
:100C70002FEF30E0862F622F8C5F0E94F30B0C94D5
:100C8000360D0895CF934430A0F4C62F8091D8013B
:100C9000811109C04C5F67E370E088E390E00E9437
:100CA000151B8093D8016C2F8091D801CF910C94A3
:100CB000481BCF910895623020F595B384B370E05E
:100CC0006E5F7F4F21E030E0062E01C0220F0A94B4
:100CD000EAF7322F3095832384BB85B3822B85BB03
:100CE00083B395BB94B3292B24BB90E002C09595A8
:100CF00087956A95E2F78170992721E082278170B4
:100D0000089580E008950F931F93CF938C01C62F11
:100D1000623060F46C2FC8010E945B068823D1F317
:100D20006C2FC8010E945B068111FACFCF911F91F1
:100D30000F910895683050F4462F60E482E00E94DD
:100D40007A1D9695879596958795089580E00895E4
:100D5000CF936430E8F427B370E06C5F7F4F81E09D
:100D600090E0062E01C0880F0A94EAF7382F3095DC
:100D7000232327BB98B3892B88BB86B390E002C09E
:100D8000959587956A95E2F798B3932398BB70C0C1
:100D90006C3068F4C62F0C960E94100490E06CEF43
:100DA0006C0F02C0959587956A95E2F761C0643132
:100DB00008F042C084EF860F843000F544B32FE082
:100DC000261B30E02C5F3F4F81E090E0022E01C0F7
:100DD000880F0A94EAF7582F5095352F342334BBE7
:100DE00095B3892B85BB83B390E002C09595879519
:100DF0002A95E2F795B3952395BB3AC021B360518C
:100E000070E06C5F7F4F81E090E0062E01C0880F9C
:100E10000A94EAF7382F3095232321BB92B3892B0C
:100E200082BB80B390E002C0959587956A95E2F702
:100E300092B3932392BB1CC06C31E0F42AB364518B
:100E400081E090E0062E01C0880F0A94EAF7382F5F
:100E5000309523232ABB9BB3892B8BBB89B390E0AE
:100E600002C0959587956A95E2F79BB393239BBB48
:100E7000817001C080E0CF910895CF93DF936430FB
:100E8000C0F427B36C5F81E090E0A0E0B0E004C064
:100E9000880F991FAA1FBB1F6A95D2F7282B27BB63
:100EA00028B3442311F0822B02C08095822388BB93
:100EB0005DC06C3058F4EC012C966450CE010E9459
:100EC000F403CE01DF91CF910C942B046431A8F58B
:100ED00084EF860F8430C8F424B333E1361B81E0FD
:100EE00090E0A0E0B0E004C0880F991FAA1FBB1FCC
:100EF0003A95D2F7282B24BB25B3442311F0822B3B
:100F000002C08095822385BB31C021B36C5081E043
:100F100090E0A0E0B0E004C0880F991FAA1FBB1F9B
:100F20006A95D2F7282B21BB22B3442311F0822BE0
:100F300002C08095822382BB19C06C31B8F42AB3F9
:100F4000645181E090E0A0E0B0E004C0880F991FF8
:100F5000AA1FBB1F6A95D2F7282B2ABB2BB34423A9
:100F600011F0822B02C0809582238BBBDF91CF9141
:100F70000895862F683010F40C94760480E008956C
:100F80001F93CF93DF938BE991E00E944802C1E069
:100F9000D0E01C2F6C2F89E192E00E949D1989E11D
:100FA00092E00E94BC1981112FC087E991E00E9454
:100FB0004802BE0187ED91E00E94A404C433D1052C
:100FC00019F48DE891E01EC0C03619F482E891E072
:100FD00019C0C43519F48AE791E014C080E98C0F78
:100FE000803118F48BE691E00DC0C93219F482E625
:100FF00091E008C018531C3218F48EE491E002C04E
:1010000084E491E00E9448022196CF37D10509F689
:1010100085E391E0DF91CF911F910C944802CF922C
:10102000DF92FF920F931F93CF93DF938C0168E3BE
:1010300070E089E192E00E94A71989E192E00E94A4
:10104000BC19C82F6FE370E089E192E00E94A719F4
:1010500089E192E00E94BC198C0F61F08DE291E071
:101060000E94480284E091E00E94480281E091E001
:101070000E944802C12CD12CC0E0D0E0FC2C40E002
:101080006F2DC8010E943D072196C83E83E0D80716
:10109000B4F36F2DC8010E94A8068111F0CF6F2D07
:1010A000C8010E94A806811107C041E06F2DC80148
:1010B0000E943D072196F3CF6F2DC8010E94A8061C
:1010C000882339F040E06F2DC8010E943D0721962A
:1010D000F3CF6F2DC8010E94A806811107C041E01F
:1010E0006F2DC8010E943D072196F3CFC83ED34023
:1010F00049F484EE90E00E944802B60187ED91E049
:101100000E9425058FEFC81AD80A8CE1C816D104B1
:1011100009F0B2CFDF91CF911F910F91FF90DF9037
:10112000CF900895CF92DF92EF92FF920F931F938B
:10113000CF93DF938C01EC017C018CE0E80EF11C75
:10114000CE010E94EE0A2396CE15DF05C9F7CE0127
:101150000E94EB0368018FE0C80ED11CC6010E94FB
:10116000EB0388E090E00E94FE010E94080D0E94BF
:101170005F0489E192E00E9478196FE3CE010E943A
:10118000F10368E3C6010E94F1037801C0E0A60103
:101190006C2FC7010E94F30ACF5F83E0E80EF11CB9
:1011A000C430A9F784B38C6084BB85B38C6085BBE5
:1011B0008AB3807F8ABB8AB38F708ABB87B38F70F4
:1011C00087BB0E94A003C801DF91CF911F910F91AF
:1011D000FF90EF90DF90CF900C940F0841E060E01B
:1011E0008091D9019091DA010E94F4038091D90194
:1011F0009091DA010E942B0485E08A95F1F70000B6
:1012000040E060E08091D9019091DA010E94F403FE
:101210008091D9019091DA010C942B04CF93C82FBF
:101220008FE396E00197F1F700C000008091D901AB
:101230009091DA01662311F041E001C040E062E0E4
:101240000E94F4038091D9019091DA010E942B044D
:1012500040E064E08091D9019091DA010E94F403AA
:1012600040E065E08091D9019091DA010E94F40399
:1012700040E066E08091D9019091DA010E94F40388
:1012800040E067E08091D9019091DA010E94F40377
:10129000C7FF08C041E064E08091D9019091DA0174
:1012A0000E94F403C6FF08C041E065E08091D901C7
:1012B0009091DA010E94F403C5FF08C041E066E0A6
:1012C0008091D9019091DA010E94F403C4FF08C013
:1012D00041E067E08091D9019091DA010E94F40326
:1012E0008091D9019091DA010E942B040E94EE08AE
:1012F00040E064E08091D9019091DA010E94F4030A
:1013000040E065E08091D9019091DA010E94F403F8
:1013100040E066E08091D9019091DA010E94F403E7
:1013200040E067E08091D9019091DA010E94F403D6
:10133000C3FF08C041E064E08091D9019091DA01D7
:101340000E94F403C2FF08C041E065E08091D9012A
:101350009091DA010E94F403C1FF08C041E066E009
:101360008091D9019091DA010E94F403C0FF08C076
:1013700041E067E08091D9019091DA010E94F40385
:101380008091D9019091DA010E942B040E94EE080D
:1013900041E067E08091D9019091DA010E94F40365
:1013A00041E066E08091D9019091DA010E94F40356
:1013B00041E065E08091D9019091DA010E94F40347
:1013C00041E064E08091D9019091DA010E94F40338
:1013D0008091D9019091DA01CF910C942B0460E0B7
:1013E0000C940E0961E00C940E09611102C0805842
:1013F00001C080540C94EF0981E00C94EF0982E065
:101400000C94EF0961E00C940E09CF93DF93EC018B
:101410008991882319F00E94020AFACFDF91CF91B7
:101420000895CF93DF93FC018491EF0121968823E7
:1014300021F00E94020AFE01F7CFDF91CF910895BB
:10144000CF93C82FCB017093DA016093D90140E0AC
:1014500064E00E94F40340E065E08091D90190913E
:10146000DA010E94F40340E066E08091D901909196
:10147000DA010E94F40340E067E08091D901909185
:10148000DA010E94F40340E062E08091D90190917A
:10149000DA010E94F40340E060E08091D90190916C
:1014A000DA010E94F40340E061E08091D90190915B
:1014B000DA010E94F4038091D9019091DA010E942F
:1014C0002B048FEF99EF0197F1F700C0000041E086
:1014D00066E08091D9019091DA010E94F40341E025
:1014E00067E08091D9019091DA010E94F403809124
:1014F000D9019091DA010E942B040E94EE088FE13D
:101500009EE40197F1F700C000000E94EE088FEF03
:1015100090E00197F1F700C000000E94EE088FEF05
:1015200090E00197F1F700C0000040E067E0809193
:10153000D9019091DA010E94F4038091D901909130
:10154000DA010E942B040E94EE088FEF90E00197D1
:10155000F1F700C0000088E20E94EF0988E00E94D5
:10156000EF090E94FC0986E00E94EF098C2FCF91C1
:101570000C94EF0920916000222341F09093ED013B
:101580008093EC010E94080D1092600008958093F2
:1015900061000895E82FF0E0EE0FFF1FE452FE4FC8
:1015A00071836083089580E00E94971D81E00E940E
:1015B000971D82E00E94971D83E00E94971D8091F5
:1015C000DB01882351F00E94360D8091EC0190914F
:1015D000ED010E942B041092DB010895FC011082A2
:1015E000128211820895EF92FF920F931F93CF936F
:1015F000DF931F92CDB7DEB77C018A01CA016983F0
:101600000E94BA0AF70112830183698160830F90F7
:10161000DF91CF911F910F91FF90EF900895FC0102
:101620006536710514F064E670E06C398FEF780769
:1016300014F46CE97FEF2FEF269FC001279F900DD8
:10164000112464E670E00E94301EE081F0E0EE0FAD
:10165000FF1FE452FE4F718360830895FFCF22E0A5
:10166000FC0120830895EA01FC0160836130E1F50B
:1016700083E092E00E94480262E370E080E090E044
:101680000E94BB038EEF91E00E94480262E370E08B
:1016900080E090E00E94BB0387EF91E00E94480247
:1016A00062E370E080E090E00E94BB0380EF91E095
:1016B0000E94480262E370E080E090E00E94BB0379
:1016C0008DEE91E00E944802CE010E943C028AEE1B
:1016D00091E00E94480262E370E080E090E00E94A6
:1016E000BB0384EE91E02AC080EE91E00E944802A4
:1016F00062E370E080E090E00E94BB038BED91E03C
:101700000E94480262E370E080E090E00E94BB0328
:1017100084ED91E00E94480262E370E080E090E096
:101720000E94BB038DEC91E00E94480262E370E0EE
:1017300080E090E00E94BB0387EC91E00E944802A9
:101740000E941202FDCF0F931F93CF93DF93EB0103
:101750008B01040F151FC017D10721F089910E943A
:101760002B02F9CFDF91CF911F910F910895CF9266
:10177000DF92EF92FF920F931F93CF93DF936A0153
:101780008B01C0E0D0E0CC15DD0569F00E94B2030A
:101790000E941202E92EF12CEF2829F4F80181931E
:1017A0008F012196F0CFCE01DF91CF911F910F9144
:1017B000FF90EF90DF90CF900895CF93DF93EC01EF
:1017C00069E60E94A60266E470E080E090E00E9474
:1017D000BB0341E050E061E070E0CE010E94E20214
:1017E000DF91CF910895863028F4E82FF0E0EE5E87
:1017F000FD4F60830895CF93DF9325E030E040E014
:10180000842F90E082179307D4F4BC01645F7D4F6E
:10181000DB015C91FC01E35FFD4F8081C52FD0E0CF
:10182000CE5EDD4FA82FB0E0AE5EBD4FC8819C916B
:101830009C1718F4DB018C9350834F5FE1CF21504C
:101840003109E9F6DF91CF9108951F920F920FB6FB
:101850000F9211242F933F934F935F936F937F9336
:101860008F939F93AF93BF93EF93FF938091180251
:10187000811122C08091EF01882351F00E940F1E38
:101880001092EF0188B3807F88BB82B3837F82BBD5
:1018900080911802E0916400F0916500E80FF11D5D
:1018A000808198B3282F2F70922B98BB92B3869586
:1018B00086958C70892B13C0E0916400F0916500CF
:1018C000E80FF11D808128B3982F9F709095922387
:1018D00098BB92B3869586958C708095892382BB40
:1018E00080911802E0916800F0916900E80FF11D05
:1018F000808183BD809118028F5F80931802E091F0
:101900006800F0916900E80FF11D9081992311F0B2
:10191000873011F410921802FF91EF91BF91AF91AF
:101920009F918F917F916F915F914F913F912F91F7
:101930000F900FBE0F901F9018958091EF018111AD
:10194000FCCF81E08093EF0108950F931F93CF9315
:10195000DF93E0916200F09163001082ACE0B2E0AE
:1019600050E040E061E070E016E01A0F9D91E92F31
:10197000F0E0EE5EFD4F80818B3078F1E091620007
:10198000F0916300EB0101C0CC0F9A95EAF79081CA
:101990009C2B908390E0841B9109E0916200F09170
:1019A0006300252F30E08530910534F4E20FF31FFA
:1019B0008081C82BC08311C08A30910514F48AE05D
:1019C00090E0E20FF31FC183E0916600F0916700A1
:1019D000E20FF31F8083480F5F5F1A13C7CF852F75
:1019E00090E0E0916600F0916700E80FF91F4095E4
:1019F0004083563040F42091660030916700F90131
:101A0000E80FF91F1182DF91CF911F910F91089577
:101A1000CF938091EE01811127C0F89410920C02AF
:101A2000C1E0C0930D0282E080930E0283E08093B8
:101A30000F0284E08093100285E0809311020E94DF
:101A4000A50C0E940F1E87B38F6087BB81B38C608B
:101A500081BB85B58B6085BD89B7806889BF8FEFF5
:101A600083BD7894C093EE01CF9108958091EF01EA
:101A70008111FCCF0E94FB0B0E94A50C0C949D0CC5
:101A8000FC01108208950F931F93CF93DF9300D032
:101A9000CDB7DEB78C0119821A8269E670E089E160
:101AA00092E00E94A71942E050E0BE016F5F7F4FB5
:101AB00089E192E00E944F1A89E192E00E94BC19EC
:101AC00060ED77E080E090E00E94BB0381E0F801E8
:101AD00080830F900F90DF91CF911F910F91089508
:101AE0000F931F93CF93DF931F92CDB7DEB7FC0107
:101AF0008081882351F169E670E089E192E00E94DB
:101B0000A719198241E050E0BE016F5F7F4F89E164
:101B100092E00E944F1A42E069E689E192E00E9459
:101B2000471A89E192E00E94821A8C0189E192E0D1
:101B30000E94821A20E030E0382F020F131F89E143
:101B400092E00E94BC19C80102C080E090E00F90B2
:101B5000DF91CF911F910F910895FC01808108952D
:101B600069E670E089E192E00E94A71989E192E0BC
:101B70000E94BC1991E0811190E0892F08951F9374
:101B8000CF93DF931F92CDB7DEB7FC01808188230E
:101B900019F1162F69E670E089E192E00E94A71919
:101BA0001E5F198341E050E0BE016F5F7F4F89E106
:101BB00092E00E944F1A41E069E689E192E00E94BA
:101BC000471A89E192E00E94821A182F89E192E077
:101BD0000E94BC19812F01C080E00F90DF91CF914E
:101BE0001F910895CF93DF9300D0CDB7DEB7FC01EE
:101BF00080818823B1F081E089836A8369E670E09F
:101C000089E192E00E94A71942E050E0BE016F5FB7
:101C10007F4F89E192E00E944F1A89E192E00E9491
:101C2000BC190F900F90DF91CF910895FC011082A5
:101C30001282118281E0848313820895FC01108254
:101C40001282118281E0848313820895CF93DF93FF
:101C5000FC0124812223B9F1EC0160E670E089E106
:101C600092E00E94A71961E089E192E00E94BF1909
:101C700089E192E00E94BC19811127C041E050E047
:101C800060E670E089E192E00E944A1A89E192E000
:101C90000E947A1A18161906CCF789E192E00E9480
:101CA000821A2B81222391F029813A81820F931F7E
:101CB0008F3F91051CF08F5F910908C097FF06C008
:101CC00081509F4F03C080E001C08FEFDF91CF9123
:101CD0000895CF93FC018481882371F160E670E060
:101CE00089E192E00E94A7196CE089E192E00E94EC
:101CF000BF1989E192E00E94BC19811120C042E025
:101D000050E060E670E089E192E00E944A1A89E1C1
:101D100092E00E947A1A0297D4F389E192E00E943D
:101D2000821AC82F89E192E00E94821A20E030E0F6
:101D30003C2F820F931F05C080E090E002C08FEF20
:101D40009FEFCF910895CF93FC018481882371F197
:101D500060E670E089E192E00E94A7196EE089E1F7
:101D600092E00E94BF1989E192E00E94BC198111A2
:101D700020C042E050E060E670E089E192E00E941D
:101D80004A1A89E192E00E947A1A0297D4F389E113
:101D900092E00E94821AC82F89E192E00E94821A82
:101DA00020E030E03C2F820F931F05C080E090E0E0
:101DB00002C08FEF9FEFCF9108951F93CF93DF93D2
:101DC000FC012481222309F1EC0112821182138289
:101DD00015E629813A812115310579F4CE010E9459
:101DE000260E90E09A8389836AE070E080E090E0BC
:101DF0000E94BB03115069F708C080E890E0821B85
:101E0000930B9A83898381E08B83DF91CF911F911C
:101E10000895FC0184810895CF93C62F60E670E099
:101E200089E192E00E94A71960E089E192E00E94B6
:101E3000BF196C2F89E192E00E94BF1989E192E0FD
:101E40000E94BC1962E370E080E090E0CF910C94B6
:101E5000BB03CF93DF93EC0160EF0E940C0F65EFA3
:101E6000CE010E940C0F67EFCE01DF91CF910C9451
:101E70000C0F68EF0E940C0F62E370E080E090E0CE
:101E80000C94BB03FC0189E28183138212821482C9
:101E90000895EF92FF921F93CF93DF931F92CDB7D8
:101EA000DEB77C01162FFC01618189E192E0498354
:101EB0000E949D19612F89E192E00E94BF1949811A
:101EC000642F89E192E00E94BF1989E192E00E94AB
:101ED000BC19F70180830F90DF91CF911F91FF9084
:101EE000EF9008951F93CF93DF93EC01162F462FA9
:101EF0004F776AE80E94490F1983DF91CF911F91B4
:101F00000895EF92FF921F93CF93DF9300D0CDB748
:101F1000DEB77C01162FFC01618189E192E04A83E2
:101F200059830E949D19612F89E192E00E94BF1997
:101F30005981652F89E192E00E94BF194A81642F7F
:101F400089E192E00E94BF1989E192E00E94BC19E8
:101F5000F70180830F900F90DF91CF911F91FF9039
:101F6000EF900895CF92DF92EF92FF921F93CF935D
:101F7000DF93EC01162F69017A01698189E192E012
:101F80000E949D19612F89E192E00E94BF196F2D77
:101F900077278827992789E192E00E94BF19B70126
:101FA0008827992789E192E00E94BF1999278F2DF0
:101FB0007E2D6D2D89E192E00E94BF196C2D89E183
:101FC00092E00E94BF1989E192E00E94BC198883C7
:101FD000DF91CF911F91FF90EF90DF90CF90089508
:101FE0001F93CF93DF93EC01162F698189E192E073
:101FF0000E949D19612F89E192E00E94BF1989E139
:1020000092E00E94BC19888341E0698189E192E0F5
:102010000E94471A89E192E00E94821ADF91CF91D3
:102020001F9108951F93CF93DF93EC01162F6981C1
:1020300089E192E00E949D19612F89E192E00E945E
:10204000BF1989E192E00E94BC19888342E069814E
:1020500089E192E00E94471A89E192E00E94821A87
:10206000D82F80E0C82F89E192E00E94821A8C2B41
:102070009D2BDF91CF911F910895CF92DF92EF9228
:10208000FF92CF93DF93EC01F62E698189E192E014
:102090000E949D196F2D89E192E00E94BF1989E18C
:1020A00092E00E94BC19888344E0698189E192E052
:1020B0000E94471A89E192E00E94821A6C01990FEE
:1020C000EE08FF08FC2CEE24DD24CC2489E192E00C
:1020D0000E94821A092E000CAA0BBB0BDC01992767
:1020E0008827C82AD92AEA2AFB2A89E192E00E9495
:1020F000821AC82F89E192E00E94821A092E000CF0
:10210000AA0BBB0BC82AD92AEA2AFB2A40E050E0D6
:102110005C2F60E070E0CB01BA016C297D298E292B
:102120009F29DF91CF91FF90EF90DF90CF9008959E
:10213000CF92DF92EF92FF921F93CF93DF9300D065
:10214000CDB7DEB77C01D62E142FFC01618189E169
:1021500092E029835A830E949D196D2D89E192E0B6
:102160000E94BF19C12E5A81D52E2981120F1C152C
:1021700041F0F60161916F0189E192E00E94BF197F
:10218000F6CF89E192E00E94BC19F70180830F909D
:102190000F90DF91CF911F91FF90EF90DF90CF9044
:1021A0000895CF92DF92EF92FF920F931F93CF93F8
:1021B000DF931F92CDB7DEB76C01F62E142F022FDE
:1021C000FC01618189E192E059830E949D196F2D84
:1021D00089E192E00E94BF1989E192E00E94BC1956
:1021E000F6018083402F618189E192E00E94471AC5
:1021F000E12E5981F52E100F1E1541F089E192E074
:102200000E94821AF70181937F01F6CF0F90DF9130
:10221000CF911F910F91FF90EF90DF90CF90089595
:10222000CF92DF92EF92FF92CF93DF93EC016A019E
:102230007B0120E030E0A901C701B6010E949A1E8F
:1022400087FD1BC028EB3EEF4FEF53E4C701B601FB
:102250000E94581F18168CF020E030E040E053E454
:10226000C701B6010E945D1F0E949F1EAB0164E47E
:10227000CE010E94810F81E001C080E0DF91CF910B
:10228000FF90EF90DF90CF90089564E40E941210C9
:10229000BC0180E090E00E94CE1E20E030E040E0F3
:1022A0005CE30E945D1F0895611102C060E503C0F8
:1022B000613031F460E70E94F00F8F5F880F08955E
:1022C0008FEF0895CF92DF92EF92FF92CF93DF933B
:1022D000EC016A017B0141E060E80E94490F41E0A6
:1022E0006FEFCE010E94490F40E060E0CE010E94F6
:1022F000490F4F8161E9CE010E94490F41E060E042
:10230000CE010E94490F40E06FEFCE010E94490FBD
:1023100040E060E8CE010E94490FC114D104E104FD
:10232000F104A9F068EFCE010E941210009739F075
:10233000DC01A70196010E94661E6B017C01A701CA
:10234000960164E0CE010E94B20F44E001C042E079
:1023500060E0CE01DF91CF91FF90EF90DF90CF90C2
:102360000C94490FCF93DF93EC0141E060E00E94B1
:10237000490F41E06FEFCE010E94490F40E060E05D
:10238000CE010E94490F40E061E9CE010E94490F51
:1023900041E060E0CE010E94490F40E06FEFCE01C6
:1023A000DF91CF910C94490F0F931F93CF93DF933D
:1023B000EC010E94B2037E836D8363E1CE010E9433
:1023C000F00F8770A1F48A819B81892BB1F30E9461
:1023D000B2032D813E81621B730B8A819B8186171C
:1023E000970758F781E08C838FEF9FEF0BC06EE16A
:1023F000CE010E9412108C0141E06BE0CE010E94E0
:10240000490FC801DF91CF911F910F910895CF938C
:10241000DF93EC0141E060E80E94490F41E06FEF7B
:10242000CE010E94490F40E060E0CE010E94490FBA
:102430004F8161E9CE010E94490F41E060E0CE0189
:102440000E94490F40E06FEFCE010E94490F40E02B
:1024500060E8CE010E94490F41E060E0CE010E9499
:10246000490F0E94B2037E836D8360E0CE010E941B
:10247000F00F80FF16C08A819B81892BB1F30E94E7
:10248000B2032D813E81621B730B8A819B8186176B
:10249000970758F781E08C838FEF9FEFDF91CF9103
:1024A0000895CE01DF91CF910C94D411FC01848169
:1024B00014820895EF92FF920F931F93CF93DF93AF
:1024C000EC017B018A0141E060E80E94490F41E094
:1024D0006FEFCE010E94490F40E060E0CE010E9404
:1024E000490F46E06FEFCE010E94490F63E8CE012D
:1024F0000E94F00F482F446063E8CE010E94490F0C
:1025000047E06FEFCE010E94490F41E061E8CE0144
:102510000E94490F41E060E8CE010E94490F4BE65E
:1025200064E9CE010E94490F40E063E8CE010E94B9
:10253000490F0E94B2037E836D8363E8CE010E943F
:10254000F00F811111C08A819B81892BB1F30E9408
:10255000B2032D813E81621B730B8A819B8186179A
:10256000970758F780E03CC041E063E8CE010E9445
:10257000490F62E9CE010E94F00F982F9F77F70173
:102580009083982F991F9927991FF801908340E015
:1025900061E8CE010E94490F46E06FEFCE010E9434
:1025A000490F63E8CE010E94F00F482F4B7F63E88C
:1025B000CE010E94490F41E06FEFCE010E94490F0A
:1025C00041E060E0CE010E94490F40E06FEFCE0194
:1025D0000E94490F40E060E8CE010E94490F81E06F
:1025E000DF91CF911F910F91FF90EF900895CF93BE
:1025F000DF93EB0161E00E94F00F84FB992790F9D3
:10260000988383FB992790F99A8382FB992790F905
:10261000998386FB222720F92B83881F8827881F10
:102620008C83DF91CF9108959C013327A90102C0CB
:10263000440F551F9A95E2F7CA01019608950F932A
:102640001F930097C9F0AC014150510960E070E060
:1026500080E090E08A019B010027012B022B032BD5
:1026600031F076956795579547950196F3CF982F5A
:102670008827842B952B02C080E090E01F910F915A
:1026800008958F929F92AF92BF92CF92DF92EF9276
:10269000FF92CF93DF93EC01A62FB0E020E03FE262
:1026A0004AE350E00E94661E6C507E4F8F4F9F4F52
:1026B00028EEC22E23E0D22EE12CF12CA7019601A8
:1026C0000E94441E49015A01B694A7949794879496
:1026D000DE010E94661E680D791D8A1D9B1DA701E3
:1026E00096010E94441ECA01B901DF91CF91FF906B
:1026F000EF90DF90CF90BF90AF909F908F90089514
:10270000EF92FF920F931F93CF93DF938C017B0186
:10271000EA0160E00E94541190E09983888366E4A6
:10272000C8010E94F00F282F30E0C90101969D8357
:102730008C8368810E9441136A877B878C879D8781
:1027400061E5C8010E9412100E9414139F838E83BA
:1027500068810E9441136E877F87888B998B60E721
:10276000C8010E94F00F8F5F880F90E09B838A83DF
:1027700061E7C8010E9412100E941413998788878C
:10278000F7012381222331F02E813F81821B930B9D
:10279000998788876A81888599850E9441136A8B09
:1027A0007B8B8C8B9D8BDF91CF911F910F91FF9035
:1027B000EF900895CF92DF92EF92FF920F931F93C5
:1027C000CF93DF93CDB7DEB76B970FB6F894DEBF2C
:1027D0000FBECDBF8C01BE01695E7F4F0E94F71214
:1027E000AE014F5F5F4FBE01695E7F4FC8010E941F
:1027F00080138F89882359F08B859C85AD85BE8594
:10280000BC01CD016C57724F8F4F9F4F04C066E3E0
:102810007BE080E090E0298D222379F0CB84DC847A
:10282000ED84FE8422EBC20E22E0D21EE11CF11CDC
:10283000CC0CDD1CEE1CFF1C0DC0288D222371F07A
:10284000CB84DC84ED84FE84E4E9CE0EE2E0DE1E7F
:10285000E11CF11C6C0D7D1D8E1D9F1D2A8D2223F8
:1028600071F0CF84D888E988FA88F4E9CF0EF2E0D5
:10287000DF1EE11CF11C6C0D7D1D8E1D9F1D2B8D1F
:10288000222371F0CB88DC88ED88FE8826E2C20E18
:1028900022E0D21EE11CF11C6C0D7D1D8E1D9F1DC2
:1028A000F80160877187828793876B960FB6F894DB
:1028B000DEBF0FBECDBFDF91CF911F910F91FF9073
:1028C000EF90DF90CF9008954F925F926F927F923A
:1028D0008F929F92AF92BF92CF92DF92EF92FF9230
:1028E0004B015C01A42FB0E020E03FE24AE350E05E
:1028F0000E94661E6C507E4F8F4F9F4F28EE33E034
:1029000040E050E00E94441E69017A0129013A0129
:102910007694679457944794A8EEB3E0A501940188
:102920000E94661E640D751D861D971DA7019601E8
:102930000E94441ECA01B901FF90EF90DF90CF9032
:10294000BF90AF909F908F907F906F905F904F90CF
:1029500008958F929F92AF92BF92DF92EF92FF9273
:102960000F931F93CF93DF93CDB7DEB76B970FB65F
:10297000F894DEBF0FBECDBF40322EE45207610592
:10298000710508F47AC04A015B017C01BE01695EF1
:102990007F4F0E94F712AE014F5F5F4FBE01695E2D
:1029A0007F4FC7010E9480138F89882349F00B85D0
:1029B0001C852D853E850A5C144F2F4F3F4F04C068
:1029C00008EE18E020E030E0898D882369F08B85DF
:1029D0009C85AD85BE858E549D4FAF4FBF4F880FF0
:1029E000991FAA1FBB1F0BC0888D882361F08B85A0
:1029F0009C85AD85BE858C569D4FAF4FBF4F080F50
:102A0000191F2A1F3B1FDA8CDD2061F08F85988902
:102A1000A989BA898C569D4FAF4FBF4F080F191F18
:102A20002A1F3B1F8B8D882331F10A5D1D4F2F4FCD
:102A30003F4F80169106A206B306F8F0C501B40117
:102A4000601B710B820B930B4B810E9464149B01E2
:102A5000DD2021F02F813885260F371FC9010E9404
:102A60001F13AC0161E7C7010E94810FF701808647
:102A70009186A286B38681E001C080E06B960FB696
:102A8000F894DEBF0FBECDBFDF91CF911F910F91A4
:102A9000FF90EF90DF90BF90AF909F908F90089540
:102AA000CF93DF93EC01462F416060E00E94490F15
:102AB0000E94B2037E836D8363E1CE010E94F00F1A
:102AC000877089F48A819B81892BB1F30E94B203BC
:102AD0002D813E81621B730B8A819B81861797072C
:102AE00058F780E00BC041E06BE0CE010E94490F37
:102AF00040E060E0CE010E94490F81E0DF91CF917C
:102B00000895FF920F931F93CF93DF93CDB7DEB756
:102B100028970FB6F894DEBF0FBECDBF8C01662399
:102B200049F069E80E94F00F482F416069E8C80148
:102B30000E94490F40E068E8C8010E94490F41E047
:102B400060E8C8010E94490F41E06FEFC8010E9490
:102B5000490F40E060E0C8010E94490F61E9C801E7
:102B60000E94F00FF801878341E060E0C8010E94F5
:102B7000490F40E06FEFC8010E94490F40E060E854
:102B8000C8010E94490F60E6C8010E94F00F482F5B
:102B9000426160E6C8010E94490F40E050E060E8F1
:102BA0007EE3C8010E9410114FEF61E0C8010E944E
:102BB000490FAE01495F5F4FBE01685F7F4FC8019B
:102BC0000E945A12811102C0F12C31C226E0AE01DE
:102BD0004F5F5F4F60EBC8010E94D11041E06FEF83
:102BE000C8010E94490F40E06FE4C8010E94490FEC
:102BF0004CE26EE4C8010E94490F40E06FEFC8014B
:102C00000E94490F44EB66EBC8010E94490F8F8177
:102C1000811102C040E001C04CE0A88580E090E056
:102C200061E070E0282F269526952695582F57703D
:102C3000E1E0F0E0EC0FFD1FE20FF11D841710F052
:102C40009A130AC09B0101C0220F5A95EAF72095FA
:102C500030812323208309C0208130E002C03595D4
:102C600027955A95E2F720FD9F5F8F5F8033D1F65D
:102C700026E0AE014F5F5F4F60EBC8010E949810E5
:102C800041E06FEFC8010E94490F40E060E0C801D9
:102C90000E94490F40E06FEFC8010E94490F40E0D9
:102CA00069E0C8010E94490F40E060E1C8010E944C
:102CB000490F40E061E1C8010E94490F41E064E230
:102CC000C8010E94490F4FEF65E2C8010E94490FF9
:102CD00040E065E7C8010E94490F41E06FEFC8017D
:102CE0000E94490F4CE26EE4C8010E94490F40E087
:102CF00068E4C8010E94490F40E260E3C8010E94F5
:102D0000490F40E06FEFC8010E94490F49E060E3BE
:102D1000C8010E94490F40E064E5C8010E94490FC4
:102D200044E061E3C8010E94490F43E062E3C80147
:102D30000E94490F43E860E4C8010E94490F45E240
:102D400066E4C8010E94490F40E060E6C8010E94A5
:102D5000490F40E067E2C8010E94490F46E060E584
:102D6000C8010E94490F40E061E5C8010E94490F77
:102D700046E962E5C8010E94490F48E066E5C801DE
:102D80000E94490F40E367E5C8010E94490F40E0F7
:102D900061E6C8010E94490F40E062E6C8010E9456
:102DA000490F40E064E6C8010E94490F40E065E633
:102DB000C8010E94490F40EA66E6C8010E94490F17
:102DC00041E06FEFC8010E94490F42E362E2C8018F
:102DD0000E94490F44E167E4C8010E94490F4FEF88
:102DE00069E4C8010E94490F40E06AE4C8010E94FA
:102DF000490F40E06FEFC8010E94490F4AE06AE7BF
:102E0000C8010E94490F40E06BE7C8010E94490FCA
:102E100041E268E7C8010E94490F41E06FEFC80135
:102E20000E94490F44E363E2C8010E94490F40E059
:102E300062E4C8010E94490F4FEF64E4C8010E9498
:102E4000490F46E265E4C8010E94490F45E066E487
:102E5000C8010E94490F40E460E4C8010E94490F84
:102E600046E06EE0C8010E94490F4AE160E2C801F5
:102E70000E94490F40E463E4C8010E94490F40E00A
:102E80006FEFC8010E94490F43E064E3C8010E944C
:102E9000490F44E465E3C8010E94490F41E06FEF28
:102EA000C8010E94490F44E061E3C8010E94490F34
:102EB00049E06BE4C8010E94490F45E06CE4C80199
:102EC0000E94490F44E06DE4C8010E94490F40E0B0
:102ED0006FEFC8010E94490F40E064E4C8010E94FE
:102EE000490F40E265E4C8010E94490F48E067E4E9
:102EF000C8010E94490F48E268E4C8010E94490FD6
:102F000040E067E6C8010E94490F44E060E7C8015D
:102F10000E94490F41E061E7C8010E94490F4EEF4E
:102F200062E7C8010E94490F40E066E7C8010E94BD
:102F3000490F40E067E7C8010E94490F41E06FEF89
:102F4000C8010E94490F41E06DE0C8010E94490F8D
:102F500040E06FEFC8010E94490F41E060E8C801FE
:102F60000E94490F48EF61E0C8010E94490F41E00B
:102F70006FEFC8010E94490F41E06EE8C8010E944E
:102F8000490F41E060E0C8010E94490F40E06FEF47
:102F9000C8010E94490F40E060E8C8010E94490F43
:102FA00044E06AE0C8010E94490F64E8C8010E9439
:102FB000F00F482F4F7E64E8C8010E94490F41E09E
:102FC0006BE0C8010E94490FC8010E94DA13F801A2
:102FD000608771878287938748EE61E0C8010E940D
:102FE000490FF8014085518562857385C8010E94AB
:102FF000A91441E061E0C8010E94490F60E4C801E2
:103000000E945015882309F4DFCD42E061E0C80139
:103010000E94490F60E0C8010E945015F82E8823D5
:1030200009F4D2CD48EE61E0C8010E94490F8F2D0E
:1030300028960FB6F894DEBF0FBECDBFDF91CF91BB
:103040001F910F91FF900895DF92EF92FF920F93DF
:103050001F93CF93DF93CDB7DEB76B970FB6F8947E
:10306000DEBF0FBECDBF8C01D62EF42EE42EE6942B
:10307000EA94BE01695E7F4F0E94F712AE014F5F76
:103080005F4FBE01695E7F4FC8010E948013D1105F
:1030900044C02EE0F21679F02F1528F08CE0F812DB
:1030A000E7C048E10BC0E0E1FE1639F0F2E1FF12A3
:1030B000DFC040E503C040E301C040E467E5C8016C
:1030C0000E94490F48E066E5C8010E94490F4E2D55
:1030D00060E5C8010E94490F6F85788989899A89BE
:1030E0004F2D0E946414CB010E941F13AC0161E5B7
:1030F000C8010E94810F6B857C858D859E854F2D33
:103100000E9464144FEF613021E0720708F4460F0B
:1031100066E4C8010E94490F8EC081E0D812A8C0A1
:10312000EAE0FE16B9F1EF15F0F0F8E0FF12A0C0EA
:1031300040E168E4C8010E94490F48E067E4C80123
:103140000E94490F42E062E3C8010E94490F4CE02F
:1031500060E3C8010E94490F41E06FEFC8010E947F
:10316000490F40E342C02CE0F21629F18EE0F8123C
:103170007FC048E468E4C8010E94490F48E067E462
:10318000C8010E94490F43E062E3C8010E94490F51
:1031900047E021C048E268E4C8010E94490F48E0C6
:1031A00067E4C8010E94490F43E062E3C8010E943E
:1031B000490F49E010C048E368E4C8010E94490F84
:1031C00048E067E4C8010E94490F43E062E3C80198
:1031D0000E94490F48E060E3C8010E94490F41E0A6
:1031E0006FEFC8010E94490F40E260E3C8010E94EE
:1031F000490F40E06FEFC8010E94490F4E2D60E774
:10320000C8010E94490F6B897C898D899E894F2D49
:103210000E946414AB012A8D222329F02F81388566
:10322000A901460F571FCA010E941F13AC0161E795
:10323000C8010E94810FF801408551856285738520
:10324000C8010E94A91461E0C8010E94F00FF82E85
:1032500042E061E0C8010E94490F60E0C8010E949D
:1032600050154F2D61E0C8010E94490F81E001C057
:1032700080E06B960FB6F894DEBF0FBECDBFDF9136
:10328000CF911F910F91FF90EF90DF900895AC01C7
:10329000E0911A02F0911B023097E1F09091430205
:1032A000809142029817B0F090E0292F30E0261765
:1032B000370754F4DA01A20FB31F8C91D901AC5B2C
:1032C000BD4F8C939F5FF1CF1092430260934202F7
:1032D000CB0109940895E0911C02F0911D023097F2
:1032E00029F01092200210921F0209940895089567
:1032F00010924302109242021092200210921F027A
:103300000C944B1BCF93DF93EC01862F0E94611B23
:103310008BE699E10E943C1C87E499E10E94371CEE
:10332000CE01DF91CF910C9478190C9482190C94F2
:103330005B1BCB01BA010C94641B81E080931E02DD
:10334000609341021092200210921F0208950C9483
:103350009D190F93062F21E040911F0261E272E058
:10336000809141020E94BC1B1092200210921F0209
:1033700010921E020F91089561E00C94A919CF9349
:10338000DF931F92CDB7DEB7698380911E02882339
:1033900089F080911F028032A8F480912002E82FEA
:1033A000F0E0EF5DFD4F60838F5F8093200280939C
:1033B0001F0205C061E0CE0101960E940F1C81E052
:1033C00090E002C080E090E00F90DF91CF910895EF
:1033D0004F925F926F927F92AF92BF92CF92EF9295
:1033E000FF920F931F93CF93DF935C01F62ED42FA0
:1033F00028013901EE20F9F00E949D19CE2DC4302C
:1034000008F0C3E0C15098F028E0C29FC001112429
:10341000A301920104C056954795379527958A9543
:10342000D2F7CA01B901C5010E94BF19EBCF60E014
:10343000C5010E94A9194D2FD13208F040E22C2D70
:1034400064E472E08F2D0E94771B109243028093F8
:103450004202DF91CF911F910F91FF90EF90CF909B
:10346000BF90AF907F906F905F904F900895CF92F4
:10347000EF920F931F93C22EE12C00E010E0980111
:103480000E94E8191F910F91EF90CF90089521E0CD
:103490000C94371A21E00C94371A0C94371ACF92F7
:1034A000DF92EF92FF920F931F93CF93DF936C0104
:1034B000262F972F8A0180911E02882369F0C62F3C
:1034C000D72F7E01E40EF51ECE15DF0549F0699178
:1034D000C6010E94BF19F8CF642F822F0E940F1CD3
:1034E000C801DF91CF911F910F91FF90EF90DF9076
:1034F000CF9008958091420290E020914302821B78
:10350000910908959091430280914202981750F4D6
:10351000E92FF0E0EC5BFD4F208130E09F5F90935E
:10352000430202C02FEF3FEFC9010895E09143022B
:1035300080914202E81730F4F0E0EC5BFD4F8081AF
:1035400090E008958FEF9FEF0895089570931B0208
:1035500060931A02089570931D0260931C020895EF
:1035600080911E0208951F920F920FB60F921124A0
:103570002F933F934F938F939F93EF93FF9340919C
:103580006B02809164024423C9F090E081509F4F08
:103590009BBD8ABD30916502E0916802F09169029D
:1035A000208181E090E002C0880F991F3A95E2F7F0
:1035B0008095909530E08223932314C02DEE32E164
:1035C000281B31093BBD2ABD30916502E09168029C
:1035D000F0916902208181E090E001C0880F3A9566
:1035E000EAF7822B808381E0842780936B02FF912E
:1035F000EF919F918F914F913F912F910F900FBE1F
:103600000F901F90189580916A0281110DC08EB5A0
:1036100083608EBD89B7806189BF84E690E09BBDE1
:103620008ABD81E080936A02089590936902809335
:1036300068027093670260936602409365022DE70B
:103640002093640250916502FC014081642F70E078
:1036500021E030E0F90102C0EE0FFF1F5A95E2F7BA
:10366000AF014095509546235723FC01408390912C
:103670006502E0916602F0916702808101C0220F2D
:103680009A95EAF7282B20830E94031B81E0089576
:103690006093640208951092D90281E08093D7026A
:1036A0001092D602A89AA99A0898099888E480B935
:1036B00085E486BF089586B78A7B86BFA898A998B7
:1036C0000895880F82B908959B01AC0160E074E20F
:1036D00084EF90E00E94441EDA01C9014097A109DD
:1036E000B109B695A7959795879580B90895413208
:1036F00008F040C09091D9029111FCCF91E09093D5
:10370000D9022093D7022FEF20936C021092B102BE
:10371000240F2093B0029093D8029091D802880F82
:10372000892B8093D8028091D602813051F4109277
:10373000D6028091D80283B906B603FCFACF85EC95
:1037400001C085EE86BF8091D9028130E1F380917E
:10375000B102841710F44091B10222EB32E0FB0178
:10376000D9018A2F821B841718F48D918193F9CF88
:10377000842F089580E008950F934132D0F5909101
:10378000D9029111FCCF32E03093D9020093D702D5
:103790003FEF30936C021092B1024093B002FB01F4
:1037A00062EB72E0DB013A2F361B341718F43191CB
:1037B0003D93F9CF1092D8023091D802880F832B15
:1037C0008093D8028091D602813051F41092D602B3
:1037D0008091D80283B906B603FCFACF85EC01C00C
:1037E00085EE86BF222339F08091D902823019F408
:1037F000F9CF91E011C080916C028F3F69F0809108
:103800006C02803231F080916C02803321F094E0C0
:1038100003C092E001C093E0892F0F910895409179
:103820008E02262F30E0240F311D21323105DCF4C9
:103830002091D9022430C9F4FC0180E090E0861781
:1038400058F430918E022191DC01A057BD4FA30F97
:10385000B11D2C930196F3CF80918E02680F609377
:103860008E0280E0089581E0089582E008959093AB
:10387000D3028093D20208959093D5028093D4020C
:103880000895882311F085EC01C085E886BF08956E
:1038900085ED86BF06B604FCFDCF1092D9020895CF
:1038A00085EC86BF1092D90208951F920F920FB631
:1038B0000F9211242F933F934F935F936F937F93B6
:1038C0008F939F93AF93BF93EF93FF9381B1887FC3
:1038D000803609F49BC078F5883209F45DC090F415
:1038E000803109F456C038F4882309F4EEC08830DA
:1038F00009F44FC0EEC0883109F44EC0803209F49B
:103900005EC0E7C0803409F468C058F4803309F41D
:1039100056C0883309F0DDC080936C020E94501CB1
:10392000D8C0803509F44EC0883509F45BC08834AE
:1039300009F0CFC0CCC0883909F4BFC0A8F48837DB
:1039400009F464C038F4883609F460C0803709F49B
:103950005DC0BFC0883809F4B0C0803909F45CC0CC
:10396000803809F0B6C058C0803B09F47FC038F4F5
:10397000803A09F462C0883A09F478C0AAC0803C51
:1039800009F49EC0883C09F49BC0883B09F483C0BD
:10399000A0C08091D80210C09091B1028091B00275
:1039A000981758F5E091B10281E08E0F8093B10233
:1039B000F0E0EE54FD4F808183B985EC7FC08093A9
:1039C0006C0285C0E091B10281E08E0F8093B1025C
:1039D00083B1F0E0EE54FD4F80839091B10280916D
:1039E000B00268C0E091B10281E08E0F8093B10215
:1039F00083B1F0E0EE54FD4F80838091D7028111B6
:103A000066C081E08093D60284EA5BC083E0809345
:103A1000D90210926D02D1CF80916D02803208F0F0
:103A20004CC0E0916D0281E08E0F80936D0283B1F6
:103A3000F0E0E259FD4F8083C0CF0E94501C80917E
:103A40006D02803230F4E0916D02F0E0E259FD4FFA
:103A5000108260916D0270E0E091D202F091D30289
:103A60008EE692E0099510926D0233C084E0809357
:103A7000D90210928F0210928E02E091D402F0913E
:103A8000D502099580918E02811105C081E0809355
:103A90008E0210929002E0918F0281E08E0F80934F
:103AA0008F02F0E0E057FD4F808183B990918F0243
:103AB00080918E02981708F480CF85E886BF09C0F0
:103AC00085EC86BF1092D90204C010926C020E944D
:103AD000481CFF91EF91BF91AF919F918F917F9182
:103AE0006F915F914F913F912F910F900FBE0F906B
:103AF0001F901895462B47B9806C86B9349BFECF32
:103B000084B125B190E0922B08953093DB0220938D
:103B1000DA0267B9886C86B9089516B80895FFCFA0
:103B20008AE790E00C9492081092D7010895EF92E2
:103B3000FF920F931F93CF93DF93E82EF12CEE0C9F
:103B4000FF1CF701EC51FE4F40815181F701E45217
:103B5000FE4F008111814017510709F459C0B80187
:103B6000641B750B2091610030E02617370724F4A1
:103B70008A01020F131F0AC0EE27FF27E21BF30B77
:103B80006E177F071CF48A01021B130BD82FC82F56
:103B9000CC0F8091EC019091ED0117FF10C041E036
:103BA0006C2F0E94F40361E06C0F40E08091EC0107
:103BB0009091ED010E94F403602F61951EC040E0DA
:103BC0006C2F0115110569F00E94F40361E06C0F80
:103BD00041E08091EC019091ED010E94F403602F8F
:103BE0000CC00E94F40361E06C0F40E08091EC0196
:103BF0009091ED010E94F40360E08D2F0E94F30B81
:103C0000F701EC51FE4F1183008381E08093DB01CB
:103C1000DF91CF911F910F91FF90EF900895209128
:103C20006800309169008091640090916500409136
:103C3000660050916700509369004093680040917E
:103C4000620050916300509365004093640030938C
:103C5000670020936600909363008093620008954C
:103C600097FB072E16F4009407D077FD09D00E9429
:103C7000711E07FC05D03EF4909581959F4F0895E5
:103C8000709561957F4F0895A1E21A2EAA1BBB1B68
:103C9000FD010DC0AA1FBB1FEE1FFF1FA217B30718
:103CA000E407F50720F0A21BB30BE40BF50B661F2E
:103CB000771F881F991F1A9469F7609570958095F2
:103CC00090959B01AC01BD01CF0108950E948B1E10
:103CD000A59F900DB49F900DA49F800D911D112460
:103CE0000895AA1BBB1B51E107C0AA1FBB1FA61743
:103CF000B70710F0A61BB70B881F991F5A95A9F795
:103D000080959095BC01CD010895EE0FFF1F0590A1
:103D1000F491E02D0994A29FB001B39FC001A39F2D
:103D2000700D811D1124911DB29F700D811D1124F4
:103D3000911D08950E940B1F08F481E008950E94D0
:103D4000371F88F09F5798F0B92F9927B751B0F0D7
:103D5000E1F0660F771F881F991F1AF0BA95C9F70F
:103D600014C0B13091F00E94511FB1E008950C943D
:103D7000511F672F782F8827B85F39F0B93FCCF3F0
:103D8000869577956795B395D9F73EF4909580958C
:103D9000709561957F4F8F4F9F4F0895E89409C0AC
:103DA00097FB3EF490958095709561957F4F8F4F6E
:103DB0009F4F9923A9F0F92F96E9BB279395F69584
:103DC000879577956795B795F111F8CFFAF4BB0F02
:103DD00011F460FF1BC06F5F7F4F8F4F9F4F16C066
:103DE000882311F096E911C0772321F09EE8872FF0
:103DF000762F05C0662371F096E8862F70E060E0AC
:103E00002AF09A95660F771F881FDAF7880F969524
:103E1000879597F90895990F0008550FAA0BE0E8C8
:103E2000FEEF16161706E807F907C0F0121613067C
:103E3000E407F50798F0621B730B840B950B39F4BC
:103E40000A2661F0232B242B252B21F408950A2622
:103E500009F4A140A6958FEF811D811D089557FD9E
:103E60009058440F551F59F05F3F71F04795880FE8
:103E700097FB991F61F09F3F79F08795089512167F
:103E800013061406551FF2CF4695F1DF08C016162B
:103E900017061806991FF1CF8695710561050894DC
:103EA0000895E894BB2766277727CB0197F90895F3
:103EB0000E940B1F08F48FEF08950E94701F0C944E
:103EC000E11F0E94D31F38F00E94DA1F20F09523D3
:103ED00011F00C94CA1F0C94D01F11240C94521F83
:103EE0000E942F1F70F3959FC1F3950F50E0551F4F
:103EF000629FF001729FBB27F00DB11D639FAA273F
:103F0000F00DB11DAA1F649F6627B00DA11D661F8D
:103F1000829F2227B00DA11D621F739FB00DA11DAE
:103F2000621F839FA00D611D221F749F3327A00D68
:103F3000611D231F849F600D211D822F762F6A2F04
:103F400011249F5750409AF0F1F088234AF0EE0F69
:103F5000FF1FBB1F661F771F881F91505040A9F796
:103F60009E3F510580F00C94CA1F0C94521F5F3F76
:103F7000E4F3983ED4F3869577956795B795F795D2
:103F8000E7959F5FC1F7FE2B880F911D969587954A
:103F900097F9089597F99F6780E870E060E00895C9
:103FA0009FEF80EC089500240A9416161706180651
:103FB0000906089500240A9412161306140605062D
:103FC0000895092E0394000C11F4882352F0BB0FBE
:103FD00040F4BF2B11F460FF04C06F5F7F4F8F4F21
:103FE0009F4F0895EF920F931F93CF93DF93E801B4
:103FF00047FD02C034E001C034E1E42F440FFF0B61
:10400000F7FF03C0F195E195F109E32E022F2E2F62
:10401000AE010E943720CE01DF91CF911F910F9109
:10402000EF900895BB274A3031F4992322F4BDE282
:10403000909581959F4F0C941E20BB27FB0155271F
:10404000AA27880F991FAA1FA41710F0A41B8395F5
:104050005051B9F7A05DAA3308F0A95DA19300976C
:1040600079F7B111B1931192CB010C949D224F922B
:104070005F926F927F929F92AF92BF92CF92DF92A8
:10408000EF92FF920F931F93CF93DF93CDB7DEB7DD
:1040900029970FB6F894DEBF0FBECDBF6A01122F6D
:1040A000B02E2BE3201720F0FF24F394F00E02C073
:1040B000BCE3FB2E0F2D27E0AE014F5F5F4F0E9448
:1040C000C521AC018981982F9970913031F0E1FCC4
:1040D00006C0E0FE06C090E205C09DE203C09BE280
:1040E00001C090E0EE2DE07183FF3CC0911102C051
:1040F00083E001C084E0811718F4212F281B01C040
:1041000020E0E1110BC0F601822F30E2882319F084
:1041100031938150FBCFC20ED11C20E0992329F0AE
:10412000D6019C93F60131966F01C6010396E2FE1B
:104130000AC03EE4D6013C9341E411964C9311979A
:1041400012963C9306C03EE6F601308341E6418379
:104150003283FC01322F40E2332309F442C0419301
:104160003150FACF82FF44C0911102C083E001C0F8
:1041700084E0811718F4212F281B01C020E0E111F1
:104180000BC0F601822F30E2882319F03193815061
:10419000FBCFC20ED11C20E0992329F0D6019C93BD
:1041A000F60131966F01C6010396E2FE0BC039E4B9
:1041B000D6013C933EE411963C93119736E4129657
:1041C0003C9307C039E6F60130833EE6318336E69C
:1041D0003283FC01322F40E2332319F041933150F6
:1041E000FBCFFC01E20FF11D10828EEF9FEFB7C0F5
:1041F000F1E0911101C0F0E06F2F70E01416150688
:1042000024F49A012F5F3F4F02C021E030E0260FD7
:10421000371FBB2029F06B2D70E06F5F7F4F02C00E
:1042200060E070E0260F371F612F70E02617370718
:104230001CF4121B212F01C020E03E2D387159F4CF
:10424000D601322F60E2332319F06D933150FBCF4A
:10425000C20ED11C20E0FF2331F0D6019C93B601A1
:104260006F5F7F4F6B01E1110BC0F601922F30E3BE
:10427000992319F031939150FBCFC20ED11C20E04D
:104280009F2D940F3A81782F7071A72E84FF03C061
:10429000313309F49150191624F4993018F098E04C
:1042A00001C091E0E42F852F57FF02C0E0E080E0DD
:1042B0006E2F782FE0E0F0E0AEE29A2E3A01691A14
:1042C00071082A01461A570A0B2D10E01195019525
:1042D00011096F3F8FEF780729F4D6019C92C60130
:1042E00001966C014617570784F0661677066CF442
:1042F0007F01E40CF51CA1E0B0E0AC0FBD1FEA0E9D
:10430000FB1ED7011196BC9002C090E3B92E6150FC
:1043100071093196C60101967C016017710724F07E
:10432000D601BC926C01D5CF6417750741F43633C2
:1043300020F4353321F4A11002C081E3B82EF60138
:10434000B082F701822F90E2882319F09193815077
:10435000FBCFF701E20FF11D108280E090E029967B
:104360000FB6F894DEBF0FBECDBFDF91CF911F9186
:104370000F91FF90EF90DF90CF90BF90AF909F9004
:104380007F906F905F904F900895283008F027E05D
:104390003327DA01990F311D87FD91600096610581
:1043A000710539F432602E5F3D9330E32A95E1F7D1
:1043B00008959F3F30F080387105610509F03C5F3A
:1043C0003C5F3D93913008F08068911DDF93CF935F
:1043D0001F930F93FF92EF92192F987F9695E92FD5
:1043E00096959695E90FFF27EF59FD4F99273327AB
:1043F000EE24FF24A701E70105900894079428F410
:10440000360FE71EF81E491F511D660F771F881FC4
:10441000991F0694A1F70590079428F4E70EF81E5B
:10442000491F561FC11D770F881F991F661F0694CD
:10443000A1F70590079428F4F80E491F561FC71FCF
:10444000D11D880F991F661F771F0694A1F705904D
:10445000079420F4490F561FC71FD81F990F661FD6
:10446000771F881F0694A9F784911095177041F063
:10447000D695C79557954795F794E7941A95C1F740
:10448000E7E0F2E06894159015913591659195916A
:1044900005907FE27395E118F10A430B560BC90BA7
:1044A000D009C0F7E10CF11E431F561FC91FD01DD4
:1044B0007EF4703311F48A95E6CFE894015030F021
:1044C000080F0AF40027021708F4202F2395022F63
:1044D0007A3328F079E37D932A95E9F710C07D932C
:1044E0002A9589F6069497956795379517951794A9
:1044F000E118F10A430B560BC90BD00998F023952C
:104500007E9173957A3308F070E37C932013B8F7AB
:104510007E9170617D9330F0839571E37D9370E3BC
:104520002A95E1F71124EF90FF900F911F91CF9101
:10453000DF91992787FD90950895DC01FC01672F95
:1045400071917723E1F7329704C07C916D9370836A
:0E4550006291AE17BF07C8F30895F894FFCF2D
:10455E00010AF701F0010502FE01000000005702FA
:0A456E00000000003F030D0A0000EA
:00000001FF
