:100000000C9458010C9480010C9480010C94800194
:100010000C94F70E0C9480010C9480010C947618CB
:100020000C9480010C9480010C94E10C0C948001E0
:100030000C9480010C94240A0C94500A0C948001B6
:100040000C9480010C9480010C9480010C94021596
:100050000C94800105A84CCDB2D44EB93836A90213
:100060000C50B9918688083CA6AAAA2ABE000000B6
:10007000803F0D0A00506978793A20693263206523
:1000800072726F72004552524F523A20000D0A00B0
:1000900053524620693263206572726F7200455276
:1000A000524F523A20000D0A005352462065727298
:1000B0006F72004552524F523A20000D0A00434DD4
:1000C000505330332073657441733132384465675F
:1000D000726565206572726F72004552524F523AD6
:1000E00020000D0A00434D50533033206E6F7420B2
:1000F000696E697469616C697A6564004552524F32
:10010000523A20000D0A00434D505330332065729F
:10011000726F72004552524F523A20000D0A00434E
:100120004D50533033206E6F7420696E697469616D
:100130006C697A6564004552524F523A20000D0AAC
:1001400000434D5053303320636F6E6E65637469A6
:100150006F6E2070726F626C656D004552524F5227
:100160003A20000D0A00476F6C64626F6172643A56
:100170002069326320706F7274657870616E646597
:1001800072206572726F72004552524F523A2000CF
:100190000D0A00476F6C64626F6172643A206932C5
:1001A0006320706F7274657870616E64657220652B
:1001B00072726F72004552524F523A2000656E645F
:1001C00020693263207363616E0D0A0020756E6BC7
:1001D0006F776E0D0A0020506F7274657870616ED3
:1001E0006465720D0A00204C617365720D0A00206F
:1001F000556C747261736368616C6C0D0A002050F9
:100200006978790D0A00204B6F6D706173730D0A68
:100210000020557372696E670D0A0020202000735C
:100220007461727420693263207363616E0D0A0019
:100230000D0A004932432073686F727400455252B0
:100240004F523A20000D0A004932432043617000AA
:100250004552524F523A20000D0A00506F72746599
:100260007870616E64657220636F6E6E6563746929
:100270006F6E206572726F72004552524F523A2073
:10028000000D0A00506F7274657870616E6465725B
:1002900020636F6E6E656374696F6E206572726F36
:1002A00072004552524F523A2000BE09CC181E0A25
:1002B00011241FBECFE5D8E0DEBFCDBF11E0A0E620
:1002C000B0E0EAE2FBE302C005900D92A836B10768
:1002D000D9F724E0A8E6B1E001C01D92A733B20728
:1002E000E1F711E0C7E5D1E004C02197FE010E94CB
:1002F0002019C535D107C9F70E94B9090C94881D8A
:100300000C940000CF93FC01608170E042E050E06B
:100310008BED93E00E94A6178BED93E00E94DC1713
:10032000C82F8BED93E00E94DC1720E030E0382FDF
:10033000C9018C2BCF91089586EB91E00E949A120F
:1003400020E044E060E186E891E00E948E0B86E8C0
:1003500091E00E94E20B68E770E086E891E00E947D
:10036000521082EA91E00E94180C87EA91E00E9404
:10037000180C8CEA91E00E94180C81EB91E00E942D
:10038000180C86E891E00E94610B69E870E086E84D
:1003900091E00E9452108DE991E00E94C9118DE90F
:1003A00091E00E94761186E891E00E94610B66E977
:1003B00070E086E891E00E9452108CE991E00E9482
:1003C0002A1664E68CE991E00E94C71686E891E05F
:1003D0000E94610B61EA70E086E891E00E94521091
:1003E0008BED93E00E94EB1686E891E00C94610B94
:1003F0004F925F926F927F928F929F92AF92BF9235
:10040000CF92DF92EF92FF920F931F93CF93DF93E0
:1004100000D000D0CDB7DEB70EE611E0F801608164
:100420007181605A7109072E000C880B990B0E948C
:10043000D0194B015C01F801628173816659710921
:10044000072E000C880B990B0E94D0196B017C01C0
:10045000609168017091690160587109072E000C64
:10046000880B990B0E94D0192B013C0120E030E051
:1004700040E450E40E949B1A69837A838B839C83B7
:10048000C501B4019058A70196010E942619A30145
:1004900092010E9426190E9498197195619571091F
:1004A00086EB91E00E94850EA7019601C501B4017B
:1004B0000E94261929813A814B815C810E9427196B
:1004C0000E94981989EB91E00E94850EA701960180
:1004D000C501B4010E94271929813A814B815C81B1
:1004E0000E9427190E9498198CEB91E00E94850EBA
:1004F000A5019401C701B6010E942619A30192012A
:100500000E9426190E9498198FEB91E00F900F908E
:100510000F900F90DF91CF911F910F91FF90EF906F
:10052000DF90CF90BF90AF909F908F907F906F9013
:100530005F904F900C94850E80916E0190916F01A9
:10054000803A9105ACF46EEC7FEF86EB91E00E946F
:10055000850E62E370E089EB91E00E94850E62E314
:1005600070E08CEB91E00E94850E62E370E014C0B5
:1005700062E370E086EB91E00E94850E6EEC7FEF07
:1005800089EB91E00E94850E6EEC7FEF8CEB91E0A1
:100590000E94850E6EEC7FEF8FEB91E00C94850E40
:1005A000EF92FF920F931F93CF93DF93C09174014B
:1005B000D0917501E0E0F0E08FEF9FEF60E070E038
:1005C00020E030E001E010E0A0E1EA2EF12CAF01E4
:1005D0004F705527D80102C0AA0FBB1F4A95E2F7FA
:1005E000AD014C235D23452B99F0621773079CF4F2
:1005F000CF010197A90137FF02C04F5F5F4F5595AB
:100600004795841B950BB7010E94D618B90103C00A
:100610002F5F3F4F02C020E030E03196E032F1051D
:10062000B1F6DF91CF911F910F91FF90EF90089558
:100630008F929F92AF92BF92CF92DF92EF92FF92F2
:100640000E94420DC090CA01D090CB01E090CC0135
:10065000F090CD01DC01CB018C199D09AE09BF09D9
:10066000893C9105A105B10530F00E94D00290931C
:10067000C9018093C8010E94420D6093CA01709322
:10068000CB018093CC019093CD016091C801709112
:10069000C901072E000C880B990B0E94D01926E582
:1006A0003EE049EC5EE30E949B1A0E9493196B01A5
:1006B0007C0120E030E048EC52EC0E949B1A0E9442
:1006C000981986EB91E00E94850EC701B6019058FB
:1006D00020E030E048EC52E40E949B1A0E949819F6
:1006E0004B015C0189EB91E00E94850EB4018CEB1B
:1006F00091E00E94850E20E030E048EC52E4C70112
:10070000B6010E949B1A0E9498198FEB91E0FF900E
:10071000EF90DF90CF90BF90AF909F908F900C9410
:10072000850E6BEA70E086E891E00E94521062E16B
:1007300086EB91E00E94FE118111F9CF0895AF92EE
:10074000BF92CF92DF92EF92FF920F931F93CF93BE
:10075000DF937C0189EEC82E83E0D82E0FEF1FEFC8
:10076000570182E0A80EB11CC5010E948201EC0174
:10077000009739F4012B59F58AE090E00E94710D41
:1007800037C08535EAEA9E0739F405351A4AF9F487
:10079000F701148281E02DC08635FAEA9F0739F40B
:1007A00005351A4AA1F481E0F701848322C08A3A10
:1007B000954569F4F701628170E041E050E08BED0E
:1007C00093E00E94A6178BED93E00E94DC17F1E006
:1007D000CF1AD1088E0141F685E890E00E949A0A6E
:1007E00085E790E00E949A0A82E790E00E949A0AC8
:1007F00080E0DF91CF911F910F91FF90EF90DF90FC
:10080000CF90BF90AF9008958F929F92AF92BF927A
:10081000DF92EF92FF920F931F93CF93DF930E948B
:10082000420D0091E0011091E1012091E20130912F
:10083000E301DC01CB01801B910BA20BB30B8234D3
:100840009105A105B10508F451C08091DE01909198
:10085000DF0181309105F1F06CF4892B81F541E0E5
:1008600063E681EB91E00E94C30C90937F0180933B
:100870007E0125C082309105C1F0039701F541E06A
:1008800063E682EA91E00E94C30C90938501809315
:10089000840115C041E063E68CEA91E00E94C30C3C
:1008A00090938101809380010AC041E063E687EA6A
:1008B00091E00E94C30C9093830180938201809108
:1008C000DE019091DF01019664E070E00E94D6188D
:1008D0009093DF018093DE010E94420D6093E0015E
:1008E0007093E1018093E2019093E3010E94420D35
:1008F0000091DA011091DB012091DC013091DD01E2
:10090000DC01CB01801B910BA20BB30B4597A1051A
:10091000B10598F08DE991E00E94211190E090934B
:100920006901809368010E94420D6093DA0170931F
:10093000DB018093DC019093DD010E94420D009168
:10094000D6011091D7012091D8013091D901DC0155
:10095000CB01801B910BA20BB30B4597A105B105F1
:1009600008F4C5C080919601811109C083E991E026
:100970000E949F03811105C080E090E097C0109213
:10098000960110929901109298010CE0DD24D39405
:1009900080919801909199018238910568F785E9D5
:1009A00091E00E948201EC0180919801909199015F
:1009B000C5352AEAD20731F421E02093960110923E
:1009C000970174C0C635EAEADE0731F421E02093CE
:1009D0009601209397016AC0209709F467C020917F
:1009E0009A0130919B0128173907A8F4225E3F4FE6
:1009F00030939B0120939A01029FB001039F700DD9
:100A0000112480919301909194010E947E1C9093F7
:100A10009401809393012091980130919901029F54
:100A2000C001039F900D1124E0909301F090940178
:100A3000E80EF91E4701A12CB12C10E0809197011E
:100A4000811106C0153021F4F701138612860DC0FE
:100A500085E991E00E948201A80EB91EF4018193FC
:100A600091934F011F5F163049F7CA15DB0549F412
:100A700080919801909199010196909399018093AA
:100A8000980185E991E00E9482018535FAEA9F0785
:100A900019F4109297017CCF86359A4A19F4D092B6
:100AA000970176CF8091980190919901909373016D
:100AB000809372011816190684F4E0919301F09165
:100AC00094018281938190936F0180936E01848160
:100AD000958190937101809370010E94420D609303
:100AE000D6017093D7018093D8019093D9010E94C9
:100AF000420D0091D2011091D3012091D401309187
:100B0000D501DC01CB01801B910BA20BB30B03972A
:100B1000A105B10590F08CE991E00E9457169093E1
:100B20007501809374010E94420D6093D20170930D
:100B3000D3018093D4019093D5010E94420D00917E
:100B4000CE011091CF012091D0013091D101DC0173
:100B5000CB01801B910BA20BB30B0397A105B10531
:100B600090F161E086EB91E00E94931290E0909307
:100B700077018093760160E086EB91E00E9493120A
:100B800090E0909379018093780163E086EB91E0A7
:100B90000E94931290E090937B0180937A0162E02F
:100BA00086EB91E00E94931290E090937D018093F8
:100BB0007C010E94420D6093CE017093CF0180931F
:100BC000D0019093D101DF91CF911F910F91FF90B0
:100BD000EF90DF90BF90AF909F908F9008958F928D
:100BE0009F92AF92BF92EF92FF920F931F93CF937A
:100BF000DF930E94420D4B015C01C0E0D0E062E156
:100C000086EB91E00E94FE11882309F4FDC161E1A9
:100C100086EB91E00E94FE11811111C0219664EFD4
:100C200071E080E090E00E944B0D86E891E00E9428
:100C3000610B65EB70E086E891E00E945210C130D4
:100C4000D10509F4F5C0C230D10509F420C12097BF
:100C5000A1F60E9404040E94420DDC01CB01881918
:100C60009909AA09BB09893E9340A105B10538F24B
:100C700086E891E00E94610B40E060E086E891E048
:100C80000E94330B60917E0170917F014AE050E039
:100C900086E891E00E94F91040E064E086E891E087
:100CA0000E94330B60918001709181014AE050E015
:100CB00086E891E00E94F91040E068E086E891E063
:100CC0000E94330B60918201709183014AE050E0F1
:100CD00086E891E00E94F91040E06CE086E891E03F
:100CE0000E94330B60918401709185014AE050E0CD
:100CF00086E891E00E94F91041E060E086E891E02A
:100D00000E94330B60916801709169014AE050E0E4
:100D100086E891E00E94F91041E064E086E891E005
:100D20000E94330B60917201709173014AE050E0B0
:100D300086E891E00E94F910809172019091730110
:100D40001816190604F541E068E086E891E00E9473
:100D5000330B60916E0170916F014AE050E086E8BC
:100D600091E00E94F91041E06CE086E891E00E9479
:100D7000330B60917001709171014AE050E086E898
:100D800091E00E94F91042E060E086E891E00E9464
:100D9000330B609174017091750142E050E086E878
:100DA00091E00E94141143E060E086E891E00E9427
:100DB000330B60917601709177014AE050E086E84C
:100DC00091E00E94F91043E064E086E891E00E941F
:100DD000330B60917801709179014AE050E086E828
:100DE00091E00E94F91043E068E086E891E00E94FB
:100DF000330B60917A0170917B014AE050E086E804
:100E000091E00E94F91043E06CE086E891E00E94D6
:100E1000330B60917C0170917D014AE050E086E8DF
:100E200091E00E94F9100E94420D4B015C01E7CE57
:100E300086E891E00E94610BE12CF12C00E010E0CB
:100E4000A8015595479555954795B7016F70772738
:100E500086E891E00E94330B602F8CE991E00E94BC
:100E600094164AE050E0682F86E891E00E940D1148
:100E70000F5F1F4F84E0E80EF11C0031110501F7F0
:100E800068EE73E080E090E00E944B0DB8CE86E8FB
:100E900091E00E94610B6FEB70E086E891E00E94A8
:100EA00052106CE97FEF86EB91E00E94850E64EFB3
:100EB00071E080E090E00E944B0D64E670E086EB0C
:100EC00091E00E94850E64EF71E080E090E00E9466
:100ED0004B0D60E070E086EB91E00E94850E68EEBD
:100EE00073E080E090E00E944B0D64E670E089EBD7
:100EF00091E00E94850E64EF71E080E090E00E9436
:100F00004B0D6CE97FEF89EB91E00E94850E64EF59
:100F100071E080E090E00E944B0D60E070E089EBB2
:100F200091E00E94850E68EE73E080E090E00E9400
:100F30004B0D64E670E08CEB91E00E94850E64EF4F
:100F400071E080E090E00E944B0D6CE97FEF8CEB4C
:100F500091E00E94850E64EF71E080E090E00E94D5
:100F60004B0D60E070E08CEB91E00E94850E68EE26
:100F700073E080E090E00E944B0D64E670E08FEB40
:100F800091E00E94850E64EF71E080E090E00E94A5
:100F90004B0D6CE97FEF8FEB91E00E94850E64EFC3
:100FA00071E080E090E00E944B0D60E070E08FEB1C
:100FB00091E00E94850E68EE73E080E090E00E9470
:100FC0004B0D6EEC7FEF86EB91E00E94850E62E3A5
:100FD00070E089EB91E00E94850E62E370E08CEB9B
:100FE00091E00E94850E62E370E08FEB91E00E9439
:100FF000850E68EE73E080E090E00E944B0D86EB7A
:1010000091E00E94E711F9CDDF91CF911F910F91EF
:10101000FF90EF90BF90AF909F908F900895CF92E8
:10102000DF92EF92FF920F931F93CF93DF9386E8A7
:1010300091E00E94610B6AEC70E086E891E00E940A
:1010400052100E94420D6B017C01C0E0D0E004EF21
:1010500011E062E186EB91E00E94FE11882309F421
:1010600058C02097A1F486E891E00E94610B62EDE0
:1010700070E086E891E00E9452100E94420D6C19C7
:101080007D094AE050E086E891E00E94F9100E9454
:10109000420D6B017C01209731F441E060E086E86D
:1010A00091E00E94330B0E9404048091740190919E
:1010B0007501892B59F0209731F46DED70E086E8C9
:1010C00091E00E9452100E9418031CC0809172018E
:1010D00090917301181619065CF4209731F463EEB1
:1010E00070E086E891E00E9452100E94F8010AC068
:1010F000209731F468EE70E086E891E00E9452108B
:101100000E949C02CE010196B8010E94D618EC0103
:10111000A0CF86EB91E0DF91CF911F910F91FF90CF
:10112000EF90DF90CF900C94E711CF93DF936FEEA9
:1011300070E086E891E00E945210C1E0D0E062E1E8
:1011400086EB91E00E94FE11882309F470C086E8C6
:1011500091E00E94610B61E186EB91E00E94FE113B
:10116000811121C086EB91E00E94E711219665EB89
:1011700070E086E891E00E94521068EE73E080E033
:1011800090E00E944B0D86E891E00E94610B61E0C7
:1011900071E086E891E00E94521060ED77E080E017
:1011A00090E00E944B0DC130D105B1F0C230D105A5
:1011B00029F12097C9F568EE70E086E891E00E9479
:1011C00052100E9404048091720190917301892B46
:1011D00031F50E949C02B3CF63E171E086E891E0B3
:1011E0000E9452100E940404809172019091730138
:1011F00018161906A4F40E94F801A1CF6DED70E055
:1012000086E891E00E9452100E94040480917401CB
:1012100090917501892B19F00E94180390CF86EBED
:1012200091E00E94E7118BCFC0E0D0E088CF86EB41
:1012300091E0DF91CF910C94E711CF93DF9386E893
:1012400091E00E94610B86EB91E00E94E7116AE158
:1012500071E086E891E00E94521041E060E086E88B
:1012600091E00E94330B60E271E086E891E00E9419
:10127000521042E060E086E891E00E94330B6DE29C
:1012800071E086E891E00E94521043E060E086E859
:1012900091E00E94330B64E371E086E891E00E94E4
:1012A0005210C0E0D0E04C2F6FE086E891E00E9441
:1012B000330B62E186EB91E00E94FE11811102C0C6
:1012C000219611C061E186EB91E00E94FE1181112F
:1012D00002C0239608C063E186EB91E00E94FE11F4
:1012E0008111E1CF24C068EC70E080E090E00E94C2
:1012F0004B0D62E186EB91E00E94FE118823C9F359
:1013000063E186EB91E00E94FE11882391F361E195
:1013100086EB91E00E94FE11882359F3C370DD270C
:1013200068EC70E080E090E00E944B0DBCCF86E856
:1013300091E00E94610BC130D10571F02CF4CD2BEE
:1013400081F40E940F080DC0C230D10541F02397EF
:1013500041F40E94950805C00E94EF0502C00E945A
:10136000910364EF71E080E090E0DF91CF910C9405
:101370004B0D0E949C010E941D09FDCF0F931F93EE
:10138000CF93DF9386EB91E00E941F1320E030E0C3
:1013900040E050E060E770E082EA91E00E940F0CCC
:1013A000C2EAD1E007E411E01983088320E030E0CD
:1013B00040E050E062E770E087EA91E00E940F0CA5
:1013C0001E830D8320E030E040E050E06AE770E0EB
:1013D0008CEA91E00E940F0C1B870A8720E030E026
:1013E00040E050E06EE770E081EB91E00E940F0C6E
:1013F000188B0F878DE991E00E941A118CE991E01A
:101400000E942716C3E9D1E01B821E821D828EE155
:1014100090E098878F8388E691E00E94511B998322
:10142000888384E58A8324E040E16FE386E891E0E5
:10143000DF91CF911F910F910C94C00A809193017D
:10144000909194010C94E61B1F920F920FB60F928D
:1014500011242F938F939F93EF93FF938BB19CB1A4
:101460008871E091E601EF5FEF712091E501E217ED
:1014700039F0E093E601F0E0E751FE4F908301C0C0
:1014800082E09091E401892B8093E401FF91EF9138
:101490009F918F912F910F900FBE0F901F901895D5
:1014A0001F920F920FB60F9211248F939F93EF9379
:1014B000FF939091E8018091E701981761F0E09126
:1014C000E701EF5FEF71E093E701F0E0E75FFD4FC9
:1014D00080818CB901C05598FF91EF919F918F91B8
:1014E0000F900FBE0F901F9018951092E801109268
:1014F000E7011092E6011092E50197FF03C022E098
:101500002BB99F7790BD89B988E98AB986E880BDF3
:1015100008959091E8019F5F9F712091E7019217D4
:10152000E1F3E92FF0E0E75FFD4F80839093E8015E
:10153000559A0895CF93DF93FC018491EF01219692
:10154000882321F00E94890AFE01F7CFDF91CF9115
:10155000089580E090E00895089560E080FB62F9CE
:1015600081FB61F982FB60F984FB67F985FB66F911
:1015700086FB65F987FB64F98BED93E00C941717F4
:10158000FC01138212828DE491E0918380831186A5
:10159000648342872387148608951F93CF93DF9334
:1015A000EC01162F6C818BED93E00E94F5168C8573
:1015B000812B0E94AD0A8BED93E0DF91CF911F91BB
:1015C0000C9414170F931F93CF938C01C62F646054
:1015D0000E94CD0A81E090E00E94710D6C2F6B7F1C
:1015E000C8010E94CD0A82E390E0CF911F910F9134
:1015F0000C94710D1F93CF93DF93EC01162F0E9473
:10160000CD0A612FCE01DF91CF911F910C94E20A98
:10161000FF920F931F93CF93DF931F92CDB7DEB747
:101620008C01F62E962F907F692F642BC801498379
:101630000E94FA0A80E1F89EB00111244981642BCE
:10164000C8010F90DF91CF911F910F91FF900C94E3
:10165000FA0A40E00C94080B62E00E94290B80ED2E
:1016600097E00C94710DCF93DF93CDB7DEB7289739
:101670000FB6F894DEBF0FBECDBF9C0188E0E0E757
:10168000F0E0DE01119601900D928A95E1F7F901E3
:101690008085841710F44FEF480FFE013196E40F58
:1016A000F11DE40FF11D9081690F6068C901289652
:1016B0000FB6F894DEBF0FBECDBFDF91CF910C9473
:1016C000290BCF93DF93EC0161E00E94290B88E89E
:1016D00093E10E94710D8985882339F040E060E034
:1016E000CE01DF91CF910C94330BDF91CF91089510
:1016F000FC016681262F246026836C600C94290BE4
:10170000FC016681262F2160268369600C94290BD9
:1017100041E00E94080B81E090E00895CF93DF93B1
:10172000EC01423018F08D8188608D834887222338
:1017300029F0413019F48D8184608D8362E370E07B
:1017400080E090E00E944B0D6C85CE010E94CD0A96
:1017500068EE73E080E090E00E944B0D60E3CE0104
:101760000E94FA0A84E991E10E94710D60E3CE01C2
:101770000E94FA0A84E991E10E94710D60E3CE01B2
:101780000E94FA0A86E990E00E94710D60E2CE01A3
:101790000E94FA0A6D816062CE010E94290B84E0EA
:1017A0008E83CE010E94780BCE010E94610B82E0F5
:1017B0008F8366E0CE010E94290BCE01DF91CF918D
:1017C0000C942C0B0C94800B0F931F93CF938C01D4
:1017D000CBE06AE070E080E090E00E944B0DF80101
:1017E00062818BED93E00E94F5168BED93E00E94F1
:1017F0001417C15071F48EE990E00E949A0A80E9B2
:1018000090E00E949A0A8DE890E00E949A0A81E096
:1018100002C08111DECFCF911F910F910895FC017D
:1018200089E591E0918380836283438324830895D3
:101830008BED93E00C94EB16EF92FF920F931F93B6
:10184000CF93DF931F92CDB7DEB77C018B01FC01F4
:1018500062818BED93E049830E94F5164981642FE4
:101860008BED93E00E94171701151105B1F0602F61
:101870008BED93E00E941717F7016381662369F0EF
:101880008481882351F08BED93E00E941717F701B4
:1018900064818BED93E00E9417178BED93E00E941B
:1018A0001417882399F083EB90E00E949A0A89EA42
:1018B00090E00E949A0A86EA90E00F90DF91CF9123
:1018C0001F910F91FF90EF900C949A0A0F90DF9167
:1018D000CF911F910F91FF90EF900895693649F0D5
:1018E0006D3661F0633651F440E050E061E570E040
:1018F00009C040E050E060E570E004C040E050E026
:1019000062E570E00C941C0CEF92FF920F931F9312
:10191000CF93DF938C01EA01AB0160E070E00E949D
:101920001C0C4C2FF80162818BED93E00E94A317F1
:101930008BED93E00E94D4178C179D07CCF38E019A
:101940000150104E83E0000F111F8A95E1F7E12C42
:10195000F12C209781F08BED93E00E94DC17002E94
:1019600002C0880F991F0A94E2F7E80EF91E21972A
:1019700008501109EECFC701DF91CF911F910F9150
:10198000FF90EF900895CF93DF93EC01411109C0D0
:1019900042E050E062E070E0CE01DF91CF910C9424
:1019A000840C0E946E0CE881F9810190F081E02D99
:1019B000CE010995882361F380E090E0DF91CF911B
:1019C00008951F920F920FB60F9211242F933F93F9
:1019D0004F935F936F937F938F939F93AF93BF9337
:1019E000EF93FF938091290290912A02A0912B02FC
:1019F000B0912C020196A11DB11D809329029093F4
:101A00002A02A0932B02B0932C0280912E028A30DE
:101A100079F480912D02811109C081E080932D021B
:101A200078940E94490EF89410922D0210922E0282
:101A300080912E028F5F80932E020E947B0DFF917A
:101A4000EF91BF91AF919F918F917F916F915F9136
:101A50004F913F912F910F900FBE0F901F901895AF
:101A600083B78B6083BF89B7826089BF8AEF8CBFE1
:101A70001092290210922A0210922B0210922C022C
:101A8000789408956091290270912A0280912B0226
:101A900090912C020895CF92DF92EF92FF920F93D4
:101AA0001F930091290210912A0220912B0230915C
:101AB0002C02C0902902D0902A02E0902B02F090D4
:101AC0002C02C01AD10AE20AF30AC616D706E806A3
:101AD000F90678F31F910F91FF90EF90DF90CF9070
:101AE0000895019739F0880F991F880F991F029761
:101AF0000197F1F70895789480B393B392959F700E
:101B0000807F892B90912E03E92FF0E0E15DFD4F5E
:101B100080839F5F90932E03F894089581B38F7014
:101B200081BB84B38F7084BB82B3806F82BB85B36B
:101B3000806F85BB80E090E0FC01E15DFD4F10828D
:101B400001968F3F9105C1F70895843018F493E012
:101B5000981B892F61E070E002C0660F771F8A959D
:101B6000E2F740E050E080E0FA01E15DFD4F2081C6
:101B700030E026233723232B09F48F5F4F5F5F4F1D
:101B80004F3F510589F7089520916000222341F0CD
:101B900090934103809340030E94DA0F10926000FB
:101BA0000895EF92FF920F931F93CF93DF93E82E48
:101BB000F12CEE0CFF1CF701E85CFC4F40815181D9
:101BC000F701E05DFC4F008111814017510709F4D6
:101BD00059C0B801641B750B2091610030E02617D5
:101BE000370724F48A01020F131F0AC0EE27FF27CC
:101BF000E21BF30B6E177F071CF48A01021B130B09
:101C0000D82FC82FCC0F809140039091410317FF2C
:101C100010C041E06C2F0E94001861E06C0F40E0A2
:101C200080914003909141030E940018602F6195BC
:101C30001EC040E06C2F0115110569F00E940018CC
:101C400061E06C0F41E080914003909141030E945C
:101C50000018602F0CC00E94001861E06C0F40E07B
:101C600080914003909141030E94001860E08D2F05
:101C70000E94A40EF701E85CFC4F1183008381E011
:101C800080932F03DF91CF911F910F91FF90EF90E1
:101C9000089580E00E94D10D81E00E94D10D82E084
:101CA0000E94D10D83E00E94D10D80912F038823E3
:101CB00051F00E94081080914003909141030E94CE
:101CC000471810922F030895FC011082128211828E
:101CD0000895EF92FF920F931F93CF93DF931F927C
:101CE000CDB7DEB77C018A01CA0169830E94C40DA9
:101CF000F70112830183698160830F90DF91CF9197
:101D00001F910F91FF90EF900895FC0165367105CA
:101D100014F064E670E06C398FEF780714F46CE926
:101D20007FEF2FEF269FC001279F900D112464E6BF
:101D300070E00E94D618E081F0E0EE0FFF1FE05D3A
:101D4000FC4F718360830895863028F4E82FF0E01B
:101D5000EA59FC4F60830895CF93DF9325E030E08C
:101D600040E0842F90E082179307D4F4BC01605ABE
:101D70007C4FDB015C91FC01EF59FC4F8081C52F4A
:101D8000D0E0CA59DC4FA82FB0E0AA59BC4FC88197
:101D90009C919C1718F4DB018C9350834F5FE1CF2B
:101DA00021503109E9F6DF91CF9108952091680023
:101DB00030916900809164009091650040916600C7
:101DC0005091670050936900409368004091620011
:101DD0005091630050936500409364003093670016
:101DE00020936600909363008093620008951F9291
:101DF0000F920FB60F9211242F933F934F935F933F
:101E00006F937F938F939F93AF93BF93EF93FF93C2
:101E100080916C03811122C080914303882351F08B
:101E20000E94D60E1092430388B3807F88BB82B392
:101E3000837F82BB80916C03E0916400F091650028
:101E4000E80FF11D808198B3282F2F70922B98BB3B
:101E500092B3869586958C70892B13C0E0916400AF
:101E6000F0916500E80FF11D808128B3982F9F70D5
:101E70009095922398BB92B3869586958C708095A9
:101E8000892382BB80916C03E0916800F091690026
:101E9000E80FF11D808183BD80916C038F5F80937B
:101EA0006C03E0916800F0916900E80FF11D9081EA
:101EB000992311F0873011F410926C03FF91EF9188
:101EC000BF91AF919F918F917F916F915F914F9152
:101ED0003F912F910F900FBE0F901F9018958091FA
:101EE00043038111FCCF81E08093430308950F9356
:101EF0001F93CF93DF93E0916200F0916300108213
:101F0000A0E6B3E050E040E061E070E016E01A0FB8
:101F10009D91E92FF0E0EA59FC4F80818B3078F1F8
:101F2000E0916200F0916300EB0101C0CC0F9A9543
:101F3000EAF790819C2B908390E0841B9109E091BB
:101F40006200F0916300252F30E08530910534F474
:101F5000E20FF31F8081C82BC08311C08A30910526
:101F600014F48AE090E0E20FF31FC183E091660071
:101F7000F0916700E20FF31F8083480F5F5F1A1331
:101F8000C7CF852F90E0E0916600F0916700E80FE1
:101F9000F91F40954083563040F4209166003091FF
:101FA0006700F901E80FF91F1182DF91CF911F91AE
:101FB0000F910895CF9380914203811127C0F89427
:101FC00010926003C1E0C093610382E080936203DA
:101FD00083E08093630384E08093640385E08093CF
:101FE00065030E94770F0E94D60E87B38F6087BB70
:101FF00081B38C6081BB85B58B6085BD89B78068F6
:1020000089BF8FEF83BD7894C0934203CF91089529
:10201000809143038111FCCF0E94AC0E0E94770F88
:102020000C946F0FCF92DF92EF92FF920F931F935A
:10203000CF93DF936C017A018B01C0E0D0E0CE1525
:10204000DF0589F0D8016D918D01D601ED91FC91EC
:102050000190F081E02DC6010995892B11F47E01D4
:1020600002C02196ECCFC701DF91CF911F910F9154
:10207000FF90EF90DF90CF9008956115710579F092
:10208000FB0101900020E9F73197AF01461B570B88
:10209000DC01ED91FC910280F381E02D099480E058
:1020A00090E008950C943D10DC01ED91FC910190BD
:1020B000F081E02D09948F929F92AF92BF92CF92C0
:1020C000DF92EF92FF920F931F93CF93DF93CDB7E1
:1020D000DEB7A1970FB6F894DEBF0FBECDBF7C016F
:1020E000D42EC52EDB0119A2223008F42AE08E017D
:1020F0000F5D1F4F822E912CA12CB12C6D2D7C2DAC
:10210000CD01A50194010E94EA18D22EC32EDA0156
:10211000015011096A3071058105910510F4605D67
:1021200001C0695CF8016083232B242B252B31F738
:10213000B801C7010E943D10A1960FB6F894DEBF0A
:102140000FBECDBFDF91CF911F910F91FF90EF9008
:10215000DF90CF90BF90AF909F908F900895CF92D7
:10216000DF92EF92FF920F931F93CF93DF93EC01D7
:102170006A017B012115310579F4E881F98101902B
:10218000F081E02D642FDF91CF911F910F91FF908F
:10219000EF90DF90CF9009942A303105E9F477FF72
:1021A0001AC06DE20E9454108C0144275527BA01D1
:1021B0004C195D096E097F092AE0CE010E945B106F
:1021C000800F911FDF91CF911F910F91FF90EF90A2
:1021D000DF90CF9008952AE0B701A601CE01DF91EC
:1021E000CF911F910F91FF90EF90DF90CF900C94C3
:1021F0005B109A01AB01770F660B770B0C94AF1055
:102200002115310541F4DC01ED91FC910190F08143
:10221000E02D642F09940C945B109A01462F50E036
:1022200060E070E00C9400119A01AB0160E070E096
:102230000C940011FC01148210821282118213820C
:1022400008950F931F93CF938C01FC01848181111A
:102250000BC086E391E00E949A0A8FE191E00E9410
:102260009A0A8CE191E01CC060E670E08BED93E08F
:102270000E94FF1661E08BED93E00E9417178BED33
:1022800093E00E941417C82F882371F084E191E035
:102290000E949A0A87E091E00E949A0A84E091E005
:1022A0000E949A0AC0E01DC041E050E060E670E084
:1022B0008BED93E00E94A6178BED93E00E94D4175C
:1022C00018161906CCF78BED93E00E94DC17F80185
:1022D00080839381992321F09181890F8F3F09F0A9
:1022E000C82F8C2FCF911F910F9108951F93CF93DB
:1022F000DF93EC018C8181110BC08CEF90E00E9488
:102300009A0A85EE90E00E949A0A82EE90E021C03F
:102310001A8219821B821BE029813A81211531051D
:10232000E9F4CE010E94211190E09A8389836AE04A
:1023300070E080E090E00E944B0D115069F78AED4B
:1023400090E00E949A0A8EEB90E00E949A0A8BEB32
:1023500090E0DF91CF911F910C949A0A80E890E071
:10236000821B930B9A83898381E08B83DF91CF91CA
:102370001F91089560E670E08BED93E00E94FF16D8
:102380008BED93E00E94141791E0811190E0892F6A
:102390000895CF93DF93EC010E94BA1181110EC012
:1023A0008BE591E00E949A0A81E491E00E949A0AEA
:1023B0008EE391E0DF91CF910C949A0A18821A82F1
:1023C000198281E08C831B82DF91CF9108950F9356
:1023D0001F93CF93DF938C01C0E0D0E060E070E00A
:1023E000C8018C0F9D1F0E94850E2396CC30D1050D
:1023F000A9F7DF91CF911F910F910895CF9364308A
:10240000E8F427B370E06C5F7F4F81E090E0062E28
:1024100001C0880F0A94EAF7382F3095232327BB91
:1024200098B3892B88BB86B390E002C095958795B9
:102430006A95E2F798B3932398BB70C06C3068F448
:10244000C62F0C960E941C1890E06CEF6C0F02C017
:10245000959587956A95E2F761C0643108F042C0AE
:1024600084EF860F843000F544B32FE0261B30E064
:102470002C5F3F4F81E090E0022E01C0880F0A944C
:10248000EAF7582F5095352F342334BB95B3892B59
:1024900085BB83B390E002C0959587952A95E2F7B6
:1024A00095B3952395BB3AC021B3605170E06C5F42
:1024B0007F4F81E090E0062E01C0880F0A94EAF772
:1024C000382F3095232321BB92B3892B82BB80B355
:1024D00090E002C0959587956A95E2F792B39323B1
:1024E00092BB1CC06C31E0F42AB3645181E090E0EF
:1024F000062E01C0880F0A94EAF7382F309523235F
:102500002ABB9BB3892B8BBB89B390E002C0959506
:1025100087956A95E2F79BB393239BBB817001C0BB
:1025200080E0CF910895862F683010F40C94A50DAB
:1025300080E008951F93CF93DF938FE192E00E9494
:102540009A0AC1E0D0E01C2F6C2F8BED93E00E9423
:10255000F5168BED93E00E941417811131C08BE1C9
:1025600092E00E949A0A4AE050E0BE018EE294E0B6
:102570000E94F910C433D10519F481E192E01EC024
:10258000C03619F486E092E019C0C43519F48EEF14
:1025900091E014C080E98C0F803118F48FEE91E047
:1025A0000DC0C93219F486EE91E008C018531C32F0
:1025B00018F486ED91E002C08CEC91E00E949A0A3A
:1025C0002196CF37D10509F0BECF8DEB91E0DF9199
:1025D000CF911F910C949A0A68E370E08BED93E021
:1025E0000E94FF168BED93E00E941417882359F088
:1025F00085EB91E00E949A0A83E991E00E949A0A91
:1026000080E991E016C06FE370E08BED93E00E94EB
:10261000FF168BED93E00E941417882371F088E871
:1026200091E00E949A0A86E691E00E949A0A83E667
:1026300091E00E949A0A80E0089581E00895CF9287
:10264000DF92EF92FF920F931F93CF93DF93EC01F2
:102650008C017C018CE0E80EF11CC8010E94640E24
:102660000D5F1F4F0E151F05C1F7C7010E94F71719
:102670006E018FE0C80ED11CC6010E94F71788E0DA
:1026800090E00E94750A84B38C6084BB85B38C6033
:1026900085BB8AB3807F8ABB8AB38F708ABB87B3BE
:1026A0008F7087BB8BED93E00E94F317882319F19D
:1026B0008BED93E00E94F5178BED93E00E94F317EA
:1026C000823058F080E592E00E949A0A88E492E015
:1026D0000E949A0A85E492E00CC0813061F48DE397
:1026E00092E00E949A0A83E392E00E949A0A80E3B1
:1026F00092E00E949A0A8BED93E00E94EB160E94F2
:10270000DA0F0E948E0D6FE3C7010E94FD1768E388
:10271000C6010E94FD177E0110E0A601612FC701CE
:102720000E94690E1F5F83E0E80EF11C1430A9F7C8
:102730000E94300DCE01DF91CF911F910F91FF903C
:10274000EF90DF90CF900C94EC121092DA0381E0BE
:102750008093D8031092D703A89AA99A0898099849
:1027600088E480B985E486BF089586B78A7B86BFF2
:10277000A898A9980895413208F040C09091DA03D2
:102780009111FCCF91E09093DA032093D8032FEFBF
:1027900020936D031092B203240F2093B103909302
:1027A000D9039091D903880F892B8093D903809105
:1027B000D703813051F41092D7038091D90383B9A4
:1027C00006B603FCFACF85EC01C085EE86BF80918A
:1027D000DA038130E1F38091B203841710F4409161
:1027E000B20323EB33E0FB01D9018A2F821B84174C
:1027F00018F48D918193F9CF842F089580E0089586
:102800000F934132D0F59091DA039111FCCF32E071
:102810003093DA030093D8033FEF30936D031092A7
:10282000B2034093B103FB0163EB73E0DB013A2F8A
:10283000361B341718F431913D93F9CF1092D90318
:102840003091D903880F832B8093D9038091D703CC
:10285000813051F41092D7038091D90383B906B621
:1028600003FCFACF85EC01C085EE86BF222339F048
:102870008091DA03823019F4F9CF91E011C0809190
:102880006D038F3F69F080916D03803231F080914C
:102890006D03803321F094E003C092E001C093E027
:1028A000892F0F91089540918F03262F30E0240F38
:1028B000311D21323105DCF42091DA032430C9F4D2
:1028C000FC0180E090E0861758F430918F0321914D
:1028D000DC01AF56BC4FA30FB11D2C930196F3CF73
:1028E00080918F03680F60938F0380E0089581E0EB
:1028F000089582E0089585ED86BF06B604FCFDCFFD
:102900001092DA03089585EC86BF1092DA030895D9
:10291000CF93DF931F92CDB7DEB70E94B51384B378
:102920008C7F84BB85B3836085BB989902C081E0AE
:1029300045C0999BFCCFA898A09A80E0989B04C0C2
:102940008A3FA9F38F5FFACF8A3F89F38B3060F417
:10295000A19AA99890E023B3822F827021FF06C02C
:102960009A3F29F39F5FF7CF84E028C09A3FF9F29E
:102970009B3048F4A198A99A90E0999906C09A3F93
:10298000B1F29F5FFACF82E019C09A3F81F29B308B
:1029900048F4A098A89A90E0989906C09A3F39F216
:1029A0009F5FFACF83E00AC09A3F09F29B3028F478
:1029B00089830E94A513898101C085E00F90DF9172
:1029C000CF910895CF93A198A99AC0E0A898A09A12
:1029D00084E690E00E94710DA098A89A84E690E0A9
:1029E0000E94710D999B0AC0C93040F086B78B7E5A
:1029F00086BF86B7846086BFCF910895CF5FC43607
:102A000029F7F4CF1F920F920FB60F9211242F9334
:102A10003F934F935F936F937F938F939F93AF9366
:102A2000BF93EF93FF9381B1887F803609F49BC0F9
:102A300078F5883209F45DC090F4803109F456C00D
:102A400038F4882309F4EEC0883009F44FC0EEC092
:102A5000883109F44EC0803209F45EC0E7C080348A
:102A600009F468C058F4803309F456C0883309F07B
:102A7000DDC080936D030E948314D8C0803509F4B3
:102A80004EC0883509F45BC0883409F0CFC0CCC093
:102A9000883909F4BFC0A8F4883709F464C038F451
:102AA000883609F460C0803709F45DC0BFC088383B
:102AB00009F4B0C0803909F45CC0803809F0B6C0B0
:102AC00058C0803B09F47FC038F4803A09F462C0F2
:102AD000883A09F478C0AAC0803C09F49EC0883CBA
:102AE00009F49BC0883B09F483C0A0C08091D9033E
:102AF00010C09091B2038091B103981758F5E091FE
:102B0000B20381E08E0F8093B203F0E0ED54FC4FEE
:102B1000808183B985EC7FC080936D0385C0E0918F
:102B2000B20381E08E0F8093B20383B1F0E0ED54E5
:102B3000FC4F80839091B2038091B10368C0E09113
:102B4000B20381E08E0F8093B20383B1F0E0ED54C5
:102B5000FC4F80838091D803811166C081E080930F
:102B6000D70384EA5BC083E08093DA0310926E039C
:102B7000D1CF80916E03803208F04CC0E0916E039B
:102B800081E08E0F80936E0383B1F0E0E159FC4F3A
:102B90008083C0CF0E94831480916E03803230F412
:102BA000E0916E03F0E0E159FC4F108260916E03FA
:102BB00070E0E091D303F091D4038FE693E00995A0
:102BC00010926E0333C084E08093DA031092900376
:102BD00010928F03E091D503F091D603099580916F
:102BE0008F03811105C081E080938F0310929103C0
:102BF000E091900381E08E0F80939003F0E0EF5618
:102C0000FC4F808183B99091900380918F03981736
:102C100008F480CF85E886BF09C085EC86BF109296
:102C2000DA0304C010926D030E947B14FF91EF91B0
:102C3000BF91AF919F918F917F916F915F914F91D4
:102C40003F912F910F900FBE0F901F901895FC0190
:102C5000108208950F931F93CF93DF9300D0CDB7C9
:102C6000DEB78C0119821A8269E670E08BED93E081
:102C70000E94FF1642E050E0BE016F5F7F4F8BED78
:102C800093E00E94A9178BED93E00E94141760ED6A
:102C900077E080E090E00E944B0D81E0F8018083B6
:102CA0000F900F90DF91CF911F910F9108950F9387
:102CB0001F93CF93DF931F92CDB7DEB7FC018081C6
:102CC000882351F169E670E08BED93E00E94FF16D6
:102CD000198241E050E0BE016F5F7F4F8BED93E0C2
:102CE0000E94A91742E069E68BED93E00E94A317CA
:102CF0008BED93E00E94DC178C018BED93E00E943A
:102D0000DC1720E030E0382F020F131F8BED93E02B
:102D10000E941417C80102C080E090E00F90DF917C
:102D2000CF911F910F9108951F93CF93DF931F921F
:102D3000CDB7DEB7FC018081882319F1162F69E633
:102D400070E08BED93E00E94FF161E5F198341E057
:102D500050E0BE016F5F7F4F8BED93E00E94A9179B
:102D600041E069E68BED93E00E94A3178BED93E0C1
:102D70000E94DC17182F8BED93E00E941417812F0F
:102D800001C080E00F90DF91CF911F910895CF9304
:102D9000DF9300D0CDB7DEB7FC0180818823B1F08E
:102DA00081E089836A8369E670E08BED93E00E949D
:102DB000FF1642E050E0BE016F5F7F4F8BED93E066
:102DC0000E94A9178BED93E00E9414170F900F90AB
:102DD000DF91CF910895109205041092040410928F
:102DE000E2031092E1030C94A51381E08093E003C9
:102DF000609303041092E2031092E10308950C948F
:102E0000F5160F93062F21E04091E10363EE73E086
:102E1000809103040E9400141092E2031092E103D7
:102E20001092E0030F91089561E00C940117CF9385
:102E3000DF931F92CDB7DEB769838091E0038823CB
:102E400089F08091E1038032A8F48091E203E82FB9
:102E5000F0E0ED51FC4F60838F5F8093E20380933D
:102E6000E10305C061E0CE0101960E94531481E0A8
:102E700090E002C080E090E00F90DF91CF91089544
:102E80004F925F926F927F92AF92BF92CF92EF92EA
:102E9000FF920F931F93CF93DF935C01F62ED42FF5
:102EA00028013901E1100FC04D2FD13208F040E266
:102EB0002C2D66E074E08F2D0E94BB131092050448
:102EC0008093040422C00E94F516CE2DC43008F071
:102ED000C3E0C15098F028E0C29FC0011124A301B3
:102EE000920104C056954795379527958A95D2F754
:102EF000CA01B901C5010E941717EBCF60E0C501F7
:102F00000E940117882381F280E0DF91CF911F9109
:102F10000F91FF90EF90CF90BF90AF907F906F9008
:102F20005F904F900895CF92EF920F931F93C22E10
:102F3000E12C00E010E098010E9440171F910F91D2
:102F4000EF90CF90089521E00C94931721E00C941A
:102F50009317CF92DF92EF92FF920F931F93CF932D
:102F6000DF936C01262F972F8A018091E00388233D
:102F700069F0C62FD72F7E01E40EF51ECE15DF05B2
:102F800049F06991C6010E941717F8CF642F822F6C
:102F90000E945314C801DF91CF911F910F91FF90B0
:102FA000EF90DF90CF9008958091040490E02091FD
:102FB0000504821B910908959091050480910404F1
:102FC000981750F4E92FF0E0EA5FFB4F208130E0E2
:102FD0009F5F9093050402C02FEF3FEFC901089552
:102FE0008091E00308950C9488140C94E214FC0181
:102FF000108281E0818312820895FC01628308952A
:10300000FC015081442349F081E090E001C0880F29
:103010006A95EAF7852B808309C021E030E001C082
:10302000220F6A95EAF7209525232083808158177F
:1030300011F081E081830895CF93DF93EC016A81E1
:103040008BED93E00E94F51641E06A818BED93E0F1
:103050000E94A3178BED93E00E94DC1788838BED11
:1030600093E00E941417882371F082EA92E00E9494
:103070009A0A84E892E00E949A0A81E892E00E940B
:103080009A0A80E001C08881DF91CF910895CF93A3
:10309000DF93FC012181222331F1EC018BED93E0E0
:1030A0000E94F01781111FC06A818BED93E00E948E
:1030B000F51641E050E0BE018BED93E00E94A917A8
:1030C0008BED93E00E941417882361F089E792E06A
:1030D0000E949A0A8BE592E00E949A0A88E592E0A3
:1030E0000E949A0A1982DF91CF9108951F920F9240
:1030F0000FB60F9211242F933F934F938F939F936B
:10310000EF93FF9340912D04809126044423C9F04E
:1031100090E081509F4F9BBD8ABD30912704E09184
:103120002A04F0912B04208181E090E002C0880FF6
:10313000991F3A95E2F78095909530E0822393238A
:1031400014C02DEE32E1281B31093BBD2ABD309160
:103150002704E0912A04F0912B04208181E090E083
:1031600001C0880F3A95EAF7822B808381E084279B
:1031700080932D04FF91EF919F918F914F913F91FB
:103180002F910F900FBE0F901F901895862F0E94C1
:10319000890A81E090E00895EEE2F4E01382128261
:1031A0008FE591E0918380831482089597FB072E29
:1031B00016F4009407D077FD09D00E940C1907FC83
:1031C00005D03EF4909581959F4F08957095619537
:1031D0007F4F0895A1E21A2EAA1BBB1BFD010DC053
:1031E000AA1FBB1FEE1FFF1FA217B307E407F507B7
:1031F00020F0A21BB30BE40BF50B661F771F881F93
:10320000991F1A9469F760957095809590959B0128
:10321000AC01BD01CF010895AA1BBB1B51E107C042
:10322000AA1FBB1FA617B70710F0A61BB70B881F56
:10323000991F5A95A9F780959095BC01CD010895E5
:10324000EE0FFF1F0590F491E02D09945058BB2715
:10325000AA270E943E190C944D1A0E94141A38F0A5
:103260000E941B1A20F039F49F3F19F426F40C94A5
:10327000111A0EF4E095E7FB0C940B1AE92F0E944B
:10328000721A58F3BA17620773078407950720F07C
:1032900079F4A6F50C94941A0EF4E0950B2EBA2F3F
:1032A000A02D0B01B90190010C01CA01A00111244C
:1032B000FF27591B99F0593F50F4503E68F11A16F8
:1032C000F040A22F232F342F4427585FF3CF469589
:1032D00037952795A795F0405395C9F77EF41F16AB
:1032E000BA0B620B730B840BBAF09150A1F0FF0F75
:1032F000BB1F661F771F881FC2F70EC0BA0F621F61
:10330000731F841F48F4879577956795B795F79550
:103310009E3F08F0B0CF9395880F08F09927EE0FE5
:103320009795879508950E94241AE3950C945E1A48
:103330000E949F196894B1110C94951A08950E94E7
:103340007A1A88F09F5798F0B92F9927B751B0F0A3
:10335000E1F0660F771F881F991F1AF0BA95C9F719
:1033600014C0B13091F00E94941AB1E008950C9409
:10337000941A672F782F8827B85F39F0B93FCCF3BC
:10338000869577956795B395D9F73EF49095809596
:10339000709561957F4F8F4F9F4F0895E89409C0B6
:1033A00097FB3EF490958095709561957F4F8F4F78
:1033B0009F4F9923A9F0F92F96E9BB279395F6958E
:1033C000879577956795B795F111F8CFFAF4BB0F0C
:1033D00011F460FF1BC06F5F7F4F8F4F9F4F16C070
:1033E000882311F096E911C0772321F09EE8872FFA
:1033F000762F05C0662371F096E8862F70E060E0B6
:103400002AF09A95660F771F881FDAF7880F96952E
:10341000879597F9089597F99F6780E870E060E0D5
:1034200008959FEF80EC089500240A94161617065D
:1034300018060906089500240A94121613061406A5
:10344000050608950C94111A0E947A1AD8F3E8948C
:10345000E0E0BB279F57F0F02AED3FE049EC06C0C3
:10346000EE0FBB0F661F771F881F28F0B23A620766
:103470007307840728F0B25A620B730B840BE39531
:103480009A9572F7803830F49A95BB0F661F771FB4
:10349000881FD2F790480C940A1B092E0394000C45
:1034A00011F4882352F0BB0F40F4BF2B11F460FFDE
:1034B00004C06F5F7F4F8F4F9F4F0895EF93E0FFE2
:1034C00007C0A2EA2AED3FE049EC5FEB0E943E19FB
:1034D0000E944D1A0F90039401FC9058E4E5F0E02F
:1034E0000C94161B57FD9058440F551F59F05F3F21
:1034F00071F04795880F97FB991F61F09F3F79F016
:1035000087950895121613061406551FF2CF469597
:10351000F1DF08C0161617061806991FF1CF869519
:103520007105610508940895E894BB2766277727FD
:10353000CB0197F908950E94AE1A0C944D1A0E947F
:10354000141A38F00E941B1A20F0952311F00C94E5
:103550000B1A0C94111A11240C94951A0E94721AC9
:1035600070F3959FC1F3950F50E0551F629FF001D6
:10357000729FBB27F00DB11D639FAA27F00DB11DEF
:10358000AA1F649F6627B00DA11D661F829F222778
:10359000B00DA11D621F739FB00DA11D621F839FFF
:1035A000A00D611D221F749F3327A00D611D231FD5
:1035B000849F600D211D822F762F6A2F11249F5723
:1035C00050409AF0F1F088234AF0EE0FFF1FBB1F26
:1035D000661F771F881F91505040A9F79E3F5105E5
:1035E00080F00C940B1A0C94951A5F3FE4F3983E0C
:1035F000D4F3869577956795B795F795E7959F5F8F
:10360000C1F7FE2B880F911D9695879597F9089520
:103610009F3F31F0915020F4879577956795B79546
:10362000880F911D9695879597F908959F938F938D
:103630007F936F93FF93EF939B01AC010E949B1AC2
:10364000EF91FF910E942A1B2F913F914F915F9123
:103650000C949B1ADF93CF931F930F93FF92EF92DB
:10366000DF927B018C01689406C0DA2EEF010E9484
:10367000AE1AFE01E894A591259135914591559199
:10368000A6F3EF010E943E19FE019701A801DA940A
:1036900069F7DF90EF90FF900F911F91CF91DF912D
:1036A0000895CF93DF938230910510F482E090E08B
:1036B000E0913504F091360420E030E0C0E0D0E045
:1036C000309711F14081518148175907C0F04817D0
:1036D000590761F482819381209719F09B838A8333
:1036E0002BC0909336048093350426C021153105F4
:1036F00019F04217530718F49A01BE01DF01EF01D8
:103700000280F381E02DDCCF2115310509F1281B62
:10371000390B2430310590F412968D919C911397BA
:103720006115710521F0FB019383828304C090939E
:10373000360480933504FD01329644C0FD01E20F4A
:10374000F31F81939193225031092D933C933AC0FA
:103750002091330430913404232B41F420916C00E8
:1037600030916D00309334042093330420916A002B
:1037700030916B002115310541F42DB73EB74091D2
:103780006E0050916F00241B350BE0913304F091D3
:103790003404E217F307A0F42E1B3F0B2817390758
:1037A00078F0AC014E5F5F4F2417350748F04E0F9D
:1037B0005F1F50933404409333048193919302C06C
:1037C000E0E0F0E0CF01DF91CF9108950F931F93D8
:1037D000CF93DF93009709F48CC0FC0132971382DA
:1037E000128200913504109136040115110581F4FF
:1037F00020813181820F931F209133043091340452
:103800002817390779F5F0933404E093330471C035
:10381000D80140E050E0AE17BF0750F412962D914A
:103820003C911397AD012115310509F1D901F3CF71
:103830009D01DA013383228360817181860F971F96
:103840008217930769F4EC0128813981260F371F0D
:103850002E5F3F4F318320838A819B8193838283B4
:10386000452B29F4F0933604E093350442C01396B7
:10387000FC93EE931297ED01499159919E01240F0B
:10388000351FE217F30771F480819181840F951F32
:10389000029611969C938E938281938113969C93AA
:1038A0008E931297E0E0F0E0D80112968D919C91F2
:1038B0001397009719F0F8018C01F6CF8D919C9128
:1038C00098012E5F3F4F820F931F20913304309158
:1038D00034042817390769F4309729F41092360414
:1038E0001092350402C013821282109334040093A4
:1038F0003304DF91CF911F910F910895A0E0B0E0C4
:10390000E4E8FCE10C94551DEC01009721F4CB0197
:103910000E94511BB8C0FC01E60FF71F9C0122500A
:103920003109E217F30708F4ACC0D9010D911C91DD
:10393000119706171707B0F00530110508F49FC05E
:10394000C80104978617970708F499C00250110917
:10395000061B170B019311936D937C93CF010E946B
:10396000E61B8DC05B01A01AB10A4C01800E911EAE
:10397000A0913504B091360440E050E0E12CF12CE8
:10398000109709F44AC0A815B905D1F56D907C903F
:103990001197630182E0C80ED11CCA14DB0480F1C8
:1039A000A3014A195B096A0182E0C80ED11C129674
:1039B000BC9012971396AC91B5E0CB16D10440F0B1
:1039C000B282A38351834083D9016D937C930AC053
:1039D0000E5F1F4FC301800F911FF90191838083F8
:1039E000EB2DFA2FE114F10431F0D7011396FC937B
:1039F000EE93129744C0F0933604E09335043FC031
:103A00008D919C9111974817590708F4AC017D01DD
:103A100012960D90BC91A02DB3CF8091330490915C
:103A2000340488159905E1F446175707C8F48091C6
:103A30006A0090916B00009741F48DB79EB740915A
:103A40006E0050916F00841B950BE817F907C8F4BE
:103A5000F0933404E0933304F901718360830FC061
:103A6000CB010E94511B7C01009759F0A801BE01B7
:103A70000E94481DCE010E94E61BC70104C0CE0172
:103A800002C080E090E0CDB7DEB7EEE00C94711D8F
:103A9000FB01DC0102C001900D9241505040D8F76B
:103AA00008952F923F924F925F926F927F928F92E2
:103AB0009F92AF92BF92CF92DF92EF92FF920F93BD
:103AC0001F93CF93DF93CDB7DEB7CA1BDB0B0FB6C7
:103AD000F894DEBF0FBECDBF09942A883988488884
:103AE0005F846E847D848C849B84AA84B984C8841A
:103AF000DF80EE80FD800C811B81AA81B981CE0F11
:103B0000D11D0FB6F894DEBF0FBECDBFED010895F5
:103B100011E0C7E5D1E004C0FE010E942019219602
:0A3B2000C835D107C9F7F894FFCFAC
:103B2A00010A4B03440359035203000037042000DF
:103B3A000000400010005000696E697420556C74D2
:103B4A007261736368616C6C00696E6974206B6F73
:103B5A006D7061737300696E697420626F64656E5B
:103B6A0000696E6974207069787900636F6E66699E
:103B7A0067696E67006E657874204D6F6465004DE5
:103B8A006F746F7220546573740072756E6E696E0D
:103B9A0067004C6F6F7054696D653A20004C696E0E
:103BAA0069650042616C6C0053756368656E0074E8
:103BBA00657374696E672046756E6374696F6E7398
:103BCA00007374617274696E6720696E20322073A3
:103BDA00656300466F6C6C6F770053746172740092
:103BEA00546573742053656E736F727300436F6EFE
:103BFA0066696700546573742046756E6374696FED
:103C0A006E730000000000E40B00000000880B1235
:103C1A0010A90AAC0A00000000E40B00000000C66C
:083C2A00181210A90AAC0A00EF
:00000001FF
