:100000000C9484010C94AC010C94AC010C94AC01E4
:100010000C94FA0D0C94AC010C94AC010C94811965
:100020000C94AC010C94AC010C94E40B0C94AC015A
:100030000C94AC010C94240A0C94500A0C94AC015E
:100040000C94AC010C94AC010C94AC010C940D1606
:100050000C94AC0105A84CCDB2D44EB93836A902E7
:100060000C50B9918688083CA6AAAA2ABE000000B6
:10007000803F0D0A00506978793A20693263206523
:1000800072726F72004552524F523A20000D0A00B0
:10009000434D5053303320736574417331323844CB
:1000A0006567726565206572726F72004552524FC6
:1000B000523A20000D0A00434D50533033206E6FEA
:1000C0007420696E697469616C697A65640045526F
:1000D000524F523A20000D0A00434D505330332006
:1000E0006572726F72004552524F523A20000D0AEB
:1000F00000434D50533033206E6F7420696E697425
:1001000069616C697A6564004552524F523A200029
:100110000D0A00434D5053303320636F6E6E65639C
:1001200074696F6E2070726F626C656D004552521B
:100130004F523A20000D0A00476F6C64626F617283
:10014000643A2069326320706F7274657870616EF2
:10015000646572206572726F72004552524F523A56
:1001600020000D0A00476F6C64626F6172643A2070
:1001700069326320706F7274657870616E64657245
:10018000206572726F72004552524F523A200065DC
:100190006E6420693263207363616E0D0A002075FE
:1001A0006E6B6F776E0D0A0020506F7274657870F9
:1001B000616E6465720D0A00204C617365720D0AF0
:1001C0000020556C747261736368616C6C0D0A0079
:1001D00020506978790D0A00204B6F6D7061737340
:1001E0000D0A0020557372696E670D0A00202020E9
:1001F00000737461727420693263207363616E0DE1
:100200000A000D0A004932432073686F727400457A
:1002100052524F523A20000D0A00493243204361A6
:1002200070004552524F523A20000D0A0053524678
:10023000207772697465004552524F523A20000D82
:100240000A005352462074696D656F7574004552FB
:10025000524F523A20000D0A005352462074696DE5
:10026000656F7574004552524F523A20000D0A00D6
:10027000535246206572726F72004552524F523A85
:1002800020000D0A005352462074696D656F757425
:10029000004552524F523A20000D0A005352463048
:1002A0003820696E6974004552524F523A20000D51
:1002B0000A00506F7274657870616E6465722063B5
:1002C0006F6E6E656374696F6E206572726F720017
:1002D0004552524F523A20000D0A00506F72746519
:1002E0007870616E64657220636F6E6E65637469A9
:1002F0006F6E206572726F72004552524F523A20F3
:100300000000E609D7191E0A11241FBECFE5D8E068
:10031000DEBFCDBF11E0A0E6B0E0E0E4FDE302C047
:1003200005900D92AC35B107D9F724E0ACE5B1E00A
:1003300001C01D92A733B207E1F711E0C3E8D1E095
:1003400004C02197FE010E942B1AC138D107C9F7BA
:100350000E94E1090C94931E0C940000CF93FC01C1
:10036000608170E042E050E08BED93E00E94B118B4
:100370008BED93E00E94E718C82F8BED93E00E946D
:10038000E71820E030E0382FC9018C2BCF91089579
:1003900086EB91E00E949D1120E044E060E18AE755
:1003A00091E00E948E0B8AE791E00E94E20B68E7E1
:1003B00070E08AE791E00E94550F60E086E991E0E5
:1003C0000E944D1462E08EE991E00E944D146AE0B3
:1003D00086EA91E00E944D146EE08EEA91E00E9460
:1003E0004D148AE791E00E94610B69E870E08AE7AA
:1003F00091E00E94550F81E991E00E94CC1081E9C3
:1004000091E00E9479108AE791E00E94610B66E911
:1004100070E08AE791E00E94550F80E991E00E9428
:10042000351764E680E991E00E94D2178AE791E0EF
:100430000E94610B61EA70E08AE791E00E94550F2B
:100440008BED93E00E94F6178AE791E00C94610B24
:100450004F925F926F927F928F929F92AF92BF92D4
:10046000CF92DF92EF92FF920F931F93CF93DF9380
:1004700000D000D0CDB7DEB702E611E0F801608110
:100480007181605A7109072E000C880B990B0E942C
:10049000DB1A4B015C01F8016281738166597109B5
:1004A000072E000C880B990B0E94DB1A6B017C0154
:1004B00060915C0170915D0160587109072E000C1C
:1004C000880B990B0E94DB1A2B013C0120E030E0E5
:1004D00040E450E40E94A61B69837A838B839C834B
:1004E000C501B4019058A70196010E94311AA301D9
:1004F00092010E94311A0E94A31A719561957109A7
:1005000086EB91E00E94880DA7019601C501B40118
:100510000E94311A29813A814B815C810E94321AF2
:100520000E94A31A89EB91E00E94880DA701960111
:10053000C501B4010E94321A29813A814B815C8144
:100540000E94321A0E94A31A8CEB91E00E94880D3F
:10055000A5019401C701B6010E94311AA3019201BD
:100560000E94311A0E94A31A8FEB91E00F900F9016
:100570000F900F90DF91CF911F910F91FF90EF900F
:10058000DF90CF90BF90AF909F908F907F906F90B3
:100590005F904F900C94880D80916201909163015F
:1005A000803A9105ACF46EEC7FEF86EB91E00E940F
:1005B000880D62E370E089EB91E00E94880D62E3B0
:1005C00070E08CEB91E00E94880D62E370E014C053
:1005D00062E370E086EB91E00E94880D6EEC7FEFA5
:1005E00089EB91E00E94880D6EEC7FEF8CEB91E03F
:1005F0000E94880D6EEC7FEF8FEB91E00C94880DDC
:10060000EF92FF920F931F93CF93DF93C0916801F6
:10061000D0916901E0E0F0E08FEF9FEF60E070E0E3
:1006200020E030E001E010E0A0E1EA2EF12CAF0183
:100630004F705527D80102C0AA0FBB1F4A95E2F799
:10064000AD014C235D23452B99F0621773079CF491
:10065000CF010197A90137FF02C04F5F5F4F55954A
:100660004795841B950BB7010E94F519B90103C08A
:100670002F5F3F4F02C020E030E03196E032F105BD
:10068000B1F6DF91CF911F910F91FF90EF900895F8
:100690008F929F92AF92BF92CF92DF92EF92FF9292
:1006A0000E94450CC090CA01D090CB01E090CC01D3
:1006B000F090CD01DC01CB018C199D09AE09BF0979
:1006C000893C9105A105B10530F00E94000390938B
:1006D000C9018093C8010E94450C6093CA017093C0
:1006E000CB018093CC019093CD016091C8017091B2
:1006F000C901072E000C880B990B0E94DB1A26E516
:100700003EE049EC5EE30E94A61B0E949E1A6B012C
:100710007C0120E030E048EC52EC0E94A61B0E94D5
:10072000A31A86EB91E00E94880DC701B60190588C
:1007300020E030E048EC52E40E94A61B0E94A31A7D
:100740004B015C0189EB91E00E94880DB4018CEBB8
:1007500091E00E94880D20E030E048EC52E4C701AF
:10076000B6010E94A61B0E94A31A8FEB91E0FF9096
:10077000EF90DF90CF90BF90AF909F908F900C94B0
:10078000880D6BEA70E08AE791E00E94550F62E104
:1007900086EB91E00E9401118111F9CF0895AF928B
:1007A000BF92CF92DF92EF92FF920F931F93CF935E
:1007B000DF937C0189EEC82E83E0D82E0FEF1FEF68
:1007C000570182E0A80EB11CC5010E94AE01EC01E8
:1007D000009739F4012B59F58AE090E00E94740CDF
:1007E00037C08535EAEA9E0739F405351A4AF9F427
:1007F000F701148281E02DC08635FAEA9F0739F4AB
:1008000005351A4AA1F481E0F701848322C08A3AAF
:10081000954569F4F701628170E041E050E08BEDAD
:1008200093E00E94B1188BED93E00E94E718F1E08D
:10083000CF1AD1088E0141F685E890E00E949A0A0D
:1008400085E790E00E949A0A82E790E00E949A0A67
:1008500080E0DF91CF911F910F91FF90EF90DF909B
:10086000CF90BF90AF9008958F929F92AF92BF921A
:10087000DF92EF92FF920F931F93CF93DF930E942B
:10088000450C0091E0011091E1012091E2013091CD
:10089000E301DC01CB01801B910BA20BB30B823473
:1008A0009105A105B10508F449C08091DE01909140
:1008B000DF0181309105D1F05CF4892B41F58EEA9E
:1008C00091E00E94EE1390937301809372011FC018
:1008D00082309105A1F00397D1F486E991E00E945E
:1008E000EE13909379018093780111C086EA91E02C
:1008F0000E94EE13909375018093740108C08EE9F5
:1009000091E00E94EE13909377018093760180919D
:10091000DE019091DF01019664E070E00E94F5191C
:100920009093DF018093DE010E94450C6093E0010B
:100930007093E1018093E2019093E3010E94450CE2
:100940000091DA011091DB012091DC013091DD0191
:10095000DC01CB01801B910BA20BB30B4597A105CA
:10096000B10598F081E991E00E94241090E0909305
:100970005D0180935C010E94450C6093DA017093E5
:10098000DB018093DC019093DD010E94450C009116
:10099000D6011091D7012091D8013091D901DC0105
:1009A000CB01801B910BA20BB30B4597A105B105A1
:1009B00008F4C5C080918A01811109C087E891E0DF
:1009C0000E94CF03811105C080E090E097C0109293
:1009D0008A0110928D0110928C010CE0DD24D394D9
:1009E00080918C0190918D018238910568F789E89A
:1009F00091E00E94AE01EC0180918C0190918D01FB
:100A0000C5352AEAD20731F421E020938A011092F9
:100A10008B0174C0C635EAEADE0731F421E0209389
:100A20008A0120938B016AC0209709F467C0209146
:100A30008E0130918F0128173907A8F4225E3F4FAD
:100A400030938F0120938E01029FB001039F700DA0
:100A5000112480918701909188010E94891D9093B3
:100A600088018093870120918C0130918D01029F34
:100A7000C001039F900D1124E0908701F090880140
:100A8000E80EF91E4701A12CB12C10E080918B01DA
:100A9000811106C0153021F4F701138612860DC0AE
:100AA00089E891E00E94AE01A80EB91EF40181937D
:100AB00091934F011F5F163049F7CA15DB0549F4C2
:100AC00080918C0190918D01019690938D0180937E
:100AD0008C0189E891E00E94AE018535FAEA9F0712
:100AE00019F410928B017CCF86359A4A19F4D09272
:100AF0008B0176CF80918C0190918D01909367014D
:100B0000809366011816190684F4E0918701F0912C
:100B10008801828193819093630180936201848133
:100B2000958190936501809364010E94450C6093C8
:100B3000D6017093D7018093D8019093D9010E9478
:100B4000450C0091D2011091D3012091D401309134
:100B5000D501DC01CB01801B910BA20BB30B0397DA
:100B6000A105B10590F080E991E00E946217909391
:100B70006901809368010E94450C6093D2017093D3
:100B8000D3018093D4019093D5010E94450C00912C
:100B9000CE011091CF012091D0013091D101DC0123
:100BA000CB01801B910BA20BB30B0397A105B105E1
:100BB00090F161E086EB91E00E94961190E09093B5
:100BC0006B0180936A0160E086EB91E00E949611D0
:100BD00090E090936D0180936C0163E086EB91E06F
:100BE0000E94961190E090936F0180936E0162E0F5
:100BF00086EB91E00E94961190E0909371018093B2
:100C000070010E94450C6093CE017093CF018093D8
:100C1000D0019093D101DF91CF911F910F91FF905F
:100C2000EF90DF90BF90AF909F908F9008958F923C
:100C30009F92AF92BF92EF92FF920F931F93CF9329
:100C4000DF930E94450C4B015C01C0E0D0E062E103
:100C500086EB91E00E940111882309F4FDC161E156
:100C600086EB91E00E940111811111C0219664EF81
:100C700071E080E090E00E944E0C8AE791E00E94D3
:100C8000610B65EB70E08AE791E00E94550FC1307F
:100C9000D10509F4F5C0C230D10509F420C120976F
:100CA000A1F60E9434040E94450CDC01CB01881996
:100CB0009909AA09BB09893E9340A105B10538F2FB
:100CC0008AE791E00E94610B40E060E08AE791E0F2
:100CD0000E94330B60917201709173014AE050E001
:100CE0008AE791E00E94FC0F40E064E08AE791E02F
:100CF0000E94330B60917401709175014AE050E0DD
:100D00008AE791E00E94FC0F40E068E08AE791E00A
:100D10000E94330B60917601709177014AE050E0B8
:100D20008AE791E00E94FC0F40E06CE08AE791E0E6
:100D30000E94330B60917801709179014AE050E094
:100D40008AE791E00E94FC0F41E060E08AE791E0D1
:100D50000E94330B60915C0170915D014AE050E0AC
:100D60008AE791E00E94FC0F41E064E08AE791E0AD
:100D70000E94330B60916601709167014AE050E078
:100D80008AE791E00E94FC0F8091660190916701D3
:100D90001816190604F541E068E08AE791E00E9420
:100DA000330B60916201709163014AE050E08AE781
:100DB00091E00E94FC0F41E06CE08AE791E00E9424
:100DC000330B60916401709165014AE050E08AE75D
:100DD00091E00E94FC0F42E060E08AE791E00E940F
:100DE000330B609168017091690142E050E08AE73D
:100DF00091E00E94171043E060E08AE791E00E94D2
:100E0000330B60916A0170916B014AE050E08AE710
:100E100091E00E94FC0F43E064E08AE791E00E94C9
:100E2000330B60916C0170916D014AE050E08AE7EC
:100E300091E00E94FC0F43E068E08AE791E00E94A5
:100E4000330B60916E0170916F014AE050E08AE7C8
:100E500091E00E94FC0F43E06CE08AE791E00E9481
:100E6000330B60917001709171014AE050E08AE7A4
:100E700091E00E94FC0F0E94450C4B015C01E7CE03
:100E80008AE791E00E94610BE12CF12C00E010E078
:100E9000A8015595479555954795B7016F707727E8
:100EA0008AE791E00E94330B602F80E991E00E9475
:100EB0009F174AE050E0682F8AE791E00E941010E7
:100EC0000F5F1F4F84E0E80EF11C0031110501F7A0
:100ED00068EE73E080E090E00E944E0CB8CE8AE7A6
:100EE00091E00E94610B6FEB70E08AE791E00E9455
:100EF000550F6CE97FEF86EB91E00E94880D64EF5F
:100F000071E080E090E00E944E0C64E670E086EBB9
:100F100091E00E94880D64EF71E080E090E00E9413
:100F20004E0C60E070E086EB91E00E94880D68EE68
:100F300073E080E090E00E944E0C64E670E089EB84
:100F400091E00E94880D64EF71E080E090E00E94E3
:100F50004E0C6CE97FEF89EB91E00E94880D64EF05
:100F600071E080E090E00E944E0C60E070E089EB60
:100F700091E00E94880D68EE73E080E090E00E94AE
:100F80004E0C64E670E08CEB91E00E94880D64EFFB
:100F900071E080E090E00E944E0C6CE97FEF8CEBFA
:100FA00091E00E94880D64EF71E080E090E00E9483
:100FB0004E0C60E070E08CEB91E00E94880D68EED2
:100FC00073E080E090E00E944E0C64E670E08FEBEE
:100FD00091E00E94880D64EF71E080E090E00E9453
:100FE0004E0C6CE97FEF8FEB91E00E94880D64EF6F
:100FF00071E080E090E00E944E0C60E070E08FEBCA
:1010000091E00E94880D68EE73E080E090E00E941D
:101010004E0C6EEC7FEF86EB91E00E94880D62E350
:1010200070E089EB91E00E94880D62E370E08CEB48
:1010300091E00E94880D62E370E08FEB91E00E94E6
:10104000880D68EE73E080E090E00E944E0C86EB25
:1010500091E00E94EA10F9CDDF91CF911F910F919D
:10106000FF90EF90BF90AF909F908F900895CF9298
:10107000DF92EF92FF920F931F93CF93DF938AE754
:1010800091E00E94610B6AEC70E08AE791E00E94B7
:10109000550F0E94450C6B017C01C0E0D0E004EFCD
:1010A00011E062E186EB91E00E940111882309F4CE
:1010B00058C02097A1F48AE791E00E94610B62ED8D
:1010C00070E08AE791E00E94550F0E94450C6C1970
:1010D0007D094AE050E08AE791E00E94FC0F0E94FF
:1010E000450C6B017C01209731F441E060E08AE718
:1010F00091E00E94330B0E9434048091680190912A
:101100006901892B59F0209731F46DED70E08AE781
:1011100091E00E94550F0E9448031CC08091660117
:1011200090916701181619065CF4209731F463EE6C
:1011300070E08AE791E00E94550F0E9428020AC0E1
:10114000209731F468EE70E08AE791E00E94550F35
:101150000E94CC02CE010196B8010E94F519EC0163
:10116000A0CF86EB91E0DF91CF911F910F91FF907F
:10117000EF90DF90CF900C94EA10CF93DF936FEE57
:1011800070E08AE791E00E94550FC1E0D0E062E193
:1011900086EB91E00E940111882309F470C08AE770
:1011A00091E00E94610B61E186EB91E00E940111E8
:1011B000811121C086EB91E00E94EA10219665EB37
:1011C00070E08AE791E00E94550F68EE73E080E0DE
:1011D00090E00E944E0C8AE791E00E94610B61E072
:1011E00071E08AE791E00E94550F60ED77E080E0C2
:1011F00090E00E944E0CC130D105B1F0C230D10553
:1012000029F12097C9F568EE70E08AE791E00E9425
:10121000550F0E9434048091660190916701892BDB
:1012200031F50E94CC02B3CF63E171E08AE791E02F
:101230000E94550F0E9434048091660190916701CD
:1012400018161906A4F40E942802A1CF6DED70E0D3
:101250008AE791E00E94550F0E9434048091680152
:1012600090916901892B19F00E94480390CF86EB79
:1012700091E00E94EA108BCFC0E0D0E088CF86EBEF
:1012800091E0DF91CF910C94EA10CF93DF938AE73E
:1012900091E00E94610B86EB91E00E94EA106AE106
:1012A00071E08AE791E00E94550F41E060E08AE733
:1012B00091E00E94330B60E271E08AE791E00E94C6
:1012C000550F42E060E08AE791E00E94330B6DE247
:1012D00071E08AE791E00E94550F43E060E08AE701
:1012E00091E00E94330B64E371E08AE791E00E9491
:1012F000550FC0E0D0E04C2F6FE08AE791E00E94EC
:10130000330B62E186EB91E00E940111811102C072
:10131000219611C061E186EB91E00E9401118111DB
:1013200002C0239608C063E186EB91E00E940111A0
:101330008111E1CF24C068EC70E080E090E00E9471
:101340004E0C62E186EB91E00E9401118823C9F303
:1013500063E186EB91E00E940111882391F361E142
:1013600086EB91E00E940111882359F3C370DD27B9
:1013700068EC70E080E090E00E944E0CBCCF8AE701
:1013800091E00E94610BC130D10571F02CF4CD2B9E
:1013900081F40E9437080DC0C230D10541F0239777
:1013A00041F40E94BD0805C00E94170602C00E94B9
:1013B000C10364EF71E080E090E0DF91CF910C9485
:1013C0004E0C0E94C8010E944509FDCFCF93DF93C8
:1013D00086EB91E00E942212C6E9D1E0CE010E9484
:1013E000A912289681E0C63BD807C1F781E991E0B0
:1013F0000E941D1080E991E00E94321710928A012C
:1014000010928D0110928C018EE190E090938F01EB
:1014100080938E0188E691E00E945C1C9093880185
:101420008093870184E58093890124E040E16FE3A4
:101430008AE791E0DF91CF910C94C00A80918701F7
:10144000909188010C94F11C1F920F920FB60F928D
:1014500011242F938F939F93EF93FF938BB19CB1A4
:101460008871E091E601EF5FEF712091E501E217ED
:1014700039F0E093E601F0E0E751FE4F908301C0C0
:1014800082E09091E401892B8093E401FF91EF9138
:101490009F918F912F910F900FBE0F901F901895D5
:1014A0001F920F920FB60F9211248F939F93EF9379
:1014B000FF939091E8018091E701981761F0E09126
:1014C000E701EF5FEF71E093E701F0E0E75FFD4FC9
:1014D00080818CB901C05598FF91EF919F918F91B8
:1014E0000F900FBE0F901F9018951092E801109268
:1014F000E7011092E6011092E50197FF03C022E098
:101500002BB99F7790BD89B988E98AB986E880BDF3
:1015100008959091E8019F5F9F712091E7019217D4
:10152000E1F3E92FF0E0E75FFD4F80839093E8015E
:10153000559A0895CF93DF93FC018491EF01219692
:10154000882321F00E94890AFE01F7CFDF91CF9115
:10155000089580E090E00895089560E080FB62F9CE
:1015600081FB61F982FB60F984FB67F985FB66F911
:1015700086FB65F987FB64F98BED93E00C942218E8
:10158000FC011382128287E491E0918380831186AB
:10159000648342872387148608951F93CF93DF9334
:1015A000EC01162F6C818BED93E00E9400188C8566
:1015B000812B0E94AD0A8BED93E0DF91CF911F91BB
:1015C0000C941F180F931F93CF938C01C62F646048
:1015D0000E94CD0A81E090E00E94740C6C2F6B7F1A
:1015E000C8010E94CD0A82E390E0CF911F910F9134
:1015F0000C94740C1F93CF93DF93EC01162F0E9471
:10160000CD0A612FCE01DF91CF911F910C94E20A98
:10161000FF920F931F93CF93DF931F92CDB7DEB747
:101620008C01F62E962F907F692F642BC801498379
:101630000E94FA0A80E1F89EB00111244981642BCE
:10164000C8010F90DF91CF911F910F91FF900C94E3
:10165000FA0A40E00C94080B62E00E94290B80ED2E
:1016600097E00C94740CCF93DF93CDB7DEB7289737
:101670000FB6F894DEBF0FBECDBF9C0188E0E0E757
:10168000F0E0DE01119601900D928A95E1F7F901E3
:101690008085841710F44FEF480FFE013196E40F58
:1016A000F11DE40FF11D9081690F6068C901289652
:1016B0000FB6F894DEBF0FBECDBFDF91CF910C9473
:1016C000290BCF93DF93EC0161E00E94290B80EDA1
:1016D00097E00E94740C8985882339F040E060E02F
:1016E000CE01DF91CF910C94330BDF91CF91089510
:1016F000FC016681262F246026836C600C94290BE4
:10170000FC016681262F2160268369600C94290BD9
:1017100041E00E94080B81E090E00895CF93DF93B1
:10172000EC01423018F08D8188608D834887222338
:1017300029F0413019F48D8184608D8362E370E07B
:1017400080E090E00E944E0C6C85CE010E94CD0A94
:1017500068EE73E080E090E00E944E0C60E3CE0102
:101760000E94FA0A84E991E10E94740C60E3CE01C0
:101770000E94FA0A84E991E10E94740C60E3CE01B0
:101780000E94FA0A86E990E00E94740C60E2CE01A1
:101790000E94FA0A6D816062CE010E94290B84E0EA
:1017A0008E83CE010E94780BCE010E94610B82E0F5
:1017B0008F8366E0CE010E94290BCE01DF91CF918D
:1017C0000C942C0B0C94800B1F920F920FB60F925F
:1017D00011242F933F934F935F936F937F938F9336
:1017E0009F93AF93BF93EF93FF93809129029091C2
:1017F0002A02A0912B02B0912C020196A11DB11DCD
:101800008093290290932A02A0932B02B0932C027A
:1018100080912E028A3079F480912D02811109C0C5
:1018200081E080932D0278940E944C0DF8941092E0
:101830002D0210922E0280912E028F5F80932E0235
:101840000E947E0CFF91EF91BF91AF919F918F917C
:101850007F916F915F914F913F912F910F900FBEAC
:101860000F901F90189583B78B6083BF89B78260F4
:1018700089BF8AEF8CBF1092290210922A0210921F
:101880002B0210922C027894089560912902709195
:101890002A0280912B0290912C020895CF92DF9220
:1018A000EF92FF920F931F930091290210912A0249
:1018B00020912B0230912C02C0902902D0902A0254
:1018C000E0902B02F0902C02C01AD10AE20AF30A2F
:1018D000C616D706E806F90678F31F910F91FF9018
:1018E000EF90DF90CF900895019739F0880F991FFE
:1018F000880F991F02970197F1F70895789480B3A4
:1019000093B392959F70807F892B90912E03E92F3E
:10191000F0E0E15DFD4F80839F5F90932E03F8948C
:10192000089581B38F7081BB84B38F7084BB82B301
:10193000806F82BB85B3806F85BB80E090E0FC0147
:10194000E15DFD4F108201968F3F9105C1F708952B
:10195000843018F493E0981B892F61E070E002C096
:10196000660F771F8A95E2F740E050E080E0FA01C9
:10197000E15DFD4F208130E026233723232B09F43E
:101980008F5F4F5F5F4F4F3F510589F7089520915B
:101990006000222341F090934103809340030E9412
:1019A000DD0E109260000895EF92FF920F931F9347
:1019B000CF93DF93E82EF12CEE0CFF1CF701E85CCF
:1019C000FC4F40815181F701E05DFC4F00811181A6
:1019D0004017510709F459C0B801641B750B2091D9
:1019E000610030E02617370724F48A01020F131F25
:1019F0000AC0EE27FF27E21BF30B6E177F071CF4CC
:101A00008A01021B130BD82FC82FCC0F80914003E3
:101A10009091410317FF10C041E06C2F0E940B19F9
:101A200061E06C0F40E080914003909141030E947F
:101A30000B19602F61951EC040E06C2F0115110538
:101A400069F00E940B1961E06C0F41E08091400346
:101A5000909141030E940B19602F0CC00E940B193A
:101A600061E06C0F40E080914003909141030E943F
:101A70000B1960E08D2F0E94A70DF701E85CFC4F69
:101A80001183008381E080932F03DF91CF911F9119
:101A90000F91FF90EF90089580E00E94D40C81E0B8
:101AA0000E94D40C82E00E94D40C83E00E94D40CEB
:101AB00080912F03882351F00E940B0F80914003E7
:101AC000909141030E94521910922F030895FC0136
:101AD0001082128211820895EF92FF920F931F934A
:101AE000CF93DF931F92CDB7DEB77C018A01CA0185
:101AF00069830E94C70CF7011283018369816083A7
:101B00000F90DF91CF911F910F91FF90EF9008956B
:101B1000FC016536710514F064E670E06C398FEFF6
:101B2000780714F46CE97FEF2FEF269FC001279F01
:101B3000900D112464E670E00E94F519E081F0E058
:101B4000EE0FFF1FE05DFC4F7183608308958630C8
:101B500028F4E82FF0E0EA59FC4F60830895CF9312
:101B6000DF9325E030E040E0842F90E08217930778
:101B7000D4F4BC01605A7C4FDB015C91FC01EF594D
:101B8000FC4F8081C52FD0E0CA59DC4FA82FB0E0B0
:101B9000AA59BC4FC8819C919C1718F4DB018C9307
:101BA00050834F5FE1CF21503109E9F6DF91CF91AA
:101BB00008952091680030916900809164009091AF
:101BC0006500409166005091670050936900409312
:101BD000680040916200509163005093650040930B
:101BE00064003093670020936600909363008093B5
:101BF000620008951F920F920FB60F9211242F9337
:101C00003F934F935F936F937F938F939F93AF9384
:101C1000BF93EF93FF9380916C03811122C0809159
:101C20004303882351F00E94D90D1092430388B3D7
:101C3000807F88BB82B3837F82BB80916C03E091FD
:101C40006400F0916500E80FF11D808198B3282FA2
:101C50002F70922B98BB92B3869586958C70892BAA
:101C600013C0E0916400F0916500E80FF11D8081E0
:101C700028B3982F9F709095922398BB92B3869526
:101C800086958C708095892382BB80916C03E0914E
:101C90006800F0916900E80FF11D808183BD80919B
:101CA0006C038F5F80936C03E0916800F091690092
:101CB000E80FF11D9081992311F0873011F41092F3
:101CC0006C03FF91EF91BF91AF919F918F917F91A5
:101CD0006F915F914F913F912F910F900FBE0F9099
:101CE0001F901895809143038111FCCF81E0809370
:101CF000430308950F931F93CF93DF93E091620006
:101D0000F09163001082A0E6B3E050E040E061E0B3
:101D100070E016E01A0F9D91E92FF0E0EA59FC4FB0
:101D200080818B3078F1E0916200F0916300EB01EB
:101D300001C0CC0F9A95EAF790819C2B908390E09C
:101D4000841B9109E0916200F0916300252F30E03F
:101D50008530910534F4E20FF31F8081C82BC083D6
:101D600011C08A30910514F48AE090E0E20FF31F6D
:101D7000C183E0916600F0916700E20FF31F80835A
:101D8000480F5F5F1A13C7CF852F90E0E091660080
:101D9000F0916700E80FF91F40954083563040F4FA
:101DA0002091660030916700F901E80FF91F118258
:101DB000DF91CF911F910F910895CF9380914203AE
:101DC000811127C0F89410926003C1E0C0936103B1
:101DD00082E08093620383E08093630384E08093D6
:101DE000640385E0809365030E947A0E0E94D90DFA
:101DF00087B38F6087BB81B38C6081BB85B58B60F7
:101E000085BD89B7806889BF8FEF83BD7894C09303
:101E10004203CF910895809143038111FCCF0E942A
:101E2000AF0D0E947A0E0C94720ECF92DF92EF9259
:101E3000FF920F931F93CF93DF936C017A018B0175
:101E4000C0E0D0E0CE15DF0589F0D8016D918D019D
:101E5000D601ED91FC910190F081E02DC60109952C
:101E6000892B11F47E0102C02196ECCFC701DF91CE
:101E7000CF911F910F91FF90EF90DF90CF90089539
:101E80006115710579F0FB0101900020E9F73197A8
:101E9000AF01461B570BDC01ED91FC910280F381F1
:101EA000E02D099480E090E008950C94400FDC014F
:101EB000ED91FC910190F081E02D09948F929F9219
:101EC000AF92BF92CF92DF92EF92FF920F931F9348
:101ED000CF93DF93CDB7DEB7A1970FB6F894DEBFEF
:101EE0000FBECDBF7C01D42EC52EDB0119A222303E
:101EF00008F42AE08E010F5D1F4F822E912CA12C39
:101F0000B12C6D2D7C2DCD01A50194010E94091AE3
:101F1000D22EC32EDA01015011096A3071058105F4
:101F2000910510F4605D01C0695CF8016083232BAA
:101F3000242B252B31F7B801C7010E94400FA19631
:101F40000FB6F894DEBF0FBECDBFDF91CF911F91CA
:101F50000F91FF90EF90DF90CF90BF90AF909F9048
:101F60008F900895CF92DF92EF92FF920F931F937D
:101F7000CF93DF93EC016A017B012115310579F4E0
:101F8000E881F9810190F081E02D642FDF91CF91FC
:101F90001F910F91FF90EF90DF90CF9009942A301E
:101FA0003105E9F477FF1AC06DE20E94570F8C01EA
:101FB00044275527BA014C195D096E097F092AE0AB
:101FC000CE010E945E0F800F911FDF91CF911F9174
:101FD0000F91FF90EF90DF90CF9008952AE0B70126
:101FE000A601CE01DF91CF911F910F91FF90EF904D
:101FF000DF90CF900C945E0F9A01AB01770F660BC8
:10200000770B0C94B20F2115310541F4DC01ED91F1
:10201000FC910190F081E02D642F09940C945E0FE7
:102020009A01462F50E060E070E00C9403109A0192
:10203000AB0160E070E00C940310FC01148210828C
:1020400012821182138208950F931F93CF938C01F4
:10205000FC01848181110BC088E091E00E949A0A02
:1020600081EF90E00E949A0A8EEE90E01CC060E63C
:1020700070E08BED93E00E940A1861E08BED93E035
:102080000E9422188BED93E00E941F18C82F88230E
:1020900071F086EE90E00E949A0A89ED90E00E942D
:1020A0009A0A86ED90E00E949A0AC0E01DC041E0C5
:1020B00050E060E670E08BED93E00E94B1188BED8C
:1020C00093E00E94DF1818161906CCF78BED93E009
:1020D0000E94E718F80180839381992321F0918170
:1020E000890F8F3F09F0C82F8C2FCF911F910F912F
:1020F00008951F93CF93DF93EC018C8181110BC066
:102100008EEC90E00E949A0A87EB90E00E949A0A77
:1021100084EB90E021C01A8219821B821BE0298186
:102120003A8121153105E9F4CE010E94241090E096
:102130009A8389836AE070E080E090E00E944E0C10
:10214000115069F78CEA90E00E949A0A80E990E0C9
:102150000E949A0A8DE890E0DF91CF911F910C9434
:102160009A0A80E890E0821B930B9A83898381E02E
:102170008B83DF91CF911F91089560E670E08BED26
:1021800093E00E940A188BED93E00E941F1891E0E3
:10219000811190E0892F0895CF93DF93EC010E9485
:1021A000BD1081110EC08DE291E00E949A0A83E178
:1021B00091E00E949A0A80E191E0DF91CF910C9426
:1021C0009A0A18821A82198281E08C831B82DF911D
:1021D000CF9108950F931F93CF93DF938C01C0E0AD
:1021E000D0E060E070E0C8018C0F9D1F0E94880D58
:1021F0002396CC30D105A9F7DF91CF911F910F9194
:102200000895CF936430E8F427B370E06C5F7F4F9C
:1022100081E090E0062E01C0880F0A94EAF7382F7B
:102220003095232327BB98B3892B88BB86B390E0D6
:1022300002C0959587956A95E2F798B3932398BB6A
:1022400070C06C3068F4C62F0C960E94271990E07D
:102250006CEF6C0F02C0959587956A95E2F761C0A7
:10226000643108F042C084EF860F843000F544B337
:102270002FE0261B30E02C5F3F4F81E090E0022EE4
:1022800001C0880F0A94EAF7582F5095352F342350
:1022900034BB95B3892B85BB83B390E002C0959581
:1022A00087952A95E2F795B3952395BB3AC021B35C
:1022B000605170E06C5F7F4F81E090E0062E01C0BE
:1022C000880F0A94EAF7382F3095232321BB92B365
:1022D000892B82BB80B390E002C0959587956A9563
:1022E000E2F792B3932392BB1CC06C31E0F42AB3A3
:1022F000645181E090E0062E01C0880F0A94EAF74D
:10230000382F309523232ABB9BB3892B8BBB89B3F2
:1023100090E002C0959587956A95E2F79BB3932369
:102320009BBB817001C080E0CF910895862F6830FB
:1023300010F40C94A80C80E008951F93CF93DF93C2
:1023400081EF91E00E949A0AC1E0D0E01C2F6C2F2F
:102350008BED93E00E9400188BED93E00E941F1814
:10236000811131C08DEE91E00E949A0A4AE050E05E
:10237000BE018EE294E00E94FC0FC433D10519F433
:1023800083EE91E01EC0C03619F488ED91E019C0CB
:10239000C43519F480ED91E014C080E98C0F8031D0
:1023A00018F481EC91E00DC0C93219F488EB91E08A
:1023B00008C018531C3218F488EA91E002C08EE974
:1023C00091E00E949A0A2196CF37D10509F0BECF3D
:1023D0008FE891E0DF91CF911F910C949A0A68E306
:1023E00070E08BED93E00E940A188BED93E00E9461
:1023F0001F18882359F087E891E00E949A0A85E621
:1024000091E00E949A0A82E691E016C06FE370E0C4
:102410008BED93E00E940A188BED93E00E941F1849
:10242000882371F08AE591E00E949A0A88E391E09E
:102430000E949A0A85E391E00E949A0A80E008953A
:1024400081E00895CF92DF92EF92FF920F931F9356
:10245000CF93DF93EC018C017C018CE0E80EF11C42
:10246000C8010E94670D0D5F1F4F0E151F05C1F7B4
:10247000C7010E9402196E018FE0C80ED11CC6016F
:102480000E940219789488E090E00E94750A84B353
:102490008C6084BB85B38C6085BB8AB3807F8ABB2C
:1024A0008AB38F708ABB87B38F7087BB8BED93E045
:1024B0000E94FE18882319F18BED93E00E94001909
:1024C0008BED93E00E94FE18823058F082E292E099
:1024D0000E949A0A8AE192E00E949A0A87E192E0B9
:1024E0000CC0813061F48FE092E00E949A0A85E08E
:1024F00092E00E949A0A82E092E00E949A0A8BED92
:1025000093E00E94F6170E94DD0E0E94910C6FE38B
:10251000C7010E94081968E3C6010E9408197E01DC
:1025200010E0A601612FC7010E946C0D1F5F83E0C0
:10253000E80EF11C1430A9F70E94330CCE01DF9194
:10254000CF911F910F91FF90EF90DF90CF900C945F
:10255000EF11FC01108214821382168215821782F9
:1025600012821182089568E370E08BED93E00E947F
:102570000A188BED93E00E941F1891E0811190E002
:10258000892F0895CF92DF92EF92FF92CF93DF933E
:10259000FC012081222309F447C0EC016181728192
:1025A0008BED93E00E940A1860E08BED93E00E94AF
:1025B00022188BED93E00E941F18811135C06981AC
:1025C0007A8141E050E08BED93E00E94B1180E94C7
:1025D000450C6B017C018BED93E00E94DF1818160F
:1025E0001906D4F00E94450CDC01CB018C199D0921
:1025F000AE09BF09893E9340A105B10560F381E9A9
:1026000092E00E949A0A85E892E00E949A0A82E883
:1026100092E00E949A0A08C08BED93E00E94E718AE
:1026200021E08F3F91050CF020E0822FDF91CF91C8
:10263000FF90EF90DF90CF900895CF92DF92EF92CE
:10264000FF92CF93DF93EC018881882309F46DC05A
:102650008F81813009F069C069817A818BED93E0C7
:102660000E940A1862E08BED93E00E9422188BED25
:1026700093E00E941F18882359F08AE792E00E9495
:102680009A0A80E792E00E949A0A8DE692E029C0B9
:1026900069817A8142E050E08BED93E00E94B118AD
:1026A0000E94450C6B017C018BED93E00E94DF18CA
:1026B0000297D4F40E94450CDC01CB018C199D09D2
:1026C000AE09BF09893E9340A105B10568F385E6CF
:1026D00092E00E949A0A89E592E00E949A0A86E5B1
:1026E00092E00E949A0A21C08BED93E00E94E718C5
:1026F0009C838B838BED93E00E94E71820E030E011
:102700003B81820F931F9C838B83009729F48D81DB
:102710009E819C838B8304C0019711F41C821B82D1
:1027200083E08F838B819C8102C080E090E0DF9109
:10273000CF91FF90EF90DF90CF9008951F93CF93AC
:10274000DF931F92CDB7DEB7162FFC016181728136
:102750008BED93E049830E940A18612F8BED93E083
:102760000E9422184981642F8BED93E00E94221869
:102770008BED93E00E941F18882381F087E392E09D
:102780000E949A0A8DE292E00E949A0A8AE292E0FE
:102790000F90DF91CF911F910C949A0A0F90DF91C7
:1027A000CF911F9108951F93CF93DF93FC01108168
:1027B000112379F08781882311F0833049F4EF01E8
:1027C00041E560E0CF010E949E1381E08F8301C04C
:1027D00010E0812FDF91CF911F910895CF92DF926A
:1027E000EF92FF92CF93DF93EC010E94D3130E94EC
:1027F000450C6B017C010E94450CDC01CB018C195E
:102800009D09AE09BF09893E9340A105B10570F449
:10281000CE010E94C212882371F3CE01DF91CF91C5
:10282000FF90EF90DF90CF900C941D138EE492E018
:102830000E949A0A82E492E00E949A0A8FE392E050
:102840000E949A0A80E090E0DF91CF91FF90EF9094
:10285000DF90CF900895462F603208F04FE161E09D
:102860000C949E13FC019B01CB016AE070E00E9476
:10287000E11976836583C9016BE270E00E94E1197A
:10288000AB01415051094F3F510519F010F04FEF86
:1028900050E062E0CF010C949E13CF93DF93EC01E4
:1028A00070E060597F4F7A8369831C821B821E828D
:1028B0001D821F8260E00E942B142FEF81EE94E0B6
:1028C000215080409040E1F700C000006FE37AE0C3
:1028D000CE010E9432142FEF81EE94E0215080400F
:1028E0009040E1F700C00000CE010E94B3128111B8
:1028F0000EC087EA92E00E949A0A8CE992E00E9458
:102900009A0A89E992E0DF91CF910C949A0A2FEF0D
:1029100080E792E0215080409040E1F700C0000045
:1029200081E08883DF91CF9108951092DA0381E0EE
:102930008093D8031092D703A89AA99A0898099867
:1029400088E480B985E486BF089586B78A7B86BF10
:10295000A898A9980895413208F040C09091DA03F0
:102960009111FCCF91E09093DA032093D8032FEFDD
:1029700020936D031092B203240F2093B103909320
:10298000D9039091D903880F892B8093D903809123
:10299000D703813051F41092D7038091D90383B9C2
:1029A00006B603FCFACF85EC01C085EE86BF8091A8
:1029B000DA038130E1F38091B203841710F440917F
:1029C000B20323EB33E0FB01D9018A2F821B84176A
:1029D00018F48D918193F9CF842F089580E00895A4
:1029E000CF92DF92EF92FF920F93413208F04EC0E8
:1029F000CC24C394D12C76019091DA03992339F039
:102A000091E0C91AD108E108F108B1F73DC032E000
:102A10003093DA030093D8033FEF30936D031092A5
:102A2000B2034093B103FB0163EB73E0DB013A2F88
:102A3000361B341718F431913D93F9CF1092D90316
:102A40003091D903880F832B8093D9038091D703CA
:102A5000813051F41092D7038091D90383B906B61F
:102A600003FCFACF85EC01C085EE86BF41E050E063
:102A7000BA01222369F08091DA03823049F441508F
:102A8000510961097109A9F794E011C091E00FC0E3
:102A900080916D038F3F59F080916D03803231F04A
:102AA00080916D03803381F793E001C092E0892F1C
:102AB0000F91FF90EF90DF90CF90089540918F039A
:102AC000262F30E0240F311D21323105DCF4209116
:102AD000DA032430C9F4FC0180E090E0861758F452
:102AE00030918F032191DC01AF56BC4FA30FB11D74
:102AF0002C930196F3CF80918F03680F60938F031F
:102B000080E0089581E0089582E0089585ED86BF14
:102B100006B604FCFDCF1092DA03089585EC86BF5B
:102B20001092DA030895CF93DF931F92CDB7DEB7EB
:102B30000E94A51484B38C7F84BB85B3836085BB5E
:102B4000989902C081E045C0999BFCCFA898A09AB3
:102B500080E0989B04C08A3FA9F38F5FFACF8A3F39
:102B600089F38B3060F4A19AA99890E023B3822F67
:102B7000827021FF06C09A3F29F39F5FF7CF84E060
:102B800028C09A3FF9F29B3048F4A198A99A90E0A6
:102B9000999906C09A3FB1F29F5FFACF82E019C0BF
:102BA0009A3F81F29B3048F4A098A89A90E09899B7
:102BB00006C09A3F39F29F5FFACF83E00AC09A3F7E
:102BC00009F29B3028F489830E949514898101C001
:102BD00085E00F90DF91CF910895CF93A998A19AA6
:102BE00084E690E00E94740CC0E1A898A09A84E664
:102BF00090E00E94740CA098A89A84E690E00E944D
:102C0000740CC15091F7A198A99A86B78B7E86BFA4
:102C100086B7846086BFCF9108951F920F920FB63A
:102C20000F9211242F933F934F935F936F937F9352
:102C30008F939F93AF93BF93EF93FF9381B1887F5F
:102C4000803609F49BC078F5883209F45DC090F4B1
:102C5000803109F456C038F4882309F4EEC0883076
:102C600009F44FC0EEC0883109F44EC0803209F437
:102C70005EC0E7C0803409F468C058F4803309F4BA
:102C800056C0883309F0DDC080936D030E948E1515
:102C9000D8C0803509F44EC0883509F45BC088344B
:102CA00009F0CFC0CCC0883909F4BFC0A8F4883778
:102CB00009F464C038F4883609F460C0803709F438
:102CC0005DC0BFC0883809F4B0C0803909F45CC069
:102CD000803809F0B6C058C0803B09F47FC038F492
:102CE000803A09F462C0883A09F478C0AAC0803CEE
:102CF00009F49EC0883C09F49BC0883B09F483C05A
:102D0000A0C08091D90310C09091B2038091B1030B
:102D1000981758F5E091B20381E08E0F8093B203CB
:102D2000F0E0ED54FC4F808183B985EC7FC0809347
:102D30006D0385C0E091B20381E08E0F8093B203F2
:102D400083B1F0E0ED54FC4F80839091B203809109
:102D5000B10368C0E091B20381E08E0F8093B203AB
:102D600083B1F0E0ED54FC4F80838091D803811152
:102D700066C081E08093D70384EA5BC083E08093E0
:102D8000DA0310926E03D1CF80916E03803208F087
:102D90004CC0E0916E0381E08E0F80936E0383B18F
:102DA000F0E0E159FC4F8083C0CF0E948E158091E6
:102DB0006E03803230F4E0916E03F0E0E159FC4F95
:102DC000108260916E0370E0E091D303F091D40320
:102DD0008FE693E0099510926E0333C084E08093F0
:102DE000DA031092900310928F03E091D503F091D3
:102DF000D603099580918F03811105C081E08093EE
:102E00008F0310929103E091900381E08E0F8093E5
:102E10009003F0E0EF56FC4F808183B990919003CE
:102E200080918F03981708F480CF85E886BF09C08A
:102E300085EC86BF1092DA0304C010926D030E94E5
:102E40008615FF91EF91BF91AF919F918F917F91E7
:102E50006F915F914F913F912F910F900FBE0F9007
:102E60001F901895FC01108208950F931F93CF9324
:102E7000DF9300D0CDB7DEB78C0119821A8269E6E4
:102E800070E08BED93E00E940A1842E050E0BE0132
:102E90006F5F7F4F8BED93E00E94B4188BED93E052
:102EA0000E941F1860ED77E080E090E00E944E0CD9
:102EB00081E0F80180830F900F90DF91CF911F91F7
:102EC0000F9108950F931F93CF93DF931F92CDB768
:102ED000DEB7FC018081882351F169E670E08BED5B
:102EE00093E00E940A18198241E050E0BE016F5F32
:102EF0007F4F8BED93E00E94B41842E069E68BEDC2
:102F000093E00E94AE188BED93E00E94E7188C01CD
:102F10008BED93E00E94E71820E030E0382F020F9D
:102F2000131F8BED93E00E941F18C80102C080E0C0
:102F300090E00F90DF91CF911F910F9108951F9313
:102F4000CF93DF931F92CDB7DEB7FC01808188233A
:102F500019F1162F69E670E08BED93E00E940A18D4
:102F60001E5F198341E050E0BE016F5F7F4F8BED24
:102F700093E00E94B41841E069E68BED93E00E9473
:102F8000AE188BED93E00E94E718182F8BED93E0BD
:102F90000E941F18812F01C080E00F90DF91CF9118
:102FA0001F910895CF93DF9300D0CDB7DEB7FC011A
:102FB00080818823B1F081E089836A8369E670E0CB
:102FC0008BED93E00E940A1842E050E0BE016F5F73
:102FD0007F4F8BED93E00E94B4188BED93E00E943D
:102FE0001F180F900F90DF91CF9108951092050454
:102FF000109204041092E2031092E1030C949514D1
:1030000081E08093E003609303041092E203109246
:10301000E10308950C9400180F93062F21E04091CE
:10302000E10363EE73E0809103040E94F0141092B8
:10303000E2031092E1031092E0030F91089561E022
:103040000C940C18CF93DF931F92CDB7DEB7698332
:103050008091E003882389F08091E1038032A8F415
:103060008091E203E82FF0E0ED51FC4F60838F5F29
:103070008093E2038093E10305C061E0CE010196F5
:103080000E945E1581E090E002C080E090E00F9029
:10309000DF91CF9108954F925F926F927F92AF929E
:1030A000BF92CF92EF92FF920F931F93CF93DF9334
:1030B0005C01F62ED42F28013901E1100FC04D2FED
:1030C000D13208F040E22C2D66E074E08F2D0E9492
:1030D000AB14109205048093040422C00E940018CF
:1030E000CE2DC43008F0C3E0C15098F028E0C29F54
:1030F000C0011124A301920104C05695479537954C
:1031000027958A95D2F7CA01B901C5010E942218F4
:10311000EBCF60E0C5010E940C18882381F280E0AB
:10312000DF91CF911F910F91FF90EF90CF90BF90C3
:10313000AF907F906F905F904F900895CF92EF92F5
:103140000F931F93C22EE12C00E010E098010E9423
:103150004B181F910F91EF90CF90089521E00C94A0
:103160009E1821E00C949E18CF92DF92EF92FF926E
:103170000F931F93CF93DF936C01262F972F8A0114
:103180008091E003882369F0C62FD72F7E01E40EDB
:10319000F51ECE15DF0549F06991C6010E9422187F
:1031A000F8CF642F822F0E945E15C801DF91CF9166
:1031B0001F910F91FF90EF90DF90CF900895809135
:1031C000040490E020910504821B910908959091D8
:1031D000050480910404981750F4E92FF0E0EA5FA9
:1031E000FB4F208130E09F5F9093050402C02FEFDA
:1031F0003FEFC90108958091E00308950C94931561
:103200000C94ED15FC01108281E0818312820895F7
:10321000FC0162830895FC015081442349F081E060
:1032200090E001C0880F6A95EAF7852B808309C07A
:1032300021E030E001C0220F6A95EAF720952523AE
:1032400020838081581711F081E081830895CF9306
:10325000DF93EC016A818BED93E00E94001841E05E
:103260006A818BED93E00E94AE188BED93E00E9493
:10327000E71888838BED93E00E941F18882371F074
:1032800089EF92E00E949A0A8BED92E00E949A0ADE
:1032900088ED92E00E949A0A80E001C08881DF9167
:1032A000CF910895CF93DF93FC012181222331F147
:1032B000EC018BED93E00E94FB1881111FC06A8125
:1032C0008BED93E00E94001841E050E0BE018BEDD1
:1032D00093E00E94B4188BED93E00E941F1888239E
:1032E00061F080ED92E00E949A0A82EB92E00E94E7
:1032F0009A0A8FEA92E00E949A0A1982DF91CF918E
:1033000008951F920F920FB60F9211242F933F939F
:103310004F938F939F93EF93FF9340912D04809150
:1033200026044423C9F090E081509F4F9BBD8ABD85
:1033300030912704E0912A04F0912B04208181E050
:1033400090E002C0880F991F3A95E2F7809590951A
:1033500030E08223932314C02DEE32E1281B310983
:103360003BBD2ABD30912704E0912A04F0912B0443
:10337000208181E090E001C0880F3A95EAF7822B26
:10338000808381E0842780932D04FF91EF919F91AA
:103390008F914F913F912F910F900FBE0F901F90E3
:1033A0001895862F0E94890A81E090E00895EEE248
:1033B000F4E01382128283E591E09183808314828A
:1033C0000895AA1BBB1B51E107C0AA1FBB1FA6176C
:1033D000B70710F0A61BB70B881F991F5A95A9F7BE
:1033E00080959095BC01CD01089597FB072E16F4AA
:1033F000009407D077FD09D00E94E11907FC05D0A1
:103400003EF4909581959F4F0895709561957F4FFB
:103410000895A1E21A2EAA1BBB1BFD010DC0AA1F15
:10342000BB1FEE1FFF1FA217B307E407F50720F02D
:10343000A21BB30BE40BF50B661F771F881F991FA8
:103440001A9469F760957095809590959B01AC01F1
:10345000BD01CF010895EE0FFF1F0590F491E02DFF
:1034600009945058BB27AA270E94491A0C94581B4C
:103470000E941F1B38F00E94261B20F039F49F3F4A
:1034800019F426F40C941C1B0EF4E095E7FB0C9445
:10349000161BE92F0E947D1B58F3BA1762077307AA
:1034A0008407950720F079F4A6F50C949F1B0EF481
:1034B000E0950B2EBA2FA02D0B01B90190010C0144
:1034C000CA01A0011124FF27591B99F0593F50F45C
:1034D000503E68F11A16F040A22F232F342F4427B4
:1034E000585FF3CF469537952795A795F0405395AC
:1034F000C9F77EF41F16BA0B620B730B840BBAF07C
:103500009150A1F0FF0FBB1F661F771F881FC2F7E6
:103510000EC0BA0F621F731F841F48F487957795FA
:103520006795B795F7959E3F08F0B0CF9395880FB4
:1035300008F09927EE0F9795879508950E942F1B05
:10354000E3950C94691B0E94AA1A6894B1110C941B
:10355000A01B08950E94851B88F09F5798F0B92FF3
:103560009927B751B0F0E1F0660F771F881F991FB8
:103570001AF0BA95C9F714C0B13091F00E949F1BA0
:10358000B1E008950C949F1B672F782F8827B85FB0
:1035900039F0B93FCCF3869577956795B395D9F710
:1035A0003EF490958095709561957F4F8F4F9F4F1A
:1035B0000895E89409C097FB3EF490958095709526
:1035C00061957F4F8F4F9F4F9923A9F0F92F96E96F
:1035D000BB279395F695879577956795B795F111E4
:1035E000F8CFFAF4BB0F11F460FF1BC06F5F7F4F81
:1035F0008F4F9F4F16C0882311F096E911C0772393
:1036000021F09EE8872F762F05C0662371F096E89B
:10361000862F70E060E02AF09A95660F771F881F6A
:10362000DAF7880F9695879597F9089597F99F6728
:1036300080E870E060E008959FEF80EC089500243A
:103640000A941616170618060906089500240A9407
:10365000121613061406050608950C941C1B0E94EE
:10366000851BD8F3E894E0E0BB279F57F0F02AEDE4
:103670003FE049EC06C0EE0FBB0F661F771F881FA7
:1036800028F0B23A62077307840728F0B25A620B37
:10369000730B840BE3959A9572F7803830F49A9502
:1036A000BB0F661F771F881FD2F790480C94151C1C
:1036B000092E0394000C11F4882352F0BB0F40F440
:1036C000BF2B11F460FF04C06F5F7F4F8F4F9F4F80
:1036D0000895EF93E0FF07C0A2EA2AED3FE049EC2E
:1036E0005FEB0E94491A0E94581B0F90039401FC43
:1036F0009058E4E5F0E00C94211C57FD9058440FDD
:10370000551F59F05F3F71F04795880F97FB991F40
:1037100061F09F3F79F087950895121613061406FD
:10372000551FF2CF4695F1DF08C01616170618068A
:10373000991FF1CF86957105610508940895E89465
:10374000BB2766277727CB0197F908950E94B91BFD
:103750000C94581B0E941F1B38F00E94261B20F05F
:10376000952311F00C94161B0C941C1B11240C9423
:10377000A01B0E947D1B70F3959FC1F3950F50E035
:10378000551F629FF001729FBB27F00DB11D639F13
:10379000AA27F00DB11DAA1F649F6627B00DA11DB9
:1037A000661F829F2227B00DA11D621F739FB00D5F
:1037B000A11D621F839FA00D611D221F749F3327CF
:1037C000A00D611D231F849F600D211D822F762F68
:1037D0006A2F11249F5750409AF0F1F088234AF045
:1037E000EE0FFF1FBB1F661F771F881F91505040B1
:1037F000A9F79E3F510580F00C94161B0C94A01B5A
:103800005F3FE4F3983ED4F3869577956795B79537
:10381000F795E7959F5FC1F7FE2B880F911D969551
:10382000879597F908959F3F31F0915020F487953F
:1038300077956795B795880F911D9695879597F918
:1038400008959F938F937F936F93FF93EF939B01C3
:10385000AC010E94A61BEF91FF910E94351C2F9195
:103860003F914F915F910C94A61BDF93CF931F93D1
:103870000F93FF92EF92DF927B018C01689406C058
:10388000DA2EEF010E94B91BFE01E894A591259163
:10389000359145915591A6F3EF010E94491AFE0119
:1038A0009701A801DA9469F7DF90EF90FF900F91EC
:1038B0001F91CF91DF910895CF93DF9382309105CF
:1038C00010F482E090E0E0913504F091360420E0BD
:1038D00030E0C0E0D0E0309711F1408151814817CD
:1038E0005907C0F04817590761F4828193812097E6
:1038F00019F09B838A832BC0909336048093350400
:1039000026C02115310519F04217530718F49A0102
:10391000BE01DF01EF010280F381E02DDCCF211534
:10392000310509F1281B390B2430310590F412962A
:103930008D919C9113976115710521F0FB01938383
:10394000828304C09093360480933504FD0132963F
:1039500044C0FD01E20FF31F81939193225031097E
:103960002D933C933AC02091330430913404232B9F
:1039700041F420916C0030916D0030933404209319
:10398000330420916A0030916B002115310541F418
:103990002DB73EB740916E0050916F00241B350B40
:1039A000E0913304F0913404E217F307A0F42E1BE6
:1039B0003F0B2817390778F0AC014E5F5F4F241793
:1039C000350748F04E0F5F1F509334044093330483
:1039D0008193919302C0E0E0F0E0CF01DF91CF91BD
:1039E00008950F931F93CF93DF93009709F48CC032
:1039F000FC01329713821282009135041091360433
:103A00000115110581F420813181820F931F2091CE
:103A10003304309134042817390779F5F0933404CE
:103A2000E093330471C0D80140E050E0AE17BF0707
:103A300050F412962D913C911397AD01211531054B
:103A400009F1D901F3CF9D01DA013383228360812B
:103A50007181860F971F8217930769F4EC01288103
:103A60003981260F371F2E5F3F4F318320838A8194
:103A70009B8193838283452B29F4F0933604E09352
:103A8000350442C01396FC93EE931297ED014991D1
:103A900059919E01240F351FE217F30771F48081BD
:103AA0009181840F951F029611969C938E9382812B
:103AB000938113969C938E931297E0E0F0E0D801E7
:103AC00012968D919C911397009719F0F8018C0133
:103AD000F6CF8D919C9198012E5F3F4F820F931FDF
:103AE00020913304309134042817390769F4309752
:103AF00029F4109236041092350402C01382128207
:103B00001093340400933304DF91CF911F910F91F0
:103B10000895A0E0B0E0EFE8FDE10C94601EEC0138
:103B2000009721F4CB010E945C1CB8C0FC01E60F99
:103B3000F71F9C0122503109E217F30708F4ACC0CB
:103B4000D9010D911C91119706171707B0F0053098
:103B5000110508F49FC0C80104978617970708F459
:103B600099C002501109061B170B019311936D9315
:103B70007C93CF010E94F11C8DC05B01A01AB10A99
:103B80004C01800E911EA0913504B091360440E0A6
:103B900050E0E12CF12C109709F44AC0A815B905A2
:103BA000D1F56D907C901197630182E0C80ED11C15
:103BB000CA14DB0480F1A3014A195B096A0182E09F
:103BC000C80ED11C1296BC9012971396AC91B5E01A
:103BD000CB16D10440F0B282A38351834083D90134
:103BE0006D937C930AC00E5F1F4FC301800F911F1E
:103BF000F90191838083EB2DFA2FE114F10431F068
:103C0000D7011396FC93EE93129744C0F0933604B9
:103C1000E09335043FC08D919C9111974817590747
:103C200008F4AC017D0112960D90BC91A02DB3CF8C
:103C3000809133049091340488159905E1F4461776
:103C40005707C8F480916A0090916B00009741F487
:103C50008DB79EB740916E0050916F00841B950BFD
:103C6000E817F907C8F4F0933404E0933304F9013A
:103C7000718360830FC0CB010E945C1C7C010097A4
:103C800059F0A801BE010E94531ECE010E94F11CF2
:103C9000C70104C0CE0102C080E090E0CDB7DEB71E
:103CA000EEE00C947C1EFB01DC0102C001900D9241
:103CB00041505040D8F708952F923F924F925F9213
:103CC0006F927F928F929F92AF92BF92CF92DF922C
:103CD000EF92FF920F931F93CF93DF93CDB7DEB791
:103CE000CA1BDB0B0FB6F894DEBF0FBECDBF099425
:103CF0002A88398848885F846E847D848C849B847C
:103D0000AA84B984C884DF80EE80FD800C811B8189
:103D1000AA81B981CE0FD11D0FB6F894DEBF0FBEB8
:103D2000CDBFED01089511E0C3E8D1E004C0FE016C
:103D30000E942B1A2196C438D107C9F7F894FFCFF7
:103D4000010A4B03440359035203000037042000C7
:103D50000000400010005000696E697420556C74BA
:103D60007261736368616C6C00696E6974206B6F5B
:103D70006D7061737300696E697420626F64656E43
:103D800000696E6974207069787900636F6E666986
:103D900067696E67006E657874204D6F6465004DCD
:103DA0006F746F7220546573740072756E6E696EF5
:103DB00067004C6F6F7054696D653A20004C696EF6
:103DC00069650042616C6C0053756368656E0074D0
:103DD000657374696E672046756E6374696F6E7380
:103DE000007374617274696E6720696E203220738B
:103DF000656300466F6C6C6F77005374617274007A
:103E0000546573742053656E736F727300436F6EE5
:103E100066696700546573742046756E6374696FD4
:103E20006E730000000000880B150FA90AAC0A0091
:0C3E3000000000D119150FA90AAC0A000F
:00000001FF
