:100000000C94C2010C94EA010C94EA010C94EA01EC
:100010000C9447210C94EA010C94EA010C94D52F1E
:100020000C94EA010C94EA010C94670C0C94EA011C
:100030000C94EA010C94CB080C94F7080C94EA0198
:100040000C94EA010C94EA010C94EA010C947731C7
:100050000C94EA0105A84CCDB2D44EB93836A902A9
:100060000C50B9918688083CA6AAAA2ABE000000B6
:10007000803F0D0A00506978793A207069787920BC
:10008000726573706F6E6473206275742073656E31
:10009000647320676172626167652E2043686563DF
:1000A0006B20796F757220493243004552524F528E
:1000B0003A20000D0A00434D5053303320736574CD
:1000C0004173313238446567726565206572726FBD
:1000D00072004552524F523A20000D0A00434D50D3
:1000E000533033206E6F7420696E697469616C6976
:1000F0007A6564004552524F523A20000D0A00437F
:100100004D50533033206E6F7420696E697469618D
:100110006C697A6564004552524F523A20000D0ACC
:1001200000434D5053303320636F6E6E65637469C6
:100130006F6E2070726F626C656D004552524F5247
:100140003A20000D0A00476F6C64626F6172643A76
:10015000206932632070726F626C656D20776974FC
:100160006820706F7274657870616E6465720045A6
:1001700052524F523A2000656E64206932632073F8
:1001800063616E0D0A0020756E6B6F776E0D0A004D
:100190002049324320506F7274657870616E6465D7
:1001A000720D0A00204C617365720D0A0020556CB7
:1001B000747261736368616C6C0D0A002050697819
:1001C000790D0A00204B6F6D706173730D0A00206A
:1001D000557372696E670D0A0020202000737461E8
:1001E000727420693263207363616E205B37206212
:1001F0006974206164647265737320696E2064653C
:1002000063696D616C5D0D0A002D2D2D0D0A005383
:100210004D2C300D0A00537E2C330D0A0047420D41
:100220000A00242424002D2D2D0D0A000D0A004360
:100230002C00534D2C310D0A00537E2C330D0A0037
:1002400047420D0A00242424004E414E494E495491
:1002500059494E46CDCCCC3D0AD7233C17B7D138AF
:1002600077CC2B329595E6241FB14F0A0000204130
:100270000000C84200401C4620BCBE4CCA1B0E5A9F
:10028000AEC59D7400407A10F35A00A0724E180952
:100290000010A5D4E80000E87648170000E40B54ED
:1002A000020000CA9A3B000000E1F50500008096BC
:1002B0009800000040420F000000A08601000000EE
:1002C000102700000000E8030000000064000000A8
:1002D00000000A00000000000100000000002C7671
:1002E000D888DC674F0823DFC1DFAE59E1B1B7968C
:1002F000E5E3E453C63AE651997696E8E6C28426E9
:10030000EB898C9B62ED407C6FFCEFBC9C9F40F2C4
:10031000BAA56FA5F490055A2AF75C936B6CF96740
:100320006DC11BFCE0E40D47FEF520E6B500D0ED05
:10033000902E0300943577050080841E080000206D
:100340004E0A000000C80C333333330F986E12830B
:100350001141EF8D2114893BE65516CFFEE6DB18DF
:10036000D1844B381BF77C1D901DA4BBE4242032A4
:1003700084725E228100C9F124ECA1E53D274C3353
:100380006834A63311241FBECFE5D8E0DEBFCDBF51
:1003900011E0A0E6B0E0EAEBFEE702C005900D92A6
:1003A000A835B107D9F724E0A8E5B1E001C01D9256
:1003B000A232B207E1F711E0C1ECD1E004C021970D
:1003C000FE010E94C734CF3BD107C9F70E944333D7
:1003D0000C94503F0C94000065EA71E08FE00E949D
:1003E0003E1F85E891E00E947C0B8AE891E00E9424
:1003F0007C0B8FE891E00E947C0B84E991E00E94E5
:100400007C0B80E891E00E94D21A8FE791E00E9475
:10041000652284E593E00E949A2E80E891E00E9494
:100420007C1A64E68FE791E00C9414234F925F925C
:100430006F927F928F929F92AF92BF92CF92DF92F4
:10044000EF92FF920F931F93CF93DF9300D000D0D2
:10045000CDB7DEB70EE511E0F80160817181605A19
:100460007109072E000C880B990B0E94FD354B017A
:100470005C01F8016281738166597109072E000CD5
:10048000880B990B0E94FD356B017C01609158012E
:100490007091590160587109072E000C880B990B57
:1004A0000E94FD352B013C0120E030E040E450E4A7
:1004B0000E94F13669837A838B839C83C501B401E2
:1004C0009058A70196010E94DC34A30192010E947A
:1004D000DC340E94C53571956195710989E991E017
:1004E0000E942D20A7019601C501B4010E94DC34B1
:1004F00029813A814B815C810E94DD340E94C5359F
:100500008CE991E00E942D20A7019601C501B4015C
:100510000E94DD3429813A814B815C810E94DD3467
:100520000E94C5358FE991E00E942D20A50194011C
:10053000C701B6010E94DC34A30192010E94DC34A1
:100540000E94C53582EA91E00F900F900F900F90B6
:10055000DF91CF911F910F91FF90EF90DF90CF909F
:10056000BF90AF909F908F907F906F905F904F90D3
:100570000C942D2080915E0190915F01803A91054D
:10058000ACF46EEC7FEF89E991E00E942D2062E3EC
:1005900070E08CE991E00E942D2062E370E08FE929
:1005A00091E00E942D2062E370E014C062E370E0ED
:1005B00089E991E00E942D206EEC7FEF8CE991E0BB
:1005C0000E942D206EEC7FEF8FE991E00E942D209C
:1005D0006EEC7FEF82EA91E00C942D20EF92FF9277
:1005E0000F931F93CF93DF93C0916401D091650166
:1005F000E0E0F0E08FEF9FEF60E070E020E030E0BF
:1006000001E010E0A0E1EA2EF12CAF014F70552778
:10061000D80102C0AA0FBB1F4A95E2F7AD014C23D7
:100620005D23452B99F0621773079CF4CF01019766
:10063000A90137FF02C04F5F5F4F55954795841B57
:10064000950BB7010E947234B90103C02F5F3F4F71
:1006500002C020E030E03196E032F105B1F6DF91E2
:10066000CF911F910F91FF90EF9008958F929F92DD
:10067000AF92BF92CF92DF92EF92FF920E94C80C8E
:10068000C090AD01D090AE01E090AF01F090B0010C
:10069000DC01CB018C199D09AE09BF09893C91058C
:1006A000A105B10530F00E94EE029093AC01809359
:1006B000AB010E94C80C6093AD017093AE018093B2
:1006C000AF019093B0016091AB017091AC01072E26
:1006D000000C880B990B0E94FD3526E53EE049ECA5
:1006E0005EE30E94F1360E944E356B017C0120E0F2
:1006F00030E048EC52EC0E94F1360E94C53589E9A1
:1007000091E00E942D20C701B601905820E030E012
:1007100048EC52E40E94F1360E94C5354B015C0161
:100720008CE991E00E942D20B4018FE991E00E94B4
:100730002D2020E030E048EC52E4C701B6010E94D1
:10074000F1360E94C53582EA91E0FF90EF90DF908C
:10075000CF90BF90AF909F908F900C942D2088E702
:1007600090E00E94B01E62E189E991E00E94A41B22
:100770008111F9CF08958F929F92AF92BF92DF922D
:10078000EF92FF920F931F93CF93DF930E94C80CB9
:100790000091C3011091C4012091C5013091C6019F
:1007A000DC01CB01801B910BA20BB30B82349105B2
:1007B000A105B10508F451C08091C1019091C20119
:1007C00081309105F1F06CF4892B81F541E063E60D
:1007D00084E991E00E94370C90936F0180936E0141
:1007E00025C082309105C1F0039701F541E063E631
:1007F00085E891E00E94370C909375018093740115
:1008000015C041E063E68FE891E00E94370C9093B9
:100810007101809370010AC041E063E68AE891E0CB
:100820000E94370C90937301809372018091C101F3
:100830009091C201019664E070E00E94723490933E
:10084000C2018093C1010E94C80C6093C3017093E0
:10085000C4018093C5019093C6010E94C80C009109
:10086000BD011091BE012091BF013091C001DC019A
:10087000CB01801B910BA20BB30B4597A105B105D2
:1008800098F080E891E00E943B1A90E09093590123
:10089000809358010E94C80C6093BD017093BE0103
:1008A0008093BF019093C0010E94C80C0091B901D0
:1008B0001091BA012091BB013091BC01DC01CB0148
:1008C000801B910BA20BB30B4597A105B10508F452
:1008D000C5C080917901811109C086E791E00E942D
:1008E000DE32811105C080E090E097C0109279015E
:1008F00010927C0110927B010CE0DD24D394809156
:100900007B0190917C018238910568F788E791E03E
:100910000E94C432EC0180917B0190917C01C5352D
:100920002AEAD20731F421E02093790110927A016A
:1009300074C0C635EAEADE0731F421E0209379017C
:1009400020937A016AC0209709F467C020917D0145
:1009500030917E0128173907A8F4225E3F4F30936B
:100960007E0120937D01029FB001039F700D112431
:1009700080917601909177010E94F93890937701E8
:100980008093760120917B0130917C01029FC00110
:10099000039F900D1124E0907601F0907701E80E0E
:1009A000F91E4701A12CB12C10E080917A01811130
:1009B00006C0153021F4F701138612860DC088E7B2
:1009C00091E00E94C432A80EB91EF4018193919364
:1009D0004F011F5F163049F7CA15DB0549F48091B6
:1009E0007B0190917C01019690937C0180937B0127
:1009F00088E791E00E94C4328535FAEA9F0719F42E
:100A000010927A017CCF86359A4A19F4D0927A01F5
:100A100076CF80917B0190917C01909363018093CC
:100A200062011816190684F4E0917601F0917701BD
:100A30008281938190935F0180935E01848195818F
:100A400090936101809360010E94C80C6093B9018A
:100A50007093BA018093BB019093BC010E94C80CB3
:100A60000091B5011091B6012091B7013091B80104
:100A7000DC01CB01801B910BA20BB30B0397A105EB
:100A8000B10590F08FE791E00E949222909365016A
:100A9000809364010E94C80C6093B5017093B60105
:100AA0008093B7019093B8010E94C80C0091B101E6
:100AB0001091B2012091B3013091B401DC01CB015E
:100AC000801B910BA20BB30B0397A105B10590F10D
:100AD00061E089E991E00E94B51C90E09093670184
:100AE0008093660160E089E991E00E94B51C90E086
:100AF000909369018093680163E089E991E00E9425
:100B0000B51C90E090936B0180936A0162E089E9E3
:100B100091E00E94B51C90E090936D0180936C0170
:100B20000E94C80C6093B1017093B2018093B3012D
:100B30009093B401DF91CF911F910F91FF90EF90AF
:100B4000DF90BF90AF909F908F9008958F929F926B
:100B5000AF92BF92EF92FF920F931F93CF93DF93C9
:100B60000E94C80C4B015C01C0E0D0E062E189E961
:100B700091E00E94A41B882309F49EC161E189E9E8
:100B800091E00E94A41B81110DC0219664EF71E0D9
:100B900080E090E00E94D10C0E94A71E82E890E0C5
:100BA0000E94B01EC130D10509F4A7C0C230D105E2
:100BB00009F4C9C02097C1F60E94BB030E94C80C6B
:100BC000DC01CB0188199909AA09BB09893E934028
:100BD000A105B10558F20E94A71E60E080E00E94C6
:100BE000981E80916E0190916F010E94BC1E60E082
:100BF00084E00E94981E80917001909171010E9482
:100C0000BC1E60E088E00E94981E80917201909165
:100C100073010E94BC1E60E08CE00E94981E8091CF
:100C20007401909175010E94BC1E61E080E00E94F9
:100C3000981E80915801909159010E94BC1E61E05C
:100C400084E00E94981E80916201909163010E944D
:100C5000BC1E809162019091630118161906A4F4DC
:100C600061E088E00E94981E80915E0190915F0192
:100C70000E94BC1E61E08CE00E94981E8091600181
:100C8000909161010E94BC1E62E080E00E94981E6B
:100C900060E170E080916401909165010E94EF1E17
:100CA00063E080E00E94981E809166019091670148
:100CB0000E94BC1E63E084E00E94981E809168013F
:100CC000909169010E94BC1E63E088E00E94981E1A
:100CD00080916A0190916B010E94BC1E63E08CE0E0
:100CE0000E94981E80916C0190916D010E94BC1E23
:100CF0000E94C80C4B015C0139CF0E94A71EE12C59
:100D0000F12C00E010E0B801759567957595679531
:100D10008E2D8F700E94981E602F8FE791E00E94A9
:100D2000E12290E00E94BC1E0F5F1F4F84E0E80E9E
:100D3000F11C0031110539F768EE73E080E090E0B6
:100D40000E94D10C13CF0E94A71E8CE890E00E9455
:100D5000B01E6CE97FEF89E991E00E942D2064EFDD
:100D600071E080E090E00E94D10C64E670E089E9D7
:100D700091E00E942D2064EF71E080E090E00E94FD
:100D8000D10C60E070E089E991E00E942D2068EECE
:100D900073E080E090E00E94D10C64E670E08CE9A2
:100DA00091E00E942D2064EF71E080E090E00E94CD
:100DB000D10C6CE97FEF8CE991E00E942D2064EF6B
:100DC00071E080E090E00E94D10C60E070E08CE97E
:100DD00091E00E942D2068EE73E080E090E00E9498
:100DE000D10C64E670E08FE991E00E942D2064EF61
:100DF00071E080E090E00E94D10C6CE97FEF8FE918
:100E000091E00E942D2064EF71E080E090E00E946C
:100E1000D10C60E070E08FE991E00E942D2068EE37
:100E200073E080E090E00E94D10C64E670E082EA1A
:100E300091E00E942D2064EF71E080E090E00E943C
:100E4000D10C6CE97FEF82EA91E00E942D2064EFE3
:100E500071E080E090E00E94D10C60E070E082EAF6
:100E600091E00E942D2068EE73E080E090E00E9407
:100E7000D10C6EEC7FEF89E991E00E942D2062E3B6
:100E800070E08CE991E00E942D2062E370E08FE930
:100E900091E00E942D2062E370E082EA91E00E94DE
:100EA0002D2068EE73E080E090E00E94D10C89E98B
:100EB00091E00E94F41A58CEDF91CF911F910F91CB
:100EC000FF90EF90BF90AF909F908F900895CF923A
:100ED000DF92EF92FF920F931F93CF93DF930E94C5
:100EE000A71E87E990E00E94B01E0E94C80C6B010B
:100EF0007C01C0E0D0E004EF11E062E189E991E01B
:100F00000E94A41B882309F449C0209769F40E9419
:100F1000A71E8FE990E00E94B01E0E94C80CCB0172
:100F20008C199D090E94BC1E0E94C80C6B017C019B
:100F3000209721F461E080E00E94981E0E94BB038C
:100F40008091640190916501892B49F0209721F4EB
:100F50008AEA90E00E94B01E0E94360318C0809179
:100F6000620190916301181619064CF4209721F440
:100F700080EB90E00E94B01E0E94160208C02097ED
:100F800021F485EB90E00E94B01E0E94BA02CE01CF
:100F90000196B8010E947234EC01AFCF89E991E06B
:100FA000DF91CF911F910F91FF90EF90DF90CF9045
:100FB0000C94F41ACF93DF938CEB90E00E94B01E58
:100FC000C1E0D0E062E189E991E00E94A41B88239E
:100FD00009F462C00E94A71E61E189E991E00E94C4
:100FE000A41B81111BC089E991E00E94F41A21968B
:100FF00082E890E00E94B01E68EE73E080E090E02E
:101000000E94D10C0E94A71E8EEC90E00E94B01EA0
:1010100060ED77E080E090E00E94D10CC130D10516
:10102000A1F0C230D10509F1209799F585EB90E048
:101030000E94B01E0E94BB038091620190916301E7
:10104000892B11F50E94BA02BDCF80EE90E00E947C
:10105000B01E0E94BB03809162019091630118163B
:10106000190694F40E941602ADCF8AEA90E00E941D
:10107000B01E0E94BB038091640190916501892B91
:1010800019F00E9436039ECF89E991E00E94F41A7C
:1010900099CFC0E0D0E096CF89E991E0DF91CF9180
:1010A0000C94F41ACF93DF930E94A71E89E991E074
:1010B0000E94F41A87EE90E00E94B01E61E080E08A
:1010C0000E94981E8DEE90E00E94B01E62E080E0CB
:1010D0000E94981E8AEF90E00E94B01E63E080E0BC
:1010E0000E94981E81E091E00E94B01EC0E0D0E016
:1010F0006C2F8FE00E94981E6AE070E080E090E024
:101100000E94D10C62E189E991E00E94A41B811147
:1011100002C0219614C061E189E991E00E94A41BFC
:10112000811105C0219758F4C0E0D0E00DC063E103
:1011300089E991E00E94A41B8111DACF0CC0C5306F
:10114000D10514F0C4E0D0E064EF71E080E090E0FD
:101150000E94D10CCDCF0E94A71EC130D10571F0E5
:101160002CF4CD2B81F40E9467070DC0C230D1054D
:1011700041F0239741F40E94DA0705C00E94A605BA
:1011800002C00E94AF0364EF71E080E090E0DF9165
:10119000CF910C94D10C1F920F920FB60F92112485
:1011A0002F938F939F93EF93FF938BB19CB1887193
:1011B000E091C901EF5FEF712091C801E21739F0AA
:1011C000E093C901F0E0E453FE4F908301C082E058
:1011D0009091C701892B8093C701FF91EF919F9157
:1011E0008F912F910F900FBE0F901F9018951F9207
:1011F0000F920FB60F9211248F939F93EF93FF934B
:101200009091CB018091CA01981761F0E091CA01D9
:10121000EF5FEF71E093CA01F0E0E451FE4F80818F
:101220008CB901C05598FF91EF919F918F910F90CC
:101230000FBE0F901F9018951092CB011092CA010B
:101240001092C9011092C80197FF03C022E02BB988
:101250009F7790BD89B988E98AB986E880BD0895ED
:101260009091C9018091C801981781F0E091C8015F
:10127000EF5FEF71E093C801F0E0E453FE4F80812F
:101280009091C7011092C70190E0089580E091E02D
:1012900008959091CB019F5F9F712091CA01921791
:1012A000E1F3E92FF0E0E451FE4F80839093CB010E
:1012B000559A0895CF93DF93EC018991882319F013
:1012C0000E944909FACFDF91CF910895CF93DF9320
:1012D000FC018491EF012196882321F00E944909A5
:1012E000FE01F7CFDF91CF910895FC0113821282A6
:1012F0008AE191E09183808311866483428723870A
:10130000148608951F93CF93DF93EC01162F6C8101
:1013100084E593E00E94BF2E8C85612F682B84E5C5
:1013200093E00E94E12E84E593E0DF91CF911F913D
:101330000C94DE2EFC01148660E00C94820928E0F7
:10134000FC01248760E00C9482090F931F93CF93D4
:101350008C01C62F64600E94820981E090E00E94A7
:10136000F70C6C2F6B7FC8010E94820982E390E02A
:10137000CF911F910F910C94F70C1F93CF93DF9394
:10138000EC01162F0E948209612FCE01DF91CF91CF
:101390001F910C94A509FF920F931F93CF93DF9396
:1013A0001F92CDB7DEB78C01F62E962F907F692F56
:1013B000642BC80149830E94BD0980E1F89EB001F9
:1013C00011244981642BC8010F90DF91CF911F91A7
:1013D0000F91FF900C94BD0962E00E94B03380ED44
:1013E00097E00C94F70CCF93DF93CDB7DEB7289737
:1013F0000FB6F894DEBF0FBECDBF9C0188E0E0E7DA
:10140000F0E0DE01119601900D928A95E1F7F90165
:101410008085841710F44FEF480FFE013196E40FDA
:10142000F11DE40FF11D9081690F6068C9012896D4
:101430000FB6F894DEBF0FBECDBFDF91CF910C94F5
:10144000B033CF93DF93EC0161E00E94B03380EDC5
:1014500097E00E94F70C8985882339F040E060E02E
:10146000CE01DF91CF910C94F309DF91CF910895D4
:10147000FC0166816B7F668368600C94B033FC016D
:101480006681262F246026836C600C94B033FC01A7
:1014900066816D7F668368600C94B033FC01668161
:1014A000262F226026836A600C94B033FC0166818B
:1014B0006E7F668368600C94B033FC016681262FD2
:1014C0002160268369600C94B03368E10C94B033DA
:1014D0006CE10C94B033FC016781262F22602783D6
:1014E00066600C94B033FC0167816D7F6783646034
:1014F0000C94B033FC016781262F2160278365603F
:101500000C94B033FC0167816E7F678364600C9438
:10151000B033CF92DF92EF92FF920F931F93CF934E
:10152000DF9300D0CDB7DEB78C01677088E0689F8D
:10153000B00111246064C80149835A830E94B0330A
:101540004981C42E5A81D52E7601A8E0EA0EF11CFD
:10155000F60161916F01D801ED91FC910190F0814C
:10156000E02DC8010995CE14DF0491F70F900F907C
:10157000DF91CF911F910F91FF90EF90DF90CF906F
:101580000895EF92FF920F931F93CF93DF938C01F7
:101590007A01677088E0689FB00111246064C80117
:1015A0000E94B033C0E0D0E0F701EC0FFD1F649162
:1015B000D801ED91FC910190F081E02DC8010995D1
:1015C0002196C830D10581F7DF91CF911F910F91FE
:1015D000FF90EF900895CF93DF93EC01423018F025
:1015E0008D8188608D834887222329F0413019F44A
:1015F0008D8184608D8362E370E080E090E00E94E2
:10160000D10C6C85CE010E94820968EE73E080E007
:1016100090E00E94D10C60E3CE010E94BD0984E9F4
:1016200091E10E94F70C60E3CE010E94BD0984E9BC
:1016300091E10E94F70C60E3CE010E94BD0986E9AA
:1016400090E00E94F70C60E2CE010E94BD096D811E
:101650006062CE010E94B03384E08E83CE010E948E
:101660003F0ACE010E94210A82E08F8366E0CE010C
:101670000E94B033CE01DF91CF910C94EC09CF934F
:10168000DF93EC0184E593E00E949A2E1D8220E016
:101690004B856A85CE01DF91CF910C94EB0A21E056
:1016A000FC0121870C943F0B0C943F0B0C944E0AC9
:1016B0000C94470A0C945D0A0C94560A0C94890AFF
:1016C00061110C949F090C949A090C94A717089522
:1016D0000895089580E0089580E0089580E00895D9
:1016E000089508950895FC0186E291E09183808336
:1016F000628343832483089584E593E00C949A2EB7
:10170000EF92FF920F931F93CF93DF931F92CDB76A
:10171000DEB77C018B01FC01628184E593E04983A3
:101720000E94BF2E4981642F84E593E00E94E12E40
:1017300001151105B1F0602F84E593E00E94E12EC0
:10174000F7016381662369F08481882351F084E581
:1017500093E00E94E12EF701648184E593E00E940A
:10176000E12E84E593E00F90DF91CF911F910F91CF
:10177000FF90EF900C94DE2E693649F06D3661F0E3
:10178000633651F440E050E061E570E009C040E0AC
:1017900050E060E570E004C040E050E062E570E0D9
:1017A0000C94800B0F931F93CF93DF93EC018B016D
:1017B00040E050E060EA70E00E94800B40E050E0C2
:1017C0006AEA70E0CE010E94800B40E050E065EADA
:1017D00070E0CE010E94800BB801660F771F40E0D9
:1017E00050E0CE01DF91CF911F910F910C94800BAF
:1017F000EF92FF920F931F93CF93DF938C01EA0137
:10180000AB0160E070E00E94800B4C2FF801628118
:1018100084E593E00E94692F84E593E00E949C2F69
:101820008C179D07CCF38E010150104E83E0000F02
:10183000111F8A95E1F7E12CF12C209781F084E5C6
:1018400093E00E94A42F002E02C0880F991F0A94D3
:10185000E2F7E80EF91E219708501109EECFC701F3
:10186000DF91CF911F910F91FF90EF900895CF934B
:10187000DF93EC01442349F00E94BC0BE881F9811D
:101880000190F081E02DCE01099542E050E062E048
:1018900070E0CE01DF91CF910C94F80B41E050E065
:1018A00060E070E00E94F80B0895CF93DF93EC01A5
:1018B000CE010E944E0C8F3F39F461E070E080E071
:1018C00090E00E94D10CF4CFDF91CF9108951F9248
:1018D0000F920FB60F9211242F933F934F935F9364
:1018E0006F937F938F939F93AF93BF93EF93FF93E8
:1018F00080910C0290910D02A0910E02B0910F0206
:101900000196A11DB11D80930C0290930D02A0932E
:101910000E02B0930F02809111028A3079F4809107
:101920001002811109C081E08093100278940E9416
:10193000F11FF8941092100210921102809111027E
:101940008F5F809311020E940117FF91EF91BF9169
:10195000AF919F918F917F916F915F914F913F9147
:101960002F910F900FBE0F901F90189583B78B602B
:1019700083BF89B7826089BF8AEF8CBF10920C0247
:1019800010920D0210920E0210920F027894089598
:1019900060910C0270910D0280910E0290910F02E5
:1019A0000895CF92DF92EF92FF920F931F930091D1
:1019B0000C0210910D0220910E0230910F02C09086
:1019C0000C02D0900D02E0900E02F0900F02C01AAF
:1019D000D10AE20AF30AC616D706E806F90678F332
:1019E0001F910F91FF90EF90DF90CF900895019796
:1019F00039F0880F991F880F991F02970197F1F707
:101A00000895FC01108281E0818312820895FC0117
:101A100062830895FC015081442349F081E090E005
:101A200001C0880F6A95EAF7852B808309C021E001
:101A300030E001C0220F6A95EAF720952523208324
:101A40008081581711F081E081830895CF93DF934F
:101A5000EC016A8184E593E00E94BF2E41E06A8137
:101A600084E593E00E94692F84E593E00E94A42F0F
:101A7000888384E593E00E94DE2E8881DF91CF91F8
:101A80000895CF93DF93FC0121812223C1F0EC0163
:101A900084E593E00E94D22F811111C06A8184E510
:101AA00093E00E94BF2E41E050E0BE0184E593E048
:101AB0000E94712F84E593E00E94DE2E1982DF914F
:101AC000CF910895FC01808191810C946138CF936E
:101AD000DF93EC0188819981009711F00E946138B1
:101AE000198218821D821C821B821A82DF91CF917B
:101AF00008950F931F93CF93DF93EC018B016F5FDA
:101B00007F4F888199810E94F938009731F099833D
:101B100088831B830A8381E001C080E0DF91CF913D
:101B20001F910F910895CF93DF93EC0188819981E4
:101B3000892B29F08A819B818617970760F4CE0153
:101B40000E94790D882341F08C819D81892B19F4A5
:101B5000E881F981108281E0DF91CF910895EF92C1
:101B6000FF920F931F93CF93DF93EC017B018A01C8
:101B7000BA010E94930D811104C0CE010E94670D2D
:101B800007C01D830C83B701888199810E944B3A5D
:101B9000CE01DF91CF911F910F91FF90EF900895AB
:101BA000FC01118210821382128215821482611547
:101BB000710551F0FB0101900020E9F73197AF0169
:101BC000461B570B0C94AF0D0895EF92FF920F93A5
:101BD0001F93CF93DF93EC017B018A01BA010E942E
:101BE000930D811104C0CE010E94670D07C01D83B3
:101BF0000C83B701888199810E940C3ACE01DF9154
:101C0000CF911F910F91FF90EF9008950F931F9325
:101C1000CF93DF938C01EB01FC01808191810097D0
:101C2000D1F0688179816115710599F029EB33E371
:101C3000232B79F0428153812C813D814217530738
:101C400040F00E944B3A8C819D81F80195838483FA
:101C500013C00E94613888819981F8019183808343
:101C60008A819B81938382838C819D8195838483E8
:101C7000198218821B821A821D821C82DF91CF91E9
:101C80001F910F910895FC0111821082138212821C
:101C9000158214820C94060EFC01118210821382AC
:101CA0001282158214820C94060ECF93DF93EC01FE
:101CB000FB018617970761F06081718161157105DD
:101CC00029F0448155810E94AF0D02C00E94670D2A
:101CD000CE01DF91CF910895FC0111821082138211
:101CE0001282158214820C94550ECF93DF93EC016F
:101CF0008617970711F00E94060ECE01DF91CF9153
:101D00000895CF93DF93EC018617970711F00E9497
:101D1000060ECE01DF91CF910895CF93DF93EC01B2
:101D20006115710559F0FB0101900020E9F7319729
:101D3000AF01461B570B0E94AF0D02C00E94670DFA
:101D4000CE01DF91CF910895CF93DF9300D0CDB72F
:101D5000DEB7FC0111821082138212821582148276
:101D600069831A82BE016F5F7F4F0E948D0E0F90B4
:101D70000F90DF91CF9108950F931F93CF93DF932F
:101D8000CDB7DEB729970FB6F894DEBF0FBECDBF33
:101D90008C01862FF8011182108213821282158223
:101DA000148250E0BE016F5F7F4F90E00E94063BBF
:101DB000BE016F5F7F4FC8010E948D0E29960FB63E
:101DC000F894DEBF0FBECDBFDF91CF911F910F9171
:101DD00008950F931F93CF93DF93CDB7DEB762972C
:101DE0000FB6F894DEBF0FBECDBF8C01CB01F8015A
:101DF00011821082138212821582148250E0BE0179
:101E00006F5F7F4F0E94943ABE016F5F7F4FC801A2
:101E10000E948D0E62960FB6F894DEBF0FBECDBF46
:101E2000DF91CF911F910F9108950F931F93CF933F
:101E3000DF93CDB7DEB761970FB6F894DEBF0FBE64
:101E4000CDBF8C01CB01F801118210821382128266
:101E50001582148250E0BE016F5F7F4F0E94063BE7
:101E6000BE016F5F7F4FC8010E948D0E61960FB655
:101E7000F894DEBF0FBECDBFDF91CF911F910F91C0
:101E800008950F931F93CF93DF93CDB7DEB7A2973B
:101E90000FB6F894DEBF0FBECDBF8C01CB01BA01E7
:101EA000F80111821082138212821582148230E0AE
:101EB000AE014F5F5F4F0E94AA3ABE016F5F7F4F36
:101EC000C8010E948D0EA2960FB6F894DEBF0FBE19
:101ED000CDBFDF91CF911F910F9108950F931F9365
:101EE000CF93DF93CDB7DEB7A1970FB6F894DEBFDF
:101EF0000FBECDBF8C01CB01BA01F8011182108257
:101F0000138212821582148230E0AE014F5F5F4F60
:101F10000E94D93ABE016F5F7F4FC8010E948D0EAB
:101F2000A1960FB6F894DEBF0FBECDBFDF91CF9163
:101F30001F910F910895EF92FF920F931F93CF93EC
:101F4000DF93CDB7DEB7A1970FB6F894DEBF0FBE13
:101F5000CDBF7C01CB01BA01F7011182108213823F
:101F600012821582148242E0420F8E010F5F1F4FD2
:101F70000E94AC37BC01C7010E948D0EA1960FB61E
:101F8000F894DEBF0FBECDBFDF91CF911F910F91AF
:101F9000FF90EF900895EF92FF920F931F93CF93CE
:101FA000DF93CDB7DEB7A1970FB6F894DEBF0FBEB3
:101FB000CDBF7C01CB01BA01F701118210821382DF
:101FC00012821582148242E0420F8E010F5F1F4F72
:101FD0000E94AC37BC01C7010E948D0EA1960FB6BE
:101FE000F894DEBF0FBECDBFDF91CF911F910F914F
:101FF000FF90EF9008950F931F93CF93DF9300D03E
:10200000CDB7DEB78C016115710561F0CB01698335
:102010007A830E94133AAC0169817A81C8010E94D7
:10202000E50D02C00E94670DC8010F900F90DF916F
:10203000CF911F910F910895FC011182108213829C
:102040001282158214820C94FB0FEF92FF920F9371
:102050001F93CF93DF93FC012481358161157105B6
:1020600011F480E019C041155105A9F07B01EC0184
:102070008A01020F131FB8010E94930D882389F370
:10208000288139818C819D81B701820F931F0E9425
:102090004B3A1D830C8381E0DF91CF911F910F910B
:1020A000FF90EF900895FB0144815581608171811B
:1020B0000C9425106115710551F0FB010190002071
:1020C000E9F73197AF01461B570B0C94251080E0C0
:1020D0000895CF93DF9300D0CDB7DEB769831A821E
:1020E00041E050E0BE016F5F7F4F0E9425100F90CE
:1020F0000F90DF91CF910895EF92FF920F931F936E
:10210000CF93DF9300D000D0CDB7DEB77C01862F10
:102110004AE08E010F5F1F4FB80190E00E949F3A86
:10212000F80101900020E9F73197AF01401B510BF6
:10213000B801C7010E9425100F900F900F900F90CB
:10214000DF91CF911F910F91FF90EF900895EF9243
:10215000FF920F931F93CF93DF93CDB7DEB72897EE
:102160000FB6F894DEBF0FBECDBF7C01CB014AE0B5
:102170008E010F5F1F4FB8010E949F3AF801019036
:102180000020E9F73197AF01401B510BB801C7019F
:102190000E94251028960FB6F894DEBF0FBECDBF63
:1021A000DF91CF911F910F91FF90EF900895EF92E3
:1021B000FF920F931F93CF93DF93CDB7DEB727978F
:1021C0000FB6F894DEBF0FBECDBF7C01CB014AE055
:1021D0008E010F5F1F4FB8010E94113BF801019063
:1021E0000020E9F73197AF01401B510BB801C7013F
:1021F0000E94251027960FB6F894DEBF0FBECDBF04
:10220000DF91CF911F910F91FF90EF900895EF9282
:10221000FF920F931F93CF93DF93CDB7DEB72E9727
:102220000FB6F894DEBF0FBECDBF7C01CB01BA0163
:102230002AE08E010F5F1F4FA8010E94B53AF801F6
:1022400001900020E9F73197AF01401B510BB80115
:10225000C7010E9425102E960FB6F894DEBF0FBE60
:10226000CDBFDF91CF911F910F91FF90EF90089517
:10227000EF92FF920F931F93CF93DF93CDB7DEB70B
:102280002D970FB6F894DEBF0FBECDBF7C01CB01FA
:10229000BA012AE08E010F5F1F4FA8010E94E43AA5
:1022A000F80101900020E9F73197AF01401B510B75
:1022B000B801C7010E9425102D960FB6F894DEBF15
:1022C0000FBECDBFDF91CF911F910F91FF90EF9087
:1022D0000895EF92FF920F931F93CF93DF93CDB7A3
:1022E000DEB764970FB6F894DEBF0FBECDBF7C019A
:1022F000CB01BA018E010F5F1F4F22E044E00E9424
:10230000AC37BC01FC0101900020E9F73197AF0127
:10231000481B590BC7010E94251064960FB6F8940C
:10232000DEBF0FBECDBFDF91CF911F910F91FF9008
:10233000EF900895EF92FF920F931F93CF93DF9347
:10234000CDB7DEB764970FB6F894DEBF0FBECDBF32
:102350007C01CB01BA018E010F5F1F4F22E044E0E8
:102360000E94AC37BC01FC0101900020E9F73197D5
:10237000AF01481B590BC7010E94251064960FB688
:10238000F894DEBF0FBECDBFDF91CF911F910F91AB
:10239000FF90EF900895EF92FF920F931F93CF93CA
:1023A000DF936115710511F480E01EC08B01EC0113
:1023B000CB010E94133A0097B1F02C813D817C0142
:1023C000E20EF31EB701CE010E94930D882361F344
:1023D000288139818C819D81B801820F931F0E94D1
:1023E0000C3AFD82EC8281E0DF91CF911F910F9139
:1023F000FF90EF900895CF93DF93EC01FB014481B0
:102400005581608171810E942510811103C0CE0128
:102410000E94670DCE01DF91CF910895CF93DF9396
:10242000EC016115710561F0FB0101900020E9F7F5
:102430003197AF01461B570B0E942510811103C035
:10244000CE010E94670DCE01DF91CF910895CF9309
:10245000DF93EC010E946910811103C0CE010E943C
:10246000670DCE01DF91CF910895CF93DF93EC01FB
:102470000E947C10811103C0CE010E94670DCE0125
:10248000DF91CF910895CF93DF93EC010E94A710C5
:10249000811103C0CE010E94670DCE01DF91CF9163
:1024A0000895CF93DF93EC010E94D710811103C0F0
:1024B000CE010E94670DCE01DF91CF910895CF9399
:1024C000DF93EC010E940711811103C0CE010E942D
:1024D000670DCE01DF91CF910895CF93DF93EC018B
:1024E0000E943811811103C0CE010E94670DCE01F8
:1024F000DF91CF910895CF93DF93EC010E94691192
:10250000811103C0CE010E94670DCE01DF91CF91F2
:102510000895CF93DF93EC010E949A11811103C0BB
:10252000CE010E94670DCE01DF91CF910895CF9328
:10253000DF93EC010E94CB11811103C0CE010E94F8
:10254000670DCE01DF91CF910895CF93DF93DC012A
:10255000ED91FC91EB01A881B981309711F01097B2
:10256000C9F4109759F0EB012C813D81232B31F0F8
:102570008C9190E091958195910914C0309781F0EC
:10258000DC0114968D919C911597892B49F08081DF
:1025900090E008C0BD01CF01DF91CF910C94423A89
:1025A00080E090E0DF91CF910895FC014481558156
:1025B000FB01248135814217530729F40E94A5129B
:1025C00021E0892B09F020E0822F0895FC0124816D
:1025D0003581232B31F421E061157105A1F0FB0158
:1025E00008C0FC01808191816115710531F421E001
:1025F000FC018081882339F005C00E94423A21E025
:10260000892B09F020E0822F08950E94A512892FBE
:10261000881F8827881F08950E94A51221E0181698
:1026200019060CF020E0822F08950E94A51221E0E7
:10263000181619060CF420E0822F08950E94A512A6
:10264000892F8095881F8827881F0895EF92FF9211
:102650000F931F93CF93DF938617970709F1FC0120
:1026600024813581FB014481558124173507D1F43C
:10267000232BB1F0DC01CD91DC9100811181899196
:10268000882371F090E00E94FC397C01F80181916F
:102690008F0190E00E94FC39E816F90681F302C030
:1026A00081E001C080E0DF91CF911F910F91FF90F9
:1026B000EF900895DB011496ED91FC911597DC01E4
:1026C00014962D913C9115972E1B3F0B241735071F
:1026D000A0F02D913C912115310579F0DB016D9130
:1026E0007C916115710549F0CA01AF01820F931FFA
:1026F0000E94523A21E0892B09F020E0822F0895B0
:10270000FC0144815581FB01248135814217530727
:1027100020F040E050E00C945A1380E00895FC0152
:1027200024813581FB014481558124173507A0F0B0
:10273000FC0180819181009779F0FB0160817181BA
:102740006115710549F0241B350B820F931F0E9400
:10275000423A21E0892B09F020E0822F0895FC0104
:10276000248135816217730730F480819181FC01E7
:10277000E60FF71F40830895FC012481358162171D
:10278000730720F480819181009729F4109212023E
:1027900082E192E00895860F971F0895FC0124813D
:1027A00035816217730748F480819181009729F081
:1027B000FC01E60FF71F8081089580E008950C94D6
:1027C000CE130F931F93CF93DF934115510519F14A
:1027D0006115710501F1DC011496ED91FC911597DD
:1027E0002E173F0718F0FB01108215C0E21BF30BF8
:1027F000EA012197EC17FD0708F4EF018B01FC01BA
:1028000060817181620F731FAE01C8010E94603A3E
:10281000C00FD11F1882DF91CF911F910F910895A2
:10282000CF93DF93FC01248135814217530768F46D
:10283000C081D18170E0CE01840F951F0E94373A8C
:10284000009719F08C1B9D0B02C08FEF9FEFDF915B
:10285000CF91089540E050E00C941014CF93DF9393
:10286000FC01248135814217530780F4FB01DC0110
:10287000CD91DC9160817181CE01840F951F0E9402
:102880007A3A009719F08C1B9D0B02C08FEF9FEFD7
:10289000DF91CF91089540E050E00C942E14DF9228
:1028A000EF92FF920F931F93CF93DF93DC01149667
:1028B0002D913C9115974217530718F08FEF9FEF1A
:1028C0001BC08C01EA012196DC01ED91FC9111976E
:1028D000EC0FFD1FD0801082ED90FC9070E0C701DE
:1028E0000E946F3ACE0DDF1DD882009739F3F801B0
:1028F00020813181821B930BDF91CF911F910F912A
:10290000FF90EF90DF900895FC0144815581415084
:1029100051090C944F14AF92BF92CF92DF92EF9275
:10292000FF920F931F93CF93DF937B018A01FB01EB
:10293000448155814115510561F1FC0124813581A6
:102940002115310531F12417350718F10217130746
:1029500018F0890101501109FC01A080B180C50166
:10296000DFEFCFEF6501C00ED11EC816D906A0F06B
:10297000F701608171810E947A3A009769F09C01A9
:102980002A193B090217130710F0D22FC32F019603
:10299000ECCF8FEF9FEF02C08D2F9C2FDF91CF9157
:1029A0001F910F91FF90EF90DF90CF90BF90AF906D
:1029B0000895FC0144815581FB0124813581421B2E
:1029C000530B0C948B14BF92CF92DF92EF92FF9235
:1029D0000F931F93CF93DF937C016B018A01E90171
:1029E0002417350720F4812F8901C42FD82F6AE2DC
:1029F00071E0C7010E94D00DD60114968D919C9173
:102A0000159708171907D0F48C179D0708F4EC01E7
:102A1000D601ED91FC911197EC0FFD1FB080108253
:102A20004D915C91BA01600F711FC7010E948D0E1C
:102A3000D601ED91FC91EC0FFD1FB082C701DF9133
:102A4000CF911F910F91FF90EF90DF90CF90BF90AB
:102A50000895DC01ED91FC91309729F408958613D7
:102A600001C04083319680818111F9CF08952F9262
:102A70003F924F925F926F927F928F929F92AF920E
:102A8000BF92CF92DF92EF92FF920F931F93CF935B
:102A9000DF93FC01448055804114510409F4D2C0F5
:102AA000FB01648075806114710409F4CBC07A0164
:102AB0006B018C01FA01A480B580A618B708FC014F
:102AC000C081D181A114B104C1F4F601608171818A
:102AD000CE010E947A3AEC01892B09F4B3C0F701C8
:102AE0006081718144815581CE010E941C3AF701B9
:102AF00084819581C80FD91FE8CFB7FE02C04E016F
:102B000005C0FB0120803180420143C0F601608195
:102B10007181C4010E947A3A2C01892B21F1320182
:102B200068187908A301B401CE010E941C3AC60DB1
:102B3000D71DF7016081718144815581CE010E94CA
:102B40001C3AF70184819581C80FD91FF601848052
:102B50009580840C951CF801848195818A0D9B1DBC
:102B600095838483D3CFB401CE01DF91CF911F91A0
:102B70000F91FF90EF90DF90CF90BF90AF909F901C
:102B80008F907F906F905F904F903F902F900C941C
:102B90004B3AB101CE010E947A3A009731F0EC0134
:102BA000C60DD71D8A0C9B1CF4CF8414950409F420
:102BB00049C0F801828193818815990530F4B401E8
:102BC000C8010E94790D8823E9F1F80144815581FB
:102BD0004150510957FD36C0B601C8010E948B14FF
:102BE000EC0197FD2FC0F80180819181F6012481CD
:102BF00035812C0F3D1F820F931FF80144815581B1
:102C0000421B530BBC018A0D9B1D0E94253AF80103
:102C1000848195818A0D9B1D9583848320813181D8
:102C2000F901E80FF91F1082F80180819181F70105
:102C300060817181448155818C0F9D1F0E941C3AD7
:102C4000AE01C6CFDF91CF911F910F91FF90EF9012
:102C5000DF90CF90BF90AF909F908F907F906F90BC
:102C60005F904F903F902F900895CF93DF93DC01BA
:102C70001496ED91FC9115976E177F0728F5411575
:102C8000510511F19F01261B370B4217530708F41A
:102C90009A01DB01EC0188819981E21BF30BFD8332
:102CA000EC83AF01461B570B260F371FBC01620F89
:102CB000731F8A0F9B1F0E94603AE881F9818C8103
:102CC0009D81E80FF91F1082DF91CF9108954FEF9A
:102CD0005FEF0C943516CF93DF93FC01C081D18157
:102CE000209741F08881882329F090E00E94FC39E8
:102CF0008993F8CFDF91CF910895CF93DF93FC01B3
:102D0000C081D181209741F08881882329F090E00B
:102D10000E94043A8993F8CFDF91CF910895AF9242
:102D2000BF92CF92DF92EF92FF920F931F93CF93B8
:102D3000DF93DC01CD90DC901197C114D104F1F147
:102D40001496CD91DC9115972097C1F18C01560115
:102D50007501BFEFAB1ABB0AF701808190E00E94BA
:102D6000F339892BA9F72197CC0DDD1D888190E0DF
:102D70000E94F339892B91F4AE014F5F5F4F4E19DA
:102D80005F09D80115965C934E931497CE14DF0417
:102D900050F4B701C6010E941C3A05C0CE15DF05EC
:102DA00058F32197E3CFD801ED91FC911197149638
:102DB0008D919C911597E80FF91F1082DF91CF91AB
:102DC0001F910F91FF90EF90DF90CF90BF90AF9049
:102DD0000895FC0180819181009711F00C94CC3909
:102DE00060E070E0CB010895FC0180819181009743
:102DF00011F00C94C83960E070E0CB0108950C9498
:102E0000F416789480B393B392959F70807F892B4A
:102E100090911203E92FF0E0ED5EFD4F80839F5FFC
:102E200090931203F894089581B38F7081BB84B39B
:102E30008F7084BB82B3806F82BB85B3806F85BB8C
:102E400080E090E0FC01ED5EFD4F108201968F3F27
:102E50009105C1F70895843018F493E0981B892FE9
:102E600061E070E002C0660F771F8A95E2F740E0EC
:102E700050E080E0FA01ED5EFD4F208130E0262336
:102E80003723232B09F48F5F4F5F5F4F4F3F51056F
:102E900089F70895CF92DF92EF92FF920F931F93DD
:102EA000CF93DF936C017A018B01C0E0D0E0CE15A7
:102EB000DF0589F0D8016D918D01D601ED91FC916E
:102EC0000190F081E02DC6010995892B11F47E0156
:102ED00002C02196ECCFC701DF91CF911F910F91D6
:102EE000FF90EF90DF90CF900895EF92FF920F93B5
:102EF0001F93CF93DF938C017B01C0E0D0E0F701FB
:102F0000EC0FFD1F6491662361F0D801ED91FC91F7
:102F10000190F081E02DC8010995892B11F02196CF
:102F2000EECFCE01DF91CF911F910F91FF90EF90E7
:102F30000895DC01ED91FC91DB0114964D915C91BB
:102F400015976D917C910280F381E02D09940C948A
:102F5000BA33DC01ED91FC910190F081E02D0994F0
:102F6000DB01ED91FC9111970190F081E02DBC0106
:102F7000CD01099468E271E00C94BA330F931F936A
:102F8000CF93DF93EC010E9475178C01CE010E9454
:102F9000BA17800F911FDF91CF911F910F91089564
:102FA0000F931F93CF93DF93EC010E9499178C012D
:102FB000CE010E94BA17800F911FDF91CF911F9110
:102FC0000F9108950F931F93CF93DF93EC010E940D
:102FD000BA338C01CE010E94BA17800F911FDF9186
:102FE000CF911F910F9108950F931F93CF93DF936C
:102FF000EC010E94A9178C01CE010E94BA17800F24
:10300000911FDF91CF911F910F9108950F931F93FF
:10301000CF93DF93EC010E94B0178C01CE010E9488
:10302000BA17800F911FDF91CF911F910F910895D3
:103030008F929F92AF92BF92CF92DF92EF92FF92C8
:103040000F931F93CF93DF93CDB7DEB7A1970FB642
:10305000F894DEBF0FBECDBF7C01D42EC52EDB01A0
:1030600019A2223008F42AE08E010F5D1F4F822E34
:10307000912CA12CB12C6D2D7C2DCD01A50194019D
:103080000E948634D22EC32EDA01015011096A3013
:1030900071058105910510F4605D01C0695CF8015E
:1030A0006083232B242B252B31F7B801C7010E9405
:1030B000BA33A1960FB6F894DEBF0FBECDBFDF9135
:1030C000CF911F910F91FF90EF90DF90CF90BF9025
:1030D000AF909F908F900895CF92DF92EF92FF92E2
:1030E0000F931F93CF93DF93EC016A017B012115AE
:1030F000310579F4E881F9810190F081E02D642FA8
:10310000DF91CF911F910F91FF90EF90DF90CF90C3
:1031100009942A303105E9F477FF1AC06DE20E9464
:10312000A9178C0144275527BA014C195D096E096E
:103130007F092AE0CE010E941818800F911FDF91AD
:10314000CF911F910F91FF90EF90DF90CF90089556
:103150002AE0B701A601CE01DF91CF911F910F9117
:10316000FF90EF90DF90CF900C9418189A01AB016C
:10317000770F660B770B0C946C180F931F93CF93FC
:10318000DF93EC019A01AB01770F660B770B0E947E
:103190006C188C01CE010E94BA17800F911FDF912D
:1031A000CF911F910F9108950F931F93CF93DF93AA
:1031B000EC010E946C188C01CE010E94BA17800F9E
:1031C000911FDF91CF911F910F9108952115310526
:1031D00041F4DC01ED91FC910190F081E02D642F30
:1031E00009940C9418189A01462F50E060E070E0A2
:1031F0000C94E6180F931F93CF93DF93EC019A0181
:10320000462F50E060E070E00E94E6188C01CE018D
:103210000E94BA17800F911FDF91CF911F910F91DC
:1032200008959A01AB0160E070E00C94E6180F93EA
:103230001F93CF93DF93EC019A01AB0160E070E044
:103240000E94E6188C01CE010E94BA17800F911FD0
:10325000DF91CF911F910F9108950F931F93CF93FB
:10326000DF93EC010E94E6188C01CE010E94BA1790
:10327000800F911FDF91CF911F910F9108954F9271
:103280005F926F927F928F929F92AF92BF92CF92F6
:10329000DF92EF92FF92CF93DF93EC016A017B0103
:1032A000B22E9A01AB01C701B6010E945E37882396
:1032B00019F06BE271E027C026013701E89477F836
:1032C0002FEF3FEF4FE75FE7C301B2010E945E3788
:1032D00081110DC02FEF3FEF4FE75FE7C301B20150
:1032E0000E94493518161CF46FE271E00CC02FEFF4
:1032F0003FEF4FE75FE4C701B6010E94EC361816B6
:103300009CF463E371E0CE01DF91CF91FF90EF90E9
:10331000DF90CF90BF90AF909F908F907F906F90F5
:103320005F904F900C94BA332FEF3FEF4FE75FEC75
:10333000C701B6010E94493587FDE3CF20E030E0A8
:10334000A901C701B6010E94493587FF0AC06DE295
:10335000CE010E94A9174C01F7FAF094F7F8F09407
:1033600002C0812C912CA12C60E070E080E09FE3F2
:10337000AB1441F020E030E040E251E40E945335CC
:10338000A394F6CF9B01AC01C701B6010E94DD34C6
:103390002B013C010E94CC356B017C010E94FB3566
:1033A0009B01AC01C301B2010E94DC342B013C0142
:1033B0002AE0B701A601CE010E9418187C01E80C92
:1033C000F91CBB2031F06EE2CE010E94A917E80E75
:1033D000F91EDB2CDD2029F120E030E040E251E451
:1033E000C301B2010E94F1362B013C010E94CC3591
:1033F0004B01A12CB12C2AE0B501A401CE010E9401
:103400001818E80EF91EC501B4010E94FB359B0196
:10341000AC01C301B2010E94DC342B013C01DA94FF
:10342000D9CFC701DF91CF91FF90EF90DF90CF9080
:10343000BF90AF909F908F907F906F905F904F90D4
:1034400008950C943F190F931F93CF93DF93EC01D2
:103450000E943F198C01CE010E94BA17800F911F64
:10346000DF91CF911F910F91089562E470E080E0A9
:1034700090E00C94D10CCF93DF93EC018C818111FF
:103480000DC086E191E00E9466098FEF90E00E94F6
:1034900066098CEF90E00E9466092AC060E670E041
:1034A00084E593E00E94C92E61E084E593E00E94E8
:1034B000E12E84E593E00E94DE2E41E050E060E6DC
:1034C00070E084E593E00E946C2F84E593E00E9415
:1034D0009C2F18161906CCF784E593E00E94A42FC0
:1034E00088839B81992329F09981890F8F3F09F463
:1034F00080E0DF91CF9108951F93CF93DF93EC018C
:103500008C8181110BC084EF90E00E9466098DEDE3
:1035100090E00E9466098AED90E021C01A8219822B
:103520001B821BE029813A8121153105E9F4CE0186
:103530000E943B1A90E09A8389836AE070E080E001
:1035400090E00E94D10C115069F782ED90E00E944A
:10355000660986EB90E00E94660983EB90E0DF91BC
:10356000CF911F910C94660980E890E0821B930B29
:103570009A83898381E08B83DF91CF911F91089596
:10358000FC018481089560E670E084E593E00E9488
:10359000C92E84E593E00E94DE2E91E0811190E037
:1035A000892F0895CF93DF93EC010E94C31A8111F4
:1035B0000EC08BE391E00E94660981E291E00E94D7
:1035C00066098EE191E0DF91CF910C946609188233
:1035D0001A82198281E08C831B82DF91CF9108953A
:1035E000FC0114820C94D21A0F931F93CF93DF9394
:1035F0008C01C0E0D0E060E070E0C8018C0F9D1F3E
:103600000E942D202396CC30D105A9F7DF91CF91D0
:103610001F910F910895623088F470E025B36E5FBA
:103620007F4F81E090E001C0880F6A95EAF7411171
:1036300002C0822B02C08095822385BB0895623030
:1036400058F4862F8C5F442311F06FEF01C060E0C7
:103650000E9415210C9458220895623070F49A014A
:103660004F3F510519F014F02FEF30E0862F622FF5
:103670008C5F0E9415210C9458220895CF934430FA
:10368000A0F4C62F80911303811109C04C5F67E33A
:1036900070E088E390E00E943730809313036C2F32
:1036A00080911303CF910C946A30CF9108956230CA
:1036B00020F595B384B370E06E5F7F4F21E030E07A
:1036C000062E01C0220F0A94EAF7322F3095832389
:1036D00084BB85B3822B85BB83B395BB94B3292B65
:1036E00024BB90E002C0959587956A95E2F78170BA
:1036F000992721E082278170089580E008950F9333
:103700001F93CF938C01C62F623060F46C2FC801D9
:103710000E94571B8823D1F36C2FC8010E94571BAE
:103720008111FACFCF911F910F910895683050F415
:10373000462F60E482E00E949C329695879596958C
:103740008795089580E00895CF936430E8F427B317
:1037500070E06C5F7F4F81E090E0062E01C0880F23
:103760000A94EAF7382F3095232327BB98B3892B87
:1037700088BB86B390E002C0959587956A95E2F77D
:1037800098B3932398BB70C06C3068F4C62F0C9626
:103790000E94260D90E06CEF6C0F02C09595879506
:1037A0006A95E2F761C0643108F042C084EF860F89
:1037B000843000F544B32FE0261B30E02C5F3F4FF0
:1037C00081E090E0022E01C0880F0A94EAF7582F9A
:1037D0005095352F342334BB95B3892B85BB83B3E8
:1037E00090E002C0959587952A95E2F795B39523C9
:1037F00095BB3AC021B3605170E06C5F7F4F81E0B0
:1038000090E0062E01C0880F0A94EAF7382F309511
:10381000232321BB92B3892B82BB80B390E002C0EB
:10382000959587956A95E2F792B3932392BB1CC056
:103830006C31E0F42AB3645181E090E0062E01C0BF
:10384000880F0A94EAF7382F309523232ABB9BB3BD
:10385000892B8BBB89B390E002C0959587956A95BB
:10386000E2F79BB393239BBB817001C080E0CF91B3
:103870000895CF93DF936430C0F427B36C5F81E089
:1038800090E0A0E0B0E004C0880F991FAA1FBB1F02
:103890006A95D2F7282B27BB28B3442311F0822B3B
:1038A00002C08095822388BB5DC06C3058F4EC0167
:1038B0002C966450CE010E940A0DCE01DF91CF916B
:1038C0000C94410D6431A8F584EF860F8430C8F460
:1038D00024B333E1361B81E090E0A0E0B0E004C007
:1038E000880F991FAA1FBB1F3A95D2F7282B24BB1C
:1038F00025B3442311F0822B02C08095822385BB1F
:1039000031C021B36C5081E090E0A0E0B0E004C091
:10391000880F991FAA1FBB1F6A95D2F7282B21BBBE
:1039200022B3442311F0822B02C08095822382BBF4
:1039300019C06C31B8F42AB3645181E090E0A0E082
:10394000B0E004C0880F991FAA1FBB1F6A95D2F769
:10395000282B2ABB2BB3442311F0822B02C0809565
:1039600082238BBBDF91CF910895862F683010F4AE
:103970000C942B1780E008951F93CF93DF938DED68
:1039800091E00E946609C1E0D0E01C2F6C2F84E515
:1039900093E00E94BF2E84E593E00E94DE2E811109
:1039A00031C089ED91E00E9466094AE050E0BE0115
:1039B00087E194E00E94B618C433D10519F48FEC66
:1039C00091E01EC0C03619F484EC91E019C0C435F2
:1039D00019F48CEB91E014C080E98C0F803118F45D
:1039E0008DEA91E00DC0C93219F484EA91E008C073
:1039F00018531C3218F480E991E002C086E891E087
:103A00000E9466092196CF37D10509F0BECF87E71E
:103A100091E0DF91CF911F910C946609CF9368E3F9
:103A200070E084E593E00E94C92E84E593E00E9453
:103A3000DE2EC82F6FE370E084E593E00E94C92E6C
:103A400084E593E00E94DE2E8C0F69F08FE691E012
:103A50000E94660986E491E00E94660983E491E091
:103A6000CF910C946609CF910895CF92DF92EF9297
:103A7000FF920F931F93CF93DF938C01EC017C0196
:103A80008CE0E80EF11CCE010E940C202396CE158E
:103A9000DF05C9F7CE010E94010D68018FE0C80E55
:103AA000D11CC6010E94010D88E090E00E941C0913
:103AB0000E942A220E94141784E593E00E949A2E05
:103AC0006FE3CE010E94070D68E3C6010E94070D57
:103AD0007801C0E0A6016C2FC7010E941120CF5FC2
:103AE00083E0E80EF11CC430A9F784B38C6084BB7A
:103AF00085B38C6085BB8AB3807F8ABB8AB38F70A5
:103B00008ABB87B38F7087BB0E94B60CC801DF9158
:103B1000CF911F910F91FF90EF90DF90CF900C9479
:103B20000E1D41E060E080911403909115030E9406
:103B30000A0D80911403909115030E94410D85E0B8
:103B40008A95F1F7000040E060E0809114039091C5
:103B500015030E940A0D80911403909115030C9493
:103B6000410DCF93C82F8FE396E00197F1F700C086
:103B700000008091140390911503662311F041E039
:103B800001C040E062E00E940A0D80911403909110
:103B900015030E94410D40E064E080911403909170
:103BA00015030E940A0D40E065E080911403909196
:103BB00015030E940A0D40E066E080911403909185
:103BC00015030E940A0D40E067E080911403909174
:103BD00015030E940A0DC7FF08C041E064E0809110
:103BE0001403909115030E940A0DC6FF08C041E01E
:103BF00065E080911403909115030E940A0DC5FFA2
:103C000008C041E066E080911403909115030E9482
:103C10000A0DC4FF08C041E067E080911403909151
:103C200015030E940A0D80911403909115030E94C0
:103C3000410D0E94911D40E064E080911403909139
:103C400015030E940A0D40E065E0809114039091F5
:103C500015030E940A0D40E066E0809114039091E4
:103C600015030E940A0D40E067E0809114039091D3
:103C700015030E940A0DC3FF08C041E064E0809173
:103C80001403909115030E940A0DC2FF08C041E081
:103C900065E080911403909115030E940A0DC1FF05
:103CA00008C041E066E080911403909115030E94E2
:103CB0000A0DC0FF08C041E067E0809114039091B5
:103CC00015030E940A0D80911403909115030E9420
:103CD000410D0E94911D41E067E080911403909195
:103CE00015030E940A0D41E066E080911403909153
:103CF00015030E940A0D41E065E080911403909144
:103D000015030E940A0D41E064E080911403909134
:103D100015030E940A0D8091140390911503CF9111
:103D20000C94410D60E00C94B11D61E00C94B11D48
:103D3000611102C0805809C0613011F4805405C07F
:103D4000623011F4805701C080530C94921E81E0C0
:103D50000C94921E82E00C94921E61E00C94B11DB2
:103D6000CF93DF93EC018991882319F00E94AD1E57
:103D7000FACFDF91CF910895CF93DF93CDB7DEB720
:103D800060970FB6F894DEBF0FBECDBF4AE0BE010C
:103D90006F5F7F4F0E949F3A0E94B01E60960FB6E1
:103DA000F894DEBF0FBECDBFDF91CF910895CF93C2
:103DB000DF93CDB7DEB760970FB6F894DEBF0FBEC6
:103DC000CDBF1982CE0101960E94B01E60960FB63B
:103DD000F894DEBF0FBECDBFDF91CF910895CF9293
:103DE000DF92EF92FF920F931F93CF93DF93CDB7A4
:103DF000DEB760970FB6F894DEBF0FBECDBF7B0174
:103E000042E08E010F5F1F4FB8010E949F3AF801F8
:103E100001900020E9F73197E01BF10BC12CD12C68
:103E2000EE1AFF0ACE14DF0444F489E491E00E9404
:103E3000B01E8FEFC81AD80AF5CFC8010E94B01E75
:103E400060960FB6F894DEBF0FBECDBFDF91CF9165
:103E50001F910F91FF90EF90DF90CF900895CF9337
:103E6000DF93FC018491EF012196882321F00E94C9
:103E7000AD1EFE01F7CFDF91CF910895CF93C82FEC
:103E8000CB01709315036093140340E064E00E943B
:103E90000A0D40E065E080911403909115030E94A3
:103EA0000A0D40E066E080911403909115030E9492
:103EB0000A0D40E067E080911403909115030E9481
:103EC0000A0D40E062E080911403909115030E9476
:103ED0000A0D40E060E080911403909115030E9468
:103EE0000A0D40E061E080911403909115030E9457
:103EF0000A0D80911403909115030E94410D8FEFDC
:103F000099EF0197F1F700C0000041E066E0809171
:103F10001403909115030E940A0D41E067E080911F
:103F20001403909115030E940A0D8091140390913F
:103F300015030E94410D0E94911D8FE19EE401979F
:103F4000F1F700C000000E94911D8FEF90E00197F3
:103F5000F1F700C000000E94911D8FEF90E00197E3
:103F6000F1F700C0000040E067E0809114039091F9
:103F700015030E940A0D80911403909115030E946D
:103F8000410D0E94911D8FEF90E00197F1F700C065
:103F9000000088E20E94921E88E00E94921E0E9409
:103FA000A71E86E00E94921E8C2FCF910C94921E29
:103FB00020916000222341F09093280380932703EF
:103FC0000E942A2210926000089580936100089553
:103FD000E82FF0E0EE0FFF1FE95EFC4F7183608376
:103FE000089580E00E94CF3381E00E94CF3382E0C9
:103FF0000E94CF3383E00E94CF3380911603882341
:1040000051F00E94582280912703909128030E942A
:10401000410D109216030895FC0110821282118244
:104020000895EF92FF920F931F93CF93DF931F9208
:10403000CDB7DEB77C018A01CA0169830E94D81F0F
:10404000F70112830183698160830F90DF91CF9123
:104050001F910F91FF90EF900895FC016536710557
:1040600014F064E670E06C398FEF780714F46CE9B3
:104070007FEF2FEF269FC001279F900D112464E64C
:1040800070E00E947234E081F0E0EE0FFF1FE95E05
:10409000FC4F718360830895FFCF0E94C3390E9453
:1040A000C33922E0FC0120830895EA01FC0160830A
:1040B0006130E1F585E492E00E94660962E370E018
:1040C00080E090E00E94D10C80E492E00E946609BA
:1040D00062E370E080E090E00E94D10C89E392E01E
:1040E0000E94660962E370E080E090E00E94D10CDB
:1040F00082E392E00E94660962E370E080E090E073
:104100000E94D10C8FE292E00E946609CE010E94CB
:104110005A098CE292E00E94660962E370E080E056
:1041200090E00E94D10C86E292E02AC082E292E006
:104130000E94660962E370E080E090E00E94D10C8A
:104140008DE192E00E94660962E370E080E090E019
:104150000E94D10C86E192E00E94660962E370E061
:1041600080E090E00E94D10C8FE092E00E9466090E
:1041700062E370E080E090E00E94D10C89E092E080
:104180000E9466090E943009FDCF0F931F93CF93C1
:10419000DF93EB018B01040F151FC017D10721F02E
:1041A00089910E944909F9CFDF91CF911F910F9119
:1041B0000895CF92DF92EF92FF920F931F93CF93C8
:1041C000DF936A018B01C0E0D0E0CC15DD0569F01A
:1041D0000E94C80C0E943009E92EF12CEF2829F426
:1041E000F80181938F012196F0CFCE01DF91CF911D
:1041F0001F910F91FF90EF90DF90CF900895CF9394
:10420000DF93EC0169E60E94BC0B66E470E080E09D
:1042100090E00E94D10C41E050E061E070E0CE01FE
:104220000E94F80BDF91CF910895863028F4E82F93
:10423000F0E0E35BFC4F60830895CF93DF9325E0CC
:1042400030E040E0842F90E082179307D4F4BC0163
:10425000695B7C4FDB015C91FC01E85BFC4F80817A
:10426000C52FD0E0C35BDC4FA82FB0E0A35BBC4FF1
:10427000C8819C919C1718F4DB018C9350834F5F8D
:10428000E1CF21503109E9F6DF91CF9108951F92D6
:104290000F920FB60F9211242F933F934F935F937A
:1042A0006F937F938F939F93AF93BF93EF93FF93FE
:1042B00080915303811122C080912A03882351F0F9
:1042C0000E94473410922A0388B3807F88BB82B350
:1042D000837F82BB80915303E0916400F09165007D
:1042E000E80FF11D808198B3282F2F70922B98BB77
:1042F00092B3869586958C70892B13C0E0916400EB
:10430000F0916500E80FF11D808128B3982F9F7010
:104310009095922398BB92B3869586958C708095E4
:10432000892382BB80915303E0916800F09169007A
:10433000E80FF11D808183BD809153038F5F8093CF
:104340005303E0916800F0916900E80FF11D90813E
:10435000992311F0873011F410925303FF91EF91DC
:10436000BF91AF919F918F917F916F915F914F918D
:104370003F912F910F900FBE0F901F901895809135
:104380002A038111FCCF81E080932A0308950F93C3
:104390001F93CF93DF93E0916200F091630010824E
:1043A000A7E4B3E050E040E061E070E016E01A0FEF
:1043B0009D91E92FF0E0E35BFC4F80818B3078F139
:1043C000E0916200F0916300EB0101C0CC0F9A957F
:1043D000EAF790819C2B908390E0841B9109E091F7
:1043E0006200F0916300252F30E08530910534F4B0
:1043F000E20FF31F8081C82BC08311C08A30910562
:1044000014F48AE090E0E20FF31FC183E0916600AC
:10441000F0916700E20FF31F8083480F5F5F1A136C
:10442000C7CF852F90E0E0916600F0916700E80F1C
:10443000F91F40954083563040F42091660030913A
:104440006700F901E80FF91F1182DF91CF911F91E9
:104450000F910895CF9380912903811127C0F8947B
:1044600010924703C1E0C093480382E08093490360
:1044700083E080934A0384E080934B0385E080933C
:104480004C030E94C7210E94473487B38F6087BBCB
:1044900081B38C6081BB85B58B6085BD89B7806831
:1044A00089BF8FEF83BD7894C0932903CF9108957E
:1044B00080912A038111FCCF0E941D210E94C721F7
:1044C0000C94BF21FC01108208950F931F93CF938A
:1044D000DF9300D0CDB7DEB78C0119821A8269E66E
:1044E00070E084E593E00E94C92E42E050E0BE01F6
:1044F0006F5F7F4F84E593E00E94712F84E593E026
:104500000E94DE2E60ED77E080E090E00E94D10C0A
:1045100081E0F80180830F900F90DF91CF911F9180
:104520000F9108950F931F93CF93DF931F92CDB7F1
:10453000DEB7FC018081882351F169E670E084E5F3
:1045400093E00E94C92E198241E050E0BE016F5FE6
:104550007F4F84E593E00E94712F42E069E684E595
:1045600093E00E94692F84E593E00E94A42F8C01C0
:1045700084E593E00E94A42F20E030E0382F020F62
:10458000131F84E593E00E94DE2EC80102C080E084
:1045900090E00F90DF91CF911F910F910895FC0152
:1045A0008081089569E670E084E593E00E94C92E59
:1045B00084E593E00E94DE2E91E0811190E0892F46
:1045C00008951F93CF93DF931F92CDB7DEB7FC0101
:1045D0008081882319F1162F69E670E084E593E065
:1045E0000E94C92E1E5F198341E050E0BE016F5F3B
:1045F0007F4F84E593E00E94712F41E069E684E5F6
:1046000093E00E94692F84E593E00E94A42F182F65
:1046100084E593E00E94DE2E812F01C080E00F90A0
:10462000DF91CF911F910895CF93DF9300D0CDB745
:10463000DEB7FC0180818823B1F081E089836A8341
:1046400069E670E084E593E00E94C92E42E050E004
:10465000BE016F5F7F4F84E593E00E94712F84E578
:1046600093E00E94DE2E0F900F90DF91CF9108957E
:10467000FC0110821282118281E0848313820895EA
:10468000FC0110821282118281E0848313820895DA
:10469000CF93DF93FC0124812223B9F1EC0160E682
:1046A00070E084E593E00E94C92E61E084E593E028
:1046B0000E94E12E84E593E00E94DE2E811127C046
:1046C00041E050E060E670E084E593E00E946C2FEA
:1046D00084E593E00E949C2F18161906CCF784E518
:1046E00093E00E94A42F2B81222391F029813A810B
:1046F000820F931F8F3F91051CF08F5F910908C0B7
:1047000097FF06C081509F4F03C080E001C08FEF2C
:10471000DF91CF910895CF93FC018481882371F1BB
:1047200060E670E084E593E00E94C92E6CE084E5C9
:1047300093E00E94E12E84E593E00E94DE2E811139
:1047400020C042E050E060E670E084E593E00E9423
:104750006C2F84E593E00E949C2F0297D4F384E5AC
:1047600093E00E94A42FC82F84E593E00E94A42F19
:1047700020E030E03C2F820F931F05C080E090E0E6
:1047800002C08FEF9FEFCF910895CF93FC018481FA
:10479000882371F160E670E084E593E00E94C92E01
:1047A0006EE084E593E00E94E12E84E593E00E94B0
:1047B000DE2E811120C042E050E060E670E084E52A
:1047C00093E00E946C2F84E593E00E949C2F029757
:1047D000D4F384E593E00E94A42FC82F84E593E0EE
:1047E0000E94A42F20E030E03C2F820F931F05C0D1
:1047F00080E090E002C08FEF9FEFCF9108951F936C
:10480000CF93DF93FC012481222309F1EC01128272
:104810001182138215E629813A812115310579F437
:10482000CE010E94482390E09A8389836AE070E079
:1048300080E090E00E94D10C115069F708C080E838
:1048400090E0821B930B9A83898381E08B83DF91B5
:10485000CF911F910895FC0184810895CF93C62FB5
:1048600060E670E084E593E00E94C92E60E084E594
:1048700093E00E94E12E6C2F84E593E00E94E12EEC
:1048800084E593E00E94DE2E62E370E080E090E039
:10489000CF910C94D10CCF93DF93EC0160EF0E9489
:1048A0002E2465EFCE010E942E2467EFCE01DF910A
:1048B000CF910C942E2468EF0E942E2462E370E0C6
:1048C00080E090E00C94D10CFC0189E2818313829A
:1048D000128214820895EF92FF921F93CF93DF9379
:1048E0001F92CDB7DEB77C01162FFC01618184E5F4
:1048F00093E049830E94BF2E612F84E593E00E94DC
:10490000E12E4981642F84E593E00E94E12E84E545
:1049100093E00E94DE2EF70180830F90DF91CF910C
:104920001F91FF90EF9008951F93CF93DF93EC01B9
:10493000162F462F4F776AE80E946B241983DF9168
:10494000CF911F910895EF92FF921F93CF93DF9322
:1049500000D0CDB7DEB77C01162FFC01618184E564
:1049600093E04A8359830E94BF2E612F84E593E030
:104970000E94E12E5981652F84E593E00E94E12E8B
:104980004A81642F84E593E00E94E12E84E593E060
:104990000E94DE2EF70180830F900F90DF91CF9160
:1049A0001F91FF90EF900895CF92DF92EF92FF92C8
:1049B0001F93CF93DF93EC01162F69017A01698170
:1049C00084E593E00E94BF2E612F84E593E00E946E
:1049D000E12E6F2D77278827992784E593E00E94A1
:1049E000E12EB7018827992784E593E00E94E12E04
:1049F00099278F2D7E2D6D2D84E593E00E94E12E69
:104A00006C2D84E593E00E94E12E84E593E00E9402
:104A1000DE2E8883DF91CF911F91FF90EF90DF9082
:104A2000CF9008951F93CF93DF93EC01162F6981E8
:104A300084E593E00E94BF2E612F84E593E00E94FD
:104A4000E12E84E593E00E94DE2E888341E06981B7
:104A500084E593E00E94692F84E593E00E94A42FEF
:104A6000DF91CF911F9108951F93CF93DF93EC01B6
:104A7000162F698184E593E00E94BF2E612F84E5A3
:104A800093E00E94E12E84E593E00E94DE2E88836D
:104A900042E0698184E593E00E94692F84E593E018
:104AA0000E94A42FD82F80E0C82F84E593E00E94B5
:104AB000A42F8C2B9D2BDF91CF911F910895CF9226
:104AC000DF92EF92FF92CF93DF93EC01F62E698194
:104AD00084E593E00E94BF2E6F2D84E593E00E9451
:104AE000E12E84E593E00E94DE2E888344E0698114
:104AF00084E593E00E94692F84E593E00E94A42F4F
:104B00006C01990FEE08FF08FC2CEE24DD24CC2468
:104B100084E593E00E94A42F092E000CAA0BBB0B86
:104B2000DC0199278827C82AD92AEA2AFB2A84E5A2
:104B300093E00E94A42FC82F84E593E00E94A42F45
:104B4000092E000CAA0BBB0BC82AD92AEA2AFB2A79
:104B500040E050E05C2F60E070E0CB01BA016C29CE
:104B60007D298E299F29DF91CF91FF90EF90DF90D3
:104B7000CF900895CF92DF92EF92FF921F93CF9341
:104B8000DF9300D0CDB7DEB77C01D62E142FFC0109
:104B9000618184E593E029835A830E94BF2E6D2DA5
:104BA00084E593E00E94E12EC12E5A81D52E298101
:104BB000120F1C1541F0F60161916F0184E593E03D
:104BC0000E94E12EF6CF84E593E00E94DE2EF701ED
:104BD00080830F900F90DF91CF911F91FF90EF9006
:104BE000DF90CF900895CF92DF92EF92FF920F93D4
:104BF0001F93CF93DF931F92CDB7DEB76C01F62ED4
:104C0000142F022FFC01618184E593E059830E94F7
:104C1000BF2E6F2D84E593E00E94E12E84E593E0A2
:104C20000E94DE2EF6018083402F618184E593E0AF
:104C30000E94692FE12E5981F52E100F1E1541F0AB
:104C400084E593E00E94A42FF70181937F01F6CFC2
:104C50000F90DF91CF911F910F91FF90EF90DF9018
:104C6000CF900895CF92DF92EF92FF92CF93DF9390
:104C7000EC016A017B0120E030E0A901C701B60127
:104C80000E94493587FD1BC028EB3EEF4FEF53E4F0
:104C9000C701B6010E94EC3618168CF020E030E017
:104CA00040E053E4C701B6010E94F1360E94CC35C2
:104CB000AB0164E4CE010E94A32481E001C080E046
:104CC000DF91CF91FF90EF90DF90CF90089564E453
:104CD0000E943425BC0180E090E00E94FB3520E07A
:104CE00030E040E05CE30E94F1360895611102C0BB
:104CF00060E503C0613031F460E70E9412258F5FE8
:104D0000880F08958FEF0895CF92DF92EF92FF9270
:104D1000CF93DF93EC016A017B0141E060E80E94E0
:104D20006B2441E06FEFCE010E946B2440E060E015
:104D3000CE010E946B244F8161E9CE010E946B2459
:104D400041E060E0CE010E946B2440E06FEFCE01B5
:104D50000E946B2440E060E8CE010E946B24C114E5
:104D6000D104E104F104A9F068EFCE010E943425DA
:104D7000009739F0DC01A70196010E94A8346B016D
:104D80007C01A701960164E0CE010E94D42444E096
:104D900001C042E060E0CE01DF91CF91FF90EF9043
:104DA000DF90CF900C946B24CF93DF93EC0141E024
:104DB00060E00E946B2441E06FEFCE010E946B2403
:104DC00040E060E0CE010E946B2440E061E9CE014A
:104DD0000E946B2441E060E0CE010E946B2440E021
:104DE0006FEFCE01DF91CF910C946B240F931F9343
:104DF000CF93DF93EC010E94C80C7E836D8363E147
:104E0000CE010E9412258770A1F48A819B81892B93
:104E1000B1F30E94C80C2D813E81621B730B8A8105
:104E20009B818617970758F781E08C838FEF9FEF60
:104E30000BC06EE1CE010E9434258C0141E06BE095
:104E4000CE010E946B24C801DF91CF911F910F9179
:104E50000895CF93DF93EC0141E060E80E946B245A
:104E600041E06FEFCE010E946B2440E060E0CE0194
:104E70000E946B244F8161E9CE010E946B2441E0C6
:104E800060E0CE010E946B2440E06FEFCE010E94F3
:104E90006B2440E060E8CE010E946B2441E060E0BA
:104EA000CE010E946B240E94C80C7E836D8360E05B
:104EB000CE010E94122580FF16C08A819B81892B1A
:104EC000B1F30E94C80C2D813E81621B730B8A8155
:104ED0009B818617970758F781E08C838FEF9FEFB0
:104EE000DF91CF910895CE01DF91CF910C94F626FA
:104EF000FC01848114820895EF92FF920F931F9317
:104F0000CF93DF93EC017B018A0141E060E80E94CE
:104F10006B2441E06FEFCE010E946B2440E060E023
:104F2000CE010E946B2446E06FEFCE010E946B24FD
:104F300063E8CE010E941225482F446063E8CE0149
:104F40000E946B2447E06FEFCE010E946B2441E08A
:104F500061E8CE010E946B2441E060E8CE010E942E
:104F60006B244BE664E9CE010E946B2440E063E8C9
:104F7000CE010E946B240E94C80C7E836D8363E87F
:104F8000CE010E941225811111C08A819B81892B3B
:104F9000B1F30E94C80C2D813E81621B730B8A8184
:104FA0009B818617970758F780E03CC041E063E893
:104FB000CE010E946B2462E9CE010E941225982F37
:104FC0009F77F7019083982F991F9927991FF801D0
:104FD000908340E061E8CE010E946B2446E06FEFD1
:104FE000CE010E946B2463E8CE010E941225482F57
:104FF0004B7F63E8CE010E946B2441E06FEFCE014E
:105000000E946B2441E060E0CE010E946B2440E0EE
:105010006FEFCE010E946B2440E060E8CE010E9459
:105020006B2481E0DF91CF911F910F91FF90EF9062
:105030000895CF93DF93EB0161E00E94122584FB7A
:10504000992790F9988383FB992790F99A8382FB9B
:10505000992790F9998386FB222720F92B83881FB3
:105060008827881F8C83DF91CF9108959C01332777
:10507000A90102C0440F551F9A95E2F7CA01019693
:1050800008950F931F930097C9F0AC014150510947
:1050900060E070E080E090E08A019B010027012B36
:1050A000022B032B31F0769567955795479501961E
:1050B000F3CF982F8827842B952B02C080E090E0B7
:1050C0001F910F9108958F929F92AF92BF92CF92AE
:1050D000DF92EF92FF92CF93DF93EC01A62FB0E027
:1050E00020E03FE24AE350E00E94A8346C507E4F3B
:1050F0008F4F9F4F28EEC22E23E0D22EE12CF12CB1
:10510000A70196010E94863449015A01B694A794DA
:1051100097948794DE010E94A834680D791D8A1D3A
:105120009B1DA70196010E948634CA01B901DF9137
:10513000CF91FF90EF90DF90CF90BF90AF909F9076
:105140008F900895EF92FF920F931F93CF93DF9369
:105150008C017B01EA0160E00E94762690E0998351
:10516000888366E4C8010E941225282F30E0C90117
:1051700001969D838C8368810E9463286A877B8760
:105180008C879D8761E5C8010E9434250E943628DE
:105190009F838E8368810E9463286E877F87888BB8
:1051A000998B60E7C8010E9412258F5F880F90E0FD
:1051B0009B838A8361E7C8010E9434250E943628B8
:1051C00099878887F7012381222331F02E813F813F
:1051D000821B930B998788876A81888599850E94AD
:1051E00063286A8B7B8B8C8B9D8BDF91CF911F917A
:1051F0000F91FF90EF900895CF92DF92EF92FF9280
:105200000F931F93CF93DF93CDB7DEB76B970FB696
:10521000F894DEBF0FBECDBF8C01BE01695E7F4F2B
:105220000E941928AE014F5F5F4FBE01695E7F4F3C
:10523000C8010E94A2288F89882359F08B859C85FC
:10524000AD85BE85BC01CD016C57724F8F4F9F4F0E
:1052500004C066E37BE080E090E0298D222379F0B2
:10526000CB84DC84ED84FE8422EBC20E22E0D21ECD
:10527000E11CF11CCC0CDD1CEE1CFF1C0DC0288DAC
:10528000222371F0CB84DC84ED84FE84E4E9CE0E2D
:10529000E2E0DE1EE11CF11C6C0D7D1D8E1D9F1DCC
:1052A0002A8D222371F0CF84D888E988FA88F4E91E
:1052B000CF0EF2E0DF1EE11CF11C6C0D7D1D8E1D7A
:1052C0009F1D2B8D222371F0CB88DC88ED88FE8812
:1052D00026E2C20E22E0D21EE11CF11C6C0D7D1DE7
:1052E0008E1D9F1DF80160877187828793876B965B
:1052F0000FB6F894DEBF0FBECDBFDF91CF911F91E7
:105300000F91FF90EF90DF90CF9008954F925F92B2
:105310006F927F928F929F92AF92BF92CF92DF92C5
:10532000EF92FF924B015C01A42FB0E020E03FE23E
:105330004AE350E00E94A8346C507E4F8F4F9F4F3D
:1053400028EE33E040E050E00E94863469017A01A3
:1053500029013A017694679457944794A8EEB3E0F4
:10536000A50194010E94A834640D751D861D971D2A
:10537000A70196010E948634CA01B901FF90EF90FF
:10538000DF90CF90BF90AF909F908F907F906F9065
:105390005F904F9008958F929F92AF92BF92DF924D
:1053A000EF92FF920F931F93CF93DF93CDB7DEB7AA
:1053B0006B970FB6F894DEBF0FBECDBF40322EE420
:1053C00052076105710508F47AC04A015B017C014E
:1053D000BE01695E7F4F0E941928AE014F5F5F4F8B
:1053E000BE01695E7F4FC7010E94A2288F89882372
:1053F00049F00B851C852D853E850A5C144F2F4F87
:105400003F4F04C008EE18E020E030E0898D88238B
:1054100069F08B859C85AD85BE858E549D4FAF4FC1
:10542000BF4F880F991FAA1FBB1F0BC0888D8823F1
:1054300061F08B859C85AD85BE858C569D4FAF4FA9
:10544000BF4F080F191F2A1F3B1FDA8CDD2061F0A8
:105450008F859889A989BA898C569D4FAF4FBF4FC8
:10546000080F191F2A1F3B1F8B8D882331F10A5DFE
:105470001D4F2F4F3F4F80169106A206B306F8F03E
:10548000C501B401601B710B820B930B4B810E9411
:1054900086299B01DD2021F02F813885260F371FBB
:1054A000C9010E944128AC0161E7C7010E94A32401
:1054B000F70180869186A286B38681E001C080E0F4
:1054C0006B960FB6F894DEBF0FBECDBFDF91CF91C4
:1054D0001F910F91FF90EF90DF90BF90AF909F9042
:1054E0008F900895CF93DF93EC01462F416060E0E9
:1054F0000E946B240E94C80C7E836D8363E1CE0101
:105500000E941225877089F48A819B81892BB1F3CF
:105510000E94C80C2D813E81621B730B8A819B8186
:105520008617970758F780E00BC041E06BE0CE018B
:105530000E946B2440E060E0CE010E946B2481E079
:10554000DF91CF910895FF920F931F93CF93DF9335
:10555000CDB7DEB728970FB6F894DEBF0FBECDBF2C
:105560008C01662349F069E80E941225482F4160AA
:1055700069E8C8010E946B2440E068E8C8010E9405
:105580006B2441E060E8C8010E946B2441E06FEFAA
:10559000C8010E946B2440E060E0C8010E946B24B7
:1055A00061E9C8010E941225F801878341E060E0AB
:1055B000C8010E946B2440E06FEFC8010E946B2479
:1055C00040E060E8C8010E946B2460E6C8010E94C8
:1055D0001225482F426160E6C8010E946B2440E01A
:1055E00050E060E87EE3C8010E9432264FEF61E0A0
:1055F000C8010E946B24AE01495F5F4FBE01685F26
:105600007F4FC8010E947C27811102C0F12C31C25A
:1056100026E0AE014F5F5F4F60EBC8010E94F325AB
:1056200041E06FEFC8010E946B2440E06FE4C801C5
:105630000E946B244CE26EE4C8010E946B2440E09F
:105640006FEFC8010E946B2444EB66EBC8010E9417
:105650006B248F81811102C040E001C04CE0A8851D
:1056600080E090E061E070E0282F26952695269551
:10567000582F5770E1E0F0E0EC0FFD1FE20FF11D35
:10568000841710F09A130AC09B0101C0220F5A958B
:10569000EAF7209530812323208309C0208130E060
:1056A00002C0359527955A95E2F720FD9F5F8F5FE1
:1056B0008033D1F626E0AE014F5F5F4F60EBC8014B
:1056C0000E94BA2541E06FEFC8010E946B2440E0C0
:1056D00060E0C8010E946B2440E06FEFC8010E94A7
:1056E0006B2440E069E0C8010E946B2440E060E167
:1056F000C8010E946B2440E061E1C8010E946B2454
:1057000041E064E2C8010E946B244FEF65E2C801EA
:105710000E946B2440E065E7C8010E946B2441E0D1
:105720006FEFC8010E946B244CE26EE4C8010E9436
:105730006B2440E068E4C8010E946B2440E260E30F
:10574000C8010E946B2440E06FEFC8010E946B24E7
:1057500049E060E3C8010E946B2440E064E5C801B1
:105760000E946B2444E061E3C8010E946B2443E083
:1057700062E3C8010E946B2443E860E4C8010E9410
:105780006B2445E266E4C8010E946B2440E060E6B9
:10579000C8010E946B2440E067E2C8010E946B24AC
:1057A00046E060E5C8010E946B2440E061E5C80165
:1057B0000E946B2446E962E5C8010E946B2448E020
:1057C00066E5C8010E946B2440E367E5C8010E94BA
:1057D0006B2440E061E6C8010E946B2440E062E671
:1057E000C8010E946B2440E064E6C8010E946B245B
:1057F00040E065E6C8010E946B2440EA66E6C80105
:105800000E946B2441E06FEFC8010E946B2442E3C9
:1058100062E2C8010E946B2444E167E4C8010E946F
:105820006B244FEF69E4C8010E946B2440E06AE4F6
:10583000C8010E946B2440E06FEFC8010E946B24F6
:105840004AE06AE7C8010E946B2440E06BE7C801A8
:105850000E946B2441E268E7C8010E946B2441E08A
:105860006FEFC8010E946B2444E363E2C8010E9409
:105870006B2440E062E4C8010E946B244FEF64E4B3
:10588000C8010E946B2446E265E4C8010E946B24B3
:1058900045E066E4C8010E946B2440E460E4C8016E
:1058A0000E946B2446E06EE0C8010E946B244AE12E
:1058B00060E2C8010E946B2440E463E4C8010E94D6
:1058C0006B2440E06FEFC8010E946B2443E064E367
:1058D000C8010E946B2444E465E3C8010E946B2464
:1058E00041E06FEFC8010E946B2444E061E3C8010E
:1058F0000E946B2449E06BE4C8010E946B2445E0E0
:105900006CE4C8010E946B2444E06DE4C8010E946D
:105910006B2440E06FEFC8010E946B2440E064E418
:10592000C8010E946B2440E265E4C8010E946B2418
:1059300048E067E4C8010E946B2448E268E4C801BB
:105940000E946B2440E067E6C8010E946B2444E09B
:1059500060E7C8010E946B2441E061E7C8010E9432
:105960006B244EEF62E7C8010E946B2440E066E7BB
:10597000C8010E946B2440E067E7C8010E946B24C5
:1059800041E06FEFC8010E946B2441E06DE0C80167
:105990000E946B2440E06FEFC8010E946B2441E03D
:1059A00060E8C8010E946B2448EF61E0C8010E94D2
:1059B0006B2441E06FEFC8010E946B2441E06EE868
:1059C000C8010E946B2441E060E0C8010E946B2482
:1059D00040E06FEFC8010E946B2440E060E8C8011E
:1059E0000E946B2444E06AE0C8010E946B2464E8D2
:1059F000C8010E941225482F4F7E64E8C8010E940A
:105A00006B2441E06BE0C8010E946B24C8010E9436
:105A1000FC28F801608771878287938748EE61E0F0
:105A2000C8010E946B24F801408551856285738509
:105A3000C8010E94CB2941E061E0C8010E946B24AB
:105A400060E4C8010E94722A882309F4DFCD42E095
:105A500061E0C8010E946B2460E0C8010E94722AC4
:105A6000F82E882309F4D2CD48EE61E0C8010E94E7
:105A70006B248F2D28960FB6F894DEBF0FBECDBFD6
:105A8000DF91CF911F910F91FF900895DF92EF92D8
:105A9000FF920F931F93CF93DF93CDB7DEB76B9732
:105AA0000FB6F894DEBF0FBECDBF8C01D62EF42EFC
:105AB000E42EE694EA94BE01695E7F4F0E941928A5
:105AC000AE014F5F5F4FBE01695E7F4FC8010E940C
:105AD000A228D11044C02EE0F21679F02F1528F03C
