:100000000C94A5010C94CD010C94CD010C94CD0160
:100010000C9445130C94CD010C94CD010C94D32178
:100020000C94CD010C94CD010C94520A0C94CD018A
:100030000C94CD010C94AE080C94DA080C94CD010C
:100040000C94CD010C94CD010C94CD010C9475232E
:100050000C94CD0105A84CCDB2D44EB93836A902C6
:100060000C50B9918688083CA6AAAA2ABE000000B6
:10007000803F0D0A00506978793A207069787920BC
:10008000726573706F6E6473206275742073656E31
:10009000647320676172626167652E2043686563DF
:1000A0006B20796F757220493243004552524F528E
:1000B0003A20000D0A00434D5053303320736574CD
:1000C0004173313238446567726565206572726FBD
:1000D00072004552524F523A20000D0A00434D50D3
:1000E000533033206E6F7420696E697469616C6976
:1000F0007A6564004552524F523A20000D0A00437F
:100100004D50533033206E6F7420696E697469618D
:100110006C697A6564004552524F523A20000D0ACC
:1001200000434D5053303320636F6E6E65637469C6
:100130006F6E2070726F626C656D004552524F5247
:100140003A20000D0A00476F6C64626F6172643A76
:10015000206932632070726F626C656D20776974FC
:100160006820706F7274657870616E6465720045A6
:1001700052524F523A2000656E64206932632073F8
:1001800063616E0D0A0020756E6B6F776E0D0A004D
:100190002049324320506F7274657870616E6465D7
:1001A000720D0A00204C617365720D0A0020556CB7
:1001B000747261736368616C6C0D0A002050697819
:1001C000790D0A00204B6F6D706173730D0A00206A
:1001D000557372696E670D0A0020202000737461E8
:1001E000727420693263207363616E205B37206212
:1001F0006974206164647265737320696E2064653C
:1002000063696D616C5D0D0A002D2D2D0D0A005383
:100210004D2C300D0A00537E2C330D0A0047420D41
:100220000A00242424002D2D2D0D0A000D0A004360
:100230002C00534D2C310D0A00537E2C330D0A0037
:1002400047420D0A002424240000407A10F35A008B
:10025000A0724E18090010A5D4E80000E8764817EF
:100260000000E40B54020000CA9A3B000000E1F5D4
:1002700005000080969800000040420F000000A09A
:100280008601000000102700000000E803000000C5
:10029000006400000000000A0000000000010000EF
:1002A0000000002C76D888DC674F0823DFC1DFAE62
:1002B00059E1B1B796E5E3E453C63AE6519976962B
:1002C000E8E6C28426EB898C9B62ED407C6FFCEFF4
:1002D000BC9C9F40F2BAA56FA5F490055A2AF75C22
:1002E000936B6CF9676DC11BFCE0E40D47FEF520D4
:1002F000E6B500D0ED902E0300943577050080849C
:100300001E080000204E0A000000C80C33333333AF
:100310000F986E12831141EF8D2114893BE655161B
:10032000CFFEE6DB18D1844B381BF77C1D901DA453
:10033000BBE424203284725E228100C9F124ECA146
:10034000E53D270037259725912511241FBECFE5D0
:10035000D8E0DEBFCDBF11E0A0E6B0E0EAEEFBE5FD
:1003600002C005900D92A032B107D9F723E0A0E2B8
:10037000B1E001C01D92A33EB207E1F711E0C4EA6B
:10038000D1E004C02197FE010E948826C23AD1071D
:10039000C9F70E942E250C94E82D0C9400006DE600
:1003A00071E08FE00E9440118DE491E00E946709A6
:1003B00082E591E00E94670987E591E00E94670964
:1003C0008CE591E00E94670988E491E00E94D70CD7
:1003D00087E491E00E9463148CE193E00E949820EE
:1003E00088E491E00E94810C64E687E491E00C943B
:1003F00012154F925F926F927F928F929F92AF925F
:10040000BF92CF92DF92EF92FF920F931F93CF9301
:10041000DF9300D000D0CDB7DEB706E211E0F801DF
:1004200060817181605A7109072E000C880B990B4D
:100430000E944C274B015C01F8016281738166596F
:100440007109072E000C880B990B0E944C276B0139
:100450007C01609120017091210160587109072E83
:10046000000C880B990B0E944C272B013C0120E0CB
:1004700030E040E450E40E94402869837A838B8313
:100480009C83C501B4019058A70196010E949D2646
:10049000A30192010E949D260E94142771956195E7
:1004A000710981E691E00E942F12A7019601C50112
:1004B000B4010E949D2629813A814B815C810E9472
:1004C0009E260E94142784E691E00E942F12A70125
:1004D0009601C501B4010E949E2629813A814B8173
:1004E0005C810E949E260E94142787E691E00E946C
:1004F0002F12A5019401C701B6010E949D26A301F8
:1005000092010E949D260E9414278AE691E00F9096
:100510000F900F900F90DF91CF911F910F91FF904F
:10052000EF90DF90CF90BF90AF909F908F907F9093
:100530006F905F904F900C942F12809126019091B4
:100540002701803A9105ACF46EEC7FEF81E691E0F3
:100550000E942F1262E370E084E691E00E942F1265
:1005600062E370E087E691E00E942F1262E370E0A0
:1005700014C062E370E081E691E00E942F126EECFD
:100580007FEF84E691E00E942F126EEC7FEF87E60A
:1005900091E00E942F126EEC7FEF8AE691E00C94BE
:1005A0002F12EF92FF920F931F93CF93DF93C0917F
:1005B0002C01D0912D01E0E0F0E08FEF9FEF60E0A3
:1005C00070E020E030E001E010E0A0E1EA2EF12C44
:1005D000AF014F705527D80102C0AA0FBB1F4A9523
:1005E000E2F7AD014C235D23452B99F062177307A9
:1005F0009CF4CF010197A90137FF02C04F5F5F4F05
:1006000055954795841B950BB7010E943326B90178
:1006100003C02F5F3F4F02C020E030E03196E03250
:10062000F105B1F6DF91CF911F910F91FF90EF90FF
:1006300008958F929F92AF92BF92CF92DF92EF92E6
:10064000FF920E94B30AC0907501D0907601E090AD
:100650007701F0907801DC01CB018C199D09AE097E
:10066000BF09893C9105A105B10530F00E94D10276
:1006700090937401809373010E94B30A6093750193
:100680007093760180937701909378016091730164
:1006900070917401072E000C880B990B0E944C2757
:1006A00026E53EE049EC5EE30E9440280E940F27C9
:1006B0006B017C0120E030E048EC52EC0E944028C5
:1006C0000E94142781E691E00E942F12C701B60113
:1006D000905820E030E048EC52E40E9440280E940C
:1006E00014274B015C0184E691E00E942F12B401B3
:1006F00087E691E00E942F1220E030E048EC52E4BF
:10070000C701B6010E9440280E9414278AE691E0A2
:10071000FF90EF90DF90CF90BF90AF909F908F9021
:100720000C942F1280E790E00E94B21062E181E603
:1007300091E00E94A90D8111F9CF08958F929F92A7
:10074000AF92BF92DF92EF92FF920F931F93CF93DE
:10075000DF930E94B30A00918B0110918C012091CC
:100760008D0130918E01DC01CB01801B910BA20B1E
:10077000B30B82349105A105B10508F451C08091F5
:10078000890190918A0181309105F1F06CF4892BF7
:1007900081F541E063E68CE591E00E94220A9093A6
:1007A00037018093360125C082309105C1F003974F
:1007B00001F541E063E68DE491E00E94220A909306
:1007C0003D0180933C0115C041E063E687E591E07F
:1007D0000E94220A90933901809338010AC041E0B7
:1007E00063E682E591E00E94220A90933B018093A8
:1007F0003A018091890190918A01019664E070E04C
:100800000E94332690938A01809389010E94B30A43
:1008100060938B0170938C0180938D0190938E0176
:100820000E94B30A009185011091860120918701F1
:1008300030918801DC01CB01801B910BA20BB30B23
:100840004597A105B10598F088E491E00E94400C1D
:1008500090E090932101809320010E94B30A60935D
:1008600085017093860180938701909388010E948F
:10087000B30A00918101109182012091830130918E
:100880008401DC01CB01801B910BA20BB30B4597BC
:10089000A105B10508F4C5C080914101811109C0CD
:1008A0008EE391E00E94C924811105C080E090E0B0
:1008B00097C01092410110924401109243010CE044
:1008C000DD24D394809143019091440182389105B5
:1008D00068F780E491E00E94AF24EC01809143012D
:1008E00090914401C5352AEAD20731F421E02093E2
:1008F00041011092420174C0C635EAEADE0731F4C4
:1009000021E020934101209342016AC0209709F41D
:1009100067C0209145013091460128173907A8F496
:10092000225E3F4F3093460120934501029FB00164
:10093000039F700D112480913E0190913F010E9410
:10094000432A90933F0180933E01209143013091CF
:100950004401029FC001039F900D1124E0903E01CD
:10096000F0903F01E80EF91E4701A12CB12C10E0D8
:1009700080914201811106C0153021F4F7011386E0
:1009800012860DC080E491E00E94AF24A80EB91E2B
:10099000F401819391934F011F5F163049F7CA15F7
:1009A000DB0549F4809143019091440101969093B5
:1009B00044018093430180E491E00E94AF24853597
:1009C000FAEA9F0719F4109242017CCF86359A4AC1
:1009D00019F4D092420176CF809143019091440165
:1009E00090932B0180932A011816190684F4E09144
:1009F0003E01F0913F018281938190932701809382
:100A000026018481958190932901809328010E9479
:100A1000B30A609381017093820180938301909364
:100A200084010E94B30A00917D0110917E01209102
:100A30007F0130918001DC01CB01801B910BA20B67
:100A4000B30B0397A105B10590F087E491E00E94F4
:100A5000901490932D0180932C010E94B30A60930F
:100A60007D0170937E0180937F01909380010E94AD
:100A7000B30A0091790110917A0120917B013091A4
:100A80007C01DC01CB01801B910BA20BB30B039704
:100A9000A105B10590F161E081E691E00E94BA0EF6
:100AA00090E090932F0180932E0160E081E691E029
:100AB0000E94BA0E90E0909331018093300163E080
:100AC00081E691E00E94BA0E90E09093330180930A
:100AD000320162E081E691E00E94BA0E90E09093CC
:100AE0003501809334010E94B30A609379017093B9
:100AF0007A0180937B0190937C01DF91CF911F91CC
:100B00000F91FF90EF90DF90BF90AF909F908F90EC
:100B100008958F929F92AF92BF92EF92FF920F93A0
:100B20001F93CF93DF930E94B30A4B015C01C0E097
:100B3000D0E062E181E691E00E94A90D882309F4EA
:100B40009EC161E181E691E00E94A90D81110DC075
:100B5000219664EF71E080E090E00E94BC0A0E9460
:100B6000A9108AE790E00E94B210C130D10509F4C3
:100B7000A7C0C230D10509F4C9C02097C1F60E94B0
:100B80009E030E94B30ADC01CB0188199909AA09C6
:100B9000BB09893E9340A105B10558F20E94A910F6
:100BA00060E080E00E949A108091360190913701B8
:100BB0000E94BE1060E084E00E949A10809138018B
:100BC000909139010E94BE1060E088E00E949A1066
:100BD00080913A0190913B010E94BE1060E08CE050
:100BE0000E949A1080913C0190913D010E94BE109C
:100BF00061E080E00E949A10809120019091210193
:100C00000E94BE1061E084E00E949A1080912A0147
:100C100090912B010E94BE1080912A0190912B018E
:100C200018161906A4F461E088E00E949A108091D9
:100C30002601909127010E94BE1061E08CE00E9485
:100C40009A1080912801909129010E94BE1062E0C3
:100C500080E00E949A1060E170E080912C019091F8
:100C60002D010E94F11063E080E00E949A108091B3
:100C70002E0190912F010E94BE1063E084E00E943B
:100C80009A1080913001909131010E94BE1063E072
:100C900088E00E949A1080913201909133010E9465
:100CA000BE1063E08CE00E949A1080913401909114
:100CB00035010E94BE100E94B30A4B015C0139CF7E
:100CC0000E94A910E12CF12C00E010E0B80175950C
:100CD0006795759567958E2D8F700E949A10602F7D
:100CE00087E491E00E94DF1490E00E94BE100F5F45
:100CF0001F4F84E0E80EF11C0031110539F768EE52
:100D000073E080E090E00E94BC0A13CF0E94A9101B
:100D100084E890E00E94B2106CE97FEF81E691E0F8
:100D20000E942F1264EF71E080E090E00E94BC0A04
:100D300064E670E081E691E00E942F1264EF71E0BA
:100D400080E090E00E94BC0A60E070E081E691E003
:100D50000E942F1268EE73E080E090E00E94BC0ACF
:100D600064E670E084E691E00E942F1264EF71E087
:100D700080E090E00E94BC0A6CE97FEF84E691E09D
:100D80000E942F1264EF71E080E090E00E94BC0AA4
:100D900060E070E084E691E00E942F1268EE73E05C
:100DA00080E090E00E94BC0A64E670E087E691E093
:100DB0000E942F1264EF71E080E090E00E94BC0A74
:100DC0006CE97FEF87E691E00E942F1264EF71E0FB
:100DD00080E090E00E94BC0A60E070E087E691E06D
:100DE0000E942F1268EE73E080E090E00E94BC0A3F
:100DF00064E670E08AE691E00E942F1264EF71E0F1
:100E000080E090E00E94BC0A6CE97FEF8AE691E006
:100E10000E942F1264EF71E080E090E00E94BC0A13
:100E200060E070E08AE691E00E942F1268EE73E0C5
:100E300080E090E00E94BC0A6EEC7FEF81E691E0DA
:100E40000E942F1262E370E084E691E00E942F126C
:100E500062E370E087E691E00E942F1262E370E0A7
:100E60008AE691E00E942F1268EE73E080E090E045
:100E70000E94BC0A81E691E00E94F90C58CEDF91F5
:100E8000CF911F910F91FF90EF90BF90AF909F90E7
:100E90008F900895CF92DF92EF92FF920F931F935E
:100EA000CF93DF930E94A9108FE890E00E94B210C8
:100EB0000E94B30A6B017C01C0E0D0E004EF11E0B6
:100EC00062E181E691E00E94A90D882309F449C0FE
:100ED000209769F40E94A91087E990E00E94B2105F
:100EE0000E94B30ACB018C199D090E94BE100E947A
:100EF000B30A6B017C01209721F461E080E00E943D
:100F00009A100E949E0380912C0190912D01892BB3
:100F100049F0209721F482EA90E00E94B2100E94EA
:100F2000190318C080912A0190912B0118161906F7
:100F30004CF4209721F488EA90E00E94B2100E94BD
:100F4000F90108C0209721F48DEA90E00E94B210C8
:100F50000E949D02CE010196B8010E943326EC0149
:100F6000AFCF81E691E0DF91CF911F910F91FF907C
:100F7000EF90DF90CF900C94F90CCF93DF9384EB3C
:100F800090E00E94B210C1E0D0E062E181E691E021
:100F90000E94A90D882309F462C00E94A91061E192
:100FA00081E691E00E94A90D81111BC081E691E0CC
:100FB0000E94F90C21968AE790E00E94B21068EE38
:100FC00073E080E090E00E94BC0A0E94A91086ECC9
:100FD00090E00E94B21060ED77E080E090E00E9427
:100FE000BC0AC130D105A1F0C230D10509F120976A
:100FF00099F58DEA90E00E94B2100E949E038091C4
:101000002A0190912B01892B11F50E949D02BDCFE1
:1010100088ED90E00E94B2100E949E0380912A0108
:1010200090912B011816190694F40E94F901ADCF86
:1010300082EA90E00E94B2100E949E0380912C01EF
:1010400090912D01892B19F00E9419039ECF81E602
:1010500091E00E94F90C99CFC0E0D0E096CF81E6F4
:1010600091E0DF91CF910C94F90CCF93DF930E9424
:10107000A91081E691E00E94F90C8FED90E00E94AA
:10108000B21061E080E00E949A1085EE90E00E942C
:10109000B21062E080E00E949A1082EF90E00E941D
:1010A000B21063E080E00E949A1089EF90E00E9405
:1010B000B210C0E0D0E06C2F8FE00E949A106AE07E
:1010C00070E080E090E00E94BC0A62E181E691E07D
:1010D0000E94A90D811102C0219614C061E181E630
:1010E00091E00E94A90D811105C0219758F4C0E03C
:1010F000D0E00DC063E181E691E00E94A90D81116D
:10110000DACF0CC0C530D10514F0C4E0D0E064EFF4
:1011100071E080E090E00E94BC0ACDCF0E94A9104F
:10112000C130D10571F02CF4CD2B81F40E944A0717
:101130000DC0C230D10541F0239741F40E94BD0794
:1011400005C00E94890502C00E94920364EF71E00D
:1011500080E090E0DF91CF910C94BC0A1F920F9237
:101160000FB60F9211242F938F939F93EF93FF93BA
:101170008BB19CB18871E0919101EF5FEF7120918B
:101180009001E21739F0E0939101F0E0EC56FE4F48
:10119000908301C082E090918F01892B80938F0111
:1011A000FF91EF919F918F912F910F900FBE0F9014
:1011B0001F9018951F920F920FB60F9211248F93C4
:1011C0009F93EF93FF9390919301809192019817D1
:1011D00061F0E0919201EF5FEF71E0939201F0E036
:1011E000EC54FE4F80818CB901C05598FF91EF916E
:1011F0009F918F910F900FBE0F901F901895109296
:10120000930110929201109291011092900197FF18
:1012100003C022E02BB99F7790BD89B988E98AB9CC
:1012200086E880BD08959091910180919001981772
:1012300081F0E0919001EF5FEF71E0939001F0E0B9
:10124000EC56FE4F808190918F0110928F0190E0BB
:10125000089580E091E00895909193019F5F9F71C0
:10126000209192019217E1F3E92FF0E0EC54FE4F48
:10127000808390939301559A0895CF93DF93EC0167
:101280008991882319F00E942C09FACFDF91CF9120
:101290000895CF93DF93FC018491EF012196882379
:1012A00021F00E942C09FE01F7CFDF91CF91089524
:1012B00062E470E080E090E00C94BC0AFC0188E1FC
:1012C00091E09183808362834383248308958CE13A
:1012D00093E00C949820EF92FF920F931F93CF937B
:1012E000DF931F92CDB7DEB77C018B01FC016281D9
:1012F0008CE193E049830E94BD204981642F8CE1F9
:1013000093E00E94DF2001151105B1F0602F8CE100
:1013100093E00E94DF20F7016381662369F08481F6
:10132000882351F08CE193E00E94DF20F701648173
:101330008CE193E00E94DF208CE193E00F90DF913D
:10134000CF911F910F91FF90EF900C94DC206936A4
:1013500049F06D3661F0633651F440E050E061E5EC
:1013600070E009C040E050E060E570E004C040E09B
:1013700050E062E570E00C946B090F931F93CF93DC
:10138000DF93EC018B0140E050E060EA70E00E94E6
:101390006B0940E050E06AEA70E0CE010E946B0900
:1013A00040E050E065EA70E0CE010E946B09B801B0
:1013B000660F771F40E050E0CE01DF91CF911F9183
:1013C0000F910C946B09EF92FF920F931F93CF93A1
:1013D000DF938C01EA01AB0160E070E00E946B09D1
:1013E0004C2FF80162818CE193E00E9467218CE12F
:1013F00093E00E949A218C179D07CCF38E01015037
:10140000104E83E0000F111F8A95E1F7E12CF12CBB
:10141000209781F08CE193E00E94A221002E02C06F
:10142000880F991F0A94E2F7E80EF91E21970850D9
:101430001109EECFC701DF91CF911F910F91FF905E
:10144000EF900895CF93DF93EC01442349F00E947D
:10145000A709E881F9810190F081E02DCE0109957D
:1014600042E050E062E070E0CE01DF91CF910C9459
:10147000E30941E050E060E070E00E94E309089574
:10148000CF93DF93EC01CE010E94390A8F3F39F4EC
:1014900061E070E080E090E00E94BC0AF4CFDF9150
:1014A000CF9108951F920F920FB60F9211242F9390
:1014B0003F934F935F936F937F938F939F93AF93DC
:1014C000BF93EF93FF938091D4019091D501A091A8
:1014D000D601B091D7010196A11DB11D8093D40111
:1014E0009093D501A093D601B093D7018091D901F3
:1014F0008A3079F48091D801811109C081E080930C
:10150000D80178940E94F311F8941092D8011092A7
:10151000D9018091D9018F5F8093D9010E944D0B31
:10152000FF91EF91BF91AF919F918F917F916F91BB
:101530005F914F913F912F910F900FBE0F901F9091
:10154000189583B78B6083BF89B7826089BF8AEFA4
:101550008CBF1092D4011092D5011092D601109236
:10156000D701789408956091D4017091D50180914C
:10157000D6019091D7010895CF92DF92EF92FF921A
:101580000F931F930091D4011091D5012091D601A2
:101590003091D701C090D401D090D501E090D60110
:1015A000F090D701C01AD10AE20AF30AC616D7068C
:1015B000E806F90678F31F910F91FF90EF90DF9006
:1015C000CF900895019739F0880F991F880F991FC0
:1015D00002970197F1F70895FC01108281E0818361
:1015E00012820895FC0162830895FC015081442316
:1015F00049F081E090E001C0880F6A95EAF7852BF9
:10160000808309C021E030E001C0220F6A95EAF72B
:101610002095252320838081581711F081E0818354
:101620000895CF93DF93EC016A818CE193E00E94EF
:10163000BD2041E06A818CE193E00E9467218CE14A
:1016400093E00E94A22188838CE193E00E94DC2039
:101650008881DF91CF910895CF93DF93FC012181A1
:101660002223C1F0EC018CE193E00E94D021811192
:1016700011C06A818CE193E00E94BD2041E050E0FE
:10168000BE018CE193E00E946F218CE193E00E9407
:10169000DC201982DF91CF910895789480B393B3C1
:1016A00092959F70807F892B9091D902E92FF0E06D
:1016B000E652FE4F80839F5F9093D902F89408957D
:1016C00081B38F7081BB84B38F7084BB82B3806F12
:1016D00082BB85B3806F85BB80E090E0FC01E65261
:1016E000FE4F108201968F3F9105C1F70895843017
:1016F00018F493E0981B892F61E070E002C0660F38
:10170000771F8A95E2F740E050E080E0FA01E65268
:10171000FE4F208130E026233723232B09F48F5FEF
:101720004F5F5F4F4F3F510589F70895FC011082CD
:10173000089521E0FC0120830895FC01808181113E
:1017400003C0CB010C943D090895CF93DF93CDB72F
:10175000DEB72A970FB6F894DEBF0FBECDBFFC01EF
:10176000808181110BC0CB014AE0BE016F5F7F4FCA
:101770000E94162BCE0101960E943D092A960FB6B3
:10178000F894DEBF0FBECDBFDF91CF9108950F93C8
:101790001F93CF93DF93CDB7DEB72A970FB6F89498
:1017A000DEBF0FBECDBFFC01808181110CC0CB011B
:1017B000BA018E010F5F1F4F23E047E00E94F62819
:1017C000C8010E943D092A960FB6F894DEBF0FBEED
:1017D000CDBFDF91CF911F910F910895CF93DF93EC
:1017E000CDB7DEB72A970FB6F894DEBF0FBECDBFD8
:1017F000FC01808181110BC0CB014AE0BE016F5F0B
:101800007F4F0E94162BCE0101960E943D092A9619
:101810000FB6F894DEBF0FBECDBFDF91CF91089514
:10182000FC012081211106C00E94EE0B8AE191E0AB
:101830000C943D090895FC012081211106C00E94ED
:101840009D0B8AE191E00C943D090895FC012081F3
:10185000211106C00E94A50B8AE191E00C943D097C
:101860000895FC012081211106C00E94C70B8AE166
:1018700091E00C943D0908958AE191E00C943D09B2
:10188000CF93DF93EC018C8181110DC086E191E053
:101890000E9449098FEF90E00E9449098CEF90E087
:1018A0000E9449092AC060E670E08CE193E00E9442
:1018B000C72061E08CE193E00E94DF208CE193E09F
:1018C0000E94DC2041E050E060E670E08CE193E0B3
:1018D0000E946A218CE193E00E949A211816190651
:1018E000CCF78CE193E00E94A22188839B8199230D
:1018F00029F09981890F8F3F09F480E0DF91CF9122
:1019000008951F93CF93DF93EC018C8181110BC05D
:1019100084EF90E00E9449098DED90E00E94490912
:101920008AED90E021C01A8219821B821BE0298176
:101930003A8121153105E9F4CE010E94400C90E076
:101940009A8389836AE070E080E090E00E94BC0A9C
:10195000115069F782ED90E00E94490986EB90E012
:101960000E94490983EB90E0DF91CF911F910C9485
:10197000490980E890E0821B930B9A83898381E078
:101980008B83DF91CF911F910895FC01848108958D
:1019900060E670E08CE193E00E94C7208CE193E068
:1019A0000E94DC2091E0811190E0892F0895CF936F
:1019B000DF93EC010E94C80C81110EC08BE391E013
:1019C0000E94490981E291E00E9449098EE191E07B
:1019D000DF91CF910C94490918821A82198281E013
:1019E0008C831B82DF91CF910895FC0114820C94AB
:1019F000D70C0F931F93CF93DF938C01C0E0D0E0FF
:101A000060E070E0C8018C0F9D1F0E942F1223968A
:101A1000CC30D105A9F7DF91CF911F910F91089597
:101A2000623088F470E025B36E5F7F4F81E090E014
:101A300001C0880F6A95EAF7411102C0822B02C0EB
:101A40008095822385BB0895623058F4862F8C5F81
:101A5000442311F06FEF01C060E00E9413130C9457
:101A600056140895623070F49A014F3F510519F0F1
:101A700014F02FEF30E0862F622F8C5F0E9413133B
:101A80000C9456140895CF934430A0F4C62F80913F
:101A9000DB02811109C04C5F67E370E088E390E0EE
:101AA0000E9435228093DB026C2F8091DB02CF9164
:101AB0000C946822CF910895623020F595B384B3D9
:101AC00070E06E5F7F4F21E030E0062E01C0220FF4
:101AD0000A94EAF7322F3095832384BB85B3822B97
:101AE00085BB83B395BB94B3292B24BB90E002C084
:101AF000959587956A95E2F78170992721E082276D
:101B00008170089580E008950F931F93CF938C0107
:101B1000C62F623060F46C2FC8010E945C0D8823D0
:101B2000D1F36C2FC8010E945C0D8111FACFCF91C7
:101B30001F910F910895683050F4462F60E482E0C1
:101B40000E949A249695879596958795089580E0AA
:101B50000895CF936430E8F427B370E06C5F7F4F53
:101B600081E090E0062E01C0880F0A94EAF7382F32
:101B70003095232327BB98B3892B88BB86B390E08D
:101B800002C0959587956A95E2F798B3932398BB21
:101B900070C06C3068F4C62F0C960E94110B90E058
:101BA0006CEF6C0F02C0959587956A95E2F761C05E
:101BB000643108F042C084EF860F843000F544B3EE
:101BC0002FE0261B30E02C5F3F4F81E090E0022E9B
:101BD00001C0880F0A94EAF7582F5095352F342307
:101BE00034BB95B3892B85BB83B390E002C0959538
:101BF00087952A95E2F795B3952395BB3AC021B313
:101C0000605170E06C5F7F4F81E090E0062E01C074
:101C1000880F0A94EAF7382F3095232321BB92B31B
:101C2000892B82BB80B390E002C0959587956A9519
:101C3000E2F792B3932392BB1CC06C31E0F42AB359
:101C4000645181E090E0062E01C0880F0A94EAF703
:101C5000382F309523232ABB9BB3892B8BBB89B3A9
:101C600090E002C0959587956A95E2F79BB3932320
:101C70009BBB817001C080E0CF910895CF93DF932B
:101C80006430C0F427B36C5F81E090E0A0E0B0E086
:101C900004C0880F991FAA1FBB1F6A95D2F7282B73
:101CA00027BB28B3442311F0822B02C080958223E6
:101CB00088BB5DC06C3058F4EC012C966450CE01AA
:101CC0000E94F50ACE01DF91CF910C942C0B643168
:101CD000A8F584EF860F8430C8F424B333E1361BB3
:101CE00081E090E0A0E0B0E004C0880F991FAA1F37
:101CF000BB1F3A95D2F7282B24BB25B3442311F000
:101D0000822B02C08095822385BB31C021B36C50E9
:101D100081E090E0A0E0B0E004C0880F991FAA1F06
:101D2000BB1F6A95D2F7282B21BB22B3442311F0A5
:101D3000822B02C08095822382BB19C06C31B8F41B
:101D40002AB3645181E090E0A0E0B0E004C0880FC5
:101D5000991FAA1FBB1F6A95D2F7282B2ABB2BB34A
:101D6000442311F0822B02C0809582238BBBDF912C
:101D7000CF910895862F683010F40C94770B80E093
:101D800008951F93CF93DF938DED91E00E94490951
:101D9000C1E0D0E01C2F6C2F8CE193E00E94BD20AD
:101DA0008CE193E00E94DC2081112FC089ED91E04D
:101DB0000E944909BE018AED92E00E94A50BC4333E
:101DC000D10519F48FEC91E01EC0C03619F484ECF3
:101DD00091E019C0C43519F48CEB91E014C080E98E
:101DE0008C0F803118F48DEA91E00DC0C93219F4DE
:101DF00084EA91E008C018531C3218F480E991E09D
:101E000002C086E891E00E9449092196CF37D105AA
:101E100009F687E791E0DF91CF911F910C94490972
:101E2000CF9368E370E08CE193E00E94C7208CE1DF
:101E300093E00E94DC20C82F6FE370E08CE193E018
:101E40000E94C7208CE193E00E94DC208C0F69F097
:101E50008FE691E00E94490986E491E00E944909D9
:101E600083E491E0CF910C944909CF910895CF92EA
:101E7000DF92EF92FF920F931F93CF93DF938C012A
:101E8000EC017C018CE0E80EF11CCE010E940E12E8
:101E90002396CE15DF05C9F7CE010E94EC0A680132
:101EA0008FE0C80ED11CC6010E94EC0A88E090E0C9
:101EB0000E94FF080E9428140E94600B8CE193E0AE
:101EC0000E9498206FE3CE010E94F20A68E3C601E7
:101ED0000E94F20A7801C0E0A6016C2FC7010E949F
:101EE0001312CF5F83E0E80EF11CC430A9F784B36E
:101EF0008C6084BB85B38C6085BB8AB3807F8ABBD2
:101F00008AB38F708ABB87B38F7087BB0E94A10A88
:101F1000C801DF91CF911F910F91FF90EF90DF905B
:101F2000CF900C94100F41E060E08091DC02909122
:101F3000DD020E94F50A8091DC029091DD020E9490
:101F40002C0B85E08A95F1F7000040E060E080917D
:101F5000DC029091DD020E94F50A8091DC029091F2
:101F6000DD020C942C0BCF93C82F8FE396E00197E2
:101F7000F1F700C000008091DC029091DD02662341
:101F800011F041E001C040E062E00E94F50A80915A
:101F9000DC029091DD020E942C0B40E064E0809115
:101FA000DC029091DD020E94F50A40E065E080913C
:101FB000DC029091DD020E94F50A40E066E080912B
:101FC000DC029091DD020E94F50A40E067E080911A
:101FD000DC029091DD020E94F50AC7FF08C041E0D3
:101FE00064E08091DC029091DD020E94F50AC6FF58
:101FF00008C041E065E08091DC029091DD020E9422
:10200000F50AC5FF08C041E066E08091DC029091CE
:10201000DD020E94F50AC4FF08C041E067E080913C
:10202000DC029091DD020E94F50A8091DC02909121
:10203000DD020E942C0B0E94930F40E064E080912F
:10204000DC029091DD020E94F50A40E065E080919B
:10205000DC029091DD020E94F50A40E066E080918A
:10206000DC029091DD020E94F50A40E067E0809179
:10207000DC029091DD020E94F50AC3FF08C041E036
:1020800064E08091DC029091DD020E94F50AC2FFBB
:1020900008C041E065E08091DC029091DD020E9481
:1020A000F50AC1FF08C041E066E08091DC02909132
:1020B000DD020E94F50AC0FF08C041E067E08091A0
:1020C000DC029091DD020E94F50A8091DC02909181
:1020D000DD020E942C0B0E94930F41E067E080918B
:1020E000DC029091DD020E94F50A41E066E08091F9
:1020F000DC029091DD020E94F50A41E065E08091EA
:10210000DC029091DD020E94F50A41E064E08091DA
:10211000DC029091DD020E94F50A8091DC02909130
:10212000DD02CF910C942C0B60E00C94B30F61E0B6
:102130000C94B30F611102C0805809C0613011F4D2
:10214000805405C0623011F4805701C080530C9454
:10215000941081E00C94941082E00C94941061E04F
:102160000C94B30FCF93DF93EC018991882319F07E
:102170000E94AF10FACFDF91CF910895CF93DF93F4
:10218000CDB7DEB760970FB6F894DEBF0FBECDBFF8
:102190004AE0BE016F5F7F4F0E94162B0E94B21073
:1021A00060960FB6F894DEBF0FBECDBFDF91CF9122
:1021B0000895CF93DF93CDB7DEB760970FB6F8944D
:1021C000DEBF0FBECDBF1982CE0101960E94B210B4
:1021D00060960FB6F894DEBF0FBECDBFDF91CF91F2
:1021E0000895CF92DF92EF92FF920F931F93CF93B8
:1021F000DF93CDB7DEB760970FB6F894DEBF0FBEA2
:10220000CDBF7B0142E08E010F5F1F4FB8010E94DE
:10221000162BF80101900020E9F73197E01BF10B34
:10222000C12CD12CEE1AFF0ACE14DF0444F48DE148
:1022300091E00E94B2108FEFC81AD80AF5CFC801FA
:102240000E94B21060960FB6F894DEBF0FBECDBFED
:10225000DF91CF911F910F91FF90EF90DF90CF9082
:102260000895CF93DF93FC018491EF012196882399
:1022700021F00E94AF10FE01F7CFDF91CF910895BA
:10228000CF93C82FCB017093DD026093DC0240E056
:1022900064E00E94F50A40E065E08091DC029091E4
:1022A000DD020E94F50A40E066E08091DC02909138
:1022B000DD020E94F50A40E067E08091DC02909127
:1022C000DD020E94F50A40E062E08091DC0290911C
:1022D000DD020E94F50A40E060E08091DC0290910E
:1022E000DD020E94F50A40E061E08091DC029091FD
:1022F000DD020E94F50A8091DC029091DD020E94CD
:102300002C0B8FEF99EF0197F1F700C0000041E02F
:1023100066E08091DC029091DD020E94F50A41E0C6
:1023200067E08091DC029091DD020E94F50A8091C5
:10233000DC029091DD020E942C0B0E94930F8FE132
:102340009EE40197F1F700C000000E94930F8FEF09
:1023500090E00197F1F700C000000E94930F8FEF0B
:1023600090E00197F1F700C0000040E067E0809145
:10237000DC029091DD020E94F50A8091DC029091CE
:10238000DD020E942C0B0E94930F8FEF90E00197CB
:10239000F1F700C0000088E20E94941088E00E94DB
:1023A00094100E94A91086E00E9494108C2FCF9167
:1023B0000C94941020916000222341F09093F0023D
:1023C0008093EF020E942814109260000895809379
:1023D00061000895E82FF0E0EE0FFF1FE152FD4F7E
:1023E00071836083089580E00E949A2581E00E94B5
:1023F0009A2582E00E949A2583E00E949A25809186
:10240000DE02882351F00E9456148091EF029091D1
:10241000F0020E942C0B1092DE020895FC01108243
:10242000128211820895EF92FF920F931F93CF9320
:10243000DF931F92CDB7DEB77C018A01CA016983A1
:102440000E94DA11F70112830183698160830F9082
:10245000DF91CF911F910F91FF90EF900895FC01B4
:102460006536710514F064E670E06C398FEF78071B
:1024700014F46CE97FEF2FEF269FC001279F900D8A
:10248000112464E670E00E943326E081F0E0EE0F54
:10249000FF1FE152FD4F718360830895FFCF22E05B
:1024A000FC0120830895EA01FC0160836130E1F5BD
:1024B00085E492E00E94490962E370E080E090E0E8
:1024C0000E94BC0A80E492E00E94490962E370E045
:1024D00080E090E00E94BC0A89E392E00E944909F2
:1024E00062E370E080E090E00E94BC0A82E392E048
:1024F0000E94490962E370E080E090E00E94BC0A1B
:102500008FE292E00E944909CE010E943D098CE2CF
:1025100092E00E94490962E370E080E090E00E944E
:10252000BC0A86E292E02AC082E292E00E94490957
:1025300062E370E080E090E00E94BC0A8DE192E0EE
:102540000E94490962E370E080E090E00E94BC0ACA
:1025500086E192E00E94490962E370E080E090E049
:102560000E94BC0A8FE092E00E94490962E370E099
:1025700080E090E00E94BC0A89E092E00E94490954
:102580000E941309FDCF0F931F93CF93DF93EB01AD
:102590008B01040F151FC017D10721F089910E94EC
:1025A0002C09F9CFDF91CF911F910F910895CF9210
:1025B000DF92EF92FF920F931F93CF93DF936A0105
:1025C0008B01C0E0D0E0CC15DD0569F00E94B30AB4
:1025D0000E941309E92EF12CEF2829F4F8018193C8
:1025E0008F012196F0CFCE01DF91CF911F910F91F6
:1025F000FF90EF90DF90CF900895CF93DF93EC01A1
:1026000069E60E94A70966E470E080E090E00E941D
:10261000BC0A41E050E061E070E0CE010E94E309B5
:10262000DF91CF910895863028F4E82FF0E0EB5E3B
:10263000FC4F60830895CF93DF9325E030E040E0C6
:10264000842F90E082179307D4F4BC01615F7C4F24
:10265000DB015C91FC01E05FFC4F8081C52FD0E085
:10266000CB5EDC4FA82FB0E0AB5EBC4FC8819C9125
:102670009C1718F4DB018C9350834F5FE1CF2150FE
:102680003109E9F6DF91CF9108951F920F920FB6AD
:102690000F9211242F933F934F935F936F937F93E8
:1026A0008F939F93AF93BF93EF93FF9380911B03FF
:1026B000811122C08091F202882351F00E941226DB
:1026C0001092F20288B3807F88BB82B3837F82BB83
:1026D00080911B03E0916400F0916500E80FF11D0B
:1026E000808198B3282F2F70922B98BB92B3869538
:1026F00086958C70892B13C0E0916400F091650081
:10270000E80FF11D808128B3982F9F709095922338
:1027100098BB92B3869586958C708095892382BBF1
:1027200080911B03E0916800F0916900E80FF11DB2
:10273000808183BD80911B038F5F80931B03E09199
:102740006800F0916900E80FF11D9081992311F064
:10275000873011F410921B03FF91EF91BF91AF915D
:102760009F918F917F916F915F914F913F912F91A9
:102770000F900FBE0F901F9018958091F20281115B
:10278000FCCF81E08093F20208950F931F93CF93C3
:10279000DF93E0916200F09163001082AFE0B3E05C
:1027A00050E040E061E070E016E01A0F9D91E92FE3
:1027B000F0E0EB5EFC4F80818B3078F1E0916200BD
:1027C000F0916300EB0101C0CC0F9A95EAF790817C
:1027D0009C2B908390E0841B9109E0916200F09122
:1027E0006300252F30E08530910534F4E20FF31FAC
:1027F0008081C82BC08311C08A30910514F48AE00F
:1028000090E0E20FF31FC183E0916600F091670052
:10281000E20FF31F8083480F5F5F1A13C7CF852F26
:1028200090E0E0916600F0916700E80FF91F409595
:102830004083563040F42091660030916700F901E2
:10284000E80FF91F1182DF91CF911F910F91089529
:10285000CF938091F102811127C0F89410920F0359
:10286000C1E0C093100382E08093110383E0809362
:10287000120384E08093130385E0809314030E9485
:10288000C5130E94122687B38F6087BB81B38C600B
:1028900081BB85B58B6085BD89B7806889BF8FEFA7
:1028A00083BD7894C093F102CF9108958091F20294
:1028B0008111FCCF0E941B130E94C5130C94BD1301
:1028C000FC01108208950F931F93CF93DF9300D0E4
:1028D000CDB7DEB78C0119821A8269E670E08CE10F
:1028E00093E00E94C72042E050E0BE016F5F7F4F3F
:1028F0008CE193E00E946F218CE193E00E94DC2048
:1029000060ED77E080E090E00E94BC0A81E0F80191
:1029100080830F900F90DF91CF911F910F910895B9
:102920000F931F93CF93DF931F92CDB7DEB7FC01B8
:102930008081882351F169E670E08CE193E00E9488
:10294000C720198241E050E0BE016F5F7F4F8CE1EC
:1029500093E00E946F2142E069E68CE193E00E94DF
:1029600067218CE193E00E94A2218C018CE193E02D
:102970000E94A22120E030E0382F020F131F8CE1CB
:1029800093E00E94DC20C80102C080E090E00F903C
:10299000DF91CF911F910F910895FC0180810895DF
:1029A00069E670E08CE193E00E94C7208CE193E03F
:1029B0000E94DC2091E0811190E0892F08951F93FF
:1029C000CF93DF931F92CDB7DEB7FC0180818823C0
:1029D00019F1162F69E670E08CE193E00E94C720A0
:1029E0001E5F198341E050E0BE016F5F7F4F8CE1B5
:1029F00093E00E946F2141E069E68CE193E00E9440
:102A000067218CE193E00E94A221182F8CE193E0D2
:102A10000E94DC20812F01C080E00F90DF91CF91D8
:102A20001F910895CF93DF9300D0CDB7DEB7FC019F
:102A300080818823B1F081E089836A8369E670E050
:102A40008CE193E00E94C72042E050E0BE016F5F3E
:102A50007F4F8CE193E00E946F218CE193E00E9414
:102A6000DC200F900F90DF91CF910895FC01108230
:102A70001282118281E0848313820895FC01108206
:102A80001282118281E0848313820895CF93DF93B1
:102A9000FC0124812223B9F1EC0160E670E08CE1B5
:102AA00093E00E94C72061E08CE193E00E94DF2068
:102AB0008CE193E00E94DC20811127C041E050E0CE
:102AC00060E670E08CE193E00E946A218CE193E083
:102AD0000E949A2118161906CCF78CE193E00E9407
:102AE000A2212B81222391F029813A81820F931F09
:102AF0008F3F91051CF08F5F910908C097FF06C0BA
:102B000081509F4F03C080E001C08FEFDF91CF91D4
:102B10000895CF93FC018481882371F160E670E011
:102B20008CE193E00E94C7206CE08CE193E00E946E
:102B3000DF208CE193E00E94DC20811120C042E084
:102B400050E060E670E08CE193E00E946A218CE145
:102B500093E00E949A210297D4F38CE193E00E94C3
:102B6000A221C82F8CE193E00E94A22120E030E056
:102B70003C2F820F931F05C080E090E002C08FEFD2
:102B80009FEFCF910895CF93FC018481882371F149
:102B900060E670E08CE193E00E94C7206EE08CE17B
:102BA00093E00E94DF208CE193E00E94DC20811101
:102BB00020C042E050E060E670E08CE193E00E94CB
:102BC0006A218CE193E00E949A210297D4F38CE170
:102BD00093E00E94A221C82F8CE193E00E94A221E1
:102BE00020E030E03C2F820F931F05C080E090E092
:102BF00002C08FEF9FEFCF9108951F93CF93DF9384
:102C0000FC012481222309F1EC011282118213823A
:102C100015E629813A812115310579F4CE010E940A
:102C2000461590E09A8389836AE070E080E090E046
:102C30000E94BC0A115069F708C080E890E0821B2E
:102C4000930B9A83898381E08B83DF91CF911F91CE
:102C50000895FC0184810895CF93C62F60E670E04B
:102C60008CE193E00E94C72060E08CE193E00E9439
:102C7000DF206C2F8CE193E00E94DF208CE193E059
:102C80000E94DC2062E370E080E090E0CF910C9441
:102C9000BC0ACF93DF93EC0160EF0E942C1665EF26
:102CA000CE010E942C1667EFCE01DF91CF910C94DC
:102CB0002C1668EF0E942C1662E370E080E090E032
:102CC0000C94BC0AFC0189E2818313821282148273
:102CD0000895EF92FF921F93CF93DF931F92CDB78A
:102CE000DEB77C01162FFC0161818CE193E0498302
:102CF0000E94BD20612F8CE193E00E94DF2049817A
:102D0000642F8CE193E00E94DF208CE193E00E942D
:102D1000DC20F70180830F90DF91CF911F91FF900E
:102D2000EF9008951F93CF93DF93EC01162F462F5A
:102D30004F776AE80E9469161983DF91CF911F913E
:102D40000895EF92FF921F93CF93DF9300D0CDB7FA
:102D5000DEB77C01162FFC0161818CE193E04A8390
:102D600059830E94BD20612F8CE193E00E94DF20F7
:102D70005981652F8CE193E00E94DF204A81642F06
:102D80008CE193E00E94DF208CE193E00E94DC2044
:102D9000F70180830F900F90DF91CF911F91FF90EB
:102DA000EF900895CF92DF92EF92FF921F93CF930F
:102DB000DF93EC01162F69017A0169818CE193E0C0
:102DC0000E94BD20612F8CE193E00E94DF206F2DD7
:102DD0007727882799278CE193E00E94DF20B701AD
:102DE000882799278CE193E00E94DF2099278F2D77
:102DF0007E2D6D2D8CE193E00E94DF206C2D8CE107
:102E000093E00E94DF208CE193E00E94DC20888325
:102E1000DF91CF911F91FF90EF90DF90CF900895B9
:102E20001F93CF93DF93EC01162F69818CE193E020
:102E30000E94BD20612F8CE193E00E94DF208CE195
:102E400093E00E94DC20888341E069818CE193E07B
:102E50000E9467218CE193E00E94A221DF91CF9133
:102E60001F9108951F93CF93DF93EC01162F698173
:102E70008CE193E00E94BD20612F8CE193E00E94E1
:102E8000DF208CE193E00E94DC20888342E06981AE
:102E90008CE193E00E9467218CE193E00E94A221E3
:102EA000D82F80E0C82F8CE193E00E94A2218C2BC8
:102EB0009D2BDF91CF911F910895CF92DF92EF92DA
:102EC000FF92CF93DF93EC01F62E69818CE193E0C2
:102ED0000E94BD206F2D8CE193E00E94DF208CE1E9
:102EE00093E00E94DC20888344E069818CE193E0D8
:102EF0000E9467218CE193E00E94A2216C01990F4E
:102F0000EE08FF08FC2CEE24DD24CC248CE193E0B9
:102F10000E94A221092E000CAA0BBB0BDC019927F1
:102F20008827C82AD92AEA2AFB2A8CE193E00E9442
:102F3000A221C82F8CE193E00E94A221092E000C4F
:102F4000AA0BBB0BC82AD92AEA2AFB2A40E050E088
:102F50005C2F60E070E0CB01BA016C297D298E29DD
:102F60009F29DF91CF91FF90EF90DF90CF90089550
:102F7000CF92DF92EF92FF921F93CF93DF9300D017
:102F8000CDB7DEB77C01D62E142FFC0161818CE118
:102F900093E029835A830E94BD206D2D8CE193E03C
:102FA0000E94DF20C12E5A81D52E2981120F1C15B7
:102FB00041F0F60161916F018CE193E00E94DF2006
:102FC000F6CF8CE193E00E94DC20F70180830F9024
:102FD0000F90DF91CF911F91FF90EF90DF90CF90F6
:102FE0000895CF92DF92EF92FF920F931F93CF93AA
:102FF000DF931F92CDB7DEB76C01F62E142F022F90
:10300000FC0161818CE193E059830E94BD206F2D0A
:103010008CE193E00E94DF208CE193E00E94DC20B1
:10302000F6018083402F61818CE193E00E9467214B
:10303000E12E5981F52E100F1E1541F08CE193E021
:103040000E94A221F70181937F01F6CF0F90DF91BB
:10305000CF911F910F91FF90EF90DF90CF90089547
:10306000CF92DF92EF92FF92CF93DF93EC016A0150
:103070007B0120E030E0A901C701B6010E940A27C8
:1030800087FD1BC028EB3EEF4FEF53E4C701B601AD
:103090000E943B2818168CF020E030E040E053E41A
:1030A000C701B6010E9440280E941B27AB0164E4BF
:1030B000CE010E94A11681E001C080E0DF91CF9196
:1030C000FF90EF90DF90CF90089564E40E94321754
:1030D000BC0180E090E00E944A2720E030E040E020
:1030E0005CE30E9440280895611102C060E503C0BE
:1030F000613031F460E70E9410178F5F880F0895E8
:103100008FEF0895CF92DF92EF92FF92CF93DF93EC
:10311000EC016A017B0141E060E80E94691641E030
:103120006FEFCE010E94691640E060E0CE010E9480
:1031300069164F8161E9CE010E94691641E060E0A5
:10314000CE010E94691640E06FEFCE010E94691621
:1031500040E060E8CE010E946916C114D104E10488
:10316000F104A9F068EFCE010E943217009739F000
:10317000DC01A70196010E9469266B017C01A70171
:10318000960164E0CE010E94D21644E001C042E004
:1031900060E0CE01DF91CF91FF90EF90DF90CF9074
:1031A0000C946916CF93DF93EC0141E060E00E943C
:1031B000691641E06FEFCE010E94691640E060E0C1
:1031C000CE010E94691640E061E9CE010E946916B5
:1031D00041E060E0CE010E94691640E06FEFCE0151
:1031E000DF91CF910C9469160F931F93CF93DF93C8
:1031F000EC010E94B30A7E836D8363E1CE010E94DD
:1032000010178770A1F48A819B81892BB1F30E94EA
:10321000B30A2D813E81621B730B8A819B818617C5
:10322000970758F781E08C838FEF9FEF0BC06EE11B
:10323000CE010E9432178C0141E06BE0CE010E946A
:103240006916C801DF91CF911F910F910895CF9317
:10325000DF93EC0141E060E80E94691641E06FEF06
:10326000CE010E94691640E060E0CE010E9469161E
:103270004F8161E9CE010E94691641E060E0CE0114
:103280000E94691640E06FEFCE010E94691640E08F
:1032900060E8CE010E94691641E060E0CE010E9424
:1032A00069160E94B30A7E836D8360E0CE010E949E
:1032B000101780FF16C08A819B81892BB1F30E9471
:1032C000B30A2D813E81621B730B8A819B81861715
:1032D000970758F781E08C838FEF9FEFDF91CF91B5
:1032E0000895CE01DF91CF910C94F418FC018481F4
:1032F00014820895EF92FF920F931F93CF93DF9361
:10330000EC017B018A0141E060E80E94691641E01E
:103310006FEFCE010E94691640E060E0CE010E948E
:10332000691646E06FEFCE010E94691663E8CE0190
:103330000E941017482F446063E8CE010E9469166E
:1033400047E06FEFCE010E94691641E061E8CE01CF
:103350000E94691641E060E8CE010E9469164BE6C2
:1033600064E9CE010E94691640E063E8CE010E9444
:1033700069160E94B30A7E836D8363E8CE010E94C2
:103380001017811111C08A819B81892BB1F30E9492
:10339000B30A2D813E81621B730B8A819B81861744
:1033A000970758F780E03CC041E063E8CE010E94F7
:1033B000691662E9CE010E941017982F9F77F701D6
:1033C0009083982F991F9927991FF801908340E0C7
:1033D00061E8CE010E94691646E06FEFCE010E94BF
:1033E000691663E8CE010E941017482F4B7F63E8EF
:1033F000CE010E94691641E06FEFCE010E9469166E
:1034000041E060E0CE010E94691640E06FEFCE011E
:103410000E94691640E060E8CE010E94691681E0D2
:10342000DF91CF911F910F91FF90EF900895CF936F
:10343000DF93EB0161E00E94101784FB992790F95C
:10344000988383FB992790F99A8382FB992790F9B7
:10345000998386FB222720F92B83881F8827881FC2
:103460008C83DF91CF9108959C013327A90102C07D
:10347000440F551F9A95E2F7CA01019608950F93DC
:103480001F930097C9F0AC014150510960E070E012
:1034900080E090E08A019B010027012B022B032B87
:1034A00031F076956795579547950196F3CF982F0C
:1034B0008827842B952B02C080E090E01F910F910C
:1034C00008958F929F92AF92BF92CF92DF92EF9228
:1034D000FF92CF93DF93EC01A62FB0E020E03FE214
:1034E0004AE350E00E9469266C507E4F8F4F9F4FF9
:1034F00028EEC22E23E0D22EE12CF12CA70196015A
:103500000E94472649015A01B694A794979487943C
:10351000DE010E946926680D791D8A1D9B1DA70189
:1035200096010E944726CA01B901DF91CF91FF9011
:10353000EF90DF90CF90BF90AF909F908F900895C5
:10354000EF92FF920F931F93CF93DF938C017B0138
:10355000EA0160E00E94741890E09983888366E431
:10356000C8010E941017282F30E0C90101969D83E1
:103570008C8368810E94611A6A877B878C879D870C
:1035800061E5C8010E9432170E94341A9F838E831E
:1035900068810E94611A6E877F87888B998B60E7AC
:1035A000C8010E9410178F5F880F90E09B838A8369
:1035B00061E7C8010E9432170E94341A99878887F0
:1035C000F7012381222331F02E813F81821B930B4F
:1035D000998788876A81888599850E94611A6A8B94
:1035E0007B8B8C8B9D8BDF91CF911F910F91FF90E7
:1035F000EF900895CF92DF92EF92FF920F931F9377
:10360000CF93DF93CDB7DEB76B970FB6F894DEBFDD
:103610000FBECDBF8C01BE01695E7F4F0E94171A9D
:10362000AE014F5F5F4FBE01695E7F4FC8010E94D0
:10363000A01A8F89882359F08B859C85AD85BE851E
:10364000BC01CD016C57724F8F4F9F4F04C066E392
:103650007BE080E090E0298D222379F0CB84DC842C
:10366000ED84FE8422EBC20E22E0D21EE11CF11C8E
:10367000CC0CDD1CEE1CFF1C0DC0288D222371F02C
:10368000CB84DC84ED84FE84E4E9CE0EE2E0DE1E31
:10369000E11CF11C6C0D7D1D8E1D9F1D2A8D2223AA
:1036A00071F0CF84D888E988FA88F4E9CF0EF2E087
:1036B000DF1EE11CF11C6C0D7D1D8E1D9F1D2B8DD1
:1036C000222371F0CB88DC88ED88FE8826E2C20ECA
:1036D00022E0D21EE11CF11C6C0D7D1D8E1D9F1D74
:1036E000F80160877187828793876B960FB6F8948D
:1036F000DEBF0FBECDBFDF91CF911F910F91FF9025
:10370000EF90DF90CF9008954F925F926F927F92EB
:103710008F929F92AF92BF92CF92DF92EF92FF92E1
:103720004B015C01A42FB0E020E03FE24AE350E00F
:103730000E9469266C507E4F8F4F9F4F28EE33E0DA
:1037400040E050E00E94472669017A0129013A01D0
:103750007694679457944794A8EEB3E0A50194013A
:103760000E946926640D751D861D971DA70196018F
:103770000E944726CA01B901FF90EF90DF90CF90D9
:10378000BF90AF909F908F907F906F905F904F9081
:1037900008958F929F92AF92BF92DF92EF92FF9225
:1037A0000F931F93CF93DF93CDB7DEB76B970FB611
:1037B000F894DEBF0FBECDBF40322EE45207610544
:1037C000710508F47AC04A015B017C01BE01695EA3
:1037D0007F4F0E94171AAE014F5F5F4FBE01695EB7
:1037E0007F4FC7010E94A01A8F89882349F00B855B
:1037F0001C852D853E850A5C144F2F4F3F4F04C01A
:1038000008EE18E020E030E0898D882369F08B8590
:103810009C85AD85BE858E549D4FAF4FBF4F880FA1
:10382000991FAA1FBB1F0BC0888D882361F08B8551
:103830009C85AD85BE858C569D4FAF4FBF4F080F01
:10384000191F2A1F3B1FDA8CDD2061F08F859889B4
:10385000A989BA898C569D4FAF4FBF4F080F191FCA
:103860002A1F3B1F8B8D882331F10A5D1D4F2F4F7F
:103870003F4F80169106A206B306F8F0C501B401C9
:10388000601B710B820B930B4B810E94841B9B016D
:10389000DD2021F02F813885260F371FC9010E94B6
:1038A0003F1AAC0161E7C7010E94A116F7018086AB
:1038B0009186A286B38681E001C080E06B960FB648
:1038C000F894DEBF0FBECDBFDF91CF911F910F9156
:1038D000FF90EF90DF90BF90AF909F908F900895F2
:1038E000CF93DF93EC01462F416060E00E946916A0
:1038F0000E94B30A7E836D8363E1CE010E9410179C
:10390000877089F48A819B81892BB1F30E94B30A65
:103910002D813E81621B730B8A819B8186179707DD
:1039200058F780E00BC041E06BE0CE010E946916C1
:1039300040E060E0CE010E94691681E0DF91CF9106
:103940000895FF920F931F93CF93DF93CDB7DEB708
:1039500028970FB6F894DEBF0FBECDBF8C0166234B
:1039600049F069E80E941017482F416069E8C801D2
:103970000E94691640E068E8C8010E94691641E0AB
:1039800060E8C8010E94691641E06FEFC8010E941B
:10399000691640E060E0C8010E94691661E9C8014B
:1039A0000E941017F801878341E060E0C8010E947F
:1039B000691640E06FEFC8010E94691640E060E8B8
:1039C000C8010E94691660E6C8010E941017482FBE
:1039D000426160E6C8010E94691640E050E060E87C
:1039E0007EE3C8010E9430184FEF61E0C8010E94D9
:1039F0006916AE01495F5F4FBE01685F7F4FC80126
:103A00000E947A19811102C0F12C31C226E0AE0168
:103A10004F5F5F4F60EBC8010E94F11741E06FEF0D
:103A2000C8010E94691640E06FE4C8010E9469164F
:103A30004CE26EE4C8010E94691640E06FEFC801D5
:103A40000E94691644EB66EBC8010E9469168F81DB
:103A5000811102C040E001C04CE0A88580E090E008
:103A600061E070E0282F269526952695582F5770EF
:103A7000E1E0F0E0EC0FFD1FE20FF11D841710F004
:103A80009A130AC09B0101C0220F5A95EAF72095AC
:103A900030812323208309C0208130E002C0359586
:103AA00027955A95E2F720FD9F5F8F5F8033D1F60F
:103AB00026E0AE014F5F5F4F60EBC8010E94B81770
:103AC00041E06FEFC8010E94691640E060E0C80164
:103AD0000E94691640E06FEFC8010E94691640E03D
:103AE00069E0C8010E94691640E060E1C8010E94D7
:103AF000691640E061E1C8010E94691641E064E294
:103B0000C8010E9469164FEF65E2C8010E9469165C
:103B100040E065E7C8010E94691641E06FEFC80107
:103B20000E9469164CE26EE4C8010E94691640E0EA
:103B300068E4C8010E94691640E260E3C8010E947F
:103B4000691640E06FEFC8010E94691649E060E322
:103B5000C8010E94691640E064E5C8010E94691628
:103B600044E061E3C8010E94691643E062E3C801D2
:103B70000E94691643E860E4C8010E94691645E2A4
:103B800066E4C8010E94691640E060E6C8010E9430
:103B9000691640E067E2C8010E94691646E060E5E8
:103BA000C8010E94691640E061E5C8010E946916DB
:103BB00046E962E5C8010E94691648E066E5C80169
:103BC0000E94691640E367E5C8010E94691640E05B
:103BD00061E6C8010E94691640E062E6C8010E94E1
:103BE000691640E064E6C8010E94691640E065E697
:103BF000C8010E94691640EA66E6C8010E9469167B
:103C000041E06FEFC8010E94691642E362E2C80119
:103C10000E94691644E167E4C8010E9469164FEFEB
:103C200069E4C8010E94691640E06AE4C8010E9484
:103C3000691640E06FEFC8010E9469164AE06AE722
:103C4000C8010E94691640E06BE7C8010E9469162E
:103C500041E268E7C8010E94691641E06FEFC801C0
:103C60000E94691644E363E2C8010E94691640E0BD
:103C700062E4C8010E9469164FEF64E4C8010E9423
:103C8000691646E265E4C8010E94691645E066E4EB
:103C9000C8010E94691640E460E4C8010E946916E8
:103CA00046E06EE0C8010E9469164AE160E2C80180
:103CB0000E94691640E463E4C8010E94691640E06E
:103CC0006FEFC8010E94691643E064E3C8010E94D7
:103CD000691644E465E3C8010E94691641E06FEF8C
:103CE000C8010E94691644E061E3C8010E94691698
:103CF00049E06BE4C8010E94691645E06CE4C80124
:103D00000E94691644E06DE4C8010E94691640E013
:103D10006FEFC8010E94691640E064E4C8010E9488
:103D2000691640E265E4C8010E94691648E067E44C
:103D3000C8010E94691648E268E4C8010E94691639
:103D400040E067E6C8010E94691644E060E7C801E8
:103D50000E94691641E061E7C8010E9469164EEFB2
:103D600062E7C8010E94691640E066E7C8010E9448
:103D7000691640E067E7C8010E94691641E06FEFED
:103D8000C8010E94691641E06DE0C8010E946916F1
:103D900040E06FEFC8010E94691641E060E8C80189
:103DA0000E94691648EF61E0C8010E94691641E06F
:103DB0006FEFC8010E94691641E06EE8C8010E94D9
:103DC000691641E060E0C8010E94691640E06FEFAB
:103DD000C8010E94691640E060E8C8010E946916A7
:103DE00044E06AE0C8010E94691664E8C8010E94C4
:103DF0001017482F4F7E64E8C8010E94691641E001
:103E00006BE0C8010E946916C8010E94FA1AF80105
:103E1000608771878287938748EE61E0C8010E94BE
:103E20006916F8014085518562857385C8010E9435
:103E3000C91B41E061E0C8010E94691660E4C80145
:103E40000E94701C882309F4DFCD42E061E0C801C4
:103E50000E94691660E0C8010E94701CF82E882339
:103E600009F4D2CD48EE61E0C8010E9469168F2D99
:103E700028960FB6F894DEBF0FBECDBFDF91CF916D
:103E80001F910F91FF900895DF92EF92FF920F9391
:103E90001F93CF93DF93CDB7DEB76B970FB6F89430
:103EA000DEBF0FBECDBF8C01D62EF42EE42EE694DD
:103EB000EA94BE01695E7F4F0E94171AAE014F5F00
:103EC0005F4FBE01695E7F4FC8010E94A01AD110EA
:103ED00044C02EE0F21679F02F1528F08CE0F8128D
:103EE000E7C048E10BC0E0E1FE1639F0F2E1FF1255
:103EF000DFC040E503C040E301C040E467E5C8011E
:103F00000E94691648E066E5C8010E9469164E2DB8
:103F100060E5C8010E9469166F85788989899A8948
:103F20004F2D0E94841BCB010E943F1AAC0161E51A
:103F3000C8010E94A1166B857C858D859E854F2DBD
:103F40000E94841B4FEF613021E0720708F4460F96
:103F500066E4C8010E9469168EC081E0D812A8C02C
:103F6000EAE0FE16B9F1EF15F0F0F8E0FF12A0C09C
:103F700040E168E4C8010E94691648E067E4C801AE
:103F80000E94691642E062E3C8010E9469164CE093
:103F900060E3C8010E94691641E06FEFC8010E940A
:103FA000691640E342C02CE0F21629F18EE0F812C7
:103FB0007FC048E468E4C8010E94691648E067E4ED
:103FC000C8010E94691643E062E3C8010E946916B5
:103FD00047E021C048E268E4C8010E94691648E051
:103FE00067E4C8010E94691643E062E3C8010E94C9
:103FF000691649E010C048E368E4C8010E946916E8
:1040000048E067E4C8010E94691643E062E3C80122
:104010000E94691648E060E3C8010E94691641E009
:104020006FEFC8010E94691640E260E3C8010E9478
:10403000691640E06FEFC8010E9469164E2D60E7D7
:10404000C8010E9469166B897C898D899E894F2DD4
:104050000E94841BAB012A8D222329F02F813885F1
:10406000A901460F571FCA010E943F1AAC0161E720
:10407000C8010E94A116F8014085518562857385AB
:10408000C8010E94C91B61E0C8010E941017F82EE8
:1040900042E061E0C8010E94691660E0C8010E9428
:1040A000701C4F2D61E0C8010E94691681E001C0BB
:1040B00080E06B960FB6F894DEBF0FBECDBFDF91E8
:1040C000CF911F910F91FF90EF90DF900895AC0179
:1040D000E0911D03F0911E033097E1F090914603AB
:1040E000809145039817B0F090E0292F30E0261713
:1040F000370754F4DA01A20FB31F8C91D901A95BE1
:10410000BC4F8C939F5FF1CF1092460360934503A1
:10411000CB0109940895E0911F03F091200330979B
:1041200029F0109223031092220309940895089510
:10413000109246031092450310922303109222031B
:104140000C946B22CF93DF93EC01862F0E94812287
:104150008BE890E20E945C2387E690E20E9457235E
:10416000CE01DF91CF910C9498200C94A2200C9456
:104170007B22CB01BA010C94842281E0809321033D
:1041800060934403109223031092220308950C9429
:10419000BD200F93062F21E04091220364E273E0DB
:1041A000809144030E94DC22109223031092220388
:1041B000109221030F91089561E00C94C920CF93D0
:1041C000DF931F92CDB7DEB76983809121038823E7
:1041D00089F0809122038032A8F480912303E82F94
:1041E000F0E0EC5DFC4F60838F5F8093230380934E
:1041F000220305C061E0CE0101960E942F2381E0D9
:1042000090E002C080E090E00F90DF91CF910895A0
:104210004F925F926F927F92AF92BF92CF92EF9246
:10422000FF920F931F93CF93DF935C01F62ED42F51
:1042300028013901EE20F9F00E94BD20CE2DC430B6
:1042400008F0C3E0C15098F028E0C29FC0011124DB
:10425000A301920104C056954795379527958A95F5
:10426000D2F7CA01B901C5010E94DF20EBCF60E09F
:10427000C5010E94C9204D2FD13208F040E22C2DFB
:1042800067E473E08F2D0E9497221092460380937B
:104290004503DF91CF911F910F91FF90EF90CF9049
:1042A000BF90AF907F906F905F904F900895CF92A6
:1042B000EF920F931F93C22EE12C00E010E09801C3
:1042C0000E9408211F910F91EF90CF90089521E057
:1042D0000C94572121E00C9457210C945721CF9234
:1042E000DF92EF92FF920F931F93CF93DF936C01B6
:1042F000262F972F8A0180912103882369F0C62FEA
:10430000D72F7E01E40EF51ECE15DF0549F0699129
:10431000C6010E94DF20F8CF642F822F0E942F2336
:10432000C801DF91CF911F910F91FF90EF90DF9027
:10433000CF9008958091450390E020914603821B21
:10434000910908959091460380914503981750F480
:10435000E92FF0E0E95BFC4F208130E09F5F909314
:10436000460302C02FEF3FEFC9010895E0914603D5
:1043700080914503E81730F4F0E0E95BFC4F808161
:1043800090E008958FEF9FEF0895089570931E03B6
:1043900060931D0308957093200360931F03089595
:1043A0008091210308951F920F920FB60F9211244E
:1043B0002F933F934F938F939F93EF93FF9340914E
:1043C0006E03809167034423C9F090E081509F4FB2
:1043D0009BBD8ABD30916803E0916B03F0916C0343
:1043E000208181E090E002C0880F991F3A95E2F7A2
:1043F0008095909530E08223932314C02DEE32E116
:10440000281B31093BBD2ABD30916803E0916B0345
:10441000F0916C03208181E090E001C0880F3A9513
:10442000EAF7822B808381E0842780936E03FF91DB
:10443000EF919F918F914F913F912F910F900FBED0
:104440000F901F90189580916D0381110DC08EB54E
:1044500083608EBD89B7806189BF84E690E09BBD93
:104460008ABD81E080936D03089590936C038093DF
:104470006B0370936A0360936903409368032DE7AD
:104480002093670350916803FC014081642F70E022
:1044900021E030E0F90102C0EE0FFF1F5A95E2F76C
:1044A000AF014095509546235723FC0140839091DE
:1044B0006803E0916903F0916A03808101C0220FD3
:1044C0009A95EAF7282B20830E94232281E0089501
:1044D0006093670308951092DC0381E08093DA0310
:1044E0001092D903A89AA99A0898099888E480B9E3
:1044F00085E486BF089586B78A7B86BFA898A99869
:104500000895880F82B908959B01AC0160E074E2C0
:1045100084EF90E00E944726DA01C9014097A10983
:10452000B109B695A7959795879580B908954132B9
:1045300008F040C09091DC039111FCCF91E0909382
:10454000DC032093DA032FEF20936F031092B40360
:10455000240F2093B3039093DB039091DB03880F28
:10456000892B8093DB038091D903813051F4109221
:10457000D9038091DB0383B906B603FCFACF85EC3F
:1045800001C085EE86BF8091DC038130E1F380912C
:10459000B403841710F44091B40325EB33E0FB011E
:1045A000D9018A2F821B841718F48D918193F9CF3A
:1045B000842F089580E008950F934132D0F59091B3
:1045C000DC039111FCCF32E03093DC030093DA037B
:1045D0003FEF30936F031092B4034093B303FB019A
:1045E00065EB73E0DB013A2F361B341718F4319179
:1045F0003D93F9CF1092DB033091DB03880F832BBF
:104600008093DB038091D903813051F41092D90358
:104610008091DB0383B906B603FCFACF85EC01C0B9
:1046200085EE86BF222339F08091DC03823019F4B5
:10463000F9CF91E011C080916F038F3F69F08091B5
:104640006F03803231F080916F03803321F094E06A
:1046500003C092E001C093E0892F0F91089540912B
:104660009103262F30E0240F311D21323105DCF477
:104670002091DC032430C9F4FC0180E090E086172F
:1046800058F4309191032191DC01AD56BC4FA30F3A
:10469000B11D2C930196F3CF80919103680F609325
:1046A000910380E0089581E0089582E00895909359
:1046B000D6038093D50308959093D8038093D703AE
:1046C0000895882311F085EC01C085E886BF089520
:1046D00085ED86BF06B604FCFDCF1092DC0308957D
:1046E00085EC86BF1092DC0308951F920F920FB6DF
:1046F0000F9211242F933F934F935F936F937F9368
:104700008F939F93AF93BF93EF93FF9381B1887F74
:10471000803609F49BC078F5883209F45DC090F4C6
:10472000803109F456C038F4882309F4EEC088308B
:1047300009F44FC0EEC0883109F44EC0803209F44C
:104740005EC0E7C0803409F468C058F4803309F4CF
:1047500056C0883309F0DDC080936F030E94702338
:10476000D8C0803509F44EC0883509F45BC0883460
:1047700009F0CFC0CCC0883909F4BFC0A8F488378D
:1047800009F464C038F4883609F460C0803709F44D
:104790005DC0BFC0883809F4B0C0803909F45CC07E
:1047A000803809F0B6C058C0803B09F47FC038F4A7
:1047B000803A09F462C0883A09F478C0AAC0803C03
:1047C00009F49EC0883C09F49BC0883B09F483C06F
:1047D000A0C08091DB0310C09091B4038091B3031B
:1047E000981758F5E091B40381E08E0F8093B403DD
:1047F000F0E0EB54FC4F808183B985EC7FC080935F
:104800006F0385C0E091B40381E08E0F8093B40301
:1048100083B1F0E0EB54FC4F80839091B40380911E
:10482000B30368C0E091B40381E08E0F8093B403BA
:1048300083B1F0E0EB54FC4F80838091DA03811167
:1048400066C081E08093D90384EA5BC083E08093F3
:10485000DC0310927003D1CF80917003803208F096
:104860004CC0E091700381E08E0F8093700383B1A0
:10487000F0E0EF58FC4F8083C0CF0E9470238091FE
:104880007003803230F4E0917003F0E0EF58FC4F99
:1048900010826091700370E0E091D503F091D6032F
:1048A00081E793E009951092700333C084E0809310
:1048B000DC031092920310929103E091D703F091E0
:1048C000D803099580919103811105C081E08093FF
:1048D000910310929303E091920381E08E0F8093F5
:1048E0009203F0E0ED56FC4F808183B990919203E2
:1048F00080919103981708F480CF85E886BF09C09E
:1049000085EC86BF1092DC0304C010926F030E94F6
:104910006823FF91EF91BF91AF919F918F917F910C
:104920006F915F914F913F912F910F900FBE0F901C
:104930001F901895462B47B9806C86B9349BFECFE3
:1049400084B125B190E0922B08953093DE0320933B
:10495000DD0367B9886C86B9089516B80895CF93BA
:10496000FC01608170E042E050E08CE193E00E9445
:104970006A218CE193E00E94A221C82F8CE193E090
:104980000E94A22120E030E0382FC9018C2BCF916A
:104990000895AF92BF92CF92DF92EF92FF920F9362
:1049A0001F93CF93DF937C0189EEC82E83E0D82E2E
:1049B0000FEF1FEF570182E0A80EB11CC5010E9446
:1049C000AF24EC01009739F4012B59F58AE090E00F
:1049D0000E94E20A37C08535EAEA9E0739F40535B8
:1049E0001A4AF9F4F701148281E02DC08635FAEAFB
:1049F0009F0739F405351A4AA1F481E0F701848351
:104A000022C08A3A954569F4F701628170E041E07D
:104A100050E08CE193E00E946A218CE193E00E94D7
:104A2000A221F1E0CF1AD1088E0141F68BEA90E085
:104A30000E94490985E790E00E94490982E790E0D9
:104A40000E94490980E0DF91CF911F910F91FF9063
:104A5000EF90DF90CF90BF90AF90089581E691E006
:104A60000E94C10E0E94CF010E943508FDCF0F9316
:104A70001F93CF93DF9381E691E00E94370F20E0F0
:104A800030E040E050E060E770E08DE491E00E94AB
:104A90005E09CDE4D1E00CE011E01983088320E049
:104AA00030E040E050E062E770E082E591E00E9493
:104AB0005E091E830D8320E030E040E050E06AE7AD
:104AC00070E087E591E00E945E091B870A8720E07D
:104AD00030E040E050E06EE770E08CE591E00E944D
:104AE0005E09188B0F8788E491E00E94F50C87E43B
:104AF00091E00E946014CEE3D1E01B821E821D82F1
:104B00008EE190E098878F8388E691E00E941629D5
:104B10009983888384E58A83DF91CF911F910F91D8
:104B2000089580913E0190913F010C94AB29109221
:104B3000DA020895EF92FF920F931F93CF93DF93C2
:104B4000E82EF12CEE0CFF1CF701E951FD4F4081DE
:104B50005181F701E152FD4F00811181401751074A
:104B600009F459C0B801641B750B2091610030E055
:104B70002617370724F48A01020F131F0AC0EE27F5
:104B8000FF27E21BF30B6E177F071CF48A01021B41
:104B9000130BD82FC82FCC0F8091EF029091F00209
:104BA00017FF10C041E06C2F0E94F50A61E06C0F06
:104BB00040E08091EF029091F0020E94F50A602F90
:104BC00061951EC040E06C2F0115110569F00E942F
:104BD000F50A61E06C0F41E08091EF029091F002E4
:104BE0000E94F50A602F0CC00E94F50A61E06C0F6C
:104BF00040E08091EF029091F0020E94F50A60E09F
:104C00008D2F0E941313F701E951FD4F118300838B
:104C100081E08093DE02DF91CF911F910F91FF9091
:104C2000EF900895209168003091690080916400B0
:104C30009091650040916600509167005093690023
:104C4000409368004091620050916300509365006A
:104C50004093640030936700209366009093630054
:104C600080936200089597FB072E16F4009407D0F6
:104C700077FD09D00E94742607FC05D03EF490957C
:104C800081959F4F0895709561957F4F0895A1E29A
:104C90001A2EAA1BBB1BFD010DC0AA1FBB1FEE1FB6
:104CA000FF1FA217B307E407F50720F0A21BB30B01
:104CB000E40BF50B661F771F881F991F1A9469F77D
:104CC00060957095809590959B01AC01BD01CF01D9
:104CD00008950E948E26A59F900DB49F900DA49FCD
:104CE000800D911D11240895AA1BBB1B51E107C023
:104CF000AA1FBB1FA617B70710F0A61BB70B881F6C
:104D0000991F5A95A9F780959095BC01CD010895FA
:104D1000EE0FFF1F0590F491E02D0994A29FB001C2
:104D2000B39FC001A39F700D811D1124911DB29FDF
:104D3000700D811D1124911D08955058BB27AA277D
:104D40000E94B5260C94ED270E94B42738F00E94EB
:104D5000BB2720F039F49F3F19F426F40C94B127B7
:104D60000EF4E095E7FB0C94AB27E92F0E94122884
:104D700058F3BA17620773078407950720F079F490
:104D8000A6F50C9434280EF4E0950B2EBA2FA02D26
:104D90000B01B90190010C01CA01A0011124FF27E8
:104DA000591B99F0593F50F4503E68F11A16F040E3
:104DB000A22F232F342F4427585FF3CF46953795E2
:104DC0002795A795F0405395C9F77EF41F16BA0BA7
:104DD000620B730B840BBAF09150A1F0FF0FBB1F55
:104DE000661F771F881FC2F70EC0BA0F621F731F9E
:104DF000841F48F4879577956795B795F7959E3FFB
:104E000008F0B0CF9395880F08F09927EE0F97958B
:104E1000879508950E94872708F481E008950E94ED
:104E2000C427E3950C94FE270E941B276894B111B8
:104E30000C94352808950E941A2888F09F5798F0FE
:104E4000B92F9927B751B0F0E1F0660F771F881F8F
:104E5000991F1AF0BA95C9F714C0B13091F00E94A9
:104E60003428B1E008950C943428672F782F8827D0
:104E7000B85F39F0B93FCCF3869577956795B395D0
:104E8000D9F73EF490958095709561957F4F8F4F3F
:104E90009F4F0895E89409C097FB3EF49095809544
:104EA000709561957F4F8F4F9F4F9923A9F0F92FF0
:104EB00096E9BB279395F695879577956795B7956E
:104EC000F111F8CFFAF4BB0F11F460FF1BC06F5F54
:104ED0007F4F8F4F9F4F16C0882311F096E911C066
:104EE000772321F09EE8872F762F05C0662371F087
:104EF00096E8862F70E060E02AF09A95660F771F9B
:104F0000881FDAF7880F9695879597F90895990F76
:104F10000008550FAA0BE0E8FEEF16161706E80783
:104F2000F907C0F012161306E407F50798F0621BA4
:104F3000730B840B950B39F40A2661F0232B242B79
:104F4000252B21F408950A2609F4A140A6958FEF98
:104F5000811D811D089597F99F6780E870E060E0EA
:104F600008959FEF80EC089500240A941616170602
:104F700018060906089500240A941216130614064A
:104F8000050608950C94B1270E941A28D8F3E894D6
:104F9000E0E0BB279F57F0F02AED3FE049EC06C068
:104FA000EE0FBB0F661F771F881F28F0B23A62070B
:104FB0007307840728F0B25A620B730B840BE395D6
:104FC0009A9572F7803830F49A95BB0F661F771F59
:104FD000881FD2F790480C94AF28092E0394000C38
:104FE00011F4882352F0BB0F40F4BF2B11F460FF83
:104FF00004C06F5F7F4F8F4F9F4F0895EF93E0FF87
:1050000007C0A2EA2AED3FE049EC5FEB0E94B5261B
:105010000E94ED270F90039401FC9058E4E5F0E026
:105020000C94BB2857FD9058440F551F59F05F3F13
:1050300071F04795880F97FB991F61F09F3F79F0BA
:1050400087950895121613061406551FF2CF46953C
:10505000F1DF08C0161617061806991FF1CF8695BE
:105060007105610508940895E894BB2766277727A2
:10507000CB0197F908950E94872708F48FEF0895D0
:105080000E9453280C94ED270E94B42738F00E9408
:10509000BB2720F0952311F00C94AB270C94B1277B
:1050A00011240C9435280E94122870F3959FC1F3A7
:1050B000950F50E0551F629FF001729FBB27F00DC6
:1050C000B11D639FAA27F00DB11DAA1F649F66271B
:1050D000B00DA11D661F829F2227B00DA11D621F6A
:1050E000739FB00DA11D621F839FA00D611D221F24
:1050F000749F3327A00D611D231F849F600D211D08
:10510000822F762F6A2F11249F5750409AF0F1F08A
:1051100088234AF0EE0FFF1FBB1F661F771F881FF3
:1051200091505040A9F79E3F510580F00C94AB2759
:105130000C9435285F3FE4F3983ED4F38695779539
:105140006795B795F795E7959F5FC1F7FE2B880F99
:10515000911D9695879597F908959F3F31F091504D
:1051600020F4879577956795B795880F911D96954B
:10517000879597F908959F938F937F936F93FF93EC
:10518000EF939B01AC010E944028EF91FF910E9498
:10519000CF282F913F914F915F910C944028DF933E
:1051A000CF931F930F93FF92EF92DF927B018C01BD
:1051B000689406C0DA2EEF010E945328FE01E8949D
:1051C000A5912591359145915591A6F3EF010E9446
:1051D000B526FE019701A801DA9469F7DF90EF90F8
:1051E000FF900F911F91CF91DF910895EF920F9350
:1051F0001F93CF93DF93E80147FD02C034E001C065
:1052000034E1E42F440FFF0BF7FF03C0F195E19564
:10521000F109E32E022F2E2FAE010E943B2BCE016F
:10522000DF91CF911F910F91EF900895CF93DF936E
:105230008230910510F482E090E0E091E103F0917A
:10524000E20320E030E0C0E0D0E0309711F140818F
:10525000518148175907C0F04817590761F48281F6
:105260009381209719F09B838A832BC09093E2034C
:105270008093E10326C02115310519F04217530729
:1052800018F49A01BE01DF01EF010280F381E02DE5
:10529000DCCF2115310509F1281B390B24303105EC
:1052A00090F412968D919C9113976115710521F0E0
:1052B000FB019383828304C09093E2038093E10314
:1052C000FD01329644C0FD01E20FF31F81939193DB
:1052D000225031092D933C933AC02091DF03309145
:1052E000E003232B41F420916C0030916D0030934A
:1052F000E0032093DF0320916A0030916B002115B9
:10530000310541F42DB73EB740916E0050916F00CA
:10531000241B350BE091DF03F091E003E217F30764
:10532000A0F42E1B3F0B2817390778F0AC014E5F15
:105330005F4F2417350748F04E0F5F1F5093E0036F
:105340004093DF038193919302C0E0E0F0E0CF014E
:10535000DF91CF9108950F931F93CF93DF93009721
:1053600009F48CC0FC013297138212820091E10390
:105370001091E2030115110581F420813181820F22
:10538000931F2091DF033091E0032817390779F547
:10539000F093E003E093DF0371C0D80140E050E0F8
:1053A000AE17BF0750F412962D913C911397AD01A3
:1053B0002115310509F1D901F3CF9D01DA013383BC
:1053C000228360817181860F971F8217930769F48A
:1053D000EC0128813981260F371F2E5F3F4F318323
:1053E00020838A819B8193838283452B29F4F093C8
:1053F000E203E093E10342C01396FC93EE9312970D
:10540000ED01499159919E01240F351FE217F307D1
:1054100071F480819181840F951F029611969C935F
:105420008E938281938113969C938E931297E0E0E2
:10543000F0E0D80112968D919C911397009719F086
:10544000F8018C01F6CF8D919C9198012E5F3F4F12
:10545000820F931F2091DF033091E0032817390753
:1054600069F4309729F41092E2031092E10302C02C
:10547000138212821093E0030093DF03DF91CF9138
:105480001F910F910895A0E0B0E0E9E4FAE20C94D6
:10549000B52DEC01009721F4CB010E941629B8C06C
:1054A000FC01E60FF71F9C0122503109E217F307B8
:1054B00008F4ACC0D9010D911C911197061717077C
:1054C000B0F00530110508F49FC0C8010497861795
:1054D000970708F499C002501109061B170B019396
:1054E00011936D937C93CF010E94AB298DC05B011A
:1054F000A01AB10A4C01800E911EA091E103B09157
:10550000E20340E050E0E12CF12C109709F44AC08E
:10551000A815B905D1F56D907C901197630182E0D3
:10552000C80ED11CCA14DB0480F1A3014A195B091F
:105530006A0182E0C80ED11C1296BC901297139695
:10554000AC91B5E0CB16D10440F0B282A383518375
:105550004083D9016D937C930AC00E5F1F4FC30136
:10556000800F911FF90191838083EB2DFA2FE114B5
:10557000F10431F0D7011396FC93EE93129744C0D7
:10558000F093E203E093E1033FC08D919C9111976A
:105590004817590708F4AC017D0112960D90BC9193
:1055A000A02DB3CF8091DF039091E003881599057A
:1055B000E1F446175707C8F480916A0090916B0098
:1055C000009741F48DB79EB740916E0050916F00E7
:1055D000841B950BE817F907C8F4F093E003E093F8
:1055E000DF03F901718360830FC0CB010E9416298C
:1055F0007C01009759F0A801BE010E940D2BCE013D
:105600000E94AB29C70104C0CE0102C080E090E037
:10561000CDB7DEB7EEE00C94D12DFB01DC0102C06A
:1056200001900D9241505040D8F70895BB274A3061
:1056300031F4992322F4BDE2909581959F4F0C940B
:10564000222BBB27FB015527AA27880F991FAA1FCA
:10565000A41710F0A41B83955051B9F7A05DAA338D
:1056600008F0A95DA193009779F7B111B193119258
:10567000CB010C94A12D4F925F926F927F929F92DB
:10568000AF92BF92CF92DF92EF92FF920F931F9350
:10569000CF93DF93CDB7DEB729970FB6F894DEBF6F
:1056A0000FBECDBF6A01122FB02E2BE3201720F0C2
:1056B000FF24F394F00E02C0BCE3FB2E0F2D27E075
:1056C000AE014F5F5F4F0E94C92CAC018981982FBA
:1056D0009970913031F0E1FC06C0E0FE06C090E226
:1056E00005C09DE203C09BE201C090E0EE2DE07199
:1056F00083FF3CC0911102C083E001C084E08117A8
:1057000018F4212F281B01C020E0E1110BC0F60185
:10571000822F30E2882319F031938150FBCFC20EE3
:10572000D11C20E0992329F0D6019C93F6013196F3
:105730006F01C6010396E2FE0AC03EE4D6013C9327
:1057400041E411964C93119712963C9306C03EE6A5
:10575000F601308341E641833283FC01322F40E27F
:10576000332309F442C041933150FACF82FF44C041
:10577000911102C083E001C084E0811718F4212F49
:10578000281B01C020E0E1110BC0F601822F30E29E
:10579000882319F031938150FBCFC20ED11C20E039
:1057A000992329F0D6019C93F60131966F01C60129
:1057B0000396E2FE0BC039E4D6013C933EE4119619
:1057C0003C93119736E412963C9307C039E6F601F4
:1057D00030833EE6318336E63283FC01322F40E2ED
:1057E000332319F041933150FBCFFC01E20FF11D3F
:1057F00010828EEF9FEFB7C0F1E0911101C0F0E091
:105800006F2F70E01416150624F49A012F5F3F4F96
:1058100002C021E030E0260F371FBB2029F06B2D9E
:1058200070E06F5F7F4F02C060E070E0260F371FAF
:10583000612F70E0261737071CF4121B212F01C0BF
:1058400020E03E2D387159F4D601322F60E2332327
:1058500019F06D933150FBCFC20ED11C20E0FF2315
:1058600031F0D6019C93B6016F5F7F4F6B01E11160
:105870000BC0F601922F30E3992319F03193915028
:10588000FBCFC20ED11C20E09F2D940F3A81782FC0
:105890007071A72E84FF03C0313309F4915019169B
:1058A00024F4993018F098E001C091E0E42F852F9E
:1058B00057FF02C0E0E080E06E2F782FE0E0F0E0DC
:1058C000AEE29A2E3A01691A71082A01461A570A5D
:1058D0000B2D10E01195019511096F3F8FEF78079F
:1058E00029F4D6019C92C60101966C014617570710
:1058F00084F0661677066CF47F01E40CF51CA1E0D9
:10590000B0E0AC0FBD1FEA0EFB1ED7011196BC9094
:1059100002C090E3B92E615071093196C60101961B
:105920007C016017710724F0D601BC926C01D5CFC1
:105930006417750741F4363320F4353321F4A11090
:1059400002C081E3B82EF601B082F701822F90E207
:10595000882319F091938150FBCFF701E20FF11DDD
:10596000108280E090E029960FB6F894DEBF0FBE5B
:10597000CDBFDF91CF911F910F91FF90EF90DF90FE
:10598000CF90BF90AF909F907F906F905F904F901F
:105990000895283008F027E03327DA01990F311DE8
:1059A00087FD916000966105710539F432602E5FC4
:1059B0003D9330E32A95E1F708959F3F30F080381A
:1059C0007105610509F03C5F3C5F3D93913008F043
:1059D0008068911DDF93CF931F930F93FF92EF92F7
:1059E000192F987F9695E92F96959695E90FFF27A1
:1059F000ED55FD4F99273327EE24FF24A701E7013A
:105A000005900894079428F4360FE71EF81E491FE6
:105A1000511D660F771F881F991F0694A1F70590E7
:105A2000079428F4E70EF81E491F561FC11D770F73
:105A3000881F991F661F0694A1F70590079428F404
:105A4000F80E491F561FC71FD11D880F991F661FCB
:105A5000771F0694A1F70590079420F4490F561F6D
:105A6000C71FD81F990F661F771F881F0694A9F7B5
:105A700084911095177041F0D695C7955795479525
:105A8000F794E7941A95C1F7E9E4F2E06894159069
:105A9000159135916591959105907FE27395E11887
:105AA000F10A430B560BC90BD009C0F7E10CF11EEC
:105AB000431F561FC91FD01D7EF4703311F48A9501
:105AC000E6CFE894015030F0080F0AF400270217DF
:105AD00008F4202F2395022F7A3328F079E37D9361
