:100000000C9408010C9430010C9430010C943001D4
:100010000C94D8110C9430010C9430010C94BB1446
:100020000C9430010C9430010C941B0C0C94300196
:100030000C9430010C949D090C94C9090C94300166
:100040000C9430010C9430010C9430010C94E815A0
:100050000C94300105A84CCDB2D44EB93836A90263
:100060000C50B9918688083CA6AAAA2ABE000000B6
:10007000803F0D0A00506978793A207069787920BC
:10008000726573706F6E6473206275742073656E31
:10009000647320676172626167652E2043686563DF
:1000A0006B20796F757220493243004552524F528E
:1000B0003A20000D0A00434D5053303320736574CD
:1000C0004173313238446567726565206572726FBD
:1000D00072004552524F523A20000D0A00434D50D3
:1000E000533033206E6F7420696E697469616C6976
:1000F0007A6564004552524F523A20000D0A00437F
:100100004D50533033206E6F7420696E697469618D
:100110006C697A6564004552524F523A20000D0ACC
:1001200000434D5053303320636F6E6E65637469C6
:100130006F6E2070726F626C656D004552524F5247
:100140003A20000D0A00476F6C64626F6172643A76
:10015000206932632070726F626C656D20776974FC
:100160006820706F7274657870616E6465720045A6
:1001700052524F523A2000656E64206932632073F8
:1001800063616E0D0A0020756E6B6F776E0D0A004D
:100190002049324320506F7274657870616E6465D7
:1001A000720D0A00204C617365720D0A0020556CB7
:1001B000747261736368616C6C0D0A002050697819
:1001C000790D0A00204B6F6D706173730D0A00206A
:1001D000557372696E670D0A0020202000737461E8
:1001E000727420693263207363616E205B37206212
:1001F0006974206164647265737320696E2064653C
:1002000063696D616C5D0D0A00003709131797096A
:1002100011241FBECFE5D8E0DEBFCDBF11E0A0E6C0
:10022000B0E0E8EBF7E302C005900D92A433B1070C
:10023000D9F723E0A4E3B1E001C01D92A83FB207C3
:10024000E1F711E0C7E0D1E004C02197FE010E9470
:100250006717C530D107C9F70E942E090C94CF1B30
:100260000C940000CF93FC01608170E042E050E00C
:1002700085E393E00E946E1485E393E00E94A4144A
:10028000C82F85E393E00E94A41420E030E0382FCB
:10029000C9018C2BCF91089520E044E060E18AE60B
:1002A00091E00E94F70A8AE691E00E944B0B86E8F3
:1002B00091E00E94560B8BE891E00E94560B80E97A
:1002C00091E00E94560B85E991E00E94560B81E86F
:1002D00091E00E94FB0E80E891E00E94F61285E317
:1002E00093E00E94B71381E891E00E94A80E64E6B3
:1002F00080E891E00C9493134F925F926F927F92FB
:100300008F929F92AF92BF92CF92DF92EF92FF9225
:100310000F931F93CF93DF9300D000D0CDB7DEB7FC
:1003200002E511E0F80160817181605A7109072EC0
:10033000000C880B990B0E9417184B015C01F80107
:100340006281738166597109072E000C880B990B25
:100350000E9417186B017C0160915001709151014E
:1003600060587109072E000C880B990B0E94171812
:100370002B013C0120E030E040E450E40E94E21810
:1003800069837A838B839C83C501B4019058A7014C
:1003900096010E946D17A30192010E946D170E94A1
:1003A000DF177195619571098AE991E00E946611E4
:1003B000A7019601C501B4010E946D1729813A81F8
:1003C0004B815C810E946E170E94DF178DE991E0DE
:1003D0000E946611A7019601C501B4010E946E1723
:1003E00029813A814B815C810E946E170E94DF1740
:1003F00080EA91E00E946611A5019401C701B6014F
:100400000E946D17A30192010E946D170E94DF17D1
:1004100083EA91E00F900F900F900F90DF91CF91B2
:100420001F910F91FF90EF90DF90CF90BF90AF9012
:100430009F908F907F906F905F904F900C9466117B
:100440008091520190915301803A9105ACF46EEC89
:100450007FEF8AE991E00E94661162E370E08DE926
:1004600091E00E94661162E370E080EA91E00E94F0
:10047000661162E370E014C062E370E08AE991E023
:100480000E9466116EEC7FEF8DE991E00E9466118B
:100490006EEC7FEF80EA91E00E9466116EEC7FEFD8
:1004A00083EA91E00C946611EF92FF920F931F93F1
:1004B000CF93DF93C0915801D0915901E0E0F0E073
:1004C0008FEF9FEF60E070E020E030E001E010E0AF
:1004D000A0E1EA2EF12CAF014F705527D80102C0E0
:1004E000AA0FBB1F4A95E2F7AD014C235D23452BB4
:1004F00099F0621773079CF4CF010197A90137FFA8
:1005000002C04F5F5F4F55954795841B950BB70110
:100510000E941D17B90103C02F5F3F4F02C020E0AA
:1005200030E03196E032F105B1F6DF91CF911F91C5
:100530000F91FF90EF9008958F929F92AF92BF928C
:10054000CF92DF92EF92FF920E947C0CC090360116
:10055000D0903701E0903801F0903901DC01CB01F7
:100560008C199D09AE09BF09893C9105A105B1050A
:1005700030F00E94540290933501809334010E9420
:100580007C0C60933601709337018093380190930F
:1005900039016091340170913501072E000C880BF0
:1005A000990B0E94171826E53EE049EC5EE30E9495
:1005B000E2180E94DA176B017C0120E030E048EC81
:1005C00052EC0E94E2180E94DF178AE991E00E9433
:1005D0006611C701B601905820E030E048EC52E4C3
:1005E0000E94E2180E94DF174B015C018DE991E047
:1005F0000E946611B40180EA91E00E94661120E039
:1006000030E048EC52E4C701B6010E94E2180E94B3
:10061000DF1783EA91E0FF90EF90DF90CF90BF90DB
:10062000AF909F908F900C94661168E770E08AE617
:1006300091E00E949F0D62E18AE991E00E94340FEF
:100640008111F9CF0895AF92BF92CF92DF92EF92CE
:10065000FF920F931F93CF93DF937C0189EEC82EF7
:1006600083E0D82E0FEF1FEF570182E0A80EB11CD8
:10067000C5010E943201EC01009739F4012B59F5B4
:100680008AE090E00E94AB0C37C08535EAEA9E070D
:1006900039F405351A4AF9F4F701148281E02DC0C6
:1006A0008635FAEA9F0739F405351A4AA1F481E044
:1006B000F701848322C08A3A954569F4F701628183
:1006C00070E041E050E085E393E00E946E1485E322
:1006D00093E00E94A414F1E0CF1AD1088E0141F6F4
:1006E0008BEA90E00E94130A85E790E00E94130ACB
:1006F00082E790E00E94130A80E0DF91CF911F9182
:100700000F91FF90EF90DF90CF90BF90AF90089542
:100710008F929F92AF92BF92DF92EF92FF920F93D0
:100720001F93CF93DF930E947C0C00914C0110919A
:100730004D0120914E0130914F01DC01CB01801B16
:10074000910BA20BB30B82349105A105B10508F4FE
:1007500051C080914A0190914B0181309105F1F097
:100760006CF4892B81F541E063E685E991E00E9414
:10077000EB0B909363018093620125C08230910559
:10078000C1F0039701F541E063E686E891E00E943D
:10079000EB0B909369018093680115C041E063E61B
:1007A00080E991E00E94EB0B9093650180936401D6
:1007B0000AC041E063E68BE891E00E94EB0B909366
:1007C00067018093660180914A0190914B010196E7
:1007D00064E070E00E941D1790934B0180934A01E2
:1007E0000E947C0C60934C0170934D0180934E01EC
:1007F00090934F010E947C0C00914601109147019B
:100800002091480130914901DC01CB01801B910B03
:10081000A20BB30B4597A105B10598F081E891E0D3
:100820000E94670E90E090935101809350010E94C6
:100830007C0C60934601709347018093480190932C
:1008400049010E947C0C00914201109143012091CA
:10085000440130914501DC01CB01801B910BA20BBF
:10086000B30B4597A105B10508F4C5C080917A0185
:10087000811109C087E791E00E942303811105C01F
:1008800080E090E097C010927A0110927D01109262
:100890007C010CE0DD24D39480917C0190917D015A
:1008A0008238910568F789E791E00E943201EC01F6
:1008B00080917C0190917D01C5352AEAD20731F4FF
:1008C00021E020937A0110927B0174C0C635EAEAD8
:1008D000DE0731F421E020937A0120937B016AC086
:1008E000209709F467C020917E0130917F0128177D
:1008F0003907A8F4225E3F4F30937F0120937E0199
:10090000029FB001039F700D112480917701909197
:1009100078010E94C51A9093780180937701209105
:100920007C0130917D01029FC001039F900D112435
:10093000E0907701F0907801E80EF91E4701A12CB4
:10094000B12C10E080917B01811106C0153021F49B
:10095000F701138612860DC089E791E00E943201EB
:10096000A80EB91EF401819391934F011F5F1630B9
:1009700049F7CA15DB0549F480917C0190917D010E
:10098000019690937D0180937C0189E791E00E941C
:1009900032018535FAEA9F0719F410927B017CCF6A
:1009A00086359A4A19F4D0927B0176CF80917C01EA
:1009B00090917D0190935701809356011816190666
:1009C00084F4E0917701F091780182819381909392
:1009D00053018093520184819581909355018093B6
:1009E00054010E947C0C60934201709343018093F8
:1009F0004401909345010E947C0C00913E011091AE
:100A00003F012091400130914101DC01CB01801B6D
:100A1000910BA20BB30B0397A105B10590F080E8F1
:100A200091E00E94231390935901809358010E94F2
:100A30007C0C60933E0170933F0180934001909342
:100A400041010E947C0C00913A0110913B012091E0
:100A50003C0130913D01DC01CB01801B910BA20BCD
:100A6000B30B0397A105B10590F161E08AE991E02C
:100A70000E94C90F90E090935B0180935A0160E05F
:100A80008AE991E00E94C90F90E090935D01809304
:100A90005C0163E08AE991E00E94C90F90E09093C5
:100AA0005F0180935E0162E08AE991E00E94C90FD4
:100AB00090E090936101809360010E947C0C6093B0
:100AC0003A0170933B0180933C0190933D01DF918B
:100AD000CF911F910F91FF90EF90DF90BF90AF905B
:100AE0009F908F9008958F929F92AF92BF92EF92B6
:100AF000FF920F931F93CF93DF930E947C0C4B01C7
:100B00005C01C0E0D0E062E18AE991E00E94340F2C
:100B1000882309F4FDC161E18AE991E00E94340F64
:100B2000811111C0219664EF71E080E090E00E9495
:100B3000850C8AE691E00E94CA0A62E870E08AE6C3
:100B400091E00E949F0DC130D10509F4F5C0C2307B
:100B5000D10509F420C12097A1F60E9488030E94C4
:100B60007C0CDC01CB0188199909AA09BB09893ED3
:100B70009340A105B10538F28AE691E00E94CA0AC5
:100B800040E060E08AE691E00E949C0A6091620188
:100B9000709163014AE050E08AE691E00E94460EBF
:100BA00040E064E08AE691E00E949C0A6091640162
:100BB000709165014AE050E08AE691E00E94460E9D
:100BC00040E068E08AE691E00E949C0A609166013C
:100BD000709167014AE050E08AE691E00E94460E7B
:100BE00040E06CE08AE691E00E949C0A6091680116
:100BF000709169014AE050E08AE691E00E94460E59
:100C000041E060E08AE691E00E949C0A6091500118
:100C1000709151014AE050E08AE691E00E94460E50
:100C200041E064E08AE691E00E949C0A60915601EE
:100C3000709157014AE050E08AE691E00E94460E2A
:100C400080915601909157011816190604F541E05C
:100C500068E08AE691E00E949C0A609152017091DE
:100C600053014AE050E08AE691E00E94460E41E0DE
:100C70006CE08AE691E00E949C0A609154017091B8
:100C800055014AE050E08AE691E00E94460E42E0BB
:100C900060E08AE691E00E949C0A609158017091A0
:100CA000590142E050E08AE691E00E94610E43E083
:100CB00060E08AE691E00E949C0A60915A0170917E
:100CC0005B014AE050E08AE691E00E94460E43E074
:100CD00064E08AE691E00E949C0A60915C01709158
:100CE0005D014AE050E08AE691E00E94460E43E052
:100CF00068E08AE691E00E949C0A60915E01709132
:100D00005F014AE050E08AE691E00E94460E43E02F
:100D10006CE08AE691E00E949C0A6091600170910B
:100D200061014AE050E08AE691E00E94460E0E948E
:100D30007C0C4B015C01E7CE8AE691E00E94CA0A76
:100D4000E12CF12C00E010E0A80155954795559550
:100D50004795B7016F7077278AE691E00E949C0A59
:100D6000602F80E891E00E9460134AE050E0682F15
:100D70008AE691E00E945A0E0F5F1F4F84E0E80E52
:100D8000F11C0031110501F768EE73E080E090E09E
:100D90000E94850CB8CE8AE691E00E94CA0A6CE8EF
:100DA00070E08AE691E00E949F0D6CE97FEF8AE98E
:100DB00091E00E94661164EF71E080E090E00E9493
:100DC000850C64E670E08AE991E00E94661164EFA8
:100DD00071E080E090E00E94850C60E070E08AE9BC
:100DE00091E00E94661168EE73E080E090E00E945E
:100DF000850C64E670E08DE991E00E94661164EF75
:100E000071E080E090E00E94850C6CE97FEF8DE955
:100E100091E00E94661164EF71E080E090E00E9432
:100E2000850C60E070E08DE991E00E94661168EE4B
:100E300073E080E090E00E94850C64E670E080EA58
:100E400091E00E94661164EF71E080E090E00E9402
:100E5000850C6CE97FEF80EA91E00E94661164EFF7
:100E600071E080E090E00E94850C60E070E080EA34
:100E700091E00E94661168EE73E080E090E00E94CD
:100E8000850C64E670E083EA91E00E94661164EFED
:100E900071E080E090E00E94850C6CE97FEF83EACE
:100EA00091E00E94661164EF71E080E090E00E94A2
:100EB000850C60E070E083EA91E00E94661168EEC4
:100EC00073E080E090E00E94850C6EEC7FEF8AE991
:100ED00091E00E94661162E370E08DE991E00E946A
:100EE000661162E370E080EA91E00E94661162E3BD
:100EF00070E083EA91E00E94661168EE73E080E0A2
:100F000090E00E94850C8AE991E00E941D0FF9CDC6
:100F1000DF91CF911F910F91FF90EF90BF90AF9015
:100F20009F908F900895CF92DF92EF92FF920F9350
:100F30001F93CF93DF938AE691E00E94CA0A67E984
:100F400070E08AE691E00E949F0D0E947C0C6B018C
:100F50007C01C0E0D0E004EF11E062E18AE991E0B9
:100F60000E94340F882309F458C02097A1F48AE620
:100F700091E00E94CA0A6FE970E08AE691E00E945F
:100F80009F0D0E947C0C6C197D094AE050E08AE6B6
:100F900091E00E94460E0E947C0C6B017C01209720
:100FA00031F441E060E08AE691E00E949C0A0E94F0
:100FB00088038091580190915901892B59F020970D
:100FC00031F46AEA70E08AE691E00E949F0D0E9487
:100FD0009C021CC080915601909157011816190669
:100FE0005CF4209731F460EB70E08AE691E00E94B7
:100FF0009F0D0E947C010AC0209731F465EB70E0E0
:101000008AE691E00E949F0D0E942002CE01019687
:10101000B8010E941D17EC01A0CF8AE991E0DF9191
:10102000CF911F910F91FF90EF90DF90CF900C9494
:101030001D0FCF93DF936CEB70E08AE691E00E9486
:101040009F0DC1E0D0E062E18AE991E00E94340F97
:10105000882309F470C08AE691E00E94CA0A61E11F
:101060008AE991E00E94340F811121C08AE991E060
:101070000E941D0F219662E870E08AE691E00E94CE
:101080009F0D68EE73E080E090E00E94850C8AE698
:1010900091E00E94CA0A6EEC70E08AE691E00E943C
:1010A0009F0D60ED77E080E090E00E94850CC130FC
:1010B000D105B1F0C230D10529F12097C9F565EB12
:1010C00070E08AE691E00E949F0D0E948803809163
:1010D000560190915701892B31F50E942002B3CF20
:1010E00060EE70E08AE691E00E949F0D0E94880306
:1010F000809156019091570118161906A4F40E9488
:101100007C01A1CF6AEA70E08AE691E00E949F0D1F
:101110000E9488038091580190915901892B19F000
:101120000E949C0290CF8AE991E00E941D0F8BCF14
:10113000C0E0D0E088CF8AE991E0DF91CF910C94B4
:101140001D0FCF93DF938AE691E00E94CA0A8AE9D5
:1011500091E00E941D0F67EE70E08AE691E00E9428
:101160009F0D41E060E08AE691E00E949C0A6DEEEE
:1011700070E08AE691E00E949F0D42E060E08AE61E
:1011800091E00E949C0A6AEF70E08AE691E00E947A
:101190009F0D43E060E08AE691E00E949C0A61E0D6
:1011A00071E08AE691E00E949F0DC0E0D0E04C2FF4
:1011B0006FE08AE691E00E949C0A6AE070E080E0BD
:1011C00090E00E94850C62E18AE991E00E94340F70
:1011D000811102C0219614C061E18AE991E00E9468
:1011E000340F811105C0219758F4C0E0D0E00DC044
:1011F00063E18AE991E00E94340F8111D8CF0CC0DD
:10120000C530D10514F0C4E0D0E064EF71E080E0B7
:1012100090E00E94850CCBCF8AE691E00E94CA0A3A
:10122000C130D10571F02CF4CD2B81F40E949307CD
:101230000DC0C230D10541F0239741F40E94190836
:1012400005C00E94730502C00E94150364EF71E09F
:1012500080E090E0DF91CF910C94850C8AE991E0D9
:101260000E94D00F0E944C010E94A108FDCF0F9355
:101270001F93CF93DF938AE991E00E94491020E009
:1012800030E040E050E060E770E086E891E00E94E6
:101290004D0BC6E8D1E004E111E01983088320E09A
:1012A00030E040E050E062E770E08BE891E00E94BF
:1012B0004D0B1E830D8320E030E040E050E06AE7F4
:1012C00070E080E991E00E944D0B1B870A8720E0C7
:1012D00030E040E050E06EE770E085E991E00E9488
:1012E0004D0B188B0F8781E891E00E94190F80E861
:1012F00091E00E94F312C7E7D1E01B821E821D829B
:101300008EE190E098878F8388E691E00E9498199B
:101310009983888384E58A8324E040E16FE38AE649
:1013200091E0DF91CF911F910F910C94260A80914B
:101330007701909178010C942D1A1F920F920FB69D
:101340000F9211242F938F939F93EF93FF938BB161
:101350009CB18871E091AE01EF5FEF712091AD011A
:10136000E21739F0E093AE01F0E0EF54FE4F9083C6
:1013700001C082E09091AC01892B8093AC01FF9178
:10138000EF919F918F912F910F900FBE0F901F9013
:1013900018951F920F920FB60F9211248F939F935F
:1013A000EF93FF939091B0018091AF01981761F096
:1013B000E091AF01EF5FEF71E093AF01F0E0EF522A
:1013C000FE4F80818CB901C05598FF91EF919F919C
:1013D0008F910F900FBE0F901F9018951092B00133
:1013E0001092AF011092AE011092AD0197FF03C0B1
:1013F00022E02BB99F7790BD89B988E98AB986E840
:1014000080BD08959091B0019F5F9F712091AF01C1
:101410009217E1F3E92FF0E0EF52FE4F80839093B3
:10142000B001559A0895CF93DF93FC018491EF01A9
:101430002196882321F00E94020AFE01F7CFDF9156
:10144000CF91089580E090E008950895FC01138203
:1014500012828AE191E091838083118664834287BE
:101460002387148608951F93CF93DF93EC01162FE3
:101470006C8185E393E00E94C1138C85612F682BFA
:1014800085E393E00E94E31385E393E0DF91CF913E
:101490001F910C94E0130F931F93CF938C01C62FD1
:1014A00064600E94330A81E090E00E94AB0C6C2FD4
:1014B0006B7FC8010E94330A82E390E0CF911F91B5
:1014C0000F910C94AB0C1F93CF93DF93EC01162F6D
:1014D0000E94330A612FCE01DF91CF911F910C94AE
:1014E0004B0AFF920F931F93CF93DF931F92CDB7B9
:1014F000DEB78C01F62E962F907F692F642BC801E2
:1015000049830E94630A80E1F89EB0011124498159
:10151000642BC8010F90DF91CF911F910F91FF9025
:101520000C94630A40E00C94710A62E00E94920AF3
:1015300080ED97E00C94AB0CCF93DF93CDB7DEB783
:1015400028970FB6F894DEBF0FBECDBF9C0188E090
:10155000E0E7F0E0DE01119601900D928A95E1F747
:10156000F9018085841710F44FEF480FFE01319682
:10157000E40FF11DE40FF11D9081690F6068C9014E
:1015800028960FB6F894DEBF0FBECDBFDF91CF9186
:101590000C94920ACF93DF93EC0161E00E94920ACF
:1015A00080ED97E00E94AB0C8985882339F040E0FC
:1015B00060E0CE01DF91CF910C949C0ADF91CF9136
:1015C0000895FC016681262F246026836C600C94AC
:1015D000920AFC016681262F2160268369600C94A3
:1015E000920A41E00E94710A81E090E00895CF9351
:1015F000DF93EC01423018F08D8188608D8348873D
:10160000222329F0413019F48D8184608D8362E3B7
:1016100070E080E090E00E94850C6C85CE010E9415
:10162000330A68EE73E080E090E00E94850C60E38E
:10163000CE010E94630A84E991E10E94AB0C60E351
:10164000CE010E94630A84E991E10E94AB0C60E341
:10165000CE010E94630A86E990E00E94AB0C60E232
:10166000CE010E94630A6D816062CE010E94920ADF
:1016700084E08E83CE010E94E10ACE010E94CA0A54
:1016800082E08F8366E0CE010E94920ACE01DF9154
:10169000CF910C94950A0C94E90AFC0186E291E042
:1016A00091838083628343832483089585E393E059
:1016B0000C94B713EF92FF920F931F93CF93DF9386
:1016C0001F92CDB7DEB77C018B01FC01628185E3FF
:1016D00093E049830E94C1134981642F85E393E01D
:1016E0000E94E31301151105B1F0602F85E393E02B
:1016F0000E94E313F7016381662369F084818823E4
:1017000051F085E393E00E94E313F701648185E3E0
:1017100093E00E94E31385E393E00F90DF91CF9174
:101720001F910F91FF90EF900C94E013693649F0F0
:101730006D3661F0633651F440E050E061E570E0F1
:1017400009C040E050E060E570E004C040E050E0D7
:1017500062E570E00C945A0BEF92FF920F931F9387
:10176000CF93DF938C01EA01AB0160E070E00E944F
:101770005A0B4C2FF801628185E393E00E946B14B1
:1017800085E393E00E949C148C179D07CCF38E0197
:101790000150104E83E0000F111F8A95E1F7E12CF4
:1017A000F12C209781F085E393E00E94A414002E91
:1017B00002C0880F991F0A94E2F7E80EF91E2197DC
:1017C00008501109EECFC701DF91CF911F910F9102
:1017D000FF90EF900895CF93DF93EC01442349F0FD
:1017E0000E94960BE881F9810190F081E02DCE01F5
:1017F000099542E050E062E070E0CE01DF91CF91C8
:101800000C94AC0B41E050E060E070E00E94AC0B47
:101810000895CF93DF93EC01CE010E94020C8F3F1D
:1018200039F461E070E080E090E00E94850CF4CF34
:10183000DF91CF9108951F920F920FB60F9211244E
:101840002F933F934F935F936F937F938F939F93C8
:10185000AF93BF93EF93FF938091F3019091F401C5
:10186000A091F501B091F6010196A11DB11D8093E3
:10187000F3019093F401A093F501B093F6018091E8
:10188000F2018A3079F48091F101811109C081E07F
:101890008093F10178940E942A11F8941092F1013A
:1018A0001092F2018091F2018F5F8093F2010E9409
:1018B000160DFF91EF91BF91AF919F918F917F9105
:1018C0006F915F914F913F912F910F900FBE0F90AD
:1018D0001F90189583B78B6083BF89B7826089BFDB
:1018E0008AEF8CBF1092F3011092F4011092F5016F
:1018F0001092F601789408956091F3017091F401CB
:101900008091F5019091F6010895CF92DF92EF92C8
:10191000FF920F931F930091F3011091F401209116
:10192000F5013091F601C090F301D090F401E09000
:10193000F501F090F601C01AD10AE20AF30AC616C0
:10194000D706E806F90678F31F910F91FF90EF9004
:10195000DF90CF900895019739F0880F991F880F75
:10196000991F02970197F1F70895FC01108281E019
:10197000818312820895FC0162830895FC015081E5
:10198000442349F081E090E001C0880F6A95EAF7AE
:10199000852B808309C021E030E001C0220F6A95C9
:1019A000EAF72095252320838081581711F081E0E4
:1019B00081830895CF93DF93EC016A8185E393E0FF
:1019C0000E94C11341E06A8185E393E00E946B1499
:1019D00085E393E00E94A414888385E393E00E944A
:1019E000E0138881DF91CF910895CF93DF93FC01BD
:1019F00021812223C1F0EC0185E393E00E94B81419
:101A0000811111C06A8185E393E00E94C11341E016
:101A100050E0BE0185E393E00E94711485E393E0FA
:101A20000E94E0131982DF91CF910895789480B3DA
:101A300093B392959F70807F892B9091F701E92F46
:101A4000F0E0E850FE4F80839F5F9093F701F89499
:101A5000089581B38F7081BB84B38F7084BB82B3D0
:101A6000806F82BB85B3806F85BB80E090E0FC0116
:101A7000E850FE4F108201968F3F9105C1F70895FF
:101A8000843018F493E0981B892F61E070E002C065
:101A9000660F771F8A95E2F740E050E080E0FA0198
:101AA000E850FE4F208130E026233723232B09F412
:101AB0008F5F4F5F5F4F4F3F510589F70895CF927A
:101AC000DF92EF92FF920F931F93CF93DF936C01FE
:101AD0007A018B01C0E0D0E0CE15DF0589F0D80196
:101AE0006D918D01D601ED91FC910190F081E02D79
:101AF000C6010995892B11F47E0102C02196ECCF15
:101B0000C701DF91CF911F910F91FF90EF90DF9070
:101B1000CF9008956115710579F0FB0101900020C7
:101B2000E9F73197AF01461B570BDC01ED91FC91B2
:101B30000280F381E02D099480E090E008950C94F8
:101B40008A0DDC01ED91FC910190F081E02D09946A
:101B50008F929F92AF92BF92CF92DF92EF92FF92BD
:101B60000F931F93CF93DF93CDB7DEB7A1970FB637
:101B7000F894DEBF0FBECDBF7C01D42EC52EDB0195
:101B800019A2223008F42AE08E010F5D1F4F822E29
:101B9000912CA12CB12C6D2D7C2DCD01A501940192
:101BA0000E943117D22EC32EDA01015011096A307A
:101BB00071058105910510F4605D01C0695CF80153
:101BC0006083232B242B252B31F7B801C7010E94FA
:101BD0008A0DA1960FB6F894DEBF0FBECDBFDF9180
:101BE000CF911F910F91FF90EF90DF90CF90BF901A
:101BF000AF909F908F900895CF92DF92EF92FF92D7
:101C00000F931F93CF93DF93EC016A017B012115A2
:101C1000310579F4E881F9810190F081E02D642F9C
:101C2000DF91CF911F910F91FF90EF90DF90CF90B8
:101C300009942A303105E9F477FF1AC06DE20E9459
:101C4000A10D8C0144275527BA014C195D096E0975
:101C50007F092AE0CE010E94A80D800F911FDF911D
:101C6000CF911F910F91FF90EF90DF90CF9008954B
:101C70002AE0B701A601CE01DF91CF911F910F910C
:101C8000FF90EF90DF90CF900C94A80D9A01AB01DC
:101C9000770F660B770B0C94FC0D2115310541F481
:101CA000DC01ED91FC910190F081E02D642F09940D
:101CB0000C94A80D9A01462F50E060E070E00C945F
:101CC0004D0E9A01AB0160E070E00C944D0ECF9385
:101CD000DF93EC018C8181110DC086E191E00E94BF
:101CE000130A8FEF90E00E94130A8CEF90E00E949D
:101CF000130A2AC060E670E085E393E00E94CB13EC
:101D000061E085E393E00E94E31385E393E00E94A2
:101D1000E01341E050E060E670E085E393E00E946C
:101D20006E1485E393E00E949C1418161906CCF7F4
:101D300085E393E00E94A41488839B81992329F072
:101D40009981890F8F3F09F480E0DF91CF91089549
:101D50001F93CF93DF93EC018C8181110BC084EF33
:101D600090E00E94130A8DED90E00E94130A8AED24
:101D700090E021C01A8219821B821BE029813A81DE
:101D800021153105E9F4CE010E94670E90E09A8397
:101D900089836AE070E080E090E00E94850C115039
:101DA00069F782ED90E00E94130A86EB90E00E94B2
:101DB000130A83EB90E0DF91CF911F910C94130AEB
:101DC00080E890E0821B930B9A83898381E08B8368
:101DD000DF91CF911F91089560E670E085E393E075
:101DE0000E94CB1385E393E00E94E01391E0811100
:101DF00090E0892F0895CF93DF93EC010E94EC0EC1
:101E000081110EC08BE391E00E94130A81E291E000
:101E10000E94130A8EE191E0DF91CF910C94130A96
:101E200018821A82198281E08C831B82DF91CF9104
:101E30000895FC0114820C94FB0E0F931F93CF9313
:101E4000DF938C01C0E0D0E060E070E0C8018C0F4F
:101E50009D1F0E9466112396CC30D105A9F7DF9112
:101E6000CF911F910F910895CF936430E8F427B379
:101E700070E06C5F7F4F81E090E0062E01C0880F1C
:101E80000A94EAF7382F3095232327BB98B3892B80
:101E900088BB86B390E002C0959587956A95E2F776
:101EA00098B3932398BB70C06C3068F4C62F0C961F
:101EB0000E94DA0C90E06CEF6C0F02C0959587954C
:101EC0006A95E2F761C0643108F042C084EF860F82
:101ED000843000F544B32FE0261B30E02C5F3F4FE9
:101EE00081E090E0022E01C0880F0A94EAF7582F93
:101EF0005095352F342334BB95B3892B85BB83B3E1
:101F000090E002C0959587952A95E2F795B39523C1
:101F100095BB3AC021B3605170E06C5F7F4F81E0A8
:101F200090E0062E01C0880F0A94EAF7382F30950A
:101F3000232321BB92B3892B82BB80B390E002C0E4
:101F4000959587956A95E2F792B3932392BB1CC04F
:101F50006C31E0F42AB3645181E090E0062E01C0B8
:101F6000880F0A94EAF7382F309523232ABB9BB3B6
:101F7000892B8BBB89B390E002C0959587956A95B4
:101F8000E2F79BB393239BBB817001C080E0CF91AC
:101F90000895862F683010F40C94400D80E0089569
:101FA0001F93CF93DF938DED91E00E94130AC1E060
:101FB000D0E01C2F6C2F85E393E00E94C11385E3D2
:101FC00093E00E94E013811131C089ED91E00E94FD
:101FD000130A4AE050E0BE018FEE93E00E94460EE5
:101FE000C433D10519F48FEC91E01EC0C03619F44A
:101FF00084EC91E019C0C43519F48CEB91E014C065
:1020000080E98C0F803118F48DEA91E00DC0C9325F
:1020100019F484EA91E008C018531C3218F480E9DE
:1020200091E002C086E891E00E94130A2196CF3722
:10203000D10509F0BECF87E791E0DF91CF911F91E5
:102040000C94130ACF9368E370E085E393E00E9459
:10205000CB1385E393E00E94E013C82F6FE370E099
:1020600085E393E00E94CB1385E393E00E94E013A5
:102070008C0F69F08FE691E00E94130A86E491E0EC
:102080000E94130A83E491E0CF910C94130ACF913C
:102090000895CF92DF92EF92FF920F931F93CF9309
:1020A000DF938C01EC017C018CE0E80EF11CCE0189
:1020B0000E9445112396CE15DF05C9F7CE010E9477
:1020C000B50C68018FE0C80ED11CC6010E94B50C8A
:1020D00088E090E00E94EE090E94BB120E94290D48
:1020E00085E393E00E94B7136FE3CE010E94BB0C1F
:1020F00068E3C6010E94BB0C7801C0E0A6016C2F0A
:10210000C7010E944A11CF5F83E0E80EF11CC43082
:10211000A9F784B38C6084BB85B38C6085BB8AB31C
:10212000807F8ABB8AB38F708ABB87B38F7087BB6F
:102130000E946A0CC801DF91CF911F910F91FF900F
:10214000EF90DF90CF900C94221020916600222314
:1021500041F090930903809308030E94BB121092F0
:1021600066000895EF92FF920F931F93CF93DF9332
:10217000E82EF12CEE0CFF1CF701E050FD4F4081E2
:102180005181F701E850FD4F00811181401751073F
:1021900009F459C0B801641B750B2091670030E049
:1021A0002617370724F48A01020F131F0AC0EE27EF
:1021B000FF27E21BF30B6E177F071CF48A01021B3B
:1021C000130BD82FC82FCC0F8091080390910903CF
:1021D00017FF10C041E06C2F0E94BE0C61E06C0F35
:1021E00040E080910803909109030E94BE0C602F8B
:1021F00061951EC040E06C2F0115110569F00E9429
:10220000BE0C61E06C0F41E08091080390910903DE
:102210000E94BE0C602F0CC00E94BE0C61E06C0FCF
:1022200040E080910803909109030E94BE0C60E099
:102230008D2F0E948511F701E050FD4F118300831F
:1022400081E08093F702DF91CF911F910F91FF9072
:10225000EF90089580E00E94B21081E00E94B210D9
:1022600082E00E94B21083E00E94B2108091F702D7
:10227000882351F00E94E91280910803909109038C
:102280000E94F50C1092F7020895FC011082128250
:1022900011820895EF92FF920F931F93CF93DF93D4
:1022A0001F92CDB7DEB77C018A01CA0169830E9403
:1022B000A510F70112830183698160830F90DF917C
:1022C000CF911F910F91FF90EF900895FC0165361B
:1022D000710514F064E670E06C398FEF780714F440
:1022E0006CE97FEF2FEF269FC001279F900D1124EF
:1022F00064E670E00E941D17E081F0E0EE0FFF1F22
:10230000E850FD4F718360830895863028F4E82FEC
:10231000F0E0E15DFC4F60830895CF93DF9325E00B
:1023200030E040E0842F90E082179307D4F4BC01A2
:10233000675D7C4FDB015C91FC01E65DFC4F8081B9
:10234000C52FD0E0C15DDC4FA82FB0E0A15DBC4F30
:10235000C8819C919C1718F4DB018C9350834F5FCC
:10236000E1CF21503109E9F6DF91CF910895209115
:102370006E0030916F0080916A0090916B004091E7
:102380006C0050916D0050936F0040936E0040912F
:1023900068005091690050936B0040936A0030933D
:1023A0006D0020936C0090936900809368000895FD
:1023B0001F920F920FB60F9211242F933F934F93BA
:1023C0005F936F937F938F939F93AF93BF93EF939D
:1023D000FF9380910A03811122C080910C0388230E
:1023E00051F00E94B71110920C0388B3807F88BB14
:1023F00082B3837F82BB80910A03E0916A00F091EF
:102400006B00E80FF11D808198B3282F2F70922B5D
:1024100098BB92B3869586958C70892B13C0E091FA
:102420006A00F0916B00E80FF11D808128B3982FAE
:102430009F709095922398BB92B3869586958C70E9
:102440008095892382BB80910A03E0916E00F09110
:102450006F00E80FF11D808183BD80910A038F5FBB
:1024600080930A03E0916E00F0916F00E80FF11D78
:102470009081992311F0873011F410920A03FF9193
:10248000EF91BF91AF919F918F917F916F915F91EC
:102490004F913F912F910F900FBE0F901F90189565
:1024A00080910C038111FCCF81E080930C0308958F
:1024B0000F931F93CF93DF93E0916800F091690031
:1024C0001082A9E2B3E050E040E061E070E016E085
:1024D0001A0F9D91E92FF0E0E15DFC4F80818B3078
:1024E00078F1E0916800F0916900EB0101C0CC0F38
:1024F0009A95EAF790819C2B908390E0841B910938
:10250000E0916800F0916900252F30E08530910559
:1025100034F4E20FF31F8081C82BC08311C08A30CE
:10252000910514F48AE090E0E20FF31FC183E0917B
:102530006C00F0916D00E20FF31F8083480F5F5F26
:102540001A13C7CF852F90E0E0916C00F0916D00D9
:10255000E80FF91F40954083563040F420916C00FD
:1025600030916D00F901E80FF91F1182DF91CF91D1
:102570001F910F910895CF9380910B03811127C074
:10258000F89410922903C1E0C0932A0382E080935B
:102590002B0383E080932C0384E080932D0385E05C
:1025A00080932E030E9458120E94B71187B38F6048
:1025B00087BB81B38C6081BB85B58B6085BD89B7D6
:1025C000806889BF8FEF83BD7894C0930B03CF9150
:1025D000089580910C038111FCCF0E948D110E94FF
:1025E00058120C945012FC01108208950F931F93FF
:1025F000CF93DF9300D0CDB7DEB78C0119821A825A
:1026000069E670E085E393E00E94CB1342E050E07E
:10261000BE016F5F7F4F85E393E00E94711485E3F5
:1026200093E00E94E01360ED77E080E090E00E948C
:10263000850C81E0F80180830F900F90DF91CF919E
:102640001F910F9108950F931F93CF93DF931F92C4
:10265000CDB7DEB7FC018081882351F169E670E0D7
:1026600085E393E00E94CB13198241E050E0BE0164
:102670006F5F7F4F85E393E00E94711442E069E64B
:1026800085E393E00E946B1485E393E00E94A41419
:102690008C0185E393E00E94A41420E030E0382F01
:1026A000020F131F85E393E00E94E013C80102C0EC
:1026B00080E090E00F90DF91CF911F910F910895EE
:1026C0001F93CF93DF931F92CDB7DEB7FC018081BC
:1026D000882319F1162F69E670E085E393E00E94E4
:1026E000CB131E5F198341E050E0BE016F5F7F4F47
:1026F00085E393E00E94711441E069E685E393E08D
:102700000E946B1485E393E00E94A414182F85E3C4
:1027100093E00E94E013812F01C080E00F90DF91D1
:10272000CF911F910895CF93DF9300D0CDB7DEB73F
:10273000FC0180818823B1F081E089836A8369E6A6
:1027400070E085E393E00E94CB1342E050E0BE01CD
:102750006F5F7F4F85E393E00E94711485E393E000
:102760000E94E0130F900F90DF91CF910895109287
:102770005B0310925A0310923803109237030C94A3
:102780000B1581E080933603609359031092380350
:102790001092370308950C94C1130F93062F21E074
:1027A0004091370369E373E0809159030E946015FB
:1027B0001092380310923703109236030F91089548
:1027C00061E00C94CD13CF93DF931F92CDB7DEB7AA
:1027D000698380913603882389F0809137038032A2
:1027E000A8F480913803E82FF0E0E75CFC4F6083A9
:1027F0008F5F809338038093370305C061E0CE017B
:1028000001960E94B31581E090E002C080E090E064
:102810000F90DF91CF9108954F925F926F927F92C8
:10282000AF92BF92CF92EF92FF920F931F93CF93ED
:10283000DF935C01F62ED42F28013901EE20F9F048
:102840000E94C113CE2DC43008F0C3E0C15098F0EF
:1028500028E0C29FC0011124A301920104C0569533
:102860004795379527958A95D2F7CA01B901C501D1
:102870000E94E313EBCF60E0C5010E94CD134D2F02
:10288000D13208F040E22C2D6CE573E08F2D0E94D0
:102890001B1510925B0380935A03DF91CF911F9118
:1028A0000F91FF90EF90CF90BF90AF907F906F907F
:1028B0005F904F900895CF92EF920F931F93C22E87
:1028C000E12C00E010E098010E940C141F910F9180
:1028D000EF90CF90089521E00C945B1421E00C94CC
:1028E0005B14CF92DF92EF92FF920F931F93CF93DF
:1028F000DF936C01262F972F8A018091360388235E
:1029000069F0C62FD72F7E01E40EF51ECE15DF0528
:1029100049F06991C6010E94E313F8CF642F822F1A
:102920000E94B315C801DF91CF911F910F91FF90C5
:10293000EF90DF90CF90089580915A0390E020911E
:102940005B03821B9109089590915B0380915A0368
:10295000981750F4E92FF0E0E45AFC4F208130E062
:102960009F5F90935B0302C02FEF3FEFC901089573
:102970008091360308951F920F920FB60F92112483
:102980002F933F934F938F939F93EF93FF93409198
:102990007C0380917D034423C9F090E081509F4FD8
:1029A0009BBD8ABD30917E03E0917F03F09180034F
:1029B000208181E090E002C0880F991F3A95E2F7EC
:1029C0008095909530E08223932314C02DEE32E160
:1029D000281B31093BBD2ABD30917E03E0917F0366
:1029E000F0918003208181E090E001C0880F3A954A
:1029F000EAF7822B808381E0842780937C03FF9118
:102A0000EF919F918F914F913F912F910F900FBE1A
:102A10000F901F9018951092EE0381E08093EC03C5
:102A20001092EB03A89AA99A0898099888E480B9AB
:102A300085E486BF0895413208F040C09091EE03CE
:102A40009111FCCF91E09093EE032093EC032FEFD4
:102A5000209381031092C603240F2093C503909303
:102A6000ED039091ED03880F892B8093ED03809106
:102A7000EB03813051F41092EB038091ED0383B9A5
:102A800006B603FCFACF85EC01C085EE86BF8091C7
:102A9000EE038130E1F38091C603841710F4409176
:102AA000C60327EC33E0FB01D9018A2F821B841770
:102AB00018F48D918193F9CF842F089580E00895C3
:102AC0000F934132D0F59091EE039111FCCF32E09B
:102AD0003093EE030093EC033FEF309381031092A9
:102AE000C6034093C503FB0167EC73E0DB013A2F9B
:102AF000361B341718F431913D93F9CF1092ED0342
:102B00003091ED03880F832B8093ED038091EB03CD
:102B1000813051F41092EB038091ED0383B906B636
:102B200003FCFACF85EC01C085EE86BF222339F085
:102B30008091EE03823019F4F9CF91E011C08091B9
:102B400081038F3F69F080918103803231F0809161
:102B50008103803321F094E003C092E001C093E050
:102B6000892F0F9108954091A303262F30E0240F61
:102B7000311D21323105DCF42091EE032430C9F4FB
:102B8000FC0180E090E0861758F43091A303219176
:102B9000DC01AB55BC4FA30FB11D2C930196F3CFB5
:102BA0008091A303680F6093A30380E0089581E000
:102BB000089582E0089585ED86BF06B604FCFDCF3A
:102BC0001092EE03089585EC86BF1092EE030895EF
:102BD0001F920F920FB60F9211242F933F934F9392
:102BE0005F936F937F938F939F93AF93BF93EF9375
:102BF000FF9381B1887F803609F49BC078F58832D5
:102C000009F45DC090F4803109F456C038F488238B
:102C100009F4EEC0883009F44FC0EEC0883109F4E1
:102C20004EC0803209F45EC0E7C0803409F468C049
:102C300058F4803309F456C0883309F0DDC080931E
:102C400081030E94E315D8C0803509F44EC0883551
:102C500009F45BC0883409F0CFC0CCC0883909F4CE
:102C6000BFC0A8F4883709F464C038F4883609F482
:102C700060C0803709F45DC0BFC0883809F4B0C0B7
:102C8000803909F45CC0803809F0B6C058C0803B78
:102C900009F47FC038F4803A09F462C0883A09F434
:102CA00078C0AAC0803C09F49EC0883C09F49BC04F
:102CB000883B09F483C0A0C08091ED0310C09091BF
:102CC000C6038091C503981758F5E091C60381E0CB
:102CD0008E0F8093C603F0E0E953FC4F808183B9E7
:102CE00085EC7FC08093810385C0E091C60381E0BD
:102CF0008E0F8093C60383B1F0E0E953FC4F8083CD
:102D00009091C6038091C50368C0E091C60381E03D
:102D10008E0F8093C60383B1F0E0E953FC4F8083AC
:102D20008091EC03811166C081E08093EB0384EA1B
:102D30005BC083E08093EE0310928203D1CF809139
:102D40008203803208F04CC0E091820381E08E0F54
:102D50008093820383B1F0E0ED57FC4F8083C0CFB6
:102D60000E94E31580918203803230F4E091820367
:102D7000F0E0ED57FC4F10826091820370E0E0912B
:102D8000E703F091E80383E893E00995109282034A
:102D900033C084E08093EE031092A4031092A30347
:102DA000E091E903F091EA0309958091A303811171
:102DB00005C081E08093A3031092A503E091A403D2
:102DC00081E08E0F8093A403F0E0EB55FC4F8081EF
:102DD00083B99091A4038091A303981708F480CF3E
:102DE00085E886BF09C085EC86BF1092EE0304C05B
:102DF000109281030E94DB15FF91EF91BF91AF917B
:102E00009F918F917F916F915F914F913F912F9102
:102E10000F900FBE0F901F901895862F0E94020AE8
:102E200081E090E00895EFEEF3E0138212828CE2ED
:102E300091E0918380831482089597FB072E16F406
:102E4000009407D077FD09D00E94531707FC05D0E6
:102E50003EF4909581959F4F0895709561957F4FB1
:102E60000895A1E21A2EAA1BBB1BFD010DC0AA1FCB
:102E7000BB1FEE1FFF1FA217B307E407F50720F0E3
:102E8000A21BB30BE40BF50B661F771F881F991F5E
:102E90001A9469F760957095809590959B01AC01A7
:102EA000BD01CF010895AA1BBB1B51E107C0AA1F9A
:102EB000BB1FA617B70710F0A61BB70B881F991FDB
:102EC0005A95A9F780959095BC01CD010895EE0F14
:102ED000FF1F0590F491E02D09945058BB27AA27B5
:102EE0000E9485170C9494180E945B1838F00E9479
:102EF000621820F039F49F3F19F426F40C94581806
:102F00000EF4E095E7FB0C945218E92F0E94B918D3
:102F100058F3BA17620773078407950720F079F40E
:102F2000A6F50C94DB180EF4E0950B2EBA2FA02D0D
:102F30000B01B90190010C01CA01A0011124FF2766
:102F4000591B99F0593F50F4503E68F11A16F04061
:102F5000A22F232F342F4427585FF3CF4695379560
:102F60002795A795F0405395C9F77EF41F16BA0B25
:102F7000620B730B840BBAF09150A1F0FF0FBB1FD3
:102F8000661F771F881FC2F70EC0BA0F621F731F1C
:102F9000841F48F4879577956795B795F7959E3F79
:102FA00008F0B0CF9395880F08F09927EE0F97950A
:102FB000879508950E946B18E3950C94A5180E94BC
:102FC000E6176894B1110C94DC1808950E94C1189A
:102FD00088F09F5798F0B92F9927B751B0F0E1F0DA
:102FE000660F771F881F991F1AF0BA95C9F714C08A
:102FF000B13091F00E94DB18B1E008950C94DB1819
:10300000672F782F8827B85F39F0B93FCCF38695C2
:1030100077956795B395D9F73EF49095809570951F
:1030200061957F4F8F4F9F4F0895E89409C097FB9C
:103030003EF490958095709561957F4F8F4F9F4F8F
:103040009923A9F0F92F96E9BB279395F6958795D3
:1030500077956795B795F111F8CFFAF4BB0F11F496
:1030600060FF1BC06F5F7F4F8F4F9F4F16C088233D
:1030700011F096E911C0772321F09EE8872F762F73
:1030800005C0662371F096E8862F70E060E02AF0B4
:103090009A95660F771F881FDAF7880F96958795A0
:1030A00097F9089597F99F6780E870E060E00895C8
:1030B0009FEF80EC089500240A9416161706180650
:1030C0000906089500240A9412161306140605062C
:1030D00008950C9458180E94C118D8F3E894E0E0C1
:1030E000BB279F57F0F02AED3FE049EC06C0EE0FFA
:1030F000BB0F661F771F881F28F0B23A620773075D
:10310000840728F0B25A620B730B840BE3959A95EF
:1031100072F7803830F49A95BB0F661F771F881FAF
:10312000D2F790480C945119092E0394000C11F415
:10313000882352F0BB0F40F4BF2B11F460FF04C092
:103140006F5F7F4F8F4F9F4F0895EF93E0FF07C052
:10315000A2EA2AED3FE049EC5FEB0E9485170E944E
:1031600094180F90039401FC9058E4E5F0E00C945F
:103170005D1957FD9058440F551F59F05F3F71F08E
:103180004795880F97FB991F61F09F3F79F08795CE
:103190000895121613061406551FF2CF4695F1DF57
:1031A00008C0161617061806991FF1CF86957105E7
:1031B000610508940895E894BB2766277727CB011B
:1031C00097F908950E94F5180C9494180E945B18C2
:1031D00038F00E94621820F0952311F00C945218D8
:1031E0000C94581811240C94DC180E94B91870F330
:1031F000959FC1F3950F50E0551F629FF001729F9C
:10320000BB27F00DB11D639FAA27F00DB11DAA1FAA
:10321000649F6627B00DA11D661F829F2227B00DF7
:10322000A11D621F739FB00DA11D621F839FA00D82
:10323000611D221F749F3327A00D611D231F849FD2
:10324000600D211D822F762F6A2F11249F57504029
:103250009AF0F1F088234AF0EE0FFF1FBB1F661FA4
:10326000771F881F91505040A9F79E3F510580F06D
:103270000C9452180C94DC185F3FE4F3983ED4F39E
:10328000869577956795B795F795E7959F5FC1F711
:10329000FE2B880F911D9695879597F908959F3F6E
:1032A00031F0915020F4879577956795B795880F01
:1032B000911D9695879597F908959F938F937F9386
:1032C0006F93FF93EF939B01AC010E94E218EF9183
:1032D000FF910E9471192F913F914F915F910C9432
:1032E000E218DF93CF931F930F93FF92EF92DF9239
:1032F0007B018C01689406C0DA2EEF010E94F5185C
:10330000FE01E894A5912591359145915591A6F33B
:10331000EF010E948517FE019701A801DA9469F771
:10332000DF90EF90FF900F911F91CF91DF91089563
:10333000CF93DF938230910510F482E090E0E0912A
:10334000F603F091F70320E030E0C0E0D0E03097E2
:1033500011F14081518148175907C0F048175907AA
:1033600061F482819381209719F09B838A832BC01B
:103370009093F7038093F60326C02115310519F0C9
:103380004217530718F49A01BE01DF01EF010280D2
:10339000F381E02DDCCF2115310509F1281B390B14
:1033A0002430310590F412968D919C9113976115FC
:1033B000710521F0FB019383828304C09093F7038E
:1033C0008093F603FD01329644C0FD01E20FF31F26
:1033D00081939193225031092D933C933AC02091CF
:1033E000F4033091F503232B41F4209162003091D6
:1033F00063003093F5032093F40320916000309133
:1034000061002115310541F42DB73EB740916400AC
:1034100050916500241B350BE091F403F091F50306
:10342000E217F307A0F42E1B3F0B2817390778F09B
:10343000AC014E5F5F4F2417350748F04E0F5F1FFA
:103440005093F5034093F4038193919302C0E0E01D
:10345000F0E0CF01DF91CF9108950F931F93CF93A9
:10346000DF93009709F48CC0FC013297138212821B
:103470000091F6031091F7030115110581F42081E5
:103480003181820F931F2091F4033091F5032817A7
:10349000390779F5F093F503E093F40371C0D8018F
:1034A00040E050E0AE17BF0750F412962D913C91CA
:1034B0001397AD012115310509F1D901F3CF9D0114
:1034C000DA013383228360817181860F971F82170F
:1034D000930769F4EC0128813981260F371F2E5F8D
:1034E0003F4F318320838A819B8193838283452B45
:1034F00029F4F093F703E093F60342C01396FC938C
:10350000EE931297ED01499159919E01240F351FB9
:10351000E217F30771F480819181840F951F029661
:1035200011969C938E938281938113969C938E9394
:103530001297E0E0F0E0D80112968D919C911397DC
:10354000009719F0F8018C01F6CF8D919C919801AC
:103550002E5F3F4F820F931F2091F4033091F503AC
:103560002817390769F4309729F41092F70310925D
:10357000F60302C0138212821093F5030093F40342
:10358000DF91CF911F910F910895A0E0B0E0EBEC97
:10359000FAE10C949C1BEC01009721F4CB010E94F2
:1035A0009819B8C0FC01E60FF71F9C0122503109A1
:1035B000E217F30708F4ACC0D9010D911C911197E3
:1035C00006171707B0F00530110508F49FC0C801B1
:1035D00004978617970708F499C002501109061B33
:1035E000170B019311936D937C93CF010E942D1AB9
:1035F0008DC05B01A01AB10A4C01800E911EA091F2
:10360000F603B091F70340E050E0E12CF12C109765
:1036100009F44AC0A815B905D1F56D907C901197B1
:10362000630182E0C80ED11CCA14DB0480F1A3013F
:103630004A195B096A0182E0C80ED11C1296BC903F
:1036400012971396AC91B5E0CB16D10440F0B2823C
:10365000A38351834083D9016D937C930AC00E5F8D
:103660001F4FC301800F911FF90191838083EB2DC0
:10367000FA2FE114F10431F0D7011396FC93EE9385
:10368000129744C0F093F703E093F6033FC08D9187
:103690009C9111974817590708F4AC017D011296C7
:1036A0000D90BC91A02DB3CF8091F4039091F503C0
:1036B00088159905E1F446175707C8F48091600012
:1036C00090916100009741F48DB79EB740916400DE
:1036D00050916500841B950BE817F907C8F4F09327
:1036E000F503E093F403F901718360830FC0CB010C
:1036F0000E9498197C01009759F0A801BE010E9410
:103700008F1BCE010E942D1AC70104C0CE0102C03A
:1037100080E090E0CDB7DEB7EEE00C94B81BFB0183
:10372000DC0102C001900D9241505040D8F708953D
:103730002F923F924F925F926F927F928F929F92C1
:10374000AF92BF92CF92DF92EF92FF920F931F93AF
:10375000CF93DF93CDB7DEB7CA1BDB0B0FB6F89460
:10376000DEBF0FBECDBF09942A88398848885F84A0
:103770006E847D848C849B84AA84B984C884DF8011
:10378000EE80FD800C811B81AA81B981CE0FD11DF5
:103790000FB6F894DEBF0FBECDBFED01089511E066
:1037A000C7E0D1E004C0FE010E9467172196C8302F
:0837B000D107C9F7F894FFCF1F
:1037B8000000F8032000010A14030D0322031B0371
:1037C8000000400014005400636F6E666967696EFC
:1037D80067006E657874204D6F6465004D6F746F77
:1037E8007220546573740072756E6E696E67004C52
:1037F8006F6F7054696D653A20004C696E69650099
:1038080042616C6C0053756368656E00746573740F
:10381800696E672046756E6374696F6E73007374A2
:10382800617274696E6720696E2032207365630067
:10383800466F6C6C6F7700537461727400546573D3
:10384800742053656E736F727300436F6E66696799
:1038580000546573742046756E6374696F6E7300E7
:1038680000000000090C00000000F10A5F0D220AA8
:10387800250A00000000090C000000000D175F0D6C
:04388800220A250AE1
:00000001FF
