:100000000C9405010C942D010C942D010C942D01E0
:100010000C942D010C942D010C942D010C942D01A8
:100020000C942D010C942D010C942D010C94C514ED
:100030000C942D010C94F8010C9424020C942D01C5
:100040000C942D010C942D010C942D010C942D0178
:100050000C942D01010204081020408000000000D3
:100060000001020408102040800102040810204012
:1000700080000000804020100804020102020202F9
:10008000020202020000000000040404040404044C
:100090000403030303030303030000000101010140
:1000A000010101010000390036003300300000007A
:1000B000000000003B003800350032000000000066
:1000C00000003A00370034003100000000004E41CB
:1000D0004E494E495459494E46CDCCCC3D0AD723C2
:1000E0003C17B7D13877CC2B329595E6241FB14F0A
:1000F0000A000020410000C84200401C4620BCBE4F
:100100004CCA1B0E5AAEC59D7400407A10F35A00BB
:10011000A0724E18090010A5D4E80000E876481730
:100120000000E40B54020000CA9A3B000000E1F515
:1001300005000080969800000040420F000000A0DB
:100140008601000000102700000000E80300000006
:10015000006400000000000A000000000001000030
:100160000000002C76D888DC674F0823DFC1DFAEA3
:1001700059E1B1B796E5E3E453C63AE6519976966C
:10018000E8E6C28426EB898C9B62ED407C6FFCEF35
:10019000BC9C9F40F2BAA56FA5F490055A2AF75C63
:1001A000936B6CF9676DC11BFCE0E40D47FEF52015
:1001B000E6B500D0ED902E030094357705008084DD
:1001C0001E080000204E0A000000C80C33333333F1
:1001D0000F986E12831141EF8D2114893BE655165D
:1001E000CFFEE6DB18D1844B381BF77C1D901DA495
:1001F000BBE424203284725E228100C9F124ECA188
:10020000E53D2700D416F916D81611241FBECFE5F8
:10021000D8E0DEBFCDBF10E0A0E6B0E0EEECF2E447
:1002200002C005900D92A83AB107D9F721E0A8EADB
:10023000B0E001C01D92AA34B207E1F711E0C4E0BA
:10024000D1E004C02197FE010E946317C230D1079C
:10025000C9F70E94D1160C945A210C940000809189
:10026000F4008F5F8093F4008E33A8F08091F0004B
:100270009091F100A091F200B091F3000196A11DC0
:10028000B11D8093F0009093F100A093F200B09321
:10029000F3001092F40008952FB7F8946091F000E5
:1002A0007091F1008091F2009091F3002FBF0895BA
:1002B0008F929F92AF92BF92CF92DF92EF92FF9276
:1002C0006B017C010E944C014B015C010E944C01BE
:1002D000DC01CB0188199909AA09BB098C159D0578
:1002E000AE05BF0598F3FF90EF90DF90CF90BF90E1
:1002F000AF909F908F900895789481E083BF89B7E5
:10030000816089BF0895CF93DF9390E0FC01EC5AA0
:10031000FF4F2491FC01E458FF4F8491882361F141
:1003200090E0880F991FFC01E054FF4FC591D491D4
:10033000FC01EE54FF4FA591B491611109C09FB724
:10034000F8948881209582238883EC912E230BC01A
:10035000623061F49FB7F8943881822F80958323AF
:100360008883EC912E2B2C939FBF06C08FB7F894F7
:10037000E8812E2B28838FBFDF91CF91089590E0E5
:10038000FC01EC5AFF4F2491FC01E458FF4FE4912B
:10039000EE2389F0F0E0EE0FFF1FEE54FF4FA59122
:1003A000B491611105C08C91E22FE095E82302C061
:1003B000EC91E22BEC93089590E0FC01EC5AFF4F96
:1003C0002491FC01E458FF4FE491EE2371F0F0E03A
:1003D000EE0FFF1FEC55FF4FA591B491EC91E22376
:1003E00081E090E021F480E0089580E090E00895BD
:1003F0001F920F920FB60F9211242F938F939F93FA
:10040000EF93FF938BB19CB18871E091F700EF5FA0
:10041000EF712091F600E21739F0E093F700F0E079
:10042000E650FF4F908301C082E09091F500892B48
:100430008093F500FF91EF919F918F912F910F90F5
:100440000FBE0F901F9018951F920F920FB60F922C
:1004500011248F939F93EF93FF939091F9008091D4
:10046000F800981761F0E091F800EF5FEF71E0930A
:10047000F800F0E0E65EFE4F80818CB901C055982F
:10048000FF91EF919F918F910F900FBE0F901F9052
:1004900018951092F9001092F8001092F70010923F
:1004A000F60097FF03C022E02BB99F7790BD89B972
:1004B00088E98AB986E880BD08959091F700809117
:1004C000F600981781F0E091F600EF5FEF71E0938E
:1004D000F600F0E0E650FF4F80819091F500109219
:1004E000F50090E0089580E091E008959091F90082
:1004F0009F5F9F712091F8009217E1F3E92FF0E0E0
:10050000E65EFE4F80839093F900559A0895CF934D
:10051000DF93EC018991882319F00E947602FACFCB
:10052000DF91CF910895CF93DF93FC018491EF0188
:100530002196882321F00E947602FE01F7CFDF91F9
:10054000CF9108958F929F92AF92BF92CF92DF92F8
:10055000EF92FF920F931F93CF93DF9390E0FC01F4
:10056000EC5AFF4FA491FC01E458FF4F849166239D
:1005700011F0BA2F01C0B0E0BA01A90134E0440F74
:10058000551F661F771F3A95D1F78A019B0146E0F8
:1005900036952795179507954A95D1F790E0880FDE
:1005A000991F8C559F4F480159014FEF841A940AA7
:1005B000A40AB40AC12CD12C7601FC01C591D491B6
:1005C00068816A236B131AC05FEFC51AD50AE50A62
:1005D000F50AC814D904EA04FB0479F746C04601B9
:1005E00057016FEF861A960AA60AB60AC016D106F8
:1005F000E206F30609F439C075016401FC01C591F6
:10060000D49168816A236B13EACFB901A8014C1910
:100610005D096E097F096A017B0120E030E0A901D4
:10062000FC01C591D49168816A236B130AC02C1513
:100630003D054E055F05C9F02F5F3F4F4F4F5F4FA0
:10064000EFCFA5E1B0E00E945817DC01CB01805C40
:100650009F4FAF4FBF4FBC01CD0124E096958795CA
:10066000779567952A95D1F703C060E070E0CB01DC
:10067000DF91CF911F910F91FF90EF90DF90CF907E
:10068000BF90AF909F908F90089580EC87B980E8DD
:1006900086B986B1876086B9369A3699FECF84B11D
:1006A00085B1089597B1907E97B997B1809587707D
:1006B000982B97B9369A3699FECF24B185B190E040
:1006C000982F8827820F911D0895CF92DF92EF9285
:1006D000FF920F931F93CF93DF93F82ED62FE42E24
:1006E00007E010E0C0E087E0C82ED12C61E08D2F3C
:1006F0000E94BF018F2DE1100AC00E94DC0196010B
:10070000201B310B01C0880F2A95EAF707C00E9411
:10071000DC01002E01C0880F0A94EAF7C82B60E0C4
:100720008D2F0E94BF010150110900F78C2FDF911E
:10073000CF911F910F91FF90EF90DF90CF90089590
:10074000BF92CF92DF92EF92FF920F931F93CF93BE
:10075000DF93C82ED62EB42EC7E0D0E0022F10E0D3
:1007600087E0E82EF12CB11005C0C7018C1B9D0B52
:10077000980102C098018C2F02C0359527958A9563
:10078000E2F7B901617077278C2D0E94BF0161E00B
:100790008D2D0E94BF0160E08D2D0E94BF01219729
:1007A00010F7DF91CF911F910F91FF90EF90DF90A5
:1007B000CF90BF9008959093430180934201089891
:1007C00009989C0140E050E060E87EE380E090E022
:1007D0000E943917822F203130F030E0205131094A
:1007E00035952795822F80B911B884EC86BF85B3E3
:1007F000836085BB089584E986BF08958FEF9FEFDE
:1008000006B607FC02C00197D9F781B1887F089529
:10081000846886BF0C94FE03AF92BF92CF92DF92A2
:10082000EF92FF920F931F93CF93DF93C62F662310
:1008300051F0613019F0E12CF12C09C068E4E62E8A
:1008400070E4F72E04C040E2E42E58E1F52E04E1F6
:1008500010E094EAD92E982F9160C92ED82FDE7F10
:1008600024E8B22E34E9A32ED6BE0E94FE038830BF
:1008700021F0803111F084E815C0C11102C0D3B954
:1008800003C0C13009F4C3B8B6BE0E94FE038F1581
:1008900081F08E1104C001501109A6BE05C0883335
:1008A00019F084E986BF03C010161106ECF280E04F
:1008B00001C081E0DF91CF911F910F91FF90EF90E8
:1008C000DF90CF90BF90AF90089583B984E886BF42
:1008D0000E94FE03883231F091E0803309F090E00D
:1008E000892F01C081E081700895CF93DF93EC01DF
:1008F000611102C080E401C080E00E94080493B14D
:100900009883982F977F81E0903509F080E0DF9100
:10091000CF9108950F931F93CF93DF93141615066D
:10092000F4F461157105D9F08A01EB0160E00E94D1
:100930000C04811102C080E013C00C0F1D1F8991AF
:100940000E946504811105C091B1987F983321F40C
:10095000F2CFC017D10799F794E996BF01C081E0A3
:10096000DF91CF911F910F910895AF92BF92CF92D7
:10097000DF92EF92FF921F93CF93DF93442389F18D
:100980006115710571F1C42F6B0161E00E940C04C7
:10099000182F81111BC018C08FEFE81AF80AEC1647
:1009A000FD06E4F461E0EA14FB0409F060E0C6012E
:1009B0008E0D9F1D0E9475048111EECF81B1887F3D
:1009C000883311F084E986BF10E00CC0E12CF12CD3
:1009D000D0E05E0181E0A81AB108E1CF84E986BFCA
:1009E00001C011E0812FDF91CF911F91FF90EF9017
:1009F000DF90CF90BF90AF900895CF93DF9300D05A
:100A0000CDB7DEB769834A8342E050E0BE016F5F35
:100A10007F4F0E948A040F900F90DF91CF9108952D
:100A2000CF93DF93C82FD62F60E00E940C04811172
:100A300002C080E014C08D2F0E9465048823C9F392
:100A400061E08C2F0E940C04882399F361E080E020
:100A500090E00E947504882361F394E996BFDF91CA
:100A6000CF910895FF920F931F93CF93DF93C82FD9
:100A7000F62E8A01D22F60E00E940C04882379F0C0
:100A80008F2D0E946504882351F04D2FB8018C2FC3
:100A9000DF91CF911F910F91FF900C94B50480E0EE
:100AA000DF91CF911F910F91FF90089588EF0895E6
:100AB00081E0089588EF0895862F0E94760281E0F4
:100AC00090E00895FC01138212822EE830E0318319
:100AD000208308950F931F938B0120E030E0D9010C
:100AE000C80180589B47A14EBF4FBC01CD0143E0D8
:100AF000660F771F881F991F4A95D1F7A9019801A2
:100B0000E4E0220F331F441F551FEA95D1F70E94DE
:100B10001717C90101971F910F910C94490208956D
:100B20000C94DB190C94DB190C94701A0C94701A49
:100B3000FC0181E090E02081222311F080E090E030
:100B4000089521E0FC012083089508950895FC0193
:100B5000808191810C94701ACF93DF93EC0188818E
:100B60009981009711F00E94701A198218821D82D3
:100B70001C821B821A82DF91CF9108950F931F93DD
:100B8000CF93DF93EC018B016F5F7F4F8881998159
:100B90000E94081B009731F0998388831B830A8386
:100BA00081E001C080E0DF91CF911F910F91089506
:100BB000CF93DF93EC0188819981892B29F08A8179
:100BC0009B818617970760F4CE010E94BE0588239B
:100BD00041F08C819D81892B19F4E881F981108283
:100BE00081E0DF91CF910895EF92FF920F931F93D1
:100BF000CF93DF93EC017B018A01BA010E94D805F3
:100C0000811104C0CE010E94AC0507C01D830C8376
:100C1000B701888199810E94551CCE01DF91CF9147
:100C20001F910F91FF90EF900895FC0111821082A7
:100C300013821282158214826115710551F0FB0135
:100C400001900020E9F73197AF01461B570B0C9438
:100C5000F4050895EF92FF920F931F93CF93DF93C4
:100C6000EC017B018A01BA010E94D805811104C000
:100C7000CE010E94AC0507C01D830C83B70188819B
:100C800099810E94161CCE01DF91CF911F910F9187
:100C9000FF90EF900895CF93DF93EC01FB0186174F
:100CA000970761F0608171816115710529F04481B8
:100CB00055810E94F40502C00E94AC05CE01DF916F
:100CC000CF910895FC011182108213821282158245
:100CD00014820C944B06CF93DF93EC0161157105E0
:100CE00059F0FB0101900020E9F73197AF01461B55
:100CF000570B0E94F40502C00E94AC05CE01DF91A3
:100D0000CF910895CF93DF9300D0CDB7DEB7FC012C
:100D100011821082138212821582148269831A82D0
:100D2000BE016F5F7F4F0E946B060F900F90DF91A7
:100D3000CF9108950F931F93CF93DF93CDB7DEB775
:100D400029970FB6F894DEBF0FBECDBF8C01862F5A
:100D5000F80111821082138212821582148250E0EF
:100D6000BE016F5F7F4F90E00E94101DBE016F5F5C
:100D70007F4FC8010E946B0629960FB6F894DEBF1C
:100D80000FBECDBFDF91CF911F910F9108950F93AB
:100D90001F93CF93DF93CDB7DEB762970FB6F8946A
:100DA000DEBF0FBECDBF8C01CB01F80111821082D6
:100DB000138212821582148250E0BE016F5F7F4F52
:100DC0000E949E1CBE016F5F7F4FC8010E946B0690
:100DD00062960FB6F894DEBF0FBECDBFDF91CF9104
:100DE0001F910F9108950F931F93CF93DF93CDB76A
:100DF000DEB761970FB6F894DEBF0FBECDBF8C0192
:100E0000CB01F801118210821382128215821482A2
:100E100050E0BE016F5F7F4F0E94101DBE016F5FEB
:100E20007F4FC8010E946B0661960FB6F894DEBF33
:100E30000FBECDBFDF91CF911F910F9108950F93FA
:100E40001F93CF93DF93CDB7DEB7A2970FB6F89479
:100E5000DEBF0FBECDBF8C01CB01BA01F8011182FC
:100E60001082138212821582148230E0AE014F5F2D
:100E70005F4F0E94B41CBE016F5F7F4FC8010E948C
:100E80006B06A2960FB6F894DEBF0FBECDBFDF9102
:100E9000CF911F910F9108950F931F93CF93DF93DD
:100EA000CDB7DEB7A1970FB6F894DEBF0FBECDBFAA
:100EB0008C01CB01BA01F8011182108213821282D7
:100EC0001582148230E0AE014F5F5F4F0E94E31C39
:100ED000BE016F5F7F4FC8010E946B06A1960FB6DF
:100EE000F894DEBF0FBECDBFDF91CF911F910F9160
:100EF0000895EF92FF920F931F93CF93DF93CDB797
:100F0000DEB7A1970FB6F894DEBF0FBECDBF7C0150
:100F1000CB01BA01F701118210821382128215826D
:100F2000148242E0420F8E010F5F1F4F0E94BB19D7
:100F3000BC01C7010E946B06A1960FB6F894DEBFF4
:100F40000FBECDBFDF91CF911F910F91FF90EF901A
:100F50000895EF92FF920F931F93CF93DF93CDB736
:100F6000DEB7A1970FB6F894DEBF0FBECDBF7C01F0
:100F7000CB01BA01F701118210821382128215820D
:100F8000148242E0420F8E010F5F1F4F0E94BB1977
:100F9000BC01C7010E946B06A1960FB6F894DEBF94
:100FA0000FBECDBFDF91CF911F910F91FF90EF90BA
:100FB00008950F931F93CF93DF9300D0CDB7DEB783
:100FC0008C016115710561F0CB0169837A830E9400
:100FD0001D1CAC0169817A81C8010E942A0602C0E9
:100FE0000E94AC05C8010F900F90DF91CF911F9127
:100FF0000F910895FC0111821082138212821582D2
:1010000014820C94D907EF92FF920F931F93CF9302
:10101000DF93FC01248135816115710511F480E0B5
:1010200019C041155105A9F07B01EC018A01020F9D
:10103000131FB8010E94D805882389F328813981BC
:101040008C819D81B701820F931F0E94551C1D83C7
:101050000C8381E0DF91CF911F910F91FF90EF9072
:101060000895FB0144815581608171810C940308CE
:101070006115710551F0FB0101900020E9F73197EE
:10108000AF01461B570B0C94030880E00895CF93E3
:10109000DF9300D0CDB7DEB769831A8241E050E01C
:1010A000BE016F5F7F4F0E9403080F900F90DF918A
:1010B000CF910895EF92FF920F931F93CF93DF93F9
:1010C00000D000D0CDB7DEB77C01862F4AE050E0DB
:1010D0008E010F5F1F4FB80190E00E949E1CF80127
:1010E00001900020E9F73197AF01401B510BB80187
:1010F000C7010E9403080F900F900F900F90DF918F
:10110000CF911F910F91FF90EF900895EF92FF9272
:101110000F931F93CF93DF93CDB7DEB728970FB60A
:10112000F894DEBF0FBECDBF7C01CB014AE050E09A
:101130008E010F5F1F4FB8010E949E1CF8010190A5
:101140000020E9F73197AF01401B510BB801C701EF
:101150000E94030828960FB6F894DEBF0FBECDBFDD
:10116000DF91CF911F910F91FF90EF900895EF9233
:10117000FF920F931F93CF93DF93CDB7DEB72797DF
:101180000FB6F894DEBF0FBECDBF7C01CB014AE0A5
:1011900050E08E010F5F1F4FB8010E94101DF80133
:1011A00001900020E9F73197AF01401B510BB801C6
:1011B000C7010E94030827960FB6F894DEBF0FBE42
:1011C000CDBFDF91CF911F910F91FF90EF900895C8
:1011D000EF92FF920F931F93CF93DF93CDB7DEB7BC
:1011E0002E970FB6F894DEBF0FBECDBF7C01CB01AA
:1011F000BA012AE030E08E010F5F1F4FA8010E9464
:10120000B41CF80101900020E9F73197AF01401BB1
:10121000510BB801C7010E9403082E960FB6F8942F
:10122000DEBF0FBECDBFDF91CF911F910F91FF9019
:10123000EF900895EF92FF920F931F93CF93DF9358
:10124000CDB7DEB72D970FB6F894DEBF0FBECDBF7A
:101250007C01CB01BA012AE030E08E010F5F1F4F05
:10126000A8010E94E31CF80101900020E9F73197E2
:10127000AF01401B510BB801C7010E9403082D9616
:101280000FB6F894DEBF0FBECDBFDF91CF911F9197
:101290000F91FF90EF900895EF92FF920F931F939D
:1012A000CF93DF93CDB7DEB764970FB6F894DEBF68
:1012B0000FBECDBF7C01CB01BA018E010F5F1F4F66
:1012C00022E044E00E94BB19BC01FC010190002017
:1012D000E9F73197AF01481B590BC7010E9403087A
:1012E00064960FB6F894DEBF0FBECDBFDF91CF91ED
:1012F0001F910F91FF90EF900895EF92FF920F933F
:101300001F93CF93DF93CDB7DEB764970FB6F894F2
:10131000DEBF0FBECDBF7C01CB01BA018E010F5FD6
:101320001F4F22E044E00E94BB19BC01FC01019068
:101330000020E9F73197AF01481B590BC7010E9404
:10134000030864960FB6F894DEBF0FBECDBFDF91E1
:10135000CF911F910F91FF90EF900895EF92FF9220
:101360000F931F93CF93DF936115710511F480E004
:101370001EC08B01EC01CB010E941D1C0097B1F037
:101380002C813D817C01E20EF31EB701CE010E944B
:10139000D805882361F3288139818C819D81B8012A
:1013A000820F931F0E94161CFD82EC8281E0DF9168
:1013B000CF911F910F91FF90EF900895CF93DF93FE
:1013C000EC01FB0144815581608171810E94030819
:1013D000811103C0CE010E94AC05CE01DF91CF91F7
:1013E0000895CF93DF93EC016115710561F0FB0166
:1013F00001900020E9F73197AF01461B570B0E947F
:101400000308811103C0CE010E94AC05CE01DF911B
:10141000CF910895CF93DF93EC010E94470881118B
:1014200003C0CE010E94AC05CE01DF91CF9108959B
:10143000CF93DF93EC010E945A08811103C0CE01C3
:101440000E94AC05CE01DF91CF910895CF93DF9339
:10145000EC010E948608811103C0CE010E94AC05F8
:10146000CE01DF91CF910895CF93DF93EC010E94DD
:10147000B708811103C0CE010E94AC05CE01DF91F7
:10148000CF910895CF93DF93EC010E94E80881117A
:1014900003C0CE010E94AC05CE01DF91CF9108952B
:1014A000CF93DF93EC010E941A09811103C0CE0192
:1014B0000E94AC05CE01DF91CF910895CF93DF93C9
:1014C000EC010E944C09811103C0CE010E94AC05C1
:1014D000CE01DF91CF910895CF93DF93EC010E946D
:1014E0007D09811103C0CE010E94AC05CE01DF91C0
:1014F000CF910895CF93DF93EC010E94AE09811143
:1015000003C0CE010E94AC05CE01DF91CF910895BA
:10151000CF93DF93DC01ED91FC91EB01A881B981C0
:10152000309711F01097C9F4109759F0EB012C8106
:101530003D81232B31F08C9190E09195819591091B
:1015400014C0309781F0DC0114968D919C91159711
:10155000892B49F0808190E008C0BD01CF01DF9167
:10156000CF910C944C1C80E090E0DF91CF910895D6
:10157000FC0144815581FB012481358142175307C9
:1015800029F40E94880A21E0892B09F020E0822FAB
:101590000895FC0124813581232B31F421E061156C
:1015A0007105A1F0FB0108C0FC01808191816115EA
:1015B000710531F421E0FC018081882339F005C0F8
:1015C0000E944C1C21E0892B09F020E0822F089515
:1015D0000E94880A892F881F8827881F08950E94E3
:1015E000880A21E0181619060CF020E0822F0895D1
:1015F0000E94880A21E0181619060CF420E0822FB8
:1016000008950E94880A892F8095881F8827881F3F
:101610000895EF92FF920F931F93CF93DF93861756
:10162000970709F1FC0124813581FB014481558133
:1016300024173507D1F4232BB1F0DC01CD91DC91D7
:10164000008111818991882371F090E00E94061C2D
:101650007C01F80181918F0190E00E94061CE81640
:10166000F90681F302C081E001C080E0DF91CF91F3
:101670001F910F91FF90EF900895DB011496ED916B
:10168000FC911597DC0114962D913C9115972E1B1A
:101690003F0B24173507A0F02D913C912115310502
:1016A00079F0DB016D917C916115710549F0CA01FA
:1016B000AF01820F931F0E945C1C21E0892B09F06F
:1016C00020E0822F0895FC0144815581FB01248193
:1016D00035814217530720F040E050E00C943D0B59
:1016E00080E00895FC0124813581FB01448155810E
:1016F00024173507A0F0FC0180819181009779F0D3
:10170000FB01608171816115710549F0241B350B66
:10171000820F931F0E944C1C21E0892B09F020E0CE
:10172000822F0895FC01248135816217730730F4FC
:1017300080819181FC01E60FF71F40830895FC0131
:10174000248135816217730720F48081918100978D
:1017500029F410923A018AE391E00895860F971FC9
:101760000895FC01248135816217730748F4808154
:101770009181009729F0FC01E60FF71F8081089501
:1017800080E008950C94B10B0F931F93CF93DF93D8
:101790004115510519F16115710501F1DC0114962E
:1017A000ED91FC9115972E173F0718F0FB01108261
:1017B00015C0E21BF30BEA012197EC17FD0708F4B3
:1017C000EF018B01FC0160817181620F731FAE011B
:1017D000C8010E946A1CC00FD11F1882DF91CF91EF
:1017E0001F910F910895CF93DF93FC0124813581E0
:1017F0004217530768F4C081D18170E0CE01840F95
:10180000951F0E94411C009719F08C1B9D0B02C074
:101810008FEF9FEFDF91CF91089540E050E00C945F
:10182000F30BCF93DF93FC012481358142175307DB
:1018300080F4FB01DC01CD91DC9160817181CE01EE
:10184000840F951F0E94841C009719F08C1B9D0B20
:1018500002C08FEF9FEFDF91CF91089540E050E0FD
:101860000C94110CDF92EF92FF920F931F93CF9382
:10187000DF93DC0114962D913C9115974217530785
:1018800018F08FEF9FEF1BC08C01EA012196DC015D
:10189000ED91FC911197EC0FFD1FD0801082ED901F
:1018A000FC9070E0C7010E94791CCE0DDF1DD8822C
:1018B000009739F3F80120813181821B930BDF916E
:1018C000CF911F910F91FF90EF90DF900895FC0151
:1018D00044815581415051090C94320CAF92BF9212
:1018E000CF92DF92EF92FF920F931F93CF93DF93EC
:1018F0007B018A01FB01448155814115510561F14C
:10190000FC01248135812115310531F1241735077A
:1019100018F10217130718F0890101501109FC0191
:10192000A080B180C501DFEFCFEF6501C00ED11EF1
:10193000C816D906A0F0F701608171810E94841C4D
:10194000009769F09C012A193B090217130710F050
:10195000D22FC32F0196ECCF8FEF9FEF02C08D2FB8
:101960009C2FDF91CF911F910F91FF90EF90DF900F
:10197000CF90BF90AF900895FC0144815581FB0149
:1019800024813581421B530B0C946E0CBF92CF9275
:10199000DF92EF92FF920F931F93CF93DF937C011F
:1019A0006B018A01E9012417350720F4812F890191
:1019B000C42FD82F6FE970E0C7010E941506D60129
:1019C00014968D919C91159780179107D0F08C17E4
:1019D0009D0708F4EC01D601ED91FC911197EC0FF5
:1019E000FD1FB08010824D915C91BA01600F711F94
:1019F000C7010E946B06D601ED91FC91EC0FFD1F13
:101A0000B082C701DF91CF911F910F91FF90EF90AE
:101A1000DF90CF90BF900895DC01ED91FC9130975D
:101A200029F40895861301C0408331968081811185
:101A3000F9CF08952F923F924F925F926F927F92CB
:101A40008F929F92AF92BF92CF92DF92EF92FF92CE
:101A50000F931F93CF93DF93FC0144805580411473
:101A6000510409F4D2C0FB016480758061147104D3
:101A700009F4CBC07A016B018C01FA01A480B58016
:101A8000A618B708FC01C081D181A114B104C1F42A
:101A9000F60160817181CE010E94841CEC01892BCA
:101AA00009F4B3C0F7016081718144815581CE0191
:101AB0000E94261CF70184819581C80FD91FE8CFA9
:101AC000B7FE02C04E0105C0FB01208031804201FB
:101AD00043C0F60160817181C4010E94841C2C0105
:101AE000892B21F1320168187908A301B401CE01D4
:101AF0000E94261CC60DD71DF701608171814481AB
:101B00005581CE010E94261CF70184819581C80F62
:101B1000D91FF60184809580840C951CF80184817E
:101B200095818A0D9B1D95838483D3CFB401CE010B
:101B3000DF91CF911F910F91FF90EF90DF90CF90A9
:101B4000BF90AF909F908F907F906F905F904F90DD
:101B50003F902F900C94551CB101CE010E94841C23
:101B6000009731F0EC01C60DD71D8A0C9B1CF4CFF9
:101B70008414950409F449C0F80182819381881581
:101B8000990530F4B401C8010E94BE058823E9F12B
:101B9000F801448155814150510957FD36C0B601C5
:101BA000C8010E946E0CEC0197FD2FC0F8018081E6
:101BB0009181F601248135812C0F3D1F820F931FE7
:101BC000F80144815581421B530BBC018A0D9B1DBA
:101BD0000E942F1CF801848195818A0D9B1D95839D
:101BE000848320813181F901E80FF91F1082F80107
:101BF00080819181F70160817181448155818C0FD1
:101C00009D1F0E94261CAE01C6CFDF91CF911F9170
:101C10000F91FF90EF90DF90CF90BF90AF909F908B
:101C20008F907F906F905F904F903F902F9008958E
:101C3000CF93DF93EC01CB019A014C815D81641756
:101C4000750718F52115310501F1620F731F46174D
:101C5000570718F49A01281B390BE881F981421BB8
:101C6000530B5D834C83481B590B280F391FBF0151
:101C7000620F731F8E0F9F1F0E946A1CE881F981FB
:101C80008C819D81E80FF91F1082DF91CF9108951B
:101C9000FC01448155816417750720F4461B570BDE
:101CA0000C94180E0895CF93DF93FC01C081D1816D
:101CB000209741F08881882329F090E00E94061C3B
:101CC0008993F8CFDF91CF910895CF93DF93FC01F3
:101CD000C081D181209741F08881882329F090E04C
:101CE0000E940E1C8993F8CFDF91CF910895AF9297
:101CF000BF92CF92DF92EF92FF920F931F93CF93F9
:101D0000DF93DC01CD90DC901197C114D104F1F187
:101D10001496CD91DC9115972097C1F18C01560155
:101D20007501BFEFAB1ABB0AF701808190E00E94FA
:101D3000FD1B892BA9F72197CC0DDD1D888190E033
:101D40000E94FD1B892B91F4AE014F5F5F4F4E192E
:101D50005F09D80115965C934E931497CE14DF0457
:101D600050F4B701C6010E94261C05C0CE15DF0540
:101D700058F32197E3CFD801ED91FC911197149678
:101D80008D919C911597E80FF91F1082DF91CF91EB
:101D90001F910F91FF90EF90DF90CF90BF90AF9089
:101DA0000895FC0180819181009711F00C94D61B5D
:101DB00060E070E0CB010895FC0180819181009783
:101DC00011F00C94D21B60E070E0CB0108950895EF
:101DD000CF93DF93EC01E881F981662351F08FEF17
:101DE000808341E06C818A819B810E94651241E081
:101DF00008C0108240E06C818A819B810E9465123C
:101E000040E06D818A819B810E9465128A819B815D
:101E1000DF91CF910C948E12EF92FF920F931F934C
:101E2000CF93DF93EC01822F6C834D831B830A8356
:101E3000F982E88261E00E94830160E0CE01DF91D7
:101E4000CF911F910F91FF90EF900C94E80E0F939C
:101E50001F93CF93DF936115710539F460E0DF9133
:101E6000CF911F910F910C94E80E8B01EC018A81A8
:101E70009B811616170634F440E06C810E946512AF
:101E800041E005C041E06C810E94651240E06D8137
:101E90008A819B810E9465128A819B810E948E1299
:101EA000B80117FF03C0719561957109E881F98147
:101EB0006F3F710519F014F06FEF70E06083DF91F0
:101EC000CF911F910F910895CF92DF92EF92FF92E1
:101ED0000F931F93CF93DF936C01EB017B01E40E13
:101EE000F51E00E010E0CE15DF0561F06991D60126
:101EF000ED91FC910190F081E02DC6010995080F4C
:101F0000191FF1CFC801DF91CF911F910F91FF9061
:101F1000EF90DF90CF900895EF92FF920F931F9371
:101F2000CF93DF937C01FB0100E010E06491EF01AF
:101F30002196662361F0D701ED91FC910190F0812B
:101F4000E02DC7010995080F191FFE01EFCFC80149
:101F5000DF91CF911F910F91FF90EF900895DC01D9
:101F6000ED91FC91DB0114964D915C9115976D916B
:101F70007C910280F381E02D09940C94E416DC013D
:101F8000ED91FC910190F081E02D0994DB01ED9140
:101F9000FC9111970190F081E02DBC01CD010994D5
:101FA0000F931F93CF93DF93EC016DE00E94BF0F5F
:101FB0008C016AE0CE010E94BF0F800F911FDF915C
:101FC000CF911F910F9108950F931F93CF93DF939C
:101FD000EC010E948C0F8C01CE010E94D00F800F6B
:101FE000911FDF91CF911F910F9108950F931F9330
:101FF000CF93DF93EC010E94AF0F8C01CE010E94C2
:10200000D00F800F911FDF91CF911F910F910895F5
:102010000F931F93CF93DF93EC010E94E4168C0182
:10202000CE010E94D00F800F911FDF91CF911F91A1
:102030000F9108950F931F93CF93DF93EC010E94AC
:10204000BF0F8C01CE010E94D00F800F911FDF9136
:10205000CF911F910F9108950F931F93CF93DF930B
:10206000EC010E94C60F8C01CE010E94D00F800FA0
:10207000911FDF91CF911F910F9108958F929F92A1
:10208000AF92BF92CF92DF92EF92FF920F931F9386
:10209000CF93DF93CDB7DEB7A1970FB6F894DEBF2D
:1020A0000FBECDBF6C01142FE52FCB01022F19A25B
:1020B000223008F40AE07E0121E2E20EF11C802EBB
:1020C000912CA12CB12C612F7E2FA50194010E948F
:1020D0001717029F1019112481E0E81AF1081A302D
:1020E00010F4105D01C0195CF7011083122FE32F6B
:1020F000CA01232B242B252B31F7B701C6010E94DF
:10210000E416A1960FB6F894DEBF0FBECDBFDF91E7
:10211000CF911F910F91FF90EF90DF90CF90BF90E4
:10212000AF909F908F900895CF92DF92EF92FF92A1
:102130000F931F93CF93DF93EC016A017B0121156D
:10214000310579F4E881F9810190F081E02D642F67
:10215000DF91CF911F910F91FF90EF90DF90CF9083
:1021600009942A303105E9F477FF1AC06DE20E9424
:10217000BF0F8C0144275527BA014C195D096E0920
:102180007F092AE0CE010E943E10800F911FDF914F
:10219000CF911F910F91FF90EF90DF90CF90089516
:1021A0002AE0B701A601CE01DF91CF911F910F91D7
:1021B000FF90EF90DF90CF900C943E109A01AB010E
:1021C000770F660B770B0C9494100F931F93CF939C
:1021D000DF93EC019A01AB01770F660B770B0E943E
:1021E00094108C01CE010E94D00F800F911FDF91BF
:1021F000CF911F910F9108950F931F93CF93DF936A
:10220000EC010E9494108C01CE010E94D00F800F2F
:10221000911FDF91CF911F910F91089521153105E5
:1022200041F4DC01ED91FC910190F081E02D642FEF
:1022300009940C943E109A01462F50E060E070E043
:102240000C940E110F931F93CF93DF93EC019A011F
:10225000462F50E060E070E00E940E118C01CE012C
:102260000E94D00F800F911FDF91CF911F910F918E
:1022700008959A01AB0160E070E00C940E110F9389
:102280001F93CF93DF93EC019A01AB0160E070E004
:102290000E940E118C01CE010E94D00F800F911F61
:1022A000DF91CF911F910F9108950F931F93CF93BB
:1022B000DF93EC010E940E118C01CE010E94D00F21
:1022C000800F911FDF91CF911F910F9108954F9231
:1022D0005F926F927F928F929F92AF92BF92CF92B6
:1022E000DF92EF92FF92CF93DF93EC016A017B01C3
:1022F000B22E9A01AB01C701B6010E94B61988231C
:1023000019F062E970E027C026013701E89477F8F8
:102310002FEF3FEF4FE75FE7C301B2010E94B6190D
:1023200081110DC02FEF3FEF4FE75FE7C301B2010F
:102330000E94E51718161CF466E970E00CC02FEF38
:102340003FEF4FE75FE4C701B6010E94441918163A
:102350009CF46AE970E0CE01DF91CF91FF90EF909D
:10236000DF90CF90BF90AF909F908F907F906F90B5
:102370005F904F900C94E4162FEF3FEF4FE75FEC28
:10238000C701B6010E94E51787FDE3CF20E030E0EA
:10239000A901C701B6010E94E51787FF0AC06DE2D7
:1023A000CE010E94BF0F4C01F7FAF094F7F8F094B9
:1023B00002C0812C912CA12C60E070E080E09FE3B2
:1023C000AB1441F020E030E040E251E40E94EA1713
:1023D000A394F6CF9B01AC01C701B6010E94791707
:1023E0002B013C010E9463186B017C010E94921832
:1023F0009B01AC01C301B2010E9478172B013C0183
:102400002AE0B701A601CE010E943E107C01E80C33
:10241000F91CBB2039F06EE970E0CE010E94E41691
:10242000E80EF91EDB2CDD2039F120E030E040E23F
:1024300051E4C301B2010E9449192B013C010E94E1
:102440005C184B01770FAA08BB082AE030E0B50101
:10245000A401CE010E949410E80EF91EC501B4013A
:102460000E9494189B01AC01C301B2010E9478172D
:102470002B013C01DA94D7CFC701DF91CF91FF90B8
:10248000EF90DF90CF90BF90AF909F908F907F9014
:102490006F905F904F9008950C9467110F931F9366
:1024A000CF93DF93EC010E9467118C01CE010E9453
:1024B000D00F800F911FDF91CF911F910F91089541
:1024C000FC01108221E021830895FC015081442306
:1024D00049F081E090E001C0880F6A95EAF7852B0A
:1024E000808309C021E030E001C0220F6A95EAF73D
:1024F0002095252320838081581711F081E0818366
:102500000895CF93DF93EC0121E0AC0160E081E717
:102510000E9432058881DF91CF910895CF93DF9398
:10252000FC012181222341F0EC0141E050E0BC019B
:1025300080E70E948A041982DF91CF910895FC01FF
:1025400016820895FC011082118213821282158274
:1025500081E0868314820895CF93DF93EC011D827E
:1025600021E0AC0161E080EC0E94320581E08D83C6
:10257000DF91CF910895CF93DF93FC012681222331
:1025800041F1EC018581811103C0CF010E94AC12A1
:102590000E945805882321F00E945A05883F11F0B7
:1025A000898118C0288130E01D828C81882371F0D8
:1025B0008A819B81280F391F2F3F31051CF02F5F27
:1025C000310904C037FF02C021503F4F822F2983B9
:1025D00001C080E0DF91CF9108951F93CF93DF93E7
:1025E000FC012681222309F1EC011382128214825C
:1025F00015E62A813B812115310579F4CE010E942F
:10260000BB1290E09B838A836AE070E080E090E0F8
:102610000E945801115069F708C080E890E0821BC1
:10262000930B9B838A8381E08C83DF91CF911F91F1
:102630000895FC01208130E0FB0131832083FC01FF
:10264000158281E00895FC0186810895FC011082C5
:1026500008950F931F93CF93DF9300D0CDB7DEB7CC
:10266000FC012081222309F465C08C018781882325
:1026700011F0833089F40E945605883F09F058C054
:1026800041E560E0F80181810E94FD0481E0F801EC
:1026900087838381948150C00E945805882309F460
:1026A00047C0AE014F5F5F4F60E0F80181810E943B
:1026B00010050E945605F801883F59F789818F3F20
:1026C00041F38781813079F422E0AE014F5F5F4FA3
:1026D00062E081810E9432050E945605883F41F5E3
:1026E00082E0F8018783F80187818230C1F4898113
:1026F00090E0982F88272A81820F911D94838383ED
:10270000009729F4858196819483838305C001977E
:1027100019F4F8011482138283E0F8018783F80129
:102720008781833029F41782C8010E94291304C0CD
:10273000F801AFCF80E090E00F900F90DF91CF9144
:102740001F910F910895AF92BF92CF92DF92EF92B7
:10275000FF920F931F93CF93DF9300D000D0CDB79C
:10276000DEB7FC012081222361F17C0180EA8983AC
:102770008AEA8A8385EA8B83062F10E0C801805994
:102780009F4F880F8C83CE0101966C015E0195E00E
:10279000A90EB11CF60141916F0160E0F701818142
:1027A0000E94FD04FFEF20E782E0F15020408040CE
:1027B000E1F700C00000CA14DB0461F7F7011283DF
:1027C00001830F900F900F900F90DF91CF911F9189
:1027D0000F91FF90EF90DF90CF90BF90AF90089552
:1027E000FC0180810895462F603208F04FE161E0DE
:1027F000FC0181810C94FD04FC019B01CB016AE08A
:1028000070E00E94031776836583C9016BE270E074
:102810000E940317AB01415051094F3F510519F078
:1028200010F04FEF50E062E081810C94FD040F93B3
:102830001F93CF93DF931F92CDB7DEB78C0170E06B
:1028400060597F4F660F771FF8017283618314828E
:10285000138216821582178260E0C8010E94F3136A
:10286000FFEF21EE84E0F15020408040E1F700C00E
:1028700000006FE37AE0C8010E94FC139FEFE1EED5
:10288000F4E09150E040F040E1F700C000000E9409
:102890005605AE014F5F5F4F60E0F80181810E94F5
:1028A00010050E945605883F61F4FFEF20E782E0A3
:1028B000F15020408040E1F700C0000081E0F801C5
:1028C00080830F90DF91CF911F910F910895809198
:1028D0003B01882371F02091410190E0820F911D0E
:1028E00020913F01309140018217930710F0C09A68
:1028F00001C0C09880913C01882371F02091410172
:1029000090E0820F911D20913F013091400182178C
:10291000930710F0C19A01C0C19880913D018823AE
:1029200071F02091410190E0820F911D20913F01B3
:10293000309140018217930710F0C29A01C0C298EB
:1029400080913E01882371F02091410190E0820F37
:10295000911D20913F01309140018217930710F0A3
:10296000C39A01C0C39880913F01909140010097A4
:1029700031F48091410190E081509F4F01C0019757
:102980009093400180933F0108951F920F920FB6DC
:102990000F9211242F933F934F935F936F937F93E5
:1029A0008F939F93AF93BF93EF93FF930E942F0159
:1029B0000E946714FF91EF91BF91AF919F918F910A
:1029C0007F916F915F914F913F912F910F900FBE2B
:1029D0000F901F9018956F927F928F929F92AF9257
:1029E000BF92CF92DF92EF92FF920F931F93CF93FC
:1029F000DF93EC018C016C0188E1C80ED11CC80189
:102A00000E94E70E0A5F1F4F0C151D05C1F7C80194
:102A10000E946205CE014C960E949F128E010D5DB0
:102A20001F4F6E01E3E4CE0ED11CC8010E94261395
:102A3000085F1F4F0C151D05C1F7C6010E946012EB
:102A40000E947C0184E690E00E94DB030E94450323
:102A5000FE01E95BFF4F108262E087E10E94830183
:102A600061E087E10E94BF01FE01EB5BFF4F108236
:102A700062E088E10E94830161E088E10E94BF0179
:102A8000FE01EA5BFF4F108206E710E038E0B32E4C
:102A9000B00E62E0F80181918F010E948301B012B3
:102AA000F8CF02E810E028E0B22EB00E60E0F801A6
:102AB00081918F010E948301B012F8CF62E084E01F
:102AC0000E94830162E085E00E94830162E086E06B
:102AD0000E94830162E087E00E94830161E08FE051
:102AE0000E94830161E080E10E94830182E7682EF9
:102AF00080E0782E4E019BE3A92E91E0B92EC0E034
:102B0000D0E0F30121913F01FE01E659FF4F75012D
:102B1000860141816081C4010E940C0F2296F6E07B
:102B20008F0E911C8FEFA81AB80AC830D10549F74B
:102B3000DF91CF911F910F91FF90EF90DF90CF9099
:102B4000BF90AF909F908F907F906F9008950F935C
:102B50001F93CF93DF938C01C0E0D0E060E070E082
:102B6000C8018C0F9D1F0E94270F2696C831D105E2
:102B7000A9F7DF91CF911F910F91089577FF03C0BF
:102B80007195619571096F3F710519F014F06FEF40
:102B900070E0609341010895FF920F931F93CF93CC
:102BA000DF936230A8F48C01C62FD0E0FE01E85913
:102BB000FF4FF08061E08F2D0E94830161E08F2D37
:102BC0000E94BF01C00FD11FCB5BDF4F81E0888324
:102BD000DF91CF911F910F91FF900895623098F48B
:102BE000262F30E0820F931FFC01EB5BFF4F8081AB
:102BF000882349F081E0642F6827F901E859FF4FE5
:102C000080810C94BF010895623040F4E62FF0E01B
:102C1000EA59FF4F642F80810C94BF010895623000
:102C200050F4E62FF0E0E859FF4F80810E94DC016C
:102C300021E0892B09F020E0822F08950F931F9344
:102C4000CF938C01C62F623060F46C2FC8010E94B4
:102C50000F168823D1F36C2FC8010E940F16811123
:102C6000FACFCF911F910F910895683070F4E62F3D
:102C7000F0E0EE57FF4F80810E94520397FD0396CC
:102C80009595879595958795089580E0089564308A
:102C900050F4E62FF0E0E258FF4F80810E94DC0103
:102CA00021E0892B09F020E0822F0895683050F44C
:102CB000E62FF0E0EA58FF4F80810E94DC0121E01E
:102CC000892B09F020E0822F0895FB0180819181FA
:102CD000A281B3810097A105B10539F08F3F91051D
:102CE000A105B10509F018F4089580E008958FEF6B
:102CF00008950F931F93CF93DF9300D000D0CDB7EB
:102D0000DEB76430C0F48C01E62FF0E0E258FF4FEC
:102D10002CED35E040E050E060E080810E94A202AE
:102D200069837A838B839C83BE016F5F7F4FC80169
:102D30000E94651601C080E00F900F900F900F90D9
:102D4000DF91CF911F910F9108950F931F93CF9310
:102D5000DF9300D000D0CDB7DEB76830C0F48C016F
:102D6000E62FF0E0EA58FF4F2CED35E040E050E070
:102D700060E080810E94A20269837A838B839C83B6
:102D8000BE016F5F7F4FC8010E94651601C080E0E1
:102D90000F900F900F900F90DF91CF911F910F9197
:102DA000089580E090E0089588EA90E00C94EB1498
:102DB00080EC90E00C948F050C949E1C0C94B41C39
:102DC0000C94101D0C94E31C6115710579F0FB0146
:102DD00001900020E9F73197AF01461B570BDC014A
:102DE000ED91FC910280F381E02D099480E090E068
:102DF00008958091410190E081509F4F9093400150
:102E000080933F010895AA1BBB1B51E107C0AA1F75
:102E1000BB1FA617B70710F0A61BB70B881F991F7B
:102E20005A95A9F780959095BC01CD010895A1E22E
:102E30001A2EAA1BBB1BFD010DC0AA1FBB1FEE1F34
:102E4000FF1FA217B307E407F50720F0A21BB30B7F
:102E5000E40BF50B661F771F881F991F1A9469F7FB
:102E600060957095809590959B01AC01BD01CF0157
:102E70000895052E97FB1EF400940E94501757FDED
:102E800007D00E94171707FC03D04EF40C9450177C
:102E900050954095309521953F4F4F4F5F4F089586
:102EA00090958095709561957F4F8F4F9F4F0895B6
:102EB0000E946917A59F900DB49F900DA49F800D4F
:102EC000911D11240895EE0FFF1F0590F491E02D40
:102ED0000994A29FB001B39FC001A39F700D811DF3
:102EE0001124911DB29F700D811D1124911D089513
:102EF0005058BB27AA270E9490170C940A190E94C9
:102F0000FC1838F00E94031920F039F49F3F19F49F
:102F100026F40C94F9180EF4E095E7FB0C94F318E2
:102F2000E92F0E941B1958F3BA1762077307840729
:102F3000950720F079F4A6F50C943D190EF4E09570
:102F40000B2EBA2FA02D0B01B90190010C01CA0163
:102F5000A0011124FF27591B99F0593F50F4503E0E
:102F600068F11A16F040A22F232F342F4427585F00
:102F7000F3CF469537952795A795F0405395C9F718
:102F80007EF41F16BA0B620B730B840BBAF09150D0
:102F9000A1F0FF0FBB1F661F771F881FC2F70EC06F
:102FA000BA0F621F731F841F48F487957795679542
:102FB000B795F7959E3F08F0B0CF9395880F08F02E
:102FC0009927EE0F9795879508950E94CF1808F4DA
:102FD00081E008950E94FE170C940A190E940319BB
:102FE00058F00E94FC1840F029F45F3F29F00C943F
:102FF000F31851110C943E190C94F9180E941B19E6
:1030000068F39923B1F3552391F3951B550BBB2717
:10301000AA2762177307840738F09F5F5F4F220F5C
:10302000331F441FAA1FA9F335D00E2E3AF0E0E853
:1030300032D091505040E695001CCAF72BD0FE2F9D
:1030400029D0660F771F881FBB1F26173707480731
:10305000AB07B0E809F0BB0B802DBF01FF279358E9
:103060005F4F3AF09E3F510578F00C94F3180C94A2
:103070003E195F3FE4F3983ED4F3869577956795C4
:10308000B795F7959F5FC9F7880F911D969587951E
:1030900097F90895E1E0660F771F881FBB1F62173D
:1030A00073078407BA0720F0621B730B840BBA0BFB
:1030B000EE1F88F7E09508950E9463186894B11197
:1030C0000C943E1908950E94231988F09F5798F098
:1030D000B92F9927B751B0F0E1F0660F771F881F1D
:1030E000991F1AF0BA95C9F714C0B13091F00E9437
:1030F0003D19B1E008950C943D19672F782F88276A
:10310000B85F39F0B93FCCF3869577956795B3955D
:10311000D9F73EF490958095709561957F4F8F4FCC
:103120009F4F0895E89409C097FB3EF490958095D1
:10313000709561957F4F8F4F9F4F9923A9F0F92F7D
:1031400096E9BB279395F695879577956795B795FB
:10315000F111F8CFFAF4BB0F11F460FF1BC06F5FE1
:103160007F4F8F4F9F4F16C0882311F096E911C0F3
:10317000772321F09EE8872F762F05C0662371F014
:1031800096E8862F70E060E02AF09A95660F771F28
:10319000881FDAF7880F9695879597F90895990F04
:1031A0000008550FAA0BE0E8FEEF16161706E80711
:1031B000F907C0F012161306E407F50798F0621B32
:1031C000730B840B950B39F40A2661F0232B242B07
:1031D000252B21F408950A2609F4A140A6958FEF26
:1031E000811D811D089597F99F6780E870E060E078
:1031F00008959FEF80EC089500240A941616170690
:1032000018060906089500240A94121613061406D7
:1032100005060895092E0394000C11F4882352F03A
:10322000BB0F40F4BF2B11F460FF04C06F5F7F4FF2
:103230008F4F9F4F089557FD9058440F551F59F0D9
:103240005F3F71F04795880F97FB991F61F09F3F93
:1032500079F087950895121613061406551FF2CFBC
:103260004695F1DF08C0161617061806991FF1CF0C
:1032700086957105610508940895E894BB27662733
:103280007727CB0197F908950E94CF1808F48FEFA4
:1032900008950E945C190C940A190E94FC1838F0D9
:1032A0000E94031920F0952311F00C94F3180C944C
:1032B000F91811240C943E190E941B1970F3959F64
:1032C000C1F3950F50E0551F629FF001729FBB271D
:1032D000F00DB11D639FAA27F00DB11DAA1F649FB9
:1032E0006627B00DA11D661F829F2227B00DA11D6C
:1032F000621F739FB00DA11D621F839FA00D611DF2
:10330000221F749F3327A00D611D231F849F600D12
:10331000211D822F762F6A2F11249F5750409AF03B
:10332000F1F088234AF0EE0FFF1FBB1F661F771FC7
:10333000881F91505040A9F79E3F510580F00C9492
:10334000F3180C943E195F3FE4F3983ED4F386954E
:1033500077956795B795F795E7959F5FC1F7FE2B32
:10336000880F911D9695879597F908950E94CF181B
:10337000880B990B0895EF920F931F93CF93DF93D0
:10338000E80147FD02C034E001C034E1E42F440FFE
:10339000FF0BF7FF03C0F195E195F109E32E022F32
:1033A0002E2FAE010E94351DCE01DF91CF911F91CE
:1033B0000F91EF900895CF93DF938230910510F431
:1033C00082E090E0E0914601F091470120E030E09A
:1033D000C0E0D0E0309711F1408151814817590782
:1033E000C0F04817590761F482819381209719F042
:1033F0009B838A832BC0909347018093460126C00C
:103400002115310519F04217530718F49A01BE012E
:10341000DF01EF010280F381E02DDCCF21153105C2
:1034200009F1281B390B2430310590F412968D9147
:103430009C9113976115710521F0FB0193838283A1
:1034400004C09093470180934601FD01329644C029
:10345000FD01E20FF31F81939193225031092D93C7
:103460003C933AC02091440130914501232B41F413
:103470002091620030916300309345012093440114
:1034800020916000309161002115310541F42DB784
:103490003EB74091640050916500241B350BE091CC
:1034A0004401F0914501E217F307A0F42E1B3F0BF6
:1034B0002817390778F0AC014E5F5F4F24173507A6
:1034C00048F04E0F5F1F5093450140934401819394
:1034D000919302C0E0E0F0E0CF01DF91CF91089539
:1034E0000F931F93CF93DF93009709F48CC0FC01D7
:1034F0003297138212820091460110914701011503
:10350000110581F420813181820F931F20914401A4
:10351000309145012817390779F5F0934501E0937B
:10352000440171C0D80140E050E0AE17BF0750F42D
:1035300012962D913C911397AD012115310509F19A
:10354000D901F3CF9D01DA01338322836081718138
:10355000860F971F8217930769F4EC012881398140
:10356000260F371F2E5F3F4F318320838A819B8137
:1035700093838283452B29F4F0934701E09346011E
:1035800042C01396FC93EE931297ED014991599125
:103590009E01240F351FE217F30771F4808191819A
:1035A000840F951F029611969C938E93828193812E
:1035B00013969C938E931297E0E0F0E0D801129658
:1035C0008D919C911397009719F0F8018C01F6CF1B
:1035D0008D919C9198012E5F3F4F820F931F2091F8
:1035E0004401309145012817390769F4309729F4CF
:1035F000109247011092460102C01382128210936A
:10360000450100934401DF91CF911F910F910895DF
:10361000A0E0B0E0EEE0FBE10C942721EC01009784
:1036200021F4CB010E94DB19B8C0FC01E60FF71FA3
:103630009C0122503109E217F30708F4ACC0D9010C
:103640000D911C91119706171707B0F00530110561
:1036500008F49FC0C80104978617970708F499C01B
:1036600002501109061B170B019311936D937C9364
:10367000CF010E94701A8DC05B01A01AB10A4C01E3
:10368000800E911EA0914601B091470140E050E0AC
:10369000E12CF12C109709F44AC0A815B905D1F511
:1036A0006D907C901197630182E0C80ED11CCA1402
:1036B000DB0480F1A3014A195B096A0182E0C80EAC
:1036C000D11C1296BC9012971396AC91B5E0CB1614
:1036D000D10440F0B282A38351834083D9016D931A
:1036E0007C930AC00E5F1F4FC301800F911FF90129
:1036F00091838083EB2DFA2FE114F10431F0D7018F
:103700001396FC93EE93129744C0F0934701E09315
:1037100046013FC08D919C9111974817590708F4B5
:10372000AC017D0112960D90BC91A02DB3CF80917C
:1037300044019091450188159905E1F44617570712
:10374000C8F48091600090916100009741F48DB7BA
:103750009EB74091640050916500841B950BE8175B
:10376000F907C8F4F0934501E0934401F90171832E
:1037700060830FC0CB010E94DB197C01009759F0D8
:10378000A801BE010E94261CCE010E94701AC7012A
:1037900004C0CE0102C080E090E0CDB7DEB7EEE01D
:1037A0000C944321662777270C94C31E1F93FC01BA
:1037B00099278827BC01E89411911032E9F3193058
:1037C00010F01E30C8F31B3251F01D3249F46894DA
:1037D00006C00E94CE1C610F711D811D911D1191AB
:1037E00010531A30B0F33EF4909580957095619522
:1037F0007F4F8F4F9F4F1F91089591110C94F82088
:10380000803219F089508550C8F7089591110895B4
:1038100081548A5108F4805E855A08959111089563
:1038200081568A5108F4805285580895FB01DC01C5
:1038300005900D920020E1F70895FC01059000200D
:10384000E9F7809590958E0F9F1F0895FB01DC018D
:1038500002C001900D9241505040D8F7089568176A
:10386000790768F4FB01DC01E40FF51FA40FB51F15
:1038700002C002900E9241505040D8F708950C9427
:10388000261CFC018191861721F08823D9F79927FE
:1038900008953197CF010895FB01DC018D910190CE
:1038A00080190110D9F3990B0895FB01DC010190F7
:1038B0000D920020E1F70895FB01DC0141505040DA
:1038C00030F08D910190801919F40020B9F7881B10
:1038D000990B0895FB01DC014150504048F00190E4
:1038E0000D920020C9F701C01D9241505040E0F7F1
:1038F0000895FC0181E090E00190061609F4CF01E3
:103900000020D1F701970895FB0151915523A9F0AB
:10391000BF01DC014D9145174111E1F759F4CD018B
:103920000190002049F04D9140154111C9F3FB0170
:103930004111EFCF81E090E00197089545325105A4
:1039400020F4423010F00C94A91CFB011082CB0132
:103950000895BB274A3031F4992322F4BDE29095B3
:1039600081959F4F0C941C1D2532310520F4223087
:1039700010F00C94BF1CFA011082CA010895BB27F5
:103980002A3051F4992342F4BDE2909580957095C8
:1039900061957F4F8F4F9F4F0C94EF1C592F482FED
:1039A000372F262F660F771F881F991F660F771FE7
:1039B000881F991F620F731F841F951F660F771F43
:1039C000881F991F08952532310520F4223010F008
:1039D0000C94EE1CFA011082CA010895BB27FA016B
:1039E000A62F6217710581059105330B30FB66F038
:1039F000AA27660F771F881F991FAA1FA21710F00A
:103A0000A21B63953850A9F7A05DAA3308F0A95D01
:103A1000A19336F7B111B1931082CA010C9413210E
:103A20004532510520F4423010F00C941B1DFB016F
:103A30001082CB010895BB27FB015527AA27880FC9
:103A4000991FAA1FA41710F0A41B83955051B9F712
:103A5000A05DAA3308F0A95DA193009779F7B11191
:103A6000B1931192CB010C9413214F925F926F92FC
:103A70007F929F92AF92BF92CF92DF92EF92FF928E
:103A80000F931F93CF93DF93CDB7DEB729970FB670
:103A9000F894DEBF0FBECDBF6A01122FB02E2BE30C
:103AA000201720F0FF24F394F00E02C0BCE3FB2E9D
:103AB0000F2D27E0AE014F5F5F4F0E942020AC0129
:103AC0008981982F9970913031F0E1FC06C0E0FEB9
:103AD00006C090E205C09DE203C09BE201C090E0F9
:103AE000EE2DE07183FF3CC0911102C083E001C064
:103AF00084E0811718F4212F281B01C020E0E11178
:103B00000BC0F601822F30E2882319F031938150E7
:103B1000FBCFC20ED11C20E0992329F0D6019C9343
:103B2000F60131966F01C6010396E2FE0AC03EE43B
:103B3000D6013C9341E411964C93119712963C9315
:103B400006C03EE6F601308341E641833283FC0144
:103B5000322F40E2332309F442C041933150FACF6F
:103B600082FF44C0911102C083E001C084E081174C
:103B700018F4212F281B01C020E0E1110BC0F60131
:103B8000822F30E2882319F031938150FBCFC20E8F
:103B9000D11C20E0992329F0D6019C93F60131969F
:103BA0006F01C6010396E2FE0BC039E4D6013C93D7
:103BB0003EE411963C93119736E412963C9307C06D
:103BC00039E6F60130833EE6318336E63283FC0186
:103BD000322F40E2332319F041933150FBCFFC01E7
:103BE000E20FF11D10828EEF9FEFB7C0F1E091114F
:103BF00001C0F0E06F2F70E01416150624F49A014E
:103C00002F5F3F4F02C021E030E0260F371FBB205F
:103C100029F06B2D70E06F5F7F4F02C060E070E0B5
:103C2000260F371F612F70E0261737071CF4121B71
:103C3000212F01C020E03E2D387159F4D601322FDA
:103C400060E2332319F06D933150FBCFC20ED11CCB
:103C500020E0FF2331F0D6019C93B6016F5F7F4FC8
:103C60006B01E1110BC0F601922F30E3992319F09B
:103C700031939150FBCFC20ED11C20E09F2D940FA9
:103C80003A81782F7071A72E84FF03C0313309F475
:103C90009150191624F4993018F098E001C091E081
:103CA000E42F852F57FF02C0E0E080E06E2F782FD1
:103CB000E0E0F0E0AEE29A2E3A01691A71082A01BA
:103CC000461A570A0B2D10E01195019511096F3F07
:103CD0008FEF780729F4D6019C92C60101966C01FA
:103CE0004617570784F0661677066CF47F01E40CDC
:103CF000F51CA1E0B0E0AC0FBD1FEA0EFB1ED70122
:103D00001196BC9002C090E3B92E615071093196B2
:103D1000C60101967C016017710724F0D601BC92A0
:103D20006C01D5CF6417750741F4363320F4353371
:103D300021F4A11002C081E3B82EF601B082F70190
:103D4000822F90E2882319F091938150FBCFF701E5
:103D5000E20FF11D108280E090E029960FB6F894F2
:103D6000DEBF0FBECDBFDF91CF911F910F91FF90AE
:103D7000EF90DF90CF90BF90AF909F907F906F902B
:103D80005F904F900895A0E0B0E0E9ECFEE10C9464
:103D90002721EC017B016115710519F0DB018D9381
:103DA0009C938E010F5F1F4F7880872D90E00E94BB
:103DB000FD1B892B11F0E801F4CFBDE27B1205C099
:103DC0000F5F1F4F7980C1E008C0EBE27E1204C094
:103DD0008E010E5F1F4F7980C0E06801F1E0CF1ABD
:103DE000D10843E050E066ED70E0C6010E94FB2080
:103DF000892BF1F4680122E0C20ED11C45E050E0AD
:103E000061ED70E0C6010E94FB20892B21F468015E
:103E100087E0C80ED11CE114F10419F0D701CD924E
:103E2000DC92C111FFC060E070E080E89FE703C151
:103E300043E050E06EEC70E0C6010E94FB20892B4D
:103E400051F4E114F10409F4F2C00E5F1F4FF701C1
:103E500011830083ECC0680160E070E0CB0100E0FA
:103E600010E0F601D0EDD70DDA3058F52C2F226096
:103E7000622E2C2F2870C2FF05C0211128C00F5FB1
:103E80001F4F25C0222311F001501109A5E0B0E019
:103E90009B01AC010E9458174B015C01880C991CD6
:103EA000AA1CBB1CC501B4016D0F711D811D911DA4
:103EB0006839A9E97A078A07A9E19A0740F0C6603C
:103EC00005C0DE3F51F4C3FD44C0C8606C2EBFEF97
:103ED000CB1ADB0A7080C62DC4CF2D2F2F7D253144
:103EE000C1F540814D3211F4C06106C04B3221F062
:103EF000319621E030E006C03296D60111964C9101
:103F000022E030E0A0EDA40FAA3018F0E21BF30B82
:103F100020C040E050E04038BCE05B075CF49A0110
:103F2000220F331F220F331F420F531F440F551F01
:103F30004A0F511D3196DF0111972C91A0EDA20F70
:103F4000AA3048F3C4FF03C0519541955109040FAD
:103F5000151FC1FF07C0E114F10421F03197D7010B
:103F6000ED93FC930E949218C370C33019F06B015B
:103F70007C0106C06B017C01F7FAF094F7F8F0942D
:103F800020E030E0A901C701B6010E94E5178823AF
:103F900009F445C017FF06C0119501951109CDEE32
:103FA000D0E002C0C5E0D1E05E01B8E1AB1AB108D3
:103FB0004601BE2DAF2D90E2E92EF12C0E151F0506
:103FC00084F0FE012591359145915491B4018B2FD8
:103FD0009A2F0E9449194B01B82FA92F0E191F09BA
:103FE000EDCF2497F594E794CA15DB0539F7640102
:103FF000EB2EFA2E8E2D880F8F2D881F8F3F49F0C4
:1040000020E030E0A901C701B6010E94E517811147
:1040100006C082E290E09093490180934801C70175
:10402000B60109C060E070E080E89FEF04C060E086
:1040300070E080EC9FE7CDB7DEB7EEE00C94432153
:10404000283008F027E03327DA01990F311D87FD6A
:10405000916000966105710539F432602E5F3D93E1
:1040600030E32A95E1F708959F3F30F080387105DD
:10407000610509F03C5F3C5F3D93913008F080683A
:10408000911DDF93CF931F930F93FF92EF92192F00
:10409000987F9695E92F96959695E90FFF27ED590C
:1040A000FE4F99273327EE24FF24A701E70105904F
:1040B0000894079428F4360FE71EF81E491F511D77
:1040C000660F771F881F991F0694A1F70590079424
:1040D00028F4E70EF81E491F561FC11D770F881FD1
:1040E000991F661F0694A1F70590079428F4F80E0F
:1040F000491F561FC71FD11D880F991F661F771FA5
:104100000694A1F70590079420F4490F561FC71F86
:10411000D81F990F661F771F881F0694A9F78491EF
:104120001095177041F0D695C79557954795F79418
:10413000E7941A95C1F7E9E0F1E0689415901591BC
:1041400035916591959105907FE27395E118F10A9B
:10415000430B560BC90BD009C0F7E10CF11E431FEE
:10416000561FC91FD01D7EF4703311F48A95E6CF17
:10417000E894015030F0080F0AF40027021708F401
:10418000202F2395022F7A3328F079E37D932A9507
:10419000E9F710C07D932A9589F60694979567955F
:1041A000379517951794E118F10A430B560BC90B75
:1041B000D00998F023957E9173957A3308F070E3D7
:1041C0007C932013B8F77E9170617D9330F08395D6
:1041D00071E37D9370E32A95E1F71124EF90FF904E
:1041E0000F911F91CF91DF91992787FD90950895A9
:1041F000992788270895FB01DC014150504088F041
:104200008D9181341CF08B350CF4805E65916134A6
:104210001CF06B350CF4605E861B611171F3990B19
:104220000895881BFCCFDC01FC01672F7191772377
:10423000E1F7329704C07C916D9370836291AE1761
:10424000BF07C8F308952F923F924F925F926F92EB
:104250007F928F929F92AF92BF92CF92DF92EF9216
:10426000FF920F931F93CF93DF93CDB7DEB7CA1B97
:10427000DB0B0FB6F894DEBF0FBECDBF09942A88C2
:10428000398848885F846E847D848C849B84AA846A
:10429000B984C884DF80EE80FD800C811B81AA81F7
:1042A000B981CE0FD11D0FB6F894DEBF0FBECDBFC2
:1042B000ED01089511E0C4E0D1E004C0FE010E94C8
:0E42C00063172196C530D107C9F7F894FFCFD8
:1042CE0000004A0120000F10171800010203040518
:1042DE000607000102031C1B1A1911121314040500
:1042EE0006072726252423222120000000005C0536
:1042FE00640F6E616E00696E66006F7666002E004A
:08430E0000000000A605640F89
:00000001FF
