:100000000C9416010C943E010C943E010C943E019C
:100010000C94BF0A0C943E010C943E010C94780A97
:100020000C943E010C943E010C94AD090C943E01DD
:100030000C943E010C94AE070C9489070C943E017D
:100040000C943E010C943E010C943E010C940E085D
:100050000C943E01084AD73B3BCE016E84BCBFFDE9
:10006000C12F3D6C74319ABD56833DDA3D00C77F88
:1000700011BED9E4BB4C3E916BAAAABE0000008021
:100080003F05A84CCDB2D44EB93836A9020C50B9B0
:10009000918688083CA6AAAA2ABE000000803F00DC
:1000A000656E6420693263207363616E0D0A0020FF
:1000B000756E6B6E6F776E0D0A0020506F727465EF
:1000C0007870616E6465720D0A00204C6173657210
:1000D0000D0A0020556C747261736368616C6C0D5D
:1000E0000A0020506978790D0A00204B6F6D70610D
:1000F00073730D0A0020557372696E670D0A002034
:10010000202000737461727420693263207363610C
:100110006E0D0A0073657420313238206572726F7B
:100120007200535246303820696E6974000D0A001F
:10013000535246207772697465004552524F523AC5
:1001400020000D0A00506F7274657870616E6465EE
:100150007220636F6E6E656374696F6E2065727274
:100160006F72004552524F523A200074696D656FAC
:100170007574000D0A006E6F2061636B00434D5073
:100180005330333A20004552524F523A20000D0A64
:1001900000506978793A206932632074696D656F1F
:1001A0007574004552524F523A20000D0A006E6F8E
:1001B0002061636B00555352494E473A2000455227
:1001C000524F523A2000476F6C64626F6172643A1A
:1001D0002069326320706F7274657870616E646537
:1001E00072206572726F7200476F6C64626F617229
:1001F000643A2069326320706F7274657870616E42
:10020000646572206572726F7200493243207368B0
:100210006F7274000D0A004932432063617000451B
:1002200052524F523A2000006616601611241FBE2B
:10023000CFE5D8E0DEBFCDBF11E0A0E6B0E0E0ED55
:10024000FCE302C005900D92AC35B107D9F724E06C
:10025000ACE5B1E001C01D92A437B207E1F711E0AF
:10026000C5E1D1E004C02197FE010E944618C431C7
:10027000D107C9F70E9436110C945B1E0C94000044
:100280008F3F2FEF9207E9F06F3F2FEF7207C9F012
:1002900028E030E0281B390B261B370B37FF03C043
:1002A000319521953109AC01461B570B57FF03C00F
:1002B000519541955109C9014217530724F4CA01C8
:1002C000089580E090E008959C01297F81E090E00E
:1002D0002130310511F080E090E00895EF92FF9217
:1002E0000F931F93CF93DF937C01EB010CE511E09B
:1002F00066277727681B790B6C1B7D0B072E000C7C
:10030000880B990B0E94DA19F8016083718382834C
:100310009383B7016C1B7D0B072E000C880B990B88
:100320000E94DA19F8016483758386839783B70185
:100330006C0F7D1F072E000C880B990B0E94DA1999
:10034000F8016087718782879387BE016E197F09E4
:10035000072E000C880B990B0E94DA19F8016487AC
:10036000758786879787DF91CF911F910F91FF90B7
:10037000EF9008954F925F926F927F92AF92BF92EB
:10038000CF92DF92EF92FF920F931F93CF93DF9361
:100390007C01CCE5D1E06E01A12CB12C00E010E095
:1003A000F60141905190619071906F019501A80103
:1003B000C301B2010E94241B181614F452018301D8
:1003C000FCE6CF16F1E0DF0659F7B701FF0C880B0A
:1003D000990B0E94DA196B017C019B01AC01B501FC
:1003E000C8010E94241B18160CF449C080915C01BE
:1003F00090915D01A0915E01B0915F01BC01CD01C2
:1004000090580E94A21985E294E00E940C0C609121
:1004100060017091610180916201909163010E947D
:10042000A2198EE294E00E940C0C6091640170911C
:10043000650180916601909167010E94A21987E38E
:1004400094E00E940C0C60916801709169018091A8
:100450006A0190916B010E94A21980E494E0DF91FF
:10046000CF911F910F91FF90EF90DF90CF90BF90B1
:10047000AF907F906F905F904F900C940C0C950113
:10048000A801C701B6010E9430196B017C01A701C8
:100490009601688179818A819B810E94311B6993D1
:1004A00079938993999381E0CC36D80781F79ECFD1
:1004B0008091860290918702803A91053CF580E018
:1004C00090E0A8ECB2E480935C0190935D01A0936E
:1004D0005E01B0935F018093600190936101A093EE
:1004E0006201B09363018093640190936501A093CE
:1004F0006601B09367018093680190936901A093AE
:100500006A01B0936B0184E690E026C080E090E041
:10051000A8ECB2EC80935C0190935D01A0935E0126
:10052000B0935F018093600190936101A093620199
:10053000B09363018093640190936501A093660179
:10054000B09367018093680190936901A0936A0159
:10055000B0936B018CE99FEF0C94BA018F929F923C
:10056000AF92BF92CF92DF92EF92FF92CF93DF9341
:1005700060918C0270918D0260587109072E000CF9
:10058000880B990B0E94DA196B017C01E6E8F2E016
:10059000628173816659710980819181805A9109C4
:1005A0000E946E01CCE5D1E0A701960168817981B6
:1005B0008A819B810E944C18688379838A839B83FC
:1005C00020E030E040E450E4C701B6010E94311B56
:1005D0000E94A219072E000C880B990B0E94DA19B1
:1005E0004B015C019B01AC016C817D818E819F81FF
:1005F0000E944D186C837D838E839F83A501940197
:10060000688579858A859B850E944D1868877987DA
:100610008A879B87A70196016C857D858E859F853E
:100620000E944C186C877D878E879F8784E690E0B8
:10063000DF91CF91FF90EF90DF90CF90BF90AF9080
:100640009F908F900C94BA018F929F92AF92BF921D
:10065000CF92DF92EF92FF922DE2AC01249FC00176
:10066000259F900D112420918C0230918D02820FD4
:10067000931F68E671E00E94FC17BC01990F880B7C
:10068000990B0E94DA1920E030E044E353E40E9421
:10069000311B26E53EE049E450E40E9430196B012D
:1006A0007C010E942B194B015C01C701B6010E941D
:1006B0009E1B20E030E048EC52E40E94311B0E9477
:1006C000A2196B017C0120E030E048EC52E4C50146
:1006D000B4010E94311B0E94A219DC01CB01B601BA
:1006E0000E946E0184E690E0FF90EF90DF90CF9043
:1006F000BF90AF909F908F900C94BA01AF92BF9231
:10070000CF92DF92EF92FF920F931F93CF93DF93DD
:1007100081E08093AC0110928D0110928C011092B7
:100720006D0110926C018EE8A82E81E0B82E0EE6C5
:1007300011E0C1E0D0E0BE010D2E000C880B990B3A
:100740000E94DA1920E030E044EB51E40E94311BB2
:1007500020E030E044E351E40E944D1826E53EE0FD
:1007600049E450E40E94311B20E030E044E353E4CC
:100770000E9430196B017C010E949E1B20E030E03A
:1007800048EC52E40E94311B0E94A219F5016193CA
:1007900071935F01C701B6010E942B1920E030E080
:1007A00048EC52E40E94311B0E94A219F8016193A7
:1007B00071938F012196C031D10509F0BCCFDF9133
:1007C000CF911F910F91FF90EF90DF90CF90BF904E
:1007D000AF9008952F923F924F925F926F927F92C7
:1007E0008F929F92AF92BF92CF92DF92EF92FF9241
:1007F0000F931F93CF93DF93209084023090850254
:100800008CE8A82E81E0B82E0CE611E0C0E0D0E024
:10081000C12CD12C76012601370188248394912C98
:10082000C4010C2E02C0880F991F0A94E2F782219E
:100830009321892B11F1F50160817181072E000C44
:10084000880B990B0E94DA199B01AC01C301B2011C
:100850000E944D182B013C01F80160817181072E27
:10086000000C880B990B0E94DA199B01AC01C7019F
:10087000B6010E944D186B017C012196F2E0AF0E8B
:10088000B11C0E5F1F4FC031D10551F6A30192017B
:10089000C301B2010E94311B4B015C01A70196010B
:1008A000C701B6010E94311B9B01AC01C501B40117
:1008B0000E944D180E94AC1B4B015C01C301B201A8
:1008C0009058F7FAF094F7F8F094A50194010E947B
:1008D00030192B013C01A5019401C701B6010E940A
:1008E0003019A30192010E94CC1820E030E044E3CB
:1008F00053E40E94311B26E53EE049E450E40E94A7
:1009000030190E94A2196E537E4F20918C023091B3
:100910008D02620F731FCB01845B910968E671E061
:100920000E94FC17DF91CF911F910F91FF90EF90E4
:10093000DF90CF90BF90AF909F908F907F906F90FF
:100940005F904F903F902F90089560918402709136
:1009500085026115710509F451C020E030E080E0A6
:1009600090E0E1E0F0E0AF01082E02C0440F551F17
:100970000A94E2F746235723452B11F02F5F3F4F90
:1009800001968031910579F727303105D4F00E9426
:10099000EA038D96BC01990F880B990B0E94DA1916
:1009A00020E030E044EB52E40E9430190E94151A16
:1009B0009B01AC010E944D1820E030E040E85FE36D
:1009C00017C00E94EA03BC01990F880B990B0E9483
:1009D000DA1920E030E044EB52E40E9430190E9422
:1009E000151A9B01AC010E944D1820E030E0A901CE
:1009F0000E944D180E94A219CB0108958FEF9FEF1E
:100A000008950F931F93CF93DF938091AC018111D1
:100A100002C00E947E030E94A504EC018091620046
:100A2000909163008430910509F453C034F481300F
:100A3000910559F0039721F196C08530910509F48D
:100A400069C0069709F478C08EC0CF3F8FEFD807F2
:100A500031F4DF91CF911F910F910C945010CE0182
:100A60000E946401D0936100C0936000892BE1F47F
:100A700083E090E09093630080936200CE016DC0AC
:100A8000CF3F8FEFD80739F481E090E09093630077
:100A90008093620068C0CE010E946401892B39F006
:100AA000D0936100C093600085E090E0E3CF0091B7
:100AB000600010916100BE01C8010E9440010397CF
:100AC0002CF4D0936100C0936000D8CF84E090E014
:100AD0003FC0CF3F8FEFD807B9F2CE010E9464012B
:100AE000892BF1F60091600010916100BE01C801F0
:100AF0000E94400103975CF4CE01049668E070E028
:100B00000E94FC17909361008093600026C083E0F0
:100B100090E01EC0CF3F8FEFD80709F4B5CF00910A
:100B2000600010916100BE01C8010E94400103975E
:100B3000D4F086E090E00CC000916000109161005C
:100B4000BE01C8010E94400103976CF485E090E06B
:100B50009093630080936200C801DF91CF911F9151
:100B60000F910C942403DF91CF911F910F91089561
:100B70009091E4039F5F9F712091E3039217E1F34B
:100B8000E92FF0E0EC59FD4F80839093E403559AF0
:100B9000089585ED86BF81E090E0DC0106B604FE95
:100BA00005C00197A109B109C9F708951092D002B3
:100BB0000895EF92FF920F931F93CF93DF93A0912D
:100BC0006A00B0916B001C9260916800709169009E
:100BD000C4EFD1E050E040E001E010E09991E92F4E
:100BE000F0E0E355FE4F80818B3030F1780101C099
:100BF000EE0C9A95EAF79C919E299C9390E0841BB9
:100C00009109252F30E0853091053CF4FD01E20F7C
:100C1000F31F8081E82AE0820FC08A30910514F426
:100C20008AE090E0FD01E20FF31FE182FB01E20F99
:100C3000F31F8083480F5F5F81E0CA3FD80771F6DA
:100C4000FB01E50FF11D40954083563008F41182F9
:100C5000DF91CF911F910F91FF90EF900895209118
:100C6000660030916700809164009091650040912A
:100C7000680050916900509367004093660040916E
:100C80006A0050916B00509365004093640030936C
:100C900069002093680090936B0080936A00089528
:100CA000862F0E94B80581E090E008950E94161EEC
:100CB00040E061E086EE93E00E94730D8AE39FE1DD
:100CC0000197F1F78091EF03882321F060E080E045
:100CD0000C94071108950F931F93613208F056C0CA
:100CE00001E010E098019091D002992331F0015079
:100CF000110921093109B9F749C091E09093D00257
:100D00009093CF022FEF2093CE021092CD02260FA8
:100D10002093CC029093AB029091AB02880F892B69
:100D20008093AB028091AA02813089F41092AA02CA
:100D300081E090E0DC012091AB0223B90197A10989
:100D4000B10921F106B603FCF6CF85EC01C085EEB2
:100D500086BF81E090E0DC012091D002213029F4AF
:100D60000197A109B109C1F711C08091CD02861781
:100D700010F46091CD02ACEAB2E0E4EBF1E080E087
:100D8000681731F09D9191938F5FFACF80E001C099
:100D9000862F1F910F9108959091E0038091DF03BA
:100DA000981750F4E92FF0E0EC54FE4F208130E02A
:100DB0009F5F9093E00302C02FEF3FEFC9010895BA
:100DC000CF9362E08091F5030E946B061092E003DE
:100DD0008093DF030E94CC06C82F0E94CC0620E03F
:100DE00030E0382FC9018C2BCF910895CF93DF933A
:100DF000FC018491EF012196882321F00E94B8051F
:100E0000FE01F7CFDF91CF910895CF9380E60E9446
:100E1000FD1081E00E94D3100E946110C82F88232A
:100E200091F086E891E00E94F6068DE791E00E943D
:100E3000F60686E791E00E94F60683E791E00E94BD
:100E4000F606C0E040C061E080E60E946B061092AA
:100E5000E0038093DF034091D7025091D802609164
:100E6000D9027091DA02811122C08091D70290914B
:100E7000D802A091D902B091DA02841B950BA60B7F
:100E8000B70B85369105A105B10578F386E891E0A9
:100E90000E94F6068DE791E00E94F6068BE691E04F
:100EA0000E94F60683E791E00E94F6060CC00E94BD
:100EB000CC0690910004992329F09091FE03890FAC
:100EC0008F3F09F0C82F8C2FCF910895CF93DF93D8
:100ED000D62FC42FFC0181810E94FD108D2F0E940E
:100EE000D3108C2F0E94D3100E946110882371F0C0
:100EF0008AE391E00E94F60680E391E00E94F60604
:100F00008DE291E0DF91CF910C94F606DF91CF91C5
:100F100008951F920F920FB60F9211248F939F93F3
:100F2000EF93FF939091E4038091E303981761F0AE
:100F3000E091E303EF5FEF71E093E303F0E0EC593E
:100F4000FD4F80818CB901C05598FF91EF919F9121
:100F50008F910F900FBE0F901F9018951F920F92B8
:100F60000FB60F9211242F933F934F935F936F937C
:100F70007F938F939F93AF93BF93CF93DF93EF9321
:100F8000FF93CBB1DCB1D03369F4809141029091F1
:100F90004202892BA9F481E090E090934202809371
:100FA000410212C0D03261F480914102909142021C
:100FB000019731F4F8941AB8E0E0FFE3099504C012
:100FC00010924202109241028C2F8871E091E2034C
:100FD000EF5FEF719091E103E91739F0E093E203DD
:100FE000F0E0EC5BFD4FD08301C082E090914302C2
:100FF000892B80934302FF91EF91DF91CF91BF91B5
:10100000AF919F918F917F916F915F914F913F91A0
:101010002F910F900FBE0F901F9018951F920F9257
:101020000FB60F9211242F933F934F935F936F93BB
:101030007F938F939F93AF93BF93EF93FF9381B170
:10104000887F803609F499C068F5883209F45BC05E
:1010500090F4803109F454C038F4882309F4EAC0CC
:10106000883009F44DC0EAC0883109F44CC08032A0
:1010700009F45CC0E3C0803409F466C048F48033EE
:1010800009F454C0883309F0D9C08093CE02CDC092
:10109000803509F44EC0883509F45BC0883409F006
:1010A000CDC0CAC0883909F4BDC0A8F4883709F496
:1010B00064C038F4883609F460C0803709F45DC034
:1010C000BDC0883809F4AEC0803909F45CC08038EE
:1010D00009F0B4C058C0803B09F47FC038F4803AAE
:1010E00009F462C0883A09F478C0A8C0803C09F4C9
:1010F0009CC0883C09F499C0883B09F481C09EC01B
:101100008091AB0210C09091CD028091CC029817D3
:1011100058F5E091CD0281E08E0F8093CD02F0E092
:10112000E455FD4F808183B985EC7DC08093CE026C
:1011300083C0E091CD0281E08E0F8093CD0283B118
:10114000F0E0E455FD4F80839091CD028091CC0278
:1011500066C0E091CD0281E08E0F8093CD0283B115
:10116000F0E0E455FD4F80838091CF02811164C08F
:1011700081E08093AA0284EA59C083E08093D00280
:1011800010924002D1CF80914002803208F04AC0D4
:10119000E091400281E08E0F8093400283B1F0E045
:1011A000E05EFD4F8083C0CF85EC86BF1092D002F9
:1011B00080914002803230F4E0914002F0E0E05E45
:1011C000FD4F10826091400270E080E292E0E0E02A
:1011D000F0E009951092400231C084E08093D00283
:1011E00010921F0210921E02E0E0F0E0099580913B
:1011F0001E02811105C081E080931E021092FE0143
:10120000E0911F0281E08E0F80931F02F0E0E25018
:10121000FE4F808183B990911F0280911E02981722
:1012200008F482CF85E886BF09C085EC86BF10929E
:10123000D00204C01092CE020E94C905FF91EF9126
:10124000BF91AF919F918F917F916F915F914F91DE
:101250003F912F910F900FBE0F901F9018954091C6
:101260001E02262F30E0240F311D21323105DCF41F
:101270002091D0022430C9F4FC0180E090E0861770
:1012800058F430911E022191DC01A250BE4FA30FF1
:10129000B11D2C930196F3CF80911E02680F6093CD
:1012A0001E0280E0089581E0089582E00895EF92A3
:1012B000FF920F931F93CF93DF938B012091D10265
:1012C000222359F0EC017C01E60EF71ECE15DF0556
:1012D00031F089910E94D310F9CF0E942F09C801E3
:1012E000DF91CF911F910F91FF90EF900895109291
:1012F000D00281E08093CF021092AA02A89AA99A04
:101300000898099888E480B985E486BF0895CF924B
:10131000DF92EF92FF920F931F930091D7021091EB
:10132000D8022091D9023091DA02C090D702D09031
:10133000D802E090D902F090DA02C01AD10AE20A8B
:10134000F30AC616D706E806F90678F31F910F913F
:10135000FF90EF90DF90CF9008951F920F920FB6FD
:101360000F9211242F933F934F935F936F937F932B
:101370008F939F93AF93BF93CF93DF93EF93FF939D
:101380008091D7029091D802A091D902B091DA024F
:101390000196A11DB11D8093D7029093D802A0930E
:1013A000D902B093DA028091FD018A3009F076C04B
:1013B0008091FC01811170C081E08093FC017894E0
:1013C00080E00E94A60C81E00E94A60C82E00E94B0
:1013D000A60C83E00E94A60C8091B301882309F437
:1013E00058C08091FA018111FCCF25E030E040E047
:1013F000842F90E082179307D4F4BC016C507E4F89
:10140000DB015C91FC01EB50FE4F8081C52FD0E0E9
:10141000C355DE4FA82FB0E0A355BE4FC8819C91A5
:101420009C1718F4DB018C9350834F5FE1CF215060
:101430003109E9F60E94D9058091FA018111FCCFAA
:1014400081E08093FA01C091DB02D091DC028981B6
:101450008823E9F08091D102811119C08A810E940C
:10146000FD1061E070E0CE010E9457090E946110FA
:10147000882361F083E691E00E94F60685E491E01E
:101480000E94F60682E491E00E94F606198210920C
:10149000B301F8941092FC011092FD018091FD01BE
:1014A0008F5F8093FD01789490B383B3907F829592
:1014B0008F70892B9091FB01E92FF0E0E352FD4FF3
:1014C00080839F5F9093FB01F894FF91EF91DF91F0
:1014D000CF91BF91AF919F918F917F916F915F91CC
:1014E0004F913F912F910F900FBE0F901F90189525
:1014F0001F920F920FB60F9211242F933F938F9349
:101500009F938091F3018823B1F08091F20190E0E4
:1015100081509F4F9BBD8ABD3091F1012091000009
:1015200081E090E002C0880F991F3A95E2F780951C
:101530009095822313C02091F2018DEE92E1821BDF
:1015400091099BBD8ABD3091F1012091000081E09D
:1015500090E001C0880F3A95EAF7822B8093000053
:101560009091F30181E089278093F3019F918F91FE
:101570003F912F910F900FBE0F901F9018951F92C3
:101580000F920FB60F9211242F933F934F935F93B7
:101590006F937F938F939F93AF93BF93EF93FF933B
:1015A0008091F001811122C08091FA01882351F0CD
:1015B0000E942F061092FA0188B3807F88BB82B305
:1015C000837F82BB8091F001E0916400F09165001F
:1015D000E80FF11D808198B3282F2F70922B98BBB4
:1015E00092B3869586958C70892B13C0E091640028
:1015F000F0916500E80FF11D808128B3982F9F704E
:101600009095922398BB92B3869586958C70809521
:10161000892382BB8091F001E0916600F091670020
:10162000E80FF11D808183BD8091F0018F5F809371
:10163000F001E0916600F0916700E80FF11D9081E4
:10164000992311F0873011F41092F001FF91EF917E
:10165000BF91AF919F918F917F916F915F914F91CA
:101660003F912F910F900FBE0F901F901895CF9321
:10167000DF93EC0170E060597F4F7A8369831C82AD
:101680001B821E821D8218861F8240E061E00E943C
:10169000660764E670E080E090E00E94870986E0DB
:1016A00091E09E838D834CE362E0CE010E94660749
:1016B00064E670E080E090E00E94870988E30E9481
:1016C000FD100E946110882371F08AE391E00E946E
:1016D000F60682E291E00E94F6068DE291E0DF914B
:1016E000CF910C94F60662E370E080E090E00E94F7
:1016F000870981E08883DF91CF9108958F929F922F
:10170000AF92BF92EF92FF920F931F93CF93DF930D
:10171000CDB7DEB7A1970FB6F894DEBF0FBECDBF31
:101720007C01FA01CB0119A2223008F42AE08E01D3
:101730000F5D1F4F822E912CA12CB12CBF01A50152
:1017400094010E941018F901CA01015011096A3070
:1017500014F4605D01C0695CD8016C93232B242BC9
:10176000252B61F7B801C7010E94F70BA1960FB6B0
:10177000F894DEBF0FBECDBFDF91CF911F910F91C7
:10178000FF90EF90BF90AF909F908F9008950C9432
:10179000F70BCF92DF92EF92FF920F931F93CF93AD
:1017A000DF936C017A018B01C0E0D0E0CE15DF053C
:1017B00081F0D8016D918D01D601ED91FC910190E0
:1017C000F081E02DC6010995892B11F02196EECF0D
:1017D0007E01C701DF91CF911F910F91FF90EF9094
:1017E000DF90CF900895089580E090E0089561150E
:1017F000710579F0FB0101900020E9F73197AF0105
:10180000461B570BDC01ED91FC910280F381E02D2A
:10181000099480E090E008958F929F92AF92BF92DA
:10182000EF92FF920F931F93CF93DF938C01EB0105
:101830001C161D0674F5DC011396EC90F12C072E96
:10184000000C880B990B0E94DA19F801258136816A
:10185000478150850E94311B4B015C01B7010F2C61
:10186000000C880B990B0E94DA199B01AC01C50191
:10187000B4010E944D180E94A2196E157F050CF448
:101880003FC0D8011496CC91D0E06C177D070CF4C2
:10189000EB01D7FF36C0F801E380F12CF194E1941D
:1018A000F108BE01DD0F880B990B0E94DA19D801EF
:1018B00015962D913D914D915C9118970E94311B89
:1018C0004B015C01B7010F2C000C880B990B0E9497
:1018D000DA199B01AC01C501B4010E944D180E94A8
:1018E000A219F801C481D0E0D195C195D1096C1736
:1018F0007D073CF0E7016E157F051CF4EB0101C08C
:10190000E70163E571E082ED92E00E94C70BBE0142
:1019100082ED92E00E94161068E571E082ED92E09F
:101920000E94F70BD801EC91F0E0EE0FFF1FEE558F
:10193000FD4FD183C083DF91CF911F910F91FF9015
:10194000EF90BF90AF909F908F900895CF93DF93CB
:10195000282F30E0D901AA0FBB1FFD01E656FD4F2D
:1019600040815181FD01EE55FD4F60817181461727
:10197000570709F47AC0FB01E41BF50BEB30F105C6
:1019800024F0BA01665F7F4F06C0E63FFF4F1CF4AC
:10199000BA016A507109982F990FE091DB02F0911A
:1019A000DC02C08141E050E0092E01C0440F0A94DE
:1019B000EAF777FF1DC04C2B4083C41711F051E0AC
:1019C00051839F5FC1E0D0E001C0CC0F9A95EAF748
:1019D000C095C423C083C41711F091E09183863071
:1019E000E8F5F901E355FE4F862F8195808336C0D7
:1019F00040954C23408361157105C1F0C41711F067
:101A000051E051839F5FC1E0D0E001C0CC0F9A95B7
:101A1000EAF7C42BC083C41711F091E0918386309C
:101A2000E8F4F901E355FE4F608318C0C41711F0C4
:101A300051E051839F5FC1E0D0E001C0CC0F9A9587
:101A4000EAF7C095C423C083C41711F091E09183D5
:101A5000863020F4F901E355FE4F1082A656BD4FA3
:101A60006D937C9381E08093B301DF91CF910895D2
:101A70001F93CF93DF93EC01162F8C810E94FD10F2
:101A80006C85812F862B90E080FB92F981FB91F988
:101A900082FB90F984FB97F985FB96F986FB95F913
:101AA00087FB94F9892F0E94D310DF91CF911F916A
:101AB0000C9461100F931F93CF938C01C62F0E943B
:101AC000380D6C2F6460C8010E94380D6C2F6B7F3D
:101AD000C8010E94380D82EC90E00197F1F7CF9198
:101AE0001F910F9108950F931F93CF93DF938C0154
:101AF000C62FD42F607F642B0E945A0D80E1C89FAF
:101B0000B00111246D2BC801DF91CF911F910F916E
:101B10000C945A0D41E00E94730D81E090E008950D
:101B2000843108F044C094EF980F943000F544B32A
:101B300023E0291B30E02C5F3F4F81E090E0022E34
:101B400001C0880F0A94EAF7382F3095942F932319
:101B500094BB95B3892B85BB83B390E002C0959568
:101B600087952A95E2F795B3392335BB3FC041B33A
:101B70008051282F30E02C5F3F4F81E090E0022E13
:101B800001C0880F0A94EAF7382F3095942F9323D9
:101B900091BB92B3892B82BB80B390E002C0959534
:101BA00087952A95E2F792B3392332BB1FC08C3157
:101BB000F8F44AB32CEE280F81E090E0022E01C029
:101BC000880F0A94EAF7382F3095942F93239ABB05
:101BD0009BB3892B8BBB99B3892F90E002C095955D
:101BE00087952A95E2F79BB339233BBB8170089513
:101BF00080E008956F927F928F929F92AF92BF92F2
:101C0000CF92DF92EF92FF920F931F93CF93DF93C8
:101C10001F92CDB7DEB78091D7029091D802A091E4
:101C2000D902B091DA028091D7029091D802A091A6
:101C3000D902B091DA0240919602509197026091D8
:101C4000980270919902841B950BA60BB70B4597D0
:101C5000A105B10508F0F5C08091D7029091D80296
:101C6000A091D902B091DA02409192025091930270
:101C70006091940270919502841B950BA60BB70B93
:101C80004597A105B10508F472C08091F603811152
:101C900028C129EEC22E23E0D22EEE24EA94FE2C97
:101CA0000E94E0068C01009709F4E3C085352AEA1A
:101CB000920709F0E5C085E5E8168AEAF80609F01A
:101CC000FDC01092F8031092F7031092FA031092DD
:101CD000F9038CE0B82EEE24E394F12C8091F90303
:101CE0009091FA038238910508F084C10E94E006C1
:101CF0008C018091F9039091FA030535EAEA1E07F9
:101D000009F0F2C021E02093F6031092F80310923C
:101D1000F70390938B0280938A0218161906BCF47D
:101D2000E091F303F091F40320E030E04081518131
:101D3000452B09F057C1828193819093870280934C
:101D40008602848195819093890280938802809194
:101D5000D7029091D802A091D902B091DA02809373
:101D6000920290939302A0939402B0939502809173
:101D7000D7029091D802A091D902B091DA02409195
:101D80008E0250918F026091900270919102841B9B
:101D9000950BA60BB70B0397A105B105D0F1809168
:101DA000FD03882309F440C184E30E94FD101982D9
:101DB00061E070E0CE0101960E9457090E94611017
:101DC000882309F41AC18EEB91E00E94F60685EB98
:101DD00091E00E94F6068EEA91E00E94F6068BEAF8
:101DE00091E00E94F60690E080E090938402809358
:101DF00085028091D7029091D802A091D902B0912A
:101E0000DA0280938E0290938F02A0939002B09397
:101E100091028091D7029091D802A091D902B091FD
:101E2000DA020F90DF91CF911F910F91FF90EF9009
:101E3000DF90CF90BF90AF909F908F907F906F90EA
:101E400008950E94050790E090938D0280938C0284
:101E50008091D7029091D802A091D902B091DA0274
:101E60008093960290939702A0939802B093990260
:101E7000F3CEEF2819F582E290E00197F1F7BAC0AE
:101E80008635EAEA9E0761F4F5E5EF16FAEAFF0601
:101E9000A9F481E090E09093F8038093F70315CFC5
:101EA0008A3A954559F461E08091F5030E946B06EA
:101EB0001092E0038093DF030E94CC0681E0C81AF1
:101EC000D108780109F0ECCE83EA91E00E94F60691
:101ED00081E991E00E94F6068EE891E00E94F60604
:101EE00089C01092F603F1CE0635FAEA1F0751F4C5
:101EF00021E02093F60321E030E03093F8032093B3
:101F0000F70307CF0115110509F403CF2091FB0357
:101F10003091FC0328173907A8F4C9014E96909315
:101F2000FC038093FB03B89EB001B99E700D112491
:101F30008091F3039091F4030E94501D9093F40359
:101F40008093F3032091F9033091FA03B29EC0010C
:101F5000B39E900D1124C090F303D090F403C80EEB
:101F6000D91E4601612C712CA12C8091F703909110
:101F7000F803892B39F425E0A21204C0F601138678
:101F800012860CC00E94E006680E791EF40181934F
:101F900091934F01A394F6E0AF12E7CF601671065C
:101FA00049F48091F9039091FA0301969093FA0312
:101FB0008093F9030E94E00685352AEA920729F406
:101FC0001092F8031092F70389CE86359A4A29F4C5
:101FD000F092F803E092F70381CE8091F90390919B
:101FE000FA0397CE2F5F3F4F3C968217930709F075
:101FF0009DCEADCE80E090E08CCE62E084E30E9486
:102000006B061092E0038093DF030E94CC068C01E4
:102010000E94CC0620E030E0382F020F131F0E94F0
:102020006110902F812FE1CE90E0DFCECF92DF9232
:10203000EF92FF920F931F93CF93DF936B01770F74
:10204000EE08FF08F7FE1FC0EC01E881F98101905E
:10205000F081E02D6DE209958C0144275527BA01E6
:102060004C195D096E097F092AE0CE010E947E0BA2
:10207000800F911FDF91CF911F910F91FF90EF90F3
:10208000DF90CF9008952AE0B701A601DF91CF91AC
:102090001F910F91FF90EF90DF90CF900C947E0BEB
:1020A000CF93DF93C5E2D4E060E070E0CE010E9400
:1020B0000C0C299684E0C934D807B1F7DF91CF9191
:1020C00008953091DD03313208F055C041E050E011
:1020D000BA018091D002882331F041505109610941
:1020E0007109B9F746C090916F0422E02093D002A5
:1020F00021E02093CF022FEF2093CE021092CD0249
:102100003093CC02AFE4B4E0ECEAF2E020E0321726
:1021100021F04D9141932F5FFACF1092AB022091A5
:10212000AB02990F922B9093AB029091AA0291303F
:1021300091F41092AA0241E050E0BA019091AB02F2
:1021400093B9415051096109710901F106B603FCC7
:10215000F5CF95EC01C095EE96BF41E050E0BA0195
:102160009091D002923049F44150510961097109AE
:10217000B9F784E00BC081E009C09091CE029F3F87
:1021800029F08091CE02803241F482E01092DE0389
:102190001092DD031092D10208958091CE02803317
:1021A00041F783E0F3CFCF93DF931F92CDB7DEB734
:1021B00089838091D102882391F08091DD03803260
:1021C000B0F48091DE03E82FF0E0E15BFB4F9981F2
:1021D00090838F5F8093DE038093DD0305C061E011
:1021E000CE0101960E942F0981E090E002C080E0BC
:1021F00090E00F90DF91CF91089591E09093D102FC
:1022000080936F041092DE031092DD030895CF9344
:10221000DF93CDB7DEB728970FB6F894DEBF0FBEB9
:10222000CDBF98E0E3E7F0E0DE01119601900D925A
:102230009A95E1F79091EE03961710F46FEF690FFE
:10224000FE013196E60FF11DE60FF11D6081680F6A
:10225000606840E086EE93E028960FB6F894DEBF03
:102260000FBECDBFDF91CF910C94730DCF93DF9351
:1022700000D000D0CDB7DEB783E091E00E94F60633
:10228000EE24E394F12C19EC0E2D8E2D0E94FD10FE
:102290000E94611081112DC08FEF90E00E94F60620
:1022A000B70182ED92E00E941610043319F485EF15
:1022B00090E01DC0003619F48AEE90E018C0043595
:1022C00019F482EE90E013C088EC810F803118F48D
:1022D00083ED90E00CC0093219F48AEC90E007C05D
:1022E0001C3218F48AEB90E002C08FEA90E00E9462
:1022F000F6061F5F2FEFE21AF20A173429F680EA7A
:1023000090E00E94F6068091EB0388608093EB03D7
:1023100024E0F22EF092EE0362E370E080E090E0C1
:102320000E9487096091F20386EE93E00E94380DC7
:1023300068EE73E080E090E00E94870960E386EE3B
:1023400093E00E945A0D0AE416E4C8010197F1F7E0
:1023500060E386EE93E00E945A0DC8010197F1F701
:1023600060E386EE93E00E945A0D82E592E00197C9
:10237000F1F760E286EE93E00E945A0D6091EB0364
:10238000606240E086EE93E00E94730DF092EC03F1
:1023900040E06CE086EE93E00E94730D0E945806C8
:1023A00082E08093ED0340E066E086EE93E00E94D9
:1023B000730D40E062E086EE93E00E94730D8AE3C5
:1023C0009FE10197F1F76091EC03862F8160809384
:1023D000EC03696040E086EE93E00E94730D63E9D0
:1023E00070E086EE93E00E94C70B60E081E094E02D
:1023F0000E94370B62E08AE094E00E94370B6AE0AB
:1024000083E194E00E94370B6EE08CE194E00E943F
:10241000370B0E94580664EA70E086EE93E00E9453
:10242000C70B1092FF031092FE03109200041BE0F2
:102430002091FE033091FF032115310501F50E9423
:10244000050790E09093FF038093FE036AE070E03D
:1024500080E090E00E948709115051F786E891E0F2
:102460000E94F6068DE791E00E94F60684E191E075
:102470000E94F60683E791E00E94F6060BC080E812
:1024800090E0821B930B9093FF038093FE0381E007
:10249000809300040E94580661EB70E086EE93E0A2
:1024A0000E94C70B1B821C8284E30E94FD1062E025
:1024B00070E0CE0103960E9457090E9461108823A4
:1024C00089F08EEB91E00E94F60685EB91E00E9488
:1024D000F6068EEA91E00E94F6068BEA91E00E94F1
:1024E000F60603C081E08093FD038091FD038823FD
:1024F00079F081E0898380EF8A8384E30E94FD1074
:1025000062E070E0CE0101960E9457090E946110BE
:102510000E9458066CEB70E086EE93E00E94C70BB9
:102520001092E0031092DF031092DE031092DD039D
:102530000E9477090E9458060E9458060E94501077
:1025400066EC70E086EE93E00E94C70B61E080E0ED
:102550000E9407116CEC70E086EE93E00E94C70BBE
:1025600062E080E00E94071169ED70E086EE93E082
:102570000E94C70B63E080E00E9407116EED70E0DF
:1025800086EE93E00E94C70B00E010E0602F8FE022
:102590000E94071182E10E94900D811103C00F5F1C
:1025A0001F4F0EC081E10E94900D811103C00D5F8D
:1025B0001F4F06C083E10E94900D8111E7CF1EC01E
:1025C00068EC70E080E090E00E94870982E10E9460
:1025D000900D8823D9F383E10E94900D8823B1F3F5
:1025E00081E10E94900D882389F30370112768EC24
:1025F00070E080E090E00E948709C8CF0E945806F2
:102600000230110509F42DC203301105F1F001303B
:10261000110561F10E9458066DEE70E086EE93E0C0
:102620000E94C70B82E10E94900D8823E1F00E9476
:10263000FA0D8091840290918502892B19F00E94F5
:102640000105F0CF0E945802EDCF6BE171E086EEFC
:1026500093E00E94C70BEE24E394F12C82E10E94E8
:10266000900D81113BC20E945010A4C28090D702ED
:102670009090D802A090D902B090DA0200E010E069
:1026800082E10E94900D882309F494C281E10E94A6
:10269000900D811110C00F5F1F4F64EF71E080E05B
:1026A00090E00E9487090E94580665EF70E086EE70
:1026B00093E00E94C70B0130110509F4BBC0023042
:1026C000110509F415C101151105C1F60E94FA0D95
:1026D0008091D7029091D802A091D902B091DA02EC
:1026E00088199909AA09BB09893E9340A105B1053A
:1026F00038F20E94580660E080E00E94071160E016
:1027000070E086EE93E00E94161060E084E00E9484
:10271000071160E070E086EE93E00E94161060E022
:1027200088E00E94071160E070E086EE93E00E946E
:10273000161060E08CE00E94071160E070E086EE09
:1027400093E00E94161061E080E00E940711609102
:102750008C0270918D0286EE93E00E94161061E06B
:1027600084E00E94071160918A0270918B0286EECC
:1027700093E00E94161080918A0290918B021816A5
:102780001906C4F461E088E00E9407116091860296
:102790007091870286EE93E00E94161061E08CE053
:1027A0000E940711609188027091890286EE93E081
:1027B0000E94161062E080E00E940711409184029E
:1027C0005091850260E070E022E086EE93E00E9486
:1027D0007E0B63E080E00E94071160E070E086EE0F
:1027E00093E00E94161063E084E00E94071160E00D
:1027F00070E086EE93E00E94161063E088E00E948D
:10280000071160E070E086EE93E00E94161063E02E
:102810008CE00E94071160E070E086EE93E00E9479
:1028200016108090D7029090D802A090D902B09054
:10283000DA0226CF0E945806C12CD12CE12CF12CB3
:10284000B70175956795759567958C2D8F700E946A
:1028500007118091FD03882381F184E30E94FD101C
:1028600082E08E0D898361E070E0CE0101960E94C6
:1028700057090E946110882389F08EEB91E00E9435
:10288000F60685EB91E00E94F6068EEA91E00E9442
:10289000F6068BEA91E00E94F6060FC061E084E341
:1028A0000E946B061092E0038093DF030E94CC0627
:1028B000782E0E946110472D01C040E050E060E09A
:1028C00070E02AE086EE93E00E947E0B8FEFE81A1C
:1028D000F80A24E0C20ED11C80E1E816F10409F0E8
:1028E000AFCF68EE73E080E090E00E948709C8CE29
:1028F0000E9458066FEF70E086EE93E00E94C70BCF
:102900006CE97FEF85E294E00E940C0C64EF71E0CB
:1029100080E090E00E94870964E670E085E294E040
:102920000E940C0C64EF71E080E090E00E94870947
:1029300060E070E085E294E00E940C0C68EE73E0C9
:1029400080E090E00E94870964E670E08EE294E007
:102950000E940C0C64EF71E080E090E00E94870917
:102960006CE97FEF8EE294E00E940C0C64EF71E062
:1029700080E090E00E94870960E070E08EE294E0E1
:102980000E940C0C68EE73E080E090E00E948709E2
:1029900064E670E087E394E00E940C0C64EF71E061
:1029A00080E090E00E9487096CE97FEF87E394E084
:1029B0000E940C0C64EF71E080E090E00E948709B7
:1029C00060E070E087E394E00E940C0C68EE73E036
:1029D00080E090E00E94870964E670E080E494E083
:1029E0000E940C0C64EF71E080E090E00E94870987
:1029F0006CE97FEF80E494E00E940C0C64EF71E0DE
:102A000080E090E00E94870960E070E080E494E05C
:102A10000E940C0C68EE73E080E090E00E94870951
:102A20006EEC7FEF85E294E00E940C0C62E370E0B4
:102A30008EE294E00E940C0C62E370E087E394E085
:102A40000E940C0C62E370E080E494E00E940C0CA5
:102A500068EE73E080E090E00E9487090E945010C9
:102A60000DCE0E947E0382E10E94900D882309F41E
:102A7000FACD0E94FA0D0E94580660E080E00E94A4
:102A800007116AE071E086EE93E00E94C70B60E0F8
:102A90008CE00E9407110E94A504BC0186EE93E021
:102AA0000E94161061E080E00E94071160E171E071
:102AB00086EE93E00E94C70B60E08CE00E94071155
:102AC0000E94EA03BC0186EE93E00E94161064EFB8
:102AD00071E080E090E00E948709C5CF0E9458060F
:102AE00081E10E94900D811120C00E945010870149
:102AF0000F5F1F4F65EF70E086EE93E00E94C70BFB
:102B000068EE73E080E090E00E9487090E9458061A
:102B10006DE271E086EE93E00E94C70B60ED77E016
:102B200080E090E00E94870901C08701E12CF12C30
:102B300001301105C9F00230110541F101151105EF
:102B400009F08CCD6FE371E086EE93E00E94C70B35
:102B50000E94FA0D80918A0290918B02892B39F59F
:102B60000E94580278017ACD66E471E086EE93E027
:102B70000E94C70B0E94FA0D80918A0290918B02ED
:102B800018161906A4F40E94AE02ECCF6DE471E0B1
:102B900086EE93E00E94C70B0E94FA0D809184029A
:102BA00090918502892B19F00E940105DBCF0E94CC
:102BB0005010D8CF64EF71E080E090E00E94870968
:102BC000BBCC86B78A7B86BFA898A9980895CF9377
:102BD0000E94E11584B38C7F84BB85B3836085BB81
:102BE000989902C0C1E043C0999BFCCFA898A09AD5
:102BF00080E0989B04C08A3FA9F38F5FFACF8A3F99
:102C000089F38B3060F4A19AA99880E093B3C92F1F
:102C1000C27091FF06C08A3F29F38F5FF7CFC4E0EF
:102C200026C08A3FF9F28B3048F4A198A99A80E037
:102C3000999906C08A3FB1F28F5FFACFC2E017C000
:102C40008A3F81F28B3048F4A098A89A80E0989946
:102C500006C08A3F39F28F5FFACFC3E008C08A3FCF
:102C600009F28B3018F40E94770901C0C5E08C2F5F
:102C7000CF910895CF93F894E4EFF1E01082C1E092
:102C8000C18382E0828383E0838384E0848385E060
:102C900085830E94D9050E942F0687B38F6087BB6A
:102CA00081B38C6081BB85B58B6085BD89B7806839
:102CB00089BF8FEF83BD7894C093DC03CF910895D3
:102CC0008091F3039091F4030C94C71C8F929F9210
:102CD000AF92BF92DF92EF92FF920F931F93CF9329
:102CE000DF931092D5021092D4028FE790E0909378
:102CF000D3028093D2021092D60210922504109231
:102D000027041092260410922E0410923004109280
:102D10002F04109237041092390410923804109244
:102D2000400410924204109241041092490481E040
:102D300080934A0410924B0410924C0480934D04EB
:102D400010924E0478941092E4031092E3031092D0
:102D5000E2031092E10310BC88E089B988E98AB9DE
:102D600086E880BD84B38C6084BB85B38C6085BBF2
:102D70008AB3807F8ABB8AB38F708ABB87B38F7018
:102D800087BB0E94E715882309F457C00E94E1150C
:102D9000F894A198A99A8AE891E00197F1F724E6BE
:102DA0008AE891E0A098A89AFC013197F1F7A898D9
:102DB000A09AFC013197F1F7999B1DC0A998A19A9F
:102DC000FC013197F1F7A098A89AFC013197F1F72F
:102DD000A198A99AFC013197F1F7A898A09AFC0153
:102DE0003197F1F7999B07C0A098A89A8AE891E0DB
:102DF0000197F1F702C02150A9F68AE99FE00197F7
:102E0000F1F70E94770978940E94E715823038F034
:102E10008FE192E00E94F60687E192E008C08130DF
:102E200061F48FE192E00E94F6068AE092E00E944F
:102E3000F60684E192E00E94F6061092E0031092FA
:102E4000DF031092DE031092DD030E947709809168
:102E5000DC03811102C00E943A1681B38F7081BBDE
:102E600084B38F7084BB82B3806F82BB85B3806F65
:102E700085BB80E090E0FC01E352FD4F108201969B
:102E80008F3F9105C1F78FE380934B0488E38093D4
:102E90004E04C5E2D4E010E08CE4E82E84E0F82E85
:102EA00098E2D92E09EF2FE4822E2BE0922E2DE509
:102EB000A22E2FE3B22E80916C00882361F0F09255
:102EC000DC02E092DB028091DC03811102C00E94EF
:102ED0003A1610926C00FA82E9821883DB820C8326
:102EE0008D829E82AF82B8861F5F2996143019F7B3
:102EF00083B78B6083BF89B7826089BF8AEF8CBF3D
:102F00001092D7021092D8021092D9021092DA02CF
:102F1000789488E30E94FD100E946110882339F0A4
:102F20008FE192E00E94F60688EE91E00DC08FE3FB
:102F30000E94FD100E946110882361F08FE192E0F1
:102F40000E94F60686EC91E00E94F60684E192E08B
:102F50000E94F606E1E0F4E01082148213821682E9
:102F600015821086178212821182399684E0E5322A
:102F7000F80791F71092FF031092FE0310920004DD
:102F80001092FD031092F6031092FA031092F903C7
:102F90008EE190E09093FC038093FB0388E691E040
:102FA0000E942F1C9093F4038093F30384E5809395
:102FB000F5031092E9031092E8038BE890E09093F8
:102FC000E7038093E6031092EF038FE38093EA0315
:102FD00080E18093F00384E08093F1031092F20388
:102FE000DF91CF911F910F91FF90EF90DF90BF90F5
:102FF000AF909F908F90089597FB072E16F4009442
:1030000007D077FD09D00E94321807FC05D03EF4A6
:10301000909581959F4F0895709561957F4F089584
:10302000A1E21A2EAA1BBB1BFD010DC0AA1FBB1FCC
:10303000EE1FFF1FA217B307E407F50720F0A21B3E
:10304000B30BE40BF50B661F771F881F991F1A94AB
:1030500069F760957095809590959B01AC01BD01D5
:10306000CF010895AA1BBB1B51E107C0AA1FBB1FBC
:10307000A617B70710F0A61BB70B881F991F5A9504
:10308000A9F780959095BC01CD010895EE0FFF1F23
:103090000590F491E02D09945058BB27AA270E946F
:1030A00064180C94BE1A0E94851A38F00E948C1A7B
:1030B00020F039F49F3F19F426F40C945B1A0EF4B7
:1030C000E095E7FB0C942C1AE92F0E94E31A58F3C1
:1030D000BA17620773078407950720F079F4A6F5FD
:1030E0000C941D1B0EF4E0950B2EBA2FA02D0B0196
:1030F000B90190010C01CA01A0011124FF27591B3D
:1031000099F0593F50F4503E68F11A16F040A22F42
:10311000232F342F4427585FF3CF469537952795B3
:10312000A795F0405395C9F77EF41F16BA0B620BB2
:10313000730B840BBAF09150A1F0FF0FBB1F661FF9
:10314000771F881FC2F70EC0BA0F621F731F841F3C
:1031500048F4879577956795B795F7959E3F08F062
:10316000B0CF9395880F08F09927EE0F9795879524
:1031700008950E94851A60F080E891E009F49EEFBE
:103180000E948C1A28F040E851E071F45EEF0CC008
:103190000C945B1A0C941D1BE92FE0780E94E31A33
:1031A00040F3092E052AB1F32617370748075907B8
:1031B00038F00E2E07F8E02569F0E025E0640AC03B
:1031C000EF6307F8009407FADB01B9019D01DC0108
:1031D000CA01AD01EF930E9447190E94BE1A0E94D6
:1031E000FC185F91552339F02BED3FE049E450FD89
:1031F00049EC0C944D180895DF93DD27B92FBF7764
:1032000040E85FE31616170648075B0718F4D92F46
:103210000E94291B9F938F937F936F930E94EC1BB7
:10322000E4E5F0E00E945E1A0E94BE1A2F913F91E1
:103230004F915F910E94441BDD2351F09058A2EA08
:103240002AED3FE049EC5FE3D0785D270E946418E7
:10325000DF910C94BE1A0E94951AE3950C94CF1A34
:103260000E9444190C94BE1A0E948C1A58F00E94B5
:10327000851A40F029F45F3F29F00C942C1A511163
:103280000C941E1B0C945B1A0E94E31A68F399239A
:10329000B1F3552391F3951B550BBB27AA27621752
:1032A0007307840738F09F5F5F4F220F331F441F5F
:1032B000AA1FA9F335D00E2E3AF0E0E832D0915093
:1032C0005040E695001CCAF72BD0FE2F29D0660F80
:1032D000771F881FBB1F261737074807AB07B0E8C3
:1032E00009F0BB0B802DBF01FF2793585F4F3AF0C9
:1032F0009E3F510578F00C942C1A0C941E1B5F3FD6
:10330000E4F3983ED4F3869577956795B795F7954E
:103310009F5FC9F7880F911D9695879597F9089536
:10332000E1E0660F771F881FBB1F621773078407D2
:10333000BA0720F0621B730B840BBA0BEE1F88F7E1
:10334000E09508950E94A9196894B1110C941E1B70
:1033500008950E94EB1A88F09F5798F0B92F99278B
:10336000B751B0F0E1F0660F771F881F991F1AF070
:10337000BA95C9F714C0B13091F00E941D1BB1E09D
:1033800008950C941D1B672F782F8827B85F39F09C
:10339000B93FCCF3869577956795B395D9F73EF409
:1033A00090958095709561957F4F8F4F9F4F0895B1
:1033B000E89409C097FB3EF49095809570956195CF
:1033C0007F4F8F4F9F4F9923A9F0F92F96E9BB2785
:1033D0009395F695879577956795B795F111F8CF01
:1033E000FAF4BB0F11F460FF1BC06F5F7F4F8F4F6C
:1033F0009F4F16C0882311F096E911C0772321F062
:103400009EE8872F762F05C0662371F096E8862FF9
:1034100070E060E02AF09A95660F771F881FDAF750
:10342000880F9695879597F908950E94051B90F04F
:103430009F3748F4911116F00C941E1B60E070E069
:1034400080E89FEB089526F41B16611D711D811DF8
:103450000C94321A0C944D1A97F99F6780E870E02B
:1034600060E00895882371F4772321F09850872B2A
:10347000762F07C0662311F499270DC09051862B33
:1034800070E060E02AF09A95660F771F881FDAF7E0
:10349000880F9695879597F908959F3F31F0915041
:1034A00020F4879577956795B795880F911D969528
:1034B000879597F908959FEF80EC0895DF93CF9358
:1034C0001F930F93FF92EF92DF927B018C01689420
:1034D00006C0DA2EEF010E94441BFE01E894A5917C
:1034E0002591359145915591A6F3EF010E946418FD
:1034F000FE019701A801DA9469F7DF90EF90FF9041
:103500000F911F91CF91DF91089500240A94161610
:10351000170618060906089500240A9412161306C1
:103520001406050608950C945B1A0E94EB1AD8F352
:10353000E894E0E0BB279F57F0F02AED3FE049EC2C
:1035400006C0EE0FBB0F661F771F881F28F0B23A28
:1035500062077307840728F0B25A620B730B840B5F
:10356000E3959A9572F7803830F49A95BB0F661FF1
:10357000771F881FD2F790480C944F1A092E039496
:10358000000C11F4882352F0BB0F40F4BF2B11F450
:1035900060FF04C06F5F7F4F8F4F9F4F0895EF9381
:1035A000E0FF07C0A2EA2AED3FE049EC5FEB0E9492
:1035B00064180E94BE1A0F90039401FC9058E1E831
:1035C000F0E00C941B1C57FD9058440F551F59F008
:1035D0005F3F71F04795880F97FB991F61F09F3F00
:1035E00079F087950895121613061406551FF2CF29
:1035F0004695F1DF08C0161617061806991FF1CF79
:10360000869571056105089408950E94EB1AA0F053
:10361000BEE7B91788F4BB279F3860F41616B11DB2
:10362000672F782F8827985FF7CF869577956795CE
:10363000B11D93959639C8F30895E894BB27662782
:103640007727CB0197F908950E94F01B08F48FEFBC
:1036500008959B01AC0160E070E080E89FE30C946A
:1036600030190E94441B0C94BE1A0E94851A38F02F
:103670000E948C1A20F0952311F00C942C1A0C94B3
:103680005B1A11240C941E1B0E94E31A70F3959F81
:10369000C1F3950F50E0551F629FF001729FBB2749
:1036A000F00DB11D639FAA27F00DB11DAA1F649FE5
:1036B0006627B00DA11D661F829F2227B00DA11D98
:1036C000621F739FB00DA11D621F839FA00D611D1E
:1036D000221F749F3327A00D611D231F849F600D3F
:1036E000211D822F762F6A2F11249F5750409AF068
:1036F000F1F088234AF0EE0FFF1FBB1F661F771FF4
:10370000881F91505040A9F79E3F510580F00C94BE
:103710002C1A0C941E1B5F3FE4F3983ED4F386955D
:1037200077956795B795F795E7959F5FC1F7FE2B5E
:10373000880F911D9695879597F908959F930E94FC
:10374000951A0F9007FCEE5F0C94CF1A19F416F43B
:103750000C945B1A0C944D1A0E94EB1AB8F399233F
:10376000C9F3B6F39F57550B87FF0E94141C002422
:10377000A0E640EA900180585695979528F4805C21
:10378000660F771F881F20F026173707480730F489
:10379000621B730B840B202931294A2BA6951794A1
:1037A0000794202531254A2758F7660F771F881F71
:1037B00020F026173707480730F4620B730B840B91
:1037C000200D311D411DA09581F7B901842F91581D
:1037D000880F9695879508959B01AC010C94311B39
:1037E000990F0008550FAA0BE0E8FEEF1616170612
:1037F000E807F907C0F012161306E407F50798F07A
:10380000621B730B840B950B39F40A2661F0232B92
:10381000242B252B21F408950A2609F4A140A6950E
:103820008FEF811D811D089591505040660F771FC5
:10383000881FD2F708959F938F937F936F93FF9381
:10384000EF939B01AC010E94311BEF91FF910E940D
:103850005E1A2F913F914F915F910C94311B0F9302
:103860001F93CF93DF938230910510F482E090E0B4
:10387000E0917204F091730420E030E0A0E0B0E049
:10388000309719F1408151810281138148175907FE
:10389000C8F08417950769F4109731F012960C93CD
:1038A000129713961C9327C000937204109373040D
:1038B00022C02115310519F04217530718F49A0157
:1038C000BD01EF01DF01F801DBCF21153105F9F072
:1038D000281B390B2430310580F48A819B816115C6
:1038E000710521F0FB019383828304C090937304DC
:1038F00080937204FE01329644C0FE01E20FF31F72
:103900008193919322503109398328833AC02091C1
:10391000700430917104232B41F420916F00309199
:103920007000309371042093700420916D003091E9
:103930006E002115310541F42DB73EB7409171005D
:1039400050917200241B350BE0917004F0917104CA
:10395000E217F307A0F42E1B3F0B2817390778F066
:10396000AC014E5F5F4F2417350748F04E0F5F1FC5
:1039700050937104409370048193919302C0E0E0EE
:10398000F0E0CF01DF91CF911F910F910895CF9378
:10399000DF93009709F481C0FC01329713821282F1
:1039A000A0917204B0917304109781F42081318149
:1039B000820F931F209170043091710428173907EA
:1039C00051F5F0937104E093700467C0ED0120E0BD
:1039D00030E0CE17DF0740F44A815B819E0141153C
:1039E0005105F1F0EA01F5CFD383C28340815181C3
:1039F000840F951FC817D90759F488819981840FBE
:103A0000951F0296918380838A819B819383828311
:103A10002115310529F4F0937304E09372043DC03D
:103A2000E901FB83EA8349915991C40FD51FEC1733
:103A3000FD0761F480819181840F951F0296E90151
:103A400099838883828193819B838A83E0E0F0E07D
:103A500012968D919C911397009719F0FD01DC014E
:103A6000F7CF8D919C9111979D012E5F3F4F820F53
:103A7000931F20917004309171042817390769F45D
:103A8000309729F4109273041092720402C01382CA
:103A90001282B0937104A0937004DF91CF910895C6
:103AA000A0E0B0E0E6E5FDE10C94281EEC010097F3
:103AB00021F4CB010E942F1CB4C0FC01E60FF71FBC
:103AC0009C0122503109E217F30708F4A8C0D9017C
:103AD0000D911C91119706171707B0F005301105CD
:103AE00008F49BC0C80104978617970708F495C08F
:103AF00002501109061B170B019311936D937C93D0
:103B0000CF010E94C71C89C05B01A01AB10A4C01F9
:103B1000800E911EA0917204B0917304612C712CDF
:103B2000E12CF12C109709F446C08D919C911197CE
:103B3000A815B905B1F56C0142E0C40ED11CCA1438
:103B4000DB0478F14C018A189B08640142E0C40E42
:103B5000D11C1296BC9012971396AC91B5E0CB167F
:103B6000D10440F0B282A38391828082D9016D9307
:103B70007C9309C00E5F1F4F800F911FF901918345
:103B80008083EB2DFA2FE114F10431F0D701139665
:103B9000FC93EE93129741C0F0937304E093720488
:103BA0003CC06816790608F43C017D0112960D9020
:103BB000BC91A02DB7CF80917004909171048816AC
:103BC0009906E1F466167706C8F480916D0090912D
:103BD0006E00009741F48DB79EB7409171005091EF
:103BE0007200841B950BE817F907C8F4F093710471
:103BF000E0937004F901718360830FC0CB010E94D0
:103C00002F1C7C01009759F0A801BE010E941B1EC9
:103C1000CE010E94C71CC70104C0CE0102C080E0D3
:103C200090E0CDB7DEB7EEE00C94441E81E090E06A
:103C3000F8940C945B1EFB01DC0102C001900D9214
:103C400041505040D8F708952F923F924F925F9283
:103C50006F927F928F929F92AF92BF92CF92DF929C
:103C6000EF92FF920F931F93CF93DF93CDB7DEB701
:103C7000CA1BDB0B0FB6F894DEBF0FBECDBF099495
:103C80002A88398848885F846E847D848C849B84EC
:103C9000AA84B984C884DF80EE80FD800C811B81FA
:103CA000AA81B981CE0FD11D0FB6F894DEBF0FBE29
:103CB000CDBFED01089511E0C5E1D1E004C0FE01E2
:103CC0000E9446182196C631D107C9F7F894FFCF54
:103CD000FFFF0100E201D401DB01E90101000074F2
:103CE0000480000000400010005000000000005060
:103CF00006C90BF40BF30B000000008A0DC90BF48E
:103D00000BF30B696E697420556C74726173636890
:103D1000616C6C00696E6974206B6F6D7061737398
:103D200000696E697420626F64656E00696E697403
:103D300020706978790053746172740054657374EB
:103D40002053656E736F72730074657374005465ED
:103D500073742046756E6374696F6E730072756E4E
:103D60006E696E67006E657874204D6F6465004DF6
:103D70006F746F722054657374007479703A200008
:103D80007269636874756E673A200074657374694C
:103D90006E672046756E6374696F6E73007374612D
:103DA0007274696E6720696E2032207365630053F8
:103DB000756368656E00466F6C6C6F77004C696E5A
:0C3DC00069650073703A20000D0A0000D5
:00000001FF
