:100000000C9416010C943E010C943E010C943E019C
:100010000C946C020C943E010C943E010C94960CD2
:100020000C943E010C943E010C94CB0B0C943E01BD
:100030000C943E010C9468090C9443090C943E0105
:100040000C943E010C943E010C943E010C94C809A2
:100050000C943E01084AD73B3BCE016E84BCBFFDE9
:10006000C12F3D6C74319ABD56833DDA3D00C77F88
:1000700011BED9E4BB4C3E916BAAAABE0000008021
:100080003F05A84CCDB2D44EB93836A9020C50B9B0
:10009000918688083CA6AAAA2ABE000000803F00DC
:1000A000656E6420693263207363616E0D0A0020FF
:1000B000756E6B6E6F776E0D0A0020506F727465EF
:1000C0007870616E6465720D0A00204C6173657210
:1000D0000D0A0020556C747261736368616C6C0D5D
:1000E0000A0020506978790D0A00204B6F6D70610D
:1000F00073730D0A0020557372696E670D0A002034
:10010000202000737461727420693263207363610C
:100110006E0D0A0073657420313238206572726F7B
:1001200072000D0A00506978793A206932632074B0
:10013000696D656F7574004552524F523A20000D3B
:100140000A006E6F2061636B00555352494E473A67
:1001500020004552524F523A200053524630382028
:10016000696E6974000D0A005352462077726974F3
:1001700065004552524F523A20000D0A00506F72EE
:1001800074657870616E64657220636F6E6E65630E
:1001900074696F6E206572726F72004552524F52D1
:1001A0003A200074696D656F7574000D0A006E6FFA
:1001B0002061636B00434D505330333A2000455269
:1001C000524F523A2000476F6C64626F6172643A1A
:1001D0002069326320706F7274657870616E646537
:1001E00072206572726F7200476F6C64626F617229
:1001F000643A2069326320706F7274657870616E42
:10020000646572206572726F7200493243207368B0
:100210006F7274000D0A004932432063617000451B
:1002200052524F523A20000094168E1611241FBECF
:10023000CFE5D8E0DEBFCDBF11E0A0E6B0E0E8E654
:10024000FDE302C005900D92A436B107D9F724E072
:10025000A4E6B1E001C01D92A838B207E1F711E0B1
:10026000C5E1D1E004C02197FE010E948218C4318B
:10027000D107C9F70E940F140C94A71E0C9400001C
:100280000E94010863E970E08AEF93E00E949D03F9
:1002900068EE73E080E090E00C94A50B83E10E948F
:1002A0004905882329F00E94B2050E94A708F6CFCD
:1002B0000C94A70883E10E944905882349F00E9415
:1002C000B2050E940010892BA9F30E94A708F2CF63
:1002D0000C94A70883E10E944905882349F00E94F5
:1002E000B2050E940010892BA9F30E944912F2CF97
:1002F0000C94A708CF92DF92EF92FF920F931F9377
:10030000CF93DF936C017A018B01C0E0D0E0CE1572
:10031000DF0589F0D8016D918D01D601ED91FC9139
:100320000190F081E02DC6010995892B11F47E0121
:1003300002C02196ECCFC701DF91CF911F910F91A1
:10034000FF90EF90DF90CF900895089580E090E0C7
:1003500008950E94621E862F0E94B80881E090E0F6
:100360000895CF93DF9300D0CDB7DEB7FC01818134
:100370004A8369830E94D5136981862F0E94AB133B
:100380004A81842F0E94AB130E943813882381F086
:1003900082E791E00E94C90888E691E00E94C908BE
:1003A00085E691E00F900F90DF91CF910C94C908F2
:1003B0000F900F90DF91CF9108956115710579F03D
:1003C000FB0101900020E9F73197AF01461B570B65
:1003D000DC01ED91FC910280F381E02D099480E035
:1003E00090E00895DF92EF92FF920F931F93CF93C7
:1003F000DF93A0916600B09167001C926091640049
:1004000070916500CFEAD1E050E040E001E010E0FB
:10041000DC2E86E0D80E9991E92FF0E0E755FE4FEB
:1004200080818B3030F1780101C0EE0C9A95EAF7AB
:100430009C919E299C9390E0841B9109252F30E08C
:10044000853091053CF4FD01E20FF31F8081E82A1D
:10045000E0820FC08A30910514F48AE090E0FD013B
:10046000E20FF31FE182FB01E20FF31F8083480FCD
:100470005F5FDC12D0CFFB01E50FF11D409540839B
:10048000563008F41182DF91CF911F910F91FF90A8
:10049000EF90DF9008952091620030916300809189
:1004A000600090916100409164005091650050930C
:1004B0006300409362004091660050916700509342
:1004C0006100409360003093650020936400909336
:1004D00067008093660008951F920F920FB60F92E7
:1004E00011242F933F934F935F936F937F938F9339
:1004F0009F93AF93BF93EF93FF938091A8018111D6
:1005000022C08091B501882351F00E944B021092C5
:10051000B50188B3807F88BB82B3837F82BB809123
:10052000A801E0916000F0916100E80FF11D808169
:1005300098B3282F2F70922B98BB92B386958695EF
:100540008C70892B13C0E0916000F0916100E80F7E
:10055000F11D808128B3982F9F709095922398BBAE
:1005600092B3869586958C708095892382BB809105
:10057000A801E0916200F0916300E80FF11D808115
:1005800083BD8091A8018F5F8093A801E0916200F4
:10059000F0916300E80FF11D9081992311F08730ED
:1005A00011F41092A801FF91EF91BF91AF919F912B
:1005B0008F917F916F915F914F913F912F910F900C
:1005C0000FBE0F901F901895CF93DF93EC0170E052
:1005D00060597F4F7A8369831C821B821E821D8231
:1005E00018861F8240E061E00E94B10164E670E07D
:1005F00080E090E00E94A50B86E091E09E838D83D1
:100600004CE362E0CE010E94B10164E670E080E05C
:1006100090E00E94A50B88E30E94D5130E94381336
:10062000882371F082E791E00E94C9088AE591E091
:100630000E94C90885E691E0DF91CF910C94C9082A
:1006400062E370E080E090E00E94A50B81E0888387
:10065000DF91CF9108954F925F926F927F92EF92C8
:10066000FF920F931F93CF93DF93CDB7DEB7A19780
:100670000FB6F894DEBF0FBECDBF7C01FA01CB01EF
:1006800019A2223008F42AE08E010F5D1F4F422E7E
:10069000512C612C712CBF01A30192010E944C18B6
:1006A000F901CA01015011096A3014F4605D01C0FA
:1006B000695CD8016C93232B242B252B61F7B8019F
:1006C000C7010E94DD01A1960FB6F894DEBF0FBEF0
:1006D000CDBFDF91CF911F910F91FF90EF907F9051
:1006E0006F905F904F900895CF92DF92EF92FF92BC
:1006F0000F931F93CF93DF93EC016A017B01E88195
:10070000F9810190F081E02D6DE209958C0144277B
:100710005527BA014C195D096E097F092AE0CE01FF
:100720000E942B03800F911FDF91CF911F910F919A
:10073000FF90EF90DF90CF9008950C94DD018F92A1
:100740009F92AF92BF92EF92FF920F931F93CF931E
:10075000DF938C01EB011C161D0674F5DC0113966A
:10076000EC90F12CB7010F2C000C880B990B0E9418
:100770001B1A4B015C01BE01DD0F880B990B0E9417
:100780001B1AF80125813681478150850E94911BF3
:100790009B01AC01C501B4010E9489180E94E319B4
:1007A0006E157F05F4F1D80114962C9130E0EB0121
:1007B000261737070CF4E901D7FF34C0F801E380AE
:1007C000F12CF194E194F108B7010F2C000C880B87
:1007D000990B0E941B1A4B015C01BE01DD0F880BB7
:1007E000990B0E941B1AD80115962D913D914D91A0
:1007F0005C9118970E94911B9B01AC01C501B4014B
:100800000E9489180E94E319F801C481D0E0D195B3
:10081000C195D1096C177D072CF0EB01E616F706A0
:100820000CF4E70163E171E086EE92E00E949D0323
:10083000AE010D2E000C660B770B77FF05C086EE20
:1008400092E00E94740305C02AE086EE92E00E94C6
:100850002B0368E171E086EE92E00E94DD01D80191
:10086000EC91F0E0EE0FFF1FE056FE4FD183C08306
:10087000DF91CF911F910F91FF90EF90BF90AF90BC
:100880009F908F900895CF93DF93282F30E0D90168
:10089000AA0FBB1FFD01E856FE4F40815181FD01AB
:1008A000E056FE4F608171814617570709F484C0F6
:1008B000FB01E41BF50BEB30F10524F0BA01665F98
:1008C0007F4F06C0E63FFF4F1CF4BA016A50710922
:1008D000982F990FE091F303F091F40377FF27C06D
:1008E000D08141E050E0092E01C0440F0A94EAF79C
:1008F000CD2FC42BC083DC1711F041E041839F5FF3
:1009000041E050E001C0440F9A95EAF740954C232E
:100910004083C41711F091E09183863008F045C000
:10092000F901E755FE4F862F819580833EC0C08137
:1009300041E050E0092E01C0440F0A94EAF74095C7
:100940004C23408361157105C1F0C41711F051E0CB
:1009500051839F5FC1E0D0E001C0CC0F9A95EAF7C8
:10096000C42BC0834C1711F091E091838630E8F4DA
:10097000F901E755FE4F608318C0C41711F051E02C
:1009800051839F5FC1E0D0E001C0CC0F9A95EAF798
:10099000C095C423C0834C1711F091E09183863039
:1009A00020F4F901E755FE4F1082A856BE4F6D9313
:1009B0007C9381E08093B601DF91CF9108950F93EE
:1009C0001F93CF93DF931F92CDB7DEB78C01FC014D
:1009D000848169830E94D513F80184856981862BFF
:1009E000F0E080FBF2F981FBF1F982FBF0F984FB86
:1009F000F7F985FBF6F986FBF5F987FBF4F98F2FFC
:100A00000E94AB130F90DF91CF911F910F910C9427
:100A100038130F931F93CF938C01C62F0E94DF04CE
:100A20006C2F6460C8010E94DF046C2F6B7FC801CB
:100A30000E94DF0482EC90E00197F1F7CF911F91C3
:100A40000F910895FF920F931F93CF93DF931F92FF
:100A5000CDB7DEB78C01F62E962F907F692F642BD1
:100A6000C80149830E94090580E1F89EB001112464
:100A70004981642BC8010F90DF91CF911F910F9195
:100A8000FF900C94090541E00E94220581E090E06E
:100A90000895843108F044C094EF980F943000F525
:100AA00044B32FE0281B30E02C5F3F4F81E090E003
:100AB000022E01C0880F0A94EAF7582F5095352F5F
:100AC000342334BB95B3892B85BB83B390E002C03C
:100AD000959587952A95E2F795B3952395BB3EC0EA
:100AE00041B38051282F30E02C5F3F4F81E090E0F0
:100AF000022E01C0880F0A94EAF7582F5095352F1F
:100B0000342331BB92B3892B82BB80B390E002C007
:100B1000959587952A95E2F792B3952392BB1EC0CF
:100B20008C31F0F43AB32CEE280F81E090E0022EE5
:100B300001C0880F0A94EAF7482F409534233ABB46
:100B40009BB3892B8BBB99B3892F90E002C09595FD
:100B500087952A95E2F79BB394239BBB81700895F8
:100B600080E008956F927F928F929F92BF92CF9272
:100B7000DF92EF92FF920F931F93CF93DF9300D0FA
:100B8000CDB7DEB78091F5039091F603A091F703FE
:100B9000B091F8038091F5039091F603A091F703CB
:100BA000B091F803409194015091950160919601A4
:100BB00070919701841B950BA60BB70B4597A10568
:100BC000B10508F0F5C08091F5039091F603A0916E
:100BD000F703B091F8034091900150919101609119
:100BE000920170919301841B950BA60BB70B45974F
:100BF000A105B10508F472C080910A04811126C1D3
:100C000029EEC22E23E0D22EEE24EA94FE2C0E947E
:100C100093088C01009709F4E3C085352AEA92070E
:100C200009F0E5C085E5E8168AEAF80609F0FBC098
:100C300010920C0410920B0410920E0410920D04EA
:100C40008CE0B82EEE24E394F12C80910D04909169
:100C50000E048238910508F07AC10E9493088C0135
:100C600080910D0490910E040535EAEA1E0709F003
:100C7000F0C021E020930A0410920C0410920B049F
:100C800090936D0180936C0118161906BCF4E091E5
:100C90000704F091080420E030E040815181452BA9
:100CA00009F058C182819381909369018093680112
:100CB0008481958190936B0180936A018091F50303
:100CC0009091F603A091F703B091F80380939001FF
:100CD00090939101A0939201B09393018091F503B9
:100CE0009091F603A091F703B091F80340918C0125
:100CF00050918D0160918E0170918F01841B950B35
:100D0000A60BB70B0397A105B105D0F18091110493
:100D1000882309F43EC184E30E94D513198261E05F
:100D200070E0CE0101960E94150B0E9438138823B3
:100D300009F418C182E591E00E94C90889E491E0B4
:100D40000E94C90882E491E00E94C9088FE391E003
:100D50000E94C90890E080E090936601809367014B
:100D60008091F5039091F603A091F703B091F803F9
:100D700080938C0190938D01A0938E01B0938F018D
:100D80008091F5039091F603A091F703B091F803D9
:100D90000F900F90DF91CF911F910F91FF90EF90E7
:100DA000DF90CF90BF909F908F907F906F9008952D
:100DB0000E94D80890E090936F0180936E0180911B
:100DC000F5039091F603A091F703B091F803809397
:100DD000940190939501A0939601B0939701F3CE5F
:100DE000EF2809F582E290E00197F1F7B0C086356F
:100DF000EAEA9E0761F4F5E5EF16FAEAFF0699F4D0
:100E000081E090E090930C0480930B0415CF8A3A14
:100E1000954549F48091090461E070E090E00E94FA
:100E200089080E94140881E0C81AD108780109F0E5
:100E3000EECE87E391E00E94C90885E291E00E942E
:100E4000C90882E291E00E94C90881C010920A0498
:100E5000F3CE0635FAEA1F0751F421E020930A0485
:100E600021E030E030930C0420930B0409CF0115EE
:100E7000110509F405CF20910F04309110042817B3
:100E80003907A8F4225E3F4F3093100420930F04DB
:100E9000B29EB001B39E700D112480910704909111
:100EA00008040E94981D90930804809307042091E1
:100EB0000D0430910E04B29EC001B39E900D11241A
:100EC000C0900704D0900804C80ED91E3601812CAA
:100ED000912C20E080910B0490910C04892B31F42B
:100EE000253021F4F601138612860DC02A830E9454
:100EF0009308880E991EF301819391933F012A81F3
:100F00002F5F263039F70815190549F480910D0433
:100F100090910E04019690930E0480930D040E940C
:100F200093088535FAEA9F0729F410920C04109271
:100F30000B048BCE86359A4A29F4F0920C04E09289
:100F40000B0483CE80910D0490910E0499CE80E025
:100F500090E096CE2F5F3F4F3C962817390709F057
:100F60009CCEACCE62E084E30E9428081092F2028C
:100F70008093F1020E9414088C010E94140820E062
:100F800030E0382F020F131F0E943813902F812F4B
:100F9000E3CE90E0E1CECF93DF93EA01FC01208124
:100FA000318124303105D1F057E0529FF001539F39
:100FB000F00D1124E80FF91F738362832F5F3F4FF9
:100FC000529FD001539FB00D1124A80FB91FCD938C
:100FD000DC9341E04483FC0131832083DF91CF9196
:100FE000089585ED86BF81E090E0DC0106B604FE41
:100FF00005C00197A109B109C9F702C01092E40226
:10100000089540E061E08AEF93E00E9422058AE3C0
:101010009FE10197F1F780910304882321F060E0BC
:1010200080E00C94DF1308959091F2028091F10218
:10103000981750F4E92FF0E0E954FE4F208130E09A
:101040009F5F9093F20202C02FEF3FEFC901089516
:101050000F931F93613210F080E058C001E010E060
:1010600098019091E402992331F00150110921096E
:101070003109B9F7F1CF91E09093E4029093E30244
:101080002FEF2093E2021092E102260F2093E0025C
:101090009093BF029091BF02880F892B8093BF026B
:1010A0008091BE02813089F41092BE0281E090E00E
:1010B000DC012091BF0223B90197A109B10961F2B6
:1010C00006B603FCF6CF85EC01C085EE86BF81E055
:1010D00090E0DC012091E402213029F40197A1097C
:1010E000B109C1F7B9CF8091E102861710F4609180
:1010F000E102A0ECB2E027EB31E0F9018E2F821B78
:10110000861718F48D918193F9CF862F1F910F9137
:101110000895613208F060E20E9428081092F202FD
:101120008093F1020895CF938091090462E070E00A
:1011300090E00E9489080E941408C82F0E94140899
:1011400020E030E0382FC9018C2BCF910895CF9348
:10115000DF93C9E3D4E060E070E0CE010E949F031A
:10116000299684E0CD35D807B1F7DF91CF91089566
:101170009091EE029F5F9F712091ED029217E1F333
:10118000E92FF0E0E75BFD4F80839093EE02559AE4
:101190000895CF93DF93FC018491EF01219688237A
:1011A00021F00E94B808FE01F7CFDF91CF9108959A
:1011B0000F931F93CF9380E60E94D51381E00E9486
:1011C000AB130E943813C82F882391F08EEB91E067
:1011D0000E94C90885EB91E00E94C9088EEA91E05F
:1011E0000E94C9088BEA91E00E94C908C0E046C08D
:1011F00061E070E080E690E00E9489080091F503CC
:101200001091F6032091F7033091F8038091F102D9
:1012100090E04091F202841B91091816190614F10E
:101220004091F5035091F6036091F7037091F80334
:10123000401B510B620B730B45365105610571055F
:1012400060F38EEB91E00E94C90885EB91E00E946B
:10125000C90883EA91E00E94C9088BEA91E00E94E4
:10126000C9080CC00E94140890911404992329F015
:1012700090911204890F8F3F09F0C82F8C2FCF91C6
:101280001F910F9108951F920F920FB60F92112484
:101290008F939F93EF93FF939091EE028091ED02D5
:1012A000981761F0E091ED02EF5FEF71E093ED02CE
:1012B000F0E0E75BFD4F80818CB901C05598FF914C
:1012C000EF919F918F910F900FBE0F901F901895E7
:1012D0001F920F920FB60F9211242F933F934F93AB
:1012E0005F936F937F938F939F93AF93BF93CF93AE
:1012F000DF93EF93FF93CBB1DCB1D03369F48091EE
:10130000260290912702892BA9F481E090E0909326
:1013100027028093260212C0D03261F48091260207
:1013200090912702019731F4F8941AB8E0E0FFE3B6
:10133000099504C010922702109226028C2F887102
:10134000E091EC02EF5FEF719091EB02E91739F059
:10135000E093EC02F0E0E75DFD4FD08301C082E056
:1013600090912802892B80932802FF91EF91DF91C1
:10137000CF91BF91AF919F918F917F916F915F912D
:101380004F913F912F910F900FBE0F901F90189586
:101390001F920F920FB60F9211242F933F934F93EA
:1013A0005F936F937F938F939F93AF93BF93EF93CD
:1013B000FF9381B1887F803609F499C068F588323F
:1013C00009F45BC090F4803109F454C038F48823E8
:1013D00009F4EEC0883009F44DC0EEC0883109F43C
:1013E0004CC0803209F45CC0E7C0803409F466C0A8
:1013F00048F4803309F454C0883309F0DDC0809389
:10140000E202D1C0803509F44EC0883509F45BC0D2
:10141000883409F0D1C0CEC0883909F4C1C0A8F41D
:10142000883709F464C038F4883609F460C080371E
:1014300009F45DC0C1C0883809F4B2C0803909F42C
:101440005CC0803809F0B8C058C0803B09F481C046
:1014500038F4803A09F462C0883A09F47AC0ACC022
:10146000803C09F4A0C0883C09F49DC0883B09F485
:1014700085C0A2C08091BF0210C09091E10280910E
:10148000E002981758F5E091E10281E08E0F809319
:10149000E102F0E0E054FD4F808183B985EC81C02A
:1014A0008093E20287C0E091E10281E08E0F809399
:1014B000E10283B1F0E0E054FD4F80839091E102BE
:1014C0008091E0026AC0E091E10281E08E0F80939A
:1014D000E10283B1F0E0E054FD4F80838091E302AC
:1014E000811168C081E08093BE0284EA5DC083E020
:1014F0008093E40210922502D1CF809125028032A0
:1015000008F04EC0E091250281E08E0F8093250205
:1015100083B1F0E0EB5FFD4F8083C0CF85EC86BFE9
:101520001092E40280912502803230F4E09125028D
:10153000F0E0EB5FFD4F10826091250270E0E091DA
:101540000302F091040285E092E0099510922502D1
:1015500033C084E08093E4021092020210920102F0
:10156000E091FF01F0910002099580910102811143
:1015700005C081E0809301021092DF01E091020238
:1015800081E08E0F80930202F0E0E152FE4F8081F5
:1015900083B99091020280910102981708F47ECFDE
:1015A00085E886BF09C085EC86BF1092E40204C0BE
:1015B0001092E2020E94F107FF91EF91BF91AF916B
:1015C0009F918F917F916F915F914F913F912F915B
:1015D0000F900FBE0F901F90189540910102262F7B
:1015E00030E0240F311D21323105DCF42091E4027A
:1015F0002430C9F4FC0180E090E0861758F4309163
:1016000001022191DC01A152BE4FA30FB11D2C9309
:101610000196F3CF80910102680F6093010280E090
:10162000089581E0089582E00895EF92FF920F936C
:101630001F93CF93DF938B012091E502222359F072
:10164000EC017C01E60EF71ECE15DF0531F0899125
:101650000E94AB13F9CF0E94ED0AC801DF91CF9130
:101660001F910F91FF90EF90089586B78A7B86BFF8
:10167000A898A99808951092E40281E08093E3026B
:101680001092BE02A89AA99A0898099888E480B98D
:1016900085E486BF0895CF93DF931F92CDB7DEB761
:1016A0000E94350B84B38C7F84BB85B3836085BB7C
:1016B000989902C081E045C0999BFCCFA898A09A58
:1016C00080E0989B04C08A3FA9F38F5FFACF8A3FDE
:1016D00089F38B3060F4A19AA99890E023B3822F0C
:1016E000827021FF06C09A3F29F39F5FF7CF84E005
:1016F00028C09A3FF9F29B3048F4A198A99A90E04B
:10170000999906C09A3FB1F29F5FFACF82E019C063
:101710009A3F81F29B3048F4A098A89A90E098995B
:1017200006C09A3F39F29F5FFACF83E00AC09A3F22
:1017300009F29B3028F489830E943B0B898101C008
:1017400085E00F90DF91CF910895CF92DF92EF92D5
:10175000FF920F931F930091F5031091F6032091D0
:10176000F7033091F803C090F503D090F603E090B2
:10177000F703F090F803C01AD10AE20AF30AC6167A
:10178000D706E806F90678F31F910F91FF90EF90C6
:10179000DF90CF9008951F920F920FB60F921124F1
:1017A0002F933F934F935F936F937F938F939F9369
:1017B000AF93BF93CF93DF93EF93FF938091F503A4
:1017C0009091F603A091F703B091F8030196A11D43
:1017D000B11D8093F5039093F603A093F703B093A4
:1017E000F8038091DE018A3009F076C08091DD0136
:1017F000811170C081E08093DD01789480E00E94C7
:10180000430481E00E94430482E00E94430483E099
:101810000E9443048091B601882309F458C0809146
:10182000B5018111FCCF25E030E040E0842F90E04D
:1018300082179307D4F4BC0161557E4FDB015C91A4
:10184000FC01E055FE4F8081C52FD0E0C755DE4F2B
:10185000A82FB0E0A755BE4FC8819C919C1718F4E3
:10186000DB018C9350834F5FE1CF21503109E9F6C2
:101870000E94F2018091B5018111FCCF81E080933B
:10188000B501C091F303D091F40389818823E9F075
:101890008091E502811119C08A810E94D51361E00F
:1018A00070E0CE010E94150B0E943813882361F06E
:1018B0008BE991E00E94C9088DE791E00E94C90878
:1018C0008AE791E00E94C90819821092B601F89443
:1018D0001092DD011092DE018091DE018F5F809316
:1018E000DE01789480B393B392959F70807F892BAB
:1018F0009091DC01E92FF0E0ED50FD4F80839F5F78
:101900009093DC01F894FF91EF91DF91CF91BF911B
:10191000AF919F918F917F916F915F914F913F9187
:101920002F910F900FBE0F901F9018951F920F923E
:101930000FB60F9211242F933F934F938F939F9342
:10194000EF93FF934091DB01E091D701F091D80133
:101950008091DA014423A9F090E081509F4F9BBD14
:101960008ABD3091D901208181E090E002C0880FCA
:10197000991F3A95E2F78095909530E08223932362
:1019800010C02DEE32E1281B31093BBD2ABD30913C
:10199000D901208181E090E001C0880F3A95EAF7F3
:1019A000822B808381E084278093DB01FF91EF917C
:1019B0009F918F914F913F912F910F900FBE0F905C
:1019C0001F901895CF93F894EFEAF1E01082C1E0F0
:1019D000C18382E0828383E0838384E0848385E023
:1019E00085830E94F2010E944B0287B38F6087BB00
:1019F00081B38C6081BB85B58B6085BD89B78068FC
:101A000089BF8FEF83BD7894C093F203CF9108957F
:101A10008F3F2FEF9207F9F06F3FEFEF7E07D9F07E
:101A20009C01261B370BA90137FF04C0442755270B
:101A3000421B530BFB01E81BF90BCF01893FFFEF62
:101A40009F0714F0089602C0C90108974817590764
:101A500024F4CA01089580E090E00895EF92FF9287
:101A60000F931F93CF93DF937C01EB0109E612E004
:101A700066277727681B790B6C1B7D0B072E000CE4
:101A8000880B990B0E941B1AF80160837183828373
:101A90009383B7016C1B7D0B072E000C880B990BF1
:101AA0000E941B1AF8016483758386839783B701AC
:101AB0006C0F7D1F072E000C880B990B0E941B1AC0
:101AC000F8016087718782879387BE016E197F094D
:101AD000072E000C880B990B0E941B1AF8016487D3
:101AE000758786879787DF91CF911F910F91FF9020
:101AF000EF90089583E10E944905882309F49BC073
:101B00000E94B2050E94010860E080E00E94DF139D
:101B100060E070E08AEF93E00E942E1360E084E0C2
:101B20000E94DF1360E070E08AEF93E00E942E13C2
:101B300060E088E00E94DF1360E070E08AEF93E0ED
:101B40000E942E1360E08CE00E94DF1360E070E0E2
:101B50008AEF93E00E942E1361E080E00E94DF1381
:101B600060916E0170916F018AEF93E00E942E13D5
:101B700061E084E00E94DF1360916C0170916D015F
:101B80008AEF93E00E942E1380916C0190916D0179
:101B900018161906C4F461E088E00E94DF13609112
:101BA0006801709169018AEF93E00E942E1361E051
:101BB0008CE00E94DF1360916A0170916B018AEFE3
:101BC00093E00E942E1362E080E00E94DF134091B8
:101BD00066015091670160E070E022E08AEF93E0D7
:101BE0000E942B0363E080E00E94DF1360E070E05E
:101BF0008AEF93E00E942E1363E084E00E94DF13DB
:101C000060E070E08AEF93E00E942E1363E088E0CA
:101C10000E94DF1360E070E08AEF93E00E942E13D1
:101C200063E08CE00E94DF1360E070E08AEF93E0F5
:101C30000E942E135FCF0895DF92EF92FF920F93D1
:101C40001F93CF93DF931F92CDB7DEB783E10E943E
:101C50004905882309F45EC00E94B2050E9401086C
:101C6000E12CF12C00E010E0B801759567957595B1
:101C700067958E2D8F700E94DF1380911104882349
:101C800081F184E30E94D51382E0800F898361E0B3
:101C900070E0CE0101960E94150B0E943813882334
:101CA00089F082E591E00E94C90889E491E00E94F0
:101CB000C90882E491E00E94C9088FE391E00E9484
:101CC000C9080FC061E084E30E9428081092F20264
:101CD0008093F1020E941408D82E0E9438134D2DD3
:101CE00001C040E050E060E070E02AE08AEF93E05D
:101CF0000E942B030F5F1F4F84E0E80EF11C0031A0
:101D0000110509F0B1CF68EE73E080E090E00E9429
:101D1000A50B9CCF0F90DF91CF911F910F91FF905A
:101D2000EF90DF9008952F923F924F925F926F92C3
:101D30007F928F929F92AF92BF92CF92DF92EF925B
:101D4000FF920F931F93CF93DF9320906601309003
:101D5000670189E9A82E82E0B82E09E712E0C0E009
:101D6000D0E0C12CD12C7601260137018824839440
:101D7000912CC4010C2E02C0880F991F0A94E2F71F
:101D800082219321892B11F1F50160817181072E48
:101D9000000C880B990B0E941B1A9B01AC01C3011C
:101DA000B2010E9489182B013C01F8016081718108
:101DB000072E000C880B990B0E941B1A9B01AC018B
:101DC000C701B6010E9489186B017C012196F2E0DF
:101DD000AF0EB11C0E5F1F4FC031D10551F6A301EC
:101DE0009201C301B2010E94911B4B015C01A7014A
:101DF0009601C701B6010E94911B9B01AC01C50170
:101E0000B4010E9489180E940C1C4B015C01C301A3
:101E1000B2019058F7FAF094F7F8F094A501940104
:101E20000E9471192B013C01A5019401C701B60163
:101E30000E947119A30192010E94081920E030E06C
:101E400044E353E40E94911B26E53EE049E450E45C
:101E50000E9471190E94E3196E537E4F20916E010A
:101E600030916F01620F731FCB01845B910968E6AB
:101E700071E00E943818DF91CF911F910F91FF9070
:101E8000EF90DF90CF90BF90AF909F908F907F901A
:101E90006F905F904F903F902F9008954F925F9278
:101EA0006F927F92AF92BF92CF92DF92EF92FF92AA
:101EB0000F931F93CF93DF937C01C9E6D2E06E01AD
:101EC000A12CB12C00E010E0F601419051906190FE
:101ED00071906F01A3019201B501C8010E946719B9
:101EE00087FF02C052018301F9E7CF16F2E0DF0657
:101EF00059F7B701FF0C880B990B0E941B1A6B0155
:101F00007C019501A8010E94671987FD51C095B316
:101F1000A298AA9A83B395BBA29A82FD62C08091CF
:101F2000690290916A02A0916B02B0916C02BC01AF
:101F3000CD0190580E94E31989E394E00E949F0329
:101F400060916D0270916E0280916F0290917002AB
:101F50000E94E31982E494E00E949F036091710261
:101F60007091720280917302909174020E94E31941
:101F70008BE494E00E949F03609175027091760259
:101F800080917702909178020E94E31984E594E0B1
:101F9000DF91CF911F910F91FF90EF90DF90CF9045
:101FA000BF90AF907F906F905F904F900C949F0385
:101FB0009501A801C701B6010E9471196B017C014E
:101FC000A7019601688179818A819B810E94911B7A
:101FD000699379938993999382E0C937D80781F7F8
:101FE00096CFDF91CF911F910F91FF90EF90DF90EF
:101FF000CF90BF90AF907F906F905F904F9008957B
:102000008F929F92AF92BF92CF92DF92EF92FF9208
:102010000F931F93CF93DF938091BD02882379F0B4
:1020200060916601709167016115710509F4ABC09B
:1020300020E030E080E090E0E1E0F0E05CC081E0B2
:102040008093BD0210929A021092990210927A0225
:10205000109279028BE9A82E82E0B82E0BE712E0ED
:10206000C1E0D0E0BE010D2E000C880B990B0E9440
:102070001B1A20E030E044EB51E40E94911B20E069
:1020800030E044E351E40E94891826E53EE049E44B
:1020900050E40E94911B20E030E044E353E40E94AE
:1020A00071196B017C010E94FE1B20E030E048ECBE
:1020B00052E40E94911B0E94E319F5016193719310
:1020C0005F01C701B6010E946C1920E030E048ECC6
:1020D00052E40E94911B0E94E319F80161937193ED
:1020E0008F012196C031D10509F0BCCF99CF01965F
:1020F0008031910571F0AF01082E02C0440F551FC9
:102100000A94E2F746235723452B89F32F5F3F4F6D
:10211000EECF27303105D4F00E94930E8D96BC018E
:10212000990F880B990B0E941B1A20E030E044EBBA
:1021300052E40E9471190E94561A9B01AC010E9440
:10214000891820E030E040E85FE317C00E94930E5A
:10215000BC01990F880B990B0E941B1A20E030E0FC
:1021600044EB52E40E9471190E94561A9B01AC0183
:102170000E94891820E030E0A9010E9489180E947D
:10218000E319EB0102C0CFEFDFEF8091F5039091EF
:10219000F603A091F703B091F8034091B902509172
:1021A000BA026091BB027091BC02841B950BA60B16
:1021B000B70B853F9140A105B10508F487C0809118
:1021C000F5039091F603A091F703B091F803809383
:1021D000B9029093BA02A093BB02B093BC020E94D2
:1021E00001086BE171E08AEF93E00E949D0361E0DA
:1021F00080E00E94DF1362E271E08AEF93E00E94C8
:102200009D0362E080E00E94DF1367E271E08AEFE5
:1022100093E00E949D0363E080E00E94DF136DE283
:1022200071E08AEF93E00E949D0360E087E00E94E6
:10223000DF1380916A0090916B0083309105A9F0C3
:1022400044F48130910571F00297D9F46AE371E0AA
:1022500014C08530910579F05CF0069791F46BE538
:1022600071E00BC063E371E008C062E471E005C097
:102270006AE471E002C063E571E08AEF93E00E94D6
:102280009D0361E087E00E94DF13BE018AEF93E0C7
:102290000E942E1362E087E00E94DF1360916800C5
:1022A000709169008AEF93E00E942E1363E087E04B
:1022B0000E94DF13BE0180916800909169000E9426
:1022C000080DBC018AEF93E00E942E13CE01897F96
:1022D000019709F4C5C020916A0030916B0023304A
:1022E000310531F13CF42130310591F022303105D6
:1022F000C9F066C080916800909169002530310571
:1023000009F447C06CF12630310509F44EC058C0BD
:10231000CF3F8FEFD80709F4AEC0D0936900C093C8
:10232000680003C0219609F44BC083E090E044C0EC
:10233000CF3FFFEFDF0719F481E090E03DC0BE0121
:1023400080916800909169000E94080D8430910589
:1023500099F10297A9F5D0936900C093680030C045
:10236000CF3F2FEFD20719F482E090E025C0BE01E5
:102370000E94080D0097C9F2029711F5CE0104964C
:1023800068E070E00E9438189093690080936800BC
:1023900017C0CF3FEFEFDE0779F2BE010E94080DB4
:1023A000039774F086E090E007C0BE010E94080D1C
:1023B000039734F485E090E090936B0080936A007B
:1023C00080916800909169004DE2489F9001499F7B
:1023D000300D112480916E0190916F01820F931F37
:1023E00068E671E00E943818BC01990F880B990BC0
:1023F0000E941B1A20E030E044E353E40E94911B4A
:1024000026E53EE049E450E40E9471196B017C012D
:102410000E946C194B015C01C701B6010E94FE1BB2
:1024200020E030E048EC52E40E94911B0E94E31946
:102430006B017C0120E030E048EC52E4C501B401BE
:102440000E94911B0E94E319DC01CB01B6010E949E
:102450002E0D84E690E00E944E0F20E030E00BC08D
:10246000D0936900C093680085E090E090936B0082
:1024700080936A0030CFC901DF91CF911F910F91F6
:10248000FF90EF90DF90CF90BF90AF909F908F9094
:1024900008958091680190916901803A91053CF11D
:1024A00080E090E0A8ECB2EC8093690290936A021D
:1024B000A0936B02B0936C0280936D0290936E02B6
:1024C000A0936F02B0937002809371029093720296
:1024D000A0937302B0937402809375029093760276
:1024E000A0937702B09378028CE99FEF26C080E03A
:1024F00090E0A8ECB2E48093690290936A02A09302
:102500006B02B0936C0280936D0290936E02A09365
:102510006F02B09370028093710290937202A09345
:102520007302B09374028093750290937602A09325
:102530007702B093780284E690E00C944E0FCF932C
:10254000DF93C0916401D091650183E10E94490548
:10255000882351F00E94B205209719F00E94A70825
:10256000F4CF0E944912F1CFDF91CF910C94A708CC
:102570008F929F92AF92BF92CF92DF92EF92FF9293
:10258000CF93DF9360916E0170916F016058710974
:10259000072E000C880B990B0E941B1A6B017C0103
:1025A000E8E6F1E062817381665971098081918169
:1025B000805A91090E942E0DC9E6D2E0A70196012A
:1025C000688179818A819B810E94881868837983D8
:1025D0008A839B8320E030E040E450E4C701B601E9
:1025E0000E94911B0E94E319072E000C880B990B87
:1025F0000E941B1A4B015C019B01AC016C817D8127
:102600008E819F810E9489186C837D838E839F8336
:10261000A5019401688579858A859B850E94891822
:10262000688779878A879B87A70196016C857D8556
:102630008E859F850E9488186C877D878E879F87EF
:1026400084E690E0DF91CF91FF90EF90DF90CF9004
:10265000BF90AF909F908F900C944E0FAB01770F6F
:10266000660B770B77FD0C9474032AE00C942B0314
:102670002091EF0290918304213208F054C041E090
:1026800050E0BA018091E402882331F041505109B1
:1026900061097109B9F745C032E03093E40231E0D5
:1026A0003093E3023FEF3093E2021092E102209375
:1026B000E002A3E6B4E040EC52E0FA013E2F341B06
:1026C000321718F43D913193F9CF1092BF02209147
:1026D000BF02990F922B9093BF029091BE0291304E
:1026E00091F41092BE0241E050E0BA019091BF0215
:1026F00093B9415051096109710901F106B603FC12
:10270000F5CF95EC01C095EE96BF41E050E0BA01DF
:102710009091E402923049F44150510961097109E4
:10272000B9F784E00BC081E009C09091E2029F3FBD
:1027300029F08091E202803241F482E01092F002AE
:102740001092EF021092E50208958091E202803328
:1027500041F783E0F3CFCF93DF931F92CDB7DEB77E
:1027600089838091E502882391F08091EF02803285
:10277000B0F48091F002E82FF0E0ED59FB4F998121
:1027800090838F5F8093F0028093EF0205C061E039
:10279000CE0101960E94ED0A81E090E002C080E047
:1027A00090E00F90DF91CF91089591E09093E50232
:1027B000809383041092F0021092EF020895CF9359
:1027C000DF93CDB7DEB728970FB6F894DEBF0FBE04
:1027D000CDBF28E0E3E7F0E0DE01119601900D9215
:1027E0002A95E1F720910204261710F46FEF620F8B
:1027F000FE013196E60FF11DE60FF11D9081682F65
:10280000690F606840E08AEF93E028960FB6F8946D
:10281000DEBF0FBECDBFDF91CF910C942205CF93C9
:10282000DF93CDB7DEB7CD55D1090FB6F894DEBF33
:102830000FBECDBF83E091E00E94C90801E010E027
:10284000802F6E960FAF6E970E94D5130E9438139B
:10285000811132C08FEF90E00E94C908B80186EE66
:1028600092E00E942E136E962FAD6E9704331105E1
:1028700019F485EF90E01EC0203619F48AEE90E03E
:1028800019C0243519F482EE90E014C080E9820F5B
:10289000803118F483ED90E00DC0293219F48AECF0
:1028A00090E008C028532C3218F48AEB90E002C064
:1028B0008FEA90E00E94C9080F5F1F4F0F37110584
:1028C00009F0BECF80EA90E00E94C9088091FF0322
:1028D00088608093FF0394E0F92EF092020462E393
:1028E00070E080E090E00E94A50B609106048AEF02
:1028F00093E00E94DF0468EE73E080E090E00E94C5
:10290000A50B60E38AEF93E00E9409050AE416E450
:10291000C8010197F1F760E38AEF93E00E9409058F
:10292000C8010197F1F760E38AEF93E00E9409057F
:1029300082E592E00197F1F760E28AEF93E00E946E
:1029400009056091FF03606240E08AEF93E00E9416
:102950002205F092000440E06CE08AEF93E00E94D0
:1029600022050E94010882E08093010440E066E0B5
:102970008AEF93E00E94220540E062E08AEF93E054
:102980000E9422058AE39FE10197F1F7609100041C
:10299000862F816080930004696040E08AEF93E0B5
:1029A0000E94220569E970E08AEF93E00E949D038E
:1029B00060E085E194E00E94E40262E08EE194E050
:1029C0000E94E4026AE087E294E00E94E4026EE082
:1029D00080E394E00E94E4020E9401086AEA70E049
:1029E0008AEF93E00E949D03109213041092120448
:1029F000109214041BE0209112043091130421154D
:102A0000310501F50E94D80890E09093130480935B
:102A100012046AE070E080E090E00E94A50B115083
:102A200051F78EEB91E00E94C90885EB91E00E947E
:102A3000C90884E191E00E94C9088BEA91E00E94F4
:102A4000C9080BC080E890E0821B930B909313049D
:102A50008093120481E0809314040E94010867EBC4
:102A600070E08AEF93E00E949D036C961FAE6C9716
:102A70006D961FAE6D9784E30E94D51362E070E0FF
:102A8000CE01855A9F4F0E94150B0E943813882350
:102A900089F082E591E00E94C90889E491E00E94F2
:102AA000C90882E491E00E94C9088FE391E00E9486
:102AB000C90803C081E08093110480911104882328
:102AC00079F081E089838AE58A8384E30E94D513C3
:102AD00062E070E0CE0101960E94150B0E9438134F
:102AE0000E94010862EC70E08AEF93E00E949D036F
:102AF0001092F2021092F1021092F0021092EF0284
:102B00000E943B0B0E9401081EAE1DAE7E018DE3AC
:102B1000E80EF11C4CE15EE06CEC70E0C7010E9435
:102B2000CB074AE75DE062ED70E0C7010E94CB078A
:102B300018A21F8E8E01015E1F4F4AE551E066ED1F
:102B400070E0C8010E94CB074FE952E16CED70E0E4
:102B5000C8010E94CB074EE451E067EE70E0C80167
:102B60000E94CB0740E451E064EF70E0C8010E948E
:102B7000CB078FEF90E09C838B83FF82EE8282E015
:102B80008D8328E031E03B872A871E870D878C875D
:102B900082E090E09A8389834AE651E06DE071E03B
:102BA000CE0101960E94CB0787E0B82EFE01319638
:102BB0007F010E940108670100E010E0F7018081B9
:102BC000918108171907B4F4602F80E00E94DF1389
:102BD000F601628173818AEF93E00E949D030F5F8B
:102BE0001F4FF7E0CF0ED11CE9CF83E10E944905CA
:102BF000811106C082E10E9449058823D9F3F5CFEF
:102C000081E10E9449058823A9F364E670E080E031
:102C100090E00E94A50B00E010E0602F8FE00E9482
:102C2000DF1382E10E944905811103C00F5F1F4F2E
:102C300043C081E10E944905811107C0F7018081ED
:102C400091810197080F191F37C083E10E94490540
:102C5000811132C0B09E6001B19ED00C1124CE0C07
:102C6000DF1CF6018481813019F50E940108F6010C
:102C7000628173818AEF93E00E949D0383E10E9449
:102C800049058823D9F364EF71E080E090E00E9469
:102C9000A50B0F5F1F4FB09EC001B19E900D112478
:102CA000F701E80FF91F0190F081E02D09957ECF23
:102CB000F601E580F6807DCFF70160817181C80162
:102CC0000E9438188C0182E10E9449058823D9F3BB
:102CD00083E10E9449058823B1F381E10E944905FF
:102CE000882389F364E670E080E090E00E94A50B01
:102CF00082E10E944905882351F083E10E94490541
:102D0000882329F081E10E9449058111F1CF64E611
:102D100070E080E090E00E94A50B7FCF80910704D7
:102D2000909108040C94001D7F928F929F92AF9215
:102D3000BF92CF92DF92EF92FF920F931F93CF93A8
:102D4000DF931092E9021092E8028FE790E09093EF
:102D5000E7028093E6021092EA0210923904109280
:102D60003B0410923A0410924204109244041092D0
:102D7000430410924B0410924D0410924C04109294
:102D80005404109256041092550410925D0481E090
:102D900080935E0410925F0410926004809361043B
:102DA0001092620478941092EE021092ED0210924A
:102DB000EC021092EB0210BC88E089B988E98AB96C
:102DC00086E880BD84B38C6084BB85B38C6085BB92
:102DD0008AB3807F8ABB8AB38F708ABB87B38F70B8
:102DE00087BB0E944B0B882309F457C00E94350B08
:102DF000F894A198A99A8AE891E00197F1F724E65E
:102E00008AE891E0A098A89AFC013197F1F7A89878
:102E1000A09AFC013197F1F7999B1DC0A998A19A3E
:102E2000FC013197F1F7A098A89AFC013197F1F7CE
:102E3000A198A99AFC013197F1F7A898A09AFC01F2
:102E40003197F1F7999B07C0A098A89A8AE891E07A
:102E50000197F1F702C02150A9F68AE99FE0019796
:102E6000F1F70E943B0B78940E944B0B823038F0B4
:102E70008FE192E00E94C90887E192E008C08130AA
:102E800061F48FE192E00E94C9088AE092E00E941A
:102E9000C90884E192E00E94C9081092F2021092DF
:102EA000F1021092F0021092EF020E943B0B80910F
:102EB000F203811102C00E94E20C81B38F7081BBCA
:102EC00084B38F7084BB82B3806F82BB85B3806F05
:102ED00085BB80E090E0FC01ED50FD4F1082019633
:102EE0008F3F9105C1F78FE380935F0488E3809360
:102EF0006204C9E3D4E08DE3E82E84E0F82E10E00C
:102F000090E6C92E94E0D92E28E2722E09EF3FE414
:102F1000832E3BE0932E3DE5A32E3FE3B32E80911D
:102F20006C00882361F0D092F403C092F303809187
:102F3000F203811102C00E94E20C10926C00DA824E
:102F4000C9821883F70131977082F70100838D825F
:102F50009E82AF82B8861F5F2996F9E0EF0EF11CC2
:102F60001430E9F683B78B6083BF89B7826089BF6D
:102F70008AEF8CBF1092F5031092F6031092F703BC
:102F80001092F803789488E30E94D5130E943813B6
:102F9000882339F08FE192E00E94C90888EE91E021
:102FA0000DC08FE30E94D5130E943813882361F06F
:102FB0008FE192E00E94C90886EC91E00E94C90866
:102FC00084E192E00E94C908E5E1F4E010821482F5
:102FD0001382168215821086178212821182399608
:102FE00084E0E933F80791F7109213041092120469
:102FF000109214041092110410920A0410920E04FC
:1030000010920D048EE190E09093100480930F04D1
:1030100088E691E00E946B1C90930804809307045B
:1030200084E5809309041092FD031092FC038BE861
:1030300090E09093FB038093FA03109203048FE3D4
:103040008093FE0380E18093040484E08093050470
:1030500010920604DF91CF911F910F91FF90EF9096
:10306000DF90CF90BF90AF909F908F907F9008950A
:1030700097FB072E16F4009407D077FD09D00E9425
:103080006E1807FC05D03EF4909581959F4F0895EA
:10309000709561957F4F0895A1E21A2EAA1BBB1B64
:1030A000FD010DC0AA1FBB1FEE1FFF1FA217B30714
:1030B000E407F50720F0A21BB30BE40BF50B661F2A
:1030C000771F881F991F1A9469F7609570958095EE
:1030D00090959B01AC01BD01CF010895AA1BBB1BBC
:1030E00051E107C0AA1FBB1FA617B70710F0A61B08
:1030F000B70B881F991F5A95A9F780959095BC0129
:10310000CD010895EE0FFF1F0590F491E02D099475
:103110005058BB27AA270E94A0180C94231B0E947A
:10312000EA1A38F00E94F11A20F039F49F3F19F49E
:1031300026F40C94C01A0EF4E095E7FB0C94911A57
:10314000E92F0E94481B58F3BA17620773078407D8
:10315000950720F079F4A6F50C94821B0EF4E09507
:103160000B2EBA2FA02D0B01B90190010C01CA0141
:10317000A0011124FF27591B99F0593F50F4503EEC
:1031800068F11A16F040A22F232F342F4427585FDE
:10319000F3CF469537952795A795F0405395C9F7F6
:1031A0007EF41F16BA0B620B730B840BBAF09150AE
:1031B000A1F0FF0FBB1F661F771F881FC2F70EC04D
:1031C000BA0F621F731F841F48F487957795679520
:1031D000B795F7959E3F08F0B0CF9395880F08F00C
:1031E0009927EE0F9795879508950E94EA1A60F047
:1031F00080E891E009F49EEF0E94F11A28F040E87F
:1032000051E071F45EEF0CC00C94C01A0C94821B58
:10321000E92FE0780E94481B40F3092E052AB1F3FC
:10322000261737074807590738F00E2E07F8E0250C
:1032300069F0E025E0640AC0EF6307F8009407FA3C
:10324000DB01B9019D01DC01CA01AD01EF930E94D0
:1032500088190E94231B0E9438195F91552339F069
:103260002BED3FE049E450FD49EC0C94891808959A
:10327000DF93DD27B92FBF7740E85FE31616170607
:1032800048075B0718F4D92F0E94891B9F938F93DF
:103290007F936F930E944C1CE4E5F0E00E94C31AF8
:1032A0000E94231B2F913F914F915F910E94A41B7D
:1032B000DD2351F09058A2EA2AED3FE049EC5FE3AC
:1032C000D0785D270E94A018DF910C94231B0E94E8
:1032D0006D1A08F481E008950E94FA1AE3950C949F
:1032E000341B0E9485190C94231B0E94F11A58F07C
:1032F0000E94EA1A40F029F45F3F29F00C94911AD9
:1033000051110C94831B0C94C01A0E94481B68F343
:103310009923B1F3552391F3951B550BBB27AA278E
:1033200062177307840738F09F5F5F4F220F331FC8
:10333000441FAA1FA9F335D00E2E3AF0E0E832D090
:1033400091505040E695001CCAF72BD0FE2F29D093
:10335000660F771F881FBB1F261737074807AB0765
:10336000B0E809F0BB0B802DBF01FF2793585F4FDA
:103370003AF09E3F510578F00C94911A0C94831BFF
:103380005F3FE4F3983ED4F3869577956795B795BC
:10339000F7959F5FC9F7880F911D9695879597F9C7
:1033A0000895E1E0660F771F881FBB1F6217730740
:1033B0008407BA0720F0621B730B840BBA0BEE1F55
:1033C00088F7E09508950E94EA196894B1110C9469
:1033D000831B08950E94501B88F09F5798F0B92FC7
:1033E0009927B751B0F0E1F0660F771F881F991F3A
:1033F0001AF0BA95C9F714C0B13091F00E94821B3F
:10340000B1E008950C94821B672F782F8827B85F4E
:1034100039F0B93FCCF3869577956795B395D9F791
:103420003EF490958095709561957F4F8F4F9F4F9B
:103430000895E89409C097FB3EF4909580957095A7
:1034400061957F4F8F4F9F4F9923A9F0F92F96E9F0
:10345000BB279395F695879577956795B795F11165
:10346000F8CFFAF4BB0F11F460FF1BC06F5F7F4F02
:103470008F4F9F4F16C0882311F096E911C0772314
:1034800021F09EE8872F762F05C0662371F096E81D
:10349000862F70E060E02AF09A95660F771F881FEC
:1034A000DAF7880F9695879597F908950E946A1B19
:1034B00090F09F3748F4911116F00C94831B60E054
:1034C00070E080E89FEB089526F41B16611D711DC6
:1034D000811D0C94971A0C94B21A990F0008550F7D
:1034E000AA0BE0E8FEEF16161706E807F907C0F08A
:1034F00012161306E407F50798F0621B730B840B92
:10350000950B39F40A2661F0232B242B252B21F46B
:1035100008950A2609F4A140A6958FEF811D811D0B
:10352000089597F99F6780E870E060E00895882328
:1035300071F4772321F09850872B762F07C06623EC
:1035400011F499270DC09051862B70E060E02AF0AD
:103550009A95660F771F881FDAF7880F96958795DB
:1035600097F908959F3F31F0915020F48795779512
:103570006795B795880F911D9695879597F908954A
:103580009FEF80EC0895DF93CF931F930F93FF92EB
:10359000EF92DF927B018C01689406C0DA2EEF0176
:1035A0000E94A41BFE01E894A591259135914591B7
:1035B0005591A6F3EF010E94A018FE019701A80102
:1035C000DA9469F7DF90EF90FF900F911F91CF9100
:1035D000DF91089500240A941616170618060906A6
:1035E000089500240A941216130614060506089579
:1035F0000C94C01A0E94501BD8F3E894E0E0BB275B
:103600009F57F0F02AED3FE049EC06C0EE0FBB0FEC
:10361000661F771F881F28F0B23A62077307840776
:1036200028F0B25A620B730B840BE3959A9572F7EC
:10363000803830F49A95BB0F661F771F881FD2F72A
:1036400090480C94B41A092E0394000C11F48823AA
:1036500052F0BB0F40F4BF2B11F460FF04C06F5F4A
:103660007F4F8F4F9F4F0895EF93E0FF07C0A2EA6F
:103670002AED3FE049EC5FEB0E94A0180E94231B5B
:103680000F90039401FC9058E1E8F0E00C94571C73
:1036900057FD9058440F551F59F05F3F71F0479503
:1036A000880F97FB991F61F09F3F79F087950895E8
:1036B000121613061406551FF2CF4695F1DF08C007
:1036C000161617061806991FF1CF86957105610524
:1036D000089408950E94501BA0F0BEE7B91788F423
:1036E000BB279F3860F41616B11D672F782F8827E7
:1036F000985FF7CF869577956795B11D9395963925
:10370000C8F30895E894BB2766277727CB0197F97C
:1037100008959B01AC0160E070E080E89FE30C94A9
:1037200071190E94A41B0C94231B0E94EA1A38F002
:103730000E94F11A20F0952311F00C94911A0C9428
:10374000C01A11240C94831B0E94481B70F3959F90
:10375000C1F3950F50E0551F629FF001729FBB2788
:10376000F00DB11D639FAA27F00DB11DAA1F649F24
:103770006627B00DA11D661F829F2227B00DA11DD7
:10378000621F739FB00DA11D621F839FA00D611D5D
:10379000221F749F3327A00D611D231F849F600D7E
:1037A000211D822F762F6A2F11249F5750409AF0A7
:1037B000F1F088234AF0EE0FFF1FBB1F661F771F33
:1037C000881F91505040A9F79E3F510580F00C94FE
:1037D000911A0C94831B5F3FE4F3983ED4F38695D3
:1037E00077956795B795F795E7959F5FC1F7FE2B9E
:1037F000880F911D9695879597F908959F930E943C
:10380000FA1A0F9007FCEE5F0C94341B19F416F4AF
:103810000C94C01A0C94B21A0E94501BB8F399234E
:10382000C9F3B6F39F57550B87FF0E94501C002425
:10383000A0E640EA900180585695979528F4805C60
:10384000660F771F881F20F026173707480730F4C8
:10385000621B730B840B202931294A2BA6951794E0
:103860000794202531254A2758F7660F771F881FB0
:1038700020F026173707480730F4620B730B840BD0
:10388000200D311D411DA09581F7B901842F91585C
:10389000880F9695879508959B01AC010C94911B18
:1038A00091505040660F771F881FD2F708959F935D
:1038B0008F937F936F93FF93EF939B01AC010E94D3
:1038C000911BEF91FF910E94C31A2F913F914F914D
:1038D0005F910C94911BCF93DF938230910510F48C
:1038E00082E090E0E0918604F091870420E030E0EF
:1038F000C0E0D0E0309711F140815181481759075D
:10390000C0F04817590761F482819381209719F01C
:103910009B838A832BC0909387048093860426C060
:103920002115310519F04217530718F49A01BE0109
:10393000DF01EF010280F381E02DDCCF211531059D
:1039400009F1281B390B2430310590F412968D9122
:103950009C9113976115710521F0FB01938382837C
:1039600004C09093870480938604FD01329644C07E
:10397000FD01E20FF31F81939193225031092D93A2
:103980003C933AC02091840430918504232B41F468
:1039900020916F003091700030938504209384044F
:1039A00020916D0030916E002115310541F42DB745
:1039B0003EB74091710050917200241B350BE0918D
:1039C0008404F0918504E217F307A0F42E1B3F0B4B
:1039D0002817390778F0AC014E5F5F4F2417350781
:1039E00048F04E0F5F1F50938504409384048193E9
:1039F000919302C0E0E0F0E0CF01DF91CF91089514
:103A00000F931F93CF93DF93009709F48CC0FC01B1
:103A10003297138212820091860410918704011557
:103A2000110581F420813181820F931F209184043C
:103A3000309185042817390779F5F0938504E093D0
:103A4000840471C0D80140E050E0AE17BF0750F4C5
:103A500012962D913C911397AD012115310509F175
:103A6000D901F3CF9D01DA01338322836081718113
:103A7000860F971F8217930769F4EC01288139811B
:103A8000260F371F2E5F3F4F318320838A819B8112
:103A900093838283452B29F4F0938704E093860473
:103AA00042C01396FC93EE931297ED014991599100
:103AB0009E01240F351FE217F30771F48081918175
:103AC000840F951F029611969C938E938281938109
:103AD00013969C938E931297E0E0F0E0D801129633
:103AE0008D919C911397009719F0F8018C01F6CFF6
:103AF0008D919C9198012E5F3F4F820F931F2091D3
:103B00008404309185042817390769F4309729F423
:103B1000109287041092860402C0138212821093BE
:103B2000850400938404DF91CF911F910F91089534
:103B3000A0E0B0E0EEE9FDE10C94741EEC0100970A
:103B400021F4CB010E946B1CB8C0FC01E60FF71FEB
:103B50009C0122503109E217F30708F4ACC0D901E7
:103B60000D911C91119706171707B0F0053011053C
:103B700008F49FC0C80104978617970708F499C0F6
:103B800002501109061B170B019311936D937C933F
:103B9000CF010E94001D8DC05B01A01AB10A4C012B
:103BA000800E911EA0918604B091870440E050E001
:103BB000E12CF12C109709F44AC0A815B905D1F5EC
:103BC0006D907C901197630182E0C80ED11CCA14DD
:103BD000DB0480F1A3014A195B096A0182E0C80E87
:103BE000D11C1296BC9012971396AC91B5E0CB16EF
:103BF000D10440F0B282A38351834083D9016D93F5
:103C00007C930AC00E5F1F4FC301800F911FF90103
:103C100091838083EB2DFA2FE114F10431F0D70169
:103C20001396FC93EE93129744C0F0938704E093AD
:103C300086043FC08D919C9111974817590708F44D
:103C4000AC017D0112960D90BC91A02DB3CF809157
:103C500084049091850488159905E1F44617570767
:103C6000C8F480916D0090916E00009741F48DB77B
:103C70009EB74091710050917200841B950BE8171C
:103C8000F907C8F4F0938504E0938404F901718383
:103C900060830FC0CB010E946B1C7C01009759F020
:103CA000A801BE010E94671ECE010E94001DC7012F
:103CB00004C0CE0102C080E090E0CDB7DEB7EEE0F8
:103CC0000C94901E81E090E0F8940C94A71EFB01E8
:103CD000DC0102C001900D9241505040D8F7089588
:103CE0002F923F924F925F926F927F928F929F920C
:103CF000AF92BF92CF92DF92EF92FF920F931F93FA
:103D0000CF93DF93CDB7DEB7CA1BDB0B0FB6F894AA
:103D1000DEBF0FBECDBF09942A88398848885F84EA
:103D20006E847D848C849B84AA84B984C884DF805B
:103D3000EE80FD800C811B81AA81B981CE0FD11D3F
:103D40000FB6F894DEBF0FBECDBFED01089511E0B0
:103D5000C5E1D1E004C0FE010E9482182196C6315F
:083D6000D107C9F7F894FFCF69
:103D68007E01700177018501FFFF010001000088D5
:103D7800048000000040001000500000000000AB6C
:103D8800017A01A601A5010000000043057A01A6F9
:103D980001A501456D70747900696E697420556CD0
:103DA800747261736368616C6C00696E6974206B0E
:103DB8006F6D7061737300696E697420626F6465FA
:103DC8006E00696E6974207069787900426F646565
:103DD8006E00416C6C006C696E69650062616C6CA8
:103DE8002073756368650062616C6C20616E6E613A
:103DF800686D6500746F722066696E64656E005345
:103E0800656E736F72656E005465737400537461E8
:103E180072740073703A20000D0A0073746174653F
:103E28003A006E6F773A006C6173743A00646966A1
:103E3800663A00696E73696465006F7574736964C6
:103E480065006C696E655F696E006C696E655F6FB1
:103E5800757400656467655F696E00656467655FB2
:043E68006F757400FE
:00000001FF
