:100000000C9406010C942E010C942E010C942E01DC
:100010000C942E010C942E010C942E010C942E01A4
:100020000C942E010C942E010C942E010C94351D71
:100030000C942E010C9404020C9430020C942E01AA
:100040000C942E010C942E010C942E010C94C303DD
:100050000C942E01010204081020408000000000D2
:100060000001020408102040800102040810204012
:1000700080000000804020100804020102020202F9
:10008000020202020000000000040404040404044C
:100090000403030303030303030000000101010140
:1000A000010101010000390036003300300000007A
:1000B000000000003B003800350032000000000066
:1000C00000003A00370034003100000000004E41CB
:1000D0004E494E495459494E46CDCCCC3D0AD723C2
:1000E0003C17B7D13877CC2B329595E6241FB14F0A
:1000F0000A000020410000C84200401C4620BCBE4F
:100100004CCA1B0E5AAEC59D7400407A10F35A00BB
:10011000A0724E18090010A5D4E80000E876481730
:100120000000E40B54020000CA9A3B000000E1F515
:1001300005000080969800000040420F000000A0DB
:100140008601000000102700000000E80300000006
:10015000006400000000000A000000000001000030
:100160000000002C76D888DC674F0823DFC1DFAEA3
:1001700059E1B1B796E5E3E453C63AE6519976966C
:10018000E8E6C28426EB898C9B62ED407C6FFCEF35
:10019000BC9C9F40F2BAA56FA5F490055A2AF75C63
:1001A000936B6CF9676DC11BFCE0E40D47FEF52015
:1001B000E6B500D0ED902E030094357705008084DD
:1001C0001E080000204E0A000000C80C33333333F1
:1001D0000F986E12831141EF8D2114893BE655165D
:1001E000CFFEE6DB18D1844B381BF77C1D901DA495
:1001F000BBE424203284725E228100C9F124ECA188
:10020000E53D27000F2D3A2D442D132D11241FBE3F
:10021000CFE5D8E0DEBFCDBF10E0A0E6B0E0EAE277
:10022000FFE602C005900D92A43EB107D9F722E087
:10023000A4EEB0E001C01D92AA3BB207E1F711E0C5
:10024000C5E0D1E004C02197FE010E94912DC2308B
:10025000D107C9F70E94E02C0C9488370C94000059
:10026000809182018F5F809382018E33A8F080910C
:100270007E0190917F01A0918001B0918101019652
:10028000A11DB11D80937E0190937F01A0938001F9
:10029000B09381011092820108952FB7F894609174
:1002A0007E0170917F0180918001909181012FBF2B
:1002B00008958F929F92AF92BF92CF92DF92EF926A
:1002C000FF926B017C010E944D014B015C010E9479
:1002D0004D01DC01CB0188199909AA09BB098C15CC
:1002E0009D05AE05BF0598F3FF90EF90DF90CF908E
:1002F000BF90AF909F908F9008958230910538F015
:10030000880F991F880F991F05970197F1F7089596
:10031000789481E083BF89B7816089BF0895CF93C6
:10032000DF9390E0FC01EC5AFF4F2491FC01E4586C
:10033000FF4F8491882361F190E0880F991FFC01A1
:10034000E054FF4FC591D491FC01EE54FF4FA591AD
:10035000B491611109C09FB7F894888120958223D8
:100360008883EC912E230BC0623061F49FB7F89420
:100370003881822F809583238883EC912E2B2C93B8
:100380009FBF06C08FB7F894E8812E2B28838FBFBC
:10039000DF91CF91089590E0FC01EC5AFF4F24913A
:1003A000FC01E458FF4FE491EE2389F0F0E0EE0FFA
:1003B000FF1FEE54FF4FA591B491611105C08C91C0
:1003C000E22FE095E82302C0EC91E22BEC93089534
:1003D00090E0FC01EC5AFF4F2491FC01E458FF4FE0
:1003E000E491EE2371F0F0E0EE0FFF1FEC55FF4FAC
:1003F000A591B491EC91E22381E090E021F480E0BA
:10040000089580E090E008951F920F920FB60F922A
:1004100011242F938F939F93EF93FF938BB19CB1F4
:100420008871E0918501EF5FEF7120918401E217FF
:1004300039F0E0938501F0E0E857FE4F908301C06A
:1004400082E090918301892B80938301FF91EF914A
:100450009F918F912F910F900FBE0F901F90189525
:100460001F920F920FB60F9211248F939F93EF93C9
:10047000FF939091870180918601981761F0E09138
:100480008601EF5FEF71E0938601F0E0E855FE4FE3
:1004900080818CB901C05598FF91EF919F918F9108
:1004A0000F900FBE0F901F90189510928701109219
:1004B0008601109285011092840197FF03C022E00B
:1004C0002BB99F7790BD89B988E98AB986E880BD44
:1004D00008959091850180918401981781F0E091B1
:1004E0008401EF5FEF71E0938401F0E0E857FE4F85
:1004F0008081909183011092830190E0089580E0C3
:1005000091E00895909187019F5F9F7120918601EE
:100510009217E1F3E92FF0E0E855FE4F80839093C6
:100520008701559A0895CF93DF93EC018991882331
:1005300019F00E948202FACFDF91CF910895CF93F4
:10054000DF93FC018491EF012196882321F00E9422
:100550008202FE01F7CFDF91CF910895109235020C
:1005600081E0809333021092320261E081E10E94C7
:10057000CB0161E080E10E94CB010898099888E4F2
:1005800080B985E486BF089586B78A7B86BF60E020
:1005900081E10E94CB0160E080E10C94CB01880FE7
:1005A00082B908959B01AC0160E074E284EF90E0B1
:1005B0000E94642DDA01C9014097A109B109B695DD
:1005C000A7959795879580B90895413208F040C066
:1005D000909135029111FCCF91E0909335022093D8
:1005E00033022FEF2093C80110920D02240F2093A5
:1005F0000C029093340290913402880F892B8093DF
:10060000340280913202813051F410923202809192
:10061000340283B906B603FCFACF85EC01C085EE3F
:1006200086BF809135028130E1F380910D028417FD
:1006300010F440910D022EE032E0FB01D9018A2F27
:10064000821B841718F48D918193F9CF842F08951C
:1006500080E008950F93413208F047C09091350231
:100660009111FCCF32E030933502009333023FEF1B
:100670003093C80110920D0240930C02FB016EE012
:1006800072E0DB013A2F361B341718F431913D9399
:10069000F9CF1092340230913402880F832B80936B
:1006A000340280913202813051F4109232028091F2
:1006B000340283B906B603FCFACF85EC01C085EE9F
:1006C00086BF222321F0809135028230D1F38091C0
:1006D000C8018F3F79F08091C801803241F080914C
:1006E000C801803331F094E005C091E003C092E08E
:1006F00001C093E0892F0F9108954091EA01262FC0
:1007000030E0240F311D21323105DCF42091350217
:100710002430C9F4FC0180E090E0861758F4309151
:10072000EA012191DC01A451BE4FA30FB11D2C930E
:100730000196F3CF8091EA01680F6093EA0180E0AF
:10074000089581E0089582E0089590932F028093A8
:100750002E020895909331028093300208958823E9
:1007600011F085EC01C085E886BF089585ED86BF50
:1007700006B604FCFDCF10923502089585EC86BFC5
:100780001092350208951F920F920FB60F92112406
:100790002F933F934F935F936F937F938F939F9389
:1007A000AF93BF93EF93FF9381B1887F803609F4B5
:1007B0009BC078F5883209F45DC090F4803109F46B
:1007C00056C038F4882309F4EEC0883009F44FC0CD
:1007D000EEC0883109F44EC0803209F45EC0E7C033
:1007E000803409F468C058F4803309F456C0883363
:1007F00009F0DDC08093C8010E94BE03D8C08035D7
:1008000009F44EC0883509F45BC0883409F0CFC0C4
:10081000CCC0883909F4BFC0A8F4883709F464C093
:1008200038F4883609F460C0803709F45DC0BFC071
:10083000883809F4B0C0803909F45CC0803809F008
:10084000B6C058C0803B09F47FC038F4803A09F440
:1008500062C0883A09F478C0AAC0803C09F49EC0FE
:10086000883C09F49BC0883B09F483C0A0C08091F8
:10087000340210C090910D0280910C02981758F527
:10088000E0910D0281E08E0F80930D02F0E0E25FB7
:10089000FD4F808183B985EC7FC08093C80185C0FE
:1008A000E0910D0281E08E0F80930D0283B1F0E0A4
:1008B000E25FFD4F808390910D0280910C0268C031
:1008C000E0910D0281E08E0F80930D0283B1F0E084
:1008D000E25FFD4F808380913302811166C081E029
:1008E0008093320284EA5BC083E0809335021092E9
:1008F000C901D1CF8091C901803208F04CC0E0918C
:10090000C90181E08E0F8093C90183B1F0E0E65305
:10091000FE4F8083C0CF0E94BE038091C901803208
:1009200030F4E091C901F0E0E653FE4F108260918F
:10093000C90170E0E0912E02F0912F028AEC91E063
:1009400009951092C90133C084E08093350210925A
:10095000EB011092EA01E0913002F0913102099529
:100960008091EA01811105C081E08093EA01109233
:10097000EC01E091EB0181E08E0F8093EB01F0E060
:10098000E451FE4F808183B99091EB018091EA019F
:10099000981708F480CF85E886BF09C085EC86BF2C
:1009A0001092350204C01092C8010E94B603FF9154
:1009B000EF91BF91AF919F918F917F916F915F91D7
:1009C0004F913F912F910F900FBE0F901F90189550
:1009D0008F929F92AF92BF92CF92DF92EF92FF924F
:1009E0000F931F93CF93DF9390E0FC01EC5AFF4FDE
:1009F000A491FC01E458FF4F8491662311F0BA2FB3
:100A000001C0B0E0BA01A90134E0440F551F661FD0
:100A1000771F3A95D1F78A019B0146E036952795D5
:100A2000179507954A95D1F790E0880F991F8C5537
:100A30009F4F480159014FEF841A940AA40AB40A3F
:100A4000C12CD12C7601FC01C591D49168816A2317
:100A50006B131AC05FEFC51AD50AE50AF50AC81468
:100A6000D904EA04FB0479F746C0460157016FEF49
:100A7000861A960AA60AB60AC016D106E206F30638
:100A800009F439C075016401FC01C591D4916881F4
:100A90006A236B13EACFB901A8014C195D096E09ED
:100AA0007F096A017B0120E030E0A901FC01C591CA
:100AB000D49168816A236B130AC02C153D054E053D
:100AC0005F05C9F02F5F3F4F4F4F5F4FEFCFA5E15D
:100AD000B0E00E94862DDC01CB01805C9F4FAF4FC0
:100AE000BF4FBC01CD0124E096958795779567951A
:100AF0002A95D1F703C060E070E0CB01DF91CF9180
:100B00001F910F91FF90EF90DF90CF90BF90AF902B
:100B10009F908F90089580EC87B980E886B986B160
:100B2000876086B9369A3699FECF84B185B108952B
:100B300097B1907E97B997B180958770982B97B9A8
:100B4000369A3699FECF24B185B190E0982F882748
:100B5000820F911D0895CF92DF92EF92FF920F9333
:100B60001F93CF93DF93F82ED62FE42E07E010E0EB
:100B7000C0E087E0C82ED12C61E08D2F0E94CB0110
:100B80008F2DE1100AC00E94E8019601201B310B55
:100B900001C0880F2A95EAF707C00E94E801002EDD
:100BA00001C0880F0A94EAF7C82B60E08D2F0E94DD
:100BB000CB010150110900F78C2FDF91CF911F91CC
:100BC0000F91FF90EF90DF90CF900895BF92CF925A
:100BD000DF92EF92FF920F931F93CF93DF93C82E74
:100BE000D62EB42EC7E0D0E0022F10E087E0E82E2A
:100BF000F12CB11005C0C7018C1B9D0B980102C0E0
:100C000098018C2F02C0359527958A95E2F7B90196
:100C1000617077278C2D0E94CB0161E08D2D0E94A1
:100C2000CB0160E08D2D0E94CB01219710F7DF9161
:100C3000CF911F910F91FF90EF90DF90CF90BF90D9
:100C40000895BC019093B3028093B202089809986A
:100C500080E89EE30E94502D862F603138F0772780
:100C6000CB01409797FD01969595879580B911B86E
:100C700084EC86BF85B3836085BB089584E986BF15
:100C800008958FEF9FEF06B607FC02C00197D9F7D2
:100C900081B1887F0895846886BF0C944106AF9225
:100CA000BF92CF92DF92EF92FF920F931F93CF9359
:100CB000DF93C62F662351F0613019F0E12CF12C3F
:100CC00009C068E4E62E70E4F72E04C040E2E42E8A
:100CD00058E1F52E04E110E094EAD92E982F9160A6
:100CE000C92ED82FDE7F24E8B22E34E9A32ED6BE3B
:100CF0000E944106883021F0803111F084E815C04F
:100D0000C11102C0D3B903C0C13009F4C3B8B6BE23
:100D10000E9441068F1581F08E1104C00150110907
:100D2000A6BE05C0883319F084E986BF03C010163B
:100D30001106ECF280E001C081E0DF91CF911F91BC
:100D40000F91FF90EF90DF90CF90BF90AF900895FC
:100D500083B984E886BF0E944106883231F091E071
:100D6000803309F090E0892F01C081E081700895FF
:100D7000CF93DF93EC01611102C080E401C080E0F9
:100D80000E944B0693B19883982F977F81E090350E
:100D900009F080E0DF91CF9108950F931F93CF93D7
:100DA000DF9314161506F4F461157105D9F08A0164
:100DB000EB0160E00E944F06811102C080E013C089
:100DC0000C0F1D1F89910E94A806811105C091B1C9
:100DD000987F983321F4F2CFC017D10799F794E99F
:100DE00096BF01C081E0DF91CF911F910F910895CF
:100DF000AF92BF92CF92DF92EF92FF921F93CF9369
:100E0000DF93442389F16115710571F1C42F6B01E2
:100E100061E00E944F06182F81111BC018C08FEF90
:100E2000E81AF80AEC16FD06E4F461E0EA14FB04A3
:100E300009F060E0C6018E0D9F1D0E94B806811169
:100E4000EECF81B1887F883311F084E986BF10E04E
:100E50000CC0E12CF12CD0E05E0181E0A81AB108B1
:100E6000E1CF84E986BF01C011E0812FDF91CF91EE
:100E70001F91FF90EF90DF90CF90BF90AF900895BB
:100E8000CF93DF9300D0CDB7DEB769834A8342E0CA
:100E900050E0BE016F5F7F4F0E94CD060F900F9014
:100EA000DF91CF910895CF93DF93C82FD62F60E0C5
:100EB0000E944F06811102C080E014C08D2F0E9455
:100EC000A8068823C9F361E08C2F0E944F0688236F
:100ED00099F361E080E090E00E94B806882361F316
:100EE00094E996BFDF91CF910895FF920F931F93DE
:100EF000CF93DF93C82FF62E8A01D22F60E00E9495
:100F00004F06882379F08F2D0E94A806882351F080
:100F10004D2FB8018C2FDF91CF911F910F91FF9032
:100F20000C94F80680E0DF91CF911F910F91FF9014
:100F3000089588EF089581E0089588EF089560E0AE
:100F40000E944F0694E996BF0895862F0E94820260
:100F500081E090E00895FC01138212822CE830E0D9
:100F6000318320830895DB01CA0180589B47A14E3D
:100F7000BF4F23E0880F991FAA1FBB1F2A95D1F7E7
:100F80009A01AB0164E0220F331F441F551F6A957D
:100F9000D1F7BC01CD010E94642DC90101970C94C9
:100FA000550208950C9409300C9409300C949E302D
:100FB0000C949E30FC0181E090E02081222311F00E
:100FC00080E090E0089521E0FC01208308950895D9
:100FD0000895FC01808191810C949E30CF93DF9322
:100FE000EC0188819981009711F00E949E3019824E
:100FF00018821D821C821B821A82DF91CF91089574
:101000000F931F93CF93DF93EC018B016F5F7F4FA3
:10101000888199810E943631009731F099838883C5
:101020001B830A8381E001C080E0DF91CF911F9193
:101030000F910895CF93DF93EC0188819981892BDB
:1010400029F08A819B818617970760F4CE010E9460
:101050000008882341F08C819D81892B19F4E88157
:10106000F981108281E0DF91CF910895EF92FF9294
:101070000F931F93CF93DF93EC017B018A01BA0199
:101080000E941A08811104C0CE010E94EE0707C019
:101090001D830C83B701888199810E948332CE0120
:1010A000DF91CF911F910F91FF90EF900895FC0178
:1010B00011821082138212821582148261157105C9
:1010C00051F0FB0101900020E9F73197AF01461B79
:1010D000570B0C9436080895EF92FF920F931F93CD
:1010E000CF93DF93EC017B018A01BA010E941A08B9
:1010F000811104C0CE010E94EE0707C01D830C833E
:10110000B701888199810E944432CE01DF91CF914D
:101110001F910F91FF90EF900895CF93DF93EC0113
:10112000FB018617970761F0608171816115710578
:1011300029F0448155810E94360802C00E94EE07C2
:10114000CE01DF91CF910895FC01118210821382AC
:101150001282158214820C948D08CF93DF93EC01D8
:101160006115710559F0FB0101900020E9F73197F5
:10117000AF01461B570B0E94360802C00E94EE07C3
:10118000CE01DF91CF910895CF93DF9300D0CDB7FB
:10119000DEB7FC0111821082138212821582148242
:1011A00069831A82BE016F5F7F4F0E94AD080F9066
:1011B0000F90DF91CF9108950F931F93CF93DF93FB
:1011C000CDB7DEB729970FB6F894DEBF0FBECDBFFF
:1011D0008C01862FF80111821082138212821582EF
:1011E000148250E0BE016F5F7F4F90E00E943E335B
:1011F000BE016F5F7F4FC8010E94AD0829960FB6F0
:10120000F894DEBF0FBECDBFDF91CF911F910F913C
:1012100008950F931F93CF93DF93CDB7DEB76297F7
:101220000FB6F894DEBF0FBECDBF8C01CB01F80125
:1012300011821082138212821582148250E0BE0144
:101240006F5F7F4F0E94CC32BE016F5F7F4FC8013E
:101250000E94AD0862960FB6F894DEBF0FBECDBFF8
:10126000DF91CF911F910F9108950F931F93CF930B
:10127000DF93CDB7DEB761970FB6F894DEBF0FBE30
:10128000CDBF8C01CB01F801118210821382128232
:101290001582148250E0BE016F5F7F4F0E943E3383
:1012A000BE016F5F7F4FC8010E94AD0861960FB607
:1012B000F894DEBF0FBECDBFDF91CF911F910F918C
:1012C00008950F931F93CF93DF93CDB7DEB7A29707
:1012D0000FB6F894DEBF0FBECDBF8C01CB01BA01B3
:1012E000F80111821082138212821582148230E07A
:1012F000AE014F5F5F4F0E94E232BE016F5F7F4FD2
:10130000C8010E94AD08A2960FB6F894DEBF0FBECA
:10131000CDBFDF91CF911F910F9108950F931F9330
:10132000CF93DF93CDB7DEB7A1970FB6F894DEBFAA
:101330000FBECDBF8C01CB01BA01F8011182108222
:10134000138212821582148230E0AE014F5F5F4F2C
:101350000E941133BE016F5F7F4FC8010E94AD082C
:10136000A1960FB6F894DEBF0FBECDBFDF91CF912F
:101370001F910F910895EF92FF920F931F93CF93B8
:10138000DF93CDB7DEB7A1970FB6F894DEBF0FBEDF
:10139000CDBF7C01CB01BA01F7011182108213820B
:1013A00012821582148242E0420F8E010F5F1F4F9E
:1013B0000E94E92FBC01C7010E94AD08A1960FB69B
:1013C000F894DEBF0FBECDBFDF91CF911F910F917B
:1013D000FF90EF900895EF92FF920F931F93CF939A
:1013E000DF93CDB7DEB7A1970FB6F894DEBF0FBE7F
:1013F000CDBF7C01CB01BA01F701118210821382AB
:1014000012821582148242E0420F8E010F5F1F4F3D
:101410000E94E92FBC01C7010E94AD08A1960FB63A
:10142000F894DEBF0FBECDBFDF91CF911F910F911A
:10143000FF90EF9008950F931F93CF93DF9300D009
:10144000CDB7DEB78C016115710561F0CB01698301
:101450007A830E944B32AC0169817A81C8010E9473
:101460006C0802C00E94EE07C8010F900F90DF9138
:10147000CF911F910F910895FC0111821082138268
:101480001282158214820C941B0AEF92FF920F9322
:101490001F93CF93DF93FC01248135816115710582
:1014A00011F480E019C041155105A9F07B01EC0150
:1014B0008A01020F131FB8010E941A08882389F3BA
:1014C000288139818C819D81B701820F931F0E94F1
:1014D00083321D830C8381E0DF91CF911F910F91A7
:1014E000FF90EF900895FB014481558160817181E7
:1014F0000C94450A6115710551F0FB010190002023
:10150000E9F73197AF01461B570B0C94450A80E071
:101510000895CF93DF9300D0CDB7DEB769831A82E9
:1015200041E050E0BE016F5F7F4F0E94450A0F907F
:101530000F90DF91CF910895EF92FF920F931F9339
:10154000CF93DF9300D000D0CDB7DEB77C01862FDC
:101550004AE050E08E010F5F1F4FB80190E00E94FB
:10156000CC32F80101900020E9F73197AF01401B20
:10157000510BB801C7010E94450A0F900F900F90C0
:101580000F90DF91CF911F910F91FF90EF900895F1
:10159000EF92FF920F931F93CF93DF93CDB7DEB7F8
:1015A00028970FB6F894DEBF0FBECDBF7C01CB01EC
:1015B0004AE050E08E010F5F1F4FB8010E94CC320D
:1015C000F80101900020E9F73197AF01401B510B62
:1015D000B801C7010E94450A28960FB6F894DEBFED
:1015E0000FBECDBFDF91CF911F910F91FF90EF9074
:1015F0000895EF92FF920F931F93CF93DF93CDB790
:10160000DEB727970FB6F894DEBF0FBECDBF7C01C3
:10161000CB014AE050E08E010F5F1F4FB8010E94DE
:101620003E33F80101900020E9F73197AF01401BEC
:10163000510BB801C7010E94450A27960FB6F894CE
:10164000DEBF0FBECDBFDF91CF911F910F91FF90F5
:10165000EF900895EF92FF920F931F93CF93DF9334
:10166000CDB7DEB72E970FB6F894DEBF0FBECDBF55
:101670007C01CB01BA012AE030E08E010F5F1F4FE1
:10168000A8010E94E232F80101900020E9F73197A9
:10169000AF01401B510BB801C7010E94450A2E96AD
:1016A0000FB6F894DEBF0FBECDBFDF91CF911F9173
:1016B0000F91FF90EF900895EF92FF920F931F9379
:1016C000CF93DF93CDB7DEB72D970FB6F894DEBF7B
:1016D0000FBECDBF7C01CB01BA012AE030E08E0104
:1016E0000F5F1F4FA8010E941133F80101900020E5
:1016F000E9F73197AF01401B510BB801C7010E94B8
:10170000450A2D960FB6F894DEBF0FBECDBFDF9110
:10171000CF911F910F91FF90EF900895EF92FF925C
:101720000F931F93CF93DF93CDB7DEB764970FB6B8
:10173000F894DEBF0FBECDBF7C01CB01BA018E0194
:101740000F5F1F4F22E044E00E94E92FBC01FC0123
:1017500001900020E9F73197AF01481B590BC701F1
:101760000E94450A64960FB6F894DEBF0FBECDBF47
:10177000DF91CF911F910F91FF90EF900895EF921D
:10178000FF920F931F93CF93DF93CDB7DEB764978C
:101790000FB6F894DEBF0FBECDBF7C01CB01BA01FE
:1017A0008E010F5F1F4F22E044E00E94E92FBC0131
:1017B000FC0101900020E9F73197AF01481B590B5C
:1017C000C7010E94450A64960FB6F894DEBF0FBEAB
:1017D000CDBFDF91CF911F910F91FF90EF900895B2
:1017E000EF92FF920F931F93CF93DF9361157105D3
:1017F00011F480E01EC08B01EC01CB010E944B3242
:101800000097B1F02C813D817C01E20EF31EB701FF
:10181000CE010E941A08882361F3288139818C81C6
:101820009D81B801820F931F0E944432FD82EC8299
:1018300081E0DF91CF911F910F91FF90EF9008957C
:10184000CF93DF93EC01FB0144815581608171816D
:101850000E94450A811103C0CE010E94EE07CE010D
:10186000DF91CF910895CF93DF93EC01611571055E
:1018700061F0FB0101900020E9F73197AF01461BB1
:10188000570B0E94450A811103C0CE010E94EE074A
:10189000CE01DF91CF910895CF93DF93EC010E94A9
:1018A000890A811103C0CE010E94EE07CE01DF91AB
:1018B000CF910895CF93DF93EC010E949C0A811190
:1018C00003C0CE010E94EE07CE01DF91CF910895B3
:1018D000CF93DF93EC010E94C80A811103C0CE01AF
:1018E0000E94EE07CE01DF91CF910895CF93DF9351
:1018F000EC010E94F90A811103C0CE010E94EE079B
:10190000CE01DF91CF910895CF93DF93EC010E9438
:101910002A0B811103C0CE010E94EE07CE01DF9198
:10192000CF910895CF93DF93EC010E945C0B81115E
:1019300003C0CE010E94EE07CE01DF91CF91089542
:10194000CF93DF93EC010E948E0B811103C0CE0177
:101950000E94EE07CE01DF91CF910895CF93DF93E0
:10196000EC010E94BF0B811103C0CE010E94EE0763
:10197000CE01DF91CF910895CF93DF93EC010E94C8
:10198000F00B811103C0CE010E94EE07CE01DF9162
:10199000CF910895CF93DF93DC01ED91FC91EB01A2
:1019A000A881B981309711F01097C9F4109759F0B8
:1019B000EB012C813D81232B31F08C9190E09195AE
:1019C0008195910914C0309781F0DC0114968D91B6
:1019D0009C911597892B49F0808190E008C0BD014A
:1019E000CF01DF91CF910C947A3280E090E0DF91CB
:1019F000CF910895FC0144815581FB0124813581FB
:101A00004217530729F40E94CA0C21E0892B09F0E0
:101A100020E0822F0895FC0124813581232B31F4AD
:101A200021E061157105A1F0FB0108C0FC01808176
:101A300091816115710531F421E0FC0180818823D9
:101A400039F005C00E947A3221E0892B09F020E0AC
:101A5000822F08950E94CA0C892F881F8827881F0B
:101A600008950E94CA0C21E0181619060CF020E017
:101A7000822F08950E94CA0C21E0181619060CF452
:101A800020E0822F08950E94CA0C892F8095881F1C
:101A90008827881F0895EF92FF920F931F93CF938B
:101AA000DF938617970709F1FC0124813581FB013B
:101AB0004481558124173507D1F4232BB1F0DC0183
:101AC000CD91DC91008111818991882371F090E0A2
:101AD0000E9434327C01F80181918F0190E00E94D4
:101AE0003432E816F90681F302C081E001C080E0DB
:101AF000DF91CF911F910F91FF90EF900895DB013F
:101B00001496ED91FC911597DC0114962D913C9162
:101B100015972E1B3F0B24173507A0F02D913C91F4
:101B20002115310579F0DB016D917C91611571050D
:101B300049F0CA01AF01820F931F0E948A3221E04F
:101B4000892B09F020E0822F0895FC014481558102
:101B5000FB01248135814217530720F040E050E01B
:101B60000C947F0D80E00895FC0124813581FB01F8
:101B70004481558124173507A0F0FC0180819181B3
:101B8000009779F0FB01608171816115710549F061
:101B9000241B350B820F931F0E947A3221E0892B80
:101BA00009F020E0822F0895FC012481358162171D
:101BB000730730F480819181FC01E60FF71F4083A9
:101BC0000895FC01248135816217730720F4808118
:101BD0009181009729F41092360286E392E00895ED
:101BE000860F971F0895FC012481358162177307C2
:101BF00048F480819181009729F0FC01E60FF71FDE
:101C00008081089580E008950C94F30D0F931F9345
:101C1000CF93DF934115510519F16115710501F15C
:101C2000DC011496ED91FC9115972E173F0718F0E3
:101C3000FB01108215C0E21BF30BEA012197EC17A0
:101C4000FD0708F4EF018B01FC0160817181620FD7
:101C5000731FAE01C8010E949832C00FD11F1882B5
:101C6000DF91CF911F910F910895CF93DF93FC01E6
:101C7000248135814217530768F4C081D18170E017
:101C8000CE01840F951F0E946F32009719F08C1BB4
:101C90009D0B02C08FEF9FEFDF91CF91089540E041
:101CA00050E00C94350ECF93DF93FC0124813581F5
:101CB0004217530780F4FB01DC01CD91DC91608178
:101CC0007181CE01840F951F0E94B232009719F0E6
:101CD0008C1B9D0B02C08FEF9FEFDF91CF9108957A
:101CE00040E050E00C94530EDF92EF92FF920F937E
:101CF0001F93CF93DF93DC0114962D913C911597A0
:101D00004217530718F08FEF9FEF1BC08C01EA01B9
:101D10002196DC01ED91FC911197EC0FFD1FD08015
:101D20001082ED90FC9070E0C7010E94A732CE0DAA
:101D3000DF1DD882009739F3F80120813181821BA1
:101D4000930BDF91CF911F910F91FF90EF90DF9058
:101D50000895FC0144815581415051090C94740E41
:101D6000AF92BF92CF92DF92EF92FF920F931F93A9
:101D7000CF93DF937B018A01FB014481558141159B
:101D8000510561F1FC01248135812115310531F1C5
:101D90002417350718F10217130718F089010150AD
:101DA0001109FC01A080B180C501DFEFCFEF650113
:101DB000C00ED11EC816D906A0F0F701608171814E
:101DC0000E94B232009769F09C012A193B09021760
:101DD000130710F0D22FC32F0196ECCF8FEF9FEF98
:101DE00002C08D2F9C2FDF91CF911F910F91FF90FB
:101DF000EF90DF90CF90BF90AF900895FC014481A9
:101E00005581FB0124813581421B530B0C94B00E8C
:101E1000BF92CF92DF92EF92FF920F931F93CF93D7
:101E2000DF937C016B018A01E9012417350720F457
:101E3000812F8901C42FD82F63ED70E0C7010E9464
:101E40005708D60114968D919C911597801791078C
:101E5000D0F08C179D0708F4EC01D601ED91FC91B0
:101E60001197EC0FFD1FB08010824D915C91BA016B
:101E7000600F711FC7010E94AD08D601ED91FC9162
:101E8000EC0FFD1FB082C701DF91CF911F910F9121
:101E9000FF90EF90DF90CF90BF900895DC01ED911F
:101EA000FC91309729F40895861301C04083319640
:101EB00080818111F9CF08952F923F924F925F92C6
:101EC0006F927F928F929F92AF92BF92CF92DF924A
:101ED000EF92FF920F931F93CF93DF93FC01448007
:101EE00055804114510409F4D2C0FB01648075800F
:101EF0006114710409F4CBC07A016B018C01FA0101
:101F0000A480B580A618B708FC01C081D181A114B6
:101F1000B104C1F4F60160817181CE010E94B23238
:101F2000EC01892B09F4B3C0F70160817181448110
:101F30005581CE010E945432F70184819581C80FEA
:101F4000D91FE8CFB7FE02C04E0105C0FB012080BB
:101F50003180420143C0F60160817181C4010E9459
:101F6000B2322C01892B21F1320168187908A301C2
:101F7000B401CE010E945432C60DD71DF701608115
:101F8000718144815581CE010E945432F7018481D0
:101F90009581C80FD91FF60184809580840C951C0B
:101FA000F801848195818A0D9B1D95838483D3CF0D
:101FB000B401CE01DF91CF911F910F91FF90EF906F
:101FC000DF90CF90BF90AF909F908F907F906F9059
:101FD0005F904F903F902F900C948332B101CE01CF
:101FE0000E94B232009731F0EC01C60DD71D8A0C69
:101FF0009B1CF4CF8414950409F449C0F801828134
:1020000093818815990530F4B401C8010E94000835
:102010008823E9F1F801448155814150510957FD68
:1020200036C0B601C8010E94B00EEC0197FD2FC06A
:10203000F80180819181F601248135812C0F3D1FAB
:10204000820F931FF80144815581421B530BBC0141
:102050008A0D9B1D0E945D32F801848195818A0D55
:102060009B1D9583848320813181F901E80FF91F3D
:102070001082F80180819181F70160817181448132
:1020800055818C0F9D1F0E945432AE01C6CFDF9147
:10209000CF911F910F91FF90EF90DF90CF90BF9065
:1020A000AF909F908F907F906F905F904F903F90F8
:1020B0002F900895CF93DF93EC01CB019A014C81CF
:1020C0005D816417750718F52115310501F1620F5F
:1020D000731F4617570718F49A01281B390BE8811C
:1020E000F981421B530B5D834C83481B590B280F0E
:1020F000391FBF01620F731F8E0F9F1F0E949832FE
:10210000E881F9818C819D81E80FF91F1082DF91B0
:10211000CF910895FC01448155816417750720F41F
:10212000461B570B0C945A100895CF93DF93FC0174
:10213000C081D181209741F08881882329F090E0E7
:102140000E9434328993F8CFDF91CF910895CF93D5
:10215000DF93FC01C081D181209741F088818823E1
:1021600029F090E00E943C328993F8CFDF91CF9123
:102170000895AF92BF92CF92DF92EF92FF920F93AA
:102180001F93CF93DF93DC01CD90DC901197C114A6
:10219000D104F1F11496CD91DC9115972097C1F1FE
:1021A0008C0156017501BFEFAB1ABB0AF7018081A4
:1021B00090E00E942B32892BA9F72197CC0DDD1DD1
:1021C000888190E00E942B32892B91F4AE014F5F01
:1021D0005F4F4E195F09D80115965C934E93149783
:1021E000CE14DF0450F4B701C6010E94543205C07A
:1021F000CE15DF0558F32197E3CFD801ED91FC917F
:10220000119714968D919C911597E80FF91F1082E4
:10221000DF91CF911F910F91FF90EF90DF90CF90C2
:10222000BF90AF900895FC0180819181009711F0DB
:102230000C94043260E070E0CB010895FC018081D1
:102240009181009711F00C94003260E070E0CB01B6
:1022500008950895FC0166830895CF93DF93EC0100
:10226000E881F981662351F08FEF808341E0698531
:102270008F8198850E94791541E008C0108240E066
:1022800069858F8198850E94791540E06A858F81E4
:1022900098850E9479158F819885DF91CF910C9454
:1022A000A315EF92FF920F931F93CF93DF93EC014F
:1022B000822F69874A8718870F83F982E88261E055
:1022C0000E948F0160E0CE010E942D111B821A82B4
:1022D0001D821C8285E08E83DF91CF911F910F912B
:1022E000FF90EF9008950F931F93CF93DF936115A5
:1022F000710539F460E0DF91CF911F910F910C943B
:102300002D118B01EC018F8198851616170634F478
:1023100040E069850E94791541E005C041E069858A
:102320000E94791540E06A858F8198850E94791511
:102330008F8198850E94A315B80117FF03C071957E
:1023400061957109E881F9816F3F710519F014F009
:102350006FEF70E06083DF91CF911F910F9108952F
:102360000F931F93CF93DF936115710539F460E0EC
:10237000DF91CF911F910F910C942D118B01EC01E6
:102380008F8198851616170634F440E069850E94FF
:10239000791541E005C041E069850E94791540E06A
:1023A0006A858F8198850E9479158F8198850E9412
:1023B000A315B80117FF03C0719561957109E881F4
:1023C000F9816F3F710519F014F06FEF70E06083D1
:1023D000DF91CF911F910F910895FC0122813381EC
:1023E0008481958128173907D1F0468150E0BC01DE
:1023F000640F751F261737071CF0758364830AC0A6
:10240000841B950B821793071CF09583848302C06D
:102410003583248364817581CF010C94B0110895B4
:102420000F931F93CF93DF93EC010E944D016887B8
:1024300079878A879B87E881F9810680F781E02D7B
:10244000CE01099597FF17C00E944D010885198597
:102450002A853B85DC01CB01801B910BA20BB30BC2
:102460000C811D812E813F8180179107A207B30740
:1024700010F38FEF9FEFDF91CF911F910F91089590
:102480000F931F93CF93DF93EC010E944D01688758
:1024900079878A879B87E881F9810084F185E02D1F
:1024A000CE01099597FF17C00E944D010885198537
:1024B0002A853B85DC01CB01801B910BA20BB30B62
:1024C0000C811D812E813F8180179107A207B307E0
:1024D00010F38FEF9FEFDF91CF911F910F91089530
:1024E0000F931F93CF93DF93EC01162F042FCE0190
:1024F0000E9440129C0197FD0BC08D32910541F066
:10250000C0970A9728F0002329F02E32310511F4E4
:10251000C9011BC01130B9F0123069F42D303105FA
:1025200051F034F4295031092230310520F00BC02C
:102530002032310541F4E881F9810680F781E02DF0
:10254000CE010995D4CF8FEF9FEFDF91CF911F91EF
:102550000F910895FC014483558366837783089522
:102560008F929F92AF92BF92CF92DF92FF920F9382
:102570001F93CF93DF9300D000D0CDB7DEB78C018F
:10258000B42E40E00E947012FC0197FD4BC020E089
:1025900030E0A901F12CCB2CD12CEC15FD05F1F08C
:1025A000ED32F105C9F0CF01C0970A97B8F4AAE05F
:1025B000B0E00E94862D4F01FF0FAA08BB08DC0186
:1025C000CB01880D991DAA1DBB1D9C01AD01205397
:1025D00031094109510902C0FF24F394D801ED915A
:1025E000FC910680F781E02DC80129833A834B8353
:1025F0005C830995C8010E944012FC01C0972981A3
:102600003A814B815C810A9740F2EC15FD0529F275
:10261000FF2061F066277727CB01621B730B840BC9
:10262000950B06C060E070E0CB0102C0CA01B901A1
:102630000F900F900F900F90DF91CF911F910F91FE
:10264000FF90DF90CF90BF90AF909F908F900895B4
:102650004F925F926F927F92AF92BF92CF92DF9232
:10266000EF92FF920F931F93CF93DF935C01042FA0
:1026700041E00E947012FC0197FD6CC0412C512C6E
:1026800080E8682E8FE3782EC12CD12C7601C0E033
:10269000D0E010E0E017F10769F1ED32F10539F112
:1026A000EE32F10531F1CF01C0970A9718F5AAE093
:1026B000B0E0A70196010E94862D6F01FF0FEE0882
:1026C000FF08C60ED71EE81EF91E80E3C81AD108FF
:1026D000E108F108CC2371F02DEC3CEC4CEC5DE30F
:1026E000C301B2010E94772F2B013C0103C0D1E04E
:1026F00001C0C1E0D501ED91FC910680F781E02D8C
:10270000C5010995C5010E944012FC01C0970A97B6
:1027100008F2EE32F10519F4CC2309F4BBCFE0172F
:10272000F10709F4B7CFC701B601DD2339F0909561
:102730008095709561957F4F8F4F9F4FCC2339F0D7
:102740000E94C22EA30192010E94772F06C00E9410
:10275000C22E03C060E070E0CB01DF91CF911F91EA
:102760000F91FF90EF90DF90CF90BF90AF907F9050
:102770006F905F904F900895CF92DF92EF92FF920B
:102780000F931F93CF93DF936C017A018B01C0E00D
:10279000D0E0CE15DF0561F0C6010E94101297FF50
:1027A00002C07E0105C0F80181938F012196F1CF0F
:1027B000C701DF91CF911F910F91FF90EF90DF90B4
:1027C000CF900895AF92BF92CF92DF92EF92FF9297
:1027D0000F931F93CF93DF9321153105C9F0790132
:1027E0005C016A01C0E0D0E0062F10E0C5010E9444
:1027F000101297FF02C0CE010DC080179107D9F3C8
:10280000F60181936F012196CE15DF0579F7F3CF9D
:1028100080E090E0DF91CF911F910F91FF90EF90BA
:10282000DF90CF90BF90AF9008950F931F93CF93F9
:10283000DF93EC018B0163ED70E00E945708C80143
:102840000E94101297FD05C0682FCE010E94890AD0
:10285000F6CFCE01DF91CF911F910F910895EF92A6
:10286000FF920F931F93CF93DF93EC017B01042F13
:1028700063ED70E00E945708C7010E94101210E03B
:1028800097FD0BC08017910741F0682FCE010E9481
:10289000890AC7010E941012F3CFCE01DF91CF91B8
:1028A0001F910F91FF90EF9008954F925F926F925A
:1028B0007F928F929F92AF92BF92CF92DF92EF92D0
:1028C000FF920F931F93CF93DF938C01EB0186E070
:1028D000849F4001859F900C1124860E971EFB015A
:1028E000E815F905F8F482819381892B11F1369668
:1028F000F7CF6081718144815581DB01A40FB51F41
:102900002C9130E08217930711F54F5F5F4F55838D
:102910004483228133814217530759F03696E815D4
:10292000F90538F3C8010E94101297FD44C0FE015A
:10293000F6CFEC1BFD0BF595E7952BEA3AEAE29F03
:10294000C001E39F900DF29F900D112436C04115F8
:10295000510521F3C480D58096012150310935837A
:102960002483DB01A20FB31FAC91B0E08A179B0751
:10297000F9F421153105C9F05B017A01E21AF30A75
:10298000E60EF71E412C512CD5016D905D01D7014B
:102990007D907D01671006C0BFEF4B1A5B0A42169F
:1029A000530690F342165306A9F6D582C482B6CFD9
:1029B000232B81F6B3CF8FEF9FEFDF91CF911F9144
:1029C0000F91FF90EF90DF90CF90BF90AF909F90CE
:1029D0008F907F906F905F904F900895CF93DF938B
:1029E00000D000D000D0CDB7DEB7FE01319626E092
:1029F000DF011D922A95E9F77A8369835C834B8313
:102A000041E050E0BF010E94551421E0892B09F0FC
:102A100020E0822F26960FB6F894DEBF0FBECDBF02
:102A2000DF91CF9108950C94EE14FB0101900020EA
:102A3000E9F73197AF01461B570B0C94EE14FF9248
:102A40000F931F93CF93DF93CDB7DEB72C970FB6BD
:102A5000F894DEBF0FBECDBF2115310521F40E94D1
:102A6000EE14282F19C0FE013196ACE0FA2EDF01DA
:102A70001D92FA94E9F77A8369835C834B833887E4
:102A80002F831A87098742E050E0BF010E94551446
:102A900021E0892B09F020E0822F2C960FB6F894C4
:102AA000DEBF0FBECDBFDF91CF911F910F91FF9081
:102AB00008950F931F939A01FA0101900020E9F7FE
:102AC00031978F01041B150BFB0101900020E9F7E2
:102AD0003197AF01461B570B0E941F151F910F9195
:102AE0000895FC01108221E021830895FC01628396
:102AF0000895FC015081442349F081E090E001C039
:102B0000880F6A95EAF7852B808309C021E030E0C1
:102B100001C0220F6A95EAF7209525232083808142
:102B2000581711F081E081830895CF93DF93EC0172
:102B30008A8121E0AE0160E08F5F0E947507888185
:102B4000DF91CF910895CF93DF93FC012181222360
:102B500041F0EC0141E050E0BC0182810E94CD06D1
:102B60001982DF91CF910895CF92DF92EF92FF9279
:102B70000F931F93CF93DF936C01EB017B01E40E66
:102B8000F51E00E010E0CE15DF0561F06991D60179
:102B9000ED91FC910190F081E02DC6010995080F9F
:102BA000191FF1CFC801DF91CF911F910F91FF90B5
:102BB000EF90DF90CF900895EF92FF920F931F93C5
:102BC000CF93DF937C01FB0100E010E06491EF0103
:102BD0002196662361F0D701ED91FC910190F0817F
:102BE000E02DC7010995080F191FFE01EFCFC8019D
:102BF000DF91CF911F910F91FF90EF900895DC012D
:102C0000ED91FC91DB0114964D915C9115976D91BE
:102C10007C910280F381E02D09940C94252DDC0138
:102C2000ED91FC910190F081E02D0994DB01ED9193
:102C3000FC9111970190F081E02DBC01CD01099428
:102C40000F931F93CF93DF93EC016DE00E940F165B
:102C50008C016AE0CE010E940F16800F911FDF9158
:102C6000CF911F910F9108950F931F93CF93DF93EF
:102C7000EC010E94DC158C01CE010E942016800F11
:102C8000911FDF91CF911F910F9108950F931F9383
:102C9000CF93DF93EC010E94FF158C01CE010E94BF
:102CA0002016800F911FDF91CF911F910F910895F2
:102CB0000F931F93CF93DF93EC010E94252D8C017E
:102CC000CE010E942016800F911FDF91CF911F919E
:102CD0000F9108950F931F93CF93DF93EC010E9400
:102CE0000F168C01CE010E942016800F911FDF91DC
:102CF000CF911F910F9108950F931F93CF93DF935F
:102D0000EC010E9416168C01CE010E942016800F45
:102D1000911FDF91CF911F910F9108958F929F92F4
:102D2000AF92BF92CF92DF92EF92FF920F931F93D9
:102D3000CF93DF93CDB7DEB7A1970FB6F894DEBF80
:102D40000FBECDBF6C01142FE52FCB01022F19A2AE
:102D5000223008F40AE07E0121E2E20EF11C802E0E
:102D6000912CA12CB12C612F7E2FA50194010E94E2
:102D7000642D029F1019112481E0E81AF1081A301D
:102D800010F4105D01C0195CF7011083122FE32FBE
:102D9000CA01232B242B252B31F7B701C6010E9432
:102DA000252DA1960FB6F894DEBF0FBECDBFDF91E3
:102DB000CF911F910F91FF90EF90DF90CF90BF9038
:102DC000AF909F908F900895CF92DF92EF92FF92F5
:102DD0000F931F93CF93DF93EC016A017B012115C1
:102DE000310579F4E881F9810190F081E02D642FBB
:102DF000DF91CF911F910F91FF90EF90DF90CF90D7
:102E000009942A303105E9F477FF1AC06DE20E9477
:102E10000F168C0144275527BA014C195D096E091C
:102E20007F092AE0CE010E948E16800F911FDF914C
:102E3000CF911F910F91FF90EF90DF90CF90089569
:102E40002AE0B701A601CE01DF91CF911F910F912A
:102E5000FF90EF90DF90CF900C948E169A01AB010B
:102E6000770F660B770B0C94E4160F931F93CF9399
:102E7000DF93EC019A01AB01770F660B770B0E9491
:102E8000E4168C01CE010E942016800F911FDF9165
:102E9000CF911F910F9108950F931F93CF93DF93BD
:102EA000EC010E94E4168C01CE010E942016800FD6
:102EB000911FDF91CF911F910F9108952115310539
:102EC00041F4DC01ED91FC910190F081E02D642F43
:102ED00009940C948E169A01462F50E060E070E041
:102EE0000C945E170F931F93CF93DF93EC019A011D
:102EF000462F50E060E070E00E945E178C01CE012A
:102F00000E942016800F911FDF91CF911F910F918A
:102F100008959A01AB0160E070E00C945E170F9386
:102F20001F93CF93DF93EC019A01AB0160E070E057
:102F30000E945E178C01CE010E942016800F911F07
:102F4000DF91CF911F910F9108950F931F93CF930E
:102F5000DF93EC010E945E178C01CE010E942016C7
:102F6000800F911FDF91CF911F910F9108954F9284
:102F70005F926F927F928F929F92AF92BF92CF9209
:102F8000DF92EF92FF92CF93DF93EC016A017B0116
:102F9000B22E9A01AB01C701B6010E94E42F88232B
:102FA00019F060E970E027C026013701E89477F84E
:102FB0002FEF3FEF4FE75FE7C301B2010E94E42F1D
:102FC00081110DC02FEF3FEF4FE75FE7C301B20163
:102FD0000E94132E18161CF464E970E00CC02FEF49
:102FE0003FEF4FE75FE4C701B6010E94722F18164A
:102FF0009CF468E970E0CE01DF91CF91FF90EF90F3
:10300000DF90CF90BF90AF909F908F907F906F9008
:103010005F904F900C94252D2FEF3FEF4FE75FEC23
:10302000C701B6010E94132E87FDE3CF20E030E0F8
:10303000A901C701B6010E94132E87FF0AC06DE2E5
:10304000CE010E940F164C01F7FAF094F7F8F094B5
:1030500002C0812C912CA12C60E070E080E09FE305
:10306000AB1441F020E030E040E251E40E94182E21
:10307000A394F6CF9B01AC01C701B6010E94A72D16
:103080002B013C010E94912E6B017C010E94C02EFD
:103090009B01AC01C301B2010E94A62D2B013C0192
:1030A0002AE0B701A601CE010E948E167C01E80C31
:1030B000F91CBB2039F062ED70E0CE010E94252D95
:1030C000E80EF91EDB2CDD2039F120E030E040E293
:1030D00051E4C301B2010E94772F2B013C010E94F1
:1030E0008A2E4B01770FAA08BB082AE030E0B50111
:1030F000A401CE010E94E416E80EF91EC501B40138
:103100000E94C22E9B01AC01C301B2010E94A62DF8
:103110002B013C01DA94D7CFC701DF91CF91FF900B
:10312000EF90DF90CF90BF90AF909F908F907F9067
:103130006F905F904F9008950C94B7170F931F9363
:10314000CF93DF93EC010E94B7178C01CE010E9450
:103150002016800F911FDF91CF911F910F9108953D
:10316000FC0116820895FC011082118213821282E2
:10317000158281E086831482089580EC0E949F0767
:1031800091E0811101C090E0892F0895CF93DF93E2
:10319000EC011D8221E0AC0161E080EC0E9475072A
:1031A00081E08D83DF91CF910895CF93DF93FC0170
:1031B0002681222341F1EC018581811103C0CF01D9
:1031C0000E94C6180E949B07882321F00E949D0739
:1031D000883F11F0898118C0288130E01D828C81E0
:1031E000882371F08A819B81280F391F2F3F310579
:1031F0001CF02F5F310904C037FF02C021503F4F40
:10320000822F298301C080E0DF91CF9108951F9321
:10321000CF93DF93FC012681222309F1EC01138275
:103220001282148215E62A813B812115310579F439
:10323000CE010E94D51890E09B838A836AE070E0FB
:1032400080E090E00E945901115069F708C080E8C1
:1032500090E0821B930B9B838A8381E08C83DF91B8
:10326000CF911F910895FC01208130E0FB01318353
:103270002083FC01158281E00895FC018681089578
:10328000FC01108208950F931F93CF93DF9300D01A
:10329000CDB7DEB7FC012081222309F465C08C0183
:1032A0008781882311F0833089F40E949907883F31
:1032B00009F058C041E560E0F80181810E944007B3
:1032C00081E0F80187838381948150C00E949B072D
:1032D000882309F447C0AE014F5F5F4F60E0F801FB
:1032E00081810E9453070E949907F801883F59F78E
:1032F00089818F3F41F38781813079F422E0AE01EB
:103300004F5F5F4F62E081810E9475070E949907BD
:10331000883F41F582E0F8018783F8018781823098
:10332000C1F4898190E0982F88272A81820F911D0E
:1033300094838383009729F4858196819483838382
:1033400005C0019719F4F8011482138283E0F80193
:103350008783F8018781833029F41782C8010E948E
:10336000431904C0F801AFCF80E090E00F900F90B8
:10337000DF91CF911F910F910895AF92BF92CF929D
:10338000DF92EF92FF920F931F93CF93DF9300D0C2
:1033900000D0CDB7DEB7FC012081222361F17C0192
:1033A00080EA89838AEA8A8385EA8B83062F10E084
:1033B000C80180599F4F880F8C83CE0101966C0104
:1033C0005E0195E0A90EB11CF60141916F0160E02C
:1033D000F70181810E944007FFEF20E782E0F15072
:1033E00020408040E1F700C00000CA14DB0461F710
:1033F000F701128301830F900F900F900F90DF91D0
:10340000CF911F910F91FF90EF90DF90CF90BF90E1
:10341000AF900895FC0180810895462F603208F036
:103420004FE161E0FC0181810C944007FC019B01AC
:10343000CB016AE070E00E94502D76836583C9015C
:103440006BE270E00E94502DAB01415051094F3F9B
:10345000510519F010F04FEF50E062E081810C94BB
:1034600040070F931F93CF93DF931F92CDB7DEB723
:103470008C0170E060597F4F660F771FF8017283EF
:1034800061831482138216821582178260E0C8015C
:103490000E940D1AFFEF21EE84E0F15020408040A1
:1034A000E1F700C000006FE37AE0C8010E94161A3D
:1034B0009FEFE1EEF4E09150E040F040E1F700C012
:1034C00000000E949907AE014F5F5F4F60E0F80176
:1034D00081810E9453070E949907883F61F4FFEFA2
:1034E00020E782E0F15020408040E1F700C000007A
:1034F00081E0F80180830F90DF91CF911F910F91B0
:103500000895FC019081992339F081810E949F07E1
:1035100091E0811101C090E0892F089541E064E0BD
:1035200080913702909138020E947915809137027C
:10353000909138020E94A31585E08A95F1F700006A
:1035400040E064E080913702909138020E94791542
:1035500080913702909138020C94A315CF93C82F15
:103560008091370290913802662311F041E001C04A
:1035700040E066E00E947915809137029091380210
:103580000E94A31540E065E08091370290913802D7
:103590000E94791580913702909138020E94A315FC
:1035A00040E060E080913702909138020E947915E6
:1035B00040E061E080913702909138020E947915D5
:1035C00040E062E080913702909138020E947915C4
:1035D00040E063E080913702909138020E947915B3
:1035E000C7FF08C041E060E0809137029091380247
:1035F0000E947915C6FF08C041E061E08091370262
:10360000909138020E947915C5FF08C041E062E040
:1036100080913702909138020E947915C4FF08C04A
:1036200041E063E080913702909138020E94791561
:1036300080913702909138020E94A3150E948E1A41
:1036400040E060E080913702909138020E94791545
:1036500040E061E080913702909138020E94791534
:1036600040E062E080913702909138020E94791523
:1036700040E063E080913702909138020E94791512
:10368000C3FF08C041E060E08091370290913802AA
:103690000E947915C2FF08C041E061E080913702C5
:1036A000909138020E947915C1FF08C041E062E0A4
:1036B00080913702909138020E947915C0FF08C0AE
:1036C00041E063E080913702909138020E947915C1
:1036D00080913702909138020E94A3150E948E1AA1
:1036E00041E063E080913702909138020E947915A1
:1036F00041E062E080913702909138020E94791592
:1037000041E061E080913702909138020E94791582
:1037100041E060E080913702909138020E94791573
:103720008091370290913802CF910C94A31595E1C6
:103730009A95F1F7000060E00C94AE1A95E19A9525
:10374000F1F7000061E00C94AE1A611102C08058DC
:1037500001C080540C94971B85E18A95F1F7000015
:1037600080E090E0089581E00C94971B82E00C9437
:10377000971B95E19A95F1F700008A3019F480ECD7
:103780000C94971B61E00C94AE1ACF93DF93EC017D
:103790008991882319F00E94B91BFACFDF91CF914C
:1037A0000895CF93DF93FC018491EF012196882344
:1037B00021F00E94B91BFE01F7CFDF91CF91089550
:1037C000CF93C82F70933802609337028FEF99EF31
:1037D0000197F1F700C0000041E062E080913702FC
:1037E000909138020E94791541E063E080913702A0
:1037F000909138020E947915809137029091380299
:103800000E94A3150E948E1A8FE19EE40197F1F7A2
:1038100000C000000E948E1A8FEF90E00197F1F730
:1038200000C000000E948E1A8FEF90E00197F1F720
:1038300000C0000040E063E08091370290913802C0
:103840000E94791580913702909138020E94A31549
:103850000E948E1A8FEF90E00197F1F700C00000F0
:1038600088E20E94971B88E00E94971B0E94B31B6E
:1038700086E00E94971B8C2FCF910C94971B909100
:103880003B02891302C0AF9804C0811102C091119C
:10389000AF9A90913C02891302C0AE9804C0811186
:1038A00002C09111AE9A90913D02891302C0AD9869
:1038B00004C0811102C09111AD9A90913E0289130A
:1038C00002C0AC9804C0811102C09111AC9A9091D1
:1038D0003F02891302C0949804C0811102C0911163
:1038E000949A90914002891302C0959804C0811166
:1038F00002C09111959A90914102891302C0969845
:1039000004C0811102C09111969A909142028913CC
:1039100002C097980895811102C09111979A089555
:1039200080915B028330B8F08091500290B323B352
:10393000E82FF0E0EF5AFD4F22952F70907F922BE9
:1039400090838F5F8B3018F48093500202C01092E6
:10395000500210925B0280915B028F5F80935B024A
:10396000089580914902882371F020914F0290E0E0
:10397000820F911D20914D0230914E0282179307C4
:1039800010F0C09A01C0C09880914A02882371F05B
:1039900020914F0290E0820F911D20914D023091B5
:1039A0004E028217930710F0C19A01C0C19880910E
:1039B0004B02882371F020914F0290E0820F911DFD
:1039C00020914D0230914E028217930710F0C29A57
:1039D00001C0C29880914C02882371F020914F025F
:1039E00090E0820F911D20914D0230914E0282177E
:1039F000930710F0C39A01C0C398809147028823AF
:103A000071F020914F0290E0820F911D20914D02A4
:103A100030914E028217930710F0A89A01C0A8981F
:103A200080914802882371F020914F0290E0820F2C
:103A3000911D20914D0230914E028217930710F094
:103A4000979A01C0979880914D0290914E020097ED
:103A500031F480914F0290E081509F4F01C0019757
:103A600090934E0280934D0208951F920F920FB6CD
:103A70000F9211242F933F934F935F936F937F93F4
:103A80008F939F93AF93BF93EF93FF9380914602E1
:103A9000811104C00E94B11C81E003C0813021F477
:103AA00082E08093460216C0109246028091440242
:103AB000909145028830924021F410924502109274
:103AC00044028091440290914502019690934502F0
:103AD000809344020E943001FF91EF91BF91AF911A
:103AE0009F918F917F916F915F914F913F912F9116
:103AF0000F900FBE0F901F90189520914302809158
:103B0000390290913A02222359F020914302213048
:103B100011F40B9605C020914302223049F44696D9
:103B20000E94ED11809143028F5F809343020895BC
:103B300081960E94ED111092430208954F925F9278
:103B40006F927F928F929F92AF92BF92CF92DF92AD
:103B5000EF92FF920F931F93CF93DF93EC018C01B1
:103B60006C018CE2C80ED11CC8010E942911055FAE
:103B70001F4F0C151D05C1F7C8010E94AB07CE01F0
:103B8000C0960E94B0188E01095C1F4F6E01E7E5D8
:103B9000CE0ED11CC8010E944019085F1F4F0C15A2
:103BA0001D05C1F7F8011382168215828EE190E09F
:103BB0009087878388E691E00E940930F80191831D
:103BC000808384E5FE01E75AFF4F8083CE01805A4F
:103BD0009F4F0E94EC208E010F591F4F6E01F1E99B
:103BE000CF0ED11CC8010E94D622045F1F4F0C15B6
:103BF0001D05C1F7C6010E9471155E0184E9A80E7A
:103C0000B11CC5010E9471150E94880184E690E0F4
:103C10000E9421060E948B05FE01E756FF4F10828D
:103C200062E087E10E948F0161E087E10E94CB01A1
:103C3000FE01E956FF4F108262E088E10E948F0189
:103C400061E088E10E94CB01FE01E856FF4F10823F
:103C500004E710E038E0932E900E62E0F8018191C5
:103C60008F010E948F019012F8CF00E810E028E049
:103C7000922E900E60E0F80181918F010E948F01D9
:103C80009012F8CF62E084E00E948F0162E085E04C
:103C90000E948F0162E086E00E948F0162E087E06F
:103CA0000E948F0161E08FE00E948F0161E080E15E
:103CB0000E948F0160E7C5010E9476156EE7C6017C
:103CC0000E94761580E7482E80E0582E3E0199E448
:103CD000892E92E0992EC12CD12CF20121912F0135
:103CE000F601E859FF4F7401850141816081C301EC
:103CF0000E945111F2E0CF0ED11C8BE0680E711CB6
:103D0000EFEF8E1A9E0AF8E0CF16D10431F7109229
:103D1000470210924802EBE3F2E088E08E0F119226
:103D20008E13FDCFD0933A02C0933902DF91CF9129
:103D30001F910F91FF90EF90DF90CF90BF90AF90C9
:103D40009F908F907F906F905F904F9008950F930A
:103D50001F93CF93DF938C01C0E0D0E060E070E070
:103D6000C8018C0F9D1F0E9473112B96CC32D10578
:103D7000A9F7DF91CF911F910F91089577FF03C0AD
:103D80007195619571096F3F710519F014F06FEF2E
:103D900070E060934F020895FF920F931F93CF93AB
:103DA000DF936230A8F48C01C62FD0E0FE01EA59FF
:103DB000FF4FF08061E08F2D0E948F0161E08F2D19
:103DC0000E94CB01C00FD11FC956DF4F81E088830D
:103DD000DF91CF911F910F91FF900895EF92FF9285
:103DE0000F931F93CF93DF936230E8F4142F7C017D
:103DF000C62FD0E0FE01EA59FF4F008161E0802F1D
:103E00000E948F01CE0DDF1DC956DF4F91E09883D0
:103E1000612F6927802FDF91CF911F910F91FF9024
:103E2000EF900C94CB01DF91CF911F910F91FF90F8
:103E3000EF900895442349F0623070F4E62FF0E0EB
:103E4000E95BFD4F8FEF80830895623028F4E62F01
:103E5000F0E0E95BFD4F10820895623028F4E62F10
:103E6000F0E0E95BFD4F408308951F93CF93DF930C
:103E7000162FC42FD0E0FE01EC58FF4F61E0808187
:103E80000E948F01612F70E080E090E00E94C22EBE
:103E900021EA30EA40E25EE30E94772F0E94912EF1
:103EA000C55CDD4F693208F068E26C5E6883DF91C3
:103EB000CF911F910895CF93DF93C62FD0E0FE01DD
:103EC000EC58FF4F62E080810E948F01C55CDD4F9E
:103ED0001882DF91CF9108950F931F93CF93DF93B3
:103EE000623060F5E62FF0E08E0F9F1FEC01C9569F
:103EF000DF4F8881EA59FF4F8823B1F01081812F6D
:103F00000E94E801082F60E0812F0E948F01188233
:103F1000812F0E94E801C1E0892B09F0C0E0602FE9
:103F2000812F0E94CB0107C080810E94E801C1E07F
:103F3000892B09F0C0E08C2F817001C080E0DF91F7
:103F4000CF911F910F9108950F931F93CF938C01E1
:103F5000C62F623060F46C2FC8010E946C1F88234A
:103F6000D1F36C2FC8010E946C1F8111FACFCF9141
:103F70001F910F910895683070F4E62FF0E0E0583B
:103F8000FF4F80810E94980597FD03969595879530
:103F900095958795089580E008951F93CF93DF93BB
:103FA0001F92CDB7DEB7643098F06C3000F58F56B5
:103FB0009F4F69830E94951590E06981ECEFE60FB1
:103FC00002C095958795EA95E2F7282F217010C0D9
:103FD000E62FF0E0E458FF4F108162E0812F0E944D
:103FE0008F01812F0E94E80121E0892B09F020E058
:103FF000822F0F90DF91CF911F9108950F931F9300
:10400000CF93DF931F92CDB7DEB76430A0F4E62FD5
:10401000F0E0E458FF4F108161E0812F49830E9456
:104020008F014981642F812F0F90DF91CF911F91D4
:104030000F910C94CB016C3078F48C010F561F4F0C
:104040006450C8010E947915C8010F90DF91CF918B
:104050001F910F910C94A3150F90DF91CF911F9199
:104060000F910895CF93DF93D62FE62FF0E0EC5811
:10407000FF4FC08162E08C2F0E948F01D83030F456
:104080008C2F0E94E80121E0892B09F020E0822F8B
:10409000DF91CF910895FB0180819181A281B3814D
:1040A0000097A105B10539F08F3F9105A105B10534
:1040B00009F018F4089580E008958FEF0895EF92C5
:1040C000FF920F931F93CF93DF9300D000D0CDB713
:1040D000DEB77C01062FE62FF0E0EC58FF4F108191
:1040E00062E0812F0E948F01083098F42CED35E0BA
:1040F00040E050E060E0812F0E94E80469837A8309
:104100008B839C83BE016F5F7F4FC7010E944B2052
:1041100001C080E00F900F900F900F90DF91CF9132
:104120001F910F91FF90EF9008950F931F93CF93DE
:10413000DF9300D000D0CDB7DEB76430C0F48C017F
:10414000E62FF0E0E458FF4F2CED35E040E050E082
:1041500060E080810E94E80469837A838B839C837A
:10416000BE016F5F7F4FC8010E944B2001C080E0FD
:104170000F900F900F900F90DF91CF911F910F91A3
:1041800008951F93CF93DF93EC01AC9664EA70E03F
:10419000CE010E94581612E0812F0E949F078823AB
:1041A00081F068EB70E0CE010E940D1640E150E016
:1041B000612FCE010E946B1763EC70E0CE010E946C
:1041C00058161E5F143F41F76AEC70E0CE01DF9194
:1041D000CF911F910C945816FC0110820895CF9333
:1041E000DF93EC0141E060E089E60E94400760ED6A
:1041F00077E080E090E00E94590181E08883DF91C0
:10420000CF910895CF93DF9300D0CDB7DEB7FC01F7
:104210008081882369F01A82198222E0AE014F5F03
:104220005F4F60E089E60E94750789819A8102C02C
:1042300080E090E00F900F90DF91CF910895FC0106
:104240008081089589E60E949F0791E0811101C055
:1042500090E0892F0895CF93DF931F92CDB7DEB7FB
:10426000FC018081882359F019826E5F21E0AE0144
:104270004F5F5F4F89E60E947507898101C080E02A
:104280000F90DF91CF910895462FFC018081882304
:1042900021F061E089E60C94400708958091900236
:1042A00090E020919102821B9109089590919102D2
:1042B00080919002981750F4E92FF0E0EE56FD4FF0
:1042C000208130E09F5F9093910202C02FEF3FEF7B
:1042D000C9010895E091910280919002E81730F4AD
:1042E000F0E0EE56FD4F808190E008958FEF9FEF54
:1042F00008950895AC01E0916802F0916902309749
:10430000E1F090919102809190029817B0F090E0C6
:10431000292F30E02617370754F4DA01A20FB31F14
:104320008C91D901AE56BD4F8C939F5FF1CF109207
:10433000910260939002CB0109940895E0916A0282
:10434000F0916B02309729F010926E0210926D027C
:1043500009940895CF92DF92EF92FF920F931F93EB
:10436000CF93DF937C01262F972F8A0180916C02D7
:10437000882391F0C62FD72F6E01C40ED51ECC1501
:10438000DD0571F06991D701ED91FC910190F0810B
:10439000E02DC7010995F3CF642F822F0E947D0382
:1043A000C801DF91CF911F910F91FF90EF90DF90A7
:1043B000CF900895CF93DF931F92CDB7DEB7698377
:1043C00020916C022223D1F020916D02203240F026
:1043D00021E030E0FC013383228380E090E015C0CF
:1043E00080916E02E82FF0E0E159FD4F99819083B2
:1043F0008F5F80936E0280936D0205C061E0CE01F5
:1044000001960E947D0381E090E00F90DF91CF91B3
:104410000895FC011382128288EE93E0A0E0B0E0E0
:1044200084839583A683B78388ED90E0918380830E
:104430000895109291021092900210926E021092C2
:104440006D020C94AE02CF93DF93EC01862F0E9495
:10445000CF028EE991E20E94AA038AE791E20E94CC
:10446000A503CE01DF91CF910C9419220C94232245
:104470000C94C402CB01BA010C94D20281E0809367
:104480006C0260938F0210926E0210926D0208957A
:104490000C943E220F93062F21E040916D026FE6AF
:1044A00072E080918F020E942A0310926E02109295
:1044B0006D0210926C020F9108954F925F926F926D
:1044C0007F92AF92BF92CF92EF92FF920F931F9382
:1044D000CF93DF935C01F62ED42F28013901EE2013
:1044E00021F10E943E22CE2DC43008F0C3E0C1501D
:1044F000C0F0D501ED91FC91B8E0CB9FC001112433
:10450000A301920104C056954795379527958A9542
:10451000D2F7CA01B9010190F081E02DC5010995DA
:10452000E6CF60E0C5010E944A224D2FD13208F04B
:1045300040E22C2D62E972E08F2D0E94E50210927C
:10454000910280939002DF91CF911F910F91FF9084
:10455000EF90CF90BF90AF907F906F905F904F9013
:104560000895CF92EF920F931F93C22EE12C00E09B
:1045700010E098010E945D221F910F91EF90CF9063
:10458000089521E00C94B12221E00C94B1220C9406
:10459000B12261E00C944A22709369026093680230
:1045A000089570936B0260936A020895FC0189E29A
:1045B00081831382128214820895FC018481148203
:1045C00008959C013327A90102C0440F551F9A95F5
:1045D000E2F7CA01019608950F931F930097C9F05F
:1045E000AC014150510960E070E080E090E08A0148
:1045F0009B010027012B022B032B31F07695679549
:10460000579547950196F3CF982F8827842B952BA4
:1046100002C080E090E01F910F9108958F929F92C9
:10462000AF92BF92CF92DF92EF92FF92CF93DF9340
:10463000EC01A62FB0E020E03FE24AE350E00E9408
:10464000862D6C507E4F8F4F9F4F28EEC22E23E059
:10465000D22EE12CF12CA70196010E94642D490174
:104660005A01B694A79497948794DE010E94862DF0
:10467000680D791D8A1D9B1DA70196010E94642D5E
:10468000CA01B901DF91CF91FF90EF90DF90CF90F9
:10469000BF90AF909F908F9008954F925F926F92CE
:1046A0007F928F929F92AF92BF92CF92DF92EF92C2
:1046B000FF924B015C01A42FB0E020E03FE24AE30F
:1046C00050E00E94862D6C507E4F8F4F9F4F28EEFA
:1046D00033E040E050E00E94642D69017A01290135
:1046E0003A017694679457944794A8EEB3E0A501F5
:1046F00094010E94862D640D751D861D971DA701CE
:1047000096010E94642DCA01B901FF90EF90DF90DD
:10471000CF90BF90AF909F908F907F906F905F9061
:104720004F900895EF92FF921F93CF93DF931F92C4
:10473000CDB7DEB77C01162FFC0161818CE592E0DC
:1047400049830E943E22612F8CE592E00E94DA218B
:104750004981642F8CE592E00E94DA218CE592E099
:104760000E94C922F70180830F90DF91CF911F91A2
:10477000FF90EF9008951F93CF93DF93EC01162FD6
:10478000462F4F776AE80E9492231983DF91CF91D9
:104790001F910895CF93DF93EC0141E060E00E9408
:1047A000922341E06FEFCE010E94922340E060E04F
:1047B000CE010E94922340E061E9CE010E94922343
:1047C00041E060E0CE010E94922340E06FEFCE0115
:1047D000DF91CF910C949223CF92DF92EF92FF92D0
:1047E0001F93CF93DF93EC01162F69017A01698142
:1047F0008CE592E00E943E22612F8CE592E00E94BF
:10480000DA214F2D5527662777278CE592E00E9405
:10481000482D4E2D50E060E070E08CE592E00E9463
:10482000482D4D2D50E060E070E08CE592E00E9454
:10483000482DB701A6015527662777278CE592E01A
:104840000E94482D8CE592E00E94C9228883DF9166
:10485000CF911F91FF90EF90DF90CF900895CF926E
:10486000DF92EF92FF921F93CF93DF9300D0CDB7EB
:10487000DEB77C01D62E142FFC0161818CE592E01D
:1048800029835A830E943E226D2D8CE592E00E947E
:10489000DA21C12E5A81D52E2981120F1C1541F023
:1048A000F60161916F018CE592E00E94DA21F6CF6A
:1048B0008CE592E00E94C922F70180830F900F904F
:1048C000DF91CF911F91FF90EF90DF90CF900895EF
:1048D000EF92FF921F93CF93DF9300D0CDB7DEB757
:1048E0007C01162FFC0161818CE592E04A8359839B
:1048F0000E943E22612F8CE592E00E94DA215981CC
:10490000652F8CE592E00E94DA214A81642F8CE5C4
:1049100092E00E94DA218CE592E00E94C922F70120
:1049200080830F900F90DF91CF911F91FF90EF90B8
:104930000895CF92DF92EF92FF92CF93DF93EC0135
:104940006A017B0120E030E0A901C701B6010E94A5
:10495000132E87FD1BC028EB3EEF4FEF53E4C7013A
:10496000B6010E94722F18168CF020E030E040E073
:1049700053E4C701B6010E94772F0E94912EAB012C
:1049800064E4CE010E94682481E001C080E0DF91F0
:10499000CF91FF90EF90DF90CF9008951F93CF932A
:1049A000DF93EC01162F69818CE592E00E943E2294
:1049B000612F8CE592E00E94DA218CE592E00E9462
:1049C000C922888341E069818CE592E00E94C1227E
:1049D0008CE592E00E945621DF91CF911F910895BE
:1049E000EF92FF920F931F93CF93DF93EC017B0124
:1049F0008A0141E060E80E94922341E06FEFCE011E
:104A00000E94922340E060E0CE010E94922346E0A3
:104A10006FEFCE010E94922363E8CE010E94CE2464
:104A2000482F446063E8CE010E94922347E06FEF75
:104A3000CE010E94922341E061E8CE010E949223C0
:104A400041E060E8CE010E9492234BE664E9CE018A
:104A50000E94922340E063E8CE010E9492230E94CC
:104A60004D017E836D8363E8CE010E94CE248111C7
:104A700011C08A819B81892BB1F30E944D012D8148
:104A80003E81621B730B8A819B818617970758F7BB
:104A900080E03CC041E063E8CE010E94922362E9DD
:104AA000CE010E94CE24982F9F77F7019083982FF4
:104AB000991F9927991FF801908340E061E8CE0182
:104AC0000E94922346E06FEFCE010E94922363E89A
:104AD000CE010E94CE24482F4B7F63E8CE010E9476
:104AE000922341E06FEFCE010E94922341E060E00B
:104AF000CE010E94922340E06FEFCE010E949223EC
:104B000040E060E8CE010E94922381E0DF91CF91E6
:104B10001F910F91FF90EF900895CF93DF93EB01DA
:104B200061E00E94CE2484FB992790F9988383FB4F
:104B3000992790F99A8382FB992790F9998386FBAC
:104B4000222720F92B83881F8827881F8C83DF91D9
:104B5000CF910895CF93DF93EC01462F416060E041
:104B60000E9492230E944D017E836D8363E1CE01FA
:104B70000E94CE24877089F48A819B81892BB1F3AE
:104B80000E944D012D813E81621B730B8A819B81A6
:104B90008617970758F780E00BC041E06BE0CE0125
:104BA0000E94922340E060E0CE010E94922381E0C7
:104BB000DF91CF910895611102C060E503C06130BB
:104BC00031F460E70E94CE248F5F880F08958FEF45
:104BD00008951F93CF93DF93EC01162F69818CE525
:104BE00092E00E943E22612F8CE592E00E94DA2141
:104BF0008CE592E00E94C922888342E069818CE5BD
:104C000092E00E94C1228CE592E00E945621D82FAA
:104C100080E0C82F8CE592E00E9456218C2B9D2BC2
:104C2000DF91CF911F91089564E40E94E925BC01B2
:104C300080E090E00E94C02E20E030E040E05CE3A5
:104C40000E94772F0895CF92DF92EF92FF92CF9339
:104C5000DF93EC016A017B0141E060E80E9492234E
:104C600041E06FEFCE010E94922340E060E0CE0170
:104C70000E9492234F8161E9CE010E94922341E07C
:104C800060E0CE010E94922340E06FEFCE010E94CF
:104C9000922340E060E8CE010E949223C114D10427
:104CA000E104F104A9F068EFCE010E94E925009724
:104CB00039F0DC01A70196010E94862D6B017C0171
:104CC000A701960164E0CE010E94EC2344E001C0FC
:104CD00042E060E0CE01DF91CF91FF90EF90DF9056
:104CE000CF900C9492230F931F93CF93DF93EC01FB
:104CF0000E944D017E836D8363E1CE010E94CE242C
:104D00008770A1F48A819B81892BB1F30E944D01A8
:104D10002D813E81621B730B8A819B8186179707C9
:104D200058F781E08C838FEF9FEF0BC06EE1CE01CF
:104D30000E94E9258C0141E06BE0CE010E949223A4
:104D4000C801DF91CF911F910F910895CF93DF9309
:104D5000EC0141E060E80E94922341E06FEFCE0158
:104D60000E94922340E060E0CE010E9492234F8196
:104D700061E9CE010E94922341E060E0CE010E94F1
:104D8000922340E06FEFCE010E94922340E060E862
:104D9000CE010E94922341E060E0CE010E94922366
:104DA0000E944D017E836D8360E0CE010E94CE247F
:104DB00080FF16C08A819B81892BB1F30E944D012F
:104DC0002D813E81621B730B8A819B818617970719
:104DD00058F781E08C838FEF9FEFDF91CF9108959B
:104DE000CE01DF91CF910C947326EF92FF920F9337
:104DF0001F93CF93DF938C017B01EA0160E00E9457
:104E0000DB2590E09983888366E4C8010E94CE2464
:104E1000282F30E0C90101969D838C8368810E9410
:104E20000E236A877B878C879D8761E5C8010E9476
:104E3000E9250E94E1229F838E8368810E940E23D0
:104E40006E877F87888B998B60E7C8010E94CE248C
:104E50008F5F880F90E09B838A8361E7C8010E947F
:104E6000E9250E94E12299878887F701238122237F
:104E700031F02E813F81821B930B998788876A814D
:104E8000888599850E940E236A8B7B8B8C8B9D8BEA
:104E9000DF91CF911F910F91FF90EF9008958F9226
:104EA0009F92AF92BF92DF92EF92FF920F931F9368
:104EB000CF93DF93CDB7DEB76B970FB6F894DEBF15
:104EC0000FBECDBF40322EE452076105710508F4D4
:104ED0007AC04A015B017C01BE01695E7F4F0E947E
:104EE0008D25AE014F5F5F4FBE01695E7F4FC701E9
:104EF0000E94F5268F89882349F00B851C852D8516
:104F00003E850A5C144F2F4F3F4F04C008EE18E057
:104F100020E030E0898D882369F08B859C85AD8504
:104F2000BE858E549D4FAF4FBF4F880F991FAA1F4C
:104F3000BB1F0BC0888D882361F08B859C85AD8558
:104F4000BE858C569D4FAF4FBF4F080F191F2A1FAC
:104F50003B1FDA8CDD2061F08F859889A989BA8999
:104F60008C569D4FAF4FBF4F080F191F2A1F3B1F75
:104F70008B8D882331F10A5D1D4F2F4F3F4F8016D7
:104F80009106A206B306F8F0C501B401601B710BCF
:104F9000820B930B4B810E944D239B01DD2021F05E
:104FA0002F813885260F371FC9010E94EC22AC01E2
:104FB00061E7C7010E946824F70180869186A28676
:104FC000B38681E001C080E06B960FB6F894DEBF37
:104FD0000FBECDBFDF91CF911F910F91FF90EF904A
:104FE000DF90BF90AF909F908F900895CF92DF9207
:104FF000EF92FF920F931F93CF93DF93CDB7DEB75E
:105000006B970FB6F894DEBF0FBECDBF8C01BE010B
:10501000695E7F4F0E948D25AE014F5F5F4FBE01DD
:10502000695E7F4FC8010E94F5268F89882359F059
:105030008B859C85AD85BE85BC01CD016C57724FBB
:105040008F4F9F4F04C066E37BE080E090E0298DA6
:10505000222379F0CB84DC84ED84FE8422EBC20E23
:1050600022E0D21EE11CF11CCC0CDD1CEE1CFF1C4E
:105070000DC0288D222371F0CB84DC84ED84FE8466
:10508000E4E9CE0EE2E0DE1EE11CF11C6C0D7D1D9C
:105090008E1D9F1D2A8D222371F0CF84D888E98828
:1050A000FA88F4E9CF0EF2E0DF1EE11CF11C6C0D72
:1050B0007D1D8E1D9F1D2B8D222371F0CB88DC88DA
:1050C000ED88FE8826E2C20E22E0D21EE11CF11C11
:1050D0006C0D7D1D8E1D9F1DF80160877187828775
:1050E00093876B960FB6F894DEBF0FBECDBFDF91EE
:1050F000CF911F910F91FF90EF90DF90CF90089587
:10510000DF92EF92FF920F931F93CF93DF93CDB770
:10511000DEB76B970FB6F894DEBF0FBECDBF8C0124
:10512000D62EF42EE42EE694EA94BE01695E7F4FFB
:105130000E948D25AE014F5F5F4FBE01695E7F4FBC
:10514000C8010E94F526D11044C02EE0F21679F075
:105150002F1528F08CE0F812E7C048E10BC0E0E121
:10516000FE1639F0F2E1FF12DFC040E503C040E374
:1051700001C040E467E5C8010E94922348E066E56B
:10518000C8010E9492234E2D60E5C8010E9492231F
:105190006F85788989899A894F2D0E944D23CB018B
:1051A0000E94EC22AC0161E5C8010E9468246B8575
:1051B0007C858D859E854F2D0E944D234FEF61305C
:1051C00021E0720708F4460F66E4C8010E949223AA
:1051D0008EC081E0D812A8C0EAE0FE16B9F1EF1542
:1051E000F0F0F8E0FF12A0C040E168E4C8010E94BE
:1051F000922348E067E4C8010E94922342E062E300
:10520000C8010E9492234CE060E3C8010E949223EF
:1052100041E06FEFC8010E94922340E342C02CE0BE
:10522000F21629F18EE0F8127FC048E468E4C80164
:105230000E94922348E067E4C8010E94922343E061
:1052400062E3C8010E94922347E021C048E268E47B
:10525000C8010E94922348E067E4C8010E9492239B
:1052600043E062E3C8010E94922349E010C048E392
:1052700068E4C8010E94922348E067E4C8010E94E4
:10528000922343E062E3C8010E94922348E060E376
:10529000C8010E94922341E06FEFC8010E9492234F
:1052A00040E260E3C8010E94922340E06FEFC80132
:1052B0000E9492234E2D60E7C8010E9492236B89C1
:1052C0007C898D899E894F2D0E944D23AB012A8DAB
:1052D000222329F02F813885A901460F571FCA01C3
:1052E0000E94EC22AC0161E7C8010E946824F80129
:1052F0004085518562857385C8010E944F2761E012
:10530000C8010E94CE24F82E42E061E0C8010E944C
:10531000922360E0C8010E94AA254F2D61E0C801D8
:105320000E94922381E001C080E06B960FB6F89452
:10533000DEBF0FBECDBFDF91CF911F910F91FF90C8
:10534000EF90DF900895CF92DF92EF92FF92CF938C
:10535000DF93EC01F62E69818CE592E00E943E22FB
:105360006F2D8CE592E00E94DA218CE592E00E949C
:10537000C922888344E069818CE592E00E94C122C1
:105380008CE592E00E9456216C01990FEE08FF080F
:10539000FC2CEE24DD24CC248CE592E00E945621E6
:1053A000092E000CAA0BBB0BDC0199278827C82A01
:1053B000D92AEA2AFB2A8CE592E00E945621C82FBE
:1053C0008CE592E00E945621092E000CAA0BBB0B23
:1053D000C82AD92AEA2AFB2A40E050E05C2F60E084
:1053E00070E0CB01BA016C297D298E299F29DF91BC
:1053F000CF91FF90EF90DF90CF900895CF92DF9202
:10540000EF92FF920F931F93CF93DF931F92CDB72D
:10541000DEB76C01F62E142F022FFC0161818CE5A2
:1054200092E059830E943E226F2D8CE592E00E940B
:10543000DA218CE592E00E94C922F6018083402F98
:1054400061818CE592E00E94C122E12E5981F52E06
:10545000100F1E1541F08CE592E00E945621F701D5
:1054600081937F01F6CF0F90DF91CF911F910F9124
:10547000FF90EF90DF90CF900895FF920F931F93CE
:10548000CF93DF93CDB7DEB728970FB6F894DEBF82
:105490000FBECDBF8C01662349F069E80E94CE247F
:1054A000482F416069E8C8010E94922340E068E803
:1054B000C8010E94922341E060E8C8010E94922343
:1054C00041E06FEFC8010E94922340E060E0C80114
:1054D0000E94922361E9C8010E94CE24F8018783CB
:1054E00041E060E0C8010E94922340E06FEFC801F4
:1054F0000E94922340E060E8C8010E94922360E687
:10550000C8010E94CE24482F426160E6C8010E9473
:10551000922340E050E060E87EE3C8010E949924B5
:105520004FEF61E0C8010E949223AE01495F5F4FD7
:10553000BE01685F7F4FC8010E94F024811102C044
:10554000F12C31C226E0AE014F5F5F4F60EBC80126
:105550000E94FE2941E06FEFC8010E94922340E0C3
:105560006FE4C8010E9492234CE26EE4C8010E94DD
:10557000922340E06FEFC8010E94922344EB66EB58
:10558000C8010E9492238F81811102C040E001C0B6
:105590004CE0A88580E090E061E070E0282F26953F
:1055A00026952695582F5770E1E0F0E0EC0FFD1F8F
:1055B000E20FF11D841710F09A130AC09B0101C07D
:1055C000220F5A95EAF7209530812323208309C0C2
:1055D000208130E002C0359527955A95E2F720FDED
:1055E0009F5F8F5F8033D1F626E0AE014F5F5F4F44
:1055F00060EBC8010E942F2441E06FEFC8010E94B8
:10560000922340E060E0C8010E94922340E06FEFE7
:10561000C8010E94922340E069E0C8010E949223E1
:1056200040E060E1C8010E94922340E061E1C801CE
:105630000E94922341E064E2C8010E9492234FEF4E
:1056400065E2C8010E94922340E065E7C8010E941C
:10565000922341E06FEFC8010E9492234CE26EE476
:10566000C8010E94922340E068E4C8010E9492238E
:1056700040E260E3C8010E94922340E06FEFC8015E
:105680000E94922349E060E3C8010E94922340E017
:1056900064E5C8010E94922344E061E3C8010E94CE
:1056A000922343E062E3C8010E94922343E860E44E
:1056B000C8010E94922345E266E4C8010E94922339
:1056C00040E060E6C8010E94922340E067E2C80122
:1056D0000E94922346E060E5C8010E94922340E0C8
:1056E00061E5C8010E94922346E962E5C8010E9473
:1056F000922348E066E5C8010E94922340E367E5F3
:10570000C8010E94922340E061E6C8010E949223F2
:1057100040E062E6C8010E94922340E064E6C801CE
:105720000E94922340E065E6C8010E94922340EA6D
:1057300066E6C8010E94922341E06FEFC8010E9413
:10574000922342E362E2C8010E94922344E167E4AB
:10575000C8010E9492234FEF69E4C8010E9492237E
:1057600040E06AE4C8010E94922340E06FEFC80164
:105770000E9492234AE06AE7C8010E94922340E017
:105780006BE7C8010E94922341E268E7C8010E94CA
:10579000922341E06FEFC8010E94922344E363E249
:1057A000C8010E94922340E062E4C8010E94922353
:1057B0004FEF64E4C8010E94922346E265E4C80109
:1057C0000E94922345E066E4C8010E94922340E4CF
:1057D00060E4C8010E94922346E06EE0C8010E9486
:1057E00092234AE160E2C8010E94922340E463E40C
:1057F000C8010E94922340E06FEFC8010E949223EB
:1058000043E064E3C8010E94922344E465E3C801D5
:105810000E94922341E06FEFC8010E94922344E06E
:1058200061E3C8010E94922349E06BE4C8010E9431
:10583000922345E06CE4C8010E94922344E06DE4A9
:10584000C8010E94922340E06FEFC8010E9492239A
:1058500040E064E4C8010E94922340E265E4C8018C
:105860000E94922348E067E4C8010E94922348E224
:1058700068E4C8010E94922340E067E6C8010E94E4
:10588000922344E060E7C8010E94922341E061E76F
:10589000C8010E9492234EEF62E7C8010E94922342
:1058A00040E066E7C8010E94922340E067E7C80134
:1058B0000E94922341E06FEFC8010E94922341E0D1
:1058C0006DE0C8010E94922340E06FEFC8010E9482
:1058D000922341E060E8C8010E94922348EF61E012
:1058E000C8010E94922341E06FEFC8010E949223F9
:1058F00041E06EE8C8010E94922341E060E0C801E7
:105900000E94922340E06FEFC8010E94922340E082
:1059100060E8C8010E94922344E06AE0C8010E9446
:10592000922364E8C8010E94CE24482F4F7E64E889
:10593000C8010E94922341E06BE0C8010E949223BB
:10594000C8010E94F627F8016087718782879387D4
:1059500048EE61E0C8010E949223F801408551851C
:1059600062857385C8010E944F2741E061E0C8014C
:105970000E94922360E4C8010E94AA25882309F4AA
:10598000DFCD42E061E0C8010E94922360E0C801DF
:105990000E94AA25F82E882309F4D2CD48EE61E0B2
:1059A000C8010E9492238F2D28960FB6F894DEBF6F
:1059B0000FBECDBFDF91CF911F910F91FF90089542
:1059C00061E084EE90E00E94CC1E40E061E084EE55
:1059D00090E00E94EE1E84EE90E00E94C12064E6FA
:1059E00070E08FEE90E00E94731164E670E080E05A
:1059F00090E00E94590140E061E084EE90E00E9456
:105A0000EE1E6CE97FEF8FEE90E00E94731164E66A
:105A100070E080E090E00E94590141E0D7CF84EE31
:105A200090E00C949E1D80913B0190913C010E945E
:105A30009E3080E191E00C94D1070C94CC320C9410
:105A4000E2320C943E330C9411336115710579F0F8
:105A5000FB0101900020E9F73197AF01461B570B7E
:105A6000DC01ED91FC910280F381E02D099480E04E
:105A700090E0089580914F0290E081509F4F909365
:105A80004E0280934D0208958CE592E00C94092219
:105A9000DC01ED91FC910190F081E02D642F0994DF
:105AA000AA1BBB1B51E107C0AA1FBB1FA617B70744
:105AB00010F0A61BB70B881F991F5A95A9F7809560
:105AC0009095BC01CD010895A1E21A2EAA1BBB1B23
:105AD000FD010DC0AA1FBB1FEE1FFF1FA217B307BA
