:100000000C94CF010C94F7010C94F7010C94F701B8
:100010000C94F7010C94F7010C94F7010C94F70180
:100020000C94F7010C94F7010C94F7010C940D1A41
:100030000C94F7010C9440040C946C040C94F7019C
:100040000C94F7010C94F7010C94F7010C941A0628
:100050000C94F7011207160716071607160716075E
:100060001607160739061607160716071607160786
:100070001607160739061607160716071607160776
:10008000160716073F061607160716071607160760
:10009000160716076206160716071607160716072D
:1000A000160716073F061607160716071607160740
:1000B0001607160768061607160716071607160707
:1000C000160716076E0616071607160716071607F1
:1000D000160716077F0616071607160716071607D0
:1000E00016071607A506160716071607160716079A
:1000F00016071607740616071607160716071607BB
:10010000160716078B061607160716071607160793
:1001100016071607A8061607160716071607160766
:1001200016071607A8061607160716071607160756
:1001300016071607A8061607160716071607160746
:1001400016071607A8061607160716071607160736
:1001500016071607B006160716071607160716071E
:1001600016071607DE0616071607160716071607E0
:1001700016071607B00616071607160716071607FE
:1001800016071607DE0616071607160716071607C0
:1001900016071607C50616071607160716071607C9
:1001A00016071607E106160716071607160716079D
:1001B00016071607E106160716071607160716078D
:1001C00016071607F6061607160716071607160768
:1001D000160716070D071607160716071607160740
:1001E000160716070D0701020408102040800000C2
:1001F00000000001020408102040800102040810E1
:10020000204080000000804020100804020102020B
:1002100002020202020200000000000404040404BE
:1002200004040403030303030303030000000101A8
:1002300001010101010100003900360033003000E6
:100240000000000000003B003800350032000000D4
:10025000000000003A0037003400310000000000C8
:100260004E414E494E495459494E46CDCCCC3D0A9B
:10027000D7233C17B7D13877CC2B329595E6241F7E
:10028000B14F0A000020410000C84200401C462037
:10029000BCBE4CCA1B0E5AAEC59D7400407A10F30A
:1002A0005A00A0724E18090010A5D4E80000E876A4
:1002B00048170000E40B54020000CA9A3B000000FB
:1002C000E1F505000080969800000040420F000014
:1002D00000A08601000000102700000000E80300D5
:1002E0000000006400000000000A0000000000019F
:1002F00000000000002C76D888DC674F0823DFC19F
:10030000DFAE59E1B1B796E5E3E453C63AE6519959
:100310007696E8E6C28426EB898C9B62ED407C6F82
:10032000FCEFBC9C9F40F2BAA56FA5F490055A2A39
:10033000F75C936B6CF9676DC11BFCE0E40D47FE45
:10034000F520E6B500D0ED902E030094357705003A
:1003500080841E080000204E0A000000C80C3333C1
:1003600033330F986E12831141EF8D2114893BE6D0
:100370005516CFFEE6DB18D1844B381BF77C1D9059
:100380001DA4BBE424203284725E228100C9F124C2
:10039000ECA1E53D270058039D1DEE2561031124C6
:1003A0001FBECFE5D8E0DEBFCDBF11E0A0E6B0E0D4
:1003B000E0E7F0E602C005900D92A637B107D9F745
:1003C00023E0A6E7B1E001C01D92A135B207E1F735
:1003D00011E0CEECD1E004C02197FE010E94292655
:1003E000CB3CD107C9F70E94CF020C942B300C9460
:1003F00000000F931F93CF93DF938330910549F152
:1004000034F48130910559F00297B1F0C3C08530C2
:100410009105C9F15CF1069709F497C0BBC041E0B2
:1004200060E08EED91E00E94BC1B40E061E08EED4B
:1004300091E00E94BC1BAEC040E060E08EED91E018
:100440000E94BC1B40E061E08EED91E00E94BC1B6D
:10045000A1C040E060E08EED91E00E94BC1B41E055
:1004600061E08EED91E00E94BC1B94C041E060E031
:100470008EED91E00E94BC1B41E061E08EED91E0C9
:100480000E94BC1B87C000E010E041E060E08EED00
:1004900091E00E94BC1B41E061E08EED91E00E9482
:1004A000BC1B68EE73E080E090E00E948F0340E0A8
:1004B00060E08EED91E00E94BC1B40E061E08EEDBB
:1004C00091E00E94BC1B68EE73E080E090E00E9427
:1004D0008F0380917601909177011816190674F5B3
:1004E000C02FD12F41E060E08EED91E00E94BC1B57
:1004F00041E061E08EED91E00E94BC1B68EC70E091
:1005000080E090E00E948F0340E060E08EED91E09B
:100510000E94BC1B40E061E08EED91E00E94BC1B9C
:1005200068EC70E080E090E00E948F03219680915B
:10053000760190917701C817D907A4F268EE73E0AD
:1005400080E090E00E948F03A0CF41E060E08EED5C
:1005500091E00E94BC1B40E061E08EED91E00E94C2
:10056000BC1B64E670E080E090E00E948F0340E0F6
:1005700060E08EED91E00E94BC1B41E061E08EEDF9
:1005800091E00E94BC1B64E670E080E090E00E9475
:100590008F03DBCFDF91CF911F910F91089560E022
:1005A0008EED91E00E949C1B61E08EED91E00E9437
:1005B0009C1B83E090E00E94F90188E791E00E9493
:1005C0002D23882369F088E791E00E94472490E07A
:1005D000909377018093760185E090E00E94F90185
:1005E00088E791E00E94D22390E002976CF088E7C0
:1005F00091E00E94472490E09093770180937601E8
:1006000085E090E00E94F90181E090E00E94F9010C
:10061000C0E0D0E062E370E080E090E00E948F03F1
:1006200088E791E00E94952390E08130910581F464
:1006300082E090E00E94F90161EE70E088E791E0CD
:100640000E94252481E090E00E94F901219614C0C7
:10065000892B29F484E090E00E94F9010DC088E71D
:1006600091E00E94472490E0909377018093760177
:1006700085E090E00E94F901C431D10559F688E780
:1006800091E00E94E723811105C086E090E00E947E
:10069000F901C0CF88E791E00E94472490E0909351
:1006A00077018093760185E090E00E94F901B2CF56
:1006B0008EED91E00E94A61A88E791E00E942C231B
:1006C00008958AE092E00E94650A089580911B02D5
:1006D0008F5F80931B028E33A8F080911702909158
:1006E0001802A0911902B0911A020196A11DB11D24
:1006F0008093170290931802A0931902B0931A02E4
:1007000010921B0208952FB7F89460911702709110
:1007100018028091190290911A022FBF08958F92AA
:100720009F92AF92BF92CF92DF92EF92FF924B01D6
:100730005C010E9483036B017C010E948303DC0146
:10074000CB018C199D09AE09BF0988159905AA0529
:10075000BB0598F3FF90EF90DF90CF90BF90AF90E4
:100760009F908F9008958230910538F0880F991FDF
:10077000880F991F05970197F1F70895789481E004
:1007800083BF89B7816089BF0895CF93DF9390E0DD
:10079000FC01EA51FE4F2491FC01E25FFD4F849180
:1007A000882379F190E0880F991FFC01EE5AFD4FE4
:1007B000A591B491FC01EC5BFD4FC591D491611101
:1007C0000CC09FB7F8948C91E22FE0958E238C9308
:1007D0002881E223E8839FBF14C0623061F49FB791
:1007E000F8943C91822F809583238C93E881E22BAF
:1007F000E8839FBF06C08FB7F894EC91E22BEC938F
:100800008FBFDF91CF91089590E0FC01EA51FE4F38
:100810002491FC01E25FFD4F8491882399F0E82F39
:10082000F0E0EE0FFF1FEC5BFD4FA591B49161115D
:1008300006C08C91E22FE095E823EC930895EC91AB
:10084000E22BEC93089590E0FC01EA51FE4F2491D5
:10085000FC01E25FFD4F8491882379F0E82FF0E0FE
:10086000EE0FFF1FEA5CFD4FA591B491EC91E223DE
:1008700081E090E021F480E0089580E090E0089528
:100880001F920F920FB60F9211242F938F939F9365
:10089000EF93FF938BB12CB18871E0911E02EF5F53
:1008A000EF7190911D02E91739F0E0931E02F0E01C
:1008B000EF5DFD4F208301C082E090911C02892BE7
:1008C00080931C02FF91EF919F918F912F910F9038
:1008D0000FBE0F901F9018951F920F920FB60F9298
:1008E00011248F939F93EF93FF9390912002809117
:1008F0001F02981761F0E0911F02EF5FEF71E09324
:100900001F02F0E0EF5BFD4F80818CB901C055986C
:10091000FF91EF919F918F910F900FBE0F901F90BD
:1009200018951092200210921F0210921E0210922F
:100930001D0299231CF422E02BB99F7790BD89B941
:1009400088E98AB986E880BD089590911E02809159
:100950001D02981781F0E0911D02EF5FEF71E093A7
:100960001D02F0E0EF5DFD4F808190911C0210921E
:100970001C0290E0089580E091E00895209120020B
:100980002F5F2F7190911F022917E1F3E22FF0E002
:10099000EF5BFD4F808320932002559A0895CF93FB
:1009A000DF93EC018881882331F021960E94BE04F8
:1009B00089918111FBCFDF91CF910895CF93DF9380
:1009C000EC012196FC018491882339F00E94BE0439
:1009D000FE01849121968111F9CFDF91CF91089585
:1009E0001092CE0281E08093CC021092CB0261E0A3
:1009F00081E10E94040461E080E10E9404040898FF
:100A0000099888E480B985E486BF089586B78A7B13
:100A100086BF60E081E10E94040460E080E10E9402
:100A200004040895880F82B908959B01AC0160E029
:100A300074E284EF90E00E940726DA01C901409732
:100A4000A109B109B695A7959795879580B908959D
:100A5000413208F046C09091CE029111FCCF31E0B6
:100A60003093CE022093CC022FEF2093610210929C
:100A7000A602240F2093A5023093CD022091CD022F
:100A8000880F822B8093CD028091CB02813059F464
:100A90001092CB028091CD0283B906B603FCFACF47
:100AA00085EC86BF02C085EE86BF8091CE02813084
:100AB000E1F38091A602841710F44091A60244232A
:100AC00089F0A7EAB2E0FB018FEF840F90E0019676
:100AD000680F791F8D918193E617F707D9F7942F47
:100AE00001C090E0892F08950F93413208F051C062
:100AF0003091CE023111FCCF92E09093CE02009360
:100B0000CC029FEF909361021092A6024093A5023F
:100B1000442371F0FB01A7EAB2E0415050E04F5F7F
:100B20005F4F640F751F91919D93E617F707D9F7F3
:100B30001092CD029091CD02880F892B8093CD0227
:100B40008091CB02813059F41092CB028091CD027A
:100B500083B906B603FCFACF85EC86BF02C085EEEA
:100B600086BF222341F08091CE02823021F4809111
:100B7000CE028230E1F3809161028F3F79F0809163
:100B80006102803241F080916102803331F034E0C3
:100B900005C031E003C032E001C033E0832F0F9184
:100BA000089540918302262F30E0240F311D213219
:100BB0003105ECF42091CE022430D9F4662381F083
:100BC000A82FB92F80E090E0309183022D91FC0195
:100BD000EB57FD4FE30FF11D208301968617A0F31D
:100BE00080918302680F6093830280E0089581E022
:100BF000089582E008959093C8028093C7020895F3
:100C00009093CA028093C9020895882319F085EC55
:100C100086BF089585E886BF089585ED86BF06B630
:100C200004FCFDCF1092CE02089585EC86BF109291
:100C3000CE0208951F920F920FB60F9211242F9398
:100C40003F934F935F936F937F938F939F93AF9354
:100C5000BF93EF93FF9381B1E82FE87F8E2F90E051
:100C6000893C910508F0E2C0FC01E65DFF4F0C9461
:100C700029268091CD0283B985EC86BFD7C090919B
:100C8000A6028091A502981770F4E091A60281E077
:100C90008E0F8093A602F0E0E955FD4F808183B965
:100CA00085EC86BFC3C08091CC02882319F00E94D6
:100CB0000D06BCC081E08093CB0284EA86BF10920F
:100CC000CE02B4C080E2809361020E940D06AEC0E5
:100CD00080E3809361020E940D06A8C088E38093A0
:100CE00061020E941506A2C0E091A60281E08E0F6B
:100CF0008093A60283B1F0E0E955FD4F8083909187
:100D0000A6028091A502981718F485EC86BF8EC0C4
:100D100085E886BF8BC0E091A60281E08E0F8093AC
:100D2000A60283B1F0E0E955FD4F80838091CC02AB
:100D3000882319F00E940D0679C081E08093CB02D0
:100D400084EA86BF1092CE0271C00E940D066EC06A
:100D500083E08093CE021092620285EC86BF66C06B
:100D600080916202803270F4E091620281E08E0F25
:100D70008093620283B1F0E0ED59FD4F808385ECF2
:100D800086BF54C085E886BF51C00E941506809179
:100D90006202803230F4E0916202F0E0ED59FD4FE2
:100DA00010826091620270E0E091C702F091C80287
:100DB00083E692E009951092620238C085E886BF0A
:100DC00035C084E08093CE02109284021092830298
:100DD000E091C902F091CA020995809183028111C4
:100DE00005C081E08093830210928502E091840225
:100DF00081E08E0F80938402F0E0EB57FD4F8081FD
:100E000083B99091840280918302981718F485EC3D
:100E100086BF0CC085E886BF09C085EC86BF1092EE
:100E2000CE0204C0109261020E940D06FF91EF9164
:100E3000BF91AF919F918F917F916F915F914F91F2
:100E40003F912F910F900FBE0F901F9018954F92CA
:100E50005F926F927F92BF92CF92DF92EF92FF925A
:100E60000F931F93CF93DF9390E0FC01EA51FE4F65
:100E70007491FC01E25FFD4F8491662311F0B72E5F
:100E800001C0B12C69017A01F694E794D794C79414
:100E9000F694E794D794C79493E0F922482F50E052
:100EA000440F551F4A5C5D4F80E090E0DC010EC0AE
:100EB0008C019D010F5F1F4F2F4F3F4F8C159D05DC
:100EC000AE05BF0509F476C0D901C801FA01C59184
:100ED000D49138813723B31659F30EC08C019D018C
:100EE0000F5F1F4F2F4F3F4F8C159D05AE05BF0560
:100EF00009F464C0D901C801FA01C591D4912881CF
:100F00002723B212EBCFFA01C591D4912881272370
:100F1000B21222C0C816D906EA06FB0609F452C06E
:100F200000E010E098010CC02C013D01400E511E64
:100F3000621E731EC414D504E604F70409F446C007
:100F40000F5F1F4F2F4F3F4FFA01C591D49168811A
:100F50006723B61649F303C000E010E09801B90119
:100F6000A801440F551F661F771F440F551F661FAA
:100F7000771FDB01CA01880F991FAA1FBB1F880FAB
:100F8000991FAA1FBB1F840F951FA61FB71F800F95
:100F9000911FA21FB31F805C9F4FAF4FBF4FBC017B
:100FA000CD01689413F89695879577956795169473
:100FB000D1F70FC060E070E0CB010BC060E070E0E3
:100FC000CB0107C060E070E0CB0103C060E070E0DF
:100FD000CB01DF91CF911F910F91FF90EF90DF90A8
:100FE000CF90BF907F906F905F904F90089580EC6E
:100FF00087B980E886B986B1876086B9369A36990E
:10100000FECF84B185B1089597B1907E97B997B11D
:1010100080958770982B97B9369A3699FECF24B170
:1010200085B190E0982F8827820F911D0895CF9267
:10103000DF92EF92FF920F931F93CF93DF93E82EEF
:10104000062FF42EC7E0D0E010E00F2EF7E0CF2EF1
:10105000D12CF02D61E0802F0E940404F1100DC00E
:101060008E2D0E94230496012C1B3D0B02C0880F7D
:10107000991F2A95E2F7182B0AC08E2D0E9423048F
:101080000C2E02C0880F991F0A94E2F7182B60E01B
:10109000802F0E9404042197E8F6812FDF91CF91E1
:1010A0001F910F91FF90EF90DF90CF900895BF9226
:1010B000CF92DF92EF92FF920F931F93CF93DF9324
:1010C000B82E162F042FC7E0D0E0E22EF12C0F2E01
:1010D000F7E0CF2ED12CF02D01110EC0C6018C1BD4
:1010E0009D0BB70102C0759567958A95E2F761700F
:1010F0008B2D0E9404040BC0B7010C2E02C0759505
:1011000067950A94E2F761708B2D0E94040461E0F8
:10111000812F0E94040460E0812F0E940404219723
:10112000D8F6DF91CF911F910F91FF90EF90DF9054
:10113000CF90BF900895BC0190934A0380934903D8
:101140000898099880E89EE30E94F325862F603175
:1011500048F0772760517109CB0199230CF401966F
:101160009595879580B911B884EC86BF85B3836067
:1011700085BB089584E986BF08958FEF9FEF06B67B
:1011800007FC02C00197D9F781B1887F0895846870
:1011900086BF0E94BD080895CF92DF92EF92FF9222
:1011A0000F931F93CF93DF93C62F662319F06130FF
:1011B00021F006C000E218E105C008E410E402C016
:1011C00000E010E00F2EF4E1EF2EF12CF02D982F1F
:1011D0009160D92ED82FDE7F0F2EF4E9CF2EF02D7F
:1011E00080E20E94C708883031F0803121F084E825
:1011F00086BF80E01FC0C11102C0D3B903C0C13097
:1012000009F4D3B880E00E94C708811791F08013D9
:1012100005C081E0E81AF108C6BE06C0883321F097
:1012200084E986BF80E006C01E141F04CCF280E073
:1012300001C081E0DF91CF911F910F91FF90EF905E
:10124000DF90CF90089583B980E00E94C70888326C
:1012500031F091E0803309F090E0892F01C081E006
:1012600081700895CF93DF93EC01611102C080E497
:1012700001C080E00E94C70893B19883982F977FA0
:1012800081E0903509F080E0DF91CF910895EF92F1
:10129000FF920F931F93CF93DF9314161506FCF460
:1012A00061157105F1F07A018B0160E00E94CC08B4
:1012B0008823C1F0E8010E0D1F1D89910E942309AA
:1012C000811107C091B1987F983361F094E996BF7E
:1012D00009C0C017D10789F794E996BF03C081E020
:1012E00001C081E0DF91CF911F910F91FF90EF90AE
:1012F00008959F92AF92BF92CF92DF92EF92FF92AA
:101300000F931F93CF93DF93442399F161157105D8
:1013100099F1042F7B0161E00E94CC08A82E88235C
:1013200079F110E0101611060CF5C0E0D0E068016C
:1013300081E0C81AD108BB24B394912C6B2DCC1634
:10134000DD0609F0692DC7018C0F9D1F0E9432092F
:10135000811108C091B1987F983389F094E996BFC4
:10136000A82E0EC02196C017D10741F784E986BF89
:1013700007C0AA24A39404C0AA24A39401C0A82E41
:101380008A2DDF91CF911F910F91FF90EF90DF9009
:10139000CF90BF90AF909F900895CF93DF9300D0F0
:1013A000CDB7DEB769834A8342E050E0BE016F5F8C
:1013B0007F4F0E9447090F900F90DF91CF910895C2
:1013C000CF93DF93C82FD62F60E00E94CC088823EC
:1013D000A1F08D2F0E942309882379F061E08C2FE2
:1013E0000E94CC08882349F061E080E090E00E94F0
:1013F0003209882311F094E996BFDF91CF910895C7
:10140000FF920F931F93CF93DF93C82FD62F8A019C
:10141000F22E60E00E94CC08882351F08D2F0E94AC
:101420002309882329F04F2DB8018C2F0E947909B8
:10143000DF91CF911F910F91FF90089588EF08954C
:1014400081E0089588EF089560E00E94CC0894E957
:1014500096BF0895862F0E94BE0481E090E0089513
:10146000FC01138212822AEF30E031832083089539
:10147000DB01CA0180589B47A14EBF4F880F991FBF
:10148000AA1FBB1F880F991FAA1FBB1F880F991F78
:10149000AA1FBB1F440F551F661F771F440F551F00
:1014A000661F771F9A01AB01220F331F441F551F80
:1014B000220F331F441F551FBC01CD010E94072678
:1014C000C90101970E949104089508950E949228ED
:1014D00008950E94922808950E94272908950E9445
:1014E00027290895FC0181E090E02081222311F05A
:1014F00080E090E0089521E0FC01208308950895A4
:101500000895FC01808191810E9427290895CF933D
:10151000DF93EC0188819981009711F00E942729BF
:10152000198218821D821C821B821A82DF91CF9140
:1015300008950F931F93CF93DF93EC018B016F5F9F
:101540007F4F888199810E94BF29009731F099834C
:1015500088831B830A8381E001C080E0DF91CF9103
:101560001F910F910895CF93DF93FC01208131816A
:10157000232B29F0228133812617370770F4EC01E1
:101580000E94990A882361F08C819D81892B39F40E
:10159000E881F981108281E003C081E001C081E02F
:1015A000DF91CF910895EF92FF920F931F93CF9306
:1015B000DF93EC017B018A01BA010E94B30A811119
:1015C00004C0CE010E94870A07C01D830C83B701A7
:1015D000888199810E940C2BCE01DF91CF911F91C0
:1015E0000F91FF90EF900895FC01118210821382F9
:1015F0001282158214826115710551F0FB01019070
:101600000020E9F73197AF01461B570B0E94D30A20
:101610000895EF92FF920F931F93CF93DF93EC0106
:101620007B018A01BA010E94B30A811104C0CE0174
:101630000E94870A07C01D830C83B70188819981A6
:101640000E94CD2ACE01DF91CF911F910F91FF9083
:10165000EF900895CF93DF93EC01FB018617970776
:1016600061F0608171816115710529F044815581B6
:101670000E94D30A02C00E94870ACE01DF91CF9157
:101680000895FC0111821082138212821582148245
:101690000E942A0B0895CF93DF93EC016115710529
:1016A00059F0FB0101900020E9F73197AF01461B8B
:1016B000570B0E94D30A02C00E94870ACE01DF9115
:1016C000CF910895CF93DF9300D0CDB7DEB7FC0163
:1016D00011821082138212821582148269831A8207
:1016E000BE016F5F7F4F0E944B0B0F900F90DF91F9
:1016F000CF9108950F931F93CF93DF93CDB7DEB7AC
:1017000029970FB6F894DEBF0FBECDBF8C01862F90
:10171000F80111821082138212821582148250E025
:10172000BE016F5F7F4F90E00E94C72BBE016F5FCD
:101730007F4FC8010E944B0B29960FB6F894DEBF6D
:101740000FBECDBFDF91CF911F910F9108950F93E1
:101750001F93CF93DF93CDB7DEB762970FB6F894A0
:10176000DEBF0FBECDBF8C01CB01F801118210820C
:10177000138212821582148250E0BE016F5F7F4F88
:101780000E94552BBE016F5F7F4FC8010E944B0B1B
:1017900062960FB6F894DEBF0FBECDBFDF91CF913A
:1017A0001F910F9108950F931F93CF93DF93CDB7A0
:1017B000DEB761970FB6F894DEBF0FBECDBF8C01C8
:1017C000CB01F801118210821382128215821482D9
:1017D00050E0BE016F5F7F4F0E94C72BBE016F5F5D
:1017E0007F4FC8010E944B0B61960FB6F894DEBF85
:1017F0000FBECDBFDF91CF911F910F9108950F9331
:101800001F93CF93DF93CDB7DEB7A2970FB6F894AF
:10181000DEBF0FBECDBF8C01CB01BA01F801118232
:101820001082138212821582148230E0AE014F5F63
:101830005F4F0E946B2BBE016F5F7F4FC8010E94FC
:101840004B0BA2960FB6F894DEBF0FBECDBFDF9153
:10185000CF911F910F9108950F931F93CF93DF9313
:10186000CDB7DEB7A1970FB6F894DEBF0FBECDBFE0
:101870008C01CB01BA01F80111821082138212820D
:101880001582148230E0AE014F5F5F4F0E949A2BA9
:10189000BE016F5F7F4FC8010E944B0BA1960FB630
:1018A000F894DEBF0FBECDBFDF91CF911F910F9196
:1018B0000895EF92FF920F931F93CF93DF93CDB7CD
:1018C000DEB7A1970FB6F894DEBF0FBECDBF7C0187
:1018D000CB01BA01F70111821082138212821582A4
:1018E000148242E0420F8E010F5F1F4F0E94722848
:1018F000BC01C7010E944B0BA1960FB6F894DEBF46
:101900000FBECDBFDF91CF911F910F91FF90EF9050
:101910000895EF92FF920F931F93CF93DF93CDB76C
:10192000DEB7A1970FB6F894DEBF0FBECDBF7C0126
:10193000CB01BA01F7011182108213821282158243
:10194000148242E0420F8E010F5F1F4F0E947228E7
:10195000BC01C7010E944B0BA1960FB6F894DEBFE5
:101960000FBECDBFDF91CF911F910F91FF90EF90F0
:1019700008950F931F93CF93DF938C01EB01209772
:1019800049F0CB010E94D42AAC01BE01C8010E94DB
:10199000090B02C00E94870AC801DF91CF911F91F5
:1019A0000F910895FC011182108213821282158218
:1019B00014820E94B90C0895EF92FF920F931F9327
:1019C000CF93DF93FC012481358161157105D1F03E
:1019D00041155105C9F08B01EC017A01E20EF31EAD
:1019E000B7010E94B30A882381F0288139818C8154
:1019F0009D81B801820F931F0E940C2BFD82EC8207
:101A000081E003C080E001C081E0DF91CF911F91B0
:101A10000F91FF90EF900895FB0144815581608103
:101A200071810E94DC0C08956115710559F0FB016C
:101A300001900020E9F73197AF01461B570B0E9438
:101A4000DC0C089580E00895CF93DF9300D0CDB7EC
:101A5000DEB769831A8241E050E0BE016F5F7F4FBD
:101A60000E94DC0C0F900F90DF91CF910895EF92C0
:101A7000FF920F931F93CF93DF9300D000D0CDB789
:101A8000DEB77C01862F4AE08E010F5F1F4FB80141
:101A900090E00E94602BF80101900020E9F7319757
:101AA000AF01401B510BB801C7010E94DC0C0F9025
:101AB0000F900F900F90DF91CF911F910F91FF909A
:101AC000EF900895EF92FF920F931F93CF93DF93C0
:101AD000CDB7DEB728970FB6F894DEBF0FBECDBFE7
:101AE0007C01CB014AE08E010F5F1F4FB8010E94BD
:101AF000602BF80101900020E9F73197AF01401BFE
:101B0000510BB801C7010E94DC0C28960FB6F8945F
:101B1000DEBF0FBECDBFDF91CF911F910F91FF9020
:101B2000EF900895EF92FF920F931F93CF93DF935F
:101B3000CDB7DEB727970FB6F894DEBF0FBECDBF87
:101B40007C01CB014AE08E010F5F1F4FB8010E945C
:101B5000D22BF80101900020E9F73197AF01401B2B
:101B6000510BB801C7010E94DC0C27960FB6F89400
:101B7000DEBF0FBECDBFDF91CF911F910F91FF90C0
:101B8000EF900895EF92FF920F931F93CF93DF93FF
:101B9000CDB7DEB72E970FB6F894DEBF0FBECDBF20
:101BA0007C01CB01BA012AE08E010F5F1F4FA80113
:101BB0000E94762BF80101900020E9F73197AF01E0
:101BC000401B510BB801C7010E94DC0C2E960FB6CA
:101BD000F894DEBF0FBECDBFDF91CF911F910F9163
:101BE000FF90EF900895EF92FF920F931F93CF9382
:101BF000DF93CDB7DEB72D970FB6F894DEBF0FBEDB
:101C0000CDBF7C01CB01BA012AE08E010F5F1F4FCF
:101C1000A8010E94A52BF80101900020E9F7319757
:101C2000AF01401B510BB801C7010E94DC0C2D967F
:101C30000FB6F894DEBF0FBECDBFDF91CF911F91DD
:101C40000F91FF90EF900895EF92FF920F931F93E3
:101C5000CF93DF93CDB7DEB764970FB6F894DEBFAE
:101C60000FBECDBF7C01CB01BA018E010F5F1F4FAC
:101C700022E044E00E947228BC01FC010190002097
:101C8000E9F73197AF01481B590BC7010E94DC0CE3
:101C900064960FB6F894DEBF0FBECDBFDF91CF9133
:101CA0001F910F91FF90EF900895EF92FF920F9385
:101CB0001F93CF93DF93CDB7DEB764970FB6F89439
:101CC000DEBF0FBECDBF7C01CB01BA018E010F5F1D
:101CD0001F4F22E044E00E947228BC01FC010190E9
:101CE0000020E9F73197AF01481B590BC7010E944B
:101CF000DC0C64960FB6F894DEBF0FBECDBFDF914B
:101D0000CF911F910F91FF90EF900895EF92FF9266
:101D10000F931F93CF93DF9361157105F1F08B0142
:101D2000EC01CB010E94D42A0097C9F0EC80FD8021
:101D3000E80EF91EB701CE010E94B30A882381F094
:101D4000288139818C819D81B801820F931F0E9467
:101D5000CD2AFD82EC8281E003C080E001C081E0F9
:101D6000DF91CF911F910F91FF90EF900895CF9346
:101D7000DF93EC01FB0144815581608171810E94F8
:101D8000DC0C811103C0CE010E94870ACE01DF91D5
:101D9000CF910895CF93DF93EC016115710561F048
:101DA000FB0101900020E9F73197AF01461B570B6B
:101DB0000E94DC0C811103C0CE010E94870ACE0173
:101DC000DF91CF910895CF93DF93EC010E94240D12
:101DD000811103C0CE010E94870ACE01DF91CF910D
:101DE0000895CF93DF93EC010E94370D811103C05A
:101DF000CE010E94870ACE01DF91CF910895CF9343
:101E0000DF93EC010E94620D811103C0CE010E949C
:101E1000870ACE01DF91CF910895CF93DF93EC0134
:101E20000E94920D811103C0CE010E94870ACE014B
:101E3000DF91CF910895CF93DF93EC010E94C20D03
:101E4000811103C0CE010E94870ACE01DF91CF919C
:101E50000895CF93DF93EC010E94F30D811103C02D
:101E6000CE010E94870ACE01DF91CF910895CF93D2
:101E7000DF93EC010E94240E811103C0CE010E9469
:101E8000870ACE01DF91CF910895CF93DF93EC01C4
:101E90000E94550E811103C0CE010E94870ACE0117
:101EA000DF91CF910895CF93DF93EC010E94860ECE
:101EB000811103C0CE010E94870ACE01DF91CF912C
:101EC0000895DC01ED91FC91309741F1DB016D91BA
:101ED0007C9161157105C1F40DC0DB0114968D91E3
:101EE0009C911597892BA1F0808190E09195819527
:101EF00091090895DC0114968D919C911597892B79
:101F000051F0808190E00895CF010E94032B089545
:101F100080E090E0089580E090E00895DB01ED918D
:101F2000FC913097D1F680E090E00895FC01448167
:101F30005581FB01248135814217530739F40E94F2
:101F4000610F21E0892B19F020E001C020E0822FF1
:101F50000895DC0114962D913C911597232B61F483
:101F60006115710539F021E0FB0180818823C9F0FA
:101F700020E017C021E015C06115710549F4DC01AE
:101F8000ED91FC9121E08081882359F020E009C087
:101F9000FC01808191810E94032B21E0892B09F0B3
:101FA00020E0822F08950E94610F892F881F8827C3
:101FB000881F08950E94610F21E0181619060CF081
:101FC00020E0822F08950E94610F21E01816190663
:101FD0000CF420E0822F08950E94610F892F8095D4
:101FE000881F8827881F0895EF92FF920F931F93F1
:101FF000CF93DF938617970719F1FC012481358170
:10200000FB014481558124173507E1F4232BE1F0CE
:10201000DC01CD91DC91008111810DC090E00E9426
:10202000BD2A7C01F80181918F0190E00E94BD2AB8
:10203000E816F90659F489918111F0CF81E007C0C3
:1020400081E005C080E003C081E001C080E0DF9155
:10205000CF911F910F91FF90EF900895DB0114969F
:10206000ED91FC911597DC0114962D913C911597FB
:102070002E1B3F0B24173507B0F02D913C912115F5
:10208000310599F0DB016D917C916115710579F055
:10209000CA01AF01820F931F0E94132B21E0892BED
:1020A00039F020E005C020E003C020E001C020E0BE
:1020B000822F0895FC0144815581FB0124813581E3
:1020C0004217530728F040E050E00E942E10089578
:1020D00080E00895FC0124813581FB014481558114
:1020E00024173507B0F0FC0180819181009799F0A9
:1020F000FB01608171816115710579F0241B350B3D
:10210000820F931F0E94032B21E0892B39F020E0DE
:1021100005C020E003C020E001C020E0822F089528
:10212000FC01248135816217730730F4808191812D
:10213000FC01E60FF71F40830895FC0124813581DF
:102140006217730720F480819181009729F410921F
:10215000CF028FEC92E00895860F971F0895FC013F
:10216000248135816217730748F48081918100973B
:1021700039F0FC01E60FF71F8081089580E0089593
:1021800080E008950E94AF1008950F931F93CF939E
:10219000DF934115510519F16115710501F1DC015C
:1021A0001496ED91FC9115972E173F0718F0FB013F
:1021B000108215C0E21BF30BEA012197EC17FD0713
:1021C00008F4EF018B01FC0160817181620F731FC4
:1021D000AE01C8010E94212BC00FD11F1882DF91D0
:1021E000CF911F910F910895CF93DF93FC0124812C
:1021F00035814217530768F4C081D18170E0CE0168
:10220000840F951F0E94F82A009731F08C1B9D0BBC
:1022100005C08FEF9FEF02C08FEF9FEFDF91CF914F
:10222000089540E050E00E94F4100895CF93DF93AA
:10223000FC01248135814217530780F4FB01DC0146
:10224000CD91DC9160817181CE01840F951F0E9438
:102250003B2B009731F08C1B9D0B05C08FEF9FEF40
:1022600002C08FEF9FEFDF91CF91089540E050E0E3
:102270000E9416110895DF92EF92FF920F931F9321
:10228000CF93DF93DC0114962D913C911597421763
:102290005307D8F48C01EA012196ED91FC91119736
:1022A000EC0FFD1FD0801082ED90FC9070E0C70114
:1022B0000E94302BCE0DDF1DD882009749F0F80127
:1022C00020813181821B930B05C08FEF9FEF02C0ED
:1022D0008FEF9FEFDF91CF911F910F91FF90EF90C4
:1022E000DF900895FC0144815581415051090E94BD
:1022F0003B110895AF92BF92CF92DF92EF92FF927F
:102300000F931F93CF93DF938A01FB014481558183
:1023100041155105C9F1FC01248135812115310593
:10232000B1F124173507B0F10217130718F089012E
:1023300001501109FC01C081D1817E01E00EF11E26
:10234000EC16FD06D0F0FB01C080D180CE01AA249E
:10235000AA94BB24BA94B6010E943B2B009789F043
:102360009C012C1B3D0B0217130710F0A22EB32E5D
:102370000196E816F90678F704C0AA24AA94BB24AB
:10238000BA948A2D9B2D08C08FEF9FEF05C08FEF69
:102390009FEF02C08FEF9FEFDF91CF911F910F91C1
:1023A000FF90EF90DF90CF90BF90AF900895FC0129
:1023B00044815581FB0124813581421B530B0E94CE
:1023C0007A110895BF92CF92DF92EF92FF920F930E
:1023D0001F93CF93DF937C016B018A01E9012417DE
:1023E000350720F4812F8901C42FD82F65EF70E0C5
:1023F000C7010E94F40AD60114968D919C911597FD
:1024000080179107D0F08C179D0708F4EC01D601D6
:10241000ED91FC911197EC0FFD1FB08010824D9152
:102420005C91BA01600F711FC7010E944B0BF6014E
:1024300080819181C80FD91FB882C701DF91CF91E8
:102440001F910F91FF90EF90DF90CF90BF90089574
:10245000DC01ED91FC91309751F08081882339F0B7
:10246000861301C04083319680818111F9CF089590
:102470002F923F924F925F926F927F928F929F9294
:10248000AF92BF92CF92DF92EF92FF920F931F9382
:10249000CF93DF93FC01448055804114510409F42B
:1024A000BCC0FB01648075806114710409F4B5C07F
:1024B000EA017B018C01CC80DD80C618D708C601FB
:1024C000F80180809180C114D10461F015C0688149
:1024D00079814C815D81C8010E94DD2A8C809D80BC
:1024E000800E911EF70160817181C4010E943B2B17
:1024F0008C01892B61F791C099233CF1FB0120806D
:102500003180520136C05301A818B908A501B401A1
:10251000C2010E94DD2AA40CB51C688179814C811E
:102520005D81C5010E94DD2A4C805D804A0C5B1CE8
:10253000F70184809580860C971CF8018481958131
:102540008C0D9D1D9583848301C02401F70160815A
:102550007181C4010E943B2B3C01892BA1F6B4017F
:10256000C2010E940C2B59C04C01860C971CAC0C6C
:10257000BD1CB101C4010E943B2B0097A9F7A41414
:10258000B50409F44AC0F801828193818A159B053C
:1025900030F4B501C8010E94990A8823F1F1F801CD
:1025A00044815581415051092FC0F80180819181AA
:1025B000F701248135812A0D3B1D820F931FF801FD
:1025C00044815581421B530BBC018C0D9D1D0E9403
:1025D000E62AF801848195818C0D9D1D9583848365
:1025E00020813181F901E80FF91F1082F801808103
:1025F0009181688179814C815D818A0D9B1D0E944A
:10260000DD2AA5014150510955233CF0B701C8010D
:102610000E947A115C01992344F6DF91CF911F91BA
:102620000F91FF90EF90DF90CF90BF90AF909F9071
:102630008F907F906F905F904F903F902F90089574
:10264000CF93DF93EC01CB012C813D81621773079F
:1026500020F54115510509F1640F751F261737073D
:1026600018F4A901481B590BA881B981241B350B0B
:102670003D832C83281B390B480F591FBD01640F64
:10268000751FA9018A0F9B1F0E94212BE881F981E8
:102690008C819D81E80FF91F1082DF91CF91089501
:1026A000FC01448155816417750720F4461B570BC4
:1026B0000E9420130895CF93DF93FC01C081D18144
:1026C000209751F08881882339F090E00E94BD2A3C
:1026D000899388818111F9CFDF91CF910895CF93AC
:1026E000DF93FC01C081D181209751F0888188233C
:1026F00039F090E00E94C52A899388818111F9CF31
:10270000DF91CF910895AF92BF92CF92DF92EF9277
:10271000FF920F931F93CF93DF93DC01CD90DC905A
:102720001197C114D104E9F11496CD91DC9115975C
:102730002097B9F17C0156018501BFEFAB1ABB0AA6
:10274000F801808190E00E94B42A892BA9F7219793
:10275000CC0DDD1D01C02197888190E00E94B42A34
:10276000892B19F0C017D107B0F7AE014F5F5F4F4B
:10277000401B510BD70115965C934E931497C016CE
:10278000D10620F4B801C6010E94DD2AD701ED91DF
:10279000FC91119714968D919C911597E80FF91F54
:1027A0001082DF91CF911F910F91FF90EF90DF90FA
:1027B000CF90BF90AF900895FC01808191810097E8
:1027C00019F00E948D2A089560E070E0CB01089511
:1027D000FC0180819181009719F00E94892A089557
:1027E00060E070E0CB0108950895FC0166830895D0
:1027F000CF93DF93EC01662389F0E881F9818FEFB5
:10280000808341E069858F8198850E94F51441E0BD
:102810006A858F8198850E94F5140FC0E881F9813F
:10282000108240E069858F8198850E94F51440E010
:102830006A858F8198850E94F5148F8198850E9402
:102840002115DF91CF910895EF92FF920F931F937F
:10285000CF93DF93EC01822F69874A8718870F8314
:10286000F982E88261E00E94C50360E0CE010E9427
:10287000F8131B821A821D821C8285E08E83DF91F1
:10288000CF911F910F91FF90EF9008950F931F9399
:10289000CF93DF93EC018B016115710521F460E0AA
:1028A0000E94F81330C0161617066CF440E06985D4
:1028B0008F8198850E94F51441E06A858F81988503
:1028C0000E94F5140CC041E069858F8198850E94B3
:1028D000F51440E06A858F8198850E94F5148F81F8
:1028E00098850E942115C801992324F488279927E7
:1028F000801B910BE881F9818F3F910519F014F04D
:102900008FEF90E08083DF91CF911F910F91089519
:102910000F931F93CF93DF93EC018B01611571052A
:1029200021F460E00E94F81330C0161617066CF40C
:1029300040E069858F8198850E94F51441E06A85A1
:102940008F8198850E94F5140CC041E069858F81C4
:1029500098850E94F51440E06A858F8198850E94D1
:10296000F5148F8198850E942115C801992324F4BC
:1029700088279927801B910BE881F9818F3F91056A
:1029800019F014F08FEF90E08083DF91CF911F91C9
:102990000F910895FC0142815381848195814817EC
:1029A0005907D1F0268130E0BC01620F731F461732
:1029B00057071CF0758364830AC0821B930B84172E
:1029C00095071CF09583848302C055834483CF010F
:1029D000648175810E9488140895FC01108221E0B1
:1029E00021830895FC0162830895FC012081442322
:1029F00051F081E090E002C0880F991F6A95E2F7DC
:102A0000822B80830AC081E090E002C0880F991F6A
:102A10006A95E2F78095822380838081821711F086
:102A200081E081830895CF93DF93EC018A8121E0D7
:102A3000AE0160E08F5F0E94000A8881DF91CF9134
:102A40000895CF93DF93FC012181222341F0EC0113
:102A500041E050E0BC0182810E9447091982DF9168
:102A6000CF910895CF92DF92EF92FF920F931F9331
:102A7000CF93DF9341155105B1F08C01E62EF72E6F
:102A8000EA01C12CD12CD7016D917D01D801ED91C6
:102A9000FC910190F081E02DC8010995C80ED91E66
:102AA000219789F702C0C12CD12CC601DF91CF91AB
:102AB0001F910F91FF90EF90DF90CF900895EF92CC
:102AC000FF920F931F93CF93DF93EB012196FB01AE
:102AD0006491662399F08C01E12CF12CD801ED91E1
:102AE000FC910190F081E02DC8010995E80EF91ED6
:102AF000FE01649121966111F1CF02C0E12CF12C0D
:102B0000C701DF91CF911F910F91FF90EF90089532
:102B1000DC01ED91FC91DB0114964D915C911597D0
:102B20006D917C910280F381E02D099508956115E6
:102B3000710581F0FB0101900020E9F73197AF01A9
:102B4000461B570BDC01ED91FC910280F381E02DD7
:102B50000995089580E090E00895DC01ED91FC91E5
:102B60000190F081E02D09950895DB01ED91FC9134
:102B700011970190F081E02DBC01CD0109950895D8
:102B80000F931F93CF93DF93EC016DE00E94AD157F
:102B90008C016AE0CE010E94AD15800F911FDF917C
:102BA000CF911F910F9108950F931F93CF93DF93B0
:102BB000EC010E945F158C01CE010E94C015800FB0
:102BC000911FDF91CF911F910F9108950F931F9344
:102BD000CF93DF93EC010E9488158C01CE010E94F7
:102BE000C015800F911FDF91CF911F910F91089514
:102BF0000F931F93CF93DF93EC010E9497158C01E5
:102C0000CE010E94C015800F911FDF91CF911F91BF
:102C10000F9108950F931F93CF93DF93EC010E94C0
:102C2000AD158C01CE010E94C015800F911FDF9160
:102C3000CF911F910F9108950F931F93CF93DF931F
:102C4000EC010E94B5158C01CE010E94C015800FC9
:102C5000911FDF91CF911F910F9108954F925F9235
:102C60006F927F929F92AF92BF92CF92DF92EF923C
:102C7000FF920F931F93CF93DF93CDB7DEB7A1974A
:102C80000FB6F894DEBF0FBECDBF5C016A017B01B9
:102C9000922E19A281E0821720F00F2EFAE09F2ECB
:102CA000F02D8E010F5D1F4F492C512C612C712C82
:102CB000C701B601A30192010E9407268C2D929EA6
:102CC00080191124015011098A3010F4805D01C06F
:102CD000895CD8018C93C22ED32EE42EF52EC1141C
:102CE000D104E104F10421F70115110591F0F80177
:102CF00001900020E9F73197AF01401B510BD5013E
:102D0000ED91FC910280F381E02DB801C501099598
:102D100002C080E090E0A1960FB6F894DEBF0FBE2F
:102D2000CDBFDF91CF911F910F91FF90EF90DF907A
:102D3000CF90BF90AF909F907F906F905F904F909B
:102D40000895CF92DF92EF92FF920F931F93CF934C
:102D5000DF93EC016A017B012115310541F4E88123
:102D6000F9810190F081E02D642F09951DC02A3072
:102D70003105C1F4772394F46DE20E94AD158C0106
:102D800044275527BA014C195D096E097F092AE0CD
:102D9000CE010E942E16800F911F06C02AE00E94CD
:102DA0002E1602C00E942E16DF91CF911F910F9117
:102DB000FF90EF90DF90CF9008959A01AB01770FCD
:102DC000660B770B0E94A11608950F931F93CF9364
:102DD000DF93EC010E94A1168C01CE010E94C01568
:102DE000800F911FDF91CF911F910F9108950F9345
:102DF0001F93CF93DF93EC019A01AB01770F660B22
:102E0000770B0E94A1168C01CE010E94C015800F85
:102E1000911FDF91CF911F910F91089521153105D9
:102E200049F4DC01ED91FC910190F081E02D642FDB
:102E3000099508950E942E1608959A01462F50E094
:102E400060E070E00E940E1708959A01AB0160E007
:102E500070E00E940E1708950F931F93CF93DF9396
:102E6000EC010E940E178C01CE010E94C015800F4C
:102E7000911FDF91CF911F910F9108950F931F9391
:102E8000CF93DF93EC019A01AB0160E070E00E9408
:102E90000E178C01CE010E94C015800F911FDF918B
:102EA000CF911F910F9108950F931F93CF93DF93AD
:102EB000EC019A01462F50E060E070E00E940E178E
:102EC0008C01CE010E94C015800F911FDF91CF9120
:102ED0001F910F9108954F925F927F928F929F92D0
:102EE000AF92BF92CF92DF92EF92FF920F931F9318
:102EF000CF93DF9300D000D0CDB7DEB78C014A016D
:102F00005B01722E9A01AB01C501B4010E946D28CC
:102F1000882331F06EEF70E0C8010E949715D2C08F
:102F200075016401E894F7F82FEF3FEF4FE75FE793
:102F3000C701B6010E946D28811110C02FEF3FEF2D
:102F40004FE75FE7C701B6010E949C26181634F4CC
:102F500062E071E0C8010E949715B4C02FEF3FEF07
:102F60004FE75FE4C501B4010E94FB27181634F453
:102F700066E071E0C8010E949715A4C02FEF3FEFF3
:102F80004FE75FECC501B4010E949C26882334F40E
:102F900066E071E0C8010E94971594C020E030E01F
:102FA000A901C501B4010E949C26882354F46DE256
:102FB000C8010E94AD157C01B7FAB094B7F8B0947F
:102FC00002C0E12CF12C772009F467C0D12C60E01D
:102FD00070E080E09FE320E030E040E251E40E94B6
:102FE000A126D394D710F7CF2BC020E030E040E2E9
:102FF00051E4C501B4010E9400284B015C010E940C
:1030000013276B01770FEE08FF082AE030E0B701C5
:10301000A601C8010E94A116480E591EC701B6019B
:103020000E944B279B01AC01C501B4010E942F26D1
:103030004B015C017A947110D8CF842D952D42C03C
:103040009B01AC01C501B4010E9430264B015C011B
:103050000E941A2769837A838B839C830E94492765
:103060009B01AC01C501B4010E942F264B015C01FC
:103070002AE030E049815A816B817C81C8010E943D
:103080000E176C0160E471E0C8010E9497158C0D69
:103090009D1D2C014E0C5F1CA8CF20E030E040E0CD
:1030A0005FE3C501B4010E9430260E941A27AB01DC
:1030B000BC012AE030E0C8010E940E172C014E0C22
:1030C0005F1CBBCF0F900F900F900F90DF91CF91AF
:1030D0001F910F91FF90EF90DF90CF90BF90AF9036
:1030E0009F908F907F905F904F9008950E946B17F4
:1030F00008950F931F93CF93DF93EC010E946B17FA
:103100008C01CE010E94C015800F911FDF91CF91DD
:103110001F910F9108959091D202981306C0AF9815
:103120002091D30292130EC007C0811161C0992370
:1031300009F459C0AF9A57C0AE989091D402981331
:103140000EC007C091115EC0222309F456C0AE9A8A
:1031500054C0AD989091D50298130EC007C081114C
:1031600056C0992309F458C0AD9A56C0AC989091B6
:10317000D60298130EC007C0811158C0992309F4D4
:1031800050C0AC9A4EC094989091D70298130EC03C
:1031900007C0811155C0992309F44DC0949A4BC0C2
:1031A00095989091D80298130EC007C0811152C013
:1031B000992309F44AC0959A48C096989091D902EB
:1031C00098130AC007C081114AC0992309F44CC062
:1031D000969A4AC097980895811169C0992309F475
:1031E00066C0979A08959091D3029111B0CFA4CF61
:1031F0009091D30298133DC09FCF9091D402981321
:10320000B0CFA7CF2091D402921338C0A2CF909113
:10321000D502981338C0AACF9091D5029813AECF9B
:10322000A5CF9091D6029813B6CFADCF9091D6028C
:1032300098132EC0A8CF9091D7029813B9CFB0CFD2
:103240009091D702981329C0ABCF9091D8029813D0
:10325000BCCFB3CF9091D802981324C0AECF909139
:10326000D902981324C0B6CF9091D9029813B6CF43
:10327000B1CF9091D4029813CACF6BCF9091D50261
:103280009813D4CF73CF9091D6029813D9CF7BCF18
:103290009091D7029813DECF83CF9091D8029813E4
:1032A000DECF8BCF9091D902981709F493CF089570
:1032B0008091F2028330B8F09091E70280B323B39B
:1032C000E92FF0E0E851FD4F22952F70807F822B8F
:1032D00080839F5F9B3018F49093E70202C01092A6
:1032E000E7021092F2028091F2028F5F8093F20265
:1032F00008958091E002811102C0C0980FC0209112
:10330000E60290E0820F911D2091E4023091E502E7
:103310008217930710F0C09A01C0C0988091E10213
:10332000811102C0C1980FC02091E60290E0820F87
:10333000911D2091E4023091E5028217930710F06D
:10334000C19A01C0C1988091E202811102C0C29865
:103350000FC02091E60290E0820F911D2091E402BF
:103360003091E5028217930710F0C29A01C0C2980B
:103370008091E302811102C0C3980FC02091E60240
:1033800090E0820F911D2091E4023091E5028217B6
:10339000930710F0C39A01C0C3988091DE02811197
:1033A00002C0A8980FC02091E60290E0820F911D04
:1033B0002091E4023091E5028217930710F0A89A59
:1033C00001C0A8988091DF02811102C097980FC0B8
:1033D0002091E60290E0820F911D2091E40230914D
:1033E000E5028217930710F0979A01C09798809191
:1033F000E4029091E502009751F48091E60290E09A
:1034000081509F4F9093E5028093E40208950197C5
:103410009093E5028093E40208951F920F920FB6F5
:103420000F9211242F933F934F935F936F937F934A
:103430008F939F93AF93BF93EF93FF938091DD02A0
:10344000811106C00E94791981E08093DD022FC0AE
:10345000813031F40E94581982E08093DD0227C048
:103460001092DD028091DB029091DC02883022E034
:10347000920729F41092DC021092DB020FC0813017
:10348000910521F480E00E948B1808C09C01245112
:1034900031092932310510F40E948B188091DB022A
:1034A0009091DC0201969093DC028093DB020E94F3
:1034B0006603FF91EF91BF91AF919F918F917F91A3
:1034C0006F915F914F913F912F910F900FBE0F9091
:1034D0001F9018958091DA0281110CC08091D00262
:1034E0009091D1020E94CA148091DA028F5F80937A
:1034F000DA0208958091DA02813069F48091D00275
:103500009091D1020B960E94CA148091DA028F5FCB
:103510008093DA0208958091DA02823069F4809112
:10352000D0029091D10246960E94CA148091DA028C
:103530008F5F8093DA0208958091D0029091D1023A
:1035400081960E94CA141092DA0208952F923F9237
:103550004F925F926F927F928F929F92AF92BF92A3
:10356000CF92DF92EF92FF920F931F93CF93DF934F
:103570004C01EC018C01045D1F4FCE010E94F4133D
:103580002B96C017D107C9F7C4018C960E94300A48
:10359000640180E3C80ED11CC6010E94ED14140121
:1035A000E3E32E0E311CC1010E94ED140E94BE0304
:1035B00084E690E00E949B080E94F707F40110AE99
:1035C00062E087E10E94C50361E087E10E94040494
:1035D000F40116AA62E088E10E94C50361E088E177
:1035E0000E940404F40117AAC8E8D0E000E910E042
:1035F00062E089910E94C503C017D107C9F7C4E9E9
:10360000D0E00CE910E060E089910E94C503C0178A
:10361000D107C9F762E084E00E94C50362E085E05B
:103620000E94C50362E086E00E94C50362E087E075
:103630000E94C50361E08FE00E94C50361E080E164
:103640000E94C50360E7C1010E94F2146EE7C60143
:103650000E94F2140F2EF4E86F2EF0E07F2EF02D72
:10366000CDE7D0E054010F2EF0EECF2EF2E0DF2EAA
:10367000F02D0F2EF8E84F2EF0E05F2EF02DF30125
:1036800021913F01FE0131977601810148816081DE
:10369000C5010E9424142296FBE0AF0EB11C8FEFEF
:1036A000C81AD80A6414750451F7EEEDF2E01082DE
:1036B0001182E2EDF2E08AED92E01192E817F9074B
:1036C000E1F79092D1028092D002DF91CF911F91C9
:1036D0000F91FF90EF90DF90CF90BF90AF909F90B1
:1036E0008F907F906F905F904F903F902F900895B4
:1036F0000F931F93CF93DF93EC018C01045D1F4F59
:1037000060E070E0CE010E9446142B96C017D107EE
:10371000B9F7DF91CF911F910F91089577231CF492
:103720007195619571096F3F710519F014F06FEF94
:1037300070E06093E6020895FF920F931F93CF937A
:10374000DF93623098F48C01C62FD0E0FE01E6587A
:10375000FF4FF08061E08F2D0E94C50361E08F2D47
:103760000E940404C00FD11F81E08EABDF91CF9186
:103770001F910F91FF900895EF92FF920F931F9367
:10378000CF93DF936230A0F4142F7C01C62FD0E0DA
:10379000FE01E658FF4F008161E0802F0E94C503C3
:1037A000CE0DDF1D61E06EAB6127802F0E94040407
:1037B000DF91CF911F910F91FF90EF9008954423D7
:1037C00049F0623070F4E62FF0E0E252FD4F8FEFE7
:1037D00080830895623028F4E62FF0E0E252FD4F36
:1037E00010820895623028F4E62FF0E0E252FD4F97
:1037F000408308951F93CF93DF93162FC42FD0E0FB
:10380000FE01E857FF4F61E080810E94C503612FF0
:1038100070E080E090E00E944B2721EA30EA40E22D
:103820005EE30E9400280E941A27CE52DD4F6932C3
:1038300008F068E26C5E6883DF91CF911F91089574
:10384000CF93DF93C62FD0E0FE01E857FF4F62E031
:1038500080810E94C503CE52DD4F1882DF91CF9147
:103860000895EF92FF920F931F93CF93DF936230EF
:1038700090F58C01C62FD0E0FC01EC0FFD1F86A94E
:103880008823D9F0FE01E658FF4FF0808F2D0E946B
:103890002304E82E60E08F2D0E94C503C00FD11FC6
:1038A0001EAA8F2D0E942304C1E0892B09F0C0E0DD
:1038B0006E2D8F2D0E94040409C0C658DF4F8881E9
:1038C0000E942304C1E0892B09F0C0E081E0C1110E
:1038D00003C080E001C080E0DF91CF911F910F9184
:1038E000FF90EF9008950F931F93CF938C01C62FF5
:1038F000623060F46C2FC8010E94311C8823D1F320
:103900006C2FC8010E94311C8111FACFCF911F91F9
:103910000F910895683078F4E62FF0E0EC56FF4FF1
:1039200080810E94040899230CF40396959587954D
:1039300095958795089580E00895CF93C62F6430BC
:1039400080F06C30F8F4C0960E94131590E0ECEF14
:10395000EC0F02C095958795EA95E2F7282F217024
:1039600012C0E62FF0E0E057FF4FC08162E08C2FDD
:103970000E94C5038C2F0E94230421E0892B19F09B
:1039800020E001C020E0822FCF9108951F93CF93B4
:10399000DF93142F643070F4E62FF0E0E057FF4F10
:1039A000C08161E08C2F0E94C503612F8C2F0E9483
:1039B00004040BC06C3048F4EC01E0966450CE0176
:1039C0000E94F514CE010E942115DF91CF911F9125
:1039D0000895CF93DF93C62FE62FF0E0E857FF4F0F
:1039E000D08162E08D2F0E94C503C83040F48D2F36
:1039F0000E94230421E0892B19F020E001C020E07F
:103A0000822FDF91CF910895CF93C62FE62FF0E05C
:103A1000E857FF4F62E080810E94C503C430D8F4AC
:103A200083E08C1B8430C8F441E050E002C0440FB6
:103A3000551F8A95E2F7E8EEF2E062EF72E080E06F
:103A4000219130E024233523232B09F08F5FE617E3
:103A5000F707B1F703C080E001C080E0CF9108957F
:103A6000FB0180819181A281B3810097A105B105FD
:103A700039F08F3F9105A105B10509F018F40895BB
:103A800080E008958FEF08950F931F93CF93DF93F6
:103A900000D000D0CDB7DEB76430C0F48C01E62F83
:103AA000F0E0E057FF4F2CED35E040E050E060E003
:103AB00080810E94270769837A838B839C83BE0160
:103AC0006F5F7F4FC8010E94301D01C080E00F90E2
:103AD0000F900F900F90DF91CF911F910F9108954C
:103AE0000F931F93CF938C01045D1F4F62E171E030
:103AF000C8010E94F815C2E08C2F0E94240A882376
:103B000081F066E271E0C8010E94971540E150E043
:103B10006C2FC8010E941D1761E371E0C8010E946B
:103B2000F815CE5FC43F41F768E371E0C8010E9419
:103B3000F815CF911F910F9108958091E60290E0C2
:103B400081509F4F9093E5028093E40208950F9374
:103B50001F93CF93DF93EC010E94830368877987DB
:103B60008A879B87E881F9810680F781E02DCE0165
:103B700009959923BCF40E948303088519852A8539
:103B80003B85DC01CB01801B910BA20BB30B0C819D
:103B90001D812E813F8180179107A207B30710F383
:103BA0008FEF9FEFDF91CF911F910F9108950F93AA
:103BB0001F93CF93DF93EC010E948303688779877B
:103BC0008A879B87E881F9810084F185E02DCE0109
:103BD00009959923BCF40E948303088519852A85D9
:103BE0003B85DC01CB01801B910BA20BB30B0C813D
:103BF0001D812E813F8180179107A207B30710F323
:103C00008FEF9FEFDF91CF911F910F9108950F9349
:103C10001F93CF93DF93EC01162F042FCE010E9448
:103C2000D71D9C01992324F18D32910519F1C0977C
:103C30000A9718F1002319F02E32310509F11130DD
:103C400011F1123069F42D30310551F034F429505E
:103C500031092230310520F019C020323105B1F48C
:103C6000E881F9810680F781E02DCE010995D6CF54
:103C7000932F0EC08DE290E00BC0822F932F08C0CF
:103C80008EE290E005C08FEF9FEF02C08FEF9FEFB5
:103C9000DF91CF911F910F910895FC0144835583CB
:103CA0006683778308954F925F926F927F92AF926F
:103CB000BF92CF92DF92EF92FF920F931F93CF9319
:103CC000DF93EC01042F40E00E94071E99230CF4BF
:103CD00052C0C12CD12C7601B12C10E0AA24A3949F
:103CE0000817190751F18D32910531F19C012053CC
:103CF00031092A30310508F5CC0CDD1CEE1CFF1C07
:103D000026013701440C551C661C771C440C551CBD
:103D1000661C771CC40CD51CE61CF71CAC01990F63
:103D2000660B770BC40ED51EE61EF71E80E3C81A7D
:103D3000D108E108F10801C0BA2CE881F9810680B8
:103D4000F781E02DCE010995CE010E94D71D9C017F
:103D5000205331092A30310518F20817190709F4E0
:103D6000BFCFBB2061F066277727CB016C197D0997
:103D70008E099F0906C060E070E0CB0102C0C70158
:103D8000B601DF91CF911F910F91FF90EF90DF90DF
:103D9000CF90BF90AF907F906F905F904F900895BD
:103DA0005F926F927F928F929F92AF92BF92CF92CB
:103DB000DF92EF92FF920F931F93CF93DF93EC016B
:103DC000042F41E00E94071EFC0199230CF47FC0E0
:103DD0000F2E812C912CF0E8AF2EFFE3BF2EF02D9B
:103DE000C12CD12C7601712C512C10E066246394E7
:103DF0000E171F07C9F1ED32F10599F1EE32F10509
:103E000091F1CF01C0970A9778F5CC0CDD1CEE1C20
:103E1000FF1CB701A601440F551F661F771F440FF3
:103E2000551F661F771FC40ED51EE61EF71EAF0175
:103E3000FF0F660B770BC40ED51EE61EF71E80E340
:103E4000C81AD108E108F108772071F02DEC3CEC9C
:103E50004CEC5DE3C501B4010E9400284B015C01FC
:103E600003C0562C01C0762CE881F9810680F781C9
:103E7000E02DCE010995CE010E94D71DFC01C0970F
:103E80000A9708F4B5CFEE32F10519F4772009F45A
:103E9000AFCF0E171F0709F4ABCF552041F0F094B8
:103EA000E094D094C094C11CD11CE11CF11C77207B
:103EB00049F0C701B6010E944B27A50194010E9459
:103EC000002808C0C701B6010E944B2703C060E06C
:103ED00070E0CB01DF91CF911F910F91FF90EF9098
:103EE000DF90CF90BF90AF909F908F907F906F901A
:103EF0005F900895CF92DF92EF92FF920F931F93FE
:103F0000CF93DF936C017A01452B91F0062F172F89
:103F1000C0E0D0E0C6010E94A71D992344F0F8013B
:103F200081938F012196CE15DF05A1F701C07E0197
:103F3000C701DF91CF911F910F91FF90EF90DF901C
:103F4000CF900895AF92BF92CF92DF92EF92FF92FF
:103F50000F931F93CF93DF9321153105D9F079018A
:103F60006C01C42FD52FA12CB12C062F10E0C60157
:103F70000E94A71D99235CF00817190741F0899347
:103F80008FEFA81AB80AAE14BF0489F757018A2D1B
:103F90009B2D02C080E090E0DF91CF911F910F91A7
:103FA000FF90EF90DF90CF90BF90AF9008950F9368
:103FB0001F93CF93DF93EC018B0165EF70E00E94BC
:103FC000F40AC8010E94A71D99234CF0682FCE0166
:103FD0000E94240DC8010E94A71D9923BCF7CE01A1
:103FE000DF91CF911F910F910895EF92FF920F9360
:103FF0001F93CF93DF938C017B01C42F65EF70E09B
:104000000E94F40AC7010E94A71D992384F0D0E002
:104010008C179D0761F0682FC8010E94240DC7010D
:104020000E94A71D99231CF08C179D07A1F7C801BA
:10403000DF91CF911F910F91FF90EF9008952F92F4
:104040003F924F925F926F927F928F929F92AF9228
:10405000BF92CF92DF92EF92FF920F931F93CF9375
:10406000DF9300D000D0CDB7DEB79A8389833B01C0
:104070004A01880C991C840E951E880C991C860E8A
:10408000971E6815790510F5DB0112968D919C91AC
:104090001397892B39F0FB0115C082819381892BFD
:1040A00089F401C0FB019F01261937093595279531
:1040B0004BEA5AEA249FC001259F900D349F900D32
:1040C00011249EC03696E815F90538F3362C272CB6
:1040D000B12CA12C89819A810E94A71D6C01992382
:1040E0000CF48CC068147904A8F7A32DB22D4D915F
:1040F0005C91119714960D911C911597FA01E00FA0
:10410000F11F808190E08C159D05E9F40F5F1F4F32
:1041100015961C930E93149712968D919C9113975C
:104120000817190709F064C09D012619370935954C
:1041300027954BEA5AEA249FC001259F900D349F92
:10414000900D11245DC00115110509F451C07A01CB
:10415000EFEFEE1AFE0A2D01D20114966D917C91BB
:1041600015979B012150310915963C932E93149776
:10417000FA01E20FF31F808190E08C159D05A1F5F7
:104180002115310529F415967C936E93149730C050
:10419000F801E21BF30BCA018E0F9F1F9C838B83D8
:1041A000DA019C91AB81BC818C919813D5CFD7015A
:1041B0003196E40FF51F8B2D9A2D5C824B8204C043
:1041C0004D905190451004C0019682179307C0F39B
:1041D0004B805C808217930709F0BECFD201159601
:1041E0007C936E93149704C0232B09F0B5CFD201B2
:1041F0001696A815B90508F47ACF6CCF8FEF9FEF0C
:104200000F900F900F900F90DF91CF911F910F9112
:10421000FF90EF90DF90CF90BF90AF909F908F90E6
:104220007F906F905F904F903F902F900895FF92F6
:104230000F931F93CF93DF93CDB7DEB72C970FB6B5
:10424000F894DEBF0FBECDBF21153105A9F4FE01E4
:10425000319626E0DF011D922A95E9F77A8369837A
:104260005C834B8341E050E0BF010E941F2021E0AE
:10427000892BE9F020E01BC0FE0131960F2EFCE0F7
:10428000FF2EF02DDF011D92FA94E9F77A836983FE
:104290005C834B8338872F831A87098742E050E07D
:1042A000BF010E941F2021E0892B09F020E0822F0E
:1042B0002C960FB6F894DEBF0FBECDBFDF91CF9125
:1042C0001F910F91FF9008950F931F93FB01019091
:1042D0000020E9F73197AF01461B570B00E010E0D3
:1042E00020E030E00E9417211F910F9108950F9355
:1042F0001F9300E010E020E030E00E9417211F91A2
:104300000F9108950F931F939A01FA0101900020D5
:10431000E9F731978F01041B150BFB010190002079
:10432000E9F73197AF01461B570B0E9417211F91E8
:104330000F91089561E070E080E090E00E948F03AB
:104340000E94A5049923B1F308952F923F924F92B2
:104350005F926F927F928F929F92AF92BF92CF9215
:10436000DF92EF92FF920F931F93CF93DF93CDB71E
:10437000DEB72E970FB6F894DEBF0FBECDBF9E8777
:104380008D870E9483032B013C01AE014F5F5F4F7D
:104390009E01255F3F4FFA0181E08193E217F30709
:1043A000E1F722242A94A12CB12C4B875C87812C25
:1043B00099249A940E94A5049C0122272115310575
:1043C00009F04EC0382E882309F44DC02AE082132C
:1043D00006C08D859E850E949A21822D69C00F2E70
:1043E000F0E6CF2EF0E0DF2EF02D0B851C85E12CC2
:1043F000F82C292C292DD601ED91FD916D01EA0DA6
:10440000FB1D808183110BC0F8018081813039F45C
:104410000E9483032B013C012E2C2F2D02C0D801BA
:104420001C92BFEFEB1AFB0A0F5F1F4FEAE0EE167C
:10443000F10409F7822D922F992324F0FFEFAF1A90
:10444000BF0A1DC00196D9F48D859E850E949A21D0
:10445000ED85FE85EB59FF4F82E080838CEF28C00D
:104460002115314061F0ED85FE85EB59FF4F83E06A
:1044700080838D859E850E949A218DEF19C00E94B0
:104480008303DC01CB0184199509A609B709893892
:104490009341A105B10508F48DCFED85FE85EB595B
:1044A000FF4F81E080838D859E850E949A218EEF4B
:1044B0002E960FB6F894DEBF0FBECDBFDF91CF9121
:1044C0001F910F91FF90EF90DF90CF90BF90AF9032
:1044D0009F908F907F906F905F904F903F902F9024
:1044E00008951F93CF93DF93EC01162F6AE070E0DD
:1044F00080E090E00E948F03CE010E949A21112358
:1045000081F0FE01EC59FF4F8081813061F182E43E
:1045100091E00E94CF0481E0FE01EC59FF4F8083BF
:104520000EC0FE01EC59FF4F8081882319F186E40B
:1045300091E00E94CF04FE01EC59FF4F1082CE01A2
:104540000E94A521883089F0863089F08FEFFE0126
:10455000EC59FF4F80833196808181110AC084E03D
:1045600080838FEF07C080E005C080E003C080E05B
:1045700001C08FEFDF91CF911F9108950F931F938B
:10458000CF938C0161E00E947122C82F811123C05A
:1045900064E670E080E090E00E948F038BE491E09D
:1045A0000E94CF04F801EC59FF4F108260ED77E0D4
:1045B00080E090E00E948F03C8010E94A521833013
:1045C00069F0F801EB59FF4F8081811106C084E04A
:1045D0008083CFEF03C0CFEF01C0CFEF8C2FCF91FF
:1045E0001F910F910895EF92FF920F931F93CF9316
:1045F000DF938C01D62F7A0161E00E947122C82FCF
:1046000081111FC083E50E94BE048D2F0E94BE044D
:104610008CE20E94BE04C7010E94CF0484E691E0B0
:104620000E94CF04C8010E94A521813069F0F801E1
:10463000EB59FF4F8081811106C084E08083CFEF6A
:1046400003C0CFEF01C0CFEF8C2FDF91CF911F912F
:104650000F91FF90EF9008950895CF93DF93EC01B1
:10466000FC01EC59FF4F8FEF808388E090E00E94BF
:10467000910464E670E080E090E00E948F0360E0C7
:10468000CE010E94712264E670E080E090E00E941A
:104690008F0361E0CE010E947122811131C064E676
:1046A00070E080E090E00E948F0340E551E066E416
:1046B000CE010E94F322811125C0CE010E94BE22AC
:1046C000811122C042E551E06EE7CE010E94F32243
:1046D00081111CC044E551E064E5CE010E94F32243
:1046E000811116C048E551E06EE4CE010E94F3222C
:1046F000811110C0CE010E94BE2281110DC00DC0DB
:104700008FEF0BC08EEF09C08DEF07C08CEF05C097
:104710008BEF03C08CEF01C08AEFDF91CF9108953A
:1047200080E090E0089580E00895CF93DF93EC015E
:1047300061E00E947122811129C0CE010E949A215C
:104740008EE591E00E94CF04CE010E94A521843025
:1047500011F0893041F460E0CE010E947122811194
:1047600017C081E01AC0853039F460E0CE010E94A4
:10477000712281110FC011C0FE01EB59FF4F8081E2
:1047800081110AC084E080838FEF07C08EEF05C0DF
:104790008EEF03C08EEF01C08FEFDF91CF910895B0
:1047A00080E00895CF93DF93EC01CE010E94952322
:1047B000813049F0811108C064EF71E080E090E041
:1047C0000E948F03F2CF81E0DF91CF9108950F9384
:1047D0001F93CF938C0161E00E947122C82F811139
:1047E00016C0C8010E949A2182E691E00E94CF047F
:1047F000C8010E94A521873069F0F801EB59FF4FED
:104800008081811106C084E08083CFEF03C0CEEFAA
:1048100001C0CFEF8C2FCF911F910F91089560E0D1
:104820000E94712280E090E0089560E00E94712271
:1048300080E0089560E00E94712280E090E0089599
:1048400060E00E94712280E00895CF93DF93EB0136
:1048500060E00E947122CE010E94CF0481E0DF91CE
:10486000CF910895CF93C62F60E00E9471228C2FC4
:104870000E94BE0481E0CF91089560E00E94712201
:1048800080E0089560E00E94712281E00895FC01BB
:10489000EB59FF4F8081108208958091270390E0AB
:1048A00020912803821B91090895909128038091FB
:1048B0002703981750F4E92FF0E0E75DFC4F2081C3
:1048C00030E09F5F9093280302C02FEF3FEFC901B4
:1048D0000895E091280380912703E81730F4F0E071
:1048E000E75DFC4F808190E008958FEF9FEF089582
:1048F0000895CF93DF93EC01E091FF02F091000364
:10490000309701F190912803809127039817D0F0F8
:10491000161617068CF420E030E090E0DE01A90FB7
:10492000B11D4C91D901A75DBC4F4C939F5F292FBE
:1049300030E02617370794F310922803609327037B
:10494000CB010995DF91CF910895E0910103F0919A
:104950000203309729F01092050310920403099581
:104960000895CF92DF92EF92FF920F931F93CF9310
:10497000DF938C01CB016A01209103032223A1F074
:1049800041155105A1F0EB017B01E40EF51E699183
:10499000D801ED91FC910190F081E02DC8010995BD
:1049A000CE15DF05A1F703C0642F0E94D105C60113
:1049B000DF91CF911F910F91FF90EF90DF90CF90FB
:1049C0000895CF93DF931F92CDB7DEB7FC016983C3
:1049D000909103039923D9F090910403903238F019
:1049E00081E090E09383828380E090E017C0809123
:1049F0000503E82FF0E0EA5FFC4F998190838F5F19
:104A0000809305038093040381E090E007C061E098
:104A1000CE0101960E94D10581E090E00F90DF91D8
:104A2000CF910895FC011382128288EE93E0A0E0FA
:104A3000B0E084839583A683B7838AE691E091836F
:104A40008083089510922803109227031092050383
:104A5000109204030E94F0040895CF93DF93EC01B9
:104A6000862F0E94120585EA94E20E94000689E7DB
:104A700094E20E94FB05CE010E942225DF91CF9196
:104A800008950E942D2508950E9406050895CB01E2
:104A9000BA010E941505089581E080930303609395
:104AA0002603109205031092040308950E944C25DA
:104AB00008950F93062F21E04091040366E073E010
:104AC000809126030E94740510920503109204033E
:104AD000109203030F9108954F925F926F927F920D
:104AE000AF92BF92CF92EF92FF920F931F93CF930B
:104AF000DF935C01F62ED42F28013901EE2049F115
:104B00000E944C258E2D843008F083E0CFEFC80F33
:104B10008823D9F0D501ED91FC918C2F880F880F57
:104B2000880FA301920104C05695479537952795A4
:104B30008A95D2F7CA01B9010190F081E02DC50133
:104B400009959C2FC1509111E5CF60E0C5010E94ED
:104B500059254D2FD13208F040E22C2D69E273E047
:104B60008F2D0E9428051092280380932703DF9140
:104B7000CF911F910F91FF90EF90CF90BF90AF908A
:104B80007F906F905F904F900895CF92EF920F9328
:104B90001F93C22EE12C00E010E098010E946C25CA
:104BA0001F910F91EF90CF90089521E00E94C525AD
:104BB000089521E00E94C52508950E94C525089505
:104BC00061E00E9459250895709300036093FF02ED
:104BD00008957093020360930103089583EF92E0B8
:104BE0000E9412250895AA1BBB1B51E107C0AA1FF2
:104BF000BB1FA617B70710F0A61BB70B881F991F7E
:104C00005A95A9F780959095BC01CD010895A1E230
:104C10001A2EAA1BBB1BFD010DC0AA1FBB1FEE1F36
:104C2000FF1FA217B307E407F50720F0A21BB30B81
:104C3000E40BF50B661F771F881F991F1A9469F7FD
:104C400060957095809590959B01AC01BD01CF0159
:104C50000895EE0FFF1F0590F491E02D0994505830
:104C6000BB27AA270E9447260C94C1270E94B3277E
:104C700038F00E94BA2720F039F49F3F19F426F447
:104C80000C94B0270EF4E095E7FB0C94AA27E92FCB
:104C90000E94D22758F3BA17620773078407950753
:104CA00020F079F4A6F50C94F4270EF4E0950B2E81
:104CB000BA2FA02D0B01B90190010C01CA01A0016E
:104CC0001124FF27591B99F0593F50F4503E68F1C9
:104CD0001A16F040A22F232F342F4427585FF3CF0A
:104CE000469537952795A795F0405395C9F77EF4DB
:104CF0001F16BA0B620B730B840BBAF09150A1F024
:104D0000FF0FBB1F661F771F881FC2F70EC0BA0FA9
:104D1000621F731F841F48F4879577956795B79531
:104D2000F7959E3F08F0B0CF9395880F08F099272C
:104D3000EE0F9795879508950E94862708F481E0E5
:104D400008950E94B5260C94C1270E94BA2758F0F6
:104D50000E94B32740F029F45F3F29F00C94AA2762
:104D600051110C94F5270C94B0270E94D22768F3B8
:104D70009923B1F3552391F3951B550BBB27AA2714
:104D800062177307840738F09F5F5F4F220F331F4E
:104D9000441FAA1FA9F335D00E2E3AF0E0E832D016
:104DA00091505040E695001CCAF72BD0FE2F29D019
:104DB000660F771F881FBB1F261737074807AB07EB
:104DC000B0E809F0BB0B802DBF01FF2793585F4F60
:104DD0003AF09E3F510578F00C94AA270C94F527E1
:104DE0005F3FE4F3983ED4F3869577956795B79542
:104DF000F7959F5FC9F7880F911D9695879597F94D
:104E00000895E1E0660F771F881FBB1F62177307C5
:104E10008407BA0720F0621B730B840BBA0BEE1FDA
:104E200088F7E09508950E941A276894B1110C94B0
:104E3000F52708950E94DA2788F09F5798F0B92F38
:104E40009927B751B0F0E1F0660F771F881F991FBF
:104E50001AF0BA95C9F714C0B13091F00E94F42746
:104E6000B1E008950C94F427672F782F8827B85F56
:104E700039F0B93FCCF3869577956795B395D9F717
:104E80003EF490958095709561957F4F8F4F9F4F21
:104E90000895E89409C097FB3EF49095809570952D
:104EA00061957F4F8F4F9F4F9923A9F0F92F96E976
:104EB000BB279395F695879577956795B795F111EB
:104EC000F8CFFAF4BB0F11F460FF1BC06F5F7F4F88
:104ED0008F4F9F4F16C0882311F096E911C077239A
:104EE00021F09EE8872F762F05C0662371F096E8A3
:104EF000862F70E060E02AF09A95660F771F881F72
:104F0000DAF7880F9695879597F90895990F000815
:104F1000550FAA0BE0E8FEEF16161706E807F9078B
:104F2000C0F012161306E407F50798F0621B730B26
:104F3000840B950B39F40A2661F0232B242B252BA7
:104F400021F408950A2609F4A140A6958FEF811D4A
:104F5000811D089597F99F6780E870E060E00895EB
:104F60009FEF80EC089500240A9416161706180681
:104F70000906089500240A9412161306140605065D
:104F80000895092E0394000C11F4882352F0BB0FEE
:104F900040F4BF2B11F460FF04C06F5F7F4F8F4F51
:104FA0009F4F089557FD9058440F551F59F05F3F8C
:104FB00071F04795880F97FB991F61F09F3F79F03B
:104FC00087950895121613061406551FF2CF4695BD
:104FD000F1DF08C0161617061806991FF1CF86953F
:104FE0007105610508940895E894BB276627772723
:104FF000CB0197F908950E94862708F48FEF089552
:105000000E9413280C94C1270E94B32738F00E94F5
:10501000BA2720F0952311F00C94AA270C94B027FE
:1050200011240C94F5270E94D22770F3959FC1F3A9
:10503000950F50E0551F629FF001729FBB27F00D46
:10504000B11D639FAA27F00DB11DAA1F649F66279B
:10505000B00DA11D661F829F2227B00DA11D621FEA
:10506000739FB00DA11D621F839FA00D611D221FA4
:10507000749F3327A00D611D231F849F600D211D88
:10508000822F762F6A2F11249F5750409AF0F1F00B
:1050900088234AF0EE0FFF1FBB1F661F771F881F74
:1050A00091505040A9F79E3F510580F00C94AA27DB
:1050B0000C94F5275F3FE4F3983ED4F386957795FB
:1050C0006795B795F795E7959F5FC1F7FE2B880F1A
:1050D000911D9695879597F908950E948627880BCC
:1050E000990B0895EF920F931F93CF93DF93E801ED
:1050F00047FD02C034E001C034E1E42F440FFF0B50
:10510000F7FF03C0F195E195F109E32E022F2E2F51
:10511000AE010E94EC2BCE01DF91CF911F910F9138
:10512000EF900895CF93DF938230910510F482E0E1
:1051300090E0E0914D03F0914E0320E030E0C0E0BC
:10514000D0E0309711F14081518148175907C0F0E4
:105150004817590761F482819381209719F09B8346
:105160008A832BC090934E0380934D0326C0211554
:10517000310519F04217530718F49A01BE01DF01F7
:10518000EF010280F381E02DDCCF2115310509F11B
:10519000281B390B2430310590F412968D919C9187
:1051A00013976115710521F0FB019383828304C07D
:1051B00090934E0380934D03FD01329644C0FD0150
:1051C000E20FF31F81939193225031092D933C9369
:1051D0003AC020914B0330914C03232B41F4209192
:1051E00076003091770030934C0320934B0320914D
:1051F0007400309175002115310541F42DB73EB78B
:105200004091780050917900241B350BE0914B03BD
:10521000F0914C03E217F307A0F42E1B3F0B281765
:10522000390778F0AC014E5F5F4F2417350748F01F
:105230004E0F5F1F50934C0340934B038193919308
:1052400002C0E0E0F0E0CF01DF91CF9108950F932D
:105250001F93CF93DF93009709F48CC0FC01329722
:105260001382128200914D0310914E030115110516
:1052700081F420813181820F931F20914B03309163
:105280004C032817390779F5F0934C03E0934B034F
:1052900071C0D80140E050E0AE17BF0750F412963D
:1052A0002D913C911397AD012115310509F1D901DB
:1052B000F3CF9D01DA013383228360817181860FF0
:1052C000971F8217930769F4EC0128813981260F13
:1052D000371F2E5F3F4F318320838A819B819383C9
:1052E0008283452B29F4F0934E03E0934D0342C093
:1052F0001396FC93EE931297ED01499159919E01FB
:10530000240F351FE217F30771F480819181840F18
:10531000951F029611969C938E938281938113968A
:105320009C938E931297E0E0F0E0D80112968D9155
:105330009C911397009719F0F8018C01F6CF8D918D
:105340009C9198012E5F3F4F820F931F20914B033A
:1053500030914C032817390769F4309729F41092DB
:105360004E0310924D0302C01382128210934C031D
:1053700000934B03DF91CF911F910F910895A0E00F
:10538000B0E0E5ECF9E20C94E92FEC01009721F490
:10539000CB010E949228B8C0FC01E60FF71F9C01C8
:1053A00022503109E217F30708F4ACC0D9010D917E
:1053B0001C91119706171707B0F00530110508F476
:1053C0009FC0C80104978617970708F499C0025038
:1053D0001109061B170B019311936D937C93CF0159
:1053E0000E9427298DC05B01A01AB10A4C01800ED2
:1053F000911EA0914D03B0914E0340E050E0E12C8E
:10540000F12C109709F44AC0A815B905D1F56D9093
:105410007C901197630182E0C80ED11CCA14DB0492
:1054200080F1A3014A195B096A0182E0C80ED11C10
:105430001296BC9012971396AC91B5E0CB16D1049E
:1054400040F0B282A38351834083D9016D937C9352
:105450000AC00E5F1F4FC301800F911FF901918396
:105460008083EB2DFA2FE114F10431F0D70113966C
:10547000FC93EE93129744C0F0934E03E0934D03D8
:105480003FC08D919C9111974817590708F4AC01C2
:105490007D0112960D90BC91A02DB3CF80914B034E
:1054A00090914C0388159905E1F446175707C8F405
:1054B0008091740090917500009741F48DB79EB76C
:1054C0004091780050917900841B950BE817F907FB
:1054D000C8F4F0934C03E0934B03F90171836083AC
:1054E0000FC0CB010E9492287C01009759F0A801BF
:1054F000BE010E94DD2ACE010E942729C70104C0F7
:10550000CE0102C080E090E0CDB7DEB7EEE00C94B3
:105510000530662777270C947A2D1F93FC01992775
:105520008827BC01E89411911032E9F3193010F08A
:105530001E30C8F31B3251F01D3249F4689406C086
:105540000E94852B610F711D811D911D11911053BA
:105550001A30B0F33EF490958095709561957F4F29
:105560008F4F9F4F1F91089591110C94AF2F803250
:1055700019F089508550C8F7089591110895815404
:105580008A5108F4805E855A0895911108958156D4
:105590008A5108F4805285580895FB01DC0105907A
:1055A0000D920020E1F70895FC0105900020E9F735
:1055B000809590958E0F9F1F0895FB01DC0102C01E
:1055C00001900D9241505040D8F70895681779071F
:1055D00068F4FB01DC01E40FF51FA40FB51F02C046
:1055E00002900E9241505040D8F708950C94DD2A55
:1055F000FC018191861721F08823D9F79927089516
:105600003197CF010895FB01DC018D910190801944
:105610000110D9F3990B0895FB01DC0101900D9263
:105620000020E1F70895FB01DC014150504030F0CB
:105630008D910190801919F40020B9F7881B990BFE
:105640000895FB01DC014150504048F001900D925B
:105650000020C9F701C01D9241505040E0F7089565
:10566000FC0181E090E00190061609F4CF010020D2
:10567000D1F701970895FB0151915523A9F0BF017E
:10568000DC014D9145174111E1F759F4CD0101902D
:10569000002049F04D9140154111C9F3FB01411122
:1056A000EFCF81E090E0019708954532510520F455
:1056B000423010F00C94602BFB011082CB01089556
:1056C000BB274A3031F4992322F4BDE290958195AD
:1056D0009F4F0C94D32B2532310520F4223010F04B
:1056E0000C94762BFA011082CA010895BB272A3048
:1056F00051F4992342F4BDE290958095709561959F
:105700007F4F8F4F9F4F0C94A62B592F482F372F29
:10571000262F660F771F881F991F660F771F881F18
:10572000991F620F731F841F951F660F771F881FB5
:10573000991F08952532310520F4223010F00C9481
:10574000A52BFA011082CA010895BB27FA01A62FE2
:105750006217710581059105330B30FB66F0AA27AE
:10576000660F771F881F991FAA1FA21710F0A21B90
:1057700063953850A9F7A05DAA3308F0A95DA193FD
:1057800036F7B111B1931082CA010C94CA2F453279
:10579000510520F4423010F00C94D22BFB01108202
:1057A000CB010895BB27FB015527AA27880F991F16
:1057B000AA1FA41710F0A41B83955051B9F7A05D40
:1057C000AA3308F0A95DA193009779F7B111B193BD
:1057D0001192CB010C94CA2F4F925F926F927F92DD
:1057E0009F92AF92BF92CF92DF92EF92FF920F9370
:1057F0001F93CF93DF93CDB7DEB729970FB6F894F9
:10580000DEBF0FBECDBF6A01122FB02E2BE32017D3
:1058100020F0FF24F394F00E02C0BCE3FB2E0F2D0A
:1058200027E0AE014F5F5F4F0E94D72EAC01898108
:10583000982F9970913031F0E1FC06C0E0FE06C06F
:1058400090E205C09DE203C09BE201C090E0EE2D16
:10585000E07183FF3CC0911102C083E001C084E08D
:10586000811718F4212F281B01C020E0E1110BC083
:10587000F601822F30E2882319F031938150FBCF5B
:10588000C20ED11C20E0992329F0D6019C93F60189
:1058900031966F01C6010396E2FE0AC03EE4D601CE
:1058A0003C9341E411964C93119712963C9306C099
:1058B0003EE6F601308341E641833283FC01322F1C
:1058C00040E2332309F442C041933150FACF82FFC2
:1058D00044C0911102C083E001C084E0811718F434
:1058E000212F281B01C020E0E1110BC0F601822FFF
:1058F00030E2882319F031938150FBCFC20ED11CC6
:1059000020E0992329F0D6019C93F60131966F018E
:10591000C6010396E2FE0BC039E4D6013C933EE497
:1059200011963C93119736E412963C9307C039E6E2
:10593000F60130833EE6318336E63283FC01322FB6
:1059400040E2332319F041933150FBCFFC01E20FC9
:10595000F11D10828EEF9FEFB7C0F1E0911101C0F1
:10596000F0E06F2F70E01416150624F49A012F5FF3
:105970003F4F02C021E030E0260F371FBB2029F047
:105980006B2D70E06F5F7F4F02C060E070E0260F0C
:10599000371F612F70E0261737071CF4121B212FC9
:1059A00001C020E03E2D387159F4D601322F60E25B
:1059B000332319F06D933150FBCFC20ED11C20E080
:1059C000FF2331F0D6019C93B6016F5F7F4F6B01CF
:1059D000E1110BC0F601922F30E3992319F03193B6
:1059E0009150FBCFC20ED11C20E09F2D940F3A8125
:1059F000782F7071A72E84FF03C0313309F49150C2
:105A0000191624F4993018F098E001C091E0E42FC1
:105A1000852F57FF02C0E0E080E06E2F782FE0E096
:105A2000F0E0AEE29A2E3A01691A71082A01461A8C
:105A3000570A0B2D10E01195019511096F3F8FEF5B
:105A4000780729F4D6019C92C60101966C0146178D
:105A5000570784F0661677066CF47F01E40CF51C9A
:105A6000A1E0B0E0AC0FBD1FEA0EFB1ED7011196FE
:105A7000BC9002C090E3B92E615071093196C60105
:105A800001967C016017710724F0D601BC926C016D
:105A9000D5CF6417750741F4363320F4353321F43C
:105AA000A11002C081E3B82EF601B082F701822F67
:105AB00090E2882319F091938150FBCFF701E20F18
:105AC000F11D108280E090E029960FB6F894DEBFB9
:105AD0000FBECDBFDF91CF911F910F91FF90EF903F
