:100000000C94CF010C94F7010C94F7010C94F701B8
:100010000C94F7010C94F7010C94F7010C94F70180
:100020000C94F7010C94F7010C94F7010C94211A2D
:100030000C94F7010C943D040C9480040C94F7018B
:100040000C94F7010C94F7010C94F7010C942E0614
:100050000C94F70126072A072A072A072A072A07E6
:100060002A072A074D062A072A072A072A072A07E6
:100070002A072A074D062A072A072A072A072A07D6
:100080002A072A0753062A072A072A072A072A07C0
:100090002A072A0776062A072A072A072A072A078D
:1000A0002A072A0753062A072A072A072A072A07A0
:1000B0002A072A077C062A072A072A072A072A0767
:1000C0002A072A0782062A072A072A072A072A0751
:1000D0002A072A0793062A072A072A072A072A0730
:1000E0002A072A07B9062A072A072A072A072A07FA
:1000F0002A072A0788062A072A072A072A072A071B
:100100002A072A079F062A072A072A072A072A07F3
:100110002A072A07BC062A072A072A072A072A07C6
:100120002A072A07BC062A072A072A072A072A07B6
:100130002A072A07BC062A072A072A072A072A07A6
:100140002A072A07BC062A072A072A072A072A0796
:100150002A072A07C4062A072A072A072A072A077E
:100160002A072A07F2062A072A072A072A072A0740
:100170002A072A07C4062A072A072A072A072A075E
:100180002A072A07F2062A072A072A072A072A0720
:100190002A072A07D9062A072A072A072A072A0729
:1001A0002A072A07F5062A072A072A072A072A07FD
:1001B0002A072A07F5062A072A072A072A072A07ED
:1001C0002A072A070A072A072A072A072A072A07C7
:1001D0002A072A0721072A072A072A072A072A07A0
:1001E0002A072A0721070102040810204080000086
:1001F00000000001020408102040800102040810E1
:10020000204080000000804020100804020102020B
:1002100002020202020200000000000404040404BE
:1002200004040403030303030303030000000101A8
:1002300001010101010100003900360033003000E6
:100240000000000000003B003800350032000000D4
:10025000000000003A0037003400310000000000C8
:100260004E414E494E495459494E46CDCCCC3D0A9B
:10027000D7233C17B7D13877CC2B329595E6241F7E
:10028000B14F0A000020410000C84200401C462037
:10029000BCBE4CCA1B0E5AAEC59D7400407A10F30A
:1002A0005A00A0724E18090010A5D4E80000E876A4
:1002B00048170000E40B54020000CA9A3B000000FB
:1002C000E1F505000080969800000040420F000014
:1002D00000A08601000000102700000000E80300D5
:1002E0000000006400000000000A0000000000019F
:1002F00000000000002C76D888DC674F0823DFC19F
:10030000DFAE59E1B1B796E5E3E453C63AE6519959
:100310007696E8E6C28426EB898C9B62ED407C6F82
:10032000FCEFBC9C9F40F2BAA56FA5F490055A2A39
:10033000F75C936B6CF9676DC11BFCE0E40D47FE45
:10034000F520E6B500D0ED902E030094357705003A
:1003500080841E080000204E0A000000C80C3333C1
:1003600033330F986E12831141EF8D2114893BE6D0
:100370005516CFFEE6DB18D1844B381BF77C1D9059
:100380001DA4BBE424203284725E228100C9F124C2
:10039000ECA1E53D27004603B11D9B264F03112428
:1003A0001FBECFE5D8E0DEBFCDBF11E0A0E6B0E0D4
:1003B000EAECF1E602C005900D92AC3CB107D9F72A
:1003C00023E0ACECB1E001C01D92AE34B207E1F71E
:1003D00011E0CEECD1E004C02197FE010E94D626A8
:1003E000CB3CD107C9F70E94D2020C94D8300C94B0
:1003F00000000F931F93CF93DF938330910549F152
:1004000034F48130910591F10297B1F0C6C0853086
:100410009105C9F124F0069709F497C0BEC041E0E8
:1004200060E086ED91E00E94D01B40E061E086ED47
:1004300091E00E94D01BB1C040E060E086ED91E009
:100440000E94D01B40E061E086ED91E00E94D01B4D
:10045000A4C040E060E086ED91E00E94D01B41E046
:1004600061E086ED91E00E94D01B97C041E060E022
:1004700086ED91E00E94D01B41E061E086ED91E0C5
:100480000E94D01B8AC000E010E041E060E086EDF1
:1004900091E00E94D01B41E061E086ED91E00E9476
:1004A000D01B68EE73E080E090E00E947D0340E0A6
:1004B00060E086ED91E00E94D01B40E061E086EDB7
:1004C00091E00E94D01B68EE73E080E090E00E9413
:1004D0007D038091CC019091CD011816190674F519
:1004E000C02FD12F41E060E086ED91E00E94D01B4B
:1004F00041E061E086ED91E00E94D01B68EC70E085
:1005000080E090E00E947D0340E060E086ED91E0B5
:100510000E94D01B40E061E086ED91E00E94D01B7C
:1005200068EC70E080E090E00E947D03219680916D
:10053000CC019091CD01C817D907A4F268EE73E001
:1005400080E090E00E947D03A0CFC4E1D0E041E0D4
:1005500060E086ED91E00E94D01B40E061E086ED16
:1005600091E00E94D01B64E670E080E090E00E9481
:100570007D0340E060E086ED91E00E94D01B41E009
:1005800061E086ED91E00E94D01B64E670E080E0BF
:1005900090E00E947D032197D1F6DF91CF911F91CA
:1005A0000F91089560E086ED91E00E94B01B61E03C
:1005B00086ED91E00E94B01B83E090E00E94F9017B
:1005C00021E04EE151E063E271E08EEC91E00E94A7
:1005D0006B23882369F08EEC91E00E94F62490E072
:1005E0009093CD018093CC0185E090E00E94F901C9
:1005F0006AE271E08EEC91E00E943D2490E0009769
:10060000B9F302976CF08EEC91E00E94F62490E032
:100610009093CD018093CC0185E090E00E94F90198
:1006200081E090E00E94F90162E370E080E090E0F8
:100630000E947D038EEC91E00E94EF2390E08130D8
:10064000910579F482E090E00E94F90167E371E09E
:100650008EEC91E00E94D42481E090E00E94F901A8
:10066000E3CF892B29F484E090E00E94F901DCCFEC
:100670008EEC91E00E94F62490E09093CD0180935F
:10068000CC0185E090E00E94F901CECF86ED91E0AB
:100690000E94BA1A8EEC91E00E944C23089582E0E9
:1006A00092E00E94790A0895809113028F5F8093EF
:1006B00013028E33A8F080910F0290911002A09146
:1006C0001102B09112020196A11DB11D80930F027B
:1006D00090931002A0931102B09312021092130291
:1006E00008952FB7F89460910F02709110028091D5
:1006F0001102909112022FBF08958F929F92AF9294
:10070000BF92CF92DF92EF92FF924B015C010E9469
:1007100071036B017C010E947103DC01CB018C1918
:100720009D09AE09BF0988159905AA05BB0598F36F
:10073000FF90EF90DF90CF90BF90AF909F908F9001
:1007400008958230910538F0880F991F880F991FFE
:1007500005970197F1F70895789481E083BF89B7F1
:10076000816089BF0895CF93DF9390E0FC01EA5147
:10077000FE4F2491FC01E25FFD4F8491882379F1C3
:1007800090E0880F991FFC01EE5AFD4FA591B4919E
:10079000FC01EC5BFD4FC591D49161110CC09FB77A
:1007A000F8948C91E22FE0958E238C932881E2239C
:1007B000E8839FBF14C0623061F49FB7F8943C9106
:1007C000822F809583238C93E881E22BE8839FBF5F
:1007D00006C08FB7F894EC91E22BEC938FBFDF91BA
:1007E000CF91089590E0FC01EA51FE4F2491FC0165
:1007F000E25FFD4F8491882399F0E82FF0E0EE0F3F
:10080000FF1FEC5BFD4FA591B491611106C08C9167
:10081000E22FE095E823EC930895EC91E22BEC9322
:10082000089590E0FC01EA51FE4F2491FC01E25F43
:10083000FD4F8491882379F0E82FF0E0EE0FFF1F41
:10084000EA5CFD4FA591B491EC91E22381E090E048
:1008500021F480E0089580E090E00895E091140292
:10086000F0911502309711F00995089581E00895EF
:10087000909315028093140208951F920F920FB661
:100880000F9211242F933F934F935F936F937F9316
:100890008F939F93AF93BF93CF93DF93EF93FF9388
:1008A000CBB1DCB18D2F0E942E04811116C0E091D6
:1008B0001802EF5FEF7180911702E81741F0C871DD
:1008C000E0931802F0E0E55EFD4FD08301C0C2E086
:1008D00080911602C82BC0931602FF91EF91DF9111
:1008E000CF91BF91AF919F918F917F916F915F91C8
:1008F0004F913F912F910F900FBE0F901F90189521
:100900001F920F920FB60F9211248F939F93EF9324
:10091000FF9390911A0280911902981761F0E0916B
:100920001902EF5FEF71E0931902F0E0E55CFD4F13
:1009300080818CB901C05598FF91EF919F918F9163
:100940000F900FBE0F901F90189510921A021092E0
:100950001902109218021092170299231CF422E037
:100960002BB99F7790BD89B988E98AB986E880BD9F
:1009700008959091180280911702981781F0E091E4
:100980001702EF5FEF71E0931702F0E0E55EFD4FB5
:100990008081909116021092160290E0089580E0F6
:1009A00091E0089520911A022F5F2F719091190202
:1009B0002917E1F3E22FF0E0E55CFD4F80832093FF
:1009C0001A02559A0895CF93DF93EC01888188230A
:1009D00031F021960E94D20489918111FBCFDF91E1
:1009E000CF910895CF93DF93EC012196FC01849180
:1009F000882339F00E94D204FE018491219681114E
:100A0000F9CFDF91CF9108951092C80281E08093D1
:100A1000C6021092C50261E081E10E94F20361E02A
:100A200080E10E94F2030898099888E480B985E47F
:100A300086BF089586B78A7B86BF60E081E10E9409
:100A4000F20360E080E10E94F2030895880F82B90A
:100A500008959B01AC0160E074E284EF90E00E9495
:100A6000B426DA01C9014097A109B109B695A79545
:100A70009795879580B90895413208F046C09091C6
:100A8000C8029111FCCF31E03093C8022093C60216
:100A90002FEF20935B021092A002240F20939F025D
:100AA0003093C7022091C702880F822B8093C70220
:100AB0008091C502813059F41092C5028091C7021D
:100AC00083B906B603FCFACF85EC86BF02C085EE7B
:100AD00086BF8091C8028130E1F38091A002841723
:100AE00010F44091A002442389F0A1EAB2E0FB0196
:100AF0008FEF840F90E00196680F791F8D9181939D
:100B0000E617F707D9F7942F01C090E0892F0895D1
:100B10000F93413208F051C03091C8023111FCCF1F
:100B200092E09093C8020093C6029FEF90935B02FD
:100B30001092A00240939F02442371F0FB01A1EAAE
:100B4000B2E0415050E04F5F5F4F640F751F9191CD
:100B50009D93E617F707D9F71092C7029091C70245
:100B6000880F892B8093C7028091C502813059F488
:100B70001092C5028091C70283B906B603FCFACF72
:100B800085EC86BF02C085EE86BF222341F08091AE
:100B9000C802823021F48091C8028230E1F3809152
:100BA0005B028F3F79F080915B02803241F080914F
:100BB0005B02803331F034E005C031E003C032E045
:100BC00001C033E0832F0F91089540917D02262FBD
:100BD00030E0240F311D21323105ECF42091C802A0
:100BE0002430D9F4662381F0A82FB92F80E090E05B
:100BF00030917D022D91FC01E158FD4FE30FF11D75
:100C0000208301968617A0F380917D02680F609380
:100C10007D0280E0089581E0089582E00895909338
:100C2000C2028093C10208959093C4028093C302CC
:100C30000895882319F085EC86BF089585E886BF5E
:100C4000089585ED86BF06B604FCFDCF1092C8025C
:100C5000089585EC86BF1092C80208951F920F92E6
:100C60000FB60F9211242F933F934F935F936F937F
:100C70007F938F939F93AF93BF93EF93FF9381B134
:100C8000E82FE87F8E2F90E0893C910508F0E2C0C4
:100C9000FC01E65DFF4F0C94D6268091C70283B914
:100CA00085EC86BFD7C09091A00280919F029817D3
:100CB00070F4E091A00281E08E0F8093A002F0E03A
:100CC000EF55FD4F808183B985EC86BFC3C080910D
:100CD000C602882319F00E942106BCC081E08093DF
:100CE000C50284EA86BF1092C802B4C080E2809335
:100CF0005B020E942106AEC080E380935B020E94EB
:100D00002106A8C088E380935B020E942906A2C046
:100D1000E091A00281E08E0F8093A00283B1F0E009
:100D2000EF55FD4F80839091A00280919F0298170C
:100D300018F485EC86BF8EC085E886BF8BC0E09135
:100D4000A00281E08E0F8093A00283B1F0E0EF5506
:100D5000FD4F80838091C602882319F00E942106EE
:100D600079C081E08093C50284EA86BF1092C802F0
:100D700071C00E9421066EC083E08093C802109269
:100D80005C0285EC86BF66C080915C02803270F4A4
:100D9000E0915C0281E08E0F80935C0283B1F0E011
:100DA000E35AFD4F808385EC86BF54C085E886BF3B
:100DB00051C00E94290680915C02803230F4E0919B
:100DC0005C02F0E0E35AFD4F108260915C0270E03B
:100DD000E091C102F091C2028DE592E00995109276
:100DE0005C0238C085E886BF35C084E08093C802C5
:100DF00010927E0210927D02E091C302F091C40233
:100E0000099580917D02811105C081E080937D026A
:100E100010927F02E0917E0281E08E0F80937E022D
:100E2000F0E0E158FD4F808183B990917E0280917E
:100E30007D02981718F485EC86BF0CC085E886BF44
:100E400009C085EC86BF1092C80204C010925B02F4
:100E50000E942106FF91EF91BF91AF919F918F91D9
:100E60007F916F915F914F913F912F910F900FBEA6
:100E70000F901F9018954F925F926F927F92BF9242
:100E8000CF92DF92EF92FF920F931F93CF93DF9356
:100E900090E0FC01EA51FE4F7491FC01E25FFD4FCE
:100EA0008491662311F0B72E01C0B12C69017A013B
:100EB000F694E794D794C794F694E794D794C7949C
:100EC00093E0F922482F50E0440F551F4A5C5D4FD4
:100ED00080E090E0DC010EC08C019D010F5F1F4F90
:100EE0002F4F3F4F8C159D05AE05BF0509F476C009
:100EF000D901C801FA01C591D49138813723B316BD
:100F000059F30EC08C019D010F5F1F4F2F4F3F4FB4
:100F10008C159D05AE05BF0509F464C0D901C80153
:100F2000FA01C591D49128812723B212EBCFFA019F
:100F3000C591D49128812723B21222C0C816D906A0
:100F4000EA06FB0609F452C000E010E098010CC06C
:100F50002C013D01400E511E621E731EC414D504A7
:100F6000E604F70409F446C00F5F1F4F2F4F3F4FB1
:100F7000FA01C591D49168816723B61649F303C07D
:100F800000E010E09801B901A801440F551F661F49
:100F9000771F440F551F661F771FDB01CA01880F9B
:100FA000991FAA1FBB1F880F991FAA1FBB1F840F61
:100FB000951FA61FB71F800F911FA21FB31F805C34
:100FC0009F4FAF4FBF4FBC01CD01689413F896956A
:100FD0008795779567951694D1F70FC060E070E01C
:100FE000CB010BC060E070E0CB0107C060E070E0B7
:100FF000CB0103C060E070E0CB01DF91CF911F9186
:101000000F91FF90EF90DF90CF90BF907F906F9007
:101010005F904F90089580EC87B980E886B986B1DB
:10102000876086B9369A3699FECF84B185B1089526
:1010300097B1907E97B997B180958770982B97B9A3
:10104000369A3699FECF24B185B190E0982F882743
:10105000820F911D0895CF92DF92EF92FF920F932E
:101060001F93CF93DF93E82E062FF42EC7E0D0E036
:1010700010E00F2EF7E0CF2ED12CF02D61E0802F65
:101080000E94F203F1100DC08E2D0E9411049601F2
:101090002C1B3D0B02C0880F991F2A95E2F7182BD5
:1010A0000AC08E2D0E9411040C2E02C0880F991FB9
:1010B0000A94E2F7182B60E0802F0E94F203219738
:1010C000E8F6812FDF91CF911F910F91FF90EF9064
:1010D000DF90CF900895BF92CF92DF92EF92FF9270
:1010E0000F931F93CF93DF93B82E162F042FC7E0D3
:1010F000D0E0E22EF12C0F2EF7E0CF2ED12CF02DE8
:1011000001110EC0C6018C1B9D0BB70102C0759565
:1011100067958A95E2F761708B2D0E94F2030BC0F0
:10112000B7010C2E02C0759567950A94E2F76170BD
:101130008B2D0E94F20361E0812F0E94F20360E098
:10114000812F0E94F2032197D8F6DF91CF911F9152
:101150000F91FF90EF90DF90CF90BF900895BC016A
:1011600090934703809346030898099880E89EE38C
:101170000E94A026862F603148F0772760517109C0
:10118000CB0199230CF401969595879580B911B8F8
:1011900084EC86BF85B3836085BB089584E986BFF0
:1011A00008958FEF9FEF06B607FC02C00197D9F7AD
:1011B00081B1887F0895846886BF0E94D108089510
:1011C000CF92DF92EF92FF920F931F93CF93DF9313
:1011D000C62F662319F0613021F006C000E218E145
:1011E00005C008E410E402C000E010E00F2EF4E1B6
:1011F000EF2EF12CF02D982F9160D92ED82FDE7F75
:101200000F2EF4E9CF2EF02D80E20E94DB0888300B
:1012100031F0803121F084E886BF80E01FC0C11129
:1012200002C0D3B903C0C13009F4D3B880E00E9432
:10123000DB08811791F0801305C081E0E81AF108FE
:10124000C6BE06C0883321F084E986BF80E006C0B0
:101250001E141F04CCF280E001C081E0DF91CF9129
:101260001F910F91FF90EF90DF90CF90089583B979
:1012700080E00E94DB08883231F091E0803309F091
:1012800090E0892F01C081E081700895CF93DF93B2
:10129000EC01611102C080E401C080E00E94DB0823
:1012A00093B19883982F977F81E0903509F080E083
:1012B000DF91CF910895EF92FF920F931F93CF93F9
:1012C000DF9314161506FCF461157105F1F07A012F
:1012D0008B0160E00E94E0088823C1F0E8010E0D58
:1012E0001F1D89910E943709811107C091B1987F14
:1012F000983361F094E996BF09C0C017D10789F708
:1013000094E996BF03C081E001C081E0DF91CF91F5
:101310001F910F91FF90EF9008959F92AF92BF920F
:10132000CF92DF92EF92FF920F931F93CF93DF93B1
:10133000442399F16115710599F1042F7B0161E056
:101340000E94E008A82E882379F110E010161106FB
:101350000CF5C0E0D0E0680181E0C81AD108BB24D8
:10136000B394912C6B2DCC16DD0609F0692DC701C5
:101370008C0F9D1F0E944609811108C091B1987F72
:10138000983389F094E996BFA82E0EC02196C01715
:10139000D10741F784E986BF07C0AA24A39404C0FB
:1013A000AA24A39401C0A82E8A2DDF91CF911F916A
:1013B0000F91FF90EF90DF90CF90BF90AF909F90F4
:1013C0000895CF93DF9300D0CDB7DEB769834A830A
:1013D00042E050E0BE016F5F7F4F0E945B090F90BB
:1013E0000F90DF91CF910895CF93DF93C82FD62F21
:1013F00060E00E94E0088823A1F08D2F0E94370949
:10140000882379F061E08C2F0E94E008882349F05E
:1014100061E080E090E00E944609882311F094E9A1
:1014200096BFDF91CF910895FF920F931F93CF93B3
:10143000DF93C82FD62F8A01F22E60E00E94E008C9
:10144000882351F08D2F0E943709882329F04F2DD2
:10145000B8018C2F0E948D09DF91CF911F910F91C0
:10146000FF90089588EF089581E0089588EF08952A
:1014700060E00E94E00894E996BF0895862F0E94DC
:10148000D20481E090E00895FC011382128221E5EC
:1014900031E0318320830895DB01CA0180589B47E6
:1014A000A14EBF4F880F991FAA1FBB1F880F991FFE
:1014B000AA1FBB1F880F991FAA1FBB1F440F551FD0
:1014C000661F771F440F551F661F771F9A01AB01D8
:1014D000220F331F441F551F220F331F441F551F58
:1014E000BC01CD010E94B426C90101970E94A50448
:1014F000089508950E943F2908950E943F29089564
:101500000E94D42908950E94D4290895FC0181E005
:1015100090E02081222311F080E090E0089521E006
:10152000FC012083089508950895FC018081918134
:101530000E94D4290895CF93DF93EC01888199818B
:10154000009711F00E94D429198218821D821C82F2
:101550001B821A82DF91CF9108950F931F93CF932F
:10156000DF93EC018B016F5F7F4F888199810E942F
:101570006C2A009731F0998388831B830A8381E06A
:1015800001C080E0DF91CF911F910F910895CF931B
:10159000DF93FC0120813181232B29F022813381CB
:1015A0002617370770F4EC010E94AD0A882361F01A
:1015B0008C819D81892B39F4E881F981108281E049
:1015C00003C081E001C081E0DF91CF910895EF92E7
:1015D000FF920F931F93CF93DF93EC017B018A015E
:1015E000BA010E94C70A811104C0CE010E949B0A61
:1015F00007C01D830C83B701888199810E94B92B94
:10160000CE01DF91CF911F910F91FF90EF90089540
:10161000FC011182108213821282158214826115DC
:10162000710551F0FB0101900020E9F73197AF01FE
:10163000461B570B0E94E70A0895EF92FF920F9303
:101640001F93CF93DF93EC017B018A01BA010E94C3
:10165000C70A811104C0CE010E949B0A07C01D83E6
:101660000C83B701888199810E947A2BCE01DF918A
:10167000CF911F910F91FF90EF900895CF93DF933B
:10168000EC01FB018617970761F06081718161159C
:10169000710529F0448155810E94E70A02C00E9429
:1016A0009B0ACE01DF91CF910895FC011182108237
:1016B00013821282158214820E943E0B0895CF93EA
:1016C000DF93EC016115710559F0FB0101900020D9
:1016D000E9F73197AF01461B570B0E94E70A02C09A
:1016E0000E949B0ACE01DF91CF910895CF93DF93A3
:1016F00000D0CDB7DEB7FC011182108213821282B6
:101700001582148269831A82BE016F5F7F4F0E9427
:101710005F0B0F900F90DF91CF9108950F931F9360
:10172000CF93DF93CDB7DEB729970FB6F894DEBF1E
:101730000FBECDBF8C01862FF8011182108213825B
:1017400012821582148250E0BE016F5F7F4F90E0DD
:101750000E94742CBE016F5F7F4FC8010E945F0B17
:1017600029960FB6F894DEBF0FBECDBFDF91CF91A3
:101770001F910F9108950F931F93CF93DF93CDB7D0
:10178000DEB762970FB6F894DEBF0FBECDBF8C01F7
:10179000CB01F80111821082138212821582148209
:1017A00050E0BE016F5F7F4F0E94022CBE016F5F51
:1017B0007F4FC8010E945F0B62960FB6F894DEBFA0
:1017C0000FBECDBFDF91CF911F910F9108950F9361
:1017D0001F93CF93DF93CDB7DEB761970FB6F89421
:1017E000DEBF0FBECDBF8C01CB01F801118210828C
:1017F000138212821582148250E0BE016F5F7F4F08
:101800000E94742CBE016F5F7F4FC8010E945F0B66
:1018100061960FB6F894DEBF0FBECDBFDF91CF91BA
:101820001F910F9108950F931F93CF93DF93CDB71F
:10183000DEB7A2970FB6F894DEBF0FBECDBF8C0106
:10184000CB01BA01F8011182108213821282158233
:10185000148230E0AE014F5F5F4F0E94182CBE0132
:101860006F5F7F4FC8010E945F0BA2960FB6F8947E
:10187000DEBF0FBECDBFDF91CF911F910F910895B5
:101880000F931F93CF93DF93CDB7DEB7A1970FB61A
:10189000F894DEBF0FBECDBF8C01CB01BA01F801B9
:1018A00011821082138212821582148230E0AE01FE
:1018B0004F5F5F4F0E94472CBE016F5F7F4FC80193
:1018C0000E945F0BA1960FB6F894DEBF0FBECDBF8E
:1018D000DF91CF911F910F910895EF92FF920F9397
:1018E0001F93CF93DF93CDB7DEB7A1970FB6F894D0
:1018F000DEBF0FBECDBF7C01CB01BA01F701118263
:101900001082138212821582148242E0420F8E01ED
:101910000F5F1F4F0E941F29BC01C7010E945F0B70
:10192000A1960FB6F894DEBF0FBECDBFDF91CF9169
:101930001F910F91FF90EF900895EF92FF920F93F8
:101940001F93CF93DF93CDB7DEB7A1970FB6F8946F
:10195000DEBF0FBECDBF7C01CB01BA01F701118202
:101960001082138212821582148242E0420F8E018D
:101970000F5F1F4F0E941F29BC01C7010E945F0B10
:10198000A1960FB6F894DEBF0FBECDBFDF91CF9109
:101990001F910F91FF90EF9008950F931F93CF9396
:1019A000DF938C01EB01209749F0CB010E94812B42
:1019B000AC01BE01C8010E941D0B02C00E949B0A1F
:1019C000C801DF91CF911F910F910895FC01118201
:1019D000108213821282158214820E94CD0C089507
:1019E000EF92FF920F931F93CF93DF93FC0124811B
:1019F000358161157105D1F041155105C9F08B0193
:101A0000EC017A01E20EF31EB7010E94C70A882397
:101A100081F0288139818C819D81B801820F931FCB
:101A20000E94B92BFD82EC8281E003C080E001C0FE
:101A300081E0DF91CF911F910F91FF90EF9008957A
:101A4000FB0144815581608171810E94F00C0895F1
:101A50006115710559F0FB0101900020E9F73197FC
:101A6000AF01461B570B0E94F00C089580E00895CB
:101A7000CF93DF9300D0CDB7DEB769831A8241E000
:101A800050E0BE016F5F7F4F0E94F00C0F900F90EF
:101A9000DF91CF910895EF92FF920F931F93CF9311
:101AA000DF9300D000D0CDB7DEB77C01862F4AE0AF
:101AB0008E010F5F1F4FB80190E00E940D2CF801BE
:101AC00001900020E9F73197AF01401B510BB8019D
:101AD000C7010E94F00C0F900F900F900F90DF91B4
:101AE000CF911F910F91FF90EF900895EF92FF9289
:101AF0000F931F93CF93DF93CDB7DEB728970FB621
:101B0000F894DEBF0FBECDBF7C01CB014AE08E0151
:101B10000F5F1F4FB8010E940D2CF80101900020AB
:101B2000E9F73197AF01401B510BB801C7010E9483
:101B3000F00C28960FB6F894DEBF0FBECDBFDF9134
:101B4000CF911F910F91FF90EF900895EF92FF9228
:101B50000F931F93CF93DF93CDB7DEB727970FB6C1
:101B6000F894DEBF0FBECDBF7C01CB014AE08E01F1
:101B70000F5F1F4FB8010E947F2CF80101900020D9
:101B8000E9F73197AF01401B510BB801C7010E9423
:101B9000F00C27960FB6F894DEBF0FBECDBFDF91D5
:101BA000CF911F910F91FF90EF900895EF92FF92C8
:101BB0000F931F93CF93DF93CDB7DEB72E970FB65A
:101BC000F894DEBF0FBECDBF7C01CB01BA012AE085
:101BD0008E010F5F1F4FA8010E94232CF801019076
:101BE0000020E9F73197AF01401B510BB801C70145
:101BF0000E94F00C2E960FB6F894DEBF0FBECDBF3C
:101C0000DF91CF911F910F91FF90EF900895EF9288
:101C1000FF920F931F93CF93DF93CDB7DEB72D972E
:101C20000FB6F894DEBF0FBECDBF7C01CB01BA0169
:101C30002AE08E010F5F1F4FA8010E94522CF8016D
:101C400001900020E9F73197AF01401B510BB8011B
:101C5000C7010E94F00C2D960FB6F894DEBF0FBEA0
:101C6000CDBFDF91CF911F910F91FF90EF9008951D
:101C7000EF92FF920F931F93CF93DF93CDB7DEB711
:101C800064970FB6F894DEBF0FBECDBF7C01CB01C9
:101C9000BA018E010F5F1F4F22E044E00E941F290E
:101CA000BC01FC0101900020E9F73197AF01481B0E
:101CB000590BC7010E94F00C64960FB6F894DEBF72
:101CC0000FBECDBFDF91CF911F910F91FF90EF908D
:101CD0000895EF92FF920F931F93CF93DF93CDB7A9
:101CE000DEB764970FB6F894DEBF0FBECDBF7C01A0
:101CF000CB01BA018E010F5F1F4F22E044E00E942A
:101D00001F29BC01FC0101900020E9F73197AF01C8
:101D1000481B590BC7010E94F00C64960FB6F8944B
:101D2000DEBF0FBECDBFDF91CF911F910F91FF900E
:101D3000EF900895EF92FF920F931F93CF93DF934D
:101D400061157105F1F08B01EC01CB010E94812B33
:101D50000097C9F0EC80FD80E80EF91EB701CE01B6
:101D60000E94C70A882381F0288139818C819D8156
:101D7000B801820F931F0E947A2BFD82EC8281E0D2
:101D800003C080E001C081E0DF91CF911F910F91EE
:101D9000FF90EF900895CF93DF93EC01FB01448116
:101DA0005581608171810E94F00C811103C0CE01C8
:101DB0000E949B0ACE01DF91CF910895CF93DF93CC
:101DC000EC016115710561F0FB0101900020E9F75C
:101DD0003197AF01461B570B0E94F00C811103C0D5
:101DE000CE010E949B0ACE01DF91CF910895CF933F
:101DF000DF93EC010E94380D811103C0CE010E94D7
:101E00009B0ACE01DF91CF910895CF93DF93EC0130
:101E10000E944B0D811103C0CE010E949B0ACE018E
:101E2000DF91CF910895CF93DF93EC010E94760D5F
:101E3000811103C0CE010E949B0ACE01DF91CF9198
:101E40000895CF93DF93EC010E94A60D811103C08A
:101E5000CE010E949B0ACE01DF91CF910895CF93CE
:101E6000DF93EC010E94D60D811103C0CE010E94C8
:101E70009B0ACE01DF91CF910895CF93DF93EC01C0
:101E80000E94070E811103C0CE010E949B0ACE0161
:101E9000DF91CF910895CF93DF93EC010E94380E2C
:101EA000811103C0CE010E949B0ACE01DF91CF9128
:101EB0000895CF93DF93EC010E94690E811103C056
:101EC000CE010E949B0ACE01DF91CF910895CF935E
:101ED000DF93EC010E949A0E811103C0CE010E9493
:101EE0009B0ACE01DF91CF910895DC01ED91FC9129
:101EF000309741F1DB016D917C9161157105C1F461
:101F00000DC0DB0114968D919C911597892BA1F042
:101F1000808190E09195819591090895DC01149656
:101F20008D919C911597892B51F0808190E00895B7
:101F3000CF010E94B02B089580E090E0089580E0EA
:101F400090E00895DB01ED91FC913097D1F680E0AF
:101F500090E00895FC0144815581FB012481358185
:101F60004217530739F40E94750F21E0892B19F0AD
:101F700020E001C020E0822F0895DC0114962D910D
:101F80003C911597232B61F46115710539F021E01F
:101F9000FB0180818823C9F020E017C021E015C033
:101FA0006115710549F4DC01ED91FC9121E080811E
:101FB000882359F020E009C0FC01808191810E94B2
:101FC000B02B21E0892B09F020E0822F08950E9498
:101FD000750F892F881F8827881F08950E94750F05
:101FE00021E0181619060CF020E0822F08950E94B7
:101FF000750F21E0181619060CF420E0822F0895C1
:102000000E94750F892F8095881F8827881F089543
:10201000EF92FF920F931F93CF93DF93861797074B
:1020200019F1FC0124813581FB014481558124177C
:102030003507E1F4232BE1F0DC01CD91DC91008147
:1020400011810DC090E00E946A2B7C01F801819102
:102050008F0190E00E946A2BE816F90659F48991E5
:102060008111F0CF81E007C081E005C080E003C0AE
:1020700081E001C080E0DF91CF911F910F91FF902F
:10208000EF900895DB011496ED91FC911597DC011A
:1020900014962D913C9115972E1B3F0B2417350755
:1020A000B0F02D913C912115310599F0DB016D9136
:1020B0007C916115710579F0CA01AF01820F931F00
:1020C0000E94C02B21E0892B39F020E005C020E0E0
:1020D00003C020E001C020E0822F0895FC0144816C
:1020E0005581FB01248135814217530728F040E0D8
:1020F00050E00E944210089580E00895FC01248180
:102100003581FB014481558124173507B0F0FC016E
:1021100080819181009799F0FB0160817181611547
:10212000710579F0241B350B820F931F0E94B02B91
:1021300021E0892B39F020E005C020E003C020E039
:1021400001C020E0822F0895FC01248135816217AF
:10215000730730F480819181FC01E60FF71F408303
:102160000895FC01248135816217730720F4808172
:102170009181009729F41092C90289EC92E00895A8
:10218000860F971F0895FC0124813581621773071C
:1021900048F480819181009739F0FC01E60FF71F28
:1021A0008081089580E0089580E008950E94C31022
:1021B00008950F931F93CF93DF934115510519F1A4
:1021C0006115710501F1DC011496ED91FC911597F3
:1021D0002E173F0718F0FB01108215C0E21BF30B0E
:1021E000EA012197EC17FD0708F4EF018B01FC01D0
:1021F00060817181620F731FAE01C8010E94CE2BF6
:10220000C00FD11F1882DF91CF911F910F910895B8
:10221000CF93DF93FC01248135814217530768F483
:10222000C081D18170E0CE01840F951F0E94A52B43
:10223000009731F08C1B9D0B05C08FEF9FEF02C004
:102240008FEF9FEFDF91CF91089540E050E00E9423
:1022500008110895CF93DF93FC0124813581421743
:10226000530780F4FB01DC01CD91DC916081718129
:10227000CE01840F951F0E94E82B009731F08C1B34
:102280009D0B05C08FEF9FEF02C08FEF9FEFDF9197
:10229000CF91089540E050E00E942A110895DF9206
:1022A000EF92FF920F931F93CF93DF93DC0114966D
:1022B0002D913C91159742175307D8F48C01EA01F0
:1022C0002196ED91FC911197EC0FFD1FD0801082AB
:1022D000ED90FC9070E0C7010E94DD2BCE0DDF1D5C
:1022E000D882009749F0F80120813181821B930B3D
:1022F00005C08FEF9FEF02C08FEF9FEFDF91CF916F
:102300001F910F91FF90EF90DF900895FC014481A1
:102310005581415051090E944F110895AF92BF92CB
:10232000CF92DF92EF92FF920F931F93CF93DF93A1
:102330008A01FB014481558141155105C9F1FC0118
:102340002481358121153105B1F124173507B0F10C
:102350000217130718F0890101501109FC01C0810F
:10236000D1817E01E00EF11EEC16FD06D0F0FB01DE
:10237000C080D180CE01AA24AA94BB24BA94B6010D
:102380000E94E82B009789F09C012C1B3D0B021743
:10239000130710F0A22EB32E0196E816F90678F76F
:1023A00004C0AA24AA94BB24BA948A2D9B2D08C0E9
:1023B0008FEF9FEF05C08FEF9FEF02C08FEF9FEF72
:1023C000DF91CF911F910F91FF90EF90DF90CF9011
:1023D000BF90AF900895FC0144815581FB01248199
:1023E0003581421B530B0E948E110895BF92CF92EC
:1023F000DF92EF92FF920F931F93CF93DF937C01B5
:102400006B018A01E9012417350720F4812F890126
:10241000C42FD82F6CE471E0C7010E94080BD601CD
:1024200014968D919C91159780179107D0F08C1779
:102430009D0708F4EC01D601ED91FC911197EC0F8A
:10244000FD1FB08010824D915C91BA01600F711F29
:10245000C7010E945F0BF60180819181C80FD91FCF
:10246000B882C701DF91CF911F910F91FF90EF903C
:10247000DF90CF90BF900895DC01ED91FC913097F3
:1024800051F08081882339F0861301C04083319652
:1024900080818111F9CF08952F923F924F925F92E0
:1024A0006F927F928F929F92AF92BF92CF92DF9264
:1024B000EF92FF920F931F93CF93DF93FC01448021
:1024C00055804114510409F4BCC0FB01648075803F
:1024D0006114710409F4B5C0EA017B018C01CC8060
:1024E000DD80C618D708C601F80180809180C1142C
:1024F000D10461F015C0688179814C815D81C8018A
:102500000E948A2B8C809D80800E911EF701608135
:102510007181C4010E94E82B8C01892B61F791C065
:1025200099233CF1FB0120803180520136C05301D8
:10253000A818B908A501B401C2010E948A2BA40CF5
:10254000B51C688179814C815D81C5010E948A2B0F
:102550004C805D804A0C5B1CF70184809580860C62
:10256000971CF801848195818C0D9D1D9583848332
:1025700001C02401F70160817181C4010E94E82B30
:102580003C01892BA1F6B401C2010E94B92B59C0AC
:102590004C01860C971CAC0CBD1CB101C4010E94FF
:1025A000E82B0097A9F7A414B50409F44AC0F80170
:1025B000828193818A159B0530F4B501C8010E9480
:1025C000AD0A8823F1F1F801448155814150510948
:1025D0002FC0F80180819181F701248135812A0D76
:1025E0003B1D820F931FF80144815581421B530B01
:1025F000BC018C0D9D1D0E94932BF8018481958157
:102600008C0D9D1D9583848320813181F901E80F14
:10261000F91F1082F80180819181688179814C8154
:102620005D818A0D9B1D0E948A2BA5014150510995
:1026300055233CF0B701C8010E948E115C0199231B
:1026400044F6DF91CF911F910F91FF90EF90DF90B3
:10265000CF90BF90AF909F908F907F906F905F9042
:102660004F903F902F900895CF93DF93EC01CB01D3
:102670002C813D816217730720F54115510509F141
:10268000640F751F2617370718F4A901481B590B4B
:10269000A881B981241B350B3D832C83281B390B62
:1026A000480F591FBD01640F751FA9018A0F9B1F99
:1026B0000E94CE2BE881F9818C819D81E80FF91F62
:1026C0001082DF91CF910895FC01448155816417F8
:1026D000750720F4461B570B0E9434130895CF93BF
:1026E000DF93FC01C081D181209751F0888188233C
:1026F00039F090E00E946A2B899388818111F9CF8B
:10270000DF91CF910895CF93DF93FC01C081D181F8
:10271000209751F08881882339F090E00E94722B35
:10272000899388818111F9CFDF91CF910895AF927C
:10273000BF92CF92DF92EF92FF920F931F93CF93AE
:10274000DF93DC01CD90DC901197C114D104E9F145
:102750001496CD91DC9115972097B9F17C01560123
:102760008501BFEFAB1ABB0AF801808190E00E949F
:10277000612B892BA9F72197CC0DDD1D01C0219775
:10278000888190E00E94612B892B19F0C017D10736
:10279000B0F7AE014F5F5F4F401B510BD70115964D
:1027A0005C934E931497C016D10620F4B801C6016D
:1027B0000E948A2BD701ED91FC91119714968D916F
:1027C0009C911597E80FF91F1082DF91CF911F910F
:1027D0000F91FF90EF90DF90CF90BF90AF90089552
:1027E000FC0180819181009719F00E943A2B089595
:1027F00060E070E0CB010895FC0180819181009739
:1028000019F00E94362B089560E070E0CB01089526
:102810000895FC0166830895CF93DF93EC0166234E
:1028200089F0E881F9818FEF808341E069858F81AC
:1028300098850E94091541E06A858F8198850E94DC
:1028400009150FC0E881F981108240E069858F8108
:1028500098850E94091540E06A858F8198850E94BD
:1028600009158F8198850E943515DF91CF910895C4
:10287000EF92FF920F931F93CF93DF93EC01822F80
:1028800069874A8718870F83F982E88261E00E948E
:10289000B30360E0CE010E940C141B821A821D82D9
:1028A0001C8285E08E83DF91CF911F910F91FF9065
:1028B000EF9008950F931F93CF93DF93EC018B015B
:1028C0006115710521F460E00E940C1430C01616E9
:1028D00017066CF440E069858F8198850E94091580
:1028E00041E06A858F8198850E9409150CC041E0FE
:1028F00069858F8198850E94091540E06A858F81DE
:1029000098850E9409158F8198850E943515C80108
:10291000992324F488279927801B910BE881F9815A
:102920008F3F910519F014F08FEF90E08083DF91D5
:10293000CF911F910F9108950F931F93CF93DF9322
:10294000EC018B016115710521F460E00E940C140B
:1029500030C0161617066CF440E069858F819885A3
:102960000E94091541E06A858F8198850E940915AA
:102970000CC041E069858F8198850E94091540E06F
:102980006A858F8198850E9409158F8198850E949C
:102990003515C801992324F488279927801B910BAA
:1029A000E881F9818F3F910519F014F08FEF90E0E5
:1029B0008083DF91CF911F910F910895FC01428197
:1029C00053818481958148175907D1F0268130E0E1
:1029D000BC01620F731F461757071CF07583648391
:1029E0000AC0821B930B841795071CF09583848380
:1029F00002C055834483CF01648175810E949C1479
:102A00000895FC01108221E021830895FC01628376
:102A10000895FC012081442351F081E090E002C040
:102A2000880F991F6A95E2F7822B80830AC081E0A4
:102A300090E002C0880F991F6A95E2F78095822383
:102A400080838081821711F081E081830895CF9384
:102A5000DF93EC018A8121E0AE0160E08F5F0E948C
:102A6000140A8881DF91CF910895CF93DF93FC0101
:102A70002181222341F0EC0141E050E0BC01828140
:102A80000E945B091982DF91CF910895CF92DF9266
:102A9000EF92FF920F931F93CF93DF934115510550
:102AA000B1F08C01E62EF72EEA01C12CD12CD70112
:102AB0006D917D01D801ED91FC910190F081E02DA7
:102AC000C8010995C80ED91E219789F702C0C12CEB
:102AD000D12CC601DF91CF911F910F91FF90EF9004
:102AE000DF90CF900895EF92FF920F931F93CF93B3
:102AF000DF93EB012196FB016491662399F08C0131
:102B0000E12CF12CD801ED91FC910190F081E02DA8
:102B1000C8010995E80EF91EFE0164912196611124
:102B2000F1CF02C0E12CF12CC701DF91CF911F91B1
:102B30000F91FF90EF900895DC01ED91FC91DB0186
:102B400014964D915C9115976D917C910280F38163
:102B5000E02D099508956115710581F0FB01019043
:102B60000020E9F73197AF01461B570BDC01ED91CF
:102B7000FC910280F381E02D0995089580E090E0BA
:102B80000895DC01ED91FC910190F081E02D099513
:102B90000895DB01ED91FC9111970190F081E02DFA
:102BA000BC01CD01099508950F931F93CF93DF9337
:102BB000EC016DE00E94C1158C016AE0CE010E941B
:102BC000C115800F911FDF91CF911F910F91089533
:102BD0000F931F93CF93DF93EC010E9473158C0129
:102BE000CE010E94D415800F911FDF91CF911F91CC
:102BF0000F9108950F931F93CF93DF93EC010E94E1
:102C00009C158C01CE010E94D415800F911FDF917D
:102C1000CF911F910F9108950F931F93CF93DF933F
:102C2000EC010E94AB158C01CE010E94D415800FDF
:102C3000911FDF91CF911F910F9108950F931F93D3
:102C4000CF93DF93EC010E94C1158C01CE010E944D
:102C5000D415800F911FDF91CF911F910F9108958F
:102C60000F931F93CF93DF93EC010E94C9158C0142
:102C7000CE010E94D415800F911FDF91CF911F913B
:102C80000F9108954F925F926F927F929F92AF92B1
:102C9000BF92CF92DF92EF92FF920F931F93CF9349
:102CA000DF93CDB7DEB7A1970FB6F894DEBF0FBEA6
:102CB000CDBF5C016A017B01922E19A281E08217CF
:102CC00020F00F2EFAE09F2EF02D8E010F5D1F4F8A
:102CD000492C512C612C712CC701B601A301920122
:102CE0000E94B4268C2D929E801911240150110946
:102CF0008A3010F4805D01C0895CD8018C93C22EAB
:102D0000D32EE42EF52EC114D104E104F10421F7F1
:102D10000115110591F0F80101900020E9F73197B4
:102D2000AF01401B510BD501ED91FC910280F38165
:102D3000E02DB801C501099502C080E090E0A196A0
:102D40000FB6F894DEBF0FBECDBFDF91CF911F91BC
:102D50000F91FF90EF90DF90CF90BF90AF909F903A
:102D60007F906F905F904F900895CF92DF92EF9297
:102D7000FF920F931F93CF93DF93EC016A017B01C6
:102D80002115310541F4E881F9810190F081E02DB0
:102D9000642F09951DC02A303105C1F4772394F4BE
:102DA0006DE20E94C1158C0144275527BA014C19C8
:102DB0005D096E097F092AE0CE010E944216800F4C
:102DC000911F06C02AE00E94421602C00E944216CD
:102DD000DF91CF911F910F91FF90EF90DF90CF90F7
:102DE00008959A01AB01770F660B770B0E94B51619
:102DF00008950F931F93CF93DF93EC010E94B516B4
:102E00008C01CE010E94D415800F911FDF91CF91CC
:102E10001F910F9108950F931F93CF93DF93EC01B0
:102E20009A01AB01770F660B770B0E94B5168C01E8
:102E3000CE010E94D415800F911FDF91CF911F9179
:102E40000F9108952115310549F4DC01ED91FC91B4
:102E50000190F081E02D642F099508950E9442169B
:102E600008959A01462F50E060E070E00E9422171A
:102E700008959A01AB0160E070E00E942217089566
:102E80000F931F93CF93DF93EC010E9422178C01C5
:102E9000CE010E94D415800F911FDF91CF911F9119
:102EA0000F9108950F931F93CF93DF93EC019A0135
:102EB000AB0160E070E00E9422178C01CE010E94FD
:102EC000D415800F911FDF91CF911F910F9108951D
:102ED0000F931F93CF93DF93EC019A01462F50E09D
:102EE00060E070E00E9422178C01CE010E94D41590
:102EF000800F911FDF91CF911F910F9108954F92F5
:102F00005F927F928F929F92AF92BF92CF92DF9209
:102F1000EF92FF920F931F93CF93DF9300D000D0D7
:102F2000CDB7DEB78C014A015B01722E9A01AB016D
:102F3000C501B4010E941A29882331F065E571E0CA
:102F4000C8010E94AB15D2C075016401E894F7F87E
:102F50002FEF3FEF4FE75FE7C701B6010E941A2945
:102F6000811110C02FEF3FEF4FE75FE7C701B601B8
:102F70000E944927181634F469E571E0C8010E94DF
:102F8000AB15B4C02FEF3FEF4FE75FE4C501B401CD
:102F90000E94A828181634F46DE571E0C8010E945B
:102FA000AB15A4C02FEF3FEF4FE75FECC501B401B5
:102FB0000E944927882334F46DE571E0C8010E941E
:102FC000AB1594C020E030E0A901C501B4010E9416
:102FD0004927882354F46DE2C8010E94C1157C0181
:102FE000B7FAB094B7F8B09402C0E12CF12C772076
:102FF00009F467C0D12C60E070E080E09FE320E03E
:1030000030E040E251E40E944E27D394D710F7CF2E
:103010002BC020E030E040E251E4C501B4010E9441
:10302000AD284B015C010E94C0276B01770FEE08B1
:10303000FF082AE030E0B701A601C8010E94B516DA
:10304000480E591EC701B6010E94F8279B01AC012A
:10305000C501B4010E94DC264B015C017A94711019
:10306000D8CF842D952D42C09B01AC01C501B40180
:103070000E94DD264B015C010E94C72769837A8389
:103080008B839C830E94F6279B01AC01C501B40190
:103090000E94DC264B015C012AE030E049815A8124
:1030A0006B817C81C8010E9422176C0167E971E085
:1030B000C8010E94AB158C0D9D1D2C014E0C5F1C90
:1030C000A8CF20E030E040E05FE3C501B4010E94FA
:1030D000DD260E94C727AB01BC012AE030E0C80111
:1030E0000E9422172C014E0C5F1CBBCF0F900F903B
:1030F0000F900F90DF91CF911F910F91FF90EF9064
:10310000DF90CF90BF90AF909F908F907F905F9017
:103110004F9008950E947F1708950F931F93CF93A8
:10312000DF93EC010E947F178C01CE010E94D41521
:10313000800F911FDF91CF911F910F910895909172
:10314000CC02981306C0AF982091CD0292130EC006
:1031500007C0811161C0992309F459C0AF9A57C0C3
:10316000AE989091CE0298130EC007C091115EC028
:10317000222309F456C0AE9A54C0AD989091CF0264
:1031800098130EC007C0811156C0992309F458C086
:10319000AD9A56C0AC989091D00298130EC007C05B
:1031A000811158C0992309F450C0AC9A4EC094982C
:1031B0009091D10298130EC007C0811155C0992378
:1031C00009F44DC0949A4BC095989091D2029813EF
:1031D0000EC007C0811152C0992309F44AC0959AC4
:1031E00048C096989091D30298130AC007C08111E5
:1031F0004AC0992309F44CC0969A4AC097980895FA
:10320000811169C0992309F466C0979A0895909135
:10321000CD029111B0CFA4CF9091CD0298133DC0B3
:103220009FCF9091CE029813B0CFA7CF2091CE021E
:10323000921338C0A2CF9091CF02981338C0AACF72
:103240009091CF029813AECFA5CF9091D002981352
:10325000B6CFADCF9091D00298132EC0A8CF909149
:10326000D1029813B9CFB0CF9091D102981329C051
:10327000ABCF9091D2029813BCCFB3CF9091D20232
:10328000981324C0AECF9091D302981324C0B6CF28
:103290009091D3029813B6CFB1CF9091CE029813EC
:1032A000CACF6BCF9091CF029813D4CF73CF9091A8
:1032B000D0029813D9CF7BCF9091D1029813DECF53
:1032C00083CF9091D2029813DECF8BCF9091D3020F
:1032D000981709F493CF08958091EC028330B8F0E9
:1032E0009091E10280B323B3E92FF0E0EE51FD4F5E
:1032F00022952F70807F822B80839F5F9B3018F4F4
:103300009093E10202C01092E1021092EC028091CF
:10331000EC028F5F8093EC0208958091DA028111B4
:1033200002C0C0980FC02091E00290E0820F911D72
:103330002091DE023091DF028217930710F0C09ACD
:1033400001C0C0988091DB02811102C0C1980FC0FA
:103350002091E00290E0820F911D2091DE023091D9
:10336000DF028217930710F0C19A01C0C1988091C3
:10337000DC02811102C0C2980FC02091E00290E0EF
:10338000820F911D2091DE023091DF028217930798
:1033900010F0C29A01C0C2988091DD02811102C072
:1033A000C3980FC02091E00290E0820F911D209100
:1033B000DE023091DF028217930710F0C39A01C03A
:1033C000C3988091D802811102C0A8980FC02091A3
:1033D000E00290E0820F911D2091DE023091DF0229
:1033E0008217930710F0A89A01C0A8988091D9027B
:1033F000811102C097980FC02091E00290E0820FE7
:10340000911D2091DE023091DF028217930710F0A8
:10341000979A01C097988091DE029091DF02009701
:1034200051F48091E00290E081509F4F9093DF0231
:103430008093DE02089501979093DF028093DE026D
:1034400008951F920F920FB60F9211242F933F935E
:103450004F935F936F937F938F939F93AF93BF939C
:10346000EF93FF938091D702811106C00E948D19BE
:1034700081E08093D7022FC0813031F40E946C1913
:1034800082E08093D70227C01092D7028091D502A4
:103490009091D602883022E0920729F41092D60249
:1034A0001092D5020FC08130910521F480E00E9476
:1034B0009F1808C09C01245131092932310510F4AC
:1034C0000E949F188091D5029091D6020196909308
:1034D000D6028093D5020E945403FF91EF91BF91D1
:1034E000AF919F918F917F916F915F914F913F919C
:1034F0002F910F900FBE0F901F9018958091D402BE
:1035000081110CC08091CA029091CB020E94DE14FE
:103510008091D4028F5F8093D40208958091D40269
:10352000813069F48091CA029091CB020B960E947F
:10353000DE148091D4028F5F8093D402089580912D
:10354000D402823069F48091CA029091CB024696EF
:103550000E94DE148091D4028F5F8093D40208957C
:103560008091CA029091CB0281960E94DE14109243
:10357000D40208952F923F924F925F926F927F9262
:103580008F929F92AF92BF92CF92DF92EF92FF9273
:103590000F931F93CF93DF934C01EC018C01045DDB
:1035A0001F4FCE010E9408142B96C017D107C9F7F0
:1035B000C4018C960E94440A640180E3C80ED11CA9
:1035C000C6010E9401151401E3E32E0E311CC10156
:1035D0000E9401150E94AC0384E690E00E94AF08AF
:1035E0000E940B08F40110AE62E087E10E94B30371
:1035F00061E087E10E94F203F40116AA62E088E12B
:103600000E94B30361E088E10E94F203F40117AA6B
:10361000C0E9D0E008E910E062E089910E94B303BC
:10362000C017D107C9F7CCE9D0E004EA10E060E0A8
:1036300089910E94B303C017D107C9F762E084E003
:103640000E94B30362E085E00E94B30362E086E07B
:103650000E94B30362E087E00E94B30361E08FE061
:103660000E94B30361E080E10E94B30360E7C101FF
:103670000E9406156EE7C6010E9406150F2EFCE893
:103680006F2EF0E07F2EF02DC5E8D0E054010F2E14
:10369000FAEDCF2EF2E0DF2EF02D0F2EF0E94F2EB7
:1036A000F0E05F2EF02DF30121913F01FE013197F3
:1036B0007601810148816081C5010E9438142296FB
:1036C000FBE0AF0EB11C8FEFC81AD80A6414750462
:1036D00051F7E8EDF2E010821182ECECF2E084EDBB
:1036E00092E01192E817F907E1F79092CB028092ED
:1036F000CA02DF91CF911F910F91FF90EF90DF9061
:10370000CF90BF90AF909F908F907F906F905F9081
:103710004F903F902F9008950F931F93CF93DF9377
:10372000EC018C01045D1F4F60E070E0CE010E944F
:103730005A142B96C017D107B9F7DF91CF911F917B
:103740000F91089577231CF47195619571096F3F6E
:10375000710519F014F06FEF70E06093E0020895C6
:10376000FF920F931F93CF93DF93623098F48C01F5
:10377000C62FD0E0FE01EE57FF4FF08061E08F2DA5
:103780000E94B30361E08F2D0E94F203C00FD11F8E
:1037900081E08EABDF91CF911F910F91FF90089543
:1037A000EF92FF920F931F93CF93DF936230A0F4B9
:1037B000142F7C01C62FD0E0FE01EE57FF4F008191
:1037C00061E0802F0E94B303CE0DDF1D61E06EAB80
:1037D0006127802F0E94F203DF91CF911F910F91FB
:1037E000FF90EF900895442349F0623070F4E62F83
:1037F000F0E0E852FD4F8FEF80830895623028F4A7
:10380000E62FF0E0E852FD4F10820895623028F470
:10381000E62FF0E0E852FD4F408308951F93CF93C9
:10382000DF93162FC42FD0E0FE01E057FF4F61E079
:1038300080810E94B303612F70E080E090E00E94DD
:10384000F82721EA30EA40E25EE30E94AD280E94B8
:10385000C727C453DD4F693208F068E26C5E6883A5
:10386000DF91CF911F910895CF93DF93C62FD0E0C2
:10387000FE01E057FF4F62E080810E94B303C45312
:10388000DD4F1882DF91CF910895EF92FF920F9351
:103890001F93CF93DF93623090F58C01C62FD0E059
:1038A000FC01EC0FFD1F86A98823D9F0FE01EE571D
:1038B000FF4FF0808F2D0E941104E82E60E08F2DC5
:1038C0000E94B303C00FD11F1EAA8F2D0E941104A6
:1038D000C1E0892B09F0C0E06E2D8F2D0E94F2030C
:1038E00009C0CE57DF4F88810E941104C1E0892BA7
:1038F00009F0C0E081E0C11103C080E001C080E0B8
:10390000DF91CF911F910F91FF90EF9008950F934A
:103910001F93CF938C01C62F623060F46C2FC801C7
:103920000E94451C8823D1F36C2FC8010E94451CBE
:103930008111FACFCF911F910F910895683078F4DB
:10394000E62FF0E0E456FF4F80810E94180899238B
:103950000CF403969595879595958795089580E045
:103960000895CF93C62F643080F06C30F8F4C09681
:103970000E94271590E0ECEFEC0F02C0959587951B
:10398000EA95E2F7282F217012C0E62FF0E0E85602
:10399000FF4FC08162E08C2F0E94B3038C2F0E94E6
:1039A000110421E0892B19F020E001C020E0822FD2
:1039B000CF9108951F93CF93DF93142F643070F449
:1039C000E62FF0E0E856FF4FC08161E08C2F0E94A7
:1039D000B303612F8C2F0E94F2030BC06C3048F4AC
:1039E000EC01E0966450CE010E940915CE010E94C0
:1039F0003515DF91CF911F910895CF93DF93C62F97
:103A0000E62FF0E0E057FF4FD08162E08D2F0E945B
:103A1000B303C83040F48D2F0E94110421E0892B9C
:103A200019F020E001C020E0822FDF91CF910895AE
:103A3000CF93C62FE62FF0E0E057FF4F62E0808182
:103A40000E94B303C430D8F483E08C1B8430C8F4E4
:103A500041E050E002C0440F551F8A95E2F7E2EEC4
:103A6000F2E06CEE72E080E0219130E02423352317
:103A7000232B09F08F5FE617F707B1F703C080E04B
:103A800001C080E0CF910895FB0180819181A281E6
:103A9000B3810097A105B10539F08F3F9105A105CC
:103AA000B10509F018F4089580E008958FEF0895A6
:103AB0000F931F93CF93DF9300D000D0CDB7DEB725
:103AC0006430C0F48C01E62FF0E0E856FF4F2CED97
:103AD00035E040E050E060E080810E943B07698370
:103AE0007A838B839C83BE016F5F7F4FC8010E94E6
:103AF000441D01C080E00F900F900F900F90DF9158
:103B0000CF911F910F9108950F931F93CF938C0125
:103B1000045D1F4F69E671E0C8010E940C16C2E007
:103B20008C2F0E94380A882381F06DE771E0C8016C
:103B30000E94AB1540E150E06C2FC8010E94311784
:103B400068E871E0C8010E940C16CE5FC43F41F7DF
:103B50006FE871E0C8010E940C16CF911F910F9180
:103B600008958091E00290E081509F4F9093DF0292
:103B70008093DE0208950F931F93CF93DF93EC01A0
:103B80000E947103688779878A879B87E881F9811A
:103B90000680F781E02DCE0109959923BCF40E949F
:103BA0007103088519852A853B85DC01CB01801BC3
:103BB000910BA20BB30B0C811D812E813F818017CD
:103BC0009107A207B30710F38FEF9FEFDF91CF911B
:103BD0001F910F9108950F931F93CF93DF93EC01E3
:103BE0000E947103688779878A879B87E881F981BA
:103BF0000084F185E02DCE0109959923BCF40E9443
:103C00007103088519852A853B85DC01CB01801B62
:103C1000910BA20BB30B0C811D812E813F8180176C
:103C20009107A207B30710F38FEF9FEFDF91CF91BA
:103C30001F910F9108950F931F93CF93DF93EC0182
:103C4000162F042FCE010E94EB1D9C01992324F115
:103C50008D32910519F1C0970A9718F1002319F0D8
:103C60002E32310509F1113011F1123069F42D3085
:103C7000310551F034F4295031092230310520F05A
:103C800019C020323105B1F4E881F9810680F7814D
:103C9000E02DCE010995D6CF932F0EC08DE290E096
:103CA0000BC0822F932F08C08EE290E005C08FEFEB
:103CB0009FEF02C08FEF9FEFDF91CF911F910F9188
:103CC0000895FC01448355836683778308954F925A
:103CD0005F926F927F92AF92BF92CF92DF92EF92FC
:103CE000FF920F931F93CF93DF93EC01042F40E0DB
:103CF0000E941B1E99230CF452C0C12CD12C7601BA
:103D0000B12C10E0AA24A3940817190751F18D32A1
:103D1000910531F19C01205331092A30310508F514
:103D2000CC0CDD1CEE1CFF1C26013701440C551C7D
:103D3000661C771C440C551C661C771CC40CD51CD7
:103D4000E61CF71CAC01990F660B770BC40ED51E51
:103D5000E61EF71E80E3C81AD108E108F10801C089
:103D6000BA2CE881F9810680F781E02DCE01099512
:103D7000CE010E94EB1D9C01205331092A303105F0
:103D800018F20817190709F4BFCFBB2061F06627A6
:103D90007727CB016C197D098E099F0906C060E069
:103DA00070E0CB0102C0C701B601DF91CF911F9136
:103DB0000F91FF90EF90DF90CF90BF90AF907F90EA
:103DC0006F905F904F9008955F926F927F928F9265
:103DD0009F92AF92BF92CF92DF92EF92FF920F939A
:103DE0001F93CF93DF93EC01042F41E00E941B1E31
:103DF000FC0199230CF47FC00F2E812C912CF0E84C
:103E0000AF2EFFE3BF2EF02DC12CD12C7601712CEB
:103E1000512C10E0662463940E171F07C9F1ED3290
:103E2000F10599F1EE32F10591F1CF01C0970A97B2
:103E300078F5CC0CDD1CEE1CFF1CB701A601440F6D
:103E4000551F661F771F440F551F661F771FC40E2F
:103E5000D51EE61EF71EAF01FF0F660B770BC40ED3
:103E6000D51EE61EF71E80E3C81AD108E108F10846
:103E7000772071F02DEC3CEC4CEC5DE3C501B40116
:103E80000E94AD284B015C0103C0562C01C0762C6A
:103E9000E881F9810680F781E02DCE010995CE01F8
:103EA0000E94EB1DFC01C0970A9708F4B5CFEE32D3
:103EB000F10519F4772009F4AFCF0E171F0709F4A5
:103EC000ABCF552041F0F094E094D094C094C11C45
:103ED000D11CE11CF11C772049F0C701B6010E94FA
:103EE000F827A50194010E94AD2808C0C701B601BA
:103EF0000E94F82703C060E070E0CB01DF91CF9112
:103F00001F910F91FF90EF90DF90CF90BF90AF90F7
:103F10009F908F907F906F905F900895CF92DF92E7
:103F2000EF92FF920F931F93CF93DF936C017A016F
:103F3000452B91F0062F172FC0E0D0E0C6010E945C
:103F4000BB1D992344F0F80181938F012196CE1572
:103F5000DF05A1F701C07E01C701DF91CF911F915D
:103F60000F91FF90EF90DF90CF900895AF92BF92A6
:103F7000CF92DF92EF92FF920F931F93CF93DF9335
:103F800021153105D9F079016C01C42FD52FA12C51
:103F9000B12C062F10E0C6010E94BB1D99235CF0D6
:103FA0000817190741F089938FEFA81AB80AAE14C1
:103FB000BF0489F757018A2D9B2D02C080E090E055
:103FC000DF91CF911F910F91FF90EF90DF90CF90F5
:103FD000BF90AF9008950F931F93CF93DF93EC01A1
:103FE0008B016CE471E00E94080BC8010E94BB1DAC
:103FF00099234CF0682FCE010E94380DC8010E9411
:10400000BB1D9923BCF7CE01DF91CF911F910F917A
:104010000895EF92FF920F931F93CF93DF938C013C
:104020007B01C42F6CE471E00E94080BC7010E9461
:10403000BB1D992384F0D0E08C179D0761F0682F99
:10404000C8010E94380DC7010E94BB1D99231CF0B6
:104050008C179D07A1F7C801DF91CF911F910F9198
:10406000FF90EF9008952F923F924F925F926F9240
:104070007F928F929F92AF92BF92CF92DF92EF92F8
:10408000FF920F931F93CF93DF9300D000D0CDB753
:10409000DEB79A8389833B014A01880C991C840E00
:1040A000951E880C991C860E971E6815790510F5CB
:1040B000DB0112968D919C911397892B39F0FB01AE
:1040C00015C082819381892B89F401C0FB019F0176
:1040D00026193709359527954BEA5AEA249FC001DE
:1040E000259F900D349F900D11249EC03696E815A3
:1040F000F90538F3362C272CB12CA12C89819A8113
:104100000E94BB1D6C0199230CF48CC068147904C7
:10411000A8F7A32DB22D4D915C91119714960D9196
:104120001C911597FA01E00FF11F808190E08C152A
:104130009D05E9F40F5F1F4F15961C930E9314977E
:1041400012968D919C9113970817190709F064C076
:104150009D0126193709359527954BEA5AEA249F80
:10416000C001259F900D349F900D11245DC0011555
:10417000110509F451C07A01EFEFEE1AFE0A2D0184
:10418000D20114966D917C9115979B0121503109B4
:1041900015963C932E931497FA01E20FF31F80813A
:1041A00090E08C159D05A1F52115310529F4159692
:1041B0007C936E93149730C0F801E21BF30BCA0195
:1041C0008E0F9F1F9C838B83DA019C91AB81BC81F6
:1041D0008C919813D5CFD7013196E40FF51F8B2D15
:1041E0009A2D5C824B8204C04D905190451004C0C2
:1041F000019682179307C0F34B805C808217930768
:1042000009F0BECFD20115967C936E93149704C02B
:10421000232B09F0B5CFD2011696A815B90508F4DD
:104220007ACF6CCF8FEF9FEF0F900F900F900F9082
:10423000DF91CF911F910F91FF90EF90DF90CF9082
:10424000BF90AF909F908F907F906F905F904F90B6
:104250003F902F900895FF920F931F93CF93DF937A
:10426000CDB7DEB72C970FB6F894DEBF0FBECDBF2B
:1042700021153105A9F4FE01319626E0DF011D92DA
:104280002A95E9F77A8369835C834B8341E050E0A8
:10429000BF010E94332021E0892BE9F020E01BC000
:1042A000FE0131960F2EFCE0FF2EF02DDF011D9256
:1042B000FA94E9F77A8369835C834B8338872F8389
:1042C0001A87098742E050E0BF010E94332021E0B5
:1042D000892B09F020E0822F2C960FB6F894DEBFD0
:1042E0000FBECDBFDF91CF911F910F91FF90089529
:1042F0000F931F93FB0101900020E9F73197AF0165
:10430000461B570B00E010E020E030E00E942B211C
:104310001F910F9108950F931F9300E010E020E08C
:1043200030E00E942B211F910F9108950F931F934E
:104330009A01FA0101900020E9F731978F01041BDF
:10434000150BFB0101900020E9F73197AF01461BE7
:10435000570B0E942B211F910F910895CF93DF934C
:10436000A8E7B0E0EEEEF2E091E04D915D912081A2
:10437000EA01C20FD11D388138130BC02F5F208393
:10438000EA01C20FD11D2881211104C09093ED02D2
:1043900001C010829F5F3196933039F780E0DF9142
:1043A000CF91089561E070E080E090E00E947D038D
:1043B0000E94B9049923B1F308952F923F924F922E
:1043C0005F926F927F928F929F92AF92BF92CF92A5
:1043D000DF92EF92FF920F931F93CF93DF93CDB7AE
:1043E000DEB72F970FB6F894DEBF0FBECDBF9F8705
:1043F0008E870E9471032B013C01AE014F5F5F4F1E
:104400009E01235F3F4FFA0181E08193E217F3079A
:10441000E1F7CC24CA94812C912C242E5D8733247F
:104420003A940E94B9049C0122272115310509F014
:104430004DC0D82E882309F44CC02AE0821306C050
:104440008E859F850E94D2218C2D64C00F2EF0E6B0
:10445000AF2EF0E0BF2EF02D022D1D85E12CF12CAA
:10446000C32C232DD501ED91FD915D01E80DF91DC2
:1044700080818D110BC0F8018081813039F40E9458
:1044800071032B013C01CE2C2F2D02C0D8011C92B0
:10449000BFEFEB1AFB0A0F5F1F4FECE0EE16F104C3
:1044A00009F78C2D922F992324F0FFEF8F1A9F0A82
:1044B00019C00196B9F48E859F850E94D22182E0B1
:1044C000AE85BF8517968C938CEF24C021153140A3
:1044D00049F083E0EE85FF858783CF010E94D221DA
:1044E0008DEF18C00E947103DC01CB01841995097E
:1044F000A609B70989389341A105B10508F491CF00
:1045000081E0AE85BF8517968C931797CD010E94E9
:10451000D2218EEF2F960FB6F894DEBF0FBECDBF1F
:10452000DF91CF911F910F91FF90EF90DF90CF908F
:10453000BF90AF909F908F907F906F905F904F90C3
:104540003F902F9008951F93CF93DF93EC01162F88
:104550006AE070E080E090E00E947D03CE010E945E
:10456000D221112351F089818130F9F089E991E05C
:104570000E94E30481E0898308C089818823B9F01F
:104580008DE991E00E94E3041982CE010E94DD21B1
:10459000883079F0863079F08FEF89838F818111AF
:1045A0000CC084E08F838FEF09C080E007C080E0FB
:1045B00005C080E003C080E001C08FEFDF91CF91A4
:1045C0001F910895CF93DF93EC0161E00E94A32235
:1045D000811122C082EA91E00E94E304198260ED19
:1045E00077E080E090E00E947D03CE010E94DD2113
:1045F000833059F461E0CE010E94A32291E0811141
:1046000001C090E0892F81950AC08F81811106C079
:1046100084E08F838FEF03C08FEF01C08FEFDF91B6
:10462000CF910895EF92FF920F931F93CF93DF9353
:104630008C01D62F7A0161E00E94A322C82F81113C
:1046400020C0C8010E94D22183E50E94D2048D2F90
:104650000E94D2048CE20E94D204C7010E94E304AB
:104660008AEB91E00E94E304C8010E94DD218130C1
:1046700059F0F8018781811106C084E08783CFEF6C
:1046800003C0CFEF01C0CFEF8C2FDF91CF911F91EF
:104690000F91FF90EF9008950895CF93DF93EC0171
:1046A00061E00E94A32281110EC041E251E066E464
:1046B000CE010E941223811108C0CE010E94E22285
:1046C000811105C005C08FEF03C08EEF01C08DEFD3
:1046D000DF91CF910895CF93DF93EC018FEF898322
:1046E0008A837C836B835E834D83288388E090E09C
:1046F0000E94A5048EEA91E20E94380460E0CE0197
:104700000E94A32261E0CE010E94A32281114CC02D
:1047100049EA51E06EE7CE010E941223811146C0A2
:1047200047EA51E064E5CE010E941223811140C0A6
:104730004B815C816EE4CE010E94122381113AC04C
:104740004BEA51E061E4CE010E941223811134C092
:104750004D815E8160E5CE010E94122381112EC041
:104760008881813041F441E251E06DE4CE010E9444
:104770001223811125C08881823041F44BEA51E037
:104780006DE4CE010E94122381111CC04DEA51E05C
:104790006FE4CE010E941223811116C0CE010E9447
:1047A000E222811113C013C08FEF11C08CEF0FC034
:1047B0008BEF0DC08AEF0BC089EF09C088EF07C0EF
:1047C00087EF05C087EF03C087EF01C086EFDF9159
:1047D000CF91089580E090E0089580E00895CF9310
:1047E000DF93EC018A818F3F71F561E0CE010E9479
:1047F000A322811138C0CE010E94D22181EB91E029
:104800000E94E304CE010E94DD21843011F0893042
:1048100049F460E0CE010E94A322811126C081E00C
:104820008A8328C0853041F460E0CE010E94A32233
:1048300081111DC01A821EC08F8181111AC084E0AF
:104840008F838FEF17C08091ED02882351F0813064
:1048500011F48A8301C01A821092ED02CE010E94E7
:10486000D2218A8107C08EEF05C08EEF03C08EEF84
:1048700001C08FEFDF91CF910895EF92FF920F93D8
:104880001F93CF938C017B0161E00E94A322C82F6C
:10489000811123C0C8010E94D22185EB91E00E94C2
:1048A000E304C7010E94E3048DE00E94D204C80122
:1048B0000E94DD218A3099F4C8010E94DD218B30ED
:1048C00021F4C8010E94D2210DC0C091ED02C13077
:1048D00041F4C8010E94D22105C0CEEF03C0CFEF42
:1048E00001C0CFEF8C2FCF911F910F91FF90EF90D0
:1048F0000895CF93DF93EC01CE010E94EF23813026
:1049000049F0811108C064EF71E080E090E00E94FE
:104910007D03F2CF80E0DF91CF910895CF93DF93B5
:10492000EC0161E00E94A322811120C0CE010E940F
:10493000D22188EB91E00E94E304CE010E94DD21A8
:10494000873021F08091ED02823049F41092ED021F
:1049500060E0CE010E94A32281110AC00CC08F81A9
:10496000811108C084E08F838FEF05C08EEF03C0F4
:104970008DEF01C08FEFDF91CF91089560E00E942D
:10498000A32280E090E0089560E00E94A32280E0EE
:10499000089560E00E94A32280E090E0089560E026
:1049A0000E94A32280E00895CF93DF93EB0160E0A3
:1049B0000E94A322CE010E94E30481E0DF91CF9107
:1049C0000895CF93C62F60E00E94A3228C2F0E94EF
:1049D000D20481E0CF91089560E00E94A32280E09C
:1049E000089560E00E94A32281E00895FC01878180
:1049F000178208958091240390E020912503821B63
:104A0000910908959091250380912403981750F4FB
:104A1000E92FF0E0EA5DFC4F208130E09F5F90934A
:104A2000250302C02FEF3FEFC9010895E091250350
:104A300080912403E81730F4F0E0EA5DFC4F8081B8
:104A400090E008958FEF9FEF08950895CF93DF933F
:104A5000EC01E091FC02F091FD02309701F19091A0
:104A60002503809124039817D0F0161617068CF4AE
:104A700020E030E090E0DE01A90FB11D4C91D9019A
:104A8000AA5DBC4F4C939F5F292F30E02617370754
:104A900094F31092250360932403CB010995DF91D1
:104AA000CF910895E091FE02F091FF02309729F036
:104AB000109202031092010309950895CF92DF929C
:104AC000EF92FF920F931F93CF93DF938C01CB0153
:104AD0006A01209100032223A1F041155105A1F0A4
:104AE000EB017B01E40EF51E6991D801ED91FC917B
:104AF0000190F081E02DC8010995CE15DF05A1F7E1
:104B000003C0642F0E94E505C601DF91CF911F917C
:104B10000F91FF90EF90DF90CF900895CF93DF93A8
:104B20001F92CDB7DEB7FC016983909100039923F2
:104B3000D9F090910103903238F081E090E09383B6
:104B4000828380E090E017C080910203E82FF0E0BC
:104B5000ED5FFC4F998190838F5F80930203809378
:104B6000010381E090E007C061E0CE0101960E9460
:104B7000E50581E090E00F90DF91CF910895FC0171
:104B80001382128288EE93E0A0E0B0E084839583E4
:104B9000A683B78380EC91E091838083089510927F
:104BA00025031092240310920203109201030E9425
:104BB00004050895CF93DF93EC01862F0E9426050C
:104BC00082E595E20E94140686E295E20E940F06B5
:104BD000CE010E94CF25DF91CF9108950E94DA2562
:104BE00008950E941A050895CB01BA010E94290573
:104BF000089581E0809300036093230310920203E1
:104C00001092010308950E94F92508950F93062F2D
:104C100021E04091010363E073E0809123030E944F
:104C200088051092020310920103109200030F9165
:104C300008954F925F926F927F92AF92BF92CF9200
:104C4000EF92FF920F931F93CF93DF935C01F62EA9
:104C5000D42F28013901EE2049F10E94F9258E2D2B
:104C6000843008F083E0CFEFC80F8823D9F0D50156
:104C7000ED91FC918C2F880F880F880FA301920172
:104C800004C056954795379527958A95D2F7CA015E
:104C9000B9010190F081E02DC50109959C2FC1500B
:104CA0009111E5CF60E0C5010E9406264D2FD1325B
:104CB00008F040E22C2D66E273E08F2D0E943C0547
:104CC0001092250380932403DF91CF911F910F91C0
:104CD000FF90EF90CF90BF90AF907F906F905F90DC
:104CE0004F900895CF92EF920F931F93C22EE12C15
:104CF00000E010E098010E9419261F910F91EF909B
:104D0000CF90089521E00E947226089521E00E942C
:104D1000722608950E947226089561E00E94062678
:104D200008957093FD026093FC0208957093FF0252
:104D30006093FE02089580EF92E00E94BF250895DF
:104D4000AA1BBB1B51E107C0AA1FBB1FA617B707B1
:104D500010F0A61BB70B881F991F5A95A9F78095CD
:104D60009095BC01CD010895A1E21A2EAA1BBB1B90
:104D7000FD010DC0AA1FBB1FEE1FFF1FA217B30727
:104D8000E407F50720F0A21BB30BE40BF50B661F3D
:104D9000771F881F991F1A9469F760957095809501
:104DA00090959B01AC01BD01CF010895EE0FFF1F4F
:104DB0000590F491E02D09945058BB27AA270E9432
:104DC000F4260C946E280E94602838F00E94672810
:104DD00020F039F49F3F19F426F40C945D280EF46A
:104DE000E095E7FB0C945728E92F0E947F2858F3A1
:104DF000BA17620773078407950720F079F4A6F5C0
:104E00000C94A1280EF4E0950B2EBA2FA02D0B01C7
:104E1000B90190010C01CA01A0011124FF27591BFF
:104E200099F0593F50F4503E68F11A16F040A22F05
:104E3000232F342F4427585FF3CF46953795279576
:104E4000A795F0405395C9F77EF41F16BA0B620B75
:104E5000730B840BBAF09150A1F0FF0FBB1F661FBC
:104E6000771F881FC2F70EC0BA0F621F731F841FFF
:104E700048F4879577956795B795F7959E3F08F025
:104E8000B0CF9395880F08F09927EE0F97958795E7
:104E900008950E94332808F481E008950E94622753
:104EA0000C946E280E94672858F00E94602840F0F9
:104EB00029F45F3F29F00C94572851110C94A22833
:104EC0000C945D280E947F2868F39923B1F3552341
:104ED00091F3951B550BBB27AA276217730784070D
:104EE00038F09F5F5F4F220F331F441FAA1FA9F3A3
:104EF00035D00E2E3AF0E0E832D091505040E69591
:104F0000001CCAF72BD0FE2F29D0660F771F881FF1
:104F1000BB1F261737074807AB07B0E809F0BB0BE4
:104F2000802DBF01FF2793585F4F3AF09E3F5105F8
:104F300078F00C9457280C94A2285F3FE4F3983E35
:104F4000D4F3869577956795B795F7959F5FC9F7E1
:104F5000880F911D9695879597F90895E1E0660F62
:104F6000771F881FBB1F621773078407BA0720F0DB
:104F7000621B730B840BBA0BEE1F88F7E095089544
:104F80000E94C7276894B1110C94A22808950E942A
:104F9000872888F09F5798F0B92F9927B751B0F01C
:104FA000E1F0660F771F881F991F1AF0BA95C9F7AD
:104FB00014C0B13091F00E94A128B1E008950C9482
:104FC000A128672F782F8827B85F39F0B93FCCF335
:104FD000869577956795B395D9F73EF4909580952A
:104FE000709561957F4F8F4F9F4F0895E89409C04A
:104FF00097FB3EF490958095709561957F4F8F4F0C
:105000009F4F9923A9F0F92F96E9BB279395F69521
:10501000879577956795B795F111F8CFFAF4BB0F9F
:1050200011F460FF1BC06F5F7F4F8F4F9F4F16C003
:10503000882311F096E911C0772321F09EE8872F8D
:10504000762F05C0662371F096E8862F70E060E049
:105050002AF09A95660F771F881FDAF7880F9695C2
:10506000879597F90895990F0008550FAA0BE0E866
:10507000FEEF16161706E807F907C0F0121613061A
:10508000E407F50798F0621B730B840B950B39F45A
:105090000A2661F0232B242B252B21F408950A26C0
:1050A00009F4A140A6958FEF811D811D089597F900
:1050B0009F6780E870E060E008959FEF80EC0895BE
:1050C00000240A94161617061806090608950024E7
:1050D0000A9412161306140605060895092E039461
:1050E000000C11F4882352F0BB0F40F4BF2B11F4D5
:1050F00060FF04C06F5F7F4F8F4F9F4F089557FD34
:105100009058440F551F59F05F3F71F04795880F35
:1051100097FB991F61F09F3F79F0879508951216CC
:1051200013061406551FF2CF4695F1DF08C0161678
:1051300017061806991FF1CF869571056105089429
:105140000895E894BB2766277727CB0197F9089540
:105150000E94332808F48FEF08950E94C0280C9411
:105160006E280E94602838F00E94672820F095235E
:1051700011F00C9457280C945D2811240C94A2284B
:105180000E947F2870F3959FC1F3950F50E0551F43
:10519000629FF001729FBB27F00DB11D639FAA278C
:1051A000F00DB11DAA1F649F6627B00DA11D661FDB
:1051B000829F2227B00DA11D621F739FB00DA11DFC
:1051C000621F839FA00D611D221F749F3327A00DB6
:1051D000611D231F849F600D211D822F762F6A2F52
:1051E00011249F5750409AF0F1F088234AF0EE0FB7
:1051F000FF1FBB1F661F771F881F91505040A9F7E4
:105200009E3F510580F00C9457280C94A2285F3FD4
:10521000E4F3983ED4F3869577956795B795F7951F
:10522000E7959F5FC1F7FE2B880F911D9695879597
:1052300097F908950E943328880B990B0895EF92EF
:105240000F931F93CF93DF93E80147FD02C034E033
:1052500001C034E1E42F440FFF0BF7FF03C0F195C9
:10526000E195F109E32E022F2E2FAE010E94992C19
:10527000CE01DF91CF911F910F91EF900895CF93C1
:10528000DF938230910510F482E090E0E0914A03D0
:10529000F0914B0320E030E0C0E0D0E0309711F116
:1052A0004081518148175907C0F04817590761F4E8
:1052B00082819381209719F09B838A832BC09093DE
:1052C0004B0380934A0326C02115310519F042177C
:1052D000530718F49A01BE01DF01EF010280F38148
:1052E000E02DDCCF2115310509F1281B390B2430C5
:1052F000310590F412968D919C911397611571056B
:1053000021F0FB019383828304C090934B0380932D
:105310004A03FD01329644C0FD01E20FF31F819361
:105320009193225031092D933C933AC02091480328
:1053300030914903232B41F420917E0030917F006E
:10534000309349032093480320917C0030917D00E5
:105350002115310541F42DB73EB7409180005091A1
:105360008100241B350BE0914803F0914903E217BB
:10537000F307A0F42E1B3F0B2817390778F0AC0178
:105380004E5F5F4F2417350748F04E0F5F1F509355
:105390004903409348038193919302C0E0E0F0E019
:1053A000CF01DF91CF9108950F931F93CF93DF9398
:1053B000009709F48CC0FC0132971382128200918D
:1053C0004A0310914B030115110581F420813181AD
:1053D000820F931F20914803309149032817390702
:1053E00079F5F0934903E093480371C0D80140E098
:1053F00050E0AE17BF0750F412962D913C911397D1
:10540000AD012115310509F1D901F3CF9D01DA0173
:105410003383228360817181860F971F82179307E0
:1054200069F4EC0128813981260F371F2E5F3F4F29
:10543000318320838A819B8193838283452B29F446
:10544000F0934B03E0934A0342C01396FC93EE9310
:105450001297ED01499159919E01240F351FE217D2
:10546000F30771F480819181840F951F0296119644
:105470009C938E938281938113969C938E93129723
:10548000E0E0F0E0D80112968D919C91139700977F
:1054900019F0F8018C01F6CF8D919C9198012E5F47
:1054A0003F4F820F931F20914803309149032817E3
:1054B000390769F4309729F410924B0310924A038C
:1054C00002C0138212821093490300934803DF91B4
:1054D000CF911F910F910895A0E0B0E0E2E7FAE2CA
:1054E0000C949630EC01009721F4CB010E943F29E7
:1054F000B8C0FC01E60FF71F9C0122503109E217EA
:10550000F30708F4ACC0D9010D911C91119706174F
:105510001707B0F00530110508F49FC0C8010497C3
:105520008617970708F499C002501109061B170B3C
:10553000019311936D937C93CF010E94D4298DC068
:105540005B01A01AB10A4C01800E911EA0914A0382
:10555000B0914B0340E050E0E12CF12C109709F49E
:105560004AC0A815B905D1F56D907C9011976301DB
:1055700082E0C80ED11CCA14DB0480F1A3014A19D1
:105580005B096A0182E0C80ED11C1296BC9012978A
:105590001396AC91B5E0CB16D10440F0B282A38350
:1055A00051834083D9016D937C930AC00E5F1F4FD6
:1055B000C301800F911FF90191838083EB2DFA2F96
:1055C000E114F10431F0D7011396FC93EE93129796
:1055D00044C0F0934B03E0934A033FC08D919C91EC
:1055E00011974817590708F4AC017D0112960D90E8
:1055F000BC91A02DB3CF80914803909149038815A9
:105600009905E1F446175707C8F480917C00909102
:105610007D00009741F48DB79EB740918000509176
:105620008100841B950BE817F907C8F4F093490330
:10563000E0934803F901718360830FC0CB010E949E
:105640003F297C01009759F0A801BE010E948A2BD6
:10565000CE010E94D429C70104C0CE0102C080E05F
:1056600090E0CDB7DEB7EEE00C94B2306627772736
:105670000C94272E1F93FC0199278827BC01E894DE
:1056800011911032E9F3193010F01E30C8F31B32BB
:1056900051F01D3249F4689406C00E94322C610F0B
:1056A000711D811D911D119110531A30B0F33EF4FC
:1056B00090958095709561957F4F8F4F9F4F1F916B
:1056C000089591110C945C30803219F08950855006
:1056D000C8F708959111089581548A5108F4805EA5
:1056E000855A08959111089581568A5108F480527F
:1056F00085580895FB01DC0105900D920020E1F72B
:105700000895FC0105900020E9F7809590958E0F93
:105710009F1F0895FB01DC0102C001900D924150D2
:105720005040D8F708956817790768F4FB01DC0149
:10573000E40FF51FA40FB51F02C002900E92415056
:105740005040D8F708950C948A2BFC01819186175C
:1057500021F08823D9F7992708953197CF0108952B
:10576000FB01DC018D91019080190110D9F3990B97
:105770000895FB01DC0101900D920020E1F70895EE
:10578000FB01DC014150504030F08D9101908019B7
:1057900019F40020B9F7881B990B0895FB01DC016F
:1057A0004150504048F001900D920020C9F701C0CF
:1057B0001D9241505040E0F70895FC0181E090E0D7
:1057C0000190061609F4CF010020D1F70197089542
:1057D000FB0151915523A9F0BF01DC014D91451703
:1057E0004111E1F759F4CD010190002049F04D91AC
:1057F00040154111C9F3FB014111EFCF81E090E069
:10580000019708954532510520F4423010F00C9470
:105810000D2CFB011082CB010895BB274A3031F4D7
:10582000992322F4BDE2909581959F4F0C94802C92
:105830002532310520F4223010F00C94232CFA018B
:105840001082CA010895BB272A3051F4992342F4EB
:10585000BDE290958095709561957F4F8F4F9F4FDA
:105860000C94532C592F482F372F262F660F771F54
:10587000881F991F660F771F881F991F620F731F5C
:10588000841F951F660F771F881F991F0895253263
:10589000310520F4223010F00C94522CFA011082C1
:1058A000CA010895BB27FA01A62F62177105810569
:1058B0009105330B30FB66F0AA27660F771F881F10
:1058C000991FAA1FA21710F0A21B63953850A9F7C1
:1058D000A05DAA3308F0A95DA19336F7B111B19389
:1058E0001082CA010C9477304532510520F44230C1
:1058F00010F00C947F2CFB011082CB010895BB2784
:10590000FB015527AA27880F991FAA1FA41710F07B
:10591000A41B83955051B9F7A05DAA3308F0A95D87
:10592000A193009779F7B111B1931192CB010C9427
:1059300077304F925F926F927F929F92AF92BF9219
:10594000CF92DF92EF92FF920F931F93CF93DF934B
:10595000CDB7DEB729970FB6F894DEBF0FBECDBF27
:105960006A01122FB02E2BE3201720F0FF24F394AE
:10597000F00E02C0BCE3FB2E0F2D27E0AE014F5FFF
:105980005F4F0E94842FAC018981982F99709130CC
:1059900031F0E1FC06C0E0FE06C090E205C09DE2E9
:1059A00003C09BE201C090E0EE2DE07183FF3CC09C
:1059B000911102C083E001C084E0811718F4212F07
:1059C000281B01C020E0E1110BC0F601822F30E25C
:1059D000882319F031938150FBCFC20ED11C20E0F7
:1059E000992329F0D6019C93F60131966F01C601E7
:1059F0000396E2FE0AC03EE4D6013C9341E41196D0
:105A00004C93119712963C9306C03EE6F601308304
:105A100041E641833283FC01322F40E2332309F413
:105A200042C041933150FACF82FF44C0911102C06D
:105A300083E001C084E0811718F4212F281B01C0E6
:105A400020E0E1110BC0F601822F30E2882319F02B
:105A500031938150FBCFC20ED11C20E0992329F055
:105A6000D6019C93F60131966F01C6010396E2FEC2
:105A70000BC039E4D6013C933EE411963C93119758
:105A800036E412963C9307C039E6F60130833EE6D1
:105A9000318336E63283FC01322F40E2332319F0A2
:105AA00041933150FBCFFC01E20FF11D10828EEFCC
:105AB0009FEFB7C0F1E0911101C0F0E06F2F70E0EF
:105AC0001416150624F49A012F5F3F4F02C021E0FF
:105AD00030E0260F371FBB2029F06B2D70E06F5F81
