:100000000C94FF010C9427020C9427020C942702F5
:100010000C9427020C9427020C9427020C942702BC
:100020000C9427020C9427020C9427020C94CB3AD0
:100030000C9427020C94C6040C9413050C9427020C
:100040000C9427020C9427020C9427020C9482082B
:100050000C942702C009C509C509C509C509C50908
:10006000C509C509B308C509C509C509C509C50933
:10007000C509C509B308C509C509C509C509C50923
:10008000C509C509BD08C509C509C509C509C50909
:10009000C509C509EA08C509C509C509C509C509CC
:1000A000C509C509BD08C509C509C509C509C509E9
:1000B000C509C509F008C509C509C509C509C509A6
:1000C000C509C509F608C509C509C509C509C50990
:1000D000C509C5090C09C509C509C509C509C50969
:1000E000C509C5093C09C509C509C509C509C50929
:1000F000C509C509FC08C509C509C509C509C5095A
:10010000C509C5091A09C509C509C509C509C5092A
:10011000C509C5093F09C509C509C509C509C509F5
:10012000C509C5093F09C509C509C509C509C509E5
:10013000C509C5093F09C509C509C509C509C509D5
:10014000C509C5093F09C509C509C509C509C509C5
:10015000C509C5094809C509C509C509C509C509AC
:10016000C509C5098209C509C509C509C509C50962
:10017000C509C5094809C509C509C509C509C5098C
:10018000C509C5098209C509C509C509C509C50942
:10019000C509C5096409C509C509C509C509C50950
:1001A000C509C5098609C509C509C509C509C5091E
:1001B000C509C5098609C509C509C509C509C5090E
:1001C000C509C5099C09C509C509C509C509C509E8
:1001D000C509C509BA09C509C509C509C509C509BA
:1001E000C509C509BA09C509C509C509C509C509AA
:1001F000C509C509C509C509C509C509C509C5098F
:10020000C509C509C509C509C509C509C509C5097E
:10021000C509C509C509C509C509C509C509C5096E
:10022000C509C509C509C509C509C509C509C5095E
:10023000C509C509C509C509C509C509C509C5094E
:10024000C509C509C50900003A003700340031006E
:100250000000000000003B003800350032000000C4
:1002600000000000390036003300300000000000BC
:100270000202020202020202000000000004040462
:100280000404040404030303030303030300000042
:100290000101010101010101010204081020408057
:1002A0000000000000010204081020408001020448
:1002B0000810204080000000804020100804020147
:1002C0004E414E494E495459494E46CDCCCC3D0A3B
:1002D000D7233C17B7D13877CC2B329595E6241F1E
:1002E000B14F0A000020410000C84200401C4620D7
:1002F000BCBE4CCA1B0E5AAEC59D7400407A10F3AA
:100300005A00A0724E18090010A5D4E80000E87643
:1003100048170000E40B54020000CA9A3B0000009A
:10032000E1F505000080969800000040420F0000B3
:1003300000A08601000000102700000000E8030074
:100340000000006400000000000A0000000000013E
:1003500000000000002C76D888DC674F0823DFC13E
:10036000DFAE59E1B1B796E5E3E453C63AE65199F9
:100370007696E8E6C28426EB898C9B62ED407C6F22
:10038000FCEFBC9C9F40F2BAA56FA5F490055A2AD9
:10039000F75C936B6CF9676DC11BFCE0E40D47FEE5
:1003A000F520E6B500D0ED902E03009435770500DA
:1003B00080841E080000204E0A000000C80C333361
:1003C00033330F986E12831141EF8D2114893BE670
:1003D0005516CFFEE6DB18D1844B381BF77C1D90F9
:1003E0001DA4BBE424203284725E228100C9F12462
:1003F000ECA1E53D270065026843C4477202112461
:100400001FBECFE5D8E0DEBFCDBF13E0A0E6B0E071
:10041000EAE4F8EC02C005900D92A43FB107D9F7C9
:1004200026E0A4EFB3E001C01D92AD32B207E1F7C0
:1004300011E0CEEFD1E004C02197FE010E940D5AD9
:10044000CB3FD107C9F70E9429020C9418640C9481
:100450000000CF93DF93CDB7DEB78EE894E00E9423
:10046000E73864E670E080E090E00E94D002F5CFCB
:10047000CF93DF9300D000D0CDB7DEB79A838983C6
:100480007C836B8389819A81019761F48B819C8144
:10049000019641F484EF93E00E941B3E8EE894E0C5
:1004A0000E94DB3889819A81892B41F48B819C8160
:1004B000019621F484EF93E00E9472570F900F9001
:1004C0000F900F90DF91CF910895CF93DF93CDB729
:1004D000DEB76FEF7FEF81E090E00E943802DF919E
:1004E000CF910895CF93DF93CDB7DEB76FEF7FEF56
:1004F00080E090E00E943802DF91CF910895CF9381
:10050000DF93CDB7DEB78091F7048F5F8093F70458
:100510008091F7048E33A8F08091F3049091F40455
:10052000A091F504B091F6040196A11DB11D809330
:10053000F3049093F404A093F504B093F60410929E
:10054000F704DF91CF910895CF93DF9300D000D0CF
:100550001F92CDB7DEB78FE590E0FC0180818983E3
:10056000F8948091F3049091F404A091F504B09173
:10057000F6048A839B83AC83BD838FE590E0298159
:10058000FC0120838A819B81AC81BD81BC01CD01AE
:100590000F900F900F900F900F90DF91CF910895D3
:1005A000CF93DF93CDB7DEB728970FB6F894DEBFB1
:1005B0000FBECDBF6D837E838F8398870E94A40278
:1005C000DC01CB0189839A83AB83BC8300000E944A
:1005D000A4029B01AC0189819A81AB81BC81281B5B
:1005E000390B4A0B5B0B8D819E81AF81B885281733
:1005F00039074A075B0758F328960FB6F894DEBF11
:100600000FBECDBFDF91CF910895CF93DF9300D080
:10061000CDB7DEB79A83898389819A81029708F4DE
:1006200013C089819A81880F991F880F991F9A8317
:10063000898389819A8105979A83898389819A819F
:100640000197F1F79A8389830F900F90DF91CF91F3
:100650000895CF93DF93CDB7DEB7789483E590E02C
:1006600021E0FC01208389E590E029E530E0F901F3
:1006700020812160FC012083DF91CF910895CF93E9
:10068000DF93CDB7DEB769970FB6F894DEBF0FBE24
:10069000CDBF888F698F888D882F90E088569D4FB9
:1006A0009A83898389819A81FC0184918B838B81D0
:1006B0008C83888D882F90E080599D4F9E838D83F9
:1006C0008D819E81FC0184918F838F8188878885AD
:1006D000882309F494C08885882F90E0880F991F9B
:1006E0008A5B9D4F9A87898789859A85FC01259128
:1006F0003491CF013C872B879A8789878B859C858E
:100700009E878D878885882F90E0880F991F8C5A47
:100710009D4F988B8F878F859889FC012591349107
:10072000CF013A8B298B988B8F8789899A899C8BEB
:100730008B8B898D882331F58FE590E0FC018081DA
:100740008D8BF8948D859E85FC018081982F8C81FE
:1007500080958923282F8D859E85FC0120838B8998
:100760009C89FC018081982F8C8180958923282F7A
:100770008B899C89FC0120838FE590E02D89FC0109
:1007800020833DC0898D823021F58FE590E0FC010A
:1007900080818E8BF8948D859E85FC018081982FB9
:1007A0008C8180958923282F8D859E85FC0120834F
:1007B0008B899C89FC0190818C81292F282B8B8926
:1007C0009C89FC0120838FE590E02E89FC01208329
:1007D00016C08FE590E0FC0180818F8BF8948D85A9
:1007E0009E85FC0190818C81292F282B8D859E85EB
:1007F000FC0120838FE590E02F89FC01208369961E
:100800000FB6F894DEBF0FBECDBFDF91CF91089534
:10081000CF93DF93CDB7DEB760970FB6F894DEBF06
:100820000FBECDBF8F87688B8F85882F90E088564D
:100830009D4F9A83898389819A81FC0184918B835E
:100840008B818C838F85882F90E080599D4F9E836C
:100850008D838D819E81FC0184918F838F81888718
:100860008885882309F433C08885882F90E0880F15
:10087000991F8C5A9D4F9A87898789859A85FC0193
:1008800025913491CF013C872B879A8789878B8567
:100890009C859E878D878889882371F48D859E85A8
:1008A000FC018081982F8C8180958923282F8D854C
:1008B0009E85FC0120830BC08D859E85FC01908167
:1008C0008C81292F282B8D859E85FC0120836096A5
:1008D0000FB6F894DEBF0FBECDBFDF91CF91089564
:1008E000CF93DF93CDB7DEB72D970FB6F894DEBF69
:1008F0000FBECDBF8D878D85882F90E088569D4F88
:100900009A83898389819A81FC0184918B838B816D
:100910008C838D85882F90E080599D4F9E838D8399
:100920008D819E81FC0184918F838F81888788854A
:10093000882319F480E090E020C08885882F90E01B
:10094000880F991F8E599D4F9A87898789859A8527
:10095000FC0125913491CF013C872B879A878987A9
:100960008B859C85FC0190818C818923882319F0DB
:1009700081E090E002C080E090E02D960FB6F89400
:10098000DEBF0FBECDBFDF91CF9108951F920F92B2
:1009900000905F000F9211242F938F939F93EF93FA
:1009A000FF93CF93DF9300D000D0CDB7DEB78BE2BB
:1009B00090E0FC0180818A838CE290E0FC018081E0
:1009C0008B838A818871898380913A058F5F8F71CB
:1009D0008C8380913B059C81981719F482E0898370
:1009E0000BC08C8180933A058C81882F90E0885EC3
:1009F0009A4F2B81FC01208390913C058981892BA2
:100A000080933C050F900F900F900F90DF91CF9146
:100A1000FF91EF919F918F912F910F9000925F0026
:100A20000F901F9018951F920F9200905F000F92E9
:100A300011242F933F938F939F93EF93FF93CF9323
:100A4000DF931F92CDB7DEB79091380580913905BD
:100A50009817A1F0809139058F5F8F718983898103
:100A6000809339058CE290E02981222F30E02850D4
:100A70003B4FF9012081FC01208309C08AE290E00C
:100A80002AE230E0F90120812F7DFC0120830F90C4
:100A9000DF91CF91FF91EF919F918F913F912F9196
:100AA0000F9000925F000F901F901895CF93DF93E7
:100AB00000D0CDB7DEB79A838983109238051092A3
:100AC000390510923A0510923B0589819A81992344
:100AD00054F48BE290E022E0FC01208389819A812A
:100AE0009F779A83898380E490E029813A81232F3C
:100AF0003327FC01208389E290E02981FC012083D7
:100B00008AE290E028E9FC01208380E490E026E876
:100B1000FC0120830F900F90DF91CF910895CF9328
:100B2000DF9300D0CDB7DEB790913A0580913B05B9
:100B3000981719F480E091E017C080913B058F5F12
:100B40008F718983898180933B058981882F90E00B
:100B5000885E9A4FFC0180818A8380913C051092C7
:100B60003C058A81882F90E00F900F90DF91CF9104
:100B70000895CF93DF9300D0CDB7DEB78A838091FD
:100B800038058F5F8F7189830000809139059981C5
:100B90009817D9F38981882F90E088509B4F2A813C
:100BA000FC0120838981809338058AE290E02AE263
:100BB00030E0F90120812062FC0120830F900F902A
:100BC000DF91CF910895CF93DF9300D0CDB7DEB7FB
:100BD0009A8389830BC089819A819C012F5F3F4F43
:100BE0003A832983FC0180810E94B90589819A8119
:100BF000FC018081882379F70F900F90DF91CF91CE
:100C000008951F93CF93DF9300D000D01F92CDB7EC
:100C1000DEB79D838C8303C0812F0E94B9058C8130
:100C20009D819C012F5F3F4F3D832C839A83898355
:100C300089819A81FC0184918B838B81182F1123E8
:100C400059F70F900F900F900F900F90DF91CF9169
:100C50001F910895CF93DF93CDB7DEB710923D0576
:100C600081E080933F051092400561E081E10E94A0
:100C7000080461E080E10E94080481E290E021E242
:100C800030E0F90120812E7FFC01208381E290E099
:100C900021E230E0F90120812D7FFC01208380E2F8
:100CA00090E028E4FC01208386E590E025E4FC0147
:100CB0002083DF91CF910895CF93DF93CDB7DEB737
:100CC00086E590E026E530E0F90120812A7BFC01F1
:100CD000208360E081E10E94080460E080E10E94DE
:100CE0000804DF91CF910895CF93DF931F92CDB782
:100CF000DEB7898382E290E02981220FFC01208304
:100D00000F90DF91CF9108950F931F93CF93DF93AF
:100D1000CDB7DEB728970FB6F894DEBF0FBECDBFB4
:100D200069837A838B839C8300E210E080E094E205
:100D3000A4EFB0E029813A814B815C81BC01CD01F7
:100D40000E94EB59DA01C9014097A109B109B69592
:100D5000A79597958795F801808328960FB6F89404
:100D6000DEBF0FBECDBFDF91CF911F910F910895D0
:100D7000CF93DF9300D000D000D0CDB7DEB78A8309
:100D80007C836B834D832E838D81813210F080E0D4
:100D90006CC001C0000080913D058823D9F781E037
:100DA00080933D058E8180933F058FEF8093AA0548
:100DB000109265058D8181508093660581E0809356
:100DC0003E058A81882F90E0880F991F982F809187
:100DD0003E05892B80933E05809140058130C1F40A
:100DE0001092400583E290E020913E05FC012083B3
:100DF00086E590E0FC018081882F90E0887099273B
:100E0000892B81F786E590E025ECFC01208305C065
:100E100086E590E025EEFC01208301C00000809172
:100E20003D058130D9F3909165058D81981718F4AF
:100E3000809165058D83198213C08981882F90E088
:100E40002B813C81820F931F2981222F30E02B5B65
:100E50003A4FF9012081FC01208389818F5F8983CA
:100E600099818D81981748F38D8126960FB6F89455
:100E7000DEBF0FBECDBFDF91CF9108950F93CF930B
:100E8000DF93CDB7DEB727970FB6F894DEBF0FBE5E
:100E9000CDBF8A837C836B834D832E830F838D81AB
:100EA000813210F081E077C001C0000080913D05E3
:100EB0008823D9F782E080933D058F8180933F0599
:100EC0008FEF8093AA05109265058D81809366054A
:100ED000198213C08981882F90E02981222F30E068
:100EE0004B815C81240F351FF90120818B5B9A4F68
:100EF000FC01208389818F5F898399818D81981777
:100F000048F310923E058A81882F90E0880F991F40
:100F1000982F80913E05892B80933E058091400556
:100F20008130C1F41092400583E290E020913E05AB
:100F3000FC01208386E590E0FC018081882F90E011
:100F400088709927892B81F786E590E025ECFC01D4
:100F5000208305C086E590E025EEFC01208301C0DA
:100F600000008E81882321F080913D058230C1F3FD
:100F70008091AA058F3F11F480E00DC08091AA05F1
:100F8000803211F482E007C08091AA05803311F409
:100F900083E001C084E027960FB6F894DEBF0FBE51
:100FA000CDBFDF91CF910F910895CF93DF9300D004
:100FB00000D0CDB7DEB79B838A836C838091880590
:100FC000282F30E08C81882F90E0820F931F81972B
:100FD00014F081E02CC080913D05843011F082E056
:100FE00026C0198219C080918805282F30E0898198
:100FF000882F90E0820F931F2981222F30E04A81B1
:101000005B81240F351FF901208189599A4FFC011A
:10101000208389818F5F898399818C81981718F348
:10102000909188058C81890F8093880580E00F90CE
:101030000F900F900F90DF91CF910895CF93DF9392
:1010400000D0CDB7DEB79A83898389819A81909346
:101050004405809343050F900F90DF91CF91089541
:10106000CF93DF9300D0CDB7DEB79A838983898190
:101070009A8190934205809341050F900F90DF91E4
:10108000CF910895CF93DF931F92CDB7DEB78983B9
:101090008981882331F086E590E025ECFC012083EE
:1010A00005C086E590E025E8FC0120830F90DF91E4
:1010B000CF910895CF93DF93CDB7DEB786E590E06B
:1010C00025EDFC01208301C0000086E590E0FC01D5
:1010D0008081882F90E080719927892BA9F7109241
:1010E0003D05DF91CF910895CF93DF93CDB7DEB764
:1010F00086E590E025ECFC01208310923D05DF9110
:10110000CF9108951F920F9200905F000F921124CB
:101110002F933F934F935F936F937F938F939F93FF
:10112000AF93BF93EF93FF93CF93DF93CDB7DEB72A
:1011300081E290E0FC018081882F90E0887F9927F0
:10114000092E000CAA0BBB0B40E050E028EF30E06A
:10115000841B950B2817390708F417C1865D9F4F2C
:10116000FC010C940D5A83E290E020913E05FC01B5
:10117000208381E00E94420808C19091650580911A
:1011800066059817A0F483E290E02091650531E0B0
:10119000320F30936505222F30E02B5B3A4FF90177
:1011A0002081FC01208381E00E94420812C08091CE
:1011B0003F05882319F00E945A080BC081E08093F4
:1011C000400586E590E024EAFC01208310923D056D
:1011D000DCC0DBC080E28093AA050E945A08D5C01B
:1011E00080E38093AA050E945A08CFC088E38093C9
:1011F000AA050E947408C9C08091650591E0980F06
:1012000090936505882F90E023E230E0F90120817A
:101210008B5B9A4FFC012083909165058091660558
:10122000981720F481E00E944208AFC080E00E943D
:101230004208ABC08091650591E0980F90936505D9
:10124000882F90E023E230E0F90120818B5B9A4FF8
:10125000FC01208380913F05882319F00E945A08E1
:1012600094C081E08093400586E590E024EAFC018B
:10127000208310923D0589C00E945A0886C083E0F1
:1012800080933D051092A90581E00E9442087DC02F
:101290008091A9058032A0F48091A90591E0980F72
:1012A0009093A905882F90E023E230E0F901208196
:1012B00087579A4FFC01208381E00E94420865C055
:1012C00080E00E94420861C00E9474088091A905D4
:1012D000803240F48091A905882F90E087579A4F7B
:1012E000FC01108220914305309144058091A905AD
:1012F000882F90E0BC0189E895E0F90109951092EA
:10130000A90543C080E00E9442083FC084E080936A
:101310003D051092870510928805809141059091B6
:101320004205FC01099580918805882329F481E014
:10133000809388051092670583E290E020918705ED
:1013400031E0320F30938705222F30E029593A4F90
:10135000F9012081FC012083909187058091880507
:10136000981720F481E00E9442080FC080E00E949C
:1013700042080BC081E00E94420810923D0505C062
:101380001092AA050E945A080000DF91CF91FF91A8
:10139000EF91BF91AF919F918F917F916F915F91ED
:1013A0004F913F912F910F9000925F000F901F90EF
:1013B0001895EF92FF920F931F93CF93DF93CDB7C2
:1013C000DEB7A7970FB6F894DEBF0FBECDBF8AA3D6
:1013D0006BA32CA33DA34EA35FA38AA1882F90E00B
:1013E00088569D4F9A87898789859A85FC018491C3
:1013F0008B878B858C878AA1882F90E080599D4FA1
:101400009E878D878D859E85FC0184918F878F8532
:10141000888B8BA1882311F08C8501C080E0898B9B
:1014200019821A821B821C821D821E821F821886CC
:101430008CA19DA1AEA1BFA1880F991FAA1FBB1FA0
:10144000880F991FAA1FBB1F880F991FAA1FBB1FB8
:10145000880F991FAA1FBB1F689415F8B695A7950A
:10146000979587951694D1F78A8B9B8BAC8BBD8B08
:101470001BC08D819E81AF81B8859C01AD012F5F1E
:101480003F4F4F4F5F4F2D833E834F8358872A89AD
:101490003B894C895D8982179307A407B50721F41E
:1014A00080E090E0DC01C4C08889882F90E0880F3C
:1014B000991F8E599D4F9F8B8E8B8E899F89FC0122
:1014C00025913491CF01398F288F9F8B8E8B888DFA
:1014D000998DFC0190818C8598238989981749F210
:1014E0001BC08D819E81AF81B8859C01AD012F5FAE
:1014F0003F4F4F4F5F4F2D833E834F8358872A893D
:101500003B894C895D8982179307A407B50721F4AD
:1015100080E090E0DC018CC08889882F90E0880F03
:10152000991F8E599D4F9B8F8A8F8A8D9B8DFC01B1
:1015300025913491CF013D8F2C8F9B8F8A8F8C8D7D
:101540009D8DFC0190818C8598238989981749F697
:1015500026C08D819E81AF81B8859C01AD012F5F32
:101560003F4F4F4F5F4F2D833E834F8358872A89CC
:101570003B894C895D8982179307A407B50721F43D
:1015800080E090E0DC0154C089819A81AB81BC810C
:101590000196A11DB11D89839A83AB83BC83888981
:1015A000882F90E0880F991F8E599D4F9F8F8E8FA7
:1015B0008E8D9F8DFC0125913491CF0139A328A3F5
:1015C0009F8F8E8F88A199A1FC0190818C85982393
:1015D0008989981709F4BDCF29813A814B815C81B3
:1015E000DA01C901880F991FAA1FBB1F880F991F15
:1015F000AA1FBB1F7C018D01EE0CFF1C001F111FD9
:10160000EE0CFF1C001F111F8E0D9F1DA01FB11F90
:10161000820F931FA41FB51F805C9F4FAF4FBF4F1A
:10162000689413F8B695A795979587951694D1F772
:10163000BC01CD01A7960FB6F894DEBF0FBECDBF9B
:10164000DF91CF911F910F91FF90EF900895CF936D
:10165000DF9300D0CDB7DEB787E290E020ECFC014D
:10166000208386E290E020E8FC01208386E290E07F
:1016700026E230E0F90120812760FC01208386E228
:1016800090E026E230E0F90120812064FC01208313
:10169000000086E290E0FC018081882F90E0807459
:1016A0009927892BB1F71A82198284E290E0FC0114
:1016B0008081882F90E09A83898385E290E0FC0105
:1016C0008081882F90E0982F88279C0189819A81BA
:1016D000820F931F9A8389830F900F90DF91CF9190
:1016E0000895CF93DF9300D01F92CDB7DEB78B83E1
:1016F0008B8187708B8397E08B81292F281B822F0A
:101700008B8387E290E027E230E0F9012081207EA0
:10171000FC01208387E290E027E230E0F90120819C
:10172000322F2B812F71232BFC01208386E290E046
:1017300026E230E0F90120812064FC0120830000D2
:1017400086E290E0FC018081882F90E080749927E8
:10175000892BB1F71A82198284E290E0FC01808122
:10176000882F90E09A83898385E290E0FC01808154
:10177000882F90E0982F88279C0189819A81820F79
:10178000931F9A83898389819A810F900F900F907C
:10179000DF91CF910895CF93DF9300D000D01F92B7
:1017A000CDB7DEB78B836C834D8319821A8239C023
:1017B00061E08C810E9408048D81882399F48B81DB
:1017C0000E9470049C018A81882F90E0A90102C0C8
:1017D000440F551F8A95E2F7CA01982F8981892BFA
:1017E000898318C08B810E947004AC018A81882F84
:1017F00090E027E030E0B901681B790BCB019A013A
:1018000002C0220F331F8A95E2F7C901982F898100
:10181000892B898360E08C810E9408048A818F5F14
:101820008A838A81883020F289810F900F900F90EF
:101830000F900F90DF91CF910895CF93DF9300D059
:1018400000D01F92CDB7DEB78A836B834C832D8384
:10185000198241C08C818823B9F48D81882F90E052
:101860002981222F30E002C0959587952A95E2F7CD
:101870008170992721E0892B09F420E0822F682FBD
:101880008A810E9408041CC08D81882F90E02981E4
:10189000222F30E047E050E0BA01621B730B9B013E
:1018A00002C0959587952A95E2F78170992721E0E6
:1018B000892B09F420E0822F682F8A810E94080476
:1018C00061E08B810E94080460E08B810E94080423
:1018D00089818F5F89838981883008F4BBCF0F901D
:1018E0000F900F900F900F90DF91CF910895CF93AD
:1018F000DF9300D000D01F92CDB7DEB79B838A83E1
:101900008A819B81909326068093250681E290E050
:1019100021E230E0F90120812E7FFC01208381E269
:1019200090E021E230E0F90120812D7FFC0120834D
:1019300080E89EE32A813B81B9010E94D759CB01FF
:1019400089838981803150F08981882F90E0409788
:1019500099230CF4019695958795898380E290E010
:101960002981FC01208381E290E0FC01108286E560
:1019700090E024ECFC01208385E390E025E330E057
:10198000F90120812360FC0120830F900F900F90BC
:101990000F900F90DF91CF910895CF93DF93CDB744
:1019A000DEB786E590E024E9FC012083DF91CF914A
:1019B0000895CF93DF9300D0CDB7DEB71A82198296
:1019C000000086E590E0FC01808188234CF089814D
:1019D0009A8101969A83898389819A81019689F7F0
:1019E00081E290E0FC018081887F0F900F90DF9171
:1019F000CF910895CF93DF931F92CDB7DEB7898340
:101A000086E590E029812468FC0120830E94D90C9E
:101A10000F90DF91CF910895CF93DF93CDB7DEB7CD
:101A200027970FB6F894DEBF0FBECDBF8E836F83AE
:101A300019821A828F81882F90E0009719F0019700
:101A400031F00AC088E1898380E28A8305C080E49E
:101A5000898388E48A83000084E190E09C838B83FF
:101A600042C080E20E94FA0C8D838D81883051F053
:101A70008D81803139F086E590E024E8FC012083F7
:101A800080E038C08F81882339F483E290E02E8192
:101A90002E7FFC01208309C08F81813031F483E2E5
:101AA00090E02E812160FC01208380E00E94FA0CEE
:101AB0008D839D818981981711F481E01BC09D81E0
:101AC0008A81981741F48B819C8101979C838B8339
:101AD0000E94CD0C08C08D81883309F404C00E9497
:101AE000CD0C80E007C08B819C81181619060CF480
:101AF000B8CF80E027960FB6F894DEBF0FBECDBFFB
:101B0000DF91CF910895CF93DF9300D0CDB7DEB7AB
:101B10008A8383E290E02A81FC01208380E00E9496
:101B2000FA0C89838981883219F08981803319F40C
:101B300081E090E002C080E090E081700F900F9013
:101B4000DF91CF910895CF93DF9300D000D0CDB730
:101B5000DEB79B838A836C838C81882311F080E0BD
:101B600001C080E40E94FA0C898383E290E0FC01CA
:101B700020818A819B81FC0120838981803519F035
:101B80008981883519F481E090E002C080E090E01E
:101B900081700F900F900F900F90DF91CF9108956B
:101BA000CF93DF93CDB7DEB727970FB6F894DEBF9C
:101BB0000FBECDBF8B837D836C835F834E838E810D
:101BC0009F81181619060CF03DC08C819D81892BD0
:101BD000C9F160E08B810E940C0D982F81E089276C
:101BE000882311F080E02FC01A82198222C08981D7
:101BF0009A812C813D81820F931FFC0180810E947C
:101C0000830D982F81E08927882371F081E290E08D
:101C1000FC018081882F90E0887F9927C89711F078
:101C20000E94CD0C80E00FC089819A8101969A8331
:101C3000898329813A818E819F8128173907BCF2D7
:101C40000E94CD0C81E027960FB6F894DEBF0FBE40
:101C5000CDBFDF91CF910895CF93DF9300D000D017
:101C600000D0CDB7DEB78B837D836C834E838E81AE
:101C7000882309F44BC08C819D81892B09F446C0CF
:101C800061E08B810E940C0D982F81E089278823C9
:101C900011F080E03CC01A8219822EC08E81882FFC
:101CA00090E09C012150310941E089819A812817F7
:101CB000390709F040E089819A812C813D81820FAA
:101CC000931F642F0E94A30D982F81E089278823FA
:101CD00071F081E290E0FC018081882F90E0887FA4
:101CE0009927C89711F00E94CD0C80E010C089811F
:101CF0009A8101969A8389838E81282F30E0898189
:101D00009A818217930754F20E94CD0C81E02696A7
:101D10000FB6F894DEBF0FBECDBFDF91CF9108950F
:101D2000CF93DF9300D000D01F92CDB7DEB78B8367
:101D30006C834D838C8189838D818A8342E050E05E
:101D4000CE010196BC018B810E94D00D0F900F90A7
:101D50000F900F900F90DF91CF910895CF93DF9365
:101D600000D000D0CDB7DEB789836A835C834B8314
:101D70001C821B8260E089810E940C0D982F81E0FB
:101D80008927882311F080E024C08A810E94830D76
:101D9000982F81E08927882311F080E01AC061E044
:101DA00089810E940C0D982F81E08927882311F0EA
:101DB00080E00FC08B819C8161E00E94A30D982F71
:101DC00081E08927882311F080E003C00E94CD0CB8
:101DD00081E00F900F900F900F90DF91CF910895B9
:101DE000CF93DF9300D000D01F92CDB7DEB78983A9
:101DF0006A835C834B832D8360E089810E940C0D94
:101E0000982F81E08927882311F080E011C08A8112
:101E10000E94830D982F81E08927882311F080E0AC
:101E200007C08B819C814D81BC0189810E942C0E51
:101E30000F900F900F900F900F90DF91CF9108951A
:101E4000CF93DF93CDB7DEB788EFDF91CF910895C1
:101E5000CF93DF93CDB7DEB781E0DF91CF910895C7
:101E6000CF93DF93CDB7DEB788EFDF91CF910895A1
:101E7000CF93DF9300D0CDB7DEB78A8360E08A814D
:101E80000E940C0D89830E94CD0C89810F900F90C8
:101E9000DF91CF910895CF93DF9300D0CDB7DEB718
:101EA0009A83898389819A810E949C5789819A812A
:101EB00027EC33E0FC01318320830F900F90DF91FA
:101EC000CF910895EF92FF920F931F93CF93DF93DB
:101ED000CDB7DEB72A970FB6F894DEBF0FBECDBFE1
:101EE0009A8389834B835C836D837E838B819C8102
:101EF000AD81BE8180589B47A14EBF4F880F991F6F
:101F0000AA1FBB1F880F991FAA1FBB1F880F991FED
:101F1000AA1FBB1F7C018D018B819C81AD81BE817D
:101F2000880F991FAA1FBB1F880F991FAA1FBB1FCD
:101F3000880F991FAA1FBB1F880F991FAA1FBB1FBD
:101F40009C01AD01C801B7010E94EB59DA01C9013A
:101F500001970E9456052A960FB6F894DEBF0FBE71
:101F6000CDBFDF91CF911F910F91FF90EF9008951A
:101F7000CF93DF9300D01F92CDB7DEB79A838983CA
:101F80006B838B810E94B90581E090E00F900F90E8
:101F90000F90DF91CF910895CF93DF9300D0CDB70D
:101FA000DEB79A83898389819A8127EC33E0FC012B
:101FB000318320830F900F90DF91CF910895CF93BD
:101FC000DF9300D0CDB7DEB79A83898389819A8168
:101FD0000E94905C0F900F90DF91CF910895CF9366
:101FE000DF9300D0CDB7DEB79A83898389819A8148
:101FF0000E94905C0F900F90DF91CF910895CF9346
:10200000DF9300D0CDB7DEB79A83898389819A8127
:102010000E94255D0F900F90DF91CF910895CF938F
:10202000DF9300D0CDB7DEB79A83898389819A8107
:102030000E94255D0F900F90DF91CF910895CF936F
:10204000DF9300D0CDB7DEB79A83898389819A81E7
:10205000FC01908181E0992309F080E0882F90E0D5
:102060000F900F90DF91CF910895CF93DF9300D021
:10207000CDB7DEB79A83898389819A8121E0FC01FB
:1020800020830F900F90DF91CF910895CF93DF932E
:1020900000D0CDB7DEB79A8389830F900F90DF9180
:1020A000CF910895CF93DF93CDB7DEB7DF91CF9176
:1020B0000895CF93DF9300D000D0CDB7DEB79A83D9
:1020C00089837C836B8389819A810E9440588B81AC
:1020D0009C81892B61F08B819C810E94115FAC01F6
:1020E0002B813C8189819A81B9010E94FB120F905A
:1020F0000F900F900F90DF91CF910895CF93DF93C2
:1021000000D000D0CDB7DEB79A8389837C836B8300
:1021100089819A810E9440582B813C8189819A81D2
:10212000B9010E9477130F900F900F900F90DF91DD
:10213000CF910895CF93DF9300D000D0CDB7DEB715
:102140009A8389837C836B8389819A810E9440581A
:102150002B813C8189819A81B9010E94D7130F900C
:102160000F900F900F90DF91CF910895CF93DF9351
:1021700000D000D01F92CDB7DEB79C838B836D83D8
:102180008B819C810E9440588D8189831A828B812A
:102190009C819E012F5F3F4FB9010E94AF130F90AA
:1021A0000F900F900F900F90DF91CF910895CF93E4
:1021B000DF93CDB7DEB72D970FB6F894DEBF0FBE15
:1021C000CDBF9B878A876C874D878A859B850E94B8
:1021D00040588D85282F30E08C85882F90E0A9010C
:1021E0009E012F5F3F4FB9010E94CE5F8A859B857C
:1021F0009E012F5F3F4FB9010E94AF132D960FB67E
:10220000F894DEBF0FBECDBFDF91CF910895CF937D
:10221000DF93CDB7DEB767970FB6F894DEBF0FBE7A
:10222000CDBF9C8B8B8B7E8B6D8B4F8B8B899C89D1
:102230000E9440588F89282F30E08D899E89A901FE
:102240009E012F5F3F4FB9010E945C5F8B899C8983
:102250009E012F5F3F4FB9010E94AF1367960FB6E3
:10226000F894DEBF0FBECDBFDF91CF910895CF931D
:10227000DF93CDB7DEB766970FB6F894DEBF0FBE1B
:10228000CDBF9B8B8A8B7D8B6C8B4E8B8A899B8978
:102290000E9440588E89282F30E08C899D89A901A1
:1022A0009E012F5F3F4FB9010E94CE5F8A899B89B3
:1022B0009E012F5F3F4FB9010E94AF1366960FB684
:1022C000F894DEBF0FBECDBFDF91CF910895CF93BD
:1022D000DF93CDB7DEB7A9970FB6F894DEBF0FBE78
:1022E000CDBF9CA38BA34DA35EA36FA378A729A703
:1022F0008BA19CA10E94405889A5282F30E08DA178
:102300009EA1AFA1B8A5AE014F5F5F4FBC01CD014B
:102310000E94725F8BA19CA19E012F5F3F4FB9016C
:102320000E94AF13A9960FB6F894DEBF0FBECDBFC3
:10233000DF91CF910895CF93DF93CDB7DEB7A89704
:102340000FB6F894DEBF0FBECDBF9BA38AA34CA3EC
:102350005DA36EA37FA328A78AA19BA10E944058DA
:1023600088A5282F30E08CA19DA1AEA1BFA1AE0110
:102370004F5F5F4FBC01CD010E94A15F8AA19BA16D
:102380009E012F5F3F4FB9010E94AF13A8960FB671
:10239000F894DEBF0FBECDBFDF91CF9108950F93AC
:1023A0001F93CF93DF93CDB7DEB7A8970FB6F894FE
:1023B000DEBF0FBECDBF9BA38AA34CA35DA36EA3BC
:1023C0007FA328A78AA19BA10E94405888A58E5F61
:1023D000482F8CA19DA1AEA1BFA19E012F5F3F4FB1
:1023E000890128A5BC01CD010E94705C9C018AA1D5
:1023F0009BA1B9010E94AF13A8960FB6F894DEBF57
:102400000FBECDBFDF91CF911F910F9108950F9314
:102410001F93CF93DF93CDB7DEB7A8970FB6F8948D
:10242000DEBF0FBECDBF9BA38AA34CA35DA36EA34B
:102430007FA328A78AA19BA10E94405888A58E5FF0
:10244000482F8CA19DA1AEA1BFA19E012F5F3F4F40
:10245000890128A5BC01CD010E94705C9C018AA164
:102460009BA1B9010E94AF13A8960FB6F894DEBFE6
:102470000FBECDBFDF91CF911F910F910895CF93E4
:10248000DF9300D0CDB7DEB79A83898389819A81A3
:10249000FC01808191810E94255D0F900F90DF915A
:1024A000CF910895CF93DF9300D0CDB7DEB79A8355
:1024B000898389819A81FC0180819181892B39F0FE
:1024C00089819A81FC01808191810E94255D8981A9
:1024D0009A81FC011182108289819A81FC01158206
:1024E000148289819A81FC012481358189819A81B4
:1024F000FC01338322830F900F90DF91CF910895D9
:10250000CF93DF9300D000D0CDB7DEB79A83898315
:102510007C836B8389819A81FC0180819181892BE5
:1025200061F089819A81FC01228133818B819C81B8
:102530002817390710F081E01FC02B813C81898169
:102540009A81B9010E94C312982F81E0992309F45E
:1025500080E0882381F089819A81FC0184819581C2
:10256000892B39F489819A81FC0180819181FC0158
:10257000108281E001C080E00F900F900F900F90CB
:10258000DF91CF910895CF93DF9300D000D000D09A
:10259000CDB7DEB79C838B837E836D838D819E81D7
:1025A0009C012F5F3F4F8B819C81FC018081918139
:1025B000B9010E94BD5D9A83898389819A81892BA3
:1025C00081F08B819C8129813A81FC0131832083B8
:1025D0008B819C812D813E81FC013383228381E0AC
:1025E00001C080E026960FB6F894DEBF0FBECDBFC7
:1025F000DF91CF910895CF93DF9300D000D000D02A
:10260000CDB7DEB79A8389837C836B835E834D83EA
:102610002D813E8189819A81B9010E948012982F73
:1026200081E0992309F080E0882339F089819A813B
:102630000E94521289819A8113C089819A812D81C9
:102640003E81FC013583248389819A81FC0180814C
:1026500091812B813C81B9010E940A5F89819A8115
:1026600026960FB6F894DEBF0FBECDBFDF91CF9197
:102670000895CF93DF9300D000D000D0CDB7DEB760
:102680009A8389837C836B835E834D832D813E8116
:1026900089819A81B9010E948012982F81E0992343
:1026A00009F080E0882339F089819A810E945212D2
:1026B00089819A8113C089819A812D813E81FC0193
:1026C0003583248389819A81FC01808191812B81CA
:1026D0003C81B9010E94CB5E89819A8126960FB612
:1026E000F894DEBF0FBECDBFDF91CF910895CF9399
:1026F000DF9300D000D0CDB7DEB79A8389837C8387
:102700006B8329813A818B819C812817390719F4C1
:1027100089819A811DC08B819C81FC01808191817E
:10272000892B81F08B819C81FC01448155818B81B7
:102730009C81FC012081318189819A81B9010E94AB
:10274000FB1204C089819A810E94521289819A8168
:102750000F900F900F900F90DF91CF910895CF932E
:10276000DF9300D000D0CDB7DEB79A8389837C8316
:102770006B838B819C81892B69F08B819C810E946A
:10278000115FAC012B813C8189819A81B9010E9442
:10279000FB1204C089819A810E94521289819A8118
:1027A0000F900F900F900F90DF91CF910895CF93DE
:1027B000DF9300D000D000D0CDB7DEB79C838B83F1
:1027C0007E836D838D819E81892B89F08D819E8191
:1027D0009A83898389819A810E94D25EAC012D817E
:1027E0003E818B819C81B9010E94391304C08B8189
:1027F0009C810E9452128B819C8126960FB6F89480
:10280000DEBF0FBECDBFDF91CF910895CF93DF9391
:1028100000D000D0CDB7DEB79A8389837C836B83E9
:102820008B819C81FC01448155818B819C81FC01C1
:102830002081318189819A81B9010E9426140F90EB
:102840000F900F900F90DF91CF910895CF93DF936A
:10285000CDB7DEB728970FB6F894DEBF0FBECDBF59
:102860009C838B837E836D8358874F838B819C8170
:10287000FC01248135818F819885820F931F9A8373
:1028800089838D819E81892B11F480E02FC08F81F7
:102890009885892B11F481E029C029813A818B81A7
:1028A0009C81B9010E948012982F81E0992309F040
:1028B00080E0882311F080E019C08B819C81FC01AD
:1028C000208131818B819C81FC0184819581820FE3
:1028D000931F2D813E81B9010E940A5F8B819C81EB
:1028E00029813A81FC013583248381E028960FB643
:1028F000F894DEBF0FBECDBFDF91CF910895CF9387
:10290000DF9300D000D0CDB7DEB79A8389837C8374
:102910006B838B819C81892B11F480E00CC08B81AF
:102920009C810E94115FAC012B813C8189819A813D
:10293000B9010E9426140F900F900F900F90DF9115
:10294000CF910895CF93DF9300D000D01F92CDB7E1
:10295000DEB79C838B836D838D8189831A828B8103
:102960009C8141E050E09E012F5F3F4FB9010E94E2
:1029700026140F900F900F900F900F90DF91CF9132
:102980000895CF93DF93CDB7DEB727970FB6F894AE
:10299000DEBF0FBECDBF9E838D836F838F81882F57
:1029A00090E04AE050E09E012F5F3F4FB9010E9446
:1029B0005C5FCE0101960E94115F9C018D819E811A
:1029C000A9019E012F5F3F4FB9010E94261427964F
:1029D0000FB6F894DEBF0FBECDBFDF91CF91089543
:1029E000CF93DF93CDB7DEB72C970FB6F894DEBF49
:1029F0000FBECDBF9A8789877C876B878B859C8527
:102A00004AE050E09E012F5F3F4FB9010E945C5F9A
:102A1000CE0101960E94115F9C0189859A85A901CA
:102A20009E012F5F3F4FB9010E9426142C960FB6CE
:102A3000F894DEBF0FBECDBFDF91CF910895CF9345
:102A4000DF93CDB7DEB72B970FB6F894DEBF0FBE7E
:102A5000CDBF998788877B876A878A859B854AE06F
:102A600050E09E012F5F3F4FB9010E94CE5FCE0123
:102A700001960E94115F9C0188859985A9019E019C
:102A80002F5F3F4FB9010E9426142B960FB6F89482
:102A9000DEBF0FBECDBFDF91CF910895CF93DF93FF
:102AA000CDB7DEB764970FB6F894DEBF0FBECDBFCB
:102AB000988B8F87498B5A8B6B8B7C8B89899A89F2
:102AC000AB89BC892AE030E0AE014F5F5F4FBC01AB
:102AD000CD010E94725FCE0101960E94115F9C01A0
:102AE0008F859889A9019E012F5F3F4FB9010E94F0
:102AF000261464960FB6F894DEBF0FBECDBFDF91EB
:102B0000CF910895CF93DF93CDB7DEB763970FB61C
:102B1000F894DEBF0FBECDBF9F878E87488B598B41
:102B20006A8B7B8B88899989AA89BB892AE030E0E6
:102B3000AE014F5F5F4FBC01CD010E94A15FCE018E
:102B400001960E94115F9C018E859F85A9019E01BF
:102B50002F5F3F4FB9010E94261463960FB6F89479
:102B6000DEBF0FBECDBFDF91CF9108950F931F93AE
:102B7000CF93DF93CDB7DEB76C970FB6F894DEBF77
:102B80000FBECDBF988F8F8B498F5A8F6B8F7C8FE5
:102B90009E012D5F3F4F898D9A8DAB8DBC8D890134
:102BA00022E044E0BC01CD010E94705C9A838983DD
:102BB00089819A810E94115FAC0129813A818F89B4
:102BC000988DB9010E9426146C960FB6F894DEBF5A
:102BD0000FBECDBFDF91CF911F910F9108950F933D
:102BE0001F93CF93DF93CDB7DEB76C970FB6F894F2
:102BF000DEBF0FBECDBF988F8F8B498F5A8F6B8FE3
:102C00007C8F9E012D5F3F4F898D9A8DAB8DBC8D42
:102C1000890122E044E0BC01CD010E94705C9A83EE
:102C2000898389819A810E94115FAC0129813A814F
:102C30008F89988DB9010E9426146C960FB6F8946E
:102C4000DEBF0FBECDBFDF91CF911F910F910895D1
:102C5000CF93DF93CDB7DEB72A970FB6F894DEBFD8
:102C60000FBECDBF98878F837A87698789859A85BC
:102C7000892B11F480E044C089859A859E838D83D9
:102C80008D819E810E94D25E9A83898389819A81F7
:102C9000892B11F481E034C08F819885FC01248157
:102CA000358189819A81820F931F9C838B832B812D
:102CB0003C818F819885B9010E948012982F81E014
:102CC000992309F080E0882311F080E019C08F81FA
:102CD0009885FC01208131818F819885FC01848158
:102CE0009581820F931F29853A85B9010E94CB5E99
:102CF0008F8198852B813C81FC013583248381E081
:102D00002A960FB6F894DEBF0FBECDBFDF91CF91EC
:102D10000895CF93DF9300D000D000D0CDB7DEB7B9
:102D20009C838B837E836D838B819C819A83898333
:102D30008D819E81FC01448155818D819E81FC01A4
:102D40002081318189819A81B9010E942614982FAE
:102D500081E0992309F080E0882321F089819A811C
:102D60000E94521289819A8126960FB6F894DEBF8E
:102D70000FBECDBFDF91CF910895CF93DF9300D0E9
:102D800000D000D0CDB7DEB79C838B837E836D836C
:102D90008B819C819A8389838D819E81892B71F09F
:102DA0008D819E810E94115FAC0189819A812D8164
:102DB0003E81B9010E942614882311F481E001C0EC
:102DC00080E0882321F089819A810E9452128981B2
:102DD0009A8126960FB6F894DEBF0FBECDBFDF9165
:102DE000CF910895CF93DF9300D000D01F92CDB73D
:102DF000DEB79C838B836D838B819C819A838983CF
:102E000089819A816D810E94A214982F81E0992373
:102E100009F080E0882321F089819A810E94521272
:102E200089819A810F900F900F900F900F90DF91F2
:102E3000CF910895CF93DF9300D000D01F92CDB7EC
:102E4000DEB79C838B836D838B819C819A8389837E
:102E500089819A816D810E94C114982F81E0992304
:102E600009F080E0882321F089819A810E94521222
:102E700089819A810F900F900F900F900F90DF91A2
:102E8000CF910895CF93DF9300D000D000D0CDB77D
:102E9000DEB79C838B837E836D838B819C819A8339
:102EA000898389819A812D813E81B9010E94F01424
:102EB000982F81E0992309F080E0882321F089810F
:102EC0009A810E94521289819A8126960FB6F894AF
:102ED000DEBF0FBECDBFDF91CF910895CF93DF93BB
:102EE00000D000D000D0CDB7DEB79C838B837E832B
:102EF0006D838B819C819A83898389819A812D81BD
:102F00003E81B9010E941F15982F81E0992309F095
:102F100080E0882321F089819A810E945212898160
:102F20009A8126960FB6F894DEBF0FBECDBFDF9113
:102F3000CF910895CF93DF93CDB7DEB728970FB623
:102F4000F894DEBF0FBECDBF9C838B834D835E8321
:102F50006F8378878B819C819A83898329813A81C9
:102F60008D819E81AF81B885AC01BD01C9010E94F0
:102F70004E15982F81E0992309F080E0882321F0F5
:102F800089819A810E94521289819A8128960FB66E
:102F9000F894DEBF0FBECDBFDF91CF910895CF93E0
:102FA000DF93CDB7DEB728970FB6F894DEBF0FBE1C
:102FB000CDBF9C838B834D835E836F8378878B81AA
:102FC0009C819A83898329813A818D819E81AF81F9
:102FD000B885AC01BD01C9010E948215982F81E01E
:102FE000992309F080E0882321F089819A810E9449
:102FF000521289819A8128960FB6F894DEBF0FBECF
:10300000CDBFDF91CF910895CF93DF93CDB7DEB7DA
:1030100028970FB6F894DEBF0FBECDBF9C838B837D
:103020004D835E836F8378878B819C819A838983AC
:1030300029813A818D819E81AF81B885AC01BD0126
:10304000C9010E94B615982F81E0992309F080E00C
:10305000882321F089819A810E94521289819A8164
:1030600028960FB6F894DEBF0FBECDBFDF91CF918B
:103070000895CF93DF93CDB7DEB728970FB6F894B6
:10308000DEBF0FBECDBF9C838B834D835E836F837A
:1030900078878B819C819A83898329813A818D816C
:1030A0009E81AF81B885AC01BD01C9010E94EF15B9
:1030B000982F81E0992309F080E0882321F089810D
:1030C0009A810E94521289819A8128960FB6F894AB
:1030D000DEBF0FBECDBFDF91CF910895CF93DF93B9
:1030E00000D000D000D0CDB7DEB79C838B837E8329
:1030F0006D838B819C819A83898389819A812D81BB
:103100003E81B9010E942816982F81E0992309F089
:1031100080E0882321F089819A810E94521289815E
:103120009A8126960FB6F894DEBF0FBECDBFDF9111
:10313000CF910895CF93DF9300D000D0CDB7DEB705
:103140009A8389837C836B8389819A81FC01808146
:103150009181892B39F08B819C81FC018081918147
:10316000892BB1F58B819C81FC0180819181892B18
:10317000A1F08B819C81FC0184819581892B69F070
:103180008B819C81FC0180819181FC018081882F51
:1031900090E091958195910928C089819A81FC01DF
:1031A00080819181892B89F089819A81FC018481B8
:1031B0009581892B51F089819A81FC0180819181CF
:1031C000FC018081882F90E010C080E090E00DC06D
:1031D0008B819C81FC012081318189819A81FC0154
:1031E00080819181B9010E94015F0F900F900F9033
:1031F0000F90DF91CF910895CF93DF9300D000D04F
:10320000CDB7DEB79A8389837C836B8389819A816A
:10321000FC01248135818B819C81FC018481958115
:103220002817390759F42B813C8189819A81B9018A
:103230000E949A18892B11F481E001C080E00F9060
:103240000F900F900F90DF91CF910895CF93DF9360
:1032500000D000D0CDB7DEB79A8389837C836B839F
:1032600089819A81FC0184819581892B71F48B81FC
:103270009C81892B31F08B819C81FC01808188238A
:1032800011F481E001C080E01FC08B819C81892BFB
:1032900061F489819A81FC0180819181FC01908196
:1032A00081E0992389F080E00FC089819A81FC0137
:1032B000808191812B813C81B9010E94015F21E0D5
:1032C000892B09F020E0822F0F900F900F900F9024
:1032D000DF91CF910895CF93DF9300D000D0CDB789
:1032E000DEB79A8389837C836B832B813C818981C0
:1032F0009A81B9010E949A18892F881F8827881FF0
:103300000F900F900F900F90DF91CF910895CF9372
:10331000DF9300D000D0CDB7DEB79A8389837C835A
:103320006B832B813C8189819A81B9010E949A1813
:1033300021E0181619060CF020E0822F0F900F9054
:103340000F900F90DF91CF910895CF93DF9300D02E
:1033500000D0CDB7DEB79A8389837C836B832B81C2
:103360003C8189819A81B9010E949A1821E018163E
:1033700019060CF420E0822F0F900F900F900F9001
:10338000DF91CF910895CF93DF9300D000D0CDB7D8
:10339000DEB79A8389837C836B832B813C8189810F
:1033A0009A81B9010E949A18892F8095881F8827D1
:1033B000881F0F900F900F900F90DF91CF9108957D
:1033C0000F931F93CF93DF93CDB7DEB728970FB638
:1033D000F894DEBF0FBECDBF9E838D8378876F8349
:1033E0002D813E818F8198852817390711F481E05E
:1033F00052C08D819E81FC01248135818F81988509
:10340000FC01848195812817390711F080E043C0C1
:103410008D819E81FC0184819581892B11F481E04D
:103420003AC08D819E81FC01808191819A8389833C
:103430008F819885FC01808191819C838B8324C03E
:1034400089819A819C012F5F3F4F3A832983FC0138
:103450008081882F90E00E94BB5E8C018B819C81D3
:103460009C012F5F3F4F3C832B83FC018081882F81
:1034700090E00E94BB5E21E00817190709F420E0E4
:10348000222311F080E007C089819A81FC018081AC
:103490008823B1F681E028960FB6F894DEBF0FBE00
:1034A000CDBFDF91CF911F910F910895CF93DF93FF
:1034B00000D000D0CDB7DEB79A8389837C836B833D
:1034C00089819A81FC01248135818B819C81FC0159
:1034D000848195812817390710F480E009C02B8179
:1034E0003C8189819A8140E050E0B9010E947F1AB5
:1034F0000F900F900F900F90DF91CF910895CF9381
:10350000DF9300D000D000D0CDB7DEB79A83898397
:103510007C836B835E834D8389819A81FC01248146
:1035200035818B819C81FC0184819581281B390B1D
:103530008D819E812817390770F089819A81FC015D
:1035400080819181892B39F08B819C81FC01808164
:103550009181892B11F480E01AC08B819C81FC0140
:10356000448155818B819C81FC01608171818981BD
:103570009A81FC01208131818D819E81820F931F70
:103580000E941A5F21E0892B09F020E0822F269605
:103590000FB6F894DEBF0FBECDBFDF91CF91089577
:1035A000CF93DF9300D000D0CDB7DEB79A83898365
:1035B0007C836B8389819A81FC01248135818B8195
:1035C0009C81FC01848195812817390770F08981DD
:1035D0009A81FC0180819181892B39F08B819C81BA
:1035E000FC0180819181892B11F480E021C08B81C5
:1035F0009C81FC016081718189819A81FC0120811B
:10360000318189819A81FC01448155818B819C8122
:10361000FC0184819581FA01E81BF90BCF01820F2F
:10362000931F0E94015F21E0892B09F020E0822F87
:103630000F900F900F900F90DF91CF910895CF933F
:10364000DF9300D000D0CDB7DEB79A8389837C8327
:103650006B832B813C8189819A81B9010E94911BE6
:103660000F900F900F900F90DF91CF910895CF930F
:10367000DF9300D000D01F92CDB7DEB79A83898345
:103680007C836B834D8389819A81FC012481358100
:103690008B819C818217930760F489819A81FC0158
:1036A000208131818B819C81820F931F2D81FC01B0
:1036B00020830F900F900F900F900F90DF91CF917C
:1036C0000895CF93DF9300D000D0CDB7DEB79A83B3
:1036D00089837C836B8389819A81FC012481358174
:1036E0008B819C818217930738F489819A81FC0130
:1036F00080819181892B29F41092AB058BEA95E0AA
:1037000009C089819A81FC01208131818B819C8152
:10371000820F931F0F900F900F900F90DF91CF911A
:103720000895CF93DF9300D000D0CDB7DEB79A8352
:1037300089837C836B8389819A81FC012481358113
:103740008B819C818217930738F489819A81FC01CF
:1037500080819181892B11F480E00BC089819A814D
:10376000FC01208131818B819C81820F931FFC01A0
:1037700080810F900F900F900F90DF91CF9108955F
:10378000CF93DF93CDB7DEB72A970FB6F894DEBF9D
:103790000FBECDBF9C838B837E836D8358874F8301
:1037A0003A8729878F819885892B21F08D819E8189
:1037B000892B09F447C08B819C81FC0124813581D0
:1037C00089859A858217930728F08D819E81FC0157
:1037D000108238C08F81988501979A8389838B8165
:1037E0009C81FC012481358189859A85281B390BB0
:1037F00089819A812817390768F48B819C81FC01A3
:103800002481358189859A85A901481B590BCA01F4
:103810009A8389838B819C81FC01208131818985F8
:103820009A85280F391F49815A818D819E81B9015E
:103830000E94285F2D813E8189819A81820F931F8A
:10384000FC0110822A960FB6F894DEBF0FBECDBFE2
:10385000DF91CF910895CF93DF9300D01F92CDB722
:10386000DEB79A8389836B8389819A8140E050E037
:103870006B810E94411C0F900F900F90DF91CF91B0
:103880000895CF93DF93CDB7DEB727970FB6F8949F
:10389000DEBF0FBECDBF9C838B836D835F834E8362
:1038A0008B819C81FC01248135818E819F818217CF
:1038B000930718F08FEF9FEF21C08D81482F50E0C4
:1038C0008B819C81FC01208131818E819F81820FBF
:1038D000931FBA010E94F65E9A83898389819A8137
:1038E000892B19F48FEF9FEF09C089819A812B8171
:1038F0003C81F90120813181821B930B27960FB601
:10390000F894DEBF0FBECDBFDF91CF910895CF9366
:10391000DF9300D000D0CDB7DEB79A8389837C8354
:103920006B832B813C8189819A8140E050E0B90111
:103930000E94A11C0F900F900F900F90DF91CF91DC
:103940000895CF93DF93CDB7DEB728970FB6F894DD
:10395000DEBF0FBECDBF9C838B837E836D83588774
:103960004F838B819C81FC01248135818F819885D7
:103970008217930718F08FEF9FEF23C08D819E81F0
:10398000FC01408151818B819C81FC01208131812E
:103990008F819885820F931FBA010E94425F9A839C
:1039A000898389819A81892B19F48FEF9FEF09C050
:1039B00089819A812B813C81F90120813181821B8F
:1039C000930B28960FB6F894DEBF0FBECDBFDF91E4
:1039D000CF910895CF93DF9300D01F92CDB7DEB77C
:1039E0009A8389836B8389819A81FC018481958183
:1039F0009C012150310989819A81A9016B810E9422
:103A0000071D0F900F900F90DF91CF910895CF93E6
:103A1000DF93CDB7DEB728970FB6F894DEBF0FBEA1
:103A2000CDBF9D838C836E8358874F838C819D810E
:103A3000FC01248135818F8198858217930718F0C6
:103A40008FEF9FEF43C08C819D81FC0120813181EC
:103A50008F8198850196820F931FFC018081898355
:103A60008C819D81FC01208131818F819885019617
:103A7000820F931FFC0110828E81282F30E08C81F1
:103A80009D81FC0180819181B9010E94375F9B83F8
:103A90008A838C819D81FC01208131818F81988571
:103AA0000196820F931F2981FC0120838A819B81CB
:103AB000892B19F48FEF9FEF09C08A819B812C819C
:103AC0003D81F90120813181821B930B28960FB62D
:103AD000F894DEBF0FBECDBFDF91CF910895CF9395
:103AE000DF9300D000D0CDB7DEB79A8389837C8383
:103AF0006B8389819A81FC01248135818B819C8132
:103B0000FC0184819581A901481B590B2B813C81C3
:103B100089819A81B9010E94941D0F900F900F9096
:103B20000F90DF91CF910895CF93DF93CDB7DEB79C
:103B30002A970FB6F894DEBF0FBECDBF9E838D834C
:103B400078876F835A8749878F819885FC018481A4
:103B50009581892BA1F08D819E81FC0184819581C5
:103B6000892B69F08F819885FC01248135818D81B5
:103B70009E81FC01848195818217930718F48FEF51
:103B80009FEF5EC08D819E81FC01248135818985F6
:103B90009A858217930740F08D819E81FC01848174
:103BA000958101979A8789878FEF9FEF9A83898301
:103BB0008D819E81FC01808191819C838B8330C0AB
:103BC0008F819885FC01208131818B819C81B90195
:103BD0000E94425F9C838B838B819C81892B09F49B
:103BE0002DC08B819C812D813E81F9012081318105
:103BF000821B930B9C0189859A858217930758F045
:103C00008B819C812D813E81F90120813181821B34
:103C1000930B9A8389838B819C8101969C838B83F0
:103C20008D819E81FC012081318189859A85280FB3
:103C3000391F8B819C812817390710F689819A8159
:103C40002A960FB6F894DEBF0FBECDBFDF91CF919D
:103C50000895CF93DF93CDB7DEB72B970FB6F894C7
:103C6000DEBF0FBECDBF9D838C837F836E8359875C
:103C700048873B872A87288539858A859B858217CF
:103C8000930760F48A859B859A83898388859985C3
:103C90009B878A8789819A81998788878C819D8172
:103CA00068E971E00E9459108E819F81FC01248196
:103CB0003581888599852817390708F443C08E8196
:103CC0009F81FC01248135818A859B8528173907CE
:103CD00038F48E819F81FC01848195819B878A873E
:103CE0008E819F81FC01208131818A859B85820F95
:103CF000931FFC0180818B838E819F81FC01208139
:103D000031818A859B85820F931FFC0110828E81F1
:103D10009F81FC012081318188859985280F391F79
:103D20008C819D81B9010E94AF138E819F81FC011E
:103D3000208131818A859B85820F931F2B81FC0115
:103D4000208300008C819D812B960FB6F894DEBFF6
:103D50000FBECDBFDF91CF910895CF93DF9300D0F9
:103D600000D000D0CDB7DEB79C838B836D834E83AC
:103D70008B819C81FC0180819181892B09F41FC07A
:103D80008B819C81FC01808191819A83898311C000
:103D900089819A81FC0190818D81981729F489810C
:103DA0009A812E81FC01208389819A8101969A83D0
:103DB000898389819A81FC018081882349F726962D
:103DC0000FB6F894DEBF0FBECDBFDF91CF9108953F
:103DD000CF93DF93CDB7DEB764970FB6F894DEBF0D
:103DE0000FBECDBF988B8F877A8B698B5C8B4B8B8B
:103DF0008F859889FC0184819581892B39F0898987
:103E00009A89FC0184819581892B09F49FC18B8952
:103E10009C89FC012481358189899A89FC018481EE
:103E20009581A901481B590BCA019A8789878F85FB
:103E30009889FC01808191819A83898389859A85FB
:103E4000892B81F51AC08B899C89FC01448155819D
:103E50008B899C89FC01208131818B859C85B901EE
:103E60000E94DB5E8B899C89FC01848195812B8576
:103E70003C85820F931F9A83898389899A89FC01E3
:103E80002081318189819A81B9010E94425F9C879A
:103E90008B8721E08B859C85892B09F420E02223E8
:103EA00091F654C189859A8599230CF073C08F854A
:103EB0009889FC01808191819C838B834EC02B85E6
:103EC0003C8589819A81A901481B590BCA019E87AB
:103ED0008D874D855E8529813A818B819C81B901D1
:103EE0000E94DB5E2B813C818D859E85820F931F16
:103EF0009C838B838B899C89FC01448155818B89B0
:103F00009C89FC01208131818B819C81B9010E94B7
:103F1000DB5E8B899C89FC01848195812B813C81AE
:103F2000820F931F9C838B8389899A89FC018481EA
:103F300095812B853C85820F931F9A8389838F857A
:103F40009889FC012481358189859A85280F391F3C
:103F50008F859889FC013583248389899A89FC019E
:103F60002081318189819A81B9010E94425F9C87B9
:103F70008B8721E08B859C85892B09F420E0222307
:103F800009F09DCF29813A818B819C81B9010E94E2
:103F90000A5FDCC08F859889FC01848195819E83AE
:103FA0008D8313C089899A89FC01848195812B8531
:103FB0003C85820F931F9A83898389859A852D81F9
:103FC0003E81820F931F9E838D8389899A89FC018C
:103FD0002081318189819A81B9010E94425F9C8749
:103FE0008B8721E08B859C85892B09F420E0222397
:103FF000C9F68F859889FC01248135818D819E8148
:104000002817390709F4A2C08F859889FC012281FD
:1040100033818D819E812817390758F42D813E8187
:104020008F859889B9010E94C312882311F481E019
:1040300001C080E0882309F089C08F859889FC0140
:1040400084819581019798878F8367C08F85988930
:10405000FC012081318189899A89FC014481558143
:104060008F819885840F951F820F931F9A83898370
:104070008F859889FC01848195812F853889F90184
:1040800020813181A90129813A81BA01621B730B18
:104090009B01AC01420F531F89859A8529813A8182
:1040A000820F931F29813A81B9010E94E45E8F85B6
:1040B0009889FC012481358189859A85280F391FCB
:1040C0008F859889FC01358324838F859889FC012D
:1040D000208131818F859889FC0184819581820FAF
:1040E000931FFC0110828B899C89FC0144815581BE
:1040F0008B899C89FC01608171818F859889FC0185
:10410000208131818F819885820F931F0E94DB5E11
:104110008F819885019798878F838F8198859923C0
:104120008CF04F81588529893A898F859889B90102
:104130000E94941D98878F838F819885992314F00E
:1041400081E001C080E0882309F080CF64960FB63B
:10415000F894DEBF0FBECDBFDF91CF910895CF930E
:10416000DF9300D000D000D0CDB7DEB79C838B8327
:104170007E836D838B819C81FC01248135818D81BF
:104180009E818217930708F016C08B819C81FC01E9
:10419000248135818D819E81A901481B590BCA015B
:1041A0009A83898349815A812D813E818B819C81AB
:1041B000B9010E94E42026960FB6F894DEBF0FBE28
:1041C000CDBFDF91CF910895CF93DF93CDB7DEB709
:1041D00028970FB6F894DEBF0FBECDBF9C838B83AC
:1041E0007E836D8358874F838B819C81FC01248162
:1041F00035818D819E818217930708F064C08F817D
:104200009885892B09F45FC02D813E818F81988527
:10421000280F391F8B819C81FC0184819581821735
:10422000930768F48B819C81FC01248135818D8109
:104230009E81A901481B590BCA0198878F838B81E6
:104240009C81FC01208131818D819E81820F931F91
:104250009A8389838B819C81FC01248135818F81A4
:104260009885281B390B8B819C81FC013583248325
:104270008B819C81FC01248135818D819E81B901D6
:10428000681B790B8B819C81FC01208131814D81E0
:104290005E818F819885840F951F280F391F898132
:1042A0009A81AB01B9010E94285F8B819C81FC013E
:1042B000208131818B819C81FC0184819581820FD9
:1042C000931FFC01108228960FB6F894DEBF0FBE34
:1042D000CDBFDF91CF910895CF93DF9300D000D071
:1042E000CDB7DEB79C838B838B819C81FC01808161
:1042F0009181892B09F420C08B819C81FC018081F4
:1043000091819A83898312C089819A81FC0180817D
:10431000882F90E00E94BB5E282F89819A81FC0142
:10432000208389819A8101969A83898389819A81E0
:10433000FC018081882341F70F900F900F900F9020
:10434000DF91CF910895CF93DF9300D000D0CDB708
:10435000DEB79C838B838B819C81FC018081918162
:10436000892B09F420C08B819C81FC018081918183
:104370009A83898312C089819A81FC018081882F68
:1043800090E00E94C35E282F89819A81FC012083DE
:1043900089819A8101969A83898389819A81FC0116
:1043A0008081882341F70F900F900F900F90DF913D
:1043B000CF910895CF93DF9300D000D000D0CDB738
:1043C000DEB79E838D838D819E81FC0180819181EA
:1043D000892B39F08D819E81FC0184819581892B07
:1043E00009F474C08D819E81FC01808191819A8342
:1043F000898305C089819A8101969A8389838981FD
:104400009A81FC018081882F90E00E94B25E892B06
:1044100089F78D819E81FC01208131818D819E8172
:10442000FC01848195810197820F931F9C838B836C
:1044300005C08B819C8101979C838B838B819C81A0
:10444000FC018081882F90E00E94B25E892B39F0B8
:104450002B813C8189819A812817390750F78B81FC
:104460009C8101969C0189819A81A901481B590B65
:10447000CA019C018D819E81FC01358324838D813D
:104480009E81FC012081318189819A812817390719
:1044900078F48D819E81FC01448155818D819E81BE
:1044A000FC018081918129813A81B9010E94DB5E02
:1044B0008D819E81FC01208131818D819E81FC0155
:1044C00084819581820F931FFC01108226960FB67E
:1044D000F894DEBF0FBECDBFDF91CF910895CF938B
:1044E000DF9300D0CDB7DEB79A83898389819A8123
:1044F000FC0180819181892B51F089819A81FC0195
:10450000808191810E948B5EDC01CB0103C080E041
:1045100090E0DC01BC01CD010F900F90DF91CF91B5
:104520000895CF93DF9300D0CDB7DEB79A83898308
:1045300089819A81FC0180819181892B51F0898147
:104540009A81FC01808191810E94875EDC01CB0110
:1045500003C080E090E0DC01BC01CD010F900F9022
:10456000DF91CF910895CF93DF9300D0CDB7DEB721
:104570009A8389830F900F90DF91CF910895EF92E6
:10458000FF920F931F93CF93DF93CDB7DEB7299799
:104590000FB6F894DEBF0FBECDBF9A8389836B83BD
:1045A0004C832D831F830E83F986E88689819A8147
:1045B0002B81FC01218789819A812C81FC01228732
:1045C00089819A812E813F81FC01308727838981EF
:1045D0009A8128853985FC013183208361E08D81B2
:1045E0000E943F0389819A8160E00E94362489817C
:1045F0009A81FC011382128289819A81FC011582C1
:10460000148289819A8125E0FC01268329960FB6C0
:10461000F894DEBF0FBECDBFDF91CF911F910F91F8
:10462000FF90EF900895CF93DF9300D000D0CDB7E7
:10463000DEB79A8389837C836B8389819A812B81FE
:104640003C81FC01338322830F900F900F900F90D9
:10465000DF91CF910895CF93DF9300D000D0CDB7F5
:10466000DEB79A8389837C836B838B819C81892BC2
:1046700031F489819A8160E00E9436245CC08B818C
:104680009C8118161906DCF489819A81FC01218528
:1046900089819A81FC018781908540E0622F0E9488
:1046A000C62A89819A81FC01228589819A81FC012F
:1046B0008781908541E0622F0E94C62A1AC08981B5
:1046C0009A81FC01218589819A81FC0187819085ED
:1046D00041E0622F0E94C62A89819A81FC012285CD
:1046E00089819A81FC018781908540E0622F0E9438
:1046F000C62A89819A81FC01878190850E94342B8A
:104700008B819C8199231CF49195819591099C83BF
:104710008B838B819C818F3F910529F024F08FEF53
:1047200090E09C838B8389819A81FC0180819181B7
:104730002B81FC0120830F900F900F900F90DF9141
:10474000CF910895CF93DF9300D0CDB7DEB79A8392
:10475000898389819A81FC012281338189819A81AF
:10476000FC01848195812817390709F466C0898185
:104770009A81FC012281338189819A81FC014481E3
:10478000558189819A81FC018681882F90E0840F70
:10479000951F281739079CF089819A81FC01248193
:1047A000358189819A81FC018681882F90E0280FCC
:1047B000391F89819A81FC013583248334C0898122
:1047C0009A81FC012281338189819A81FC01448193
:1047D000558189819A81FC018681882F90E0BA01F8
:1047E000681B790BCB01821793079CF089819A8112
:1047F000FC012481358189819A81FC018681882F81
:1048000090E0281B390B89819A81FC013583248330
:104810000AC089819A81FC012281338189819A8130
:10482000FC013583248389819A81FC0124813581AF
:1048300089819A81B9010E942B230F900F90DF91FB
:10484000CF910895CF93DF9300D01F92CDB7DEB7FD
:104850009A8389836B8389819A812B81FC012683CA
:104860000F900F900F90DF91CF910895CF93DF932A
:1048700000D01F92CDB7DEB79A8389836B838B817B
:10488000882319F189819A81FC01808191812FEF20
:10489000FC01208389819A81FC01218589819A818B
:1048A000FC018781908541E0622F0E94C62A8981A0
:1048B0009A81FC01228589819A81FC0187819085FA
:1048C00041E0622F0E94C62A21C089819A81FC01A1
:1048D00080819181FC01108289819A81FC0121856E
:1048E00089819A81FC018781908540E0622F0E9436
:1048F000C62A89819A81FC01228589819A81FC01DD
:104900008781908540E0622F0E94C62A89819A8122
:10491000FC01878190850E94342B0F900F900F909F
:10492000DF91CF910895CF93DF9300D000D0CDB722
:10493000DEB79C838B830E94A402DC01CB012B8118
:104940003C81F90180879187A287B3878B819C8105
:10495000FC01808191810696FC01208131818B814F
:104960009C81F90109959A83898389819A81992388
:104970001CF089819A8121C00E94A4029B01AC0194
:104980008B819C81FC0180859185A285B385281B44
:10499000390B4A0B5B0B8B819C81FC0184819581D7
:1049A000A681B78161E0281739074A075B0708F03D
:1049B00060E0662359F68FEF9FEF0F900F900F90F6
:1049C0000F90DF91CF910895CF93DF9300D000D067
:1049D000CDB7DEB79C838B830E94A402DC01CB01A0
:1049E0002B813C81F90180879187A287B3878B81D6
:1049F0009C81FC01808191810896FC01208131819C
:104A00008B819C81F90109959A83898389819A8197
:104A100099231CF089819A8121C00E94A4029B01E4
:104A2000AC018B819C81FC0180859185A285B38539
:104A3000281B390B4A0B5B0B8B819C81FC01848109
:104A40009581A681B78161E0281739074A075B077E
:104A500008F060E0662359F68FEF9FEF0F900F90FC
:104A60000F900F90DF91CF910895CF93DF9300D0F7
:104A700000D000D0CDB7DEB79C838B836D834E838F
:104A80008B819C810E94E4249A83898389819A8105
:104A900099239CF089819A818D9779F089819A81F7
:104AA000C09724F089819A81CA973CF08E8188232F
:104AB00039F089819A818E9719F489819A812DC064
:104AC0008D81882F90E08130910519F0029721F0B7
:104AD00015C08FEF9FEF21C089819A818D3091059C
:104AE00061F08E30910524F40997029718F405C0FF
:104AF000809719F08FEF9FEF10C0000000008B81AE
:104B00009C81FC01808191810696FC01208131818C
:104B10008B819C81F9010995B3CF26960FB6F89445
:104B2000DEBF0FBECDBFDF91CF910895CF93DF934E
:104B300000D000D000D0CDB7DEB79A8389834B83F5
:104B40005C836D837E8329813A818B819C81AD81D9
:104B5000BE81F90184839583A683B78326960FB619
:104B6000F894DEBF0FBECDBFDF91CF9108950F93B4
:104B70001F93CF93DF9300D000D0CDB7DEB79A83D9
:104B800089837C836B838B819C810E94115FAC0144
:104B90006B817C8189819A8100E010E020E030E027
:104BA0000E942D260F900F900F900F90DF91CF91C4
:104BB0001F910F9108950F931F93CF93DF9300D010
:104BC00000D000D0CDB7DEB79A8389837C836B8316
:104BD0005E834D834D815E816B817C8189819A8169
:104BE00000E010E020E030E00E942D2626960FB66F
:104BF000F894DEBF0FBECDBFDF91CF911F910F9113
:104C000008950F931F93CF93DF9300D000D000D06F
:104C1000CDB7DEB79A8389837C836B835E834D83B4
:104C20008D819E810E94115F8C018B819C810E94ED
:104C3000115FAC012D813E816B817C8189819A81DC
:104C40000E942D2626960FB6F894DEBF0FBECDBF6C
:104C5000DF91CF911F910F9108950F931F93CF93E1
:104C6000DF93CDB7DEB76C970FB6F894DEBF0FBEFB
:104C7000CDBF9C8B8B8B7E8B6D8B588F4F8B3A8FE0
:104C8000298F1C8F0B8F898D9A8D892B01F526E03A
:104C9000CE010196FC01322F11923A95E9F78D89E8
:104CA0009E899A8389838F89988D9C838B838B8936
:104CB0009C8941E050E09E012F5F3F4FB9010E9467
:104CC00031299C0181E0232B49F180E027C02CE0B1
:104CD000CE010796FC01322F11923A95E9F78D89A2
:104CE0009E8998878F838F89988D9A878987898DE8
:104CF0009A8D9E878D878B8D9C8D988B8F879E013B
:104D0000295F3F4F8B899C8942E050E0B9010E94A6
:104D100031299C0181E0232B09F080E06C960FB6CD
:104D2000F894DEBF0FBECDBFDF91CF911F910F91E1
:104D30000895CF93DF93CDB7DEB72B970FB6F894D6
:104D4000DEBF0FBECDBF998788876A874B871982E0
:104D50001A821B821C821D828885998540E06A85A3
:104D60000E9435259F838E838E819F81992324F411
:104D700080E090E0DC0179C08B85282F30E08E81C7
:104D80009F8128173907B1F18E819F818D9719F482
:104D900081E089832FC08E819F81C0975CF18E81D5
:104DA0009F81CA973CF58A819B81AC81BD81880F28
:104DB000991FAA1FBB1F9C01AD01220F331F441F67
:104DC000551F220F331F441F551F280F391F4A1F1D
:104DD0005B1F8E819F81092E000CAA0BBB0B820FDB
:104DE000931FA41FB51FC097A109B1098A839B8394
:104DF000AC83BD8388859985FC018081918106966D
:104E0000FC012081318188859985F9010995888582
:104E100099850E94E4249F838E838E819F81C09711
:104E20002CF08E819F81CA970CF4A6CF8B85282FFA
:104E300030E08E819F812817390709F49DCF898141
:104E4000882379F08A819B81AC81BD81B095A09542
:104E5000909581959F4FAF4FBF4F8A839B83AC83C3
:104E6000BD838A819B81AC81BD81BC01CD012B9624
:104E70000FB6F894DEBF0FBECDBFDF91CF9108957E
:104E8000CF93DF93CDB7DEB760970FB6F894DEBF50
:104E90000FBECDBF9E878D876F87488B19821A8280
:104EA0001B821C821D821E8280E090E0A0E8BFE38E
:104EB00089879A87AB87BC878D859E8541E06F8502
:104EC0000E94352598878F838F819885992324F4B4
:104ED00080E090E0DC01B9C08889282F30E08F8124
:104EE00098852817390709F451C08F8198858D97C7
:104EF00019F481E089834AC08F8198858E9719F4CF
:104F000081E08A8343C08F819885C0970CF43EC0AE
:104F10008F819885CA97D4F58B819C81AD81BE81A4
:104F2000880F991FAA1FBB1F9C01AD01220F331FC1
:104F3000441F551F220F331F441F551F280F391FB1
:104F40004A1F5B1F8F819885092E000CAA0BBB0B93
:104F5000820F931FA41FB51FC097A109B1098B83AE
:104F60009C83AD83BE838A81882381F02DEC3CEC49
:104F70004CEC5DE369857A858B859C850E94FE5BA0
:104F8000DC01CB0189879A87AB87BC878D859E859D
:104F9000FC01808191810696FC01208131818D8503
:104FA0009E85F90109958D859E850E94E424988748
:104FB0008F838F819885C0972CF08F819885CA97B1
:104FC0000CF48ACF8F8198858E9731F49A8181E095
:104FD0008927882309F080CF8889282F30E08F81A6
:104FE00098852817390709F477CF8981882379F0C4
:104FF0008B819C81AD81BE81B095A0959095819566
:105000009F4FAF4FBF4F8B839C83AD83BE838A81FD
:10501000882399F06B817C818D819E810E94495B00
:10502000DC01CB0129853A854B855C85BC01CD012E
:105030000E94FE5BDC01CB0108C06B817C818D810D
:105040009E810E94495BDC01CB01BC01CD016096D1
:105050000FB6F894DEBF0FBECDBFDF91CF9108959C
:10506000CF93DF93CDB7DEB72A970FB6F894DEBFA4
:105070000FBECDBF9E838D8378876F835A87498704
:105080001A8219821AC08D819E810E9493249C836A
:105090008B838B819C8199230CF416C08F8198851A
:1050A0009C012F5F3F4F38872F832B81FC0120838A
:1050B00089819A8101969A83898329813A81898598
:1050C0009A8528173907F8F289819A812A960FB6AE
:1050D000F894DEBF0FBECDBFDF91CF910895CF937F
:1050E000DF93CDB7DEB72B970FB6F894DEBF0FBEB8
:1050F000CDBF9E838D836F83598748873B872A87DF
:105100008A859B85892B19F480E090E02DC01A8256
:10511000198221C08D819E810E9493249C838B8360
:105120008B819C819923F4F08F81282F30E08B8133
:105130009C8128173907B1F0888599859C012F5FDC
:105140003F4F398728872B81FC01208389819A81F1
:1051500001969A83898329813A818A859B852817BC
:105160003907C0F289819A812B960FB6F894DEBF79
:105170000FBECDBFDF91CF910895CF93DF9300D0C5
:1051800000D000D0CDB7DEB79C838B837E836D8348
:105190008B819C816DEB71E00E9459108D819E8105
:1051A0000E9493249A8389830CC029818B819C81DE
:1051B000622F0E945B588D819E810E9493249A8366
:1051C000898389819A81992384F700008B819C814E
:1051D00026960FB6F894DEBF0FBECDBFDF91CF91FC
:1051E0000895CF93DF93CDB7DEB727970FB6F89426
:1051F000DEBF0FBECDBF9C838B837E836D834F83C9
:105200008B819C816DEB71E00E9459108D819E8194
:105210000E9493249A8389830CC029818B819C816D
:10522000622F0E945B588D819E810E9493249A83F5
:10523000898389819A81992344F08F81282F30E0D6
:1052400089819A812817390741F700008B819C8159
:1052500027960FB6F894DEBF0FBECDBFDF91CF917A
:105260000895CF93DF93CDB7DEB762970FB6F8946A
:10527000DEBF0FBECDBF9E878D87788B6F875A8B21
:10528000498B8F8598899A83898322C089819A81E5
:10529000FC0182819381892BB1F429813A818F8528
:1052A0009889A901481B590BCA019C01359527957E
:1052B0008BEA9AEA289FA001299F500D389F500D34
:1052C0001124CA0131C189819A8106969A83898302
:1052D00029893A89C901880F991F820F931F880F66
:1052E000991F9C018F859889280F391F89819A8180
:1052F0008217930758F28D859E850E949324988784
:105300008F838F81988599231CF48FEF9FEF0CC1B9
:105310008F8598899C838B83F2C08B819C81FC0153
:10532000208131818B819C81FC0184819581820F58
:10533000931FFC018081282F30E08F8198852817EA
:105340003907A9F58B819C81FC01848195819C01A1
:105350002F5F3F4F8B819C81FC01358324838B81A0
:105360009C81FC01248135818B819C81FC0182819F
:10537000938141E02817390709F040E04423B1F058
:105380002B813C818F859889A901481B590BCA0143
:105390009C01359527958BEA9AEA289FA001299FC1
:1053A000500D389F500D1124CA01BEC0A3C08B817F
:1053B0009C81FC0184819581892B09F49BC08B81A0
:1053C0009C81FC01848195819A8789878B819C814E
:1053D000FC01848195819C01215031098B819C8144
:1053E000FC01358324838B819C81FC0120813181E8
:1053F0008B819C81FC0184819581820F931FFC012C
:105400008081282F30E08F8198852817390709F08F
:1054100069C08B819C81FC0184819581892B71F409
:105420008B819C81FC01848195819C012F5F3F4F82
:105430008B819C81FC01358324835CC029853A855E
:105440008B819C81FC0184819581A901481B590BAA
:10545000CA019C878B871E821D8222C08B819C8102
:10546000FC01208131818D819E81820F931FFC017F
:1054700060818B819C81FC01208131814B855C8521
:105480008D819E81840F951F820F931FFC01808167
:10549000681709F00FC08D819E8101969E838D83D0
:1054A0008B819C81FC01248135818D819E818217B5
:1054B0009307A0F28B819C81FC01248135818D8131
:1054C0009E812817390771F48B819C81FC018481AE
:1054D00095819C012F5F3F4F8B819C81FC0135831F
:1054E000248308C08B819C81FC0184819581892B58
:1054F00009F06CCF8B819C8106969C838B832989D4
:105500003A89C901880F991F820F931F880F991F2D
:105510009C018F859889280F391F8B819C81821768
:10552000930708F4FACEE7CE62960FB6F894DEBF82
:105530000FBECDBFDF91CF910895CF93DF9300D001
:10554000CDB7DEB79A83898389819A81FC01108265
:1055500089819A8121E0FC0121830F900F90DF91D6
:10556000CF910895CF93DF9300D01F92CDB7DEB7D0
:105570009A8389836B8389819A812B81FC012283A1
:105580000F900F900F90DF91CF910895CF93DF93FD
:1055900000D000D01F92CDB7DEB79B838A836C8387
:1055A0004D838A819B81FC01808189838D81882341
:1055B000B1F08A819B81FC018081482F8C81282F4A
:1055C00030E081E090E002C0880F991F2A95E2F751
:1055D000842B282F8A819B81FC01208316C08A811D
:1055E0009B81FC018081482F8C81282F30E081E055
:1055F00090E002C0880F991F2A95E2F780958423D6
:10560000282F8A819B81FC0120838A819B81FC0158
:1056100090818981981729F08A819B8121E0FC0182
:1056200021830F900F900F900F900F90DF91CF91EB
:105630000895CF93DF9300D0CDB7DEB79A838983E7
:1056400049815A8189819A81FC0182818F5F21E0A1
:1056500060E00E94F00E89819A81FC0180810F90A8
:105660000F90DF91CF910895CF93DF9300D0CDB706
:10567000DEB79A83898389819A81FC01818188239D
:1056800009F40FC029813A8189819A81FC018281C4
:1056900041E050E0B9010E94D00D89819A81FC015E
:1056A00011820F900F90DF91CF910895CF93DF93E8
:1056B000CDB7DEB728970FB6F894DEBF0FBECDBFCB
:1056C0009C838B837E836D8358874F831A821982D4
:1056D0001DC08B819C81FC0180819181FC01208116
:1056E00031818D819E81AC014F5F5F4F5E834D8321
:1056F000FC0140818B819C81642FF90109959C01FB
:1057000089819A81820F931F9A8389838F819885DB
:105710009C012150310938872F8321E0892B09F41E
:1057200020E02223B1F689819A8128960FB6F89459
:10573000DEBF0FBECDBFDF91CF910895CF93DF9332
:10574000CDB7DEB72C970FB6F894DEBF0FBECDBF36
:105750009A8789877C876B878B859C859A838983C9
:105760001C821B8289819A819C012F5F3F4F3A8363
:1057700029839E838D838D819E81FC0184918F83FB
:105780008F8188878885882309F415C089859A8543
:10579000FC0180819181FC012081318189859A857C
:1057A0006885F90109959C018B819C81820F931F6B
:1057B0009C838B83D7CF8B819C812C960FB6F894DA
:1057C000DEBF0FBECDBFDF91CF9108950F931F9322
:1057D000CF93DF9300D000D0CDB7DEB79A83898313
:1057E0007C836B838B819C810E9471588C018B819F
:1057F0009C810E9482589C0189819A81A801B901EB
:105800000E94C4580F900F900F900F90DF91CF918E
:105810001F910F910895CF93DF9300D000D0CDB7A3
:10582000DEB79A8389837C836B832B813C8189815A
:105830009A81B9010E9493580F900F900F900F908A
:10584000DF91CF910895CF93DF9300D01F92CDB712
:10585000DEB79A8389836B8389819A81FC01808179
:105860009181FC012081318189819A816B81F901CB
:1058700009950F900F900F90DF91CF910895CF93DE
:10588000DF9300D000D01F92CDB7DEB79A83898313
:105890006B835D834C838B81882F90E0A0E0B0E028
:1058A0002C813D81E981FA81AC01BD01CF010E94CB
:1058B000232D0F900F900F900F900F90DF91CF91AD
:1058C0000895CF93DF9300D000D000D0CDB7DEB7DE
:1058D0009A8389837C836B835E834D838B819C81D8
:1058E000092E000CAA0BBB0B2D813E81E981FA81A8
:1058F000AC01BD01CF010E94AA2C26960FB6F894E8
:10590000DEBF0FBECDBFDF91CF910895CF93DF9360
:1059100000D000D000D0CDB7DEB79A8389837C83D6
:105920006B835E834D838B819C81CC01A0E0B0E0D2
:105930002D813E81E981FA81AC01BD01CF010E9438
:10594000232D26960FB6F894DEBF0FBECDBFDF9194
:10595000CF910895CF93DF93CDB7DEB72A970FB6D7
:10596000F894DEBF0FBECDBF9C838B834D835E83D7
:105970006F8378873A87298789859A85892B79F477
:105980008B819C81FC0180819181FC01208131818E
:105990004D818B819C81642FF90109954BC08985CC
:1059A0009A850A97D9F58D819E81AF81B885BB23F1
:1059B00044F58B819C816DE20E94232C9A8389831C
:1059C0008D819E81AF81B885B095A0959095819588
:1059D0009F4FAF4FBF4F8D839E83AF83B8878D811D
:1059E0009E81AF81B885EB81FC812AE0AC01BD01CD
:1059F000CF010E94CC2F9C0189819A81820F931F35
:105A000019C08D819E81AF81B885EB81FC812AE030
:105A1000AC01BD01CF010E94CC2F0CC029858D8126
:105A20009E81AF81B885EB81FC81AC01BD01CF01C6
:105A30000E94CC2F2A960FB6F894DEBF0FBECDBFC2
:105A4000DF91CF910895CF93DF93CDB7DEB728973D
:105A50000FB6F894DEBF0FBECDBF9A8389834B8308
:105A60005C836D837E8338872F838F819885892B14
:105A700079F489819A81FC0180819181FC012081E6
:105A800031814B8189819A81642FF90109950CC07C
:105A90002F818B819C81AD81BE81E981FA81AC012E
:105AA000BD01CF010E94CC2F28960FB6F894DEBF1F
:105AB0000FBECDBFDF91CF910895CF93DF93CDB7C8
:105AC000DEB728970FB6F894DEBF0FBECDBF9A831E
:105AD00089834B835C836D837E8338872F832F81FB
