:100000000C9406010C942E010C942E010C942E01DC
:100010000C942E010C942E010C942E010C942E01A4
:100020000C942E010C942E010C942E010C94501D56
:100030000C942E010C9404020C9430020C942E01AA
:100040000C942E010C942E010C942E010C94C303DD
:100050000C942E01010204081020408000000000D2
:100060000001020408102040800102040810204012
:1000700080000000804020100804020102020202F9
:10008000020202020000000000040404040404044C
:100090000403030303030303030000000101010140
:1000A000010101010000390036003300300000007A
:1000B000000000003B003800350032000000000066
:1000C00000003A00370034003100000000004E41CB
:1000D0004E494E495459494E46CDCCCC3D0AD723C2
:1000E0003C17B7D13877CC2B329595E6241FB14F0A
:1000F0000A000020410000C84200401C4620BCBE4F
:100100004CCA1B0E5AAEC59D7400407A10F35A00BB
:10011000A0724E18090010A5D4E80000E876481730
:100120000000E40B54020000CA9A3B000000E1F515
:1001300005000080969800000040420F000000A0DB
:100140008601000000102700000000E80300000006
:10015000006400000000000A000000000001000030
:100160000000002C76D888DC674F0823DFC1DFAEA3
:1001700059E1B1B796E5E3E453C63AE6519976966C
:10018000E8E6C28426EB898C9B62ED407C6FFCEF35
:10019000BC9C9F40F2BAA56FA5F490055A2AF75C63
:1001A000936B6CF9676DC11BFCE0E40D47FEF52015
:1001B000E6B500D0ED902E030094357705008084DD
:1001C0001E080000204E0A000000C80C33333333F1
:1001D0000F986E12831141EF8D2114893BE655165D
:1001E000CFFEE6DB18D1844B381BF77C1D901DA495
:1001F000BBE424203284725E228100C9F124ECA188
:10020000E53D2700DA2CFF2C092DDE2C11241FBE22
:10021000CFE5D8E0DEBFCDBF10E0A0E6B0E0E4EB74
:10022000FEE602C005900D92A43EB107D9F722E088
:10023000A4EEB0E001C01D92A038B207E1F711E0D2
:10024000C5E0D1E004C02197FE010E94562DC230C6
:10025000D107C9F70E94D32C0C944D370C940000A1
:10026000809148018F5F809348018E33A8F0809180
:10027000440190914501A0914601B091470101963A
:10028000A11DB11D8093440190934501A0934601A7
:10029000B09347011092480108952FB7F8946091E8
:1002A00044017091450180914601909147012FBF13
:1002B00008958F929F92AF92BF92CF92DF92EF926A
:1002C000FF926B017C010E944D014B015C010E9479
:1002D0004D01DC01CB0188199909AA09BB098C15CC
:1002E0009D05AE05BF0598F3FF90EF90DF90CF908E
:1002F000BF90AF909F908F9008958230910538F015
:10030000880F991F880F991F05970197F1F7089596
:10031000789481E083BF89B7816089BF0895CF93C6
:10032000DF9390E0FC01EC5AFF4F2491FC01E4586C
:10033000FF4F8491882361F190E0880F991FFC01A1
:10034000E054FF4FC591D491FC01EE54FF4FA591AD
:10035000B491611109C09FB7F894888120958223D8
:100360008883EC912E230BC0623061F49FB7F89420
:100370003881822F809583238883EC912E2B2C93B8
:100380009FBF06C08FB7F894E8812E2B28838FBFBC
:10039000DF91CF91089590E0FC01EC5AFF4F24913A
:1003A000FC01E458FF4FE491EE2389F0F0E0EE0FFA
:1003B000FF1FEE54FF4FA591B491611105C08C91C0
:1003C000E22FE095E82302C0EC91E22BEC93089534
:1003D00090E0FC01EC5AFF4F2491FC01E458FF4FE0
:1003E000E491EE2371F0F0E0EE0FFF1FEC55FF4FAC
:1003F000A591B491EC91E22381E090E021F480E0BA
:10040000089580E090E008951F920F920FB60F922A
:1004100011242F938F939F93EF93FF938BB19CB1F4
:100420008871E0914B01EF5FEF7120914A01E21773
:1004300039F0E0934B01F0E0E25BFE4F908301C0A6
:1004400082E090914901892B80934901FF91EF91BE
:100450009F918F912F910F900FBE0F901F90189525
:100460001F920F920FB60F9211248F939F93EF93C9
:10047000FF9390914D0180914C01981761F0E091AC
:100480004C01EF5FEF71E0934C01F0E0E259FE4F59
:1004900080818CB901C05598FF91EF919F918F9108
:1004A0000F900FBE0F901F90189510924D01109253
:1004B0004C0110924B0110924A0197FF03C022E0B9
:1004C0002BB99F7790BD89B988E98AB986E880BD44
:1004D000089590914B0180914A01981781F0E09125
:1004E0004A01EF5FEF71E0934A01F0E0E25BFE4FFB
:1004F0008081909149011092490190E0089580E037
:1005000091E0089590914D019F5F9F7120914C0162
:100510009217E1F3E92FF0E0E259FE4F80839093C8
:100520004D01559A0895CF93DF93EC01899188236B
:1005300019F00E948202FACFDF91CF910895CF93F4
:10054000DF93FC018491EF012196882321F00E9422
:100550008202FE01F7CFDF91CF9108951092FB0147
:1005600081E08093F9011092F80161E081E10E943D
:10057000CB0161E080E10E94CB010898099888E4F2
:1005800080B985E486BF089586B78A7B86BF60E020
:1005900081E10E94CB0160E080E10C94CB01880FE7
:1005A00082B908959B01AC0160E074E284EF90E0B1
:1005B0000E94292DDA01C9014097A109B109B69518
:1005C000A7959795879580B90895413208F040C066
:1005D0009091FB019111FCCF91E09093FB0120934E
:1005E000F9012FEF20938E011092D301240F209355
:1005F000D2019093FA019091FA01880F892B809390
:10060000FA018091F801813051F41092F801809143
:10061000FA0183B906B603FCFACF85EC01C085EE7A
:1006200086BF8091FB018130E1F38091D301841773
:1006300010F44091D30124ED31E0FB01D9018A2F60
:10064000821B841718F48D918193F9CF842F08951C
:1006500080E008950F93413208F047C09091FB016C
:100660009111FCCF32E03093FB010093F9013FEF91
:1006700030938E011092D3014093D201FB0164EDBF
:1006800071E0DB013A2F361B341718F431913D939A
:10069000F9CF1092FA013091FA01880F832B8093E1
:1006A000FA018091F801813051F41092F8018091A3
:1006B000FA0183B906B603FCFACF85EC01C085EEDA
:1006C00086BF222321F08091FB018230D1F38091FB
:1006D0008E018F3F79F080918E01803241F08091C0
:1006E0008E01803331F094E005C091E003C092E0C8
:1006F00001C093E0892F0F9108954091B001262FFA
:1007000030E0240F311D21323105DCF42091FB0152
:100710002430C9F4FC0180E090E0861758F4309151
:10072000B0012191DC01AE54BE4FA30FB11D2C933B
:100730000196F3CF8091B001680F6093B00180E023
:10074000089581E0089582E008959093F5018093E3
:10075000F40108959093F7018093F601089588239A
:1007600011F085EC01C085E886BF089585ED86BF50
:1007700006B604FCFDCF1092FB01089585EC86BF00
:100780001092FB0108951F920F920FB60F92112441
:100790002F933F934F935F936F937F938F939F9389
:1007A000AF93BF93EF93FF9381B1887F803609F4B5
:1007B0009BC078F5883209F45DC090F4803109F46B
:1007C00056C038F4882309F4EEC0883009F44FC0CD
:1007D000EEC0883109F44EC0803209F45EC0E7C033
:1007E000803409F468C058F4803309F456C0883363
:1007F00009F0DDC080938E010E94BE03D8C0803511
:1008000009F44EC0883509F45BC0883409F0CFC0C4
:10081000CCC0883909F4BFC0A8F4883709F464C093
:1008200038F4883609F460C0803709F45DC0BFC071
:10083000883809F4B0C0803909F45CC0803809F008
:10084000B6C058C0803B09F47FC038F4803A09F440
:1008500062C0883A09F478C0AAC0803C09F49EC0FE
:10086000883C09F49BC0883B09F483C0A0C08091F8
:10087000FA0110C09091D3018091D201981758F5D8
:10088000E091D30181E08E0F8093D301F0E0EC5230
:10089000FE4F808183B985EC7FC080938E0185C037
:1008A000E091D30181E08E0F8093D30183B1F0E01A
:1008B000EC52FE4F80839091D3018091D20168C0A9
:1008C000E091D30181E08E0F8093D30183B1F0E0FA
:1008D000EC52FE4F80838091F901811166C081E066
:1008E0008093F80184EA5BC083E08093FB0110925F
:1008F0008F01D1CF80918F01803208F04CC0E09100
:100900008F0181E08E0F80938F0183B1F0E0E0577B
:10091000FE4F8083C0CF0E94BE0380918F01803242
:1009200030F4E0918F01F0E0E057FE4F10826091CB
:100930008F0170E0E091F401F091F50180E991E020
:10094000099510928F0133C084E08093FB011092CF
:10095000B1011092B001E091F601F091F701099513
:100960008091B001811105C081E08093B0011092A7
:10097000B201E091B10181E08E0F8093B101F0E00E
:10098000EE54FE4F808183B99091B1018091B00106
:10099000981708F480CF85E886BF09C085EC86BF2C
:1009A0001092FB0104C010928E010E94B603FF91C9
:1009B000EF91BF91AF919F918F917F916F915F91D7
:1009C0004F913F912F910F900FBE0F901F90189550
:1009D0008F929F92AF92BF92CF92DF92EF92FF924F
:1009E0000F931F93CF93DF9390E0FC01EC5AFF4FDE
:1009F000A491FC01E458FF4F8491662311F0BA2FB3
:100A000001C0B0E0BA01A90134E0440F551F661FD0
:100A1000771F3A95D1F78A019B0146E036952795D5
:100A2000179507954A95D1F790E0880F991F8C5537
:100A30009F4F480159014FEF841A940AA40AB40A3F
:100A4000C12CD12C7601FC01C591D49168816A2317
:100A50006B131AC05FEFC51AD50AE50AF50AC81468
:100A6000D904EA04FB0479F746C0460157016FEF49
:100A7000861A960AA60AB60AC016D106E206F30638
:100A800009F439C075016401FC01C591D4916881F4
:100A90006A236B13EACFB901A8014C195D096E09ED
:100AA0007F096A017B0120E030E0A901FC01C591CA
:100AB000D49168816A236B130AC02C153D054E053D
:100AC0005F05C9F02F5F3F4F4F4F5F4FEFCFA5E15D
:100AD000B0E00E944B2DDC01CB01805C9F4FAF4FFB
:100AE000BF4FBC01CD0124E096958795779567951A
:100AF0002A95D1F703C060E070E0CB01DF91CF9180
:100B00001F910F91FF90EF90DF90CF90BF90AF902B
:100B10009F908F90089580EC87B980E886B986B160
:100B2000876086B9369A3699FECF84B185B108952B
:100B300097B1907E97B997B180958770982B97B9A8
:100B4000369A3699FECF24B185B190E0982F882748
:100B5000820F911D0895CF92DF92EF92FF920F9333
:100B60001F93CF93DF93F82ED62FE42E07E010E0EB
:100B7000C0E087E0C82ED12C61E08D2F0E94CB0110
:100B80008F2DE1100AC00E94E8019601201B310B55
:100B900001C0880F2A95EAF707C00E94E801002EDD
:100BA00001C0880F0A94EAF7C82B60E08D2F0E94DD
:100BB000CB010150110900F78C2FDF91CF911F91CC
:100BC0000F91FF90EF90DF90CF900895BF92CF925A
:100BD000DF92EF92FF920F931F93CF93DF93C82E74
:100BE000D62EB42EC7E0D0E0022F10E087E0E82E2A
:100BF000F12CB11005C0C7018C1B9D0B980102C0E0
:100C000098018C2F02C0359527958A95E2F7B90196
:100C1000617077278C2D0E94CB0161E08D2D0E94A1
:100C2000CB0160E08D2D0E94CB01219710F7DF9161
:100C3000CF911F910F91FF90EF90DF90CF90BF90D9
:100C40000895BC01909379028093780208980998DE
:100C500080E89EE30E94152D862F603138F07727BB
:100C6000CB01409797FD01969595879580B911B86E
:100C700084EC86BF85B3836085BB089584E986BF15
:100C800008958FEF9FEF06B607FC02C00197D9F7D2
:100C900081B1887F0895846886BF0C944106AF9225
:100CA000BF92CF92DF92EF92FF920F931F93CF9359
:100CB000DF93C62F662351F0613019F0E12CF12C3F
:100CC00009C068E4E62E70E4F72E04C040E2E42E8A
:100CD00058E1F52E04E110E094EAD92E982F9160A6
:100CE000C92ED82FDE7F24E8B22E34E9A32ED6BE3B
:100CF0000E944106883021F0803111F084E815C04F
:100D0000C11102C0D3B903C0C13009F4C3B8B6BE23
:100D10000E9441068F1581F08E1104C00150110907
:100D2000A6BE05C0883319F084E986BF03C010163B
:100D30001106ECF280E001C081E0DF91CF911F91BC
:100D40000F91FF90EF90DF90CF90BF90AF900895FC
:100D500083B984E886BF0E944106883231F091E071
:100D6000803309F090E0892F01C081E081700895FF
:100D7000CF93DF93EC01611102C080E401C080E0F9
:100D80000E944B0693B19883982F977F81E090350E
:100D900009F080E0DF91CF9108950F931F93CF93D7
:100DA000DF9314161506F4F461157105D9F08A0164
:100DB000EB0160E00E944F06811102C080E013C089
:100DC0000C0F1D1F89910E94A806811105C091B1C9
:100DD000987F983321F4F2CFC017D10799F794E99F
:100DE00096BF01C081E0DF91CF911F910F910895CF
:100DF000AF92BF92CF92DF92EF92FF921F93CF9369
:100E0000DF93442389F16115710571F1C42F6B01E2
:100E100061E00E944F06182F81111BC018C08FEF90
:100E2000E81AF80AEC16FD06E4F461E0EA14FB04A3
:100E300009F060E0C6018E0D9F1D0E94B806811169
:100E4000EECF81B1887F883311F084E986BF10E04E
:100E50000CC0E12CF12CD0E05E0181E0A81AB108B1
:100E6000E1CF84E986BF01C011E0812FDF91CF91EE
:100E70001F91FF90EF90DF90CF90BF90AF900895BB
:100E8000CF93DF9300D0CDB7DEB769834A8342E0CA
:100E900050E0BE016F5F7F4F0E94CD060F900F9014
:100EA000DF91CF910895CF93DF93C82FD62F60E0C5
:100EB0000E944F06811102C080E014C08D2F0E9455
:100EC000A8068823C9F361E08C2F0E944F0688236F
:100ED00099F361E080E090E00E94B806882361F316
:100EE00094E996BFDF91CF910895FF920F931F93DE
:100EF000CF93DF93C82FF62E8A01D22F60E00E9495
:100F00004F06882379F08F2D0E94A806882351F080
:100F10004D2FB8018C2FDF91CF911F910F91FF9032
:100F20000C94F80680E0DF91CF911F910F91FF9014
:100F3000089588EF089581E0089588EF089560E0AE
:100F40000E944F0694E996BF0895862F0E94820260
:100F500081E090E00895FC01138212822CE830E0D9
:100F6000318320830895DB01CA0180589B47A14E3D
:100F7000BF4F23E0880F991FAA1FBB1F2A95D1F7E7
:100F80009A01AB0164E0220F331F441F551F6A957D
:100F9000D1F7BC01CD010E94292DC90101970C9404
:100FA000550208950C94CE2F0C94CE2F0C946330E0
:100FB0000C946330FC0181E090E02081222311F049
:100FC00080E090E0089521E0FC01208308950895D9
:100FD0000895FC01808191810C946330CF93DF935D
:100FE000EC0188819981009711F00E946330198289
:100FF00018821D821C821B821A82DF91CF91089574
:101000000F931F93CF93DF93EC018B016F5F7F4FA3
:10101000888199810E94FB30009731F09983888301
:101020001B830A8381E001C080E0DF91CF911F9193
:101030000F910895CF93DF93EC0188819981892BDB
:1010400029F08A819B818617970760F4CE010E9460
:101050000008882341F08C819D81892B19F4E88157
:10106000F981108281E0DF91CF910895EF92FF9294
:101070000F931F93CF93DF93EC017B018A01BA0199
:101080000E941A08811104C0CE010E94EE0707C019
:101090001D830C83B701888199810E944832CE015B
:1010A000DF91CF911F910F91FF90EF900895FC0178
:1010B00011821082138212821582148261157105C9
:1010C00051F0FB0101900020E9F73197AF01461B79
:1010D000570B0C9436080895EF92FF920F931F93CD
:1010E000CF93DF93EC017B018A01BA010E941A08B9
:1010F000811104C0CE010E94EE0707C01D830C833E
:10110000B701888199810E940932CE01DF91CF9188
:101110001F910F91FF90EF900895CF93DF93EC0113
:10112000FB018617970761F0608171816115710578
:1011300029F0448155810E94360802C00E94EE07C2
:10114000CE01DF91CF910895FC01118210821382AC
:101150001282158214820C948D08CF93DF93EC01D8
:101160006115710559F0FB0101900020E9F73197F5
:10117000AF01461B570B0E94360802C00E94EE07C3
:10118000CE01DF91CF910895CF93DF9300D0CDB7FB
:10119000DEB7FC0111821082138212821582148242
:1011A00069831A82BE016F5F7F4F0E94AD080F9066
:1011B0000F90DF91CF9108950F931F93CF93DF93FB
:1011C000CDB7DEB729970FB6F894DEBF0FBECDBFFF
:1011D0008C01862FF80111821082138212821582EF
:1011E000148250E0BE016F5F7F4F90E00E94033396
:1011F000BE016F5F7F4FC8010E94AD0829960FB6F0
:10120000F894DEBF0FBECDBFDF91CF911F910F913C
:1012100008950F931F93CF93DF93CDB7DEB76297F7
:101220000FB6F894DEBF0FBECDBF8C01CB01F80125
:1012300011821082138212821582148250E0BE0144
:101240006F5F7F4F0E949132BE016F5F7F4FC80179
:101250000E94AD0862960FB6F894DEBF0FBECDBFF8
:10126000DF91CF911F910F9108950F931F93CF930B
:10127000DF93CDB7DEB761970FB6F894DEBF0FBE30
:10128000CDBF8C01CB01F801118210821382128232
:101290001582148250E0BE016F5F7F4F0E940333BE
:1012A000BE016F5F7F4FC8010E94AD0861960FB607
:1012B000F894DEBF0FBECDBFDF91CF911F910F918C
:1012C00008950F931F93CF93DF93CDB7DEB7A29707
:1012D0000FB6F894DEBF0FBECDBF8C01CB01BA01B3
:1012E000F80111821082138212821582148230E07A
:1012F000AE014F5F5F4F0E94A732BE016F5F7F4F0D
:10130000C8010E94AD08A2960FB6F894DEBF0FBECA
:10131000CDBFDF91CF911F910F9108950F931F9330
:10132000CF93DF93CDB7DEB7A1970FB6F894DEBFAA
:101330000FBECDBF8C01CB01BA01F8011182108222
:10134000138212821582148230E0AE014F5F5F4F2C
:101350000E94D632BE016F5F7F4FC8010E94AD0868
:10136000A1960FB6F894DEBF0FBECDBFDF91CF912F
:101370001F910F910895EF92FF920F931F93CF93B8
:10138000DF93CDB7DEB7A1970FB6F894DEBF0FBEDF
:10139000CDBF7C01CB01BA01F7011182108213820B
:1013A00012821582148242E0420F8E010F5F1F4F9E
:1013B0000E94AE2FBC01C7010E94AD08A1960FB6D6
:1013C000F894DEBF0FBECDBFDF91CF911F910F917B
:1013D000FF90EF900895EF92FF920F931F93CF939A
:1013E000DF93CDB7DEB7A1970FB6F894DEBF0FBE7F
:1013F000CDBF7C01CB01BA01F701118210821382AB
:1014000012821582148242E0420F8E010F5F1F4F3D
:101410000E94AE2FBC01C7010E94AD08A1960FB675
:10142000F894DEBF0FBECDBFDF91CF911F910F911A
:10143000FF90EF9008950F931F93CF93DF9300D009
:10144000CDB7DEB78C016115710561F0CB01698301
:101450007A830E941032AC0169817A81C8010E94AE
:101460006C0802C00E94EE07C8010F900F90DF9138
:10147000CF911F910F910895FC0111821082138268
:101480001282158214820C941B0AEF92FF920F9322
:101490001F93CF93DF93FC01248135816115710582
:1014A00011F480E019C041155105A9F07B01EC0150
:1014B0008A01020F131FB8010E941A08882389F3BA
:1014C000288139818C819D81B701820F931F0E94F1
:1014D00048321D830C8381E0DF91CF911F910F91E2
:1014E000FF90EF900895FB014481558160817181E7
:1014F0000C94450A6115710551F0FB010190002023
:10150000E9F73197AF01461B570B0C94450A80E071
:101510000895CF93DF9300D0CDB7DEB769831A82E9
:1015200041E050E0BE016F5F7F4F0E94450A0F907F
:101530000F90DF91CF910895EF92FF920F931F9339
:10154000CF93DF9300D000D0CDB7DEB77C01862FDC
:101550004AE050E08E010F5F1F4FB80190E00E94FB
:101560009132F80101900020E9F73197AF01401B5B
:10157000510BB801C7010E94450A0F900F900F90C0
:101580000F90DF91CF911F910F91FF90EF900895F1
:10159000EF92FF920F931F93CF93DF93CDB7DEB7F8
:1015A00028970FB6F894DEBF0FBECDBF7C01CB01EC
:1015B0004AE050E08E010F5F1F4FB8010E94913248
:1015C000F80101900020E9F73197AF01401B510B62
:1015D000B801C7010E94450A28960FB6F894DEBFED
:1015E0000FBECDBFDF91CF911F910F91FF90EF9074
:1015F0000895EF92FF920F931F93CF93DF93CDB790
:10160000DEB727970FB6F894DEBF0FBECDBF7C01C3
:10161000CB014AE050E08E010F5F1F4FB8010E94DE
:101620000333F80101900020E9F73197AF01401B27
:10163000510BB801C7010E94450A27960FB6F894CE
:10164000DEBF0FBECDBFDF91CF911F910F91FF90F5
:10165000EF900895EF92FF920F931F93CF93DF9334
:10166000CDB7DEB72E970FB6F894DEBF0FBECDBF55
:101670007C01CB01BA012AE030E08E010F5F1F4FE1
:10168000A8010E94A732F80101900020E9F73197E4
:10169000AF01401B510BB801C7010E94450A2E96AD
:1016A0000FB6F894DEBF0FBECDBFDF91CF911F9173
:1016B0000F91FF90EF900895EF92FF920F931F9379
:1016C000CF93DF93CDB7DEB72D970FB6F894DEBF7B
:1016D0000FBECDBF7C01CB01BA012AE030E08E0104
:1016E0000F5F1F4FA8010E94D632F8010190002021
:1016F000E9F73197AF01401B510BB801C7010E94B8
:10170000450A2D960FB6F894DEBF0FBECDBFDF9110
:10171000CF911F910F91FF90EF900895EF92FF925C
:101720000F931F93CF93DF93CDB7DEB764970FB6B8
:10173000F894DEBF0FBECDBF7C01CB01BA018E0194
:101740000F5F1F4F22E044E00E94AE2FBC01FC015E
:1017500001900020E9F73197AF01481B590BC701F1
:101760000E94450A64960FB6F894DEBF0FBECDBF47
:10177000DF91CF911F910F91FF90EF900895EF921D
:10178000FF920F931F93CF93DF93CDB7DEB764978C
:101790000FB6F894DEBF0FBECDBF7C01CB01BA01FE
:1017A0008E010F5F1F4F22E044E00E94AE2FBC016C
:1017B000FC0101900020E9F73197AF01481B590B5C
:1017C000C7010E94450A64960FB6F894DEBF0FBEAB
:1017D000CDBFDF91CF911F910F91FF90EF900895B2
:1017E000EF92FF920F931F93CF93DF9361157105D3
:1017F00011F480E01EC08B01EC01CB010E9410327D
:101800000097B1F02C813D817C01E20EF31EB701FF
:10181000CE010E941A08882361F3288139818C81C6
:101820009D81B801820F931F0E940932FD82EC82D4
:1018300081E0DF91CF911F910F91FF90EF9008957C
:10184000CF93DF93EC01FB0144815581608171816D
:101850000E94450A811103C0CE010E94EE07CE010D
:10186000DF91CF910895CF93DF93EC01611571055E
:1018700061F0FB0101900020E9F73197AF01461BB1
:10188000570B0E94450A811103C0CE010E94EE074A
:10189000CE01DF91CF910895CF93DF93EC010E94A9
:1018A000890A811103C0CE010E94EE07CE01DF91AB
:1018B000CF910895CF93DF93EC010E949C0A811190
:1018C00003C0CE010E94EE07CE01DF91CF910895B3
:1018D000CF93DF93EC010E94C80A811103C0CE01AF
:1018E0000E94EE07CE01DF91CF910895CF93DF9351
:1018F000EC010E94F90A811103C0CE010E94EE079B
:10190000CE01DF91CF910895CF93DF93EC010E9438
:101910002A0B811103C0CE010E94EE07CE01DF9198
:10192000CF910895CF93DF93EC010E945C0B81115E
:1019300003C0CE010E94EE07CE01DF91CF91089542
:10194000CF93DF93EC010E948E0B811103C0CE0177
:101950000E94EE07CE01DF91CF910895CF93DF93E0
:10196000EC010E94BF0B811103C0CE010E94EE0763
:10197000CE01DF91CF910895CF93DF93EC010E94C8
:10198000F00B811103C0CE010E94EE07CE01DF9162
:10199000CF910895CF93DF93DC01ED91FC91EB01A2
:1019A000A881B981309711F01097C9F4109759F0B8
:1019B000EB012C813D81232B31F08C9190E09195AE
:1019C0008195910914C0309781F0DC0114968D91B6
:1019D0009C911597892B49F0808190E008C0BD014A
:1019E000CF01DF91CF910C943F3280E090E0DF9106
:1019F000CF910895FC0144815581FB0124813581FB
:101A00004217530729F40E94CA0C21E0892B09F0E0
:101A100020E0822F0895FC0124813581232B31F4AD
:101A200021E061157105A1F0FB0108C0FC01808176
:101A300091816115710531F421E0FC0180818823D9
:101A400039F005C00E943F3221E0892B09F020E0E7
:101A5000822F08950E94CA0C892F881F8827881F0B
:101A600008950E94CA0C21E0181619060CF020E017
:101A7000822F08950E94CA0C21E0181619060CF452
:101A800020E0822F08950E94CA0C892F8095881F1C
:101A90008827881F0895EF92FF920F931F93CF938B
:101AA000DF938617970709F1FC0124813581FB013B
:101AB0004481558124173507D1F4232BB1F0DC0183
:101AC000CD91DC91008111818991882371F090E0A2
:101AD0000E94F9317C01F80181918F0190E00E9410
:101AE000F931E816F90681F302C081E001C080E017
:101AF000DF91CF911F910F91FF90EF900895DB013F
:101B00001496ED91FC911597DC0114962D913C9162
:101B100015972E1B3F0B24173507A0F02D913C91F4
:101B20002115310579F0DB016D917C91611571050D
:101B300049F0CA01AF01820F931F0E944F3221E08A
:101B4000892B09F020E0822F0895FC014481558102
:101B5000FB01248135814217530720F040E050E01B
:101B60000C947F0D80E00895FC0124813581FB01F8
:101B70004481558124173507A0F0FC0180819181B3
:101B8000009779F0FB01608171816115710549F061
:101B9000241B350B820F931F0E943F3221E0892BBB
:101BA00009F020E0822F0895FC012481358162171D
:101BB000730730F480819181FC01E60FF71F4083A9
:101BC0000895FC01248135816217730720F4808118
:101BD0009181009729F41092FC018CEF91E0089517
:101BE000860F971F0895FC012481358162177307C2
:101BF00048F480819181009729F0FC01E60FF71FDE
:101C00008081089580E008950C94F30D0F931F9345
:101C1000CF93DF934115510519F16115710501F15C
:101C2000DC011496ED91FC9115972E173F0718F0E3
:101C3000FB01108215C0E21BF30BEA012197EC17A0
:101C4000FD0708F4EF018B01FC0160817181620FD7
:101C5000731FAE01C8010E945D32C00FD11F1882F0
:101C6000DF91CF911F910F910895CF93DF93FC01E6
:101C7000248135814217530768F4C081D18170E017
:101C8000CE01840F951F0E943432009719F08C1BEF
:101C90009D0B02C08FEF9FEFDF91CF91089540E041
:101CA00050E00C94350ECF93DF93FC0124813581F5
:101CB0004217530780F4FB01DC01CD91DC91608178
:101CC0007181CE01840F951F0E947732009719F021
:101CD0008C1B9D0B02C08FEF9FEFDF91CF9108957A
:101CE00040E050E00C94530EDF92EF92FF920F937E
:101CF0001F93CF93DF93DC0114962D913C911597A0
:101D00004217530718F08FEF9FEF1BC08C01EA01B9
:101D10002196DC01ED91FC911197EC0FFD1FD08015
:101D20001082ED90FC9070E0C7010E946C32CE0DE5
:101D3000DF1DD882009739F3F80120813181821BA1
:101D4000930BDF91CF911F910F91FF90EF90DF9058
:101D50000895FC0144815581415051090C94740E41
:101D6000AF92BF92CF92DF92EF92FF920F931F93A9
:101D7000CF93DF937B018A01FB014481558141159B
:101D8000510561F1FC01248135812115310531F1C5
:101D90002417350718F10217130718F089010150AD
:101DA0001109FC01A080B180C501DFEFCFEF650113
:101DB000C00ED11EC816D906A0F0F701608171814E
:101DC0000E947732009769F09C012A193B0902179B
:101DD000130710F0D22FC32F0196ECCF8FEF9FEF98
:101DE00002C08D2F9C2FDF91CF911F910F91FF90FB
:101DF000EF90DF90CF90BF90AF900895FC014481A9
:101E00005581FB0124813581421B530B0C94B00E8C
:101E1000BF92CF92DF92EF92FF920F931F93CF93D7
:101E2000DF937C016B018A01E9012417350720F457
:101E3000812F8901C42FD82F63ED70E0C7010E9464
:101E40005708D60114968D919C911597801791078C
:101E5000D0F08C179D0708F4EC01D601ED91FC91B0
:101E60001197EC0FFD1FB08010824D915C91BA016B
:101E7000600F711FC7010E94AD08D601ED91FC9162
:101E8000EC0FFD1FB082C701DF91CF911F910F9121
:101E9000FF90EF90DF90CF90BF900895DC01ED911F
:101EA000FC91309729F40895861301C04083319640
:101EB00080818111F9CF08952F923F924F925F92C6
:101EC0006F927F928F929F92AF92BF92CF92DF924A
:101ED000EF92FF920F931F93CF93DF93FC01448007
:101EE00055804114510409F4D2C0FB01648075800F
:101EF0006114710409F4CBC07A016B018C01FA0101
:101F0000A480B580A618B708FC01C081D181A114B6
:101F1000B104C1F4F60160817181CE010E94773273
:101F2000EC01892B09F4B3C0F70160817181448110
:101F30005581CE010E941932F70184819581C80F25
:101F4000D91FE8CFB7FE02C04E0105C0FB012080BB
:101F50003180420143C0F60160817181C4010E9459
:101F600077322C01892B21F1320168187908A301FD
:101F7000B401CE010E941932C60DD71DF701608150
:101F8000718144815581CE010E941932F70184810B
:101F90009581C80FD91FF60184809580840C951C0B
:101FA000F801848195818A0D9B1D95838483D3CF0D
:101FB000B401CE01DF91CF911F910F91FF90EF906F
:101FC000DF90CF90BF90AF909F908F907F906F9059
:101FD0005F904F903F902F900C944832B101CE010A
:101FE0000E947732009731F0EC01C60DD71D8A0CA4
:101FF0009B1CF4CF8414950409F449C0F801828134
:1020000093818815990530F4B401C8010E94000835
:102010008823E9F1F801448155814150510957FD68
:1020200036C0B601C8010E94B00EEC0197FD2FC06A
:10203000F80180819181F601248135812C0F3D1FAB
:10204000820F931FF80144815581421B530BBC0141
:102050008A0D9B1D0E942232F801848195818A0D90
:102060009B1D9583848320813181F901E80FF91F3D
:102070001082F80180819181F70160817181448132
:1020800055818C0F9D1F0E941932AE01C6CFDF9182
:10209000CF911F910F91FF90EF90DF90CF90BF9065
:1020A000AF909F908F907F906F905F904F903F90F8
:1020B0002F900895CF93DF93EC01CB019A014C81CF
:1020C0005D816417750718F52115310501F1620F5F
:1020D000731F4617570718F49A01281B390BE8811C
:1020E000F981421B530B5D834C83481B590B280F0E
:1020F000391FBF01620F731F8E0F9F1F0E945D3239
:10210000E881F9818C819D81E80FF91F1082DF91B0
:10211000CF910895FC01448155816417750720F41F
:10212000461B570B0C945A100895CF93DF93FC0174
:10213000C081D181209741F08881882329F090E0E7
:102140000E94F9318993F8CFDF91CF910895CF9311
:10215000DF93FC01C081D181209741F088818823E1
:1021600029F090E00E9401328993F8CFDF91CF915E
:102170000895AF92BF92CF92DF92EF92FF920F93AA
:102180001F93CF93DF93DC01CD90DC901197C114A6
:10219000D104F1F11496CD91DC9115972097C1F1FE
:1021A0008C0156017501BFEFAB1ABB0AF7018081A4
:1021B00090E00E94F031892BA9F72197CC0DDD1D0D
:1021C000888190E00E94F031892B91F4AE014F5F3D
:1021D0005F4F4E195F09D80115965C934E93149783
:1021E000CE14DF0450F4B701C6010E94193205C0B5
:1021F000CE15DF0558F32197E3CFD801ED91FC917F
:10220000119714968D919C911597E80FF91F1082E4
:10221000DF91CF911F910F91FF90EF90DF90CF90C2
:10222000BF90AF900895FC0180819181009711F0DB
:102230000C94C93160E070E0CB010895FC0180810D
:102240009181009711F00C94C53160E070E0CB01F2
:1022500008950895FC0166830895CF93DF93EC0100
:10226000E881F981662351F08FEF808341E0698531
:102270008F8198850E94791541E008C0108240E066
:1022800069858F8198850E94791540E06A858F81E4
:1022900098850E9479158F819885DF91CF910C9454
:1022A000A315EF92FF920F931F93CF93DF93EC014F
:1022B000822F69874A8718870F83F982E88261E055
:1022C0000E948F0160E0CE010E942D111B821A82B4
:1022D0001D821C8285E08E83DF91CF911F910F912B
:1022E000FF90EF9008950F931F93CF93DF936115A5
:1022F000710539F460E0DF91CF911F910F910C943B
:102300002D118B01EC018F8198851616170634F478
:1023100040E069850E94791541E005C041E069858A
:102320000E94791540E06A858F8198850E94791511
:102330008F8198850E94A315B80117FF03C071957E
:1023400061957109E881F9816F3F710519F014F009
:102350006FEF70E06083DF91CF911F910F9108952F
:102360000F931F93CF93DF936115710539F460E0EC
:10237000DF91CF911F910F910C942D118B01EC01E6
:102380008F8198851616170634F440E069850E94FF
:10239000791541E005C041E069850E94791540E06A
:1023A0006A858F8198850E9479158F8198850E9412
:1023B000A315B80117FF03C0719561957109E881F4
:1023C000F9816F3F710519F014F06FEF70E06083D1
:1023D000DF91CF911F910F910895FC0122813381EC
:1023E0008481958128173907D1F0468150E0BC01DE
:1023F000640F751F261737071CF0758364830AC0A6
:10240000841B950B821793071CF09583848302C06D
:102410003583248364817581CF010C94B0110895B4
:102420000F931F93CF93DF93EC010E944D016887B8
:1024300079878A879B87E881F9810680F781E02D7B
:10244000CE01099597FF17C00E944D010885198597
:102450002A853B85DC01CB01801B910BA20BB30BC2
:102460000C811D812E813F8180179107A207B30740
:1024700010F38FEF9FEFDF91CF911F910F91089590
:102480000F931F93CF93DF93EC010E944D01688758
:1024900079878A879B87E881F9810084F185E02D1F
:1024A000CE01099597FF17C00E944D010885198537
:1024B0002A853B85DC01CB01801B910BA20BB30B62
:1024C0000C811D812E813F8180179107A207B307E0
:1024D00010F38FEF9FEFDF91CF911F910F91089530
:1024E0000F931F93CF93DF93EC01162F042FCE0190
:1024F0000E9440129C0197FD0BC08D32910541F066
:10250000C0970A9728F0002329F02E32310511F4E4
:10251000C9011BC01130B9F0123069F42D303105FA
:1025200051F034F4295031092230310520F00BC02C
:102530002032310541F4E881F9810680F781E02DF0
:10254000CE010995D4CF8FEF9FEFDF91CF911F91EF
:102550000F910895FC014483558366837783089522
:102560008F929F92AF92BF92CF92DF92FF920F9382
:102570001F93CF93DF9300D000D0CDB7DEB78C018F
:10258000B42E40E00E947012FC0197FD4BC020E089
:1025900030E0A901F12CCB2CD12CEC15FD05F1F08C
:1025A000ED32F105C9F0CF01C0970A97B8F4AAE05F
:1025B000B0E00E944B2D4F01FF0FAA08BB08DC01C1
:1025C000CB01880D991DAA1DBB1D9C01AD01205397
:1025D00031094109510902C0FF24F394D801ED915A
:1025E000FC910680F781E02DC80129833A834B8353
:1025F0005C830995C8010E944012FC01C0972981A3
:102600003A814B815C810A9740F2EC15FD0529F275
:10261000FF2061F066277727CB01621B730B840BC9
:10262000950B06C060E070E0CB0102C0CA01B901A1
:102630000F900F900F900F90DF91CF911F910F91FE
:10264000FF90DF90CF90BF90AF909F908F900895B4
:102650004F925F926F927F92AF92BF92CF92DF9232
:10266000EF92FF920F931F93CF93DF935C01042FA0
:1026700041E00E947012FC0197FD6CC0412C512C6E
:1026800080E8682E8FE3782EC12CD12C7601C0E033
:10269000D0E010E0E017F10769F1ED32F10539F112
:1026A000EE32F10531F1CF01C0970A9718F5AAE093
:1026B000B0E0A70196010E944B2D6F01FF0FEE08BD
:1026C000FF08C60ED71EE81EF91E80E3C81AD108FF
:1026D000E108F108CC2371F02DEC3CEC4CEC5DE30F
:1026E000C301B2010E943C2F2B013C0103C0D1E089
:1026F00001C0C1E0D501ED91FC910680F781E02D8C
:10270000C5010995C5010E944012FC01C0970A97B6
:1027100008F2EE32F10519F4CC2309F4BBCFE0172F
:10272000F10709F4B7CFC701B601DD2339F0909561
:102730008095709561957F4F8F4F9F4FCC2339F0D7
:102740000E94872EA30192010E943C2F06C00E9486
:10275000872E03C060E070E0CB01DF91CF911F9125
:102760000F91FF90EF90DF90CF90BF90AF907F9050
:102770006F905F904F900895CF92DF92EF92FF920B
:102780000F931F93CF93DF936C017A018B01C0E00D
:10279000D0E0CE15DF0561F0C6010E94101297FF50
:1027A00002C07E0105C0F80181938F012196F1CF0F
:1027B000C701DF91CF911F910F91FF90EF90DF90B4
:1027C000CF900895AF92BF92CF92DF92EF92FF9297
:1027D0000F931F93CF93DF9321153105C9F0790132
:1027E0005C016A01C0E0D0E0062F10E0C5010E9444
:1027F000101297FF02C0CE010DC080179107D9F3C8
:10280000F60181936F012196CE15DF0579F7F3CF9D
:1028100080E090E0DF91CF911F910F91FF90EF90BA
:10282000DF90CF90BF90AF9008950F931F93CF93F9
:10283000DF93EC018B0163ED70E00E945708C80143
:102840000E94101297FD05C0682FCE010E94890AD0
:10285000F6CFCE01DF91CF911F910F910895EF92A6
:10286000FF920F931F93CF93DF93EC017B01042F13
:1028700063ED70E00E945708C7010E94101210E03B
:1028800097FD0BC08017910741F0682FCE010E9481
:10289000890AC7010E941012F3CFCE01DF91CF91B8
:1028A0001F910F91FF90EF9008954F925F926F925A
:1028B0007F928F929F92AF92BF92CF92DF92EF92D0
:1028C000FF920F931F93CF93DF938C01EB0186E070
:1028D000849F4001859F900C1124860E971EFB015A
:1028E000E815F905F8F482819381892B11F1369668
:1028F000F7CF6081718144815581DB01A40FB51F41
:102900002C9130E08217930711F54F5F5F4F55838D
:102910004483228133814217530759F03696E815D4
:10292000F90538F3C8010E94101297FD44C0FE015A
:10293000F6CFEC1BFD0BF595E7952BEA3AEAE29F03
:10294000C001E39F900DF29F900D112436C04115F8
:10295000510521F3C480D58096012150310935837A
:102960002483DB01A20FB31FAC91B0E08A179B0751
:10297000F9F421153105C9F05B017A01E21AF30A75
:10298000E60EF71E412C512CD5016D905D01D7014B
:102990007D907D01671006C0BFEF4B1A5B0A42169F
:1029A000530690F342165306A9F6D582C482B6CFD9
:1029B000232B81F6B3CF8FEF9FEFDF91CF911F9144
:1029C0000F91FF90EF90DF90CF90BF90AF909F90CE
:1029D0008F907F906F905F904F900895CF93DF938B
:1029E00000D000D000D0CDB7DEB7FE01319626E092
:1029F000DF011D922A95E9F77A8369835C834B8313
:102A000041E050E0BF010E94551421E0892B09F0FC
:102A100020E0822F26960FB6F894DEBF0FBECDBF02
:102A2000DF91CF9108950C94EE14FB0101900020EA
:102A3000E9F73197AF01461B570B0C94EE14FF9248
:102A40000F931F93CF93DF93CDB7DEB72C970FB6BD
:102A5000F894DEBF0FBECDBF2115310521F40E94D1
:102A6000EE14282F19C0FE013196ACE0FA2EDF01DA
:102A70001D92FA94E9F77A8369835C834B833887E4
:102A80002F831A87098742E050E0BF010E94551446
:102A900021E0892B09F020E0822F2C960FB6F894C4
:102AA000DEBF0FBECDBFDF91CF911F910F91FF9081
:102AB00008950F931F939A01FA0101900020E9F7FE
:102AC00031978F01041B150BFB0101900020E9F7E2
:102AD0003197AF01461B570B0E941F151F910F9195
:102AE0000895FC01108221E021830895FC01628396
:102AF0000895FC015081442349F081E090E001C039
:102B0000880F6A95EAF7852B808309C021E030E0C1
:102B100001C0220F6A95EAF7209525232083808142
:102B2000581711F081E081830895CF93DF93EC0172
:102B30008A8121E0AE0160E08F5F0E947507888185
:102B4000DF91CF910895CF93DF93FC012181222360
:102B500041F0EC0141E050E0BC0182810E94CD06D1
:102B60001982DF91CF910895CF92DF92EF92FF9279
:102B70000F931F93CF93DF936C01EB017B01E40E66
:102B8000F51E00E010E0CE15DF0561F06991D60179
:102B9000ED91FC910190F081E02DC6010995080F9F
:102BA000191FF1CFC801DF91CF911F910F91FF90B5
:102BB000EF90DF90CF900895EF92FF920F931F93C5
:102BC000CF93DF937C01FB0100E010E06491EF0103
:102BD0002196662361F0D701ED91FC910190F0817F
:102BE000E02DC7010995080F191FFE01EFCFC8019D
:102BF000DF91CF911F910F91FF90EF900895DC012D
:102C0000ED91FC91DB0114964D915C9115976D91BE
:102C10007C910280F381E02D09940C94EA2CDC0174
:102C2000ED91FC910190F081E02D0994DB01ED9193
:102C3000FC9111970190F081E02DBC01CD01099428
:102C40000F931F93CF93DF93EC016DE00E940F165B
:102C50008C016AE0CE010E940F16800F911FDF9158
:102C6000CF911F910F9108950F931F93CF93DF93EF
:102C7000EC010E94DC158C01CE010E942016800F11
:102C8000911FDF91CF911F910F9108950F931F9383
:102C9000CF93DF93EC010E94FF158C01CE010E94BF
:102CA0002016800F911FDF91CF911F910F910895F2
:102CB0000F931F93CF93DF93EC010E94EA2C8C01BA
:102CC000CE010E942016800F911FDF91CF911F919E
:102CD0000F9108950F931F93CF93DF93EC010E9400
:102CE0000F168C01CE010E942016800F911FDF91DC
:102CF000CF911F910F9108950F931F93CF93DF935F
:102D0000EC010E9416168C01CE010E942016800F45
:102D1000911FDF91CF911F910F9108958F929F92F4
:102D2000AF92BF92CF92DF92EF92FF920F931F93D9
:102D3000CF93DF93CDB7DEB7A1970FB6F894DEBF80
:102D40000FBECDBF6C01142FE52FCB01022F19A2AE
:102D5000223008F40AE07E0121E2E20EF11C802E0E
:102D6000912CA12CB12C612F7E2FA50194010E94E2
:102D7000292D029F1019112481E0E81AF1081A3058
:102D800010F4105D01C0195CF7011083122FE32FBE
:102D9000CA01232B242B252B31F7B701C6010E9432
:102DA000EA2CA1960FB6F894DEBF0FBECDBFDF911F
:102DB000CF911F910F91FF90EF90DF90CF90BF9038
:102DC000AF909F908F900895CF92DF92EF92FF92F5
:102DD0000F931F93CF93DF93EC016A017B012115C1
:102DE000310579F4E881F9810190F081E02D642FBB
:102DF000DF91CF911F910F91FF90EF90DF90CF90D7
:102E000009942A303105E9F477FF1AC06DE20E9477
:102E10000F168C0144275527BA014C195D096E091C
:102E20007F092AE0CE010E948E16800F911FDF914C
:102E3000CF911F910F91FF90EF90DF90CF90089569
:102E40002AE0B701A601CE01DF91CF911F910F912A
:102E5000FF90EF90DF90CF900C948E169A01AB010B
:102E6000770F660B770B0C94E4160F931F93CF9399
:102E7000DF93EC019A01AB01770F660B770B0E9491
:102E8000E4168C01CE010E942016800F911FDF9165
:102E9000CF911F910F9108950F931F93CF93DF93BD
:102EA000EC010E94E4168C01CE010E942016800FD6
:102EB000911FDF91CF911F910F9108952115310539
:102EC00041F4DC01ED91FC910190F081E02D642F43
:102ED00009940C948E169A01462F50E060E070E041
:102EE0000C945E170F931F93CF93DF93EC019A011D
:102EF000462F50E060E070E00E945E178C01CE012A
:102F00000E942016800F911FDF91CF911F910F918A
:102F100008959A01AB0160E070E00C945E170F9386
:102F20001F93CF93DF93EC019A01AB0160E070E057
:102F30000E945E178C01CE010E942016800F911F07
:102F4000DF91CF911F910F9108950F931F93CF930E
:102F5000DF93EC010E945E178C01CE010E942016C7
:102F6000800F911FDF91CF911F910F9108954F9284
:102F70005F926F927F928F929F92AF92BF92CF9209
:102F8000DF92EF92FF92CF93DF93EC016A017B0116
:102F9000B22E9A01AB01C701B6010E94A92F882366
:102FA00019F060E970E027C026013701E89477F84E
:102FB0002FEF3FEF4FE75FE7C301B2010E94A92F58
:102FC00081110DC02FEF3FEF4FE75FE7C301B20163
:102FD0000E94D82D18161CF464E970E00CC02FEF85
:102FE0003FEF4FE75FE4C701B6010E94372F181685
:102FF0009CF468E970E0CE01DF91CF91FF90EF90F3
:10300000DF90CF90BF90AF909F908F907F906F9008
:103010005F904F900C94EA2C2FEF3FEF4FE75FEC5F
:10302000C701B6010E94D82D87FDE3CF20E030E034
:10303000A901C701B6010E94D82D87FF0AC06DE221
:10304000CE010E940F164C01F7FAF094F7F8F094B5
:1030500002C0812C912CA12C60E070E080E09FE305
:10306000AB1441F020E030E040E251E40E94DD2D5D
:10307000A394F6CF9B01AC01C701B6010E946C2D51
:103080002B013C010E94562E6B017C010E94852E73
:103090009B01AC01C301B2010E946B2D2B013C01CD
:1030A0002AE0B701A601CE010E948E167C01E80C31
:1030B000F91CBB2039F062ED70E0CE010E94EA2CD1
:1030C000E80EF91EDB2CDD2039F120E030E040E293
:1030D00051E4C301B2010E943C2F2B013C010E942C
:1030E0004F2E4B01770FAA08BB082AE030E0B5014C
:1030F000A401CE010E94E416E80EF91EC501B40138
:103100000E94872E9B01AC01C301B2010E946B2D6E
:103110002B013C01DA94D7CFC701DF91CF91FF900B
:10312000EF90DF90CF90BF90AF909F908F907F9067
:103130006F905F904F9008950C94B7170F931F9363
:10314000CF93DF93EC010E94B7178C01CE010E9450
:103150002016800F911FDF91CF911F910F9108953D
:10316000FC0116820895FC011082118213821282E2
:10317000158281E086831482089580EC0E949F0767
:1031800091E0811101C090E0892F0895CF93DF93E2
:10319000EC011D8221E0AC0161E080EC0E9475072A
:1031A00081E08D83DF91CF910895CF93DF93FC0170
:1031B0002681222341F1EC018581811103C0CF01D9
:1031C0000E94C6180E949B07882321F00E949D0739
:1031D000883F11F0898118C0288130E01D828C81E0
:1031E000882371F08A819B81280F391F2F3F310579
:1031F0001CF02F5F310904C037FF02C021503F4F40
:10320000822F298301C080E0DF91CF9108951F9321
:10321000CF93DF93FC012681222309F1EC01138275
:103220001282148215E62A813B812115310579F439
:10323000CE010E94D51890E09B838A836AE070E0FB
:1032400080E090E00E945901115069F708C080E8C1
:1032500090E0821B930B9B838A8381E08C83DF91B8
:10326000CF911F910895FC01208130E0FB01318353
:103270002083FC01158281E00895FC018681089578
:10328000FC01108208950F931F93CF93DF9300D01A
:10329000CDB7DEB7FC012081222309F465C08C0183
:1032A0008781882311F0833089F40E949907883F31
:1032B00009F058C041E560E0F80181810E944007B3
:1032C00081E0F80187838381948150C00E949B072D
:1032D000882309F447C0AE014F5F5F4F60E0F801FB
:1032E00081810E9453070E949907F801883F59F78E
:1032F00089818F3F41F38781813079F422E0AE01EB
:103300004F5F5F4F62E081810E9475070E949907BD
:10331000883F41F582E0F8018783F8018781823098
:10332000C1F4898190E0982F88272A81820F911D0E
:1033300094838383009729F4858196819483838382
:1033400005C0019719F4F8011482138283E0F80193
:103350008783F8018781833029F41782C8010E948E
:10336000431904C0F801AFCF80E090E00F900F90B8
:10337000DF91CF911F910F910895AF92BF92CF929D
:10338000DF92EF92FF920F931F93CF93DF9300D0C2
:1033900000D0CDB7DEB7FC012081222361F17C0192
:1033A00080EA89838AEA8A8385EA8B83062F10E084
:1033B000C80180599F4F880F8C83CE0101966C0104
:1033C0005E0195E0A90EB11CF60141916F0160E02C
:1033D000F70181810E944007FFEF20E782E0F15072
:1033E00020408040E1F700C00000CA14DB0461F710
:1033F000F701128301830F900F900F900F90DF91D0
:10340000CF911F910F91FF90EF90DF90CF90BF90E1
:10341000AF900895FC0180810895462F603208F036
:103420004FE161E0FC0181810C944007FC019B01AC
:10343000CB016AE070E00E94152D76836583C90197
:103440006BE270E00E94152DAB01415051094F3FD6
:10345000510519F010F04FEF50E062E081810C94BB
:1034600040070F931F93CF93DF931F92CDB7DEB723
:103470008C0170E060597F4F660F771FF8017283EF
:1034800061831482138216821582178260E0C8015C
:103490000E940D1AFFEF21EE84E0F15020408040A1
:1034A000E1F700C000006FE37AE0C8010E94161A3D
:1034B0009FEFE1EEF4E09150E040F040E1F700C012
:1034C00000000E949907AE014F5F5F4F60E0F80176
:1034D00081810E9453070E949907883F61F4FFEFA2
:1034E00020E782E0F15020408040E1F700C000007A
:1034F00081E0F80180830F90DF91CF911F910F91B0
:103500000895FC019081992339F081810E949F07E1
:1035100091E0811101C090E0892F089541E060E0C1
:103520008091FD019091FE010E9479158091FD012D
:103530009091FE010E94A31585E08A95F1F70000A5
:1035400040E060E08091FD019091FE010E947915BC
:103550008091FD019091FE010C94A315CF93C82F8B
:103560008FE396E00197F1F700C000008091FD0124
:103570009091FE01662311F041E001C040E062E05D
:103580000E9479158091FD019091FE010E94A31582
:1035900040E064E08091FD019091FE010E94791568
:1035A00040E065E08091FD019091FE010E94791557
:1035B00040E066E08091FD019091FE010E94791546
:1035C00040E067E08091FD019091FE010E94791535
:1035D000C7FF08C041E064E08091FD019091FE01C9
:1035E0000E947915C6FF08C041E065E08091FD01A9
:1035F0009091FE010E947915C5FF08C041E066E088
:103600008091FD019091FE010E947915C4FF08C0D0
:1036100041E067E08091FD019091FE010E947915E3
:103620008091FD019091FE010E94A3150E948E1AC7
:1036300040E064E08091FD019091FE010E947915C7
:1036400040E065E08091FD019091FE010E947915B6
:1036500040E066E08091FD019091FE010E947915A5
:1036600040E067E08091FD019091FE010E94791594
:10367000C3FF08C041E064E08091FD019091FE012C
:103680000E947915C2FF08C041E065E08091FD010C
:103690009091FE010E947915C1FF08C041E066E0EB
:1036A0008091FD019091FE010E947915C0FF08C034
:1036B00041E067E08091FD019091FE010E94791543
:1036C0008091FD019091FE010E94A3150E948E1A27
:1036D00041E067E08091FD019091FE010E94791523
:1036E00041E066E08091FD019091FE010E94791514
:1036F00041E065E08091FD019091FE010E94791505
:1037000041E064E08091FD019091FE010E947915F5
:103710008091FD019091FE01CF910C94A31560E082
:103720000C94AE1A61E00C94AE1A611102C080587C
:1037300001C080540C948F1B81E00C948F1B82E09D
:103740000C948F1B61E00C94AE1ACF93DF93EC01C5
:103750008991882319F00E94A21BFACFDF91CF91A3
:103760000895CF93DF93FC018491EF012196882384
:1037700021F00E94A21BFE01F7CFDF91CF910895A7
:10378000CF93C82FCB017093FE016093FD0140E001
:1037900064E00E94791540E065E08091FD01909120
:1037A000FE010E94791540E066E08091FD01909154
:1037B000FE010E94791540E067E08091FD01909143
:1037C000FE010E94791540E062E08091FD01909138
:1037D000FE010E94791540E060E08091FD0190912A
:1037E000FE010E94791540E061E08091FD01909119
:1037F000FE010E9479158091FD019091FE010E94C9
:10380000A3158FEF99EF0197F1F700C0000041E099
:1038100066E08091FD019091FE010E94791541E0E2
:1038200067E08091FD019091FE010E9479158091E1
:10383000FD019091FE010E94A3150E948E1A8FE156
:103840009EE40197F1F700C000000E948E1A8FEFEE
:1038500090E00197F1F700C000000E948E1A8FEFF0
:1038600090E00197F1F700C0000040E067E0809130
:10387000FD019091FE010E9479158091FD019091CA
:10388000FE010E94A3150E948E1A8FEF90E001970F
:10389000F1F700C0000088E20E948F1B88E00E94C0
:1038A0008F1B0E949C1B86E00E948F1B8C2FCF9148
:1038B0000C948F1B90910102891302C0AF9804C031
:1038C000811102C09111AF9A90910202891302C036
:1038D000AE9804C0811102C09111AE9A909103027A
:1038E000891302C0AD9804C0811102C09111AD9A34
:1038F00090910402891302C0AC9804C0811102C0E7
:103900009111AC9A90910502891302C0949804C059
:10391000811102C09111949A90910602891302C0FC
:10392000959804C0811102C09111959A9091070257
:10393000891302C0969804C0811102C09111969A11
:1039400090910802891302C097980895811102C0CE
:103950009111979A0895809121028330B8F0809157
:10396000160290B323B3E82FF0E0E95EFD4F2295F5
:103970002F70907F922B90838F5F8B3018F4809301
:10398000160202C0109216021092210280912102AA
:103990008F5F80932102089580910F02882371F038
:1039A0002091150290E0820F911D20911302309119
:1039B00014028217930710F0C09A01C0C09880913A
:1039C0001002882371F02091150290E0820F911D62
:1039D00020911302309114028217930710F0C19ABC
:1039E00001C0C19880911102882371F020911502C5
:1039F00090E0820F911D20911302309114028217E2
:103A0000930710F0C29A01C0C298809112028823D5
:103A100071F02091150290E0820F911D2091130208
:103A2000309114028217930710F0C39A01C0C39813
:103A300080910D02882371F02091150290E0820F91
:103A4000911D20911302309114028217930710F0F8
:103A5000A89A01C0A89880910E02882371F0209145
:103A6000150290E0820F911D2091130230911402F3
:103A70008217930710F0979A01C0979880911302CC
:103A800090911402009731F48091150290E08150DA
:103A90009F4F01C0019790931402809313020895E1
:103AA0001F920F920FB60F9211242F933F934F93B3
:103AB0005F936F937F938F939F93AF93BF93EF9396
:103AC000FF9380910C02811104C00E94CC1C81E004
:103AD00003C0813021F482E080930C0216C0109262
:103AE0000C0280910A0290910B028830924021F4DE
:103AF00010920B0210920A0280910A0290910B021E
:103B0000019690930B0280930A020E943001FF916C
:103B1000EF91BF91AF919F918F917F916F915F9145
:103B20004F913F912F910F900FBE0F901F901895BE
:103B3000209109028091FF0190910002222359F007
:103B400020910902213011F40B9605C02091090241
:103B5000223049F446960E94ED11809109028F5F50
:103B600080930902089581960E94ED111092090236
:103B700008954F925F926F927F928F929F92AF9231
:103B8000BF92CF92DF92EF92FF920F931F93CF934A
:103B9000DF93EC018C016C018CE2C80ED11CC801D2
:103BA0000E942911055F1F4F0C151D05C1F7C801A3
:103BB0000E94AB07CE01C0960E94B0188E01095C2E
:103BC0001F4F6E01E7E5CE0ED11CC8010E944019BF
:103BD000085F1F4F0C151D05C1F7C6010E94711526
:103BE0005E01FAE5AF0EB11CC5010E9471150E947D
:103BF000880184E690E00E9421060E948B05FE0168
:103C0000E15AFF4F108262E087E10E948F0161E07C
:103C100087E10E94CB01FE01E35AFF4F108262E070
:103C200088E10E948F0161E088E10E94CB01FE01E2
:103C3000E25AFF4F108204E710E038E0932E900E16
:103C400062E0F80181918F010E948F019012F8CFFC
:103C500000E810E028E0922E900E60E0F8018191DB
:103C60008F010E948F019012F8CF62E084E00E94E1
:103C70008F0162E085E00E948F0162E086E00E9491
:103C80008F0162E087E00E948F0161E08FE00E9477
:103C90008F0161E080E10E948F0160E7C5010E9411
:103CA00076156EE7C6010E94761580E7482E80E003
:103CB000582E3E019FE0892E92E0992EC12CD12CE6
:103CC000F20121912F01F601E859FF4F740185019E
:103CD00041816081C3010E945111F2E0CF0ED11CDD
:103CE0008BE0680E711CEFEF8E1A9E0AF8E0CF167B
:103CF000D10431F710920D0210920E02E1E0F2E0D1
:103D000088E08E0F11928E13FDCFD0930002C093E6
:103D1000FF01DF91CF911F910F91FF90EF90DF9006
:103D2000CF90BF90AF909F908F907F906F905F905B
:103D30004F9008950F931F93CF93DF938C01C0E0B2
:103D4000D0E060E070E0C8018C0F9D1F0E947311ED
:103D50002B96CC32D105A9F7DF91CF911F910F910E
:103D6000089577FF03C07195619571096F3F7105E3
:103D700019F014F06FEF70E0609315020895FF9250
:103D80000F931F93CF93DF936230A8F48C01C62F5B
:103D9000D0E0FE01EA59FF4FF08061E08F2D0E94D4
:103DA0008F0161E08F2D0E94CB01C00FD11FC35A3C
:103DB000DF4F81E08883DF91CF911F910F91FF90BA
:103DC0000895EF92FF920F931F93CF93DF9362308A
:103DD000E8F4142F7C01C62FD0E0FE01EA59FF4F12
:103DE000008161E0802F0E948F01CE0DDF1DC35A3C
:103DF000DF4F91E09883612F6927802FDF91CF916A
:103E00001F910F91FF90EF900C94CB01DF91CF9118
:103E10001F910F91FF90EF900895442349F0623075
:103E200070F4E62FF0E0E35FFD4F8FEF808308959D
:103E3000623028F4E62FF0E0E35FFD4F1082089532
:103E4000623028F4E62FF0E0E35FFD4F40830895F1
:103E50001F93CF93DF93162FC42FD0E0FE01EC58B1
:103E6000FF4F61E080810E948F01612F70E080E050
:103E700090E00E94872E21EA30EA40E25EE30E9451
:103E80003C2F0E94562ECF5FDD4F693208F068E26A
:103E90006C5E6883DF91CF911F910895CF93DF937C
:103EA000C62FD0E0FE01EC58FF4F62E080810E94F7
:103EB0008F01CF5FDD4F1882DF91CF9108950F936F
:103EC0001F93CF93DF93623060F5E62FF0E08E0F03
:103ED0009F1FEC01C35ADF4F8881EA59FF4F8823A7
:103EE000B1F01081812F0E94E801082F60E0812F3E
:103EF0000E948F011882812F0E94E801C1E0892B66
:103F000009F0C0E0602F812F0E94CB0107C08081A3
:103F10000E94E801C1E0892B09F0C0E08C2F81707C
:103F200001C080E0DF91CF911F910F9108950F9311
:103F30001F93CF938C01C62F623060F46C2FC801A1
:103F40000E945F1F8823D1F36C2FC8010E945F1F5E
:103F50008111FACFCF911F910F910895683070F4BD
:103F6000E62FF0E0E058FF4F80810E94980597FD12
:103F700003969595879595958795089580E0089582
:103F80001F93CF93DF931F92CDB7DEB7643098F0C5
:103F90006C3000F5895A9F4F69830E94951590E017
:103FA0006981ECEFE60F02C095958795EA95E2F7F7
:103FB000282F217010C0E62FF0E0E458FF4F108149
:103FC00062E0812F0E948F01812F0E94E80121E091
:103FD000892B09F020E0822F0F90DF91CF911F9164
:103FE00008950F931F93CF93DF931F92CDB7DEB742
:103FF0006430A0F4E62FF0E0E458FF4F108161E058
:10400000812F49830E948F014981642F812F0F9056
:10401000DF91CF911F910F910C94CB016C3078F40C
:104020008C01095A1F4F6450C8010E947915C801BC
:104030000F90DF91CF911F910F910C94A3150F90CA
:10404000DF91CF911F910F910895CF93DF93D62FDA
:10405000E62FF0E0EC58FF4FC08162E08C2F0E9409
:104060008F01D83030F48C2F0E94E80121E0892B99
:1040700009F020E0822FDF91CF910895FB0180812C
:104080009181A281B3810097A105B10539F08F3FDD
:104090009105A105B10509F018F4089580E008958F
:1040A0008FEF0895EF92FF920F931F93CF93DF93BB
:1040B00000D000D0CDB7DEB77C01062FE62FF0E0B0
:1040C000EC58FF4F108162E0812F0E948F01083071
:1040D00098F42CED35E040E050E060E0812F0E9444
:1040E000E80469837A838B839C83BE016F5F7F4F73
:1040F000C7010E943E2001C080E00F900F900F90FA
:104100000F90DF91CF911F910F91FF90EF90089545
:104110000F931F93CF93DF9300D000D0CDB7DEB7BE
:104120006430C0F48C01E62FF0E0E458FF4F2CED32
:1041300035E040E050E060E080810E94E80469835F
:104140007A838B839C83BE016F5F7F4FC8010E947F
:104150003E2001C080E00F900F900F900F90DF91F4
:10416000CF911F910F9108951F93CF93DF93EC018F
:10417000AC9664EA70E0CE010E94581612E0812FDE
:104180000E949F07882381F068EB70E0CE010E94B7
:104190000D1640E150E0612FCE010E946B1763ECD9
:1041A00070E0CE010E9458161E5F143F41F76AEC82
:1041B00070E0CE01DF91CF911F910C945816FC0155
:1041C00010820895CF93DF93EC0141E060E089E62F
:1041D0000E94400760ED77E080E090E00E94590186
:1041E00081E08883DF91CF910895CF93DF9300D052
:1041F000CDB7DEB7FC018081882369F01A8219826D
:1042000022E0AE014F5F5F4F60E089E60E947507D4
:1042100089819A8102C080E090E00F900F90DF9139
:10422000CF910895FC018081089589E60E949F073F
:1042300091E0811101C090E0892F0895CF93DF9321
:104240001F92CDB7DEB7FC018081882359F0198217
:104250006E5F21E0AE014F5F5F4F89E60E947507F8
:10426000898101C080E00F90DF91CF910895462FA2
:10427000FC018081882321F061E089E60C944007ED
:1042800008958091560290E020915702821B910977
:1042900008959091570280915602981750F4E92F93
:1042A000F0E0E85AFD4F208130E09F5F9093570285
:1042B00002C02FEF3FEFC9010895E09157028091AE
:1042C0005602E81730F4F0E0E85AFD4F808190E0A4
:1042D00008958FEF9FEF08950895AC01E0912E02AD
:1042E000F0912F023097E1F09091570280915602A1
:1042F0009817B0F090E0292F30E02617370754F4D4
:10430000DA01A20FB31F8C91D901A85ABD4F8C932B
:104310009F5FF1CF1092570260935602CB01099430
:104320000895E0913002F0913102309729F0109217
:1043300034021092330209940895CF92DF92EF92E3
:10434000FF920F931F93CF93DF937C01262F972F1C
:104350008A0180913202882391F0C62FD72F6E01F7
:10436000C40ED51ECC15DD0571F06991D701ED9114
:10437000FC910190F081E02DC7010995F3CF642FE6
:10438000822F0E947D03C801DF91CF911F910F9171
:10439000FF90EF90DF90CF900895CF93DF931F921F
:1043A000CDB7DEB76983209132022223D1F020916C
:1043B0003302203240F021E030E0FC0133832283DD
:1043C00080E090E015C080913402E82FF0E0EB5CD3
:1043D000FD4F998190838F5F8093340280933302E5
:1043E00005C061E0CE0101960E947D0381E090E06E
:1043F0000F90DF91CF910895FC011382128288EE15
:1044000093E0A0E0B0E084839583A683B78388ED32
:1044100090E0918380830895109257021092560283
:1044200010923402109233020C94AE02CF93DF93B9
:10443000EC01862F0E94CF0281E991E20E94AA033B
:104440008DE691E20E94A503CE01DF91CF910C94FD
:104450000C220C9416220C94C402CB01BA010C94C9
:10446000D20281E0809332026093550210923402AE
:104470001092330208950C9431220F93062F21E0FD
:104480004091330265E372E0809155020E942A0355
:104490001092340210923302109232020F9108955A
:1044A0004F925F926F927F92AF92BF92CF92EF92B4
:1044B000FF920F931F93CF93DF935C01F62ED42FBF
:1044C00028013901EE2021F10E943122CE2DC43085
:1044D00008F0C3E0C150C0F0D501ED91FC91B8E007
:1044E000CB9FC0011124A301920104C056954795AA
:1044F000379527958A95D2F7CA01B9010190F081C5
:10450000E02DC5010995E6CF60E0C5010E943D227E
:104510004D2FD13208F040E22C2D68E572E08F2D4E
:104520000E94E5021092570280935602DF91CF91CC
:104530001F910F91FF90EF90CF90BF90AF907F9021
:104540006F905F904F900895CF92EF920F931F93CB
:10455000C22EE12C00E010E098010E9450221F9131
:104560000F91EF90CF90089521E00C94A42221E0C8
:104570000C94A4220C94A42261E00C943D2270932C
:104580002F0260932E0208957093310260933002DF
:104590000895FC0189E281831382128214820895B6
:1045A000FC018481148208959C013327A90102C073
:1045B000440F551F9A95E2F7CA01019608950F938B
:1045C0001F930097C9F0AC014150510960E070E0C1
:1045D00080E090E08A019B010027012B022B032B36
:1045E00031F076956795579547950196F3CF982FBB
:1045F0008827842B952B02C080E090E01F910F91BB
:1046000008958F929F92AF92BF92CF92DF92EF92D6
:10461000FF92CF93DF93EC01A62FB0E020E03FE2C2
:104620004AE350E00E944B2D6C507E4F8F4F9F4FBE
:1046300028EEC22E23E0D22EE12CF12CA701960108
:104640000E94292D49015A01B694A7949794879402
:10465000DE010E944B2D680D791D8A1D9B1DA7014F
:1046600096010E94292DCA01B901DF91CF91FF90D7
:10467000EF90DF90CF90BF90AF909F908F90089574
:104680004F925F926F927F928F929F92AF92BF9262
:10469000CF92DF92EF92FF924B015C01A42FB0E02A
:1046A00020E03FE24AE350E00E944B2D6C507E4FE9
:1046B0008F4F9F4F28EE33E040E050E00E94292DBD
:1046C00069017A0129013A017694679457944794D5
:1046D000A8EEB3E0A50194010E944B2D640D751D59
:1046E000861D971DA70196010E94292DCA01B901B7
:1046F000FF90EF90DF90CF90BF90AF909F908F9002
:104700007F906F905F904F900895EF92FF921F936C
:10471000CF93DF931F92CDB7DEB77C01162FFC013C
:10472000618182E292E049830E943122612F82E21C
:1047300092E00E94CD214981642F82E292E00E94A2
:10474000CD2182E292E00E94BC22F70180830F908B
:10475000DF91CF911F91FF90EF9008951F93CF931A
:10476000DF93EC01162F462F4F776AE80E948523CE
:104770001983DF91CF911F910895CF93DF93EC01BF
:1047800041E060E00E94852341E06FEFCE010E948E
:10479000852340E060E0CE010E94852340E061E98E
:1047A000CE010E94852341E060E0CE010E94852376
:1047B00040E06FEFCE01DF91CF910C948523CF9233
:1047C000DF92EF92FF921F93CF93DF93EC01162FAE
:1047D00069017A01698182E292E00E943122612FAF
:1047E00082E292E00E94CD214F2D55276627772740
:1047F00082E292E00E940D2D4E2D50E060E070E0CC
:1048000082E292E00E940D2D4D2D50E060E070E0BC
:1048100082E292E00E940D2DB701A601552766277E
:10482000772782E292E00E940D2D82E292E00E94C0
:10483000BC228883DF91CF911F91FF90EF90DF9092
:10484000CF900895CF92DF92EF92FF921F93CF9374
:10485000DF9300D0CDB7DEB77C01D62E142FFC013C
:10486000618182E292E029835A830E9431226D2D78
:1048700082E292E00E94CD21C12E5A81D52E29815B
:10488000120F1C1541F0F60161916F0182E292E076
:104890000E94CD21F6CF82E292E00E94BC22F70175
:1048A00080830F900F90DF91CF911F91FF90EF9039
:1048B000DF90CF900895EF92FF921F93CF93DF93F5
:1048C00000D0CDB7DEB77C01162FFC01618182E2FA
:1048D00092E04A8359830E943122612F82E292E062
:1048E0000E94CD215981652F82E292E00E94CD2164
:1048F0004A81642F82E292E00E94CD2182E292E01E
:104900000E94BC22F70180830F900F90DF91CF911E
:104910001F91FF90EF900895CF92DF92EF92FF9258
:10492000CF93DF93EC016A017B0120E030E0A90125
:10493000C701B6010E94D82D87FD1BC028EB3EEFB2
:104940004FEF53E4C701B6010E94372F18168CF0C1
:1049500020E030E040E053E4C701B6010E943C2F64
:104960000E94562EAB0164E4CE010E945B2481E0DC
:1049700001C080E0DF91CF91FF90EF90DF90CF906A
:1049800008951F93CF93DF93EC01162F698182E284
:1049900092E00E943122612F82E292E00E94CD21BA
:1049A00082E292E00E94BC22888341E0698182E237
:1049B00092E00E94B42282E292E00E944921DF91BB
:1049C000CF911F910895EF92FF920F931F93CF9372
:1049D000DF93EC017B018A0141E060E80E948523BE
:1049E00041E06FEFCE010E94852340E060E0CE0100
:1049F0000E94852346E06FEFCE010E94852363E885
:104A0000CE010E94C124482F446063E8CE010E9479
:104A1000852347E06FEFCE010E94852341E061E8E6
:104A2000CE010E94852341E060E8CE010E948523EB
:104A30004BE664E9CE010E94852340E063E8CE01A5
:104A40000E9485230E944D017E836D8363E8CE0121
:104A50000E94C124811111C08A819B81892BB1F3ED
:104A60000E944D012D813E81621B730B8A819B81C7
:104A70008617970758F780E03CC041E063E8CE0115
:104A80000E94852362E9CE010E94C124982F9F775E
:104A9000F7019083982F991F9927991FF801908308
:104AA00040E061E8CE010E94852346E06FEFCE0131
:104AB0000E94852363E8CE010E94C124482F4B7FCA
:104AC00063E8CE010E94852341E06FEFCE010E9492
:104AD000852341E060E0CE010E94852340E06FEF36
:104AE000CE010E94852340E060E8CE010E9485232C
:104AF00081E0DF91CF911F910F91FF90EF9008958A
:104B0000CF93DF93EB0161E00E94C12484FB9927DE
:104B100090F9988383FB992790F99A8382FB9927D0
:104B200090F9998386FB222720F92B83881F8827F9
:104B3000881F8C83DF91CF910895CF93DF93EC0191
:104B4000462F416060E00E9485230E944D017E83D4
:104B50006D8363E1CE010E94C124877089F48A814C
:104B60009B81892BB1F30E944D012D813E81621BF7
:104B7000730B8A819B818617970758F780E00BC0DB
:104B800041E06BE0CE010E94852340E060E0CE0171
:104B90000E94852381E0DF91CF910895611102C0C9
:104BA00060E503C0613031F460E70E94C1248F5F8B
:104BB000880F08958FEF08951F93CF93DF93EC0133
:104BC000162F698182E292E00E943122612F82E2F7
:104BD00092E00E94CD2182E292E00E94BC22888372
:104BE00042E0698182E292E00E94B42282E292E095
:104BF0000E944921D82F80E0C82F82E292E00E94D3
:104C000049218C2B9D2BDF91CF911F91089564E456
:104C10000E94DC25BC0180E090E00E94852E20E00F
:104C200030E040E05CE30E943C2F0895CF92DF9299
:104C3000EF92FF92CF93DF93EC016A017B0141E099
:104C400060E80E94852341E06FEFCE010E9485233A
:104C500040E060E0CE010E9485234F8161E9CE01F2
:104C60000E94852341E060E0CE010E94852340E060
:104C70006FEFCE010E94852340E060E8CE010E94E4
:104C80008523C114D104E104F104A9F068EFCE0139
:104C90000E94DC25009739F0DC01A70196010E94F3
:104CA0004B2D6B017C01A701960164E0CE010E94AF
:104CB000DF2344E001C042E060E0CE01DF91CF910C
:104CC000FF90EF90DF90CF900C9485230F931F936C
:104CD000CF93DF93EC010E944D017E836D8363E1EE
:104CE000CE010E94C1248770A1F48A819B81892B07
:104CF000B1F30E944D012D813E81621B730B8A81AD
:104D00009B818617970758F781E08C838FEF9FEF81
:104D10000BC06EE1CE010E94DC258C0141E06BE00E
:104D2000CE010E948523C801DF91CF911F910F9181
:104D30000895CF93DF93EC0141E060E80E94852362
:104D400041E06FEFCE010E94852340E060E0CE019C
:104D50000E9485234F8161E9CE010E94852341E0B5
:104D600060E0CE010E94852340E06FEFCE010E94FB
:104D7000852340E060E8CE010E94852341E060E0A9
:104D8000CE010E9485230E944D017E836D8360E0E9
:104D9000CE010E94C12480FF16C08A819B81892B8D
:104DA000B1F30E944D012D813E81621B730B8A81FC
:104DB0009B818617970758F781E08C838FEF9FEFD1
:104DC000DF91CF910895CE01DF91CF910C946626AB
:104DD000EF92FF920F931F93CF93DF938C017B0190
:104DE000EA0160E00E94CE2590E09983888366E422
:104DF000C8010E94C124282F30E0C90101969D837B
:104E00008C8368810E9401236A877B878C879D87BA
:104E100061E5C8010E94DC250E94D4229F838E8315
:104E200068810E9401236E877F87888B998B60E75A
:104E3000C8010E94C1248F5F880F90E09B838A8302
:104E400061E7C8010E94DC250E94D42299878887E7
:104E5000F7012381222331F02E813F81821B930BA6
:104E6000998788876A81888599850E9401236A8B42
:104E70007B8B8C8B9D8BDF91CF911F910F91FF903E
:104E8000EF9008958F929F92AF92BF92DF92EF9230
:104E9000FF920F931F93CF93DF93CDB7DEB76B973E
:104EA0000FB6F894DEBF0FBECDBF40322EE45207DE
:104EB0006105710508F47AC04A015B017C01BE01FD
:104EC000695E7F4F0E948025AE014F5F5F4FBE013C
:104ED000695E7F4FC7010E94E8268F89882349F0C9
:104EE0000B851C852D853E850A5C144F2F4F3F4F47
:104EF00004C008EE18E020E030E0898D882369F0D6
:104F00008B859C85AD85BE858E549D4FAF4FBF4F21
:104F1000880F991FAA1FBB1F0BC0888D882361F0C3
:104F20008B859C85AD85BE858C569D4FAF4FBF4F01
:104F3000080F191F2A1F3B1FDA8CDD2061F08F85B7
:104F40009889A989BA898C569D4FAF4FBF4F080FDA
:104F5000191F2A1F3B1F8B8D882331F10A5D1D4FBE
:104F60002F4F3F4F80169106A206B306F8F0C501F9
:104F7000B401601B710B820B930B4B810E94402389
:104F80009B01DD2021F02F813885260F371FC901B5
:104F90000E94DF22AC0161E7C7010E945B24F70198
:104FA00080869186A286B38681E001C080E06B9600
:104FB0000FB6F894DEBF0FBECDBFDF91CF911F912A
:104FC0000F91FF90EF90DF90BF90AF909F908F90E8
:104FD0000895CF92DF92EF92FF920F931F93CF939A
:104FE000DF93CDB7DEB76B970FB6F894DEBF0FBE79
:104FF000CDBF8C01BE01695E7F4F0E948025AE014E
:105000004F5F5F4FBE01695E7F4FC8010E94E82677
:105010008F89882359F08B859C85AD85BE85BC0121
:10502000CD016C57724F8F4F9F4F04C066E37BE0FA
:1050300080E090E0298D222379F0CB84DC84ED841C
:10504000FE8422EBC20E22E0D21EE11CF11CCC0C2D
:10505000DD1CEE1CFF1C0DC0288D222371F0CB84BB
:10506000DC84ED84FE84E4E9CE0EE2E0DE1EE11C89
:10507000F11C6C0D7D1D8E1D9F1D2A8D222371F04C
:10508000CF84D888E988FA88F4E9CF0EF2E0DF1EF1
:10509000E11CF11C6C0D7D1D8E1D9F1D2B8D22238F
:1050A00071F0CB88DC88ED88FE8826E2C20E22E013
:1050B000D21EE11CF11C6C0D7D1D8E1D9F1DF80183
:1050C00060877187828793876B960FB6F894DEBFEF
:1050D0000FBECDBFDF91CF911F910F91FF90EF9049
:1050E000DF90CF900895DF92EF92FF920F931F937E
:1050F000CF93DF93CDB7DEB76B970FB6F894DEBFD3
:105100000FBECDBF8C01D62EF42EE42EE694EA9489
:10511000BE01695E7F4F0E948025AE014F5F5F4FE9
:10512000BE01695E7F4FC8010E94E826D11044C0CD
:105130002EE0F21679F02F1528F08CE0F812E7C077
:1051400048E10BC0E0E1FE1639F0F2E1FF12DFC0EA
:1051500040E503C040E301C040E467E5C8010E94A8
:10516000852348E066E5C8010E9485234E2D60E551
:10517000C8010E9485236F85788989899A894F2D76
:105180000E944023CB010E94DF22AC0161E5C801EF
:105190000E945B246B857C858D859E854F2D0E94AA
:1051A00040234FEF613021E0720708F4460F66E4B8
:1051B000C8010E9485238EC081E0D812A8C0EAE011
:1051C000FE16B9F1EF15F0F0F8E0FF12A0C040E1D3
:1051D00068E4C8010E94852348E067E4C8010E9492
:1051E000852342E062E3C8010E9485234CE060E32E
:1051F000C8010E94852341E06FEFC8010E9485230A
:1052000040E342C02CE0F21629F18EE0F8127FC094
:1052100048E468E4C8010E94852348E067E4C801C7
:105220000E94852343E062E3C8010E94852347E092
:1052300021C048E268E4C8010E94852348E067E491
:10524000C8010E94852343E062E3C8010E948523D0
:1052500049E010C048E368E4C8010E94852348E0A3
:1052600067E4C8010E94852343E062E3C8010E940D
:10527000852348E060E3C8010E94852341E06FEF89
:10528000C8010E94852340E260E3C8010E94852393
:1052900040E06FEFC8010E9485234E2D60E7C801F2
:1052A0000E9485236B897C898D899E894F2D0E9460
:1052B0004023AB012A8D222329F02F813885A901B3
:1052C000460F571FCA010E94DF22AC0161E7C801E7
:1052D0000E945B24F8014085518562857385C80171
:1052E0000E94422761E0C8010E94C124F82E42E0DA
:1052F00061E0C8010E94852360E0C8010E949D25ED
:105300004F2D61E0C8010E94852381E001C080E04B
:105310006B960FB6F894DEBF0FBECDBFDF91CF9175
:105320001F910F91FF90EF90DF900895CF92DF9241
:10533000EF92FF92CF93DF93EC01F62E698182E228
:1053400092E00E9431226F2D82E292E00E94CD21F4
:1053500082E292E00E94BC22888344E0698182E27A
:1053600092E00E94B42282E292E00E9449216C0104
:10537000990FEE08FF08FC2CEE24DD24CC2482E2F9
:1053800092E00E944921092E000CAA0BBB0BDC0104
:1053900099278827C82AD92AEA2AFB2A82E292E09A
:1053A0000E944921C82F82E292E00E944921092EE1
:1053B000000CAA0BBB0BC82AD92AEA2AFB2A40E018
:1053C00050E05C2F60E070E0CB01BA016C297D29D0
:1053D0008E299F29DF91CF91FF90EF90DF90CF90A2
:1053E0000895CF92DF92EF92FF920F931F93CF9386
:1053F000DF931F92CDB7DEB76C01F62E142F022F6C
:10540000FC01618182E292E059830E9431226F2D7A
:1054100082E292E00E94CD2182E292E00E94BC22D0
:10542000F6018083402F618182E292E00E94B422E3
:10543000E12E5981F52E100F1E1541F082E292E007
:105440000E944921F70181937F01F6CF0F90DF91F0
:10545000CF911F910F91FF90EF90DF90CF90089523
:10546000FF920F931F93CF93DF93CDB7DEB72897AB
:105470000FB6F894DEBF0FBECDBF8C01662349F096
:1054800069E80E94C124482F416069E8C8010E9470
:10549000852340E068E8C8010E94852341E060E878
:1054A000C8010E94852341E06FEFC8010E94852357
:1054B00040E060E0C8010E94852361E9C8010E94C4
:1054C000C124F801878341E060E0C8010E94852380
:1054D00040E06FEFC8010E94852340E060E8C8010A
:1054E0000E94852360E6C8010E94C124482F4261C2
:1054F00060E6C8010E94852340E050E060E87EE35A
:10550000C8010E948C244FEF61E0C8010E948523EE
:10551000AE01495F5F4FBE01685F7F4FC8010E94C7
:10552000E324811102C0F12C31C226E0AE014F5FAD
:105530005F4F60EBC8010E94F12941E06FEFC801A5
:105540000E94852340E06FE4C8010E9485234CE25D
:105550006EE4C8010E94852340E06FEFC8010E94FD
:10556000852344EB66EBC8010E9485238F8181115E
:1055700002C040E001C04CE0A88580E090E061E01E
:1055800070E0282F269526952695582F5770E1E034
:10559000F0E0EC0FFD1FE20FF11D841710F09A13DD
:1055A0000AC09B0101C0220F5A95EAF7209530816D
:1055B0002323208309C0208130E002C03595279540
:1055C0005A95E2F720FD9F5F8F5F8033D1F626E08A
:1055D000AE014F5F5F4F60EBC8010E94222441E0A3
:1055E0006FEFC8010E94852340E060E0C8010E947F
:1055F000852340E06FEFC8010E94852340E069E009
:10560000C8010E94852340E060E1C8010E94852313
:1056100040E061E1C8010E94852341E064E2C801E5
:105620000E9485234FEF65E2C8010E94852340E078
:1056300065E7C8010E94852341E06FEFC8010E9421
:1056400085234CE26EE4C8010E94852340E068E4B3
:10565000C8010E94852340E260E3C8010E948523BF
:1056600040E06FEFC8010E94852349E060E3C80174
:105670000E94852340E064E5C8010E94852344E040
:1056800061E3C8010E94852343E062E3C8010E94F0
:10569000852343E860E4C8010E94852345E266E46F
:1056A000C8010E94852340E060E6C8010E9485236E
:1056B00040E067E2C8010E94852346E060E5C8013A
:1056C0000E94852340E061E5C8010E94852346E9E8
:1056D00062E5C8010E94852348E066E5C8010E9492
:1056E000852340E367E5C8010E94852340E061E629
:1056F000C8010E94852340E062E6C8010E9485231C
:1057000040E064E6C8010E94852340E065E6C801E8
:105710000E94852340EA66E6C8010E94852341E095
:105720006FEFC8010E94852342E362E2C8010E9434
:10573000852344E167E4C8010E9485234FEF69E4B3
:10574000C8010E94852340E06AE4C8010E948523C5
:1057500040E06FEFC8010E9485234AE06AE7C80174
:105760000E94852340E06BE7C8010E94852341E247
:1057700068E7C8010E94852341E06FEFC8010E94DD
:10578000852344E363E2C8010E94852340E062E48C
:10579000C8010E9485234FEF64E4C8010E9485235D
:1057A00046E265E4C8010E94852345E066E4C8013D
:1057B0000E94852340E460E4C8010E94852346E0FE
:1057C0006EE0C8010E9485234AE160E2C8010E94A0
:1057D000852340E463E4C8010E94852340E06FEF25
:1057E000C8010E94852343E064E3C8010E94852329
:1057F00044E465E3C8010E94852341E06FEFC801DE
:105800000E94852344E061E3C8010E94852349E0AA
:105810006BE4C8010E94852345E06CE4C8010E9446
:10582000852344E06DE4C8010E94852340E06FEFCA
:10583000C8010E94852340E064E4C8010E948523DA
:1058400040E265E4C8010E94852348E067E4C8019E
:105850000E94852348E268E4C8010E94852340E055
:1058600067E6C8010E94852344E060E7C8010E9402
:10587000852341E061E7C8010E9485234EEF62E77E
:10588000C8010E94852340E066E7C8010E94852385
:1058900040E067E7C8010E94852341E06FEFC8013F
:1058A0000E94852341E06DE0C8010E94852340E00D
:1058B0006FEFC8010E94852341E060E8C8010E94A3
:1058C000852348EF61E0C8010E94852341E06FEF26
:1058D000C8010E94852341E06EE8C8010E9485232B
:1058E00041E060E0C8010E94852340E06FEFC801FD
:1058F0000E94852340E060E8C8010E94852344E0BF
:105900006AE0C8010E94852364E8C8010E94C1249E
:10591000482F4F7E64E8C8010E94852341E06BE078
:10592000C8010E948523C8010E94E927F801608709
:1059300071878287938748EE61E0C8010E948523C2
:10594000F8014085518562857385C8010E94422710
:1059500041E061E0C8010E94852360E4C8010E9423
:105960009D25882309F4DFCD42E061E0C8010E9453
:10597000852360E0C8010E949D25F82E882309F444
:10598000D2CD48EE61E0C8010E9485238F2D289674
:105990000FB6F894DEBF0FBECDBFDF91CF911F9140
:1059A0000F91FF90089564E670E080E090E00E941F
:1059B0005901F9CF84EE90E00C94B91D80E191E09B
:1059C0000C94D1070C9491320C94A7320C940333AD
:1059D0000C94D6326115710579F0FB01019000201D
:1059E000E9F73197AF01461B570BDC01ED91FC91B4
:1059F0000280F381E02D099480E090E00895809189
:105A0000150290E081509F4F9093140280931302EF
:105A1000089582E292E00C94FC21DC01ED91FC916E
:105A20000190F081E02D642F0994AA1BBB1B51E16A
:105A300007C0AA1FBB1FA617B70710F0A61BB70BFE
:105A4000881F991F5A95A9F780959095BC01CD01A3
:105A50000895A1E21A2EAA1BBB1BFD010DC0AA1FAF
:105A6000BB1FEE1FFF1FA217B307E407F50720F0C7
:105A7000A21BB30BE40BF50B661F771F881F991F42
:105A80001A9469F760957095809590959B01AC018B
:105A9000BD01CF0108950E945C2DA59F900DB49F7C
:105AA000900DA49F800D911D11240895EE0FFF1FEE
:105AB0000590F491E02D0994A29FB001B39FC0011D
:105AC000A39F700D811D1124911DB29F700D811D2A
:105AD0001124911D08955058BB27AA270E94832D99
