:100000000C94CF010C94F7010C94F7010C94F701B8
:100010000C94F7010C94F7010C94F7010C94F70180
:100020000C94F7010C94F7010C94F7010C94C2188E
:100030000C94F7010C94F7020C9423030C94F70131
:100040000C94F7010C94F7010C94F7010C94D10473
:100050000C94F701C905CD05CD05CD05CD05CD0520
:10006000CD05CD05F004CD05CD05CD05CD05CD05DE
:10007000CD05CD05F004CD05CD05CD05CD05CD05CE
:10008000CD05CD05F604CD05CD05CD05CD05CD05B8
:10009000CD05CD051905CD05CD05CD05CD05CD0584
:1000A000CD05CD05F604CD05CD05CD05CD05CD0598
:1000B000CD05CD051F05CD05CD05CD05CD05CD055E
:1000C000CD05CD052505CD05CD05CD05CD05CD0548
:1000D000CD05CD053605CD05CD05CD05CD05CD0527
:1000E000CD05CD055C05CD05CD05CD05CD05CD05F1
:1000F000CD05CD052B05CD05CD05CD05CD05CD0512
:10010000CD05CD054205CD05CD05CD05CD05CD05EA
:10011000CD05CD055F05CD05CD05CD05CD05CD05BD
:10012000CD05CD055F05CD05CD05CD05CD05CD05AD
:10013000CD05CD055F05CD05CD05CD05CD05CD059D
:10014000CD05CD055F05CD05CD05CD05CD05CD058D
:10015000CD05CD056705CD05CD05CD05CD05CD0575
:10016000CD05CD059505CD05CD05CD05CD05CD0537
:10017000CD05CD056705CD05CD05CD05CD05CD0555
:10018000CD05CD059505CD05CD05CD05CD05CD0517
:10019000CD05CD057C05CD05CD05CD05CD05CD0520
:1001A000CD05CD059805CD05CD05CD05CD05CD05F4
:1001B000CD05CD059805CD05CD05CD05CD05CD05E4
:1001C000CD05CD05AD05CD05CD05CD05CD05CD05BF
:1001D000CD05CD05C405CD05CD05CD05CD05CD0598
:1001E000CD05CD05C40501020408102040800000A3
:1001F00000000001020408102040800102040810E1
:10020000204080000000804020100804020102020B
:1002100002020202020200000000000404040404BE
:1002200004040403030303030303030000000101A8
:1002300001010101010100003900360033003000E6
:100240000000000000003B003800350032000000D4
:10025000000000003A0037003400310000000000C8
:100260004E414E494E495459494E46CDCCCC3D0A9B
:10027000D7233C17B7D13877CC2B329595E6241F7E
:10028000B14F0A000020410000C84200401C462037
:10029000BCBE4CCA1B0E5AAEC59D7400407A10F30A
:1002A0005A00A0724E18090010A5D4E80000E876A4
:1002B00048170000E40B54020000CA9A3B000000FB
:1002C000E1F505000080969800000040420F000014
:1002D00000A08601000000102700000000E80300D5
:1002E0000000006400000000000A0000000000019F
:1002F00000000000002C76D888DC674F0823DFC19F
:10030000DFAE59E1B1B796E5E3E453C63AE6519959
:100310007696E8E6C28426EB898C9B62ED407C6F82
:10032000FCEFBC9C9F40F2BAA56FA5F490055A2A39
:10033000F75C936B6CF9676DC11BFCE0E40D47FE45
:10034000F520E6B500D0ED902E030094357705003A
:1003500080841E080000204E0A000000C80C3333C1
:1003600033330F986E12831141EF8D2114893BE6D0
:100370005516CFFEE6DB18D1844B381BF77C1D9059
:100380001DA4BBE424203284725E228100C9F124C2
:10039000ECA1E53D27000F02181CA423180211242C
:1003A0001FBECFE5D8E0DEBFCDBF11E0A0E6B0E0D4
:1003B000ECEDFBE502C005900D92AE35B107D9F723
:1003C00023E0AEE5B1E001C01D92A633B207E1F72C
:1003D00011E0CEECD1E004C02197FE010E94DF23A2
:1003E000CB3CD107C9F70E94F9010C94E12D0C9484
:1003F000000061E083EC91E00E94171A41E061E0A7
:1004000083EC91E00E94371A8AE990E00E9486030B
:1004100064E670E080E090E00E944602F5CF83EC55
:1004200091E00E9421198EE591E00E9442210895F9
:100430008FEE91E00E941C090895809100028F5F69
:10044000809300028E33A8F08091FC019091FD0111
:10045000A091FE01B091FF010196A11DB11D8093F5
:10046000FC019093FD01A093FE01B093FF01109257
:10047000000208952FB7F8946091FC017091FD017E
:100480008091FE019091FF012FBF08958F929F925E
:10049000AF92BF92CF92DF92EF92FF924B015C013D
:1004A0000E943A026B017C010E943A02DC01CB01FE
:1004B0008C199D09AE09BF0988159905AA05BB05C8
:1004C00098F3FF90EF90DF90CF90BF90AF909F9008
:1004D0008F9008958230910538F0880F991F880F0A
:1004E000991F05970197F1F70895789481E083BFEC
:1004F00089B7816089BF0895CF93DF9390E0FC01B5
:10050000EA51FE4F2491FC01E25FFD4F8491882364
:1005100079F190E0880F991FFC01EE5AFD4FA591EB
:10052000B491FC01EC5BFD4FC591D49161110CC0FD
:100530009FB7F8948C91E22FE0958E238C932881BD
:10054000E223E8839FBF14C0623061F49FB7F89440
:100550003C91822F809583238C93E881E22BE88362
:100560009FBF06C08FB7F894EC91E22BEC938FBF3E
:10057000DF91CF91089590E0FC01EA51FE4F249164
:10058000FC01E25FFD4F8491882399F0E82FF0E0B1
:10059000EE0FFF1FEC5BFD4FA591B491611106C0FA
:1005A0008C91E22FE095E823EC930895EC91E22BF7
:1005B000EC93089590E0FC01EA51FE4F2491FC0178
:1005C000E25FFD4F8491882379F0E82FF0E0EE0F91
:1005D000FF1FEA5CFD4FA591B491EC91E22381E00D
:1005E00090E021F480E0089580E090E008951F926B
:1005F0000F920FB60F9211242F938F939F93EF9327
:10060000FF938BB12CB18871E0910302EF5FEF7122
:1006100090910202E91739F0E0930302F0E0EA5FFB
:10062000FD4F208301C082E090910102892B8093CD
:100630000102FF91EF919F918F912F910F900FBE2B
:100640000F901F9018951F920F920FB60F921124C2
:100650008F939F93EF93FF939091050280910402F3
:10066000981761F0E0910402EF5FEF71E0930402EC
:10067000F0E0EA5DFD4F80818CB901C05598FF9193
:10068000EF919F918F910F900FBE0F901F90189533
:1006900010920502109204021092030210920202BC
:1006A00099231CF422E02BB99F7790BD89B988E982
:1006B0008AB986E880BD0895909103028091020274
:1006C000981781F0E0910202EF5FEF71E093020270
:1006D000F0E0EA5FFD4F80819091010210920102EB
:1006E00090E0089580E091E00895209105022F5F49
:1006F0002F71909104022917E1F3E22FF0E0EA5DF7
:10070000FD4F808320930502559A0895CF93DF9380
:10071000EC018881882331F021960E94750389912C
:100720008111FBCFDF91CF910895CF93DF93EC013F
:100730002196FC018491882339F00E947503FE0103
:10074000849121968111F9CFDF91CF910895109274
:10075000B30281E08093B1021092B00261E081E1C6
:100760000E94BB0261E080E10E94BB0208980998E8
:1007700088E480B985E486BF089586B78A7B86BF02
:1007800060E081E10E94BB0260E080E10E94BB0268
:100790000895880F82B908959B01AC0160E074E26E
:1007A00084EF90E00E94BD23DA01C9014097A109BE
:1007B000B109B695A7959795879580B90895413267
:1007C00008F046C09091B3029111FCCF31E0309314
:1007D000B3022093B1022FEF2093460210928B02B6
:1007E000240F20938A023093B2022091B202880F24
:1007F000822B8093B2028091B002813059F4109222
:10080000B0028091B20283B906B603FCFACF85EC40
:1008100086BF02C085EE86BF8091B3028130E1F3CE
:1008200080918B02841710F440918B02442389F04D
:10083000ACE8B2E0FB018FEF840F90E00196680F07
:10084000791F8D918193E617F707D9F7942F01C08F
:1008500090E0892F08950F93413208F051C03091F4
:10086000B3023111FCCF92E09093B3020093B10236
:100870009FEF9093460210928B0240938A0244238A
:1008800071F0FB01ACE8B2E0415050E04F5F5F4FC8
:10089000640F751F91919D93E617F707D9F7109292
:1008A000B2029091B202880F892B8093B20280919C
:1008B000B002813059F41092B0028091B20283B933
:1008C00006B603FCFACF85EC86BF02C085EE86BF74
:1008D000222341F08091B302823021F48091B3024F
:1008E0008230E1F3809146028F3F79F08091460299
:1008F000803241F080914602803331F034E005C00F
:1009000031E003C032E001C033E0832F0F9108953E
:1009100040916802262F30E0240F311D213231052D
:10092000ECF42091B3022430D9F4662381F0A82F8F
:10093000B92F80E090E0309168022D91FC01E659DA
:10094000FD4FE30FF11D208301968617A0F38091E0
:100950006802680F6093680280E0089581E008955E
:1009600082E008959093AD028093AC020895909335
:10097000AF028093AE020895882319F085EC86BFFC
:10098000089585E886BF089585ED86BF06B604FC08
:10099000FDCF1092B302089585EC86BF1092B3028A
:1009A00008951F920F920FB60F9211242F933F9329
:1009B0004F935F936F937F938F939F93AF93BF9367
:1009C000EF93FF9381B1E82FE87F8E2F90E0893C71
:1009D000910508F0E2C0FC01E65DFF4F0C94DF23B7
:1009E0008091B20283B985EC86BFD7C090918B020B
:1009F00080918A02981770F4E0918B0281E08E0F4B
:100A000080938B02F0E0E457FD4F808183B985EC41
:100A100086BFC3C08091B102882319F00E94C4042C
:100A2000BCC081E08093B00284EA86BF1092B3021A
:100A3000B4C080E2809346020E94C404AEC080E34A
:100A4000809346020E94C404A8C088E380934602B3
:100A50000E94CC04A2C0E0918B0281E08E0F8093B3
:100A60008B0283B1F0E0E457FD4F808390918B02BD
:100A700080918A02981718F485EC86BF8EC085E8AD
:100A800086BF8BC0E0918B0281E08E0F80938B023A
:100A900083B1F0E0E457FD4F80838091B102882359
:100AA00019F00E94C40479C081E08093B00284EA06
:100AB00086BF1092B30271C00E94C4046EC083E06E
:100AC0008093B3021092470285EC86BF66C0809186
:100AD0004702803270F4E091470281E08E0F8093EC
:100AE000470283B1F0E0E85BFD4F808385EC86BF71
:100AF00054C085E886BF51C00E94CC048091470253
:100B0000803230F4E0914702F0E0E85BFD4F108264
:100B10006091470270E0E091AC02F091AD0288E490
:100B200092E009951092470238C085E886BF35C02B
:100B300084E08093B3021092690210926802E091FF
:100B4000AE02F091AF02099580916802811105C053
:100B500081E08093680210926A02E091690281E06C
:100B60008E0F80936902F0E0E659FD4F808183B9D2
:100B70009091690280916802981718F485EC86BFFD
:100B80000CC085E886BF09C085EC86BF1092B30211
:100B900004C0109246020E94C404FF91EF91BF91DD
:100BA000AF919F918F917F916F915F914F913F9105
:100BB0002F910F900FBE0F901F9018954F925F923C
:100BC0006F927F92BF92CF92DF92EF92FF920F933C
:100BD0001F93CF93DF9390E0FC01EA51FE4F749195
:100BE000FC01E25FFD4F8491662311F0B72E01C036
:100BF000B12C69017A01F694E794D794C794F694DE
:100C0000E794D794C79493E0F922482F50E0440F1B
:100C1000551F4A5C5D4F80E090E0DC010EC08C0106
:100C20009D010F5F1F4F2F4F3F4F8C159D05AE0548
:100C3000BF0509F476C0D901C801FA01C591D49164
:100C400038813723B31659F30EC08C019D010F5F15
:100C50001F4F2F4F3F4F8C159D05AE05BF0509F463
:100C600064C0D901C801FA01C591D4912881272314
:100C7000B212EBCFFA01C591D49128812723B21289
:100C800022C0C816D906EA06FB0609F452C000E0E5
:100C900010E098010CC02C013D01400E511E621E57
:100CA000731EC414D504E604F70409F446C00F5FAC
:100CB0001F4F2F4F3F4FFA01C591D4916881672391
:100CC000B61649F303C000E010E09801B901A8018D
:100CD000440F551F661F771F440F551F661F771F50
:100CE000DB01CA01880F991FAA1FBB1F880F991F1C
:100CF000AA1FBB1F840F951FA61FB71F800F911F30
:100D0000A21FB31F805C9F4FAF4FBF4FBC01CD01EF
:100D1000689413F896958795779567951694D1F70B
:100D20000FC060E070E0CB010BC060E070E0CB0171
:100D300007C060E070E0CB0103C060E070E0CB0171
:100D4000DF91CF911F910F91FF90EF90DF90CF90A7
:100D5000BF907F906F905F904F90089580EC87B91F
:100D600080E886B986B1876086B9369A3699FECF13
:100D700084B185B1089597B1907E97B997B1809568
:100D80008770982B97B9369A3699FECF24B185B1E2
:100D900090E0982F8827820F911D0895CF92DF92BF
:100DA000EF92FF920F931F93CF93DF93E82E062FBE
:100DB000F42EC7E0D0E010E00F2EF7E0CF2ED12CBC
:100DC000F02D61E0802F0E94BB02F1100DC08E2D2E
:100DD0000E94DA0296012C1B3D0B02C0880F991F5E
:100DE0002A95E2F7182B0AC08E2D0E94DA020C2EEB
:100DF00002C0880F991F0A94E2F7182B60E0802F39
:100E00000E94BB022197E8F6812FDF91CF911F91BD
:100E10000F91FF90EF90DF90CF900895BF92CF9207
:100E2000DF92EF92FF920F931F93CF93DF93B82E31
:100E3000162F042FC7E0D0E0E22EF12C0F2EF7E0A2
:100E4000CF2ED12CF02D01110EC0C6018C1B9D0B95
:100E5000B70102C0759567958A95E2F761708B2D91
:100E60000E94BB020BC0B7010C2E02C0759567959E
:100E70000A94E2F761708B2D0E94BB0261E0812F22
:100E80000E94BB0260E0812F0E94BB022197D8F62E
:100E9000DF91CF911F910F91FF90EF90DF90CF9056
:100EA000BF900895BC0190932F0380932E03089860
:100EB000099880E89EE30E94A923862F603148F0BC
:100EC000772760517109CB0199230CF40196959510
:100ED000879580B911B884EC86BF85B3836085BBE4
:100EE000089584E986BF08958FEF9FEF06B607FC4B
:100EF00002C00197D9F781B1887F0895846886BFC1
:100F00000E9474070895CF92DF92EF92FF920F93A1
:100F10001F93CF93DF93C62F662319F0613021F022
:100F200006C000E218E105C008E410E402C000E0D9
:100F300010E00F2EF4E1EF2EF12CF02D982F9160A0
:100F4000D92ED82FDE7F0F2EF4E9CF2EF02D80E2A0
:100F50000E947E07883031F0803121F084E886BF1E
:100F600080E01FC0C11102C0D3B903C0C13009F471
:100F7000D3B880E00E947E07811791F0801305C0EE
:100F800081E0E81AF108C6BE06C0883321F084E982
:100F900086BF80E006C01E141F04CCF280E001C0B2
:100FA00081E0DF91CF911F910F91FF90EF90DF9043
:100FB000CF90089583B980E00E947E07883231F097
:100FC00091E0803309F090E0892F01C081E08170C9
:100FD0000895CF93DF93EC01611102C080E401C05A
:100FE00080E00E947E0793B19883982F977F81E0DD
:100FF000903509F080E0DF91CF910895EF92FF9254
:101000000F931F93CF93DF9314161506FCF461150D
:101010007105F1F07A018B0160E00E94830788235B
:10102000C1F0E8010E0D1F1D89910E94DA078111A0
:1010300007C091B1987F983361F094E996BF09C0D9
:10104000C017D10789F794E996BF03C081E001C0BA
:1010500081E0DF91CF911F910F91FF90EF90089564
:101060009F92AF92BF92CF92DF92EF92FF920F9337
:101070001F93CF93DF93442399F16115710599F183
:10108000042F7B0161E00E948307A82E882379F159
:1010900010E0101611060CF5C0E0D0E0680181E008
:1010A000C81AD108BB24B394912C6B2DCC16DD0645
:1010B00009F0692DC7018C0F9D1F0E94E90781115E
:1010C00008C091B1987F983389F094E996BFA82E13
:1010D0000EC02196C017D10741F784E986BF07C02B
:1010E000AA24A39404C0AA24A39401C0A82E8A2DE4
:1010F000DF91CF911F910F91FF90EF90DF90CF90F4
:10110000BF90AF909F900895CF93DF9300D0CDB75D
:10111000DEB769834A8342E050E0BE016F5F7F4FD4
:101120000E94FE070F900F90DF91CF910895CF930B
:10113000DF93C82FD62F60E00E9483078823A1F099
:101140008D2F0E94DA07882379F061E08C2F0E94AE
:101150008307882349F061E080E090E00E94E9077E
:10116000882311F094E996BFDF91CF910895FF9203
:101170000F931F93CF93DF93C82FD62F8A01F22EA0
:1011800060E00E948307882351F08D2F0E94DA07C8
:10119000882329F04F2DB8018C2F0E943008DF9151
:1011A000CF911F910F91FF90089588EF089581E0EE
:1011B000089588EF089560E00E94830794E996BF40
:1011C0000895862F0E94750381E090E00895FC0148
:1011D0001382128229EA30E0318320830895DB01F3
:1011E000CA0180589B47A14EBF4F880F991FAA1F65
:1011F000BB1F880F991FAA1FBB1F880F991FAA1F0B
:10120000BB1F440F551F661F771F440F551F661FD6
:10121000771F9A01AB01220F331F441F551F220F66
:10122000331F441F551FBC01CD010E94BD23C901BE
:1012300001970E944803089508950E944826089542
:101240000E94482608950E94DD2608950E94DD260A
:101250000895FC0181E090E02081222311F080E0DC
:1012600090E0089521E0FC012083089508950895F9
:10127000FC01808191810E94DD260895CF93DF9348
:10128000EC0188819981009711F00E94DD26198276
:1012900018821D821C821B821A82DF91CF910895D1
:1012A0000F931F93CF93DF93EC018B016F5F7F4F01
:1012B000888199810E947527009731F099838883EE
:1012C0001B830A8381E001C080E0DF91CF911F91F1
:1012D0000F910895CF93DF93FC0120813181232B5F
:1012E00029F0228133812617370770F4EC010E9420
:1012F0005009882361F08C819D81892B39F4E88124
:10130000F981108281E003C081E001C081E0DF91BA
:10131000CF910895EF92FF920F931F93CF93DF9396
:10132000EC017B018A01BA010E946A09811104C0A3
:10133000CE010E943E0907C01D830C83B70188813E
:1013400099810E94C228CE01DF91CF911F910F9108
:10135000FF90EF900895FC01118210821382128297
:10136000158214826115710551F0FB010190002076
:10137000E9F73197AF01461B570B0E948A09089580
:10138000EF92FF920F931F93CF93DF93EC017B01BA
:101390008A01BA010E946A09811104C0CE010E942B
:1013A0003E0907C01D830C83B701888199810E9483
:1013B0008328CE01DF91CF911F910F91FF90EF9085
:1013C0000895CF93DF93EC01FB018617970761F037
:1013D000608171816115710529F0448155810E94F8
:1013E0008A0902C00E943E09CE01DF91CF91089583
:1013F000FC011182108213821282158214820E94D3
:10140000E1090895CF93DF93EC016115710559F05F
:10141000FB0101900020E9F73197AF01461B570B04
:101420000E948A0902C00E943E09CE01DF91CF913D
:101430000895CF93DF9300D0CDB7DEB7FC011182C2
:101440001082138212821582148269831A82BE016D
:101450006F5F7F4F0E94020A0F900F90DF91CF9134
:1014600008950F931F93CF93DF93CDB7DEB72997DE
:101470000FB6F894DEBF0FBECDBF8C01862FF801EA
:1014800011821082138212821582148250E0BE01F2
:101490006F5F7F4F90E00E947D29BE016F5F7F4F9D
:1014A000C8010E94020A29960FB6F894DEBF0FBE4B
:1014B000CDBFDF91CF911F910F9108950F931F938F
:1014C000CF93DF93CDB7DEB762970FB6F894DEBF48
:1014D0000FBECDBF8C01CB01F801118210821382A7
:1014E00012821582148250E0BE016F5F7F4F0E940E
:1014F0000B29BE016F5F7F4FC8010E94020A6296EE
:101500000FB6F894DEBF0FBECDBFDF91CF911F9114
:101510000F9108950F931F93CF93DF93CDB7DEB74D
:1015200061970FB6F894DEBF0FBECDBF8C01CB0123
:10153000F80111821082138212821582148250E007
:10154000BE016F5F7F4F0E947D29BE016F5F7F4F9D
:10155000C8010E94020A61960FB6F894DEBF0FBE62
:10156000CDBFDF91CF911F910F9108950F931F93DE
:10157000CF93DF93CDB7DEB7A2970FB6F894DEBF57
:101580000FBECDBF8C01CB01BA01F80111821082D0
:10159000138212821582148230E0AE014F5F5F4FDA
:1015A0000E942129BE016F5F7F4FC8010E94020A7D
:1015B000A2960FB6F894DEBF0FBECDBFDF91CF91DC
:1015C0001F910F9108950F931F93CF93DF93CDB782
:1015D000DEB7A1970FB6F894DEBF0FBECDBF8C016A
:1015E000CB01BA01F8011182108213821282158296
:1015F000148230E0AE014F5F5F4F0E945029BE0160
:101600006F5F7F4FC8010E94020AA1960FB6F8943F
:10161000DEBF0FBECDBFDF91CF911F910F91089517
:10162000EF92FF920F931F93CF93DF93CDB7DEB767
:10163000A1970FB6F894DEBF0FBECDBF7C01CB01E2
:10164000BA01F7011182108213821282158214826C
:1016500042E0420F8E010F5F1F4F0E942826BC01FF
:10166000C7010E94020AA1960FB6F894DEBF0FBE12
:10167000CDBFDF91CF911F910F91FF90EF90089513
:10168000EF92FF920F931F93CF93DF93CDB7DEB707
:10169000A1970FB6F894DEBF0FBECDBF7C01CB0182
:1016A000BA01F7011182108213821282158214820C
:1016B00042E0420F8E010F5F1F4F0E942826BC019F
:1016C000C7010E94020AA1960FB6F894DEBF0FBEB2
:1016D000CDBFDF91CF911F910F91FF90EF900895B3
:1016E0000F931F93CF93DF938C01EB01209749F069
:1016F000CB010E948A28AC01BE01C8010E94C0092A
:1017000002C00E943E09C801DF91CF911F910F9145
:101710000895FC01118210821382128215821482B4
:101720000E94700B0895EF92FF920F931F93CF9337
:10173000DF93FC012481358161157105D1F04115DC
:101740005105C9F08B01EC017A01E20EF31EB701DD
:101750000E946A09882381F0288139818C819D81CA
:10176000B801820F931F0E94C228FD82EC8281E0A3
:1017700003C080E001C081E0DF91CF911F910F9104
:10178000FF90EF900895FB01448155816081718144
:101790000E94930B08956115710559F0FB010190AA
:1017A0000020E9F73197AF01461B570B0E94930BBE
:1017B000089580E00895CF93DF9300D0CDB7DEB7D2
:1017C00069831A8241E050E0BE016F5F7F4F0E9443
:1017D000930B0F900F90DF91CF910895EF92FF92AE
:1017E0000F931F93CF93DF9300D000D0CDB7DEB718
:1017F0007C01862F4AE08E010F5F1F4FB80190E0F9
:101800000E941629F80101900020E9F73197AF01F5
:10181000401B510BB801C7010E94930B0F900F9012
:101820000F900F90DF91CF911F910F91FF90EF904C
:101830000895EF92FF920F931F93CF93DF93CDB74D
:10184000DEB728970FB6F894DEBF0FBECDBF7C0180
:10185000CB014AE08E010F5F1F4FB8010E9416298D
:10186000F80101900020E9F73197AF01401B510BBF
:10187000B801C7010E94930B28960FB6F894DEBFFB
:101880000FBECDBFDF91CF911F910F91FF90EF90D1
:101890000895EF92FF920F931F93CF93DF93CDB7ED
:1018A000DEB727970FB6F894DEBF0FBECDBF7C0121
:1018B000CB014AE08E010F5F1F4FB8010E948829BB
:1018C000F80101900020E9F73197AF01401B510B5F
:1018D000B801C7010E94930B27960FB6F894DEBF9C
:1018E0000FBECDBFDF91CF911F910F91FF90EF9071
:1018F0000895EF92FF920F931F93CF93DF93CDB78D
:10190000DEB72E970FB6F894DEBF0FBECDBF7C01B9
:10191000CB01BA012AE08E010F5F1F4FA8010E9480
:101920002C29F80101900020E9F73197AF01401B05
:10193000510BB801C7010E94930B2E960FB6F89475
:10194000DEBF0FBECDBFDF91CF911F910F91FF90F2
:10195000EF900895EF92FF920F931F93CF93DF9331
:10196000CDB7DEB72D970FB6F894DEBF0FBECDBF53
:101970007C01CB01BA012AE08E010F5F1F4FA80145
:101980000E945B29F80101900020E9F73197AF012F
:10199000401B510BB801C7010E94930B2D960FB647
:1019A000F894DEBF0FBECDBFDF91CF911F910F9195
:1019B000FF90EF900895EF92FF920F931F93CF93B4
:1019C000DF93CDB7DEB764970FB6F894DEBF0FBED6
:1019D000CDBF7C01CB01BA018E010F5F1F4F22E00A
:1019E00044E00E942826BC01FC0101900020E9F798
:1019F0003197AF01481B590BC7010E94930B6496A6
:101A00000FB6F894DEBF0FBECDBFDF91CF911F910F
:101A10000F91FF90EF900895EF92FF920F931F9315
:101A2000CF93DF93CDB7DEB764970FB6F894DEBFE0
:101A30000FBECDBF7C01CB01BA018E010F5F1F4FDE
:101A400022E044E00E942826BC01FC010190002015
:101A5000E9F73197AF01481B590BC7010E94930B5F
:101A600064960FB6F894DEBF0FBECDBFDF91CF9165
:101A70001F910F91FF90EF900895EF92FF920F93B7
:101A80001F93CF93DF9361157105F1F08B01EC018A
:101A9000CB010E948A280097C9F0EC80FD80E80EF7
:101AA000F91EB701CE010E946A09882381F02881BE
:101AB00039818C819D81B801820F931F0E948328F8
:101AC000FD82EC8281E003C080E001C081E0DF9113
:101AD000CF911F910F91FF90EF900895CF93DF93D7
:101AE000EC01FB0144815581608171810E94930B5F
:101AF000811103C0CE010E943E09CE01DF91CF913A
:101B00000895CF93DF93EC016115710561F0FB013E
:101B100001900020E9F73197AF01461B570B0E9457
:101B2000930B811103C0CE010E943E09CE01DF91CB
:101B3000CF910895CF93DF93EC010E94DB0B8111CD
:101B400003C0CE010E943E09CE01DF91CF910895DE
:101B5000CF93DF93EC010E94EE0B811103C0CE0105
:101B60000E943E09CE01DF91CF910895CF93DF937C
:101B7000EC010E94190C811103C0CE010E943E09A4
:101B8000CE01DF91CF910895CF93DF93EC010E94B6
:101B9000490C811103C0CE010E943E09CE01DF91A4
:101BA000CF910895CF93DF93EC010E94790C8111BE
:101BB00003C0CE010E943E09CE01DF91CF9108956E
:101BC000CF93DF93EC010E94AA0C811103C0CE01D8
:101BD0000E943E09CE01DF91CF910895CF93DF930C
:101BE000EC010E94DB0C811103C0CE010E943E0972
:101BF000CE01DF91CF910895CF93DF93EC010E9446
:101C00000C0D811103C0CE010E943E09CE01DF916F
:101C1000CF910895CF93DF93EC010E943D0D811188
:101C200003C0CE010E943E09CE01DF91CF910895FD
:101C3000DC01ED91FC91309741F1DB016D917C91DC
:101C400061157105C1F40DC0DB0114968D919C9155
:101C50001597892BA1F0808190E09195819591094C
:101C60000895DC0114968D919C911597892B51F064
:101C7000808190E00895CF010E94B928089580E006
:101C800090E0089580E090E00895DB01ED91FC91F3
:101C90003097D1F680E090E00895FC0144815581B1
:101CA000FB01248135814217530739F40E94180E35
:101CB00021E0892B19F020E001C020E0822F089557
:101CC000DC0114962D913C911597232B61F461153D
:101CD000710539F021E0FB0180818823C9F020E003
:101CE00017C021E015C06115710549F4DC01ED91C3
:101CF000FC9121E08081882359F020E009C0FC019B
:101D0000808191810E94B92821E0892B09F020E08F
:101D1000822F08950E94180E892F881F8827881FF8
:101D200008950E94180E21E0181619060CF020E004
:101D3000822F08950E94180E21E0181619060CF43F
:101D400020E0822F08950E94180E892F8095881F09
:101D50008827881F0895EF92FF920F931F93CF93C8
:101D6000DF938617970719F1FC0124813581FB0168
:101D70004481558124173507E1F4232BE1F0DC0180
:101D8000CD91DC91008111810DC090E00E947328FB
:101D90007C01F80181918F0190E00E947328E81680
:101DA000F90659F489918111F0CF81E007C081E0F3
:101DB00005C080E003C081E001C080E0DF91CF91E9
:101DC0001F910F91FF90EF900895DB011496ED9114
:101DD000FC911597DC0114962D913C9115972E1BC3
:101DE0003F0B24173507B0F02D913C91211531059B
:101DF00099F0DB016D917C916115710579F0CA0153
:101E0000AF01820F931F0E94C92821E0892B39F06E
:101E100020E005C020E003C020E001C020E0822FC8
:101E20000895FC0144815581FB01248135814217CD
:101E3000530728F040E050E00E94E50E089580E04E
:101E40000895FC0124813581FB01448155812417CB
:101E50003507B0F0FC0180819181009799F0FB017A
:101E6000608171816115710579F0241B350B820F3A
:101E7000931F0E94B92821E0892B39F020E005C08A
:101E800020E003C020E001C020E0822F0895FC0183
:101E9000248135816217730730F480819181FC01C0
:101EA000E60FF71F40830895FC01248135816217F6
:101EB000730720F480819181009729F41092B40275
:101EC00084EB92E00895860F971F0895FC0124810A
:101ED00035816217730748F480819181009739F04A
:101EE000FC01E60FF71F8081089580E0089580E0EF
:101EF00008950E94660F08950F931F93CF93DF9369
:101F00004115510519F16115710501F1DC011496B6
:101F1000ED91FC9115972E173F0718F0FB011082E9
:101F200015C0E21BF30BEA012197EC17FD0708F43B
:101F3000EF018B01FC0160817181620F731FAE01A3
:101F4000C8010E94D728C00FD11F1882DF91CF91FE
:101F50001F910F910895CF93DF93FC012481358168
:101F60004217530768F4C081D18170E0CE01840F1D
:101F7000951F0E94AE28009731F08C1B9D0B05C069
:101F80008FEF9FEF02C08FEF9FEFDF91CF9108950A
:101F900040E050E00E94AB0F0895CF93DF93FC0127
:101FA000248135814217530780F4FB01DC01CD9178
:101FB000DC9160817181CE01840F951F0E94F12810
:101FC000009731F08C1B9D0B05C08FEF9FEF02C077
:101FD0008FEF9FEFDF91CF91089540E050E00E9496
:101FE000CD0F0895DF92EF92FF920F931F93CF933F
:101FF000DF93DC0114962D913C91159742175307FE
:10200000D8F48C01EA012196ED91FC911197EC0F27
:10201000FD1FD0801082ED90FC9070E0C7010E94FF
:10202000E628CE0DDF1DD882009749F0F801208107
:102030003181821B930B05C08FEF9FEF02C08FEFA2
:102040009FEFDF91CF911F910F91FF90EF90DF9065
:102050000895FC0144815581415051090E94F20FBD
:102060000895AF92BF92CF92DF92EF92FF920F93BB
:102070001F93CF93DF938A01FB0144815581411562
:102080005105C9F1FC012481358121153105B1F1DA
:1020900024173507B0F10217130718F08901015012
:1020A0001109FC01C081D1817E01E00EF11EEC1608
:1020B000FD06D0F0FB01C080D180CE01AA24AA94F5
:1020C000BB24BA94B6010E94F128009789F09C01C4
:1020D0002C1B3D0B0217130710F0A22EB32E0196F6
:1020E000E816F90678F704C0AA24AA94BB24BA9487
:1020F0008A2D9B2D08C08FEF9FEF05C08FEF9FEFBC
:1021000002C08FEF9FEFDF91CF911F910F91FF9052
:10211000EF90DF90CF90BF90AF900895FC01448185
:102120005581FB0124813581421B530B0E943110E4
:102130000895BF92CF92DF92EF92FF920F931F9379
:10214000CF93DF937C016B018A01E90124173507E6
:1021500020F4812F8901C42FD82F6AE271E0C701D2
:102160000E94AB09D60114968D919C91159780170A
:102170009107D0F08C179D0708F4EC01D601ED9182
:10218000FC911197EC0FFD1FB08010824D915C9176
:10219000BA01600F711FC7010E94020AF601808117
:1021A0009181C80FD91FB882C701DF91CF911F91CC
:1021B0000F91FF90EF90DF90CF90BF900895DC01DA
:1021C000ED91FC91309751F08081882339F086138E
:1021D00001C04083319680818111F9CF08952F92FB
:1021E0003F924F925F926F927F928F929F92AF92A7
:1021F000BF92CF92DF92EF92FF920F931F93CF93F4
:10220000DF93FC01448055804114510409F4BCC0A3
:10221000FB01648075806114710409F4B5C0EA01A2
:102220007B018C01CC80DD80C618D708C601F8017F
:1022300080809180C114D10461F015C068817981DA
:102240004C815D81C8010E9493288C809D80800E06
:10225000911EF70160817181C4010E94F1288C01F7
:10226000892B61F791C099233CF1FB0120803180DB
:10227000520136C05301A818B908A501B401C20122
:102280000E949328A40CB51C688179814C815D81E2
:10229000C5010E9493284C805D804A0C5B1CF701AD
:1022A00084809580860C971CF801848195818C0D23
:1022B0009D1D9583848301C02401F7016081718194
:1022C000C4010E94F1283C01892BA1F6B401C2018E
:1022D0000E94C22859C04C01860C971CAC0CBD1C36
:1022E000B101C4010E94F1280097A9F7A414B50414
:1022F00009F44AC0F801828193818A159B0530F464
:10230000B501C8010E9450098823F1F1F801448108
:102310005581415051092FC0F80180819181F70109
:10232000248135812A0D3B1D820F931FF8014481C2
:102330005581421B530BBC018C0D9D1D0E949C2896
:10234000F801848195818C0D9D1D95838483208166
:102350003181F901E80FF91F1082F8018081918124
:10236000688179814C815D818A0D9B1D0E94932833
:10237000A5014150510955233CF0B701C8010E9405
:1023800031105C01992344F6DF91CF911F910F9199
:10239000FF90EF90DF90CF90BF90AF909F908F9085
:1023A0007F906F905F904F903F902F900895CF93C4
:1023B000DF93EC01CB012C813D816217730720F57F
:1023C0004115510509F1640F751F2617370718F4D9
:1023D000A901481B590BA881B981241B350B3D83EA
:1023E0002C83281B390B480F591FBD01640F751F23
:1023F000A9018A0F9B1F0E94D728E881F9818C814F
:102400009D81E80FF91F1082DF91CF910895FC01A3
:10241000448155816417750720F4461B570B0E94B1
:10242000D7110895CF93DF93FC01C081D18120970C
:1024300051F08881882339F090E00E9473288993B5
:1024400088818111F9CFDF91CF910895CF93DF93E8
:10245000FC01C081D181209751F08881882339F017
:1024600090E00E947B28899388818111F9CFDF91C8
:10247000CF910895AF92BF92CF92DF92EF92FF92E9
:102480000F931F93CF93DF93DC01CD90DC901197D6
:10249000C114D104E9F11496CD91DC9115972097E0
:1024A000B9F17C0156018501BFEFAB1ABB0AF801F7
:1024B000808190E00E946A28892BA9F72197CC0D92
:1024C000DD1D01C02197888190E00E946A28892B38
:1024D00019F0C017D107B0F7AE014F5F5F4F401B37
:1024E000510BD70115965C934E931497C016D106E5
:1024F00020F4B801C6010E949328D701ED91FC9108
:10250000119714968D919C911597E80FF91F1082E1
:10251000DF91CF911F910F91FF90EF90DF90CF90BF
:10252000BF90AF900895FC0180819181009719F0D0
:102530000E944328089560E070E0CB010895FC01FB
:1025400080819181009719F00E943F28089560E0F2
:1025500070E0CB0108950895FC01738362830895B0
:10256000FC0166830895CF93DF93EC01662389F025
:10257000E881F9818FEF808341E069858F819885BB
:102580000E946E1341E06A858F8198850E946E13C8
:102590000FC0E881F981108240E069858F819885BC
:1025A0000E946E1340E06A858F8198850E946E13A9
:1025B0008F8198850E949A13DF91CF910895EF92B1
:1025C000FF920F931F93CF93DF93EC01822F6987C4
:1025D0004A8718870F83F982E88261E00E947C02B3
:1025E00060E0CE010E94B3121B821A821D821C82FF
:1025F00085E08E83DF91CF911F910F91FF90EF9037
:1026000008950F931F93CF93DF93EC018B01611516
:10261000710521F460E00E94B31230C0161617064F
:102620006CF440E069858F8198850E946E1341E0CB
:102630006A858F8198850E946E130CC041E0698580
:102640008F8198850E946E1340E06A858F819885FE
:102650000E946E138F8198850E949A13C801992356
:1026600024F488279927801B910BE881F9818F3FFB
:10267000910519F014F08FEF90E08083DF91CF91F6
:102680001F910F910895FC014281538184819581AE
:1026900048175907D1F0268130E0BC01620F731F43
:1026A000461757071CF0758364830AC0821B930B7F
:1026B000841795071CF09583848302C05583448357
:1026C000CF01648175810E9401130895FC0110827D
:1026D00021E021830895FC0162830895FC0120819B
:1026E000442351F081E090E002C0880F991F6A9561
:1026F000E2F7822B80830AC081E090E002C0880F5D
:10270000991F6A95E2F780958223808380818217E2
:1027100011F081E081830895CF93DF93EC018A81EA
:1027200021E0AE0160E08F5F0E94B7088881DF91F1
:10273000CF910895CF93DF93FC012181222341F0B3
:10274000EC0141E050E0BC0182810E94FE07198249
:10275000DF91CF910895CF92DF92EF92FF920F9386
:102760001F93CF93DF9341155105B1F08C01E62EF5
:10277000F72EEA01C12CD12CD7016D917D01D80132
:10278000ED91FC910190F081E02DC8010995C80EF2
:10279000D91E219789F702C0C12CD12CC601DF9127
:1027A000CF911F910F91FF90EF90DF90CF90089500
:1027B000EF92FF920F931F93CF93DF93EB0121963C
:1027C000FB016491662399F08C01E12CF12CD80176
:1027D000ED91FC910190F081E02DC8010995E80E82
:1027E000F91EFE01649121966111F1CF02C0E12C26
:1027F000F12CC701DF91CF911F910F91FF90EF90C6
:102800000895DC01ED91FC91DB0114964D915C91F2
:1028100015976D917C910280F381E02D09950895C3
:102820006115710581F0FB0101900020E9F73197F6
:10283000AF01461B570BDC01ED91FC910280F38147
:10284000E02D0995089580E090E00895DC01ED9178
:10285000FC910190F081E02D09950895DB01ED9147
:10286000FC9111970190F081E02DBC01CD010995FB
:1028700008950F931F93CF93DF93EC016DE00E94B7
:1028800026148C016AE0CE010E942614800F911F4D
:10289000DF91CF911F910F9108950F931F93CF93C5
:1028A000DF93EC010E94D8138C01CE010E943914F1
:1028B000800F911FDF91CF911F910F9108950F937A
:1028C0001F93CF93DF93EC010E9401148C01CE0182
:1028D0000E943914800F911FDF91CF911F910F91AA
:1028E00008950F931F93CF93DF93EC010E94101470
:1028F0008C01CE010E943914800F911FDF91CF917E
:102900001F910F9108950F931F93CF93DF93EC01C5
:102910000E9426148C01CE010E943914800F911F51
:10292000DF91CF911F910F9108950F931F93CF9334
:10293000DF93EC010E942E148C01CE010E94391409
:10294000800F911FDF91CF911F910F9108954F92AA
:102950005F926F927F929F92AF92BF92CF92DF92DF
:10296000EF92FF920F931F93CF93DF93CDB7DEB714
:10297000A1970FB6F894DEBF0FBECDBF5C016A0110
:102980007B01922E19A281E0821720F00F2EFAE02F
:102990009F2EF02D8E010F5D1F4F492C512C612C65
:1029A000712CC701B601A30192010E94BD238C2D99
:1029B000929E80191124015011098A3010F4805D13
:1029C00001C0895CD8018C93C22ED32EE42EF52E43
:1029D000C114D104E104F10421F70115110591F0AE
:1029E000F80101900020E9F73197AF01401B510B2E
:1029F000D501ED91FC910280F381E02DB801C50174
:102A0000099502C080E090E0A1960FB6F894DEBF71
:102A10000FBECDBFDF91CF911F910F91FF90EF902F
:102A2000DF90CF90BF90AF909F907F906F905F901E
:102A30004F900895CF92DF92EF92FF920F931F93E2
:102A4000CF93DF93EC016A017B012115310541F43D
:102A5000E881F9810190F081E02D642F09951DC076
:102A60002A303105C1F4772394F46DE20E942614D4
:102A70008C0144275527BA014C195D096E097F095D
:102A80002AE0CE010E94A714800F911F06C02AE001
:102A90000E94A71402C00E94A714DF91CF911F913A
:102AA0000F91FF90EF90DF90CF9008959A01AB01C6
:102AB000770F660B770B0E941A1508950F931F93DB
:102AC000CF93DF93EC010E941A158C01CE010E9476
:102AD0003914800F911FDF91CF911F910F910895AD
:102AE0000F931F93CF93DF93EC019A01AB01770F04
:102AF000660B770B0E941A158C01CE010E943914C7
:102B0000800F911FDF91CF911F910F910895211593
:102B1000310549F4DC01ED91FC910190F081E02D4B
:102B2000642F099508950E94A71408959A01462FCD
:102B300050E060E070E00E94871508959A01AB01B3
:102B400060E070E00E94871508950F931F93CF9364
:102B5000DF93EC010E9487158C01CE010E9439148D
:102B6000800F911FDF91CF911F910F9108950F93C7
:102B70001F93CF93DF93EC019A01AB0160E070E00B
:102B80000E9487158C01CE010E943914800F911F7D
:102B9000DF91CF911F910F9108950F931F93CF93C2
:102BA000DF93EC019A01462F50E060E070E00E9454
:102BB00087158C01CE010E943914800F911FDF917F
:102BC000CF911F910F9108954F925F927F928F92B4
:102BD0009F92AF92BF92CF92DF92EF92FF920F93AC
:102BE0001F93CF93DF9300D000D0CDB7DEB78C0119
:102BF0004A015B01722E9A01AB01C501B4010E942A
:102C00002326882331F06DEA70E0C8010E94101479
:102C1000D2C075016401E894F7F82FEF3FEF4FE75A
:102C20005FE7C701B6010E942326811110C02FEF74
:102C30003FEF4FE75FE7C701B6010E945224181625
:102C400034F461EB70E0C8010E941014B4C02FEF9F
:102C50003FEF4FE75FE4C501B4010E94B1251816AC
:102C600034F465EB70E0C8010E941014A4C02FEF8B
:102C70003FEF4FE75FECC501B4010E945224882367
:102C800034F465EB70E0C8010E94101494C020E099
:102C900030E0A901C501B4010E945224882354F4F4
:102CA0006DE2C8010E9426147C01B7FAB094B7F80F
:102CB000B09402C0E12CF12C772009F467C0D12C2C
:102CC00060E070E080E09FE320E030E040E251E42B
:102CD0000E945724D394D710F7CF2BC020E030E0C8
:102CE00040E251E4C501B4010E94B6254B015C01EC
:102CF0000E94C9246B01770FEE08FF082AE030E03C
:102D0000B701A601C8010E941A15480E591EC70135
:102D1000B6010E9401259B01AC01C501B4010E94CE
:102D2000E5234B015C017A947110D8CF842D952D49
:102D300042C09B01AC01C501B4010E94E6234B01D6
:102D40005C010E94D02469837A838B839C830E94D8
:102D5000FF249B01AC01C501B4010E94E5234B0196
:102D60005C012AE030E049815A816B817C81C80195
:102D70000E9487156C016FEE70E0C8010E9410146C
:102D80008C0D9D1D2C014E0C5F1CA8CF20E030E067
:102D900040E05FE3C501B4010E94E6230E94D02415
:102DA000AB01BC012AE030E0C8010E9487152C016C
:102DB0004E0C5F1CBBCF0F900F900F900F90DF91C8
:102DC000CF911F910F91FF90EF90DF90CF90BF9028
:102DD000AF909F908F907F905F904F9008950E944A
:102DE000E41508950F931F93CF93DF93EC010E9496
:102DF000E4158C01CE010E943914800F911FDF91E0
:102E0000CF911F910F9108959091B702981306C02A
:102E1000AF982091B80292130EC007C0811161C013
:102E2000992309F459C0AF9A57C0AE989091B9024E
:102E300098130EC007C091115EC0222309F456C03A
:102E4000AE9A54C0AD989091BA0298130EC007C0C4
:102E5000811156C0992309F458C0AD9A56C0AC9858
:102E60009091BB0298130EC007C0811158C09923DE
:102E700009F450C0AC9A4EC094989091BC0298133B
:102E80000EC007C0811155C0992309F44DC0949A12
:102E90004BC095989091BD0298130EC007C0811148
:102EA00052C0992309F44AC0959A48C096989091C7
:102EB000BE0298130AC007C081114AC0992309F4C1
:102EC0004CC0969A4AC097980895811169C0992379
:102ED00009F466C0979A08959091B8029111B0CF05
:102EE000A4CF9091B80298133DC09FCF9091B902A2
:102EF0009813B0CFA7CF2091B902921338C0A2CFB8
:102F00009091BA02981338C0AACF9091BA02981340
:102F1000AECFA5CF9091BB029813B6CFADCF909115
:102F2000BB0298132EC0A8CF9091BC029813B9CFC2
:102F3000B0CF9091BC02981329C0ABCF9091BD0245
:102F40009813BCCFB3CF9091BD02981324C0AECFDD
:102F50009091BE02981324C0B6CF9091BE029813F0
:102F6000B6CFB1CF9091B9029813CACF6BCF9091E1
:102F7000BA029813D4CF73CF9091BB029813D9CFD4
:102F80007BCF9091BC029813DECF83CF9091BD028E
:102F90009813DECF8BCF9091BE02981709F493CF90
:102FA00008958091D7028330B8F09091CC0280B31D
:102FB00023B3E92FF0E0E353FD4F22952F70807F7C
:102FC000822B80839F5F9B3018F49093CC0202C0C9
:102FD0001092CC021092D7028091D7028F5F80931B
:102FE000D70208958091C502811102C0C0980FC018
:102FF0002091CB0290E0820F911D2091C902309167
:10300000CA028217930710F0C09A01C0C09880913D
:10301000C602811102C0C1980FC02091CB0290E07E
:10302000820F911D2091C9023091CA028217930725
:1030300010F0C19A01C0C1988091C702811102C0ED
:10304000C2980FC02091CB0290E0820F911D209179
:10305000C9023091CA028217930710F0C29A01C0C8
:10306000C2988091C802811102C0C3980FC02091FC
:10307000CB0290E0820F911D2091C9023091CA02CB
:103080008217930710F0C39A01C0C3988091C302BE
:10309000811102C0A8980FC02091CB0290E0820F4E
:1030A000911D2091C9023091CA028217930710F036
:1030B000A89A01C0A8988091C402811102C0979873
:1030C0000FC02091CB0290E0820F911D2091C90288
:1030D0003091CA028217930710F0979A01C097980F
:1030E0008091C9029091CA02009751F48091CB025D
:1030F00090E081509F4F9093CA028093C902089537
:1031000001979093CA028093C90208958091BF02EB
:1031100081110CC08091B5029091B6020E944313B8
:103120008091BF028F5F8093BF0208958091BF029C
:10313000813069F48091B5029091B6020B960E949D
:1031400043138091BF028F5F8093BF0208958091E7
:10315000BF02823069F48091B5029091B602469622
:103160000E9443138091BF028F5F8093BF02089536
:103170008091B5029091B60281960E9443131092FD
:10318000BF0208951F920F920FB60F9211242F9332
:103190003F934F935F936F937F938F939F93AF93DF
:1031A000BF93EF93FF938091C202811106C00E94EA
:1031B000F21781E08093C20231C0813031F40E9465
:1031C000D11782E08093C20229C01092C20280917E
:1031D000C0029091C102883022E0920739F40E9427
:1031E00086181092C1021092C0020FC08130910562
:1031F00021F480E00E94041708C09C012451310989
:103200002932310510F40E9404178091C002909178
:10321000C10201969093C1028093C0020E941D02D8
:10322000FF91EF91BF91AF919F918F917F916F919E
:103230005F914F913F912F910F900FBE0F901F9074
:1032400018952F923F924F925F926F927F928F923A
:103250009F92AF92BF92CF92DF92EF92FF920F9325
:103260001F93CF93DF934C01EC018C01045D1F4F42
:10327000CE010E94AB122B96C017D107C9F7C4012B
:103280008C960E94E708640180E3C80ED11CC60139
:103290000E9466131401E3E32E0E311CC1010E944B
:1032A00066130E94750284E690E00E9452070E9415
:1032B000AE06F40110AE62E087E10E947C0261E09C
:1032C00087E10E94BB02F40116AA62E088E10E9435
:1032D0007C0261E088E10E94BB02F40117AAC6E803
:1032E000D0E00EE810E062E089910E947C02C017F5
:1032F000D107C9F7C2E9D0E00AE910E060E089919E
:103300000E947C02C017D107C9F762E084E00E94E6
:103310007C0262E085E00E947C0262E086E00E941E
:103320007C0262E087E00E947C0261E08FE00E9404
:103330007C0261E080E10E947C0260E7C1010E94A2
:103340006B136EE7C6010E946B130F2EF2E86F2E0F
:10335000F0E07F2EF02DCBE7D0E054010F2EF5ECFE
:10336000CF2EF2E0DF2EF02D0F2EF6E84F2EF0E0FC
:103370005F2EF02DF30121913F01FE01319776017F
:10338000810148816081C5010E94DF122296FBE025
:10339000AF0EB11C8FEFC81AD80A6414750451F728
:1033A000E3ECF2E010821182E7EBF2E08FEB92E0C7
:1033B0001192E817F907E1F79092B6028092B502F0
:1033C000DF91CF911F910F91FF90EF90DF90CF9001
:1033D000BF90AF909F908F907F906F905F904F9035
:1033E0003F902F9008950F931F93CF93DF93EC019D
:1033F0008C01045D1F4F60E070E0CE010E94AC12B2
:103400002B96C017D107B9F7DF91CF911F910F917C
:10341000089577231CF47195619571096F3F7105CB
:1034200019F014F06FEF70E06093CB020895FF92F3
:103430000F931F93CF93DF93623098F48C01C62FC4
:10344000D0E0FE01E858FF4FF08061E08F2D0E9430
:103450007C0261E08F2D0E94BB02C00FD11F81E072
:103460008EABDF91CF911F910F91FF900895EF9256
:10347000FF920F931F93CF93DF936230A0F4142F2A
:103480007C01C62FD0E0FE01E858FF4F008161E0CB
:10349000802F0E947C02CE0DDF1D61E06EAB6127A4
:1034A000802F0E94BB02DF91CF911F910F91FF905F
:1034B000EF900895442349F0623070F4E62FF0E075
:1034C000ED53FD4F8FEF80830895623028F4E62F8F
:1034D000F0E0ED53FD4F10820895623028F4E62F9E
:1034E000F0E0ED53FD4F408308951F93CF93DF939A
:1034F000162FC42FD0E0FE01EA57FF4F61E0808114
:103500000E947C02612F70E080E090E00E94012523
:1035100021EA30EA40E25EE30E94B6250E94D02410
:10352000C954DD4F693208F068E26C5E6883DF9150
:10353000CF911F910895CF93DF93C62FD0E0FE0166
:10354000EA57FF4F62E080810E947C02C954DD4F40
:103550001882DF91CF910895EF92FF920F931F93FE
:10356000CF93DF93623090F58C01C62FD0E0FC0141
:10357000EC0FFD1F86A98823D9F0FE01E858FF4F04
:10358000F0808F2D0E94DA02E82E60E08F2D0E94DD
:103590007C02C00FD11F1EAA8F2D0E94DA02C1E04B
:1035A000892B09F0C0E06E2D8F2D0E94BB0209C04F
:1035B000C858DF4F88810E94DA02C1E0892B09F0E8
:1035C000C0E081E0C11103C080E001C080E0DF9174
:1035D000CF911F910F91FF90EF9008950F931F933C
:1035E000CF938C01C62F623060F46C2FC8010E940B
:1035F000AC1A8823D1F36C2FC8010E94AC1A811138
:10360000FACFCF911F910F910895683078F4E62F8B
:10361000F0E0EE56FF4F80810E94BB0699230CF428
:1036200003969595879595958795089580E00895DB
:10363000CF93C62F643080F06C30F8F4C0960E94AF
:103640008C1390E0ECEFEC0F02C095958795EA950E
:10365000E2F7282F217012C0E62FF0E0E257FF4F6B
:10366000C08162E08C2F0E947C028C2F0E94DA02C3
:1036700021E0892B19F020E001C020E0822FCF91BA
:1036800008951F93CF93DF93142F643070F4E62FC7
:10369000F0E0E257FF4FC08161E08C2F0E947C0276
:1036A000612F8C2F0E94BB020BC06C3048F4EC01E0
:1036B000E0966450CE010E946E13CE010E949A13D0
:1036C000DF91CF911F910895CF93DF93C62FE62FFF
:1036D000F0E0EA57FF4FD08162E08D2F0E947C021C
:1036E000C83040F48D2F0E94DA0221E0892B19F0B6
:1036F00020E001C020E0822FDF91CF910895CF9389
:10370000C62FE62FF0E0EA57FF4F62E080810E946B
:103710007C02C430D8F483E08C1B8430C8F441E0D0
:1037200050E002C0440F551F8A95E2F7EDECF2E03D
:1037300067ED72E080E0219130E024233523232BD4
:1037400009F08F5FE617F707B1F703C080E001C00B
:1037500080E0CF910895FB0180819181A281B381A6
:103760000097A105B10539F08F3F9105A105B1057D
:1037700009F018F4089580E008958FEF08950F93ED
:103780001F93CF93DF9300D000D0CDB7DEB7643066
:10379000C0F48C01E62FF0E0E257FF4F2CED35E04E
:1037A00040E050E060E080810E94DE0569837A831A
:1037B0008B839C83BE016F5F7F4FC8010E94AB1B50
:1037C00001C080E00F900F900F900F90DF91CF918C
:1037D0001F910F9108950F931F93CF938C01045D58
:1037E0001F4F61EC70E0C8010E947114C2E08C2F81
:1037F0000E94DB08882381F065ED70E0C8010E941B
:10380000101440E150E06C2FC8010E94961560EE44
:1038100070E0C8010E947114CE5FC43F41F767EEAB
:1038200070E0C8010E947114CF911F910F9108950B
:103830008091CB0290E081509F4F9093CA02809379
:10384000C90208950F931F93CF93DF93EC010E9459
:103850003A02688779878A879B87E881F9810680A1
:10386000F781E02DCE0109959923BCF40E943A021C
:10387000088519852A853B85DC01CB01801B910BCE
:10388000A20BB30B0C811D812E813F818017910704
:10389000A207B30710F38FEF9FEFDF91CF911F9136
:1038A0000F9108950F931F93CF93DF93EC010E9424
:1038B0003A02688779878A879B87E881F981008443
:1038C000F185E02DCE0109959923BCF40E943A02BE
:1038D000088519852A853B85DC01CB01801B910B6E
:1038E000A20BB30B0C811D812E813F8180179107A4
:1038F000A207B30710F38FEF9FEFDF91CF911F91D6
:103900000F9108950F931F93CF93DF93EC01162F20
:10391000042FCE010E94521C9C01992324F18D3268
:10392000910519F1C0970A9718F1002319F02E326A
:10393000310509F1113011F1123069F42D303105E2
:1039400051F034F4295031092230310520F019C0EA
:1039500020323105B1F4E881F9810680F781E02D4C
:10396000CE010995D6CF932F0EC08DE290E00BC00B
:10397000822F932F08C08EE290E005C08FEF9FEF5B
:1039800002C08FEF9FEFDF91CF911F910F910895AC
:10399000FC01448355836683778308954F925F9239
:1039A0006F927F92AF92BF92CF92DF92EF92FF928F
:1039B0000F931F93CF93DF93EC01042F40E00E94FD
:1039C000821C99230CF452C0C12CD12C7601B12C4D
:1039D00010E0AA24A3940817190751F18D3291051C
:1039E00031F19C01205331092A30310508F5CC0C06
:1039F000DD1CEE1CFF1C26013701440C551C661C07
:103A0000771C440C551C661C771CC40CD51CE61C8A
:103A1000F71CAC01990F660B770BC40ED51EE61E82
:103A2000F71E80E3C81AD108E108F10801C0BA2CDA
:103A3000E881F9810680F781E02DCE010995CE015C
:103A40000E94521C9C01205331092A30310518F282
:103A50000817190709F4BFCFBB2061F06627772745
:103A6000CB016C197D098E099F0906C060E070E0EA
:103A7000CB0102C0C701B601DF91CF911F910F9119
:103A8000FF90EF90DF90CF90BF90AF907F906F90BE
:103A90005F904F9008955F926F927F928F929F9266
:103AA000AF92BF92CF92DF92EF92FF920F931F934C
:103AB000CF93DF93EC01042F41E00E94821CFC01B4
:103AC00099230CF47FC00F2E812C912CF0E8AF2E9F
:103AD000FFE3BF2EF02DC12CD12C7601712C512C7F
:103AE00010E0662463940E171F07C9F1ED32F1054B
:103AF00099F1EE32F10591F1CF01C0970A9778F56F
:103B0000CC0CDD1CEE1CFF1CB701A601440F551F99
:103B1000661F771F440F551F661F771FC40ED51EE3
:103B2000E61EF71EAF01FF0F660B770BC40ED51E06
:103B3000E61EF71E80E3C81AD108E108F1087720D5
:103B400071F02DEC3CEC4CEC5DE3C501B4010E943E
:103B5000B6254B015C0103C0562C01C0762CE881D0
:103B6000F9810680F781E02DCE010995CE010E94F2
:103B7000521CFC01C0970A9708F4B5CFEE32F1054C
:103B800019F4772009F4AFCF0E171F0709F4ABCF54
:103B9000552041F0F094E094D094C094C11CD11C05
:103BA000E11CF11C772049F0C701B6010E940125F4
:103BB000A50194010E94B62508C0C701B6010E9464
:103BC000012503C060E070E0CB01DF91CF911F9130
:103BD0000F91FF90EF90DF90CF90BF90AF909F90AC
:103BE0008F907F906F905F900895CF92DF92EF92C9
:103BF000FF920F931F93CF93DF936C017A01452BB4
:103C000091F0062F172FC0E0D0E0C6010E94221CC1
:103C1000992344F0F80181938F012196CE15DF0599
:103C2000A1F701C07E01C701DF91CF911F910F91D4
:103C3000FF90EF90DF90CF900895AF92BF92CF9218
:103C4000DF92EF92FF920F931F93CF93DF93211593
:103C50003105D9F079016C01C42FD52FA12CB12CDD
:103C6000062F10E0C6010E94221C99235CF0081761
:103C7000190741F089938FEFA81AB80AAE14BF0450
:103C800089F757018A2D9B2D02C080E090E0DF91DB
:103C9000CF911F910F91FF90EF90DF90CF90BF9049
:103CA000AF9008950F931F93CF93DF93EC018B0197
:103CB0006AE271E00E94AB09C8010E94221C9923AC
:103CC0004CF0682FCE010E94DB0BC8010E94221C21
:103CD0009923BCF7CE01DF91CF911F910F910895E9
:103CE000EF92FF920F931F93CF93DF938C017B0191
:103CF000C42F6AE271E00E94AB09C7010E94221C36
:103D0000992384F0D0E08C179D0761F0682FC801DB
:103D10000E94DB0BC7010E94221C99231CF08C1708
:103D20009D07A1F7C801DF91CF911F910F91FF90DF
:103D3000EF9008952F923F924F925F926F927F92F1
:103D40008F929F92AF92BF92CF92DF92EF92FF92AB
:103D50000F931F93CF93DF9300D000D0CDB7DEB782
:103D60009A8389833B014A01880C991C840E951E15
:103D7000880C991C860E971E6815790510F5DB01D5
:103D800012968D919C911397892B39F0FB0115C0E8
:103D900082819381892B89F401C0FB019F0126193F
:103DA0003709359527954BEA5AEA249FC001259F8C
:103DB000900D349F900D11249EC03696E815F9059C
:103DC00038F3362C272CB12CA12C89819A810E94A2
:103DD000221C6C0199230CF48CC068147904A8F798
:103DE000A32DB22D4D915C91119714960D911C91BC
:103DF0001597FA01E00FF11F808190E08C159D0569
:103E0000E9F40F5F1F4F15961C930E9314971296AB
:103E10008D919C9113970817190709F064C09D01B3
:103E200026193709359527954BEA5AEA249FC00190
:103E3000259F900D349F900D11245DC00115110533
:103E400009F451C07A01EFEFEE1AFE0A2D01D201FA
:103E500014966D917C9115979B012150310915960F
:103E60003C932E931497FA01E20FF31F808190E0A8
:103E70008C159D05A1F52115310529F415967C9326
:103E80006E93149730C0F801E21BF30BCA018E0F3A
:103E90009F1F9C838B83DA019C91AB81BC818C91A9
:103EA0009813D5CFD7013196E40FF51F8B2D9A2D9E
:103EB0005C824B8204C04D905190451004C0019625
:103EC00082179307C0F34B805C808217930709F039
:103ED000BECFD20115967C936E93149704C0232B0A
:103EE00009F0B5CFD2011696A815B90508F47ACF16
:103EF0006CCF8FEF9FEF0F900F900F900F90DF918F
:103F0000CF911F910F91FF90EF90DF90CF90BF90D6
:103F1000AF909F908F907F906F905F904F903F9069
:103F20002F900895FF920F931F93CF93DF93CDB7F8
:103F3000DEB72C970FB6F894DEBF0FBECDBF2115AC
:103F40003105A9F4FE01319626E0DF011D922A9584
:103F5000E9F77A8369835C834B8341E050E0BF01DA
:103F60000E949A1E21E0892BE9F020E01BC0FE018F
:103F700031960F2EFCE0FF2EF02DDF011D92FA94FA
:103F8000E9F77A8369835C834B8338872F831A87A9
:103F9000098742E050E0BF010E949A1E21E0892B70
:103FA00009F020E0822F2C960FB6F894DEBF0FBEEA
:103FB000CDBFDF91CF911F910F91FF9008950F9387
:103FC0001F93FB0101900020E9F73197AF01461BD9
:103FD000570B00E010E020E030E00E94921F1F919C
:103FE0000F9108950F931F9300E010E020E030E060
:103FF0000E94921F1F910F9108950F931F939A0192
:10400000FA0101900020E9F731978F01041B150B8D
:10401000FB0101900020E9F73197AF01461B570BD8
:104020000E94921F1F910F9108950E945C03992393
:10403000E1F308952F923F924F925F926F927F9299
:104040008F929F92AF92BF92CF92DF92EF92FF92A8
:104050000F931F93CF93DF9300D0CDB7DEB79A8332
:1040600089830E943A02262E372E882E992EE12C23
:10407000C12CD12C0E945C03F82E2AE0821302C0CE
:104080008E2D60C00F2EF0E6AF2EF0E0BF2EF02D8B
:104090008501612C712CEE24EA942FEFD801ED916B
:1040A000FD918D01EC0DFD1D80818F110BC0BFEFC7
:1040B000CB1ADB0A0E943A02262E372E882E992E22
:1040C000E62C272DEFEF6E1A7E0AF9E06F167104C9
:1040D00029F7422C532C682C792C8E2D922FFF20FF
:1040E00011F1019601F58CE70E9475038F2D0E9456
:1040F00075038CE70E94750302E710E0D501ED918E
:10410000FD915D01EC0DFD1D80810E947503A016DF
:10411000B106A1F78CE70E94750389819A810E94FC
:1041200015208CEF0FC00E943A02DC01CB018419EC
:104130009509A609B709813A9648A140B10508F446
:1041400099CF8EEF0F900F90DF91CF911F910F912C
:10415000FF90EF90DF90CF90BF90AF909F908F90A7
:104160007F906F905F904F903F902F9008951F9396
:10417000CF93DF93EC01162F0E941520112381F0BD
:10418000FE01EC59FF4F8081811123C081EF90E047
:104190000E94860381E0FE01EC59FF4F80830EC030
:1041A000FE01EC59FF4F80818130A9F485EF90E04A
:1041B0000E948603FE01EC59FF4F1082CE010E943F
:1041C0001A20982F883049F081E0963039F480E049
:1041D00005C080E003C080E001C080E0DF91CF91A6
:1041E0001F910895CF93DF93EC0161E00E94B72007
:1041F000811116C08BEF90E00E948603FE01EC59FE
:10420000FF4F108268EE73E080E090E00E9446026B
:10421000CE010E941A2091E0833019F490E001C091
:1042200091E0892FDF91CF910895FF920F931F9313
:10423000CF93DF93EC01F62E8A0161E00E94B72054
:10424000811118C083E50E9475038F2D0E947503AC
:104250008CE20E947503C8010E94860388E291E007
:104260000E948603CE010E941A2091E0813019F449
:1042700090E001C091E0892FDF91CF911F910F91C4
:10428000FF9008950895CF93DF93EC01FC01EC5962
:10429000FF4F81E0808388E090E00E94480360E067
:1042A000CE010E94B72064E670E080E090E00E94BA
:1042B000460261E0CE010E94B72064E670E080E033
:1042C00090E00E94460241E051E066E4CE010E9487
:1042D0001521CE010E94F22045E051E06EE7CE01AB
:1042E0000E94152143E051E064E5CE010E941521B2
:1042F000CE010E94F22080E0DF91CF91089580E00E
:1043000090E0089580E00895CF93DF93EC0161E0A1
:104310000E94B72081110CC087E091E00E948603C3
:10432000CE010E941A2091E0843019F090E001C083
:1043300091E0892FDF91CF91089580E00895CF9388
:10434000DF93EC0106C064E670E080E090E00E943C
:104350004602CE010E9484218823A9F381E0DF91E7
:10436000CF910895CF93DF93EC0161E00E94B720D5
:1043700081110CC08CE091E00E948603CE010E9466
:104380001A2091E0873019F490E001C091E0892F64
:10439000DF91CF91089560E00E94B72080E090E027
:1043A000089560E00E94B72080E0089560E00E94D8
:1043B000B72080E090E0089560E00E94B72080E0A0
:1043C0000895CF93DF93EB0160E00E94B720CE0108
:1043D0000E94860381E0DF91CF910895CF93C62F8D
:1043E00060E00E94B7208C2F0E94750381E0CF917E
:1043F000089560E00E94B72080E0089560E00E9488
:10440000B72081E0089580910C0390E020910D0386
:10441000821B9109089590910D0380910C039817C8
:1044200050F4E92FF0E0E25FFC4F208130E09F5F25
:1044300090930D0302C02FEF3FEFC9010895E09163
:104440000D0380910C03E81730F4F0E0E25FFC4FBD
:10445000808190E008958FEF9FEF08950895CF93A6
:10446000DF93EC01E091E402F091E502309701F175
:1044700090910D0380910C039817D0F01616170633
:104480008CF420E030E090E0DE01A90FB11D4C91EA
:10449000D901A25FBC4F4C939F5F292F30E02617B4
:1044A000370794F310920D0360930C03CB01099529
:1044B000DF91CF910895E091E602F091E702309705
:1044C00029F01092EA021092E90209950895CF921C
:1044D000DF92EF92FF920F931F93CF93DF938C01A4
:1044E000CB016A012091E8022223A1F04115510578
:1044F000A1F0EB017B01E40EF51E6991D801ED916D
:10450000FC910190F081E02DC8010995CE15DF05E1
:10451000A1F703C0642F0E948804C601DF91CF91E8
:104520001F910F91FF90EF90DF90CF900895CF9360
:10453000DF931F92CDB7DEB7FC0169839091E8024B
:104540009923D9F09091E902903238F081E090E01F
:104550009383828380E090E017C08091EA02E82F85
:10456000F0E0E551FD4F998190838F5F8093EA02DF
:104570008093E90281E090E007C061E0CE010196FE
:104580000E94880481E090E00F90DF91CF91089520
:10459000FC011382128288EE93E0A0E0B0E08483F5
:1045A0009583A683B78382E591E091838083089504
:1045B00010920D0310920C031092EA021092E9027D
:1045C0000E94A7030895CF93DF93EC01862F0E94EA
:1045D000C9038BE592E20E94B7048FE292E20E9447
:1045E000B204CE010E94D822DF91CF9108950E949B
:1045F000E32208950E94BD030895CB01BA010E94F1
:10460000CC03089581E08093E80260930B0310923D
:10461000EA021092E90208950E94022308950F937E
:10462000062F21E04091E9026BEE72E080910B03CE
:104630000E942B041092EA021092E9021092E80202
:104640000F9108954F925F926F927F92AF92BF92B7
:10465000CF92EF92FF920F931F93CF93DF935C0162
:10466000F62ED42F28013901EE2049F10E940223B1
:104670008E2D843008F083E0CFEFC80F8823D9F067
:10468000D501ED91FC918C2F880F880F880FA30125
:10469000920104C056954795379527958A95D2F78C
:1046A000CA01B9010190F081E02DC50109959C2F47
:1046B000C1509111E5CF60E0C5010E940F234D2F3D
:1046C000D13208F040E22C2D6EE073E08F2D0E9475
:1046D000DF0310920D0380930C03DF91CF911F91A4
:1046E0000F91FF90EF90CF90BF90AF907F906F9021
:1046F0005F904F900895CF92EF920F931F93C22E29
:10470000E12C00E010E098010E9422231F910F91FC
:10471000EF90CF90089521E00E947B23089521E03F
:104720000E947B2308950E947B23089561E00E94EC
:104730000F2308957093E5026093E4020895709347
:10474000E7026093E602089588ED92E00E94C82295
:104750000895AA1BBB1B51E107C0AA1FBB1FA617C8
:10476000B70710F0A61BB70B881F991F5A95A9F71A
:1047700080959095BC01CD010895A1E21A2EAA1B47
:10478000BB1BFD010DC0AA1FBB1FEE1FFF1FA21701
:10479000B307E407F50720F0A21BB30BE40BF50BFE
:1047A000661F771F881F991F1A9469F76095709587
:1047B000809590959B01AC01BD01CF010895EE0F4E
:1047C000FF1F0590F491E02D09945058BB27AA27AC
:1047D0000E94FD230C9477250E94692538F00E94E1
:1047E000702520F039F49F3F19F426F40C946625C7
:1047F0000EF4E095E7FB0C946025E92F0E948825D4
:1048000058F3BA17620773078407950720F079F405
:10481000A6F50C94AA250EF4E0950B2EBA2FA02D28
:104820000B01B90190010C01CA01A0011124FF275D
:10483000591B99F0593F50F4503E68F11A16F04058
:10484000A22F232F342F4427585FF3CF4695379557
:104850002795A795F0405395C9F77EF41F16BA0B1C
:10486000620B730B840BBAF09150A1F0FF0FBB1FCA
:10487000661F771F881FC2F70EC0BA0F621F731F13
:10488000841F48F4879577956795B795F7959E3F70
:1048900008F0B0CF9395880F08F09927EE0F979501
:1048A000879508950E943C2508F481E008950E94B0
:1048B0006B240C9477250E94702558F00E9469257E
:1048C00040F029F45F3F29F00C94602551110C94BD
:1048D000AB250C9466250E94882568F39923B1F3D3
:1048E000552391F3951B550BBB27AA276217730716
:1048F000840738F09F5F5F4F220F331F441FAA1FAA
:10490000A9F335D00E2E3AF0E0E832D09150504065
:10491000E695001CCAF72BD0FE2F29D0660F771F13
:10492000881FBB1F261737074807AB07B0E809F0F9
:10493000BB0B802DBF01FF2793585F4F3AF09E3F7E
:10494000510578F00C9460250C94AB255F3FE4F39F
:10495000983ED4F3869577956795B795F7959F5FC1
:10496000C9F7880F911D9695879597F90895E1E00D
:10497000660F771F881FBB1F621773078407BA076C
:1049800020F0621B730B840BBA0BEE1F88F7E095C7
:1049900008950E94D0246894B1110C94AB25089519
:1049A0000E94902588F09F5798F0B92F9927B7510A
:1049B000B0F0E1F0660F771F881F991F1AF0BA95C3
:1049C000C9F714C0B13091F00E94AA25B1E0089552
:1049D0000C94AA25672F782F8827B85F39F0B93F44
:1049E000CCF3869577956795B395D9F73EF4909576
:1049F0008095709561957F4F8F4F9F4F0895E894F4
:104A000009C097FB3EF490958095709561957F4F16
:104A10008F4F9F4F9923A9F0F92F96E9BB279395C4
:104A2000F695879577956795B795F111F8CFFAF4D4
:104A3000BB0F11F460FF1BC06F5F7F4F8F4F9F4F05
:104A400016C0882311F096E911C0772321F09EE863
:104A5000872F762F05C0662371F096E8862F70E0C9
:104A600060E02AF09A95660F771F881FDAF7880FA3
:104A70009695879597F90895990F0008550FAA0BF9
:104A8000E0E8FEEF16161706E807F907C0F0121661
:104A90001306E407F50798F0621B730B840B950B64
:104AA00039F40A2661F0232B242B252B21F40895B9
:104AB0000A2609F4A140A6958FEF811D811D089556
:104AC00097F99F6780E870E060E008959FEF80ECC1
:104AD000089500240A941616170618060906089564
:104AE00000240A9412161306140605060895092ECA
:104AF0000394000C11F4882352F0BB0F40F4BF2B39
:104B000011F460FF04C06F5F7F4F8F4F9F4F089578
:104B100057FD9058440F551F59F05F3F71F047956E
:104B2000880F97FB991F61F09F3F79F08795089553
:104B3000121613061406551FF2CF4695F1DF08C072
:104B4000161617061806991FF1CF8695710561058F
:104B500008940895E894BB2766277727CB0197F937
:104B600008950E943C2508F48FEF08950E94C925FE
:104B70000C9477250E94692538F00E94702520F05A
:104B8000952311F00C9460250C94662511240C9447
:104B9000AB250E94882570F3959FC1F3950F50E0D7
:104BA000551F629FF001729FBB27F00DB11D639FDF
:104BB000AA27F00DB11DAA1F649F6627B00DA11D85
:104BC000661F829F2227B00DA11D621F739FB00D2B
:104BD000A11D621F839FA00D611D221F749F33279B
:104BE000A00D611D231F849F600D211D822F762F34
:104BF0006A2F11249F5750409AF0F1F088234AF011
:104C0000EE0FFF1FBB1F661F771F881F915050407C
:104C1000A9F79E3F510580F00C9460250C94AB25BC
:104C20005F3FE4F3983ED4F3869577956795B79503
:104C3000F795E7959F5FC1F7FE2B880F911D96951D
:104C4000879597F908950E943C25880B990B089544
:104C5000EF920F931F93CF93DF93E80147FD02C0BC
:104C600034E001C034E1E42F440FFF0BF7FF03C031
:104C7000F195E195F109E32E022F2E2FAE010E944E
:104C8000A229CE01DF91CF911F910F91EF9008954E
:104C9000CF93DF938230910510F482E090E0E091B1
:104CA0003203F091330320E030E0C0E0D0E03097F1
:104CB00011F14081518148175907C0F04817590731
:104CC00061F482819381209719F09B838A832BC0A2
:104CD000909333038093320326C02115310519F0D8
:104CE0004217530718F49A01BE01DF01EF01028059
:104CF000F381E02DDCCF2115310509F1281B390B9B
:104D00002430310590F412968D919C911397611582
:104D1000710521F0FB019383828304C090933303D8
:104D200080933203FD01329644C0FD01E20FF31F70
:104D300081939193225031092D933C933AC0209155
:104D4000300330913103232B41F4209174003091D2
:104D5000750030933103209330032091720030911D
:104D600073002115310541F42DB73EB7409176000F
:104D700050917700241B350BE0913003F091310303
:104D8000E217F307A0F42E1B3F0B2817390778F022
:104D9000AC014E5F5F4F2417350748F04E0F5F1F81
:104DA00050933103409330038193919302C0E0E02C
:104DB000F0E0CF01DF91CF9108950F931F93CF9330
:104DC000DF93009709F48CC0FC01329713821282A2
:104DD00000913203109133030115110581F42081F4
:104DE0003181820F931F20913003309131032817B6
:104DF000390779F5F0933103E093300371C0D8019E
:104E000040E050E0AE17BF0750F412962D913C9150
:104E10001397AD012115310509F1D901F3CF9D019A
:104E2000DA013383228360817181860F971F821795
:104E3000930769F4EC0128813981260F371F2E5F13
:104E40003F4F318320838A819B8193838283452BCB
:104E500029F4F0933303E093320342C01396FC939A
:104E6000EE931297ED01499159919E01240F351F40
:104E7000E217F30771F480819181840F951F0296E8
:104E800011969C938E938281938113969C938E931B
:104E90001297E0E0F0E0D80112968D919C91139763
:104EA000009719F0F8018C01F6CF8D919C91980133
:104EB0002E5F3F4F820F931F2091300330913103BB
:104EC0002817390769F4309729F4109233031092A8
:104ED000320302C013821282109331030093300315
:104EE000DF91CF911F910F910895A0E0B0E0EBE723
:104EF000F7E20C949F2DEC01009721F4CB010E9466
:104F00004826B8C0FC01E60FF71F9C01225031096A
:104F1000E217F30708F4ACC0D9010D911C91119769
:104F200006171707B0F00530110508F49FC0C80137
:104F300004978617970708F499C002501109061BB9
:104F4000170B019311936D937C93CF010E94DD2683
:104F50008DC05B01A01AB10A4C01800E911EA09178
:104F60003203B091330340E050E0E12CF12C109774
:104F700009F44AC0A815B905D1F56D907C90119738
:104F8000630182E0C80ED11CCA14DB0480F1A301C6
:104F90004A195B096A0182E0C80ED11C1296BC90C6
:104FA00012971396AC91B5E0CB16D10440F0B282C3
:104FB000A38351834083D9016D937C930AC00E5F14
:104FC0001F4FC301800F911FF90191838083EB2D47
:104FD000FA2FE114F10431F0D7011396FC93EE930C
:104FE000129744C0F0933303E09332033FC08D9196
:104FF0009C9111974817590708F4AC017D0112964E
:105000000D90BC91A02DB3CF8091300390913103CE
:1050100088159905E1F446175707C8F48091720086
:1050200090917300009741F48DB79EB74091760040
:1050300050917700841B950BE817F907C8F4F0939B
:105040003103E0933003F901718360830FC0CB011A
:105050000E9448267C01009759F0A801BE010E94D9
:105060009328CE010E94DD26C70104C0CE0102C0F4
:1050700080E090E0CDB7DEB7EEE00C94BB2D662764
:1050800077270C94302B1F93FC0199278827BC01AC
:10509000E89411911032E9F3193010F01E30C8F382
:1050A0001B3251F01D3249F4689406C00E943B291E
:1050B000610F711D811D911D119110531A30B0F3B4
:1050C0003EF490958095709561957F4F8F4F9F4FDF
:1050D0001F91089591110C94652D803219F089501B
:1050E0008550C8F708959111089581548A5108F4A4
:1050F000805E855A08959111089581568A5108F469
:10510000805285580895FB01DC0105900D92002026
:10511000E1F70895FC0105900020E9F7809590954E
:105120008E0F9F1F0895FB01DC0102C001900D92BC
:1051300041505040D8F708956817790768F4FB018B
:10514000DC01E40FF51FA40FB51F02C002900E9200
:1051500041505040D8F708950C949328FC01819158
:10516000861721F08823D9F7992708953197CF0121
:105170000895FB01DC018D91019080190110D9F394
:10518000990B0895FB01DC0101900D920020E1F7DD
:105190000895FB01DC014150504030F08D910190A9
:1051A000801919F40020B9F7881B990B0895FB01A9
:1051B000DC014150504048F001900D920020C9F7A9
:1051C00001C01D9241505040E0F70895FC0181E07C
:1051D00090E00190061609F4CF010020D1F7019765
:1051E0000895FB0151915523A9F0BF01DC014D91B8
:1051F00045174111E1F759F4CD010190002049F024
:105200004D9140154111C9F3FB014111EFCF81E0F0
:1052100090E0019708954532510520F4423010F096
:105220000C941629FB011082CB010895BB274A304C
:1052300031F4992322F4BDE2909581959F4F0C940F
:1052400089292532310520F4223010F00C942C29C4
:10525000FA011082CA010895BB272A3051F499231C
:1052600042F4BDE290958095709561957F4F8F4F88
:105270009F4F0C945C29592F482F372F262F660FEC
:10528000771F881F991F660F771F881F991F620F4E
:10529000731F841F951F660F771F881F991F08951E
:1052A0002532310520F4223010F00C945B29FA01EC
:1052B0001082CA010895BB27FA01A62F6217710553
:1052C00081059105330B30FB66F0AA27660F771F27
:1052D000881F991FAA1FA21710F0A21B63953850B0
:1052E000A9F7A05DAA3308F0A95DA19336F7B11123
:1052F000B1931082CA010C94802D4532510520F4DF
:10530000423010F00C948829FB011082CB010895E3
:10531000BB27FB015527AA27880F991FAA1FA4178F
:1053200010F0A41B83955051B9F7A05DAA3308F083
:10533000A95DA193009779F7B111B1931192CB01B7
:105340000C94802D4F925F926F927F929F92AF92BA
:10535000BF92CF92DF92EF92FF920F931F93CF9362
:10536000DF93CDB7DEB729970FB6F894DEBF0FBE37
:10537000CDBF6A01122FB02E2BE3201720F0FF249F
:10538000F394F00E02C0BCE3FB2E0F2D27E0AE011C
:105390004F5F5F4F0E948D2CAC018981982F9970CF
:1053A000913031F0E1FC06C0E0FE06C090E205C09D
:1053B0009DE203C09BE201C090E0EE2DE07183FF0F
:1053C0003CC0911102C083E001C084E0811718F451
:1053D000212F281B01C020E0E1110BC0F601822F14
:1053E00030E2882319F031938150FBCFC20ED11CDB
:1053F00020E0992329F0D6019C93F60131966F01A4
:10540000C6010396E2FE0AC03EE4D6013C9341E4A5
:1054100011964C93119712963C9306C03EE6F60106
:10542000308341E641833283FC01322F40E2332353
:1054300009F442C041933150FACF82FF44C0911128
:1054400002C083E001C084E0811718F4212F281BDB
:1054500001C020E0E1110BC0F601822F30E2882369
:1054600019F031938150FBCFC20ED11C20E099235B
:1054700029F0D6019C93F60131966F01C60103967F
:10548000E2FE0BC039E4D6013C933EE411963C9316
:10549000119736E412963C9307C039E6F601308343
:1054A0003EE6318336E63283FC01322F40E233237D
:1054B00019F041933150FBCFFC01E20FF11D108236
:1054C0008EEF9FEFB7C0F1E0911101C0F0E06F2FB8
:1054D00070E01416150624F49A012F5F3F4F02C0A6
:1054E00021E030E0260F371FBB2029F06B2D70E044
:1054F0006F5F7F4F02C060E070E0260F371F612FA3
:1055000070E0261737071CF4121B212F01C020E082
:105510003E2D387159F4D601322F60E2332319F051
:105520006D933150FBCFC20ED11C20E0FF2331F030
:10553000D6019C93B6016F5F7F4F6B01E1110BC0E9
:10554000F601922F30E3992319F031939150FBCF5C
:10555000C20ED11C20E09F2D940F3A81782F7071DC
:10556000A72E84FF03C0313309F49150191624F497
:10557000993018F098E001C091E0E42F852F57FF93
:1055800002C0E0E080E06E2F782FE0E0F0E0AEE2D5
:105590009A2E3A01691A71082A01461A570A0B2DE8
:1055A00010E01195019511096F3F8FEF780729F4ED
:1055B000D6019C92C60101966C014617570784F0EC
:1055C000661677066CF47F01E40CF51CA1E0B0E0F0
:1055D000AC0FBD1FEA0EFB1ED7011196BC9002C096
:1055E00090E3B92E615071093196C60101967C0194
:1055F0006017710724F0D601BC926C01D5CF6417F7
:10560000750741F4363320F4353321F4A11002C07C
:1056100081E3B82EF601B082F701822F90E2882351
:1056200019F091938150FBCFF701E20FF11D108229
:1056300080E090E029960FB6F894DEBF0FBECDBF94
:10564000DF91CF911F910F91FF90EF90DF90CF905E
:10565000BF90AF909F907F906F905F904F90089514
:10566000A0E0B0E0E6E3FBE20C949F2DEC017B01AF
:105670006115710519F0DB018D939C938E010F5F0D
:105680001F4F7880872D90E00E946A28892B11F0A7
:10569000E801F4CFBDE27B1205C00F5F1F4F798098
:1056A000C1E008C0EBE27E1204C08E010E5F1F4F06
:1056B0007980C0E06801F1E0CF1AD10843E050E002
:1056C00068E672E0C6010E94682D892BF1F468013A
:1056D00022E0C20ED11C45E050E063E672E0C60154
:1056E0000E94682D892B21F4680187E0C80ED11C27
:1056F000E114F10419F0D701CD92DC92C111FFC081
:1057000060E070E080E89FE703C143E050E060E6BE
:1057100072E0C6010E94682D892B51F4E114F10456
:1057200009F4F2C00E5F1F4FF70111830083ECC034
:10573000680160E070E0CB0100E010E0F601D0ED20
:10574000D70DDA3058F52C2F2260622E2C2F2870BE
:10575000C2FF05C0211128C00F5F1F4F25C02223A3
:1057600011F001501109A5E0B0E09B01AC010E94CD
:10577000902D4B015C01880C991CAA1CBB1CC50117
:10578000B4016D0F711D811D911D6839A9E97A075A
:105790008A07A9E19A0740F0C66005C0DE3F51F4D0
:1057A000C3FD44C0C8606C2EBFEFCB1ADB0A70800B
:1057B000C62DC4CF2D2F2F7D2531C1F540814D320F
:1057C00011F4C06106C04B3221F0319621E030E087
:1057D00006C03296D60111964C9122E030E0A0ED41
:1057E000A40FAA3018F0E21BF30B20C040E050E0F9
:1057F0004038BCE05B075CF49A01220F331F220F94
:10580000331F420F531F440F551F4A0F511D31962E
:10581000DF0111972C91A0EDA20FAA3048F3C4FF2D
:1058200003C0519541955109040F151FC1FF07C0D1
:10583000E114F10421F03197D701ED93FC930E941C
:10584000FF24C370C33019F06B017C0106C06B01EB
:105850007C01F7FAF094F7F8F09420E030E0A90129
:10586000C701B6010E945224882309F445C017FFDE
:1058700006C0119501951109CFE7D2E002C0C7E932
:10588000D2E05E01B8E1AB1AB1084601BE2DAF2DE2
:1058900090E2E92EF12C0E151F0584F0FE012591F2
:1058A000359145915491B4018B2F9A2F0E94B625C2
:1058B0004B01B82FA92F0E191F09EDCF2497F5948E
:1058C000E794CA15DB0539F76401EB2EFA2E8E2D0D
:1058D000880F8F2D881F8F3F49F020E030E0A9010D
:1058E000C701B6010E945224811106C082E290E0F5
:1058F0009093350380933403C701B60109C060E07B
:1059000070E080E89FEF04C060E070E080EC9FE70B
:10591000CDB7DEB7EEE00C94BB2D283008F027E0C1
:105920003327DA01990F311D87FD916000966105DB
:10593000710539F432602E5F3D9330E32A95E1F72B
:1059400008959F3F30F080387105610509F03C5F94
:105950003C5F3D93913008F08068911DDF93CF93B9
:105960001F930F93FF92EF92192F987F9695E92F2F
:1059700096959695E90FFF27EB50FD4F9927332712
:10598000EE24FF24A701E70105900894079428F46A
:10599000360FE71EF81E491F511D660F771F881F1F
:1059A000991F0694A1F70590079428F4E70EF81EB6
:1059B000491F561FC11D770F881F991F661F069428
:1059C000A1F70590079428F4F80E491F561FC71F2A
:1059D000D11D880F991F661F771F0694A1F70590A8
:1059E000079420F4490F561FC71FD81F990F661F31
:1059F000771F881F0694A9F784911095177041F0BE
:105A0000D695C79557954795F794E7941A95C1F79A
:105A1000EBE9F2E0689415901591359165919591B7
:105A200005907FE27395E118F10A430B560BC90B01
:105A3000D009C0F7E10CF11E431F561FC91FD01D2E
:105A40007EF4703311F48A95E6CFE894015030F07B
:105A5000080F0AF40027021708F4202F2395022FBD
:105A60007A3328F079E37D932A95E9F710C07D9386
:105A70002A9589F606949795679537951795179403
:105A8000E118F10A430B560BC90BD00998F0239586
:105A90007E9173957A3308F070E37C932013B8F706
:105AA0007E9170617D9330F0839571E37D9370E317
:105AB0002A95E1F71124EF90FF900F911F91CF915C
:105AC000DF91992787FD9095089599278827089554
:105AD000FB01DC014150504088F08D9181341CF075
