S0120000676F6C64626F617264342E7372656330
S11300000C942C000C9454000C9454000C94540044
S11300100C9480020C9454000C9454000C945400DE
S11300200C9454000C9454000C941C040C94540030
S11300300C9454000C9451050C947D050C945400BC
S11300400C9454000C9454000C9454000C94DF044D
S11300500C9454001606640611241FBECFE5D8E0A4
S1130060DEBFCDBF10E0A0E6B0E0E8E8FDE002C0EE
S113007005900D92AA37B107D9F721E0AAE7B0E0BD
S113008001C01D92A238B207E1F710E0CCE2D0E043
S113009004C02197FE010E94B306CA32D107C9F7F2
S11300A00E941D060C94C2060C940000CF92DF92AD
S11300B0EF92FF920F931F93CF93DF937C01EC0198
S11300C08C01045F1F4FCE010E941F0223960C1760
S11300D01D07C9F7E7012C96CE010E94480267016B
S11300E08FE0C80ED11CC6010E9448020E9467041A
S11300F00E9471046FE3CE010E944D0268E3C601C1
S11301000E944D028701C0E0A6016C2FC8010E9425
S11301102002CF5F0D5F1F4FC430B1F7F701148A7F
S1130120128A138ADF91CF911F910F91FF90EF9064
S1130130DF90CF90089520916000222341F09093A6
S11301408C0080938B000E94D50310926000089568
S1130150CF93DF9378942091830030918400C091F1
S11301607B00D0917C002C173D0709F44AC0AE01F6
S1130170421B530B8091610090E08417950724F48F
S1130180E901C80FD91F0AC066277727681B790BB6
S1130190461757071CF4E901C81BD90BDD23B4F437
S11301A041E060E080918B0090918C000E945002AD
S11301B040E061E080918B0090918C000E9450029D
S11301C06C2F619580E00E94130314C040E060E04E
S11301D080918B0090918C000E94500241E061E07C
S11301E080918B0090918C000E9450026C2F80E0D3
S11301F00E941303D0938400C093830081E0809312
S11302007A002091850030918600C0917D00D091C4
S11302107E002C173D0709F44AC0AE01421B530B64
S11302208091610090E08417950724F4E901C80FD8
S1130230D91F0AC066277727681B790B461757070B
S11302401CF4E901C81BD90BDD23B4F441E061E0DF
S113025080918B0090918C000E94500240E062E0FB
S113026080918B0090918C000E9450026C2F6195BC
S113027081E00E94130314C040E061E080918B0090
S113028090918C000E94500241E062E080918B00CA
S113029090918C000E9450026C2F81E00E94130305
S11302A0D0938600C093850081E080937A002091EA
S11302B0870030918800C0917F00D09180002C1776
S11302C03D0709F454C0AE01421B530B80916100F9
S11302D090E08417950724F4E901C80FD91F0AC0D8
S11302E066277727681B790B461757071CF4E90123
S11302F0C81BD90BDD23B4F441E062E080918B008C
S113030090918C000E94500240E063E080918B0049
S113031090918C000E9450026C2F619582E00E94A3
S1130320130314C040E062E080918B0090918C0034
S11303300E94500241E063E080918B0090918C0018
S11303400E9450026C2F82E00E941303E3E8F0E065
S1130350D583C48381E080937A0026813781C0915C
S11303608100D09182002C173D0769F45BC0209175
S1130370890030918A00C0918100D09182002C17AD
S11303803D0709F44BC0AE01421B530B8091610041
S113039090E08417950724F4EC01C20FD31F0AC020
S11303A066277727681B790B461757071CF4E90162
S11303B0C81BD90BDD23B4F441E063E080918B00CA
S11303C090918C000E94500240E064E080918B0088
S11303D090918C000E9450026C2F619583E00E94E2
S11303E0130314C040E063E080918B0090918C0073
S11303F00E94500241E064E080918B0090918C0057
S11304000E9450026C2F83E00E941303D0938A0051
S1130410C093890081E080937A0004C080917A00BF
S1130420882351F00E94150480918B0090918C00D8
S11304300E946E0210927A00DF91CF910895089580
S1130440FF920F931F93CF93DF93EC01F62E8A0153
S1130450CA010E949B001A830983F882DF91CF911D
S11304601F910F91FF900895FC012FEF269FC0016B
S1130470279F900D112464E670E00E947D06E081C0
S1130480F0E0EE0FFF1FE558FF4F7183608308957E
S1130490FC01108221E021830895FC016283089508
S11304A0FC012081442351F081E090E002C0880FD8
S11304B0991F6A95E2F7822B80830AC081E090E05D
S11304C002C0880F991F6A95E2F780958223808382
S11304D08081281711F081E081830895CF93DF9301
S11304E0FC012181222349F0EC0120E030E041E0CD
S11304F0BC0182810E94B6041982DF91CF910895D4
S11305001F920F920FB60F9211242F933F934F9384
S11305105F938F939F93EF93FF93AF9A80918D0096
S1130520811142C080918E00882311F120916800CE
S1130530309169008091640090916500409166005B
S113054050916700509369004093680040916200A5
S113055050916300509365004093640030936700AA
S113056020936600909363008093620010928E0043
S1130570E0916400F0916500808198B3282F2F707A
S1130580922B98BB92B38695869586958670892B17
S113059082BB80918D00E0916800F0916900E80FC2
S11305A0F11D808183BD1FC0E0916400F09165005E
S11305B0E80FF11D808128B3982F9F7090959223A6
S11305C098BB92B386958695869586708095892387
S11305D082BB80918D00E0916800F0916900E80F82
S11305E0F11D808183BD80918D008F5F80938D008C
S11305F0E0916800F0916900E80FF11D9081992362
S113060011F0873011F410928D00AF98FF91EF91A3
S11306109F918F915F914F913F912F910F900FBEBA
S11306200F901F901895863028F4E82FF0E0EF54CF
S1130630FF4F60830895FF920F931F93CF93DF932F
S1130640C5E0D0E0F12C00E0BE011C161D0644F507
S11306508F2D902F40E0FC01E555FF4F50819C0108
S11306602F5F3F4FF901E555FF4F1081A52FB0E0F3
S1130670AF54BF4FE12FF0E0EF54FF4FAC91E08156
S1130680EA1740F4FC01E555FF4F1083F901E555E5
S1130690FF4F50834F5F842F90E086179707DCF25B
S11306A0219791F6DF91CF911F910F91FF900895BB
S11306B080918E008111FCCF81E080938E0008959B
S11306C0CF92DF92EF92FF920F931F93CF93DF931A
S11306D0E0916200F09163001082ABEAB0E041EB7C
S11306E050E030E020E061E070E00AE010E09D912D
S11306F0E92FF0E0EF54FF4F80818823A9F1C091E6
S11307006200D0916300FB0102C0EE0FFF1F9A95B7
S1130710E2F798819E2B988390E0821B91098530A3
S1130720910554F4C0916200D0916300C30FD11DB0
S11307308881E82BE88318C08A3091050CF4802F57
S1130740C32ED12CE0906200F0906300EC0CFD1CF1
S1130750E701E983E0916600F0916700E601CE0FBE
S1130760DF1F8883280F3F5FA417B50709F0BFCFA9
S1130770832F90E0E0916600F0916700E80FF91F85
S113078020952083363040F4209166003091670034
S1130790F901E80FF91F1182DF91CF911F910F9199
S11307A0FF90EF90DF90CF900895F894EBEAF0E09B
S11307B0108281E0818382E0828383E0838384E00A
S11307C0848385E085830E946003209168003091D2
S11307D06900809164009091650040916600509199
S11307E06700509369004093680040916200509103
S11307F06300509365004093640030936700209336
S11308006600909363008093620087B38F6087BB18
S113081081B3866081BB85B58B6085BD89B78068EF
S113082089BF8FEF83BD789408950E941B030E94B3
S113083060030E94580308951F920F920FB60F92FF
S113084011242F933F934F935F936F937F938F93D1
S11308509F93AF93BF93EF93FF93AE9A8091B700AA
S11308609091B800A091B900B091BA000196A11D71
S1130870B11D8093B7009093B800A093B900B093D2
S1130880BA006091B7007091B8008091B90090915E
S1130890BA002AE030E040E050E00E949106672B65
S11308A0682B692B11F40E94A800AE98FF91EF9178
S11308B0BF91AF919F918F917F916F915F914F9174
S11308C03F912F910F900FBE0F901F90189583B7F3
S11308D08B6083BF89B7826089BF8AEF8CBF7894AD
S11308E0089588E480B981B18C7F81B91092E000C9
S11308F0789484E086BF85B3836085BB0895809136
S1130900E0008111FCCF8CEB90E00895ABEBB0E0FC
S11309109296EC91929781E08E0F92968C9383B18C
S1130920F0E0E554FF4F80830895EBEBF0E022A163
S113093030E080A190E00197281739071CF485EC7A
S113094086BF089585E886BF0895EBEBF0E08081CB
S113095090E0959587951092E00003A0F4A1E02D16
S1130960309719F06CEB70E009950895EF92FF92BF
S11309700F931F93CF93DF93D82F8B01C42F79014B
S11309800E947F0481E08093E000EBEBF0E0DD0F58
S1130990D0838C0F80A311A212A2F4A2E3A24C2F45
S11309A050E0B8018CEB90E00E94B90685EA86BF5E
S11309B0DF91CF911F910F91FF90EF9008951F92B7
S11309C00F920FB60F9211242F933F934F935F937F
S11309D06F937F938F939F93AF93BF93EF93FF9303
S11309E081B1887F883281F040F4803169F08831A8
S11309F059F0883009F040C007C0803571F188355E
S1130A00A1F18034C9F52EC08091DC00823059F404
S1130A108091DD00823039F48091BB00816083B91C
S1130A2085E886BF2DC0ABEBB0E09296EC9192972F
S1130A3090968C91E81760F481E08E0F8093DD002E
S1130A40F0E0E554FF4F808183B985E886BF18C084
S1130A5084E986BF0E94A50413C00E9486040E94F4
S1130A6095040EC00E9495040BC00E94860484E97C
S1130A7086BF0E94A50404C084E986BF0E94A50421
S1130A80FF91EF91BF91AF919F918F917F916F9162
S1130A905F914F913F912F910F900FBE0F901F9038
S1130AA018951F920F920FB60F9211242F938F93C4
S1130AB09F93EF93FF938BB12CB18871E091E30086
S1130AC0EF5FEF719091E200E91739F0E093E300F2
S1130AD0F0E0EA51FF4F208301C082E09091E100F1
S1130AE0892B8093E100FF91EF919F918F912F913A
S1130AF00F900FBE0F901F9018951F920F920FB674
S1130B000F9211248F939F93EF93FF939091E5009D
S1130B108091E400981761F0E091E400EF5FEF71D9
S1130B20E093E400F0E0EA5FFE4F80818CB901C0FD
S1130B305598FF91EF919F918F910F900FBE0F9059
S1130B401F90189580912801882399F0809129019C
S1130B50803290F480912A01E82FF0E0E55DFE4FA9
S1130B6060838F5F80932A018093290181E090E064
S1130B70089581E090E0089580E090E00895CF9298
S1130B80DF92EF92FF920F931F93CF93DF938C0129
S1130B906A0180912801882399F04115510581F05B
S1130BA0EB017B01E40EF51E6991D801ED91FC91F6
S1130BB00190F081E02DC8010995CE15DF05A1F75C
S1130BC0C601DF91CF911F910F91FF90EF90DF90BD
S1130BD0CF90089580914B0190E020914C01821BAD
S1130BE09109089590914C0180914B01981750F40C
S1130BF0E92FF0E0E35BFE4F208130E09F5F9093AC
S1130C004C0102C02FEF3FEFC9010895E0914C0160
S1130C1080914B01E81730F4F0E0E35BFE4F8081F4
S1130C2090E008958FEF9FEF089508958EE690E089
S1130C3090932701809326010895A79AA69AAF98C6
S1130C40AE9864E670E080E791E00E9434026EECB6
S1130C507FEF8DE691E00E94340262EE7FEF86E73B
S1130C6091E00E94340268E270E083E791E00E9420
S1130C7034022FEF89E698E1215080409040E1F75B
S1130C8000C0000060E070E08DE691E00E94340254
S1130C9060E070E080E791E00E94340260E070E080
S1130CA083E791E00E94340260E070E086E791E01F
S1130CB00E9434022FEF89E698E121508040904051
S1130CC0E1F700C00000BDCF8DE691E00E94560020
S1130CD00895AA1BBB1B51E107C0AA1FBB1FA6177F
S1130CE0B70710F0A61BB70B881F991F5A95A9F7D1
S1130CF080959095BC01CD01089597FB072E16F4BD
S1130D00009407D077FD09D00E94690607FC05D03E
S1130D103EF4909581959F4F0895709561957F4F0E
S1130D200895A1E21A2EAA1BBB1BFD010DC0AA1F28
S1130D30BB1FEE1FFF1FA217B307E407F50720F040
S1130D40A21BB30BE40BF50B661F771F881F991FBB
S1130D501A9469F760957095809590959B01AC0104
S1130D60BD01CF010895EE0FFF1F0590F491E02D12
S1130D700994FB01DC0102C001900D9241505040E6
S10B0D80D8F70895F894FFCFA1
S1130D88013296008F00A4009D0000000000A20517
S10D0D98BF05EA05F205060615067C
S9030000FC
